:020000040800F2
:10000000A8C80020B1620008C3020008C5020008A9
:10001000C7020008C9020008CB0200080000000067
:10002000000000000000000000000000CD020008F9
:10003000CF02000800000000D1020008D30200082F
:10004000CB620008CB620008CB620008CB620008DC
:10005000CB620008CB620008CB620008CB620008CC
:10006000CB620008CB620008CB620008CB620008BC
:10007000CB620008CB620008CB620008CB620008AC
:10008000CB620008CB620008CB620008CB6200089C
:10009000CB620008CB620008CB620008CB6200088C
:1000A000CB620008CB620008CB620008CB6200087C
:1000B000CB6200085B600008CB620008CB620008DE
:1000C000CB620008CB620008CB620008CB6200085C
:1000D000CB62000849620008CB620008CB620008CE
:1000E000CB620008CB620008CB620008CB6200083C
:1000F000CB620008CB620008CB620008CB6200082C
:10010000CB620008CB620008CB620008CB6200081B
:10011000CB620008CB620008D7600008CB62000801
:10012000CB620008CB620008CB620008CB620008FB
:1001300000F002F800F06AF80AA090E8000C82448F
:100140008344AAF10107DA4501D100F05FF8AFF26C
:10015000090EBAE80F0013F0010F18BFFB1A43F0A5
:1001600001031847EC1007000C1107000A444FF078
:10017000000C10F8013B13F0070408BF10F8014B06
:100180001D1108BF10F8015B641E05D010F8016B4B
:10019000641E01F8016BF9D113F0080F1EBF10F8AF
:1001A000014BAD1C0C1B09D16D1E58BF01F801CBD2
:1001B000FAD505E014F8016B01F8016B6D1EF9D555
:1001C0009142D6D37047000000230024002500266A
:1001D000103A28BF78C1FBD8520728BF30C148BFAA
:1001E0000B60704769290BF0998164290BF09681A7
:1001F00078290BF0CF8173290BF0738400207047AE
:100200001FB50BF008FA1FBD10B510BD0BF0CAFCEE
:100210001146FFF7F5FF00F023F80BF0E8FC03B4FC
:10022000FFF7F2FF03BC05F0B7FF00000B49D1F860
:1002300000C04A685CF8043B1068184442F8040B9C
:100240008C4528BFA1F1DC0C8A4228BFA1F1DC0259
:10025000C1F800C04A6020F00040704740BE002056
:1002600005F04EFF4FF4A06006F020F94FF4E130A6
:1002700005F09CFF00F0DAF800F0BEFE00F0FEF89A
:1002800005F027FE04F00EF940F2E734472120463E
:1002900005F0B6FE40F2CF21204605F0EFFE00202B
:1002A00006F034F8012006F031F80121402006F074
:1002B0008BFB042016F030FD0FF010FB08F0D5FA90
:1002C000FEE77047FEE7FEE7FEE7FEE77047704790
:1002D000704770470CB500224C48009201920168AB
:1002E00041F4803101604FF4A063016801F40031F2
:1002F00001910099491C0091019911B90099994205
:10030000F3D10168890333D50121019140490A687D
:1003100042F010020A600A6822F003020A600A68CA
:1003200042F002020A6041684160416841604168F0
:1003300041F480614160416821F47C114160416871
:1003400041F4E8114160016841F080710160016889
:100350008901FCD5416821F003014160416841F009
:10036000020141604168C1F381010229FAD10CBD4B
:1003700001920CBD254810B5016841F001010160F2
:100380004168244A114041600168234A11400160DC
:10039000016821F480210160416821F4FE0141607F
:1003A0004FF41F018160FFF795FF1C494FF000607B
:1003B000086010BD154A10B55068194B10F00C01BB
:1003C000184803D0042901D0082901D0036012E0A5
:1003D0005168536801F470114FF0020413F4803F28
:1003E00004EB914102D053689B0301D50E4B00E012
:1003F0000B4B5943016051680A4AC1F30311121DA6
:10040000515C0268CA40026010BD0000001002404A
:10041000002002400000FFF8FFFFF6FE08ED00E0BC
:1004200000127A000000002000093D0038B50121CB
:10043000482006F0D2FA2024ADF8004010208DF8B4
:10044000030003200B4D8DF802006946284606F094
:10045000DCF82021284606F042F9ADF80040064CB1
:100460006946204606F0D1F82021204606F037F9EB
:1004700038BD0000000C01400018014008B5012102
:10048000442006F0AAFA1C20ADF8000048208DF8A0
:1004900003006946364806F0B8F80120ADF80000C0
:1004A00028208DF803006946324806F0AEF808BDF2
:1004B0002DE9F041304C2F4F2D4D012608B126700B
:1004C00001E02078A0B11021284606F0F4F8B0B180
:1004D0000821284606F0EFF888B10421284606F0E6
:1004E000EAF860B10121384606F0E5F8012806D0A7
:1004F0001021284606F0DFF8012824D035E00A2034
:1005000005F02CFE002020701021284606F0D3F8BC
:1005100080B10821284606F0CEF870B104212846A3
:1005200006F0C9F858B10121384606F0C4F8012890
:1005300007D01AE00120BDE8F0810220FBE703208C
:10054000F9E70420F7E70821284606F0B4F8012867
:100550000BD10421284606F0AEF8012805D101216F
:10056000384606F0A8F800B926700020E3E700003E
:10057000001801400008014014000020F9490880DB
:100580007047F849891C08807047F64808B5801CF8
:100590000088ADF80000BDF8000008BDF14A1080E9
:1005A000901C01807047EF4910B50880052005F0C8
:1005B000BEFDBDE81040E8E7EB48EA490089088045
:1005C0007047E849891C08807047C0F34511C20A8A
:1005D000C00200EB4110104480B27047401EC0B210
:1005E000FCD270472DE9F04FDF4F0B463A46BD88ED
:1005F0000C0ADFF870A391895289A5F513464FEADA
:10060000102C0AF10209413E21D0A5F5A646103E64
:100610001DD03E46BE4696F806B03688A5F5D047B2
:10062000A6EB0008A8F10108043F1BD0A5F5C857A8
:10063000633F2CD0A5F5AA477646103F55D0A5F5C7
:100640001447863F66D0BBF1010F7CD081E0AAF849
:1006500000204A46A9F800C0C0B2A9F80000AAF8D4
:1006600000100FE0BBF1010F01D11FFA88F0AAF8CA
:100670000020050A4A46A9F80050C0B2A9F80000B7
:10068000AAF800101480D8B21080BDE8F08FBBF13A
:10069000000F1BD0AAF800204A46A9F800C0C0B23B
:1006A000A9F80000761E300AA9F80000F0B2108008
:1006B000AAF8001011461480D8B21080BEF80200CB
:1006C000401E020A0A80C0B20880DEE71FFA88F0E6
:1006D000AAF8002000264A46A9F80060A9F80060A0
:1006E000060AA9F80060C0B2E1E7AAF80020A9F85C
:1006F00000C0521CAAF80020C0B2A9F80000AAF855
:100700000010A9F80040491CAAF80010D8B2A9F8B6
:100710000000BAE7AAF80020A9F800C0C6B2A9F8FC
:100720000060401C060AA9F80060A9F80000AAF8B9
:100730000010A9F80040D8B2A9F800005B1C180A04
:10074000A9F8000000E002E0A9F800309DE71FFAD8
:1007500088F001461046FFF721FFB089BDE8F04F51
:1007600019461BE72DE9F0437F4E002425463288C9
:10077000824202D972888A4202D80020BDE8F08302
:10078000FFF730FFB08849F24137764B41F6631CE2
:1007900049F2864945F2103145F21052B8420AD06A
:1007A000A0F5D048B8F1040805D0884203D06045D0
:1007B00001D0484502D14FF02E0806E0904202D108
:1007C0004FF4385801E04FF02208A3F80080A0F55C
:1007D0001343203B03D10220401EC0B2FCD2FFF7DE
:1007E000D4FEB3886345C9D00220401EC0B2FCD2FB
:1007F000FFF7CBFE8446B088B84203D0884201D0D0
:1008000090420CD10220401EC0B2FCD2FFF7BDFEC8
:1008100005460CF0FF004FF6FF7303EA0024B08892
:10082000A0F51343253B11D0A0F58A43353B0DD0ED
:10083000A0F58A43313B09D0A0F53543053B05D0EF
:10084000A0F54543053B01D0484501D1604695E7F9
:10085000B84203D0884201D0904209D14FEADC204F
:100860004FEAC020A10A40EA411040EAD52085E7BE
:10087000BDE8F0436046A8E63B483A498088A0F5C9
:100880001342413A17D0A0F5D042043A13D0A0F554
:10089000A642103A0FD0A0F5C852633A0BD0A0F58B
:1008A0001442863A07D0A0F5AA42103A05D040F289
:1008B0007311072072E6292001E04FF424500880CC
:1008C0007047294827498088A0F51342413A16D03D
:1008D000A0F5D042043A12D0A0F5A642103A0ED0AC
:1008E000A0F5C852633A0AD0A0F51442863A06D061
:1008F000A0F5AA42103A04D0002107204EE6282095
:1009000001E04FF4205008807047F0B5164E154FA7
:1009100074893C80050ABC1C2580C0B22080100A66
:100920002080D0B22080B0893880080A2080C8B2E8
:100930002080180A2080D8B22080F0BDF0B50A4D82
:1009400000232946AA79898846F6040741F66316EA
:10095000012A01D052B122E0B94220D0B14207D1E0
:100960001DE00000FE07006C1C0E0020B14216D1F5
:10097000082814D2DFE800F00406080A0C0E101252
:1009800006200CE007200AE0042008E0052006E02D
:10099000012004E0002002E0032000E00220A1F595
:1009A000134C45F2103245F21054BCF1410C14D0F6
:1009B000B94212D0914210D0A1420ED0B1420CD017
:1009C000A1F5144CBCF1860C07D008287AD2DFE8D8
:1009D00000F07A7C7E8780828486082812D2DFE845
:1009E00000F0110406080A0C0E1080230AE04023D0
:1009F00008E0C02306E0202304E0602302E0A023F7
:100A000000E0E023A14202D14FF4585000E036202C
:100A1000914205D0A14203D0B14201D043F0080376
:100A2000B94201D143F002031946FFF7B7FDAA8886
:100A3000B2420AD098062888698802D5884202D333
:100A400003E0884201D929806880FE48811CA242C7
:100A50006A89028021D100230B80531C038000236C
:100A60000B80931C03802B885B1E1C0A0C80D21CFD
:100A70000280DAB20A80AA89028000230B80531C0C
:100A8000038000230B80931C03806B885B1E1C0A71
:100A90000C80D21C0280D8B212E000220A800A80A8
:100AA0002A88521E130A0B80D2B20A80AA890280B9
:100AB0000020088008806888401E020A0A80C0B2B0
:100AC0000880F0BD0CE030230AE0102308E020236A
:100AD00006E0382304E0282302E0182300E008237E
:100AE000BDE8F040032043F4805157E500B5FFF71F
:100AF00079FDFFF761FDD448D249891C0088088040
:100B000000BD2DE9F74FDFF844B30B465A46BBF85A
:100B100004500C0ADFF82CA39189060A5289A5F526
:100B200013470AF10209413F23D0A5F5A04CBCF5BB
:100B3000447C1ED0A5F5A04CBCF5A26C24D05F4629
:100B4000A5F5C85C97F806803F883F1A7F1EBCF168
:100B5000630C2ED0A5F5D04CBCF1040C43D0A5F508
:100B6000144CBCF1860C51D05C46B8F1010F68D032
:100B700068E0AAF800204A46A9F80060C0B2A9F8C7
:100B80000000AAF800103DE0AAF80020A9F80060D3
:100B9000521CAAF80020C0B2A9F80000AAF8001060
:100BA000A9F80040491CAAF80010D8B2A9F8000022
:100BB00050E0B8F1000F00D1B8B2AAF80020050A41
:100BC0004A46A9F80050C7B2A9F80070A9F8005029
:100BD000C0B2A9F80000AAF80010A9F80040D8B2E5
:100BE000A9F800000EE0B8F1010F00D1B8B2AAF8E0
:100BF0000020050A4A46A9F80050C0B2A9F8000032
:100C0000AAF800101480D8B2108023E0AAF80020BF
:100C1000A9F80060C6B2A9F80060401C060AA9F84D
:100C20000060A9F80000AAF80010A9F80040D8B2A6
:100C3000A9F800005B1C180AA9F80000A9F8003008
:100C400008E0B8B201461046FFF7A8FCA089194693
:100C5000FFF7A4FCBBF80810AAF800100298A9F846
:100C60000000BDE8FE8F774A10B5BE211180941CAC
:100C70000521218024F04AFC4FF06632744B24F0A9
:100C800095FC24F0FFFB208001202080FF202080A5
:100C900000202080208010BD2DE9F04F6B492A23D1
:100CA0002B24898845F2105A4FF4305B4FF4285EAC
:100CB0004FF448754FF0F00C49F241394FF4A077EA
:100CC00045F210364FF4F07218B360484FF0010847
:100CD000494580F806800780A0F802C014D0B142D0
:100CE00012D0A1F5144CBCF1860C0DD0A1F5D04C5E
:100CF000BCF1040C50D0514552D1A0F808B0A0F876
:100D00000AE02302838167E02C25058143818481E9
:100D100051E04E484FF00008494580F80680A0F8A1
:100D200000C0478015D0A1F5D04CBCF1040C10D008
:100D3000B1420ED0A1F5144CBCF1860C09D051453E
:100D400018D1A0F808B0A0F80AE04FF42C51818126
:100D50001FE02C2505814381A1F5D0438481043B0C
:100D600005D0B14203D0A1F51443863B39D10780A9
:100D7000428036E0A1F5C856633E06D022210181AB
:100D800020214181212181812BE02C21018144817D
:100D900083810280458024E02C250581448109E07F
:100DA000A1F5C85CBCF1630C10D022230381212380
:100DB000438120238381A1F5D043043B0FD0B1426E
:100DC0000DD0A1F51443863B09D00AE04FF02C0C5E
:100DD000A0F808C04381848105804280EBE702804F
:100DE0004780BDE8F04F0020A8E52DE9FC4F044600
:100DF00091464844401E86B2C818401E83B20090F7
:100E000004EB0900401EC0F3072EDFF840C0009835
:100E10000D46C0F3072B6046BCF804204FEA1128AA
:100E200081894089A2F513474FEA142A413F1ED019
:100E3000A2F5A647103F1AD0A2F5D047043F16D01E
:100E400008E00000FE07006C160000201C0E0020C9
:100E500066660440A2F51447863F08D09CF80670E9
:100E600041F6631C0197012F13D1624511D1FE4F4A
:100E70003880B81CA0F800A0E2B20280A0F800E020
:100E8000F2B202803980A0F80080E9B201805946B0
:100E90001CE0F64F62453F881DD1A7EB0902121BEB
:100EA000F14C009B92B29BB22080160AA01C0680D7
:100EB000D6B206804A44521E160A0680D2B202807A
:100EC0002180A0F80080E9B20180190A0180D9B21E
:100ED0000180BDE8FC8FA2F5A04CBCF5A26C1FD030
:100EE000019801283FD0B44621462E4650204FF0AD
:100EF00051094FF052085327FFF750FB614648460F
:100F0000FFF74CFB31464046FFF748FB1946384691
:100F1000FFF744FB29462046BDE8FC4FFFF762BBC4
:100F2000D14A1080971CA7F800A000F1010CA2F88C
:100F300000C0E4B23C80841C1480A7F800E0C01C10
:100F40001080F0B238801180A7F80080481C108013
:100F5000E8B23880881C1080A7F800B0C91C118046
:100F6000D8B23880B5E7B81B401E86B2381B9C4605
:100F7000401E294683B2B9E72DE9F043BB4F064630
:100F800000247D883888B9882A464543A1F5D04396
:100F9000043B02D1BB79012B15D0A1F51443863B4C
:100FA00008D000210846FFF71DFBFFF705FBAE4800
:100FB000801C1EE0521E93B2401E82B200210846E1
:100FC000FFF7A3FCF1E70020B8714FF02A09A7F85A
:100FD0000A904FF02B08A7F80C800146FFF702FBA0
:100FE0000120B871A7F80A80A7F80C90DDE7068009
:100FF000641CAC42FBD32AE42DE9F05F9C484069B5
:101000009B4940F480704861886940F0080088611D
:10101000886940F020008861886940F0400088615C
:10102000886940F48070886192480068914920F096
:101030000F000860086840F0030008608E480168EF
:101040008E4A1140016001688D4A11430160001F02
:10105000016801F0FF210160016841F0BB110160EE
:101060008848016800210160026842F0BB320260DA
:10107000001F026822F070420260026842F03042B3
:1010800002608148426822F470224260426842F461
:1010900030224260026822F00F020260026842F0D1
:1010A0000B0202604FF020408161C161C0F81C1149
:1010B000816941F480518161816941F4804181619C
:1010C000816941F010018161C169C161C16941F06B
:1010D0000101C161C16941F47061C161D0F81C11A5
:1010E000C0F81C11D0F81C11C0F81C11D0F81C114C
:1010F00041F44071C0F81C11816941F00101816126
:10110000322005F02BF80020FFF74DFA574D564CD2
:1011100049F24137A88046F6040945F2103A45F2F3
:1011200010564FF6FF7141F66318FF2804D388422A
:1011300002D0B0F5134F7CD1D3202080FFF725FAE1
:10114000A880FFF722FAA880FFF71FFA01EA002023
:10115000A880FFF71AFAAA881043A880B8426ED078
:10116000BF202080FFF711FAA880FFF70EFAA880B1
:10117000FFF70BFAA880FFF708FA01EA0020A88021
:10118000FFF703FAAA881043A880484557D0D42017
:101190002080FFF7FAF9A880FFF7F7F9A880FFF79A
:1011A000F4F901EA0020A880FFF7EFF9AA881043BC
:1011B000A880504543D04FF45A402080FFF7E5F90E
:1011C000A8804FF45B402080FFF7DFF901EA0020A0
:1011D000A8804FF45C402080FFF7D7F9AA8810431D
:1011E000A880B0F5004F7DD0B04228D0A12020804B
:1011F000FFF7CBF9A880FFF7C8F901EA0020A88023
:10120000FFF7C3F9AA881043A0F5AE42A880613A5F
:1012100069D0404513D0D3202080FFF7B6F9A880CD
:10122000FFF7B3F9A880FFF7B0F901EA0020A88022
:1012300000E004E0FFF7A9F9A9880843A880A9887D
:1012400012A00AF0EDF8A888074DAD1CB8427DD178
:10125000CF20208000202880C120288030202880B6
:10126000ED202080642019E0FE07006C1C0E002099
:1012700000100240000C01400414014000F0FF0087
:10128000BB0B00BB04180140002001402054465411
:101290004C43442049443A25780D0A002880032015
:1012A00028801220288081202880E8202080852026
:1012B0002880102028807A202880CB202080392088
:1012C00028802C202880002028803420288002209C
:1012D0002880F720208020202880EA2020800020FD
:1012E000288001E083E07FE02880C02020801B2050
:1012F0002880C120208001202880C5202080302027
:1013000028802880C7202080B72028803620208091
:10131000482028803A20208055202880B120208035
:10132000002028801A202880B62020800A202880CB
:10133000A2202880F22020800020288026202080E3
:1013400001202880E02020800F2000E051E028804C
:101350002A20288028202880082028800E20288005
:101360000820288054202880A92028804320288015
:101370000A2028800F2028800020288028802880AC
:101380002880E12020800020288015202880172038
:1013900028800720288011202880062028802B20E4
:1013A0002880562028803C20288005202880102076
:1013B00028800F2028803F20288028800F20288028
:1013C0002B202080002028802880012028803F209A
:1013D00028802A2020800020288028802880EF2054
:1013E00028801120208075E0A5F8048027E7AE80D2
:1013F00025E7A0F51441863974D0484571D11120F4
:101400002080142004F0AAFED0202080072028800D
:10141000422028801D202880D12020800020288084
:101420001A20288009202880D220208001202880AE
:1014300022202880C0202080102028803B20288067
:10144000002028800220288011202880C5202080AC
:1014500003202880C8202080002028802520288084
:101460002120288005202880002028800A2028802C
:1014700065202880252028807720288050202880FB
:101480000F20288000202880F8202080012028803C
:10149000FE2020800020288002202880202020801C
:1014A00036202080082028803A202080552028805F
:1014B0002B202080002028802880012028803F20A9
:1014C00028802A2020800020288028800120288051
:1014D000DF202880782004F041FE292001F0BFBCE5
:1014E00000E08FE0F1202080362028800420288032
:1014F000002028803C2028800F2028808F202880F2
:10150000F220208018202880A32028801220288004
:1015100002202880B220288012202880FF202880E6
:101520001020288000202880F8202080212028807A
:1015300004202880F920208000202880082028808E
:101540003620208008202880B42020800020288099
:10155000B62020800220288022202880C1202080E0
:1015600041202880C5202080002028801820288045
:10157000E02020800F2028801F2028801C20288029
:101580000C2028800F2028800820288048202880D0
:1015900098202880372028800A202880132028803F
:1015A00004202880112028800D20288000202880F9
:1015B000E12020800F202880322028802E202880C3
:1015C0000B2028800D202880052028804720288097
:1015D0007520288037202880062028801020288029
:1015E0000320288024202880202028800020288094
:1015F0003A2020805520288011202080362020800D
:10160000C82066E750457DD1ED202080012028804C
:10161000FE202880EE202080DE20288021202880C7
:10162000F120208001202880DF20208010202880C9
:10163000C42020808F202880C62020800020288081
:10164000E220288028802880BF202080AA202880AF
:10165000B02020800D202880002028800D202880A8
:101660000020288011202880002028801920288030
:101670000020288021202880002028802D202880FC
:10168000002028803D202880002028805D202880A0
:10169000002028805D20288000202880B120208024
:1016A00080202880002028808B202880002028800F
:1016B0009620288000202880B220208000202880CA
:1016C00028800220288000202880032028800020F5
:1016D0002880B3202080002028802880288028802F
:1016E00028802880288028802880288028802880BA
:1016F00028802880288028802880288028802880AA
:10170000288000E0FEE3288028802880B420208004
:101710008B20288000202880962028800020288088
:10172000A120288000202880B52020800220288049
:101730000020288003202880002028800420288082
:1017400000202880B6202080002028802880B72014
:1017500020800020288028803F20288000202880AA
:101760005E20288000202880642028800020288097
:101770008C20288000202880AC2028800020288011
:10178000DC202880002028807020288000202880ED
:101790009020288000202880EB20288000202880AE
:1017A000DC20288000202880B8202080002028808D
:1017B0002880288028802880288028802880BA20B7
:1017C0002080242028800020288028802880C12094
:1017D000208020202880002028805420288000207D
:1017E0002880FF20288000202880C22020800A2016
:1017F0002880002028800420288000202880C32002
:1018000020803C202880002028803A20288000204A
:101810002880392028800020288037202880002038
:1018200028803C2028800020288036202880002026
:10183000288032202880002028802F202880002027
:1018400028802C2028800020288029202880002023
:10185000288026202880002028802420288000201E
:101860002880242028800020288023202880002011
:1018700028803C20288000202880362028800020D6
:10188000288032202880002028802F2028800020D7
:1018900028802C20288000202880292028800020D3
:1018A00028802620288000202880242028800020CE
:1018B00028802420288000202880232028800020C1
:1018C0002880C420208062202880002028800520D5
:1018D0002880002028808420288000202880F02074
:1018E0002880002028801820288000202880A4201C
:1018F0002880002028801820288000202880502060
:101900002880002028800C20288000202880172094
:101910002880002028809520288000202880F3201F
:10192000288000202880E620288000202880C520EC
:101930002080322028800020288044202880002019
:10194000288065202880002028807620288000209C
:1019500028808820288000202880C6202080202001
:10196000288000202880172028800020288001203F
:10197000288000202880C720208000202880288000
:1019800028802880C8202080002028802880288067
:101990002880C92020800020288028802880288056
:1019A00028802880288028802880288028802880F7
:1019B0002880288028802880E02020801620288009
:1019C000002028801C2028800020288021202880BA
:1019D000002028803620288000202880462028806B
:1019E0000020288052202880002028806420288021
:1019F000002028807A202880002028808B202880C2
:101A0000002028809920288000202880A820288075
:101A100000202880B920288000202880C420288029
:101A200000202880CA20288000202880D2202880FA
:101A300000202880D920288000202880E0202880CD
:101A400000202880F320288000202880E1202080AA
:101A500016202880002028801C2028800020288034
:101A600022202880002028803620288000202880FE
:101A700045202880002028805220288000202880AF
:101A800064202880002028807A2028800020288058
:101A90008B20288000202880992028800020288002
:101AA000A820288000202880B920288000202880B5
:101AB000C420288000202880CA2028800020288078
:101AC000D220288000202880D8202880002028804C
:101AD000E020288000202880F32028800020288013
:101AE000E220208005202880002028800B202880EC
:101AF000002028801B202880002028803420288077
:101B00000020288044202880002028804F20288022
:101B100000202880612028800020288079202880CB
:101B20000020288088202880002028809720288076
:101B300000202880A620288000202880B720288028
:101B400000202880C220288000202880C7202880EC
:101B500000202880D120288000202880D6202880BE
:101B600000202880DD20288000202880F320288085
:101B700000202880E3202080052028800020288065
:101B80000A202880002028801C202880002028800F
:101B900033202880002028804420288000202880AE
:101BA0005020288000202880622028800020288063
:101BB0007820288000202880882028800020288005
:101BC0009720288000202880A620288000202880B8
:101BD000B720288000202880C2202880002028806C
:101BE000C720288000202880D1202880002028803D
:101BF000D520288000202880DD2028800020288013
:101C0000F320288000202880E420208001202880E4
:101C100000202880012028800020288002202880A1
:101C2000002028802A202880002028803C2028802E
:101C3000002028804B202880002028805D202880DC
:101C4000002028807420288000202880842028807C
:101C5000002028809320288000202880A22028802F
:101C600000202880B320288000202880BE202880E3
:101C700000202880C420288000202880CD202880B3
:101C800000202880D320288000202880DD20288084
:101C900000202880F320288000202880E520208054
:101CA000002028802880288028800220288000208A
:101CB000288029202880002028803C20288000209F
:101CC00028804B202880002028805D20288000204C
:101CD00028807420288000202880842028800020EC
:101CE00028809320288000202880A220288000209F
:101CF0002880B320288000202880BE202880002053
:101D00002880C420288000202880CD202880002022
:101D10002880D320288000202880DC2028800020F4
:101D20002880F320288000202880E62020801120B1
:101D300028800020288034202880002028805620F9
:101D40002880002028807620288000202880772086
:101D50002880002028806620288000202880882075
:101D60002880002028809920288000202880BB20FF
:101D70002880002028809920288000202880662044
:101D80002880002028805520288000202880552089
:101D9000288000202880452028800020288043209B
:101DA0002880002028804420288000202880E720E8
:101DB0002080322028800020288055202880002084
:101DC0002880762028800020288066202880002017
:101DD0002880672028800020288067202880002015
:101DE00028808720288000202880992028800020B3
:101DF0002880BB202880002028809920288000206F
:101E000028807720288000202880442028800020F7
:101E10002880562028800020288023202880002029
:101E2000288033202880002028804520288000201A
:101E30002880E82020800020288028809920288081
:101E40000020288087202880002028808820288063
:101E50000020288077202880002028806620288085
:101E6000002028808820288000202880AA20288020
:101E700000202880BB2028800020288099202880EE
:101E80000020288066202880002028805520288077
:101E90000020288055202880002028804420288089
:101EA0000020288044202880002028805520288079
:101EB00000202880E9202080AA2028800020288077
:101EC000288028802080AA202880CF202080002001
:101ED00028802880288028802880288028802880C2
:101EE00028802880288028802880288028802880B2
:101EF0002880F0202080002028805020288000208A
:101F0000288000E02CE028802880F320208000201A
:101F10002880F92020800620288010202880292071
:101F20002880002028803A202080552028801120F9
:101F30002080642004F012F92920208035202080A0
:101F40000020288051202080FF20288053202080DE
:101F50002C20288055202080822028802C20FDE302
:101F6000B0427DD14FF4704355211846FEF716FB61
:101F70004FF20105AA212846FEF710FB6E1C5221E4
:101F80003046FEF70BFBAF1C08213846FEF706FB78
:101F90004FF2040C01216046FEF700FB0D214FF4C7
:101FA0003040FEF7FBFA0D214BF20100FEF7F6FA86
:101FB0000D214BF20200FEF7F1FA4FF436483421BE
:101FC0004046FEF7EBFA34214BF20160FEF7E6FAE9
:101FD00034214BF20260FEF7E1FA4FF431490D2152
:101FE0004846FEF7DBFA4BF2011A0D215046FEF788
:101FF000D5FA0D214BF20210FEF7D0FA4FF4374B11
:1020000034215846FEF7CAFA34214BF20170FEF72C
:10201000C5FA34214BF20270FEF7C0FA00214FF4EA
:102020003240FEF7BBFA00214BF20120FEF7B6FA70
:1020300000214BF20220FEF7B1FA24214FF4384080
:10204000FEF7ACFA24214BF60100FEF7A7FA242193
:102050004BF60200FEF7A2FA01214FF43F4000E0E8
:10206000FEE3FEF79BFA0F214FF43340FEF796FA9A
:102070000F214BF20130FEF791FA0F214BF20230A3
:10208000FEF78CFA34214FF43940FEF787FA3421F9
:102090004BF60110FEF782FA34214BF60210FEF7E0
:1020A0007DFA08214FF43540FEF778FA08214BF20B
:1020B0000150FEF773FA08214BF20250FEF76EFA58
:1020C00003214FF44240FEF769FA24214FF43A40CD
:1020D000FEF764FA24214BF60120FEF75FFA242173
:1020E0004BF60220FEF75AFA00214FF43C40FEF76F
:1020F00055FA78214BF60140FEF750FA00214BF6D5
:102100000240FEF74BFA00214FF43D40FEF746FA3D
:1021100078214BF60150FEF741FA00214BF60250B0
:10212000FEF73CFA00214FF43E40FEF737FA6421F7
:102130004BF60160FEF732FA00214FF45140FEF7F2
:102140002DFA33214DF20110FEF728FA00214DF24D
:102150000210FEF723FA34214DF20310FEF71EFAA7
:1021600000214DF20410FEF719FA3A214DF2051044
:10217000FEF714FA00214DF20610FEF70FFA4A217D
:102180004DF20710FEF70AFA00214DF20810FEF793
:1021900005FA5C214DF20910FEF700FA00214DF21C
:1021A0000A10FEF7FBF981214DF20B10FEF7F6F94C
:1021B00000214DF20C10FEF7F1F9A6214DF20D10A1
:1021C000FEF7ECF900214DF20E10FEF7E7F9E521DC
:1021D0004DF20F10FEF7E2F901214DF21010FEF75B
:1021E000DDF913214DF21110FEF7D8F901214DF25E
:1021F0001210FEF7D3F954214DF21310FEF7CEF969
:1022000001214DF21410FEF7C9F982214DF215108B
:10221000FEF7C4F901214DF21610FEF7BFF9CA21ED
:102220004DF21710FEF7BAF902214DF21810FEF721
:10223000B5F900214DF21910FEF7B0F902214DF267
:102240001A10FEF7ABF901214DF21B10FEF7A6F9AB
:1022500002214DF21C10FEF7A1F934214DF21D10A0
:10226000FEF79CF902214DF21E10FEF797F9672147
:102270004DF21F10FEF792F902214DF22010FEF7E9
:102280008DF984214DF22110FEF788F902214DF2DB
:102290002210FEF783F9A4214DF22310FEF77EF9F8
:1022A00002214DF22410FEF779F9B7214DF22510E5
:1022B000FEF774F902214DF22610FEF76FF9CF21D7
:1022C0004DF22710FEF76AF902214DF22810FEF7B1
:1022D00065F9DE214DF22910FEF760F902214DF279
:1022E0002A10FEF75BF9F2214DF22B10FEF756F99A
:1022F00002214DF22C10FEF751F9FE214DF22D1066
:10230000FEF74CF903214DF22E10FEF747F910218C
:102310004DF22F10FEF742F903214DF23010FEF777
:102320003DF933214DF23110FEF738F903214DF21A
:102330003210FEF733F96D214DF23310FEF72EF90E
:1023400000214FF45240FEF729F933214DF20120CC
:10235000FEF724F900214DF20220FEF71FF9342187
:102360004DF20320FEF71AF900214DF20420FEF78A
:1023700015F93A214DF20520FEF710F900214DF232
:102380000620FEF70BF94A214DF20720FEF706F969
:1023900000214DF20820FEF701F95C214DF20920E1
:1023A000FEF7FCF800214DF20A20FEF7F7F8812134
:1023B0004DF20B20FEF7F2F800214DF20C20FEF753
:1023C000EDF8A6214DF20D20FEF7E8F800214DF2C0
:1023D0000E20FEF7E3F8E5214DF20F20FEF7DEF8C0
:1023E00001214DF21020FEF7D9F813214DF21120F2
:1023F000FEF7D4F801214DF21220FEF7CFF8542158
:102400004DF21320FEF7CAF801214DF21420FEF719
:10241000C5F882214DF21520FEF7C0F801214DF2DA
:102420001620FEF7BBF8CA214DF21720FEF7B6F8CA
:1024300002214DF21820FEF7B1F800214DF21920CB
:10244000FEF7ACF802214DF21A20FEF7A7F80121A1
:102450004DF21B20FEF7A2F802214DF21C20FEF7E0
:102460009DF834214DF21D20FEF798F802214DF21F
:102470001E20FEF793F867214DF21F20FEF78EF81D
:1024800002214DF22020FEF789F884214DF221200F
:10249000FEF784F802214DF22220FEF77FF8A421F6
:1024A0004DF22320FEF77AF802214DF22420FEF7A8
:1024B00075F8B7214DF22520FEF770F802214DF294
:1024C0002620FEF76BF8CF214DF22720FEF766F8A5
:1024D00002214DF22820FEF761F8DE214DF229207D
:1024E000FEF75CF802214DF22A20FEF757F8F221A0
:1024F0004DF22B20FEF752F802214DF22C20FEF770
:102500004DF8FE214DF22D20FEF748F803214DF243
:102510002E20FEF743F810214DF22F20FEF73EF853
:1025200003214DF23020FEF739F833214DF23120EE
:10253000FEF734F803214DF23220FEF72FF86D211B
:102540004DF23320FEF72AF800214FF45340FEF7F6
:1025500025F833214DF20130FEF720F800214DF22D
:102560000230FEF71BF834214DF20330FEF716F867
:1025700000214DF20430FEF711F83A214DF20530FA
:10258000FEF70CF800214DF20630FEF707F84A215D
:102590004DF20730FEF702F800214DF20830FDF74A
:1025A000FDFF5C214DF20930FDF7F8FF00214DF2EF
:1025B0000A30FDF7F3FF81214DF20B30FDF7EEFFFE
:1025C00000214DF20C30FDF7E9FFA6214DF20D3050
:1025D000FDF7E4FF00214DF20E30FDF7DFFFE521AE
:1025E0004DF20F30FDF7DAFF01214DF21030FDF70B
:1025F000D5FF13214DF21130FDF7D0FF01214DF22F
:102600001230FDF7CBFF54214DF21330FDF7C6FF1A
:1026100001214DF21430FDF7C1FF82214DF215303A
:10262000FDF7BCFF01214DF21630FDF7B7FFCA21BF
:102630004DF21730FDF7B2FF02214DF21830FDF7D1
:10264000ADFF00214DF21930FDF7A8FF02214DF238
:102650001A30FDF7A3FF01214DF21B30FDF79EFF5D
:1026600002214DF21C30FDF799FF34214DF21D304F
:10267000FDF794FF02214DF21E30FDF78FFF672119
:102680004DF21F30FDF78AFF02214DF22030FDF799
:1026900085FF84214DF22130FDF780FF02214DF2AC
:1026A0002230FDF77BFFA4214DF22330FDF776FFAA
:1026B00002214DF22430FDF771FFB7214DF2253094
:1026C000FDF76CFF02214DF22630FDF767FFCF21A9
:1026D0004DF22730FDF762FF02214DF22830FDF761
:1026E0005DFFDE214DF22930FDF758FF02214DF24A
:1026F0002A30FDF753FFF2214DF22B30FDF74EFF4C
:1027000002214DF22C30FDF749FFFE214DF22D3014
:10271000FDF744FF03214DF22E30FDF73FFF10215E
:102720004DF22F30FDF73AFF03214DF23030FDF727
:1027300035FF33214DF23130FDF730FF03214DF2EB
:102740003230FDF72BFF6D214DF23330FDF726FFC0
:1027500000214FF45440FDF721FF00E07FE33321D7
:102760004DF20140FDF71AFF00214DF20240FDF746
:1027700015FF34214DF20340FDF710FF00214DF20B
:102780000440FDF70BFF3A214DF20540FDF706FF2F
:1027900000214DF20640FDF701FF4A214DF20740AE
:1027A000FDF7FCFE00214DF20840FDF7F7FE5C212D
:1027B0004DF20940FDF7F2FE00214DF20A40FDF70F
:1027C000EDFE81214DF20B40FDF7E8FE00214DF2B8
:1027D0000C40FDF7E3FEA6214DF20D40FDF7DEFEB5
:1027E00000214DF20E40FDF7D9FEE5214DF20F40DC
:1027F000FDF7D4FE01214DF21040FDF7CFFE13216D
:102800004DF21140FDF7CAFE01214DF21240FDF7D5
:10281000C5FE54214DF21340FDF7C0FE01214DF2DB
:102820001440FDF7BBFE82214DF21540FDF7B6FEC8
:1028300001214DF21640FDF7B1FECA214DF21740BD
:10284000FDF7ACFE02214DF21840FDF7A7FE002176
:102850004DF21940FDF7A2FE02214DF21A4000E0B0
:10286000FFE2FDF79BFE01214DF21B40FDF796FEB6
:1028700002214DF21C40FDF791FE34214DF21D4026
:10288000FDF78CFE02214DF21E40FDF787FE672109
:102890004DF21F40FDF782FE02214DF22040FDF770
:1028A0007DFE84214DF22140FDF778FE02214DF29C
:1028B0002240FDF773FEA4214DF22340FDF76EFE8A
:1028C00002214DF22440FDF769FEB7214DF225406B
:1028D000FDF764FE02214DF22640FDF75FFECF2199
:1028E0004DF22740FDF75AFE02214DF22840FDF738
:1028F00055FEDE214DF22940FDF750FE02214DF23A
:102900002A40FDF74BFEF2214DF22B40FDF746FE2B
:1029100002214DF22C40FDF741FEFE214DF22D40EB
:10292000FDF73CFE03214DF22E40FDF737FE10214E
:102930004DF22F40FDF732FE03214DF23040FDF7FE
:102940002DFE33214DF23140FDF728FE03214DF2DB
:102950003240FDF723FE6D214DF23340FDF71EFEA0
:1029600000214FF45540FDF719FE33214DF201507F
:10297000FDF714FE00214DF20250FDF70FFE342149
:102980004DF20350FDF70AFE00214DF20450FDF711
:1029900005FE3A214DF20550FDF700FE00214DF2F3
:1029A0000650FDF7FBFD4A214DF20750FDF7F6FDFD
:1029B00000214DF20850FDF7F1FD5C214DF2095068
:1029C000FDF7ECFD00214DF20A50FDF7E7FD8121F6
:1029D0004DF20B50FDF7E2FD00214DF20C50FDF7DA
:1029E000DDFDA6214DF20D50FDF7D8FD00214DF281
:1029F0000E50FDF7D3FDE5214DF20F50FDF7CEFD52
:102A000001214DF21050FDF7C9FD13214DF2115077
:102A1000FDF7C4FD01214DF21250FDF7BFFD542119
:102A20004DF21350FDF7BAFD01214DF21450FDF7A0
:102A3000B5FD82214DF21550FDF7B0FD01214DF29B
:102A40001650FDF7ABFDCA214DF21750FDF7A6FD5C
:102A500002214DF21850FDF7A1FD00214DF2195051
:102A6000FDF79CFD02214DF21A50FDF797FD012163
:102A70004DF21B50FDF792FD02214DF21C50FDF767
:102A80008DFD34214DF21D50FDF788FD02214DF2E0
:102A90001E50FDF783FD67214DF21F50FDF77EFDAF
:102AA00002214DF22050FDF779FD84214DF2215095
:102AB000FDF774FD02214DF22250FDF76FFDA421B8
:102AC0004DF22350FDF76AFD02214DF22450FDF72F
:102AD00065FDB7214DF22550FDF760FD02214DF255
:102AE0002650FDF75BFDCF214DF22750FDF756FD37
:102AF00002214DF22850FDF751FDDE214DF2295003
:102B0000FDF74CFD02214DF22A50FDF747FDF22161
:102B10004DF22B50FDF742FD02214DF22C50FDF7F6
:102B20003DFDFE214DF22D50FDF738FD03214DF204
:102B30002E50FDF733FD10214DF22F50FDF72EFDE5
:102B400003214DF23050FDF729FD33214DF2315074
:102B5000FDF724FD03214DF23250FDF71FFD6D21DD
:102B60004DF23350FDF71AFD00214FF45640FDF7AA
:102B700015FD33214DF20160FDF710FD00214DF2EE
:102B80000260FDF70BFD34214DF20360FDF706FDF9
:102B900000214DF20460FDF701FD3A214DF2056080
:102BA000FDF7FCFC00214DF20660FDF7F7FC4A2121
:102BB0004DF20760FDF7F2FC00214DF20860FDF7D1
:102BC000EDFC5C214DF20960FDF7E8FC00214DF2BF
:102BD0000A60FDF7E3FC81214DF20B60FDF7DEFC9E
:102BE00000214DF20C60FDF7D9FCA6214DF20D60DD
:102BF000FDF7D4FC00214DF20E60FDF7CFFCE5217E
:102C00004DF20F60FDF7CAFC01214DF21060FDF797
:102C1000C5FC13214DF21160FDF7C0FC01214DF2FE
:102C20001260FDF7BBFC54214DF21360FDF7B6FCBA
:102C300001214DF21460FDF7B1FC82214DF21560C7
:102C4000FDF7ACFC01214DF21660FDF7A7FCCA218F
:102C50004DF21760FDF7A2FC02214DF21860FDF75E
:102C60009DFC00214DF21960FDF798FC02214DF208
:102C70001A60FDF793FC01214DF21B60FDF78EFCFD
:102C800002214DF21C60FDF789FC34214DF21D60DC
:102C9000FDF784FC02214DF21E60FDF77FFC6721E9
:102CA0004DF21F60FDF77AFC02214DF22060FDF726
:102CB00075FC84214DF22160FDF770FC02214DF27C
:102CC0002260FDF76BFCA4214DF22360FDF766FC4A
:102CD00002214DF22460FDF761FCB7214DF2256021
:102CE000FDF75CFC02214DF22660FDF757FCCF2179
:102CF0004DF22760FDF752FC02214DF22860FDF7EE
:102D00004DFCDE214DF22960FDF748FC02214DF219
:102D10002A60FDF743FCF2214DF22B60FDF73EFCEB
:102D200002214DF22C60FDF739FCFE214DF22D60A1
:102D3000FDF734FC03214DF22E60FDF72FFC10212E
:102D40004DF22F60FDF72AFC03214DF23060FDF7B4
:102D500025FC33214DF23160FDF720FC03214DF2BB
:102D60003260FDF71BFC6D214DF23360FDF716FC60
:102D700055211846FDF712FCAA212846FDF70EFC46
:102D800052213046FDF70AFC08213846FDF706FCC3
:102D900000216046FDF702FCCC214846FDF7FEFB12
:102DA00000215046FDF7FAFB05214046FDF7F6FBF2
:102DB00070215846FDF7F2FB70214BF20170FDF7D0
:102DC000EDFB01214FF43840FDF7E8FB03214BF602
:102DD0000100FDF7E3FB03214BF60200FDF7DEFBEC
:102DE00003214BF60300FDF7D9FB02214FF43C40D1
:102DF000FDF7D4FB00214BF60140FDF7CFFB00218E
:102E00004BF60240FDF7CAFBD0214FF44940FDF7D5
:102E1000C5FB02214CF60110FDF7C0FB50214CF61A
:102E20000210FDF7BBFB50214CF60310FDF7B6FB7B
:102E300050214CF60410FDF7B1FB00214FF4545023
:102E4000FDF7ACFB55214FF46850FDF7A7FB4FF49D
:102E500088502080782003F06AF94FF424502080B5
:102E6000BAE0A0F513414FF480764FF4E06940F2E8
:102E70003F1A4FF4274B25397ED0A0F5134140F27D
:102E80000777283979D0A0F513414FF4887B203992
:102E900074D0A0F51341313971D0A0F5A84108399B
:102EA0006ED0A0F5A8514FF4407B053969D0A0F54C
:102EB0003541053966D0A0F5454105397ED0A0F5EC
:102EC0008A4131397BD0A0F58A41353978D04045E7
:102ED00077D1E22020801D20288002202880042035
:102EE0002880642003F023F9E0202080012028803E
:102EF0000A2003F033F9E0202080032028800C20F2
:102F000003F02CF9012020800A2003F027F9E620A5
:102F100020802F202880FF2028802880B02020803B
:102F200020202880002028800320288040F21F30A5
:102F300028800120288040F2DF102880002028808F
:102F4000B42020800420288040F21F4028800020E8
:102F50002880D3202880002028802880288028806E
:102F6000B6202080022028804FF40370288009209A
:102F700028800020288006E03AE005E1C1E169E20E
:102F80003FE3DAE3FEE32880F0202080032028805E
:102F900029202080D020208000202880BE20208072
:102FA00005202880FE2028800120288000202880FD
:102FB00028802880B8202080032003E0FEE3FEE381
:102FC000FEE309E0288001202880BA20208001202B
:102FD00028806420FDF747FE0120FDF75DFEFF49D4
:102FE0000120C1F88001BDE8F05F0020FDF7C4BFFB
:102FF00047F6F001E520FDF7D1FA31460120FDF753
:10300000CDFA49460220FDF7C9FA41F2300103200A
:10301000FDF7C4FA00210420FDF7C0FA40F20221B6
:103020000820FDF7BBFA00210920FDF7B7FA0021BF
:103030000A20FDF7B3FA00210C20FDF7AFFA0021BA
:103040000D20FDF7ABFA00210F20FDF7A7FA0021B4
:103050001020FDF7A3FA07211120FDF79FFA0021A8
:103060001220FDF79BFA00211320FDF797FA0021AB
:103070000720FDF793FA41F290611020FDF78EFAD8
:1030800040F227211120FDF789FA9D211220FDF73A
:1030900085FA4FF4C8511320FDF780FA2521292025
:1030A000FDF77CFA0D212B20FDF778FA072130205F
:1030B000FDF774FA40F203313120FDF76FFA032176
:1030C0003220FDF76BFA40F206213520FDF766FA53
:1030D00008213620FDF762FA40F206413720FDF75D
:1030E0005DFA4FF441713820FDF758FA0721392075
:1030F000FDF754FA40F202613C20FDF74FFA082137
:103100003D20FDF74BFA00215020FDF747FAEF2153
:103110005120FDF743FA00215220FDF73FFA5146B6
:103120005320FDF73BFA59466020FDF737FA01219D
:103130006120FDF733FA00216A20FDF72FFA002104
:103140008020FDF72BFA00218120FDF727FA0021CE
:103150008220FDF723FA00218320FDF71FFA0021CA
:103160008420FDF71BFA00218520FDF717FA1021B6
:103170009020FDF713FA4FF4C0619220FDF70EFA8C
:1031800040F233110720FDE341F28F01EC20FDF7FF
:1031900005FA41F23421EF20FDF700FA3146012013
:1031A000FDF7FCF949460220FDF7F8F941F230013C
:1031B0000320FDF7F3F900210420FDF7EFF940F2B9
:1031C00002210820FDF7EAF900210920FDF7E6F9C0
:1031D00000210A20FDF7E2F901210C20FDF7DEF9BC
:1031E00000210D20FDF7DAF900210F20FDF7D6F9B7
:1031F00000211020FDF7D2F907211120FDF7CEF9AB
:1032000000211220FDF7CAF900211320FDF7C6F9AD
:1032100001210720FDF7C2F9322002F09FFF41F2A1
:1032200090411020FDF7BAF940F227211120FDF757
:10323000B5F9322002F092FF8A211220FDF7AEF993
:10324000322002F08BFF4FF4D0511320FDF7A6F986
:1032500006212920FDF7A2F90D212B20FDF79EF96B
:10326000322002F07BFF00212020FDF797F900219A
:103270002120FDF793F9322002F070FF0021302069
:10328000FDF78CF940F204613120FDF787F940F237
:1032900005313220FDF782F900213520FDF77EF956
:1032A00040F609413620FDF779F94FF401713720D6
:1032B000FDF774F940F201313820FDF76FF9394616
:1032C0003920FDF76BF900213C20FDF767F940F646
:1032D0000A213D20FDF762F9322002F03FFF002174
:1032E0005020FDF75BF9EF215120FDF757F9002140
:1032F0005220FDF753F951465320FDF74FF9594637
:1033000054E100210846FDF749F931460120FDF757
:1033100045F949460220FDF741F941F23001032009
:10332000FDF73CF900210420FDF738F940F20221B5
:103330000820FDF733F900210920FDF72FF90021BE
:103340000A20FDF72BF901210C20FDF727F90021B8
:103350000D20FDF723F900210F20FDF71FF9322082
:1033600002F0FCFE40F201110720FDF717F93220B0
:1033700002F0F4FE4FF486511020FDF70FF90721FB
:103380001120FDF70BF95B4659461220FDF706F9AF
:103390004FF430611320FDF701F900212920FDF7DA
:1033A000FDF844F210012B20FDF7F8F80021502021
:1033B000FDF7F4F8EF215120FDF7F0F8002152203D
:1033C000FDF7ECF851465320FDF7E8F84FF41C5197
:1033D0006020FDF7E3F80121612001E00080214237
:1033E000FDF7DCF800216A20FDF7D8F800218020E5
:1033F000FDF7D4F800218120FDF7D0F800218220CC
:10340000FDF7CCF800218320FDF7C8F800218420C7
:10341000FDF7C4F800218520FDF7C0F810219020A9
:10342000FDF7BCF800219220FDF7B8F801219320A8
:10343000FDF7B4F819469520FDF7B0F80021972064
:10344000FDF7ACF800219820FDF7A8F840F27311C1
:10345000072083E341F21401E720FDF79FF831468E
:103460000120FDF79BF84FF400710220FDF796F85C
:1034700041F238010320FDF791F840F202210820C3
:10348000FDF78CF800210920FDF788F800210A20BB
:10349000FDF784F800210C20FDF780F800210D20B5
:1034A000FDF77CF800210F20FDF778F800211020AF
:1034B000FDF774F807211120FDF770F800211220A4
:1034C000FDF76CF800211320FDF768F8C82002F022
:1034D00045FE41F290611020FDF760F840F227218F
:1034E0001120FDF75BF8322002F038FE0C2112208B
:1034F000FDF754F8322002F031FE4FF40061132042
:10350000FDF74CF811212920FDF748F80B212B205D
:10351000FDF744F8322002F021FE00212020FDF7C3
:103520003DF8534651462120FDF738F80021302060
:10353000FDF734F84FF4837421463120FDF72EF85F
:1035400000213220FDF72AF84FF401713520FDF7F4
:1035500025F841F20A613620FDF720F83946372078
:10356000FDF71CF821463820FDF718F839463920B8
:10357000FDF714F840F202413C20FDF70FF840F649
:103580000F413D20FDF70AF800215020FDF706F815
:10359000EF215120FDF702F800215220FCF7FEFF39
:1035A00019465320FCF7FAFF4FF41C516020FCF73A
:1035B000F5FF01216120FCF7F1FF00216A20FCF7F3
:1035C000EDFF00218020FCF7E9FF00218120FCF7BE
:1035D000E5FF00218220FCF7E1FF00218320FCF7BA
:1035E000DDFF00218420FCF7D9FF00218520FCF7B6
:1035F000D5FF10219020FCF7D1FF4FF4C06192203D
:10360000FEE331460120FCF7C9FF49460220FCF7E2
:10361000C5FF41F230010320FCF7C0FF0021042068
:10362000FCF7BCFF40F207210820FCF7B7FF0021A0
:103630000920FCF7B3FF00210A20FCF7AFFF0021AF
:103640000C20FCF7ABFF00210D20FCF7A7FF0021A9
:103650000F20FCF7A3FF142002F080FD41F2B061BF
:103660001020FCF79BFF01211120FCF797FF01219F
:103670001720FCF793FF4FF49C711220FCF78EFF8C
:103680004FF400611320FCF789FF09212920FCF782
:1036900085FF09212A20FCF781FF0021A420FCF7E7
:1036A0007DFF00215020FCF779FFEF215120FCF72E
:1036B00075FF00215220FCF771FF51465320FCF7A3
:1036C0006DFF4FF41C516020FCF768FF0121612061
:1036D000FCF764FF00216A20FCF760FF00218020D6
:1036E000FCF75CFF00218120FCF758FF00218220BD
:1036F000FCF754FF00218320FCF750FF00218420B9
:10370000FCF74CFF00218520FCF748FF1321902097
:10371000FCF744FF00219220FCF740FF0321932097
:10372000FCF73CFF59469520FCF738FF40F2731137
:103730000720FCF733FF32200EE100210720FCF7C1
:103740002DFF322002F00AFD4FF48E711220FCF79B
:1037500025FF0121A420FCF721FF0F210820FCF701
:103760001DFF08210A20FCF719FF08210D20FCF796
:1037700015FF39463020FCF711FF07213120FCF7F7
:103780000DFF00E0ECE040F203613220FCF706FFA1
:103790004C4649463320FCF701FF40F20221342019
:1037A000FCF7FCFE02213520FCF7F8FE41F60F7114
:1037B0003620FCF7F3FE3946372002E0CFE197E2EE
:1037C0004EE3FCF7EBFE00213820FCF7E7FE00217A
:1037D0003920FCF7E3FE39463A20FCF7DFFE0021F2
:1037E0003B20FCF7DBFE07213C20FCF7D7FE002145
:1037F0003D20FCF7D3FE322002F0B0FC012107206F
:10380000FCF7CCFE01211720FCF7C8FE322002F0A5
:10381000A5FC4FF4BD511020FCF7C0FE40F217216B
:103820001120FCF7BBFE4FF48F711220FCF7B6FE9F
:103830004FF470611320FCF7B1FE00212A20FCF741
:10384000ADFE0A212920FCF7A9FE4FF49F7112203A
:10385000FCF7A4FE00215020FCF7A0FEEF21512030
:10386000FCF79CFE00215220FCF798FE51465320A5
:10387000FCF794FE4FF41C516020FCF78FFE0121F1
:103880006120FCF78BFE00216A20FCF787FE0021F7
:103890008020FCF783FE00218120FCF77FFE0021C1
:1038A0008220FCF77BFE00218320FCF777FE0021BD
:1038B0008420FCF773FE00218520FCF76FFE1321A6
:1038C0009020FCF76BFE59469220FCF767FE05211D
:1038D0009320FCF763FE00219520FCF75FFE00219A
:1038E0009720FCF75BFE00219820FCF757FE31463D
:1038F0000120FCF753FE21460220FCF74FFE41F267
:1039000038010320FCF74AFE00210420FCF746FEA4
:1039100000210C20FCF742FE00210F20FCF73EFEA8
:1039200000212020FCF73AFE00212120FCF736FE82
:1039300021210720FCF732FE142002F00FFC612148
:103940000720FCF72BFE142002F008FC40F2731154
:103950000720FCF723FE142002F000FCFFF73CBB1D
:1039600000210846FCF71AFE00210846FCF716FE67
:1039700000210846FCF712FE00210846FCF70EFE67
:10398000012100E0E6E0A420FCF708FE142002F08C
:10399000E5FB4FF41C5421466020FCF7FFFD40F28C
:1039A000022529460820FCF7F9FD4FF40571302067
:1039B000FCF7F4FD43F215713120FCF7EFFD40F206
:1039C00004613220FCF7EAFD40F616613320FCF773
:1039D000E5FD42F211213420FCF7E0FD4FF4A8513F
:1039E0003520FCF7DBFD48F207513620FCF7D6FD09
:1039F00041F207413720FCF7D1FD41F20341382065
:103A0000FCF7CCFD20213920FCF7C8FD1A219020BD
:103A1000FCF7C4FD00211020FCF7C0FD0721112098
:103A2000FCF7BCFD00211220FCF7B8FD002113209B
:103A3000FCF7B4FD142002F091FB4FF4E661102076
:103A4000FCF7ACFD40F237111120FCF7A7FD142064
:103A500002F084FB4FF4DC711220FCF79FFD142070
:103A600002F07CFB4FF470611320FCF797FD80217E
:103A70002A20FCF793FD48212920FCF78FFD142014
:103A800002F06CFB31460120FCF788FD494602201C
:103A9000FCF784FD41F238010320FCF77FFD294645
:103AA0000820FCF77BFD00210A20FCF777FD0021B0
:103AB0000C20FCF773FD00210D20FCF76FFD302179
:103AC0000E20FCF76BFD00215020FCF767FDEF2175
:103AD0005120FCF763FD00215220FCF75FFD5146A9
:103AE0005320FCF75BFD21466020FCF757FD0121C8
:103AF0006120FCF753FD00216A20FCF74FFD1121E6
:103B00009020FCF74BFD4FF4C0619220FCF746FD7E
:103B100040F202419320FCF741FD02219420FCF782
:103B20003DFD142002F01AFB01210720FCF736FDB1
:103B3000142002F013FB61210720FCF72FFD40F257
:103B400073110720FCF72AFD00212020FCF726FD39
:103B500000212120FCF722FD222100207DE100210F
:103B60000846FCF71BFD00210846FCF717FD142052
:103B700002F0F4FA00210846FCF710FD0021084687
:103B8000FCF70CFD00210846FCF708FD0021084663
:103B9000FCF704FD0121A420FCF700FD142002F035
:103BA000DDFA4FF41C516020FCF7F8FC40F60601EA
:103BB0000820FCF7F3FC40F2037319463020FCF7B1
:103BC000EDFC01213120FCF7E9FC04213220FCF757
:103BD000E5FC4FF481713320FCF7E0FC5C4659466C
:103BE0003420FCF7DBFC40F203113520FCF7D6FC57
:103BF0001F213620FCF7D2FC19463720FCF7CEFCFB
:103C000001213820FCF7CAFC04213920FCF7C6FC4E
:103C100015219020FCF7C2FC4FF482611020FCF7C4
:103C2000BDFC40F247211120FCF7B8FC4FF4DE71D7
:103C30001220FCF7B3FC4FF460611320FCF7AEFCDC
:103C4000782002F08BFA31460120FCF7A7FC4FF4F4
:103C500000710220FCF7A2FC41F230010320FCF7C6
:103C60009DFC08210A20FCF799FC00210C20FCF7A0
:103C700095FC20210E20FCF791FC00210F20FCF781
:103C80008DFC00212020FCF789FC00212120FCF77D
:103C900085FC3D212A20FCF781FC142002F05EFA0D
:103CA0002D212920FCF77AFC00215020FCF776FC1E
:103CB0004DF2EF015120FCF771FC00215220FCF77E
:103CC0006DFC51465320FCF769FC00216120FCF794
:103CD00065FC00216A20FCF761FC21469220FCF77C
:103CE0005DFC05219320FCF759FC3146FFF7B0BB82
:103CF00001210020FCF752FC0A2002F02FFA41F2C9
:103D000028611020FCF74AFC0E211220FCF746FC2B
:103D100040F639211320FCF741FC0A2002F01EFA7C
:103D200040211120FCF73AFC50211520FCF736FC0D
:103D30000A2002F013FA1E211220FCF72FFC0A20A1
:103D400002F00CFA4FF4B1511020FCF727FC42F6B8
:103D500039211320FCF722FC0A2002F0FFF931463A
:103D60000120FCF71BFC59460220FCF717FC41F22E
:103D700038010320FCF712FC40F202210820FCF776
:103D80000DFC08210A20FCF709FC00213020FCF77B
:103D900005FC40F202413120FCF700FC4FF4837136
:103DA0003220FCF7FBFB40F203513320FCF7F6FB1B
:103DB0004FF482713420FCF7F1FB40F201313520E1
:103DC000FCF7ECFB39463620FCF7E8FB40F2053106
:103DD0003720FCF7E3FB4FF402713820FCF7DEFBE1
:103DE00040F60B713920FCF7D9FB02214120FCF78A
:103DF000D5FB4FF41C516020FCF7D0FB012100E003
:103E0000D1E06120FCF7CAFB4FF404719020FCF76D
:103E1000C5FB4FF485719220FCF7C0FB0421932071
:103E2000FCF7BCFB3146A020FCF7B8FB01210720C2
:103E3000FCF7B4FB21210720FCF7B0FB232107206E
:103E4000FCF7ACFB33210720FCF7A8FB40F2331151
:103E50000720FCF7A3FB0021A020FCF79FFB7DE5DA
:103E600030211520FCF79AFB10219A20FCF796FBD5
:103E700020211120FCF792FB43F228411020FCF78F
:103E80008DFB02211220FCF789FB41F2380113203F
:103E9000FCF784FB282002F061F912210846FCF7A8
:103EA0007DFB282002F05AF943F220411020FCF754
:103EB00075FB43F238011320FCF770FB462002F03B
:103EC0004DF900213020FCF769FB40F2024131201E
:103ED000FCF764FB40F207313220FCF75FFB4FF444
:103EE00041713320FCF75AFB04213420FCF756FBC8
:103EF00040F201413520FCF751FB39463620FCF7F2
:103F00004DFB40F205313720FCF748FB4FF4C2630C
:103F100019463820FCF742FB19463920FCF73EFBD6
:103F200031460120FCF73AFB59460220FCF736FBEC
:103F300041F230010320FCF731FB40F60801082074
:103F4000FCF72CFB08210A20FCF728FB4FF41C513E
:103F50006020FCF723FB01216120FCF71FFB4FF4DD
:103F60009F719020FCF71AFB31469220FCF716FB5C
:103F700031469320FCF712FB4FF44051A020FCF790
:103F80000DFB1021A320FCF709FB01210720FCF702
:103F900005FB21210720FCF701FB23210720FCF76B
:103FA000FDFA33210720FCF7F9FA40F233119DE6C0
:103FB0002DE9F843FF4F0C468046B988089DA1F5CE
:103FC000D0401E46043802D1B879012813D0A2EBA4
:103FD0000800401CDFF8E0C3A1F51443863B87B21C
:103FE00001D0E1463DE0334621464046FCF78DFCDA
:103FF000FCF7E2FA22E03B882046991A0024BC71C3
:1040000032462A24A3EB08037C812B26491E5B1E23
:10401000BE8189B29BB20095FFF7CAFF0120B8713B
:104020007E81BC81BDE8F883002003E0ACF800503D
:10403000401C80B2B842F9D3641CA4B2B442F3D994
:10404000F0E721464046FCF7CDFAFCF7B5FA002030
:10405000494602E00D80401C80B2B842FAD3641C8D
:10406000A4B2B442EDD9DDE72DE9F0478146A2EBD9
:104070000900401C884684B2A3EB0800401C87B2AC
:10408000CC48DFF834C3089E8088A0F514418639F7
:1040900002D00025E2462FE041464846FCF735FCB9
:1040A000FCF78AFA00210DE0002007E001FB040282
:1040B00036F81220ACF80020401C80B2A042F5D3A4
:1040C000491C89B2B942EFD3BDE8F08708EB05007F
:1040D00081B24846FCF786FAFCF76EFA002051469A
:1040E00006E005FB040236F812200A80401C80B26C
:1040F000A042F6D36D1CADB2BD42E7D3E4E72DE993
:10410000FE4F0026A2EB000882465F1A701E35465D
:104110008946B8F1000F02DD4FF0010102E003D142
:104120004FF00001019102E0C8F100080190002F5A
:1041300002DD4FF0010002E003D14FF000000090DB
:1041400002E0C7F1000700904046B84501DD044693
:1041500000E03C46601C4FF0000B029015E01FFA97
:1041600089F11FFA8AF0FCF7C1FC46443D44A6429F
:1041700002DD0199361B8A44A54202DD00992D1B00
:1041800089440BF101001FFA80FB02998B45E6DDA3
:10419000BDE8FE8FF0B51C4615460E4607460B4699
:1041A000FFF7ADFF3A46234631461046FFF7A7FF1B
:1041B00023462A4619463846FFF7A1FF2A462346DA
:1041C0003146BDE8F040104699E72DE9FC4F8046A6
:1041D0000024154603200F46A0EB450649E0781B56
:1041E00081B208EB040A01901FFA8AF0FCF77EFC0A
:1041F000381B81B208EB050900901FFA89F0FCF723
:1042000075FC07EB040B1FFA8BF11FFA89F0FCF722
:104210006DFC07EB05091FFA89F11FFA8AF0FCF71C
:1042200065FCA8EB040A1FFA89F11FFA8AF0FCF773
:104230005DFCA8EB05091FFA8BF11FFA89F0FCF76A
:1042400055FC019881B21FFA8AF0FCF74FFC0098E8
:1042500081B21FFA89F0FCF749FC641C002E03DAD6
:1042600006EB8406B61D04E0601B06EB80066D1E9F
:104270000A36AC42B3DDBDE8FC8F2DE9F84F82462B
:104280001F460C468B46580700D0012000EBD70094
:1042900079084843203AC0B202F0FF090026009096
:1042A00041E00C2F10D0102F12D0182F3ED14349CF
:1042B00009EBC90001EB80004FF00008855D28067E
:1042C0000AD53F4802880BE009EB49003D49F1E778
:1042D0003D4901EB0910EFE70A9828B938484288B0
:1042E00021465046FCF70DFC6806050E3148641C5B
:1042F000A4B24088A04219D9A4EB0B00B84209D15E
:104300000AF101001FFA80FA2A485C4601885145EB
:104310000CD906E008F1010000F0FF08B8F1080F21
:10432000CDD3761CF6B200988642BAD3BDE8F88F9A
:104330000346012000E05843491EC9B2FBD2704732
:104340002DE9FF4F81B00027DDF838B01D469246B9
:1043500080463C46B9464FEA5B0627E0281B401ED4
:10436000C1B20A20FFF7E4FFBAFBF0F00A21B0FB6C
:10437000F1F201FB120027B9691E8C4201DA48B143
:1043800001273030C2B206FB048080B25B46CDF814
:10439000009006E006FB048080B25B462022CDF848
:1043A00000900299FFF769FF641CE4B2AC42D5D3D8
:1043B00005B00BE01C0E00200008006C8E6D02089A
:1043C000160000202A6302089E670208BDE8F08FED
:1043D0002DE9FF4F81B08046DDF83CA00E984FF0EC
:1043E00000091F4693464C460AF0010546082BE09B
:1043F000381B401EC1B20A20FFF79AFFBBFBF0F04A
:104400000A21B0FBF1F201FB1200B9F1000F05D156
:10441000791E8C4202DA48B14FF001093030C2B245
:1044200006FB048080B200950E9B08E05FEA0A60FC
:1044300006FB04800E9B80B2009508D530220299BD
:10444000FFF71BFF641CE4B2BC42D1D3B0E72022CB
:10445000F5E72DE9F84F044600F0FF0810190D4666
:10446000DDE90A761FFA80FA58191FFA80F94FF031
:10447000000B11E0544502D3E819444685B24D457E
:104480000FD23B4629462046CDF800B0FFF7F5FE97
:1044900004EB570084B2761C3278A2F120005E282B
:1044A000E8D943E74E48416941F48071416181692F
:1044B00041F020018161816941F0400181618169A0
:1044C00041F080018161816941F4807181614548D9
:1044D000016800210160026842F0BB320260001FE7
:1044E000026802F0FF220260026842F0BB12026022
:1044F0003D4802680160026842F0BB320260001F62
:1045000002683A4B1A4002600268394B1A43026053
:104510003848026892B202600268374B1A43026060
:10452000001F026802F07F4202600368334A1343AF
:1045300003603348436823F470634360436843F483
:1045400030634360036803F07F43036003681343F1
:1045500003604FF0204001614161C0F8141101690E
:1045600041F480510161016941F01001016141692B
:1045700041F44071416141694161416941616FF0BC
:104580007041C0F81411016941F0010101617047E7
:1045900010B5002A07D04FF0D04310F8014B5C54FF
:1045A000491C521EF7D110BD002A07D04FF0D0434E
:1045B0005B5C491C00F8013B521EF7D1704703B504
:1045C0000146012201A8FFF7E3FF0CBD08B5014633
:1045D00001226846FFF7E8FF9DF8000008BD0000D3
:1045E00000100240041401400418014000FFFF0FB6
:1045F000BB0000B0041C01400000BBBBBBBBBB0048
:104600000020014038B50121082002F0E6F9C02061
:10461000ADF8000010208DF803000320824C8DF8C7
:1046200002006946204601F0F0FFC021204602F05A
:1046300056F838BD70B57C48016821F070410160C2
:10464000016841F040510160784C0120C4F89C01A0
:10465000C4F89801042004F5CC7401F068FD00252D
:104660006560042001F063FD256070BD6E4810B5E3
:10467000016821F070410160016841F04051016022
:104680006A4C0020C4F89801C4F89C01042004F589
:10469000CC7401F04CFD012020606060BDE810404A
:1046A000042001F044BD70B55F480024016821F08A
:1046B00070410160016841F0004101605B4D0126DD
:1046C000C5F89C61304601F032FDC5F898610120C3
:1046D00001F02DFD07E0641CE4B2FA2C03D9FFF7CA
:1046E000C5FF012070BDD5F81C010028F3D1C5F825
:1046F000980170BD70B54D4C0025C4F898514A48DA
:10470000016821F070410160016841F04051016091
:10471000C4F89C51022004F5CC7401F008FD01207E
:104720002060022001F003FD256070BD70B53F4C94
:104730000026C4F898613C48016821F0704101608E
:10474000016841F0405101600125C4F89C510220EC
:1047500004F5CC7401F0EBFC2560022001F0E7FCCD
:10476000266070BD2DE9F04105462F48016821F013
:1047700070410160016841F0405101602B4E0027FB
:10478000C6F898713C464FF00108280602D5C6F8D5
:104790009C8101E0C6F89C716806050E022001F0BC
:1047A000C6FCC6F89881022001F0C1FCC6F89871D9
:1047B000022001F0BCFC641CE4B2082CE5D3BDE887
:1047C000F0812DE9F047814617480024016821F067
:1047D00070410160016841F000410160134E2546BF
:1047E00027464FF00108C6F89871022001F09FFC9F
:1047F000C6F898816006040ED6F81C0108B1641C46
:10480000E4B2012001F093FC6D1CEDB2082DEAD357
:10481000B9F1000F04D0FFF76DFF2046BDE8F08727
:10482000FFF784FFF9E70000000C014000802142FF
:10483000FFF7E8BE10B50446FFF7FCFE200AA021F2
:1048400001EB4000C0B2FFF78DFFFFF72CFFE0B295
:10485000FFF788FFFFF727FFFFF7ECFEA120FFF728
:1048600081FFFFF720FF0020FFF7ABFF0446FFF7B3
:10487000FDFE204610BD70B50D460446FFF7DAFE7A
:10488000200AA02101EB4000C0B2FFF76BFFFFF749
:104890000AFFE0B2FFF766FFFFF705FF2846FFF7C4
:1048A00061FFFFF700FFFFF7E1FEBDE870400A205F
:1048B00001F054BC2DE9F04116460D460746002490
:1048C00009E0E00025FA00F0C1B2381980B2FFF724
:1048D000D2FF641CE4B2B442F3D3BDE8F0812DE909
:1048E000F0410D460146002004464E1908E007023B
:1048F000301B401E80B2FFF79DFF641C3844E4B2B9
:10490000AC42F4D3E9E710B5FF20FFF793FF552839
:104910000AD05521FF20FFF7AEFFFF20FFF78AFFE7
:10492000552801D0012010BD002010BD70B51546DE
:104930000E46044608E02046641CA4B2FFF77AFF46
:104940006D1E06F8010BADB2002DF4D170BD70B52F
:1049500014460D46064606E029783046FFF78BFFE1
:10496000761CB6B26D1C641EA4B2F5D270BD0000F8
:10497000052001F0DCBB9448816941F008018161A8
:10498000816941F0800181619048016821F0F00166
:104990000160016841F0300101608D48016821F03B
:1049A000F0010160016841F03001016087480C307E
:1049B000016841F00201016085480830016841F456
:1049C00000710160704770B58148016821F0F00105
:1049D0000160016841F0300101607E4E0120C6F89F
:1049E000A4017D4DC5F884011E2005F5C27506F5AC
:1049F000D27601F09CFB00243460052001F097FB87
:104A00002C6070BD70B57248016821F0F001016042
:104A1000016841F0300101606F480125C0F8845100
:104A20001E2001F084FB6B4C0020C4F8A40105207B
:104A300004F5D27401F07BFB256070BD70B564484D
:104A40000024016821F0F0010160016841F080015B
:104A50000160604D0120C5F8A4015F4EC6F88401D5
:104A600007E0641CE4B2FA2C03D9FFF7CBFF012066
:104A700070BD052001F05BFBD5F824010028F0D1C2
:104A8000C6F8840170BD70B5534C0025C4F884513C
:104A90004F48016821F0F0010160016841F03001E8
:104AA0000160052004F5C27401F041FB4948C0F8DB
:104AB000A451052001F03BFB01202060052001F0FE
:104AC00036FB256070BD70B5434C0026C4F8846188
:104AD0003F48016821F0F0010160016841F03001B8
:104AE0000160052004F5C27401F021FB394801255D
:104AF000C0F8A451052001F01AFB2560052001F043
:104B000016FB266070BD2DE9F04705463048016868
:104B100021F0F0010160016841F0300101602E4E8A
:104B20000027C6F88471052001F001FBDFF8A4809E
:104B300000244FF00109E909C8F8A4116806050E20
:104B4000C6F88491052001F0F2FAC6F884710520B8
:104B500001F0EDFA641CE4B2082CECD3BDE8F08758
:104B60002DE9F04782461A480024016821F0F0013F
:104B70000160016841F0800101601E2001F0D7FA58
:104B80000025154EDFF84C902F464FF00108C6F86F
:104B90008471052001F0CBFAC6F884816006040E0A
:104BA000D9F8240108B1641CE4B26D1CEDB2082DE3
:104BB000EDD3BAF1000F03D0FFF765FF2046CDE734
:104BC000FFF781FFFAE7000000100240000C0140EF
:104BD000041C014000802342008021422DE9F04165
:104BE00015460E4604460027FFF7EDFE7020FFF73E
:104BF0008AFFFFF723FFE0B2FFF785FFFFF71EFFF5
:104C0000002408E0305DFFF77EFFFFF717FF070085
:104C100003D1641CE4B2AC42F4D3FFF7F3FE384690
:104C2000BDE8F0812DE9F04115460F460446FFF737
:104C3000CAFE7020FFF767FFFFF700FFE0B2FFF743
:104C400062FFFFF7FBFEFFF7BEFE7120FFF75BFF81
:104C5000FFF7F4FE00246E1E09E0B44201D00120EB
:104C600000E00020FFF77CFF3855641CE4B2AC4242
:104C7000F3D3BDE8F041FFF7C5BE38B5744881698C
:104C800041F0800181617348016821F47F41016036
:104C9000016841F4605101606E480830016841F4D8
:104CA00040610160FFF767FE6B4D0024C5F8AC4121
:104CB000142005F5D67501F051FA01202860322044
:104CC00001F04CFA8DF80040012269460020FFF700
:104CD00085FF01226946A420FFF780FF16208DF88A
:104CE0000000012269468020FFF778FF0C208DF834
:104CF0000000012269468820FFF770FF0222694602
:104D0000A120FFF78FFF9DF80000302803D19DF808
:104D10000100032801D0012038BD43F203014FA058
:104D200006F07EFB002038BD2DE9F1434E4F0024F4
:104D30004FF00A09387882B0401CC0B2B0FBF9F2DB
:104D400009FB1201494DA046387009B10A2863D207
:104D5000012202A90220FFF765FF9DF80800010764
:104D60005AD000F00F00062856D2FF218140C843D8
:104D700040F0C00085F820004FF00108002695F8AB
:104D8000201008FA04F0014239D03948042269465B
:104D900030F81400FFF746FF95F830009DF800103A
:104DA000C0079DF8010001F00F010ED000EB0121BA
:104DB00005EB4400C1829DF802209DF8031002F02B
:104DC0000F0201EB022181810FE000EB0120C0F511
:104DD000F07105EB440081819DF802209DF80310DD
:104DE00002F00F0201EB0221C1829DF800000821B0
:104DF000B1EB101F03D005EB4400C6828681641C12
:104E0000E4B2052CBBD3A9894FF0010819B9E88A8F
:104E100008B98DF808603E709DF80800C0060ED1F4
:104E200095F82000010602D520F0800005E04FF63D
:104E3000FF71A981E98200F0E00085F82000387850
:104E4000F02801D987F800904046BDE8FE830000B5
:104E500000100240041C01400080234243545020B3
:104E600049443A25780D0A001A0000202400002049
:104E7000EA7A02082DE9F04115460E46044600275D
:104E8000FFF7A1FD2820FFF73EFEFFF7D7FD200A20
:104E9000FFF739FEFFF7D2FDE0B2FFF734FEFFF770
:104EA000CDFD002408E0305DFFF72DFEFFF7C6FDC5
:104EB000070003D1641CE4B2AC42F4D3FFF7A2FDB7
:104EC0003846BDE8F08108B500218DF800108DF856
:104ED0000100B9489DF80020435C491C1A44C9B23E
:104EE0008DF80020B829F5D3D0B2C043401C8DF80E
:104EF0000000B822B04948F24700FFF7BBFF02228A
:104F0000694648F2FF00FFF7B5FF002008BD2DE914
:104F1000F04115460F460446FFF755FD2820FFF7E0
:104F2000F2FDFFF78BFD200AFFF7EDFDFFF786FD91
:104F3000E0B2FFF7E8FDFFF781FDFFF744FD292010
:104F4000FFF7E1FDFFF77AFD00246E1E09E0B44291
:104F500001D0012000E00020FFF702FE3855641C5C
:104F6000E4B2AC42F3D3BDE8F041FFF74BBD2DE90D
:104F7000FC419248816941F080018161904C206838
:104F800020F47F402060206840F4605020608C4D09
:104F90000835286840F440602860FFF7ECFC894F32
:104FA0000026C7F8AC610A2007F5D67701F0D6F8DD
:104FB000012038600A2001F0D1F8206820F47060E8
:104FC0002060206840F400602060286820F4806041
:104FD0002860642001F0C2F80422694648F24010BB
:104FE000FFF795FF8DF80460694677A006F018FA80
:104FF00078A1684606F09EFC10B10120BDE8FC8156
:1050000002208DF8000048F2400401226946204643
:10501000FFF730FF01226946E01DFFF778FF9DF89A
:105020000010602905D26DA006F0FAF90120FFF703
:105030004AFF0A2001F092F88DF8006001226946CB
:105040002046FFF717FF0020D8E72DE9F147684D0C
:1050500000244FF00A0A287883B0401CC0B2B0FB8D
:10506000FAF20AFB1201634EA046287009B10A2821
:1050700078D248F24E19012203A94846FFF747FFAC
:105080009DF80C004FF0000701060AD500F00F0054
:10509000062806D28DF80470012201A94846FFF7C0
:1050A000E9FE9DF80C0001075CD000F00F01062915
:1050B00058D2FF2088408DF80400C04396F8209015
:1050C00040F0C00086F82000B089B082F08AF083FA
:1050D0004FF0010896F8201008FA04F0014226D09B
:1050E00035480422B830694630F81400FFF70FFF46
:1050F00096F830009DF80110C0079DF8000000EB05
:10510000012106EB44000AD0C1829DF802109DF8EF
:10511000032001EB0221C1F54871818107E0818103
:105120009DF802109DF8032001EB0221C182641C4E
:10513000E4B2052CCED33049B2894FF001080B8878
:1051400030469A4203D8C28A49888A4209D99DF8D2
:105150000C1001F00F0101290BD9C1898181018B4C
:10516000F1822F709DF80C0000F08F0080280AD08B
:1051700018E0818A8181C18BC18280218DF80C1059
:1051800086F82090EEE796F82000010602D520F080
:10519000800005E04FF6FF71B181F18200F0E00080
:1051A00086F820002878F02801D985F800A004B0FE
:1051B0004046BDE8F0870000F47A02080010024083
:1051C000041C0140008023424354502049443A25A6
:1051D000730D0A0039313437000000004465666100
:1051E000756C74205665723A25640D0A0000000043
:1051F0001B000020240000201C0E00202DE9F0419F
:1052000015460E4604460027FFF7DDFBB220FFF7E8
:105210007AFCFFF713FC200AFFF775FCFFF70EFC82
:10522000E0B2FFF770FCFFF709FC002408E0305DF6
:10523000FFF769FCFFF702FC070003D1641CE4B22E
:10524000AC42F4D3FFF7DEFB3846BDE8F0812DE930
:10525000F04115460F460446FFF7B5FBB220FFF7B5
:1052600052FCFFF7EBFB200AFFF74DFCFFF7E6FBD4
:10527000E0B2FFF748FCFFF7E1FBFFF7A4FBB32028
:10528000FFF741FCFFF7DAFB00246E1E09E0B44291
:1052900001D0012000E00020FFF762FC3855641CBB
:1052A000E4B2AC42F3D3BDE8F041FFF7ABBB08B5C5
:1052B00000218DF8001010B180208DF8000001222F
:1052C00069464FF45060FFF799FF08BD38B56E4846
:1052D00000258DF80050816941F0800181616B48A3
:1052E000016821F47F410160016841F4605101606F
:1052F00066480830016841F440610160FFF73BFBFC
:10530000634CC4F8AC51642004F5D67400F026FF59
:1053100001202060642000F021FF0120FFF7C7FF7B
:10532000012269464FF45060FFF791FF9DF800108D
:1053300058A006F075F89DF80000802801D00120E3
:1053400038BD002038BD2DE9F14F554F00244FF0F6
:105350000A08387882B0401CC0B2B0FBF8F208FBF3
:105360001201504E2546387009B10A2871D2012227
:1053700002A90020FFF76BFF9DF80800C1066CD062
:1053800000F01F0040F0C000DFF81CA1DFF81CB1E6
:1053900086F820004FF0010996F8201009FA04F071
:1053A000014249D042480422694630F81400FFF710
:1053B0004EFF96F830009DF80210C0079DF80300DC
:1053C00000EB01201ED020F0A1F852465B4620F0F1
:1053D000EDF820F057F806EB4405E8829DF801004F
:1053E0009DF8001000EB012020F090F8314A324B7C
:1053F00020F0DCF80022314B20F00CFA20F042F8CB
:10540000A88119E020F082F852465B4620F0CEF8E1
:1054100020F038F806EB4405A8819DF801009DF8BE
:10542000001000EB012020F071F8224A224B20F0FE
:10543000BDF820F027F8E882641CE4B2052CABD359
:105440000125B28900211AB9F08A08B98DF808102F
:1054500039709DF80800C0060ED196F820000106AC
:1054600002D520F0800005E04FF6FF71B181F18296
:1054700000F0E00086F820003878F02801D987F89D
:1054800000802846BDE8FE8F00100240041C014049
:10549000008023424354502049443A25780D0A00A5
:1054A0001C000020240000207B14AE47E17AD43F8A
:1054B000B67B0208D881734694F6D23F000089403B
:1054C0002DE9F0470024FF4EFF4F0546A0464FF060
:1054D0000109280601D5484600E04046C6F8A40167
:1054E0006806050EC7F88481012000F020FEC7F889
:1054F0008491641CE4B2082CEBD3BDE8F0872DE95D
:10550000F0470025F04F2C462E46C7F88451DFF8AF
:10551000B483C8F8A451C8F8AC5107F5C277FFF7B7
:10552000CFFF062000F003FE3E60012000F0FFFDEB
:105530004FF00109C7F80090484600F0F8FD3E60C2
:10554000B2464E464FF6FF79A7F5C27709EA440402
:10555000C7F884A1012000F0EAFDC7F88461D7F8FC
:10556000080108B1641CA4B26D1CEDB2102DEDD37E
:105570002009C8F8AC61C0E7FEB5064600246D46B8
:105580003046FFF7BCFF25F81400641CA4B2052CBC
:10559000F6D300214C1CA0B20BE035F8113035F8E1
:1055A0001020934203D925F8112025F81030401C13
:1055B00080B20528F1D3A1B20429EBD30021012048
:1055C00035F81020401C114480B289B20428F7D36A
:1055D0000320B1FBF0F0FEBD2DE9F041BB4F0646C4
:1055E0000D463878FFF7C8FF04467878FFF7C4FF08
:1055F000348028800120BDE8F08170B586B00C466B
:105600000546694604A8FFF7E7FF00282FD001A947
:1056100003A8FFF7E1FF002829D0BDF80C30BDF842
:105620001020934203D803F13200824205D39A42FC
:105630001FD802F1320083421BD2BDF80410BDF81E
:105640000000814203D801F13206B04204D38842FF
:105650000FD8323081420CD2D01840082880BDF8D3
:105660000000BDF80410084440082080012006B066
:1056700070BD0020FBE72DE9F041044694480D463B
:105680000B46028004F10D0082B2193880B2FEF799
:1056900036FD05F10D0083B2193881B2224610465D
:1056A000FEF72DFD6E1C04F10108B1B21FFA88F05F
:1056B000FBF71CFAB1B2661EB0B2FBF717FA6F1E09
:1056C000B9B21FFA88F0FBF711FAB9B2B0B2FBF722
:1056D0000DFA29462046BDE8F0410622FEF775BDC9
:1056E00070B506467A480C4602803046FBF7FEF954
:1056F000751CA8B22146FBF7F9F9641CA1B230462B
:10570000FBF7F4F9A1B2A8B2BDE87040FBF7EEB91F
:1057100070B56C49D1F828116C4C241D41B194F836
:105720002000010641D520F0800084F8200043E0ED
:105730000200664800F1040000F1160100F10C00BF
:1057400002D0FFF75AFF24E0FFF757FF08B3B4F980
:105750002C0020F00DFC0546A08920F021FC616A98
:1057600020F032FC294620F05DFA20F0E1FBA08118
:10577000B4F92E0020F0FCFB0546E08A20F010FC76
:10578000A16A20F021FC294620F04CFA20F0D0FB41
:10579000E08294F8200000060ED4C02084F8200097
:1057A000A089A082E08AE08306E00020A082E08356
:1057B0004FF6FF70A081E08294F8200000F0800096
:1057C00070BD424910B50E2228312820FFF7BFF8DE
:1057D0000A21BDE810403620FFF74DB810B536203D
:1057E000FFF728F80A2801D0002010BD37490E2203
:1057F00028312820FFF79AF834489022001D90F8AD
:105800003030001FD02113B10270417001E00170EF
:105810004270012010BD2DE9FF4F83B00E46DDE937
:1058200010A92B4907464FF47840DDF850800880D6
:1058300028A01024CDE90040274D9346A0216B8875
:105840002A882820FEF705FE24A0CDE900406B88B9
:105850002A88A0217820FEF7FCFD21A0CDE9004098
:105860006B882A88B4212820FEF7F3FD1DA0CDE91E
:1058700000406B882A88B4217820FEF7EAFD1AA040
:10588000CDE900406B882A88C8212820FEF7E1FD79
:1058900016A0CDE900406B882A88C8217820FEF741
:1058A000D8FD13A0CDE900406B882A88DC21282090
:1058B000FEF7CFFD0FA0CDE90040DC216B882A88E0
:1058C000782019E00080234200802142200000203F
:1058D0001600002078313A001C0E002079313A0081
:1058E00078323A0079323A0078333A0079333A0024
:1058F00078343A0079343A00FEF7ABFDFEA0CDE9EA
:1059000000406B882A88F0212820FEF7A2FD04239E
:105910003A46A02140200094FEF712FD04233246AF
:10592000A02190200094FEF70BFD04235A46B421D9
:1059300040200094FEF704FD04230094B42190203D
:10594000069AFEF7FDFC04235246C821402000942D
:10595000FEF7F6FC04234A46C82190200094FEF787
:10596000EFFC04230094DC214020129AFEF7E8FCAF
:1059700004230094DC219020139AFEF7E1FC03231A
:105980004246F02160200094FEF7DAFC07B0BDE843
:10599000F08F2DE9F04FDA4E89B01F203080D948C2
:1059A0004FF6FF77002507802C463846FBF7E4FAD0
:1059B0004FF47848A6F800803846FBF7DDFAD24865
:1059C0000027378001681020CDE9000128216423D9
:1059D000A0220846FEF73DFD142142460846FFF787
:1059E0004AFECA48DFF8288380F820704762C74E15
:1059F00001207168884796F820000121B1EB901FC3
:105A00004AD120F0400086F8200005A8B28920F88D
:105A1000252000EB85006D1C0024F18AEDB2418049
:105A2000012D06D0022D12D0032D21D0042D33D10B
:105A30003EE014214FF6FF720846FFF71CFEB8F84F
:105A400000004FF47842143880B2142122E0B8F8F4
:105A500000004646143880B24FF6FF721421FFF75B
:105A60000AFE70884FF47842143881B2142011E095
:105A7000B8F802004646143881B24FF6FF7214207F
:105A8000FFF7F9FD70884FF47842143881B23088FE
:105A9000143880B2FFF7EFFD0A2000F05FFB641CB2
:105AA000A4B2B4F57A7FA2D9FFF798FE09B06EE7E9
:105AB000BDF81400BDF81810411A00D54942BDF8D0
:105AC0001600BDF81A20801A00D5404249434043D1
:105AD00008441FF01BFD1FF041FA1FF0D3FC85B2F4
