:020000040800F2
:10000000E0060020193200082132000823320008DF
:1000100025320008273200082932000800000000BD
:100020000000000000000000000000002B3200086B
:100030002D320008000000002F3200083132000885
:1000400033320008333200083332000833320008FC
:1000500033320008333200083332000833320008EC
:1000600033320008333200083332000833320008DC
:1000700033320008333200083332000833320008CC
:1000800033320008333200083332000833320008BC
:1000900033320008333200083332000833320008AC
:1000A000333200083332000833320008333200089C
:1000B000333200083332000833320008333200088C
:1000C000333200083332000833320008333200087C
:1000D000333200083332000833320008333200086C
:1000E000333200083332000833320008333200085C
:1000F000333200083332000833320008333200084C
:10010000333200083332000833320008333200083B
:10011000333200083332000833320008333200082B
:10012000333200083332000833320008333200081B
:1001300000F002F800F03AF80AA090E8000C8244BF
:100140008344AAF10107DA4501D100F02FF8AFF29C
:10015000090EBAE80F0013F0010F18BFFB1A43F0A5
:1001600001031847686B0000886B0000103A24BF39
:1001700078C878C1FAD8520724BF30C830C144BF0C
:1001800004680C607047000000230024002500264E
:10019000103A28BF78C1FBD8520728BF30C148BFEA
:1001A0000B6070471FB51FBD10B510BD03F07EFF7B
:1001B0001146FFF7F7FF00F008F803F09CFF03B4C7
:1001C000FFF7F2FF03BC03F09DFF01F022FB01F0FB
:1001D00047FA01F03AFD0FE000F053F800F08FF815
:1001E00000F036F900F0F8F900F0DCFA00F01AFB44
:1001F00000F055FB00F09FFBEEE700003EB5044623
:100200001F200090FE48028814230021084600F0B9
:1002100053FD1F200090FA48438802884088143814
:1002200081B2002000F048FD4FF6FF70F5490880CC
:10023000012010211F234FF6FF72CDE900410290EB
:100240000221002001F0BAF901201021EEA2CDE92F
:1002500000210290EA484088123881B21F234FF6ED
:10026000FF72002001F0AAF900200090E4484088C5
:10027000143883B2E24802881421002000F01CFDEB
:100280003EBD0EB5E8A0FFF7B9FF01201021ECA29A
:100290001F23CDE900210290DA021E21002001F087
:1002A0008DF901201021E2A21F23CDE90021029047
:1002B000DA023C21002001F081F901201021E3A2A3
:1002C0001F23CDE9002102904FF6E0725A21002051
:1002D00001F074F901201021E2A21F23CDE90021D1
:1002E00002901A467821002001F068F940F2DC50B3
:1002F00001F0F3F940F2DC5001F0EFF90EBD0EB55C
:10030000DFA0FFF77BFF4FF6FF700090BC484088EE
:10031000143883B2BA4802881421002000F0CCFCC3
:1003200001201021DBA2CDE900210290B449098807
:10033000323988B24FF6E0731F221E2101F0ACF86B
:100340004FF4FA7001F0C9F900200090AC484088E1
:10035000143883B2AA4802881421002000F0ACFCB3
:1003600001201021CDA2CDE900210290A4490988E5
:10037000323988B24FF6E0731F221E2101F08CF84B
:100380004FF4FA7001F0A9F94FF4784000909C48BE
:100390004088143883B29A4802881421002000F063
:1003A0008BFC01201021BFA2CDE9002102909449CD
:1003B0000988323988B24FF6E0731F221E2101F0FE
:1003C0006BF84FF4FA7001F088F94FF4FC6000907C
:1003D0008B484088143883B2894802881421002051
:1003E00000F06AFC01201021AFA2CDE900210290AB
:1003F00083490988323988B24FF6E0731F221E21E3
:1004000001F04AF84FF4FA7001F067F91F200090EC
:100410007B484088143883B2794802881421002030
:1004200000F04AFC01201021A1A2CDE90021029098
:1004300073490988323988B24FF6E0734FF6FF727C
:100440001E2101F029F84FF4FA7001F046F90EBDB3
:100450002DE9F843002498A0FFF7D0FE4FF6FF7077
:10046000009067484088143883B265480288142198
:10047000002000F021FC00BF48E0DFF884C1BCF898
:10048000025005EBD57C4FEA6C0CACF1500CC4EB80
:100490000419CC440CF13C0C1FFA8CF3DFF860C15A
:1004A000BCF8006006EBD67C4FEA6C0CACF1500C4B
:1004B000C4EB0419CC440CF13C0C1FFA8CF2DFF8AD
:1004C00040C1BCF8027007EBD77C4FEA6C0CACF172
:1004D000500CC4EB0419CC441FFA8CF1DFF820C196
:1004E000BCF8008008EBD87C4FEA6C0CACF1500CE7
:1004F000C4EB0419CC441FFA8CF000F069FC74487A
:1005000030F814003F490880601CC4B2052CB4DBED
:1005100040F2DC5001F0E1F84FF6FF7000903848EF
:100520004088143883B2364802881421002000F035
:10053000C3FB002448E0DFF8C8C0BCF8027007EB3A
:10054000D77C4FEA6C0CACF1500CC4EB0419CC44D2
:100550000CF13C0C1FFA8CF3DFF8A4C0BCF800507F
:1005600005EBD57C4FEA6C0CACF1500CC4EB0419D4
:10057000CC440CF13C0C1FFA8CF2DFF884C0BCF8C0
:10058000028008EBD87C4FEA6C0CACF1500CC4EB49
:100590000419CC441FFA8CF1DFF864C0BCF8006089
:1005A00006EBD67C4FEA6C0CACF1500CC4EB041992
:1005B000CC441FFA8CF000F02BFC454830F81400B6
:1005C00010490880601CC4B2052CB4DB40F2DC503A
:1005D00001F083F8BDE8F883F8B500243DA0FFF7EB
:1005E0000DFE4FF6FF70009005484088143883B226
:1005F000034802881421002000F05EFB00BF95E054
:100600007000002024000020514474656368B0E647
:10061000C8A8CBF9D3D0207777772E71647465633F
:10062000682E6E6574000000C8ABB6AFB5E7D7D3CF
:10063000D7DBBACFB2E2CAD4B3CCD0F2000000000C
:10064000C8ABB6AFB5E7D7D300000000332E3527CF
:1006500020494C4939343836203332305834383018
:10066000000000007869616F46656E674051447410
:1006700065636820323031342D30322D3235000040
:10068000B2E2CAD4313AB4BFC9ABCCEEB3E4B2E201
:10069000CAD400005768697465000000426C616349
:1006A0006B00000052656400477265656E000000D3
:1006B000426C756500000000B2E2CAD4323A475578
:1006C00049BED8D0CECCEEB3E4B2E2CAD40000002A
:1006D00000000020B2E2CAD4333A475549BBADD43A
:1006E000B2CCEEB3E4B2E2CAD40000000020F84B72
:1006F00000905D8805EBD5735B10323B04EBC407BB
:1007000007EB0417D919F24B1E8806EBD6735B1062
:10071000503B04EBC40707EB0417D819ED4B33F833
:1007200014201E2300F0C5FB601CC4B2052CDDDBC9
:1007300040F2DC5000F0D1FF4FF6FF700090E4482B
:100740004088143883B2E24802881421002000F067
:10075000B3FA00241FE00120DD4B00905D8805EB1B
:10076000D5735B10323B04EBC40707EB0417D919B0
:10077000D74B1E8806EBD6735B10503B04EBC407C7
:1007800007EB0417D819D34B33F814201E2300F0BD
:1007900090FB601CC4B2052CDDDB40F2DC5000F0A5
:1007A0009CFFF8BD08B5CCA0FFF728FD4FF47840BA
:1007B000CE4908801F20CE4908800020CDA30C22FE
:1007C0001E2100900A2000F04BFC0120D4A30C2233
:1007D0002D2100900A2000F043FC0020DBA30C2216
:1007E0003C2100900A2000F03BFC0020DFA31022F7
:1007F000502100900A2000F033FC0120E6A31022D3
:10080000642100900A2000F02BFC0020EDA31022B0
:10081000782100900A2000F023FC4FF4966000F04D
:100820005CFF08BD0EB5EFA0FFF7E8FC002010212B
:10083000F1A24FF6E073CDE9002102901F221E21A4
:100840000A2000F029FE01201021F4A24FF6E073E7
:10085000CDE9002102901F2232210A2000F01CFE67
:1008600001201821F3A24FF6E073CDE90021029098
:100870001F2246210A2000F00FFE01202021F3A2B2
:100880004FF6E073CDE9002102901F2264210A2077
:1008900000F002FE4FF4966000F01FFF0EBD0EB593
:1008A000EEA0FFF7ABFC4FF6FF7000908848408841
:1008B000143883B2864802881421002000F0FCF925
:1008C000EB4A1E21084600F09BFE01201021E9A200
:1008D0004FF6E073CDE9002102901F224B212A2020
:1008E00000F0DAFDE24A1E215A2000F089FE0120C4
:1008F0001021E0A24FF6E073CDE9002102901F2203
:100900004B21662000F0C8FDD94A1E21962000F038
:1009100077FE01201021D7A24FF6E073CDE9002128
:1009200002901F224B21A22000F0B6FD4FF49660EA
:1009300000F0D3FE0EBD08B500250026002702F00A
:1009400000FC00F0E7FFCCA0FFF758FC0120604955
:1009500000900988183988B2CBA31022002100F03A
:100960007FFB4FF478405A49009009881E398AB2BB
:1009700057490988343988B21223022100F09CF9C2
:100980004FF478405949088087E100F0DDFF0446C4
:10099000BE48416800208847BC48007D00F08000C8
:1009A000002879D0B948008A49490988884276DA0E
:1009B000B648408A46494988884270DAB348018A75
:1009C000434800881838814222DDB048408A102808
:1009D0001EDAA9A0FFF712FC01203D49009009880A
:1009E000183988B2A8A31022002100F039FB3F4833
:1009F000078000883649009009881E398AB2344938
:100A00000988343988B21223022100F055F946E0F2
:100A10009E48018A2E4800883C38814234DD9B483C
:100A2000018A2B4800881E3881422DDA9748408A77
:100A3000142829DA052096FBF0F100FB1160254906
:100A400031F810802249CDF8008009881E398AB219
:100A50001F490988343988B21223022100F02CF989
:100A60003046711C8EB2052190FBF1F201FB1200A1
:100A7000184931F810001D490880084607880A20E7
:100A800000F02BFE0BE007E0804A518A108A174ADB
:100A9000128801F022FD02E00A2000F01EFE012C67
:100AA0000AD14FF6FF7000F0FFFF01F0E8FE01F001
:100AB000AAFD71A0FFF7A2FB681CC5B2142D06D1D8
:100AC00000257348006808B90120E4E0E2E0E4E0B2
:100AD0007000002000000020B2E2CAD4343AD3A251
:100AE000CEC4CFD4CABEB2E2CAD4000024000020D3
:100AF00026000020365831323A61626364656667C9
:100B000068696A6B6C6D6E6F7071727374757677ED
:100B100078797A303132333435363738390000005D
:100B2000365831323A4142434445464748494A4B98
:100B30004C4D4E4F505152535455565758595A30A8
:100B400031323334353637383900000036583132D7
:100B50003A7E21402324255E262A28295F2B7B7D8F
:100B60003A3C3E3F2F7C2D2B2E000000385831366A
:100B70003A6162636465666768696A6B6C6D6E6F23
:100B8000707172737475767778797A303132333464
:100B90003536373839000000385831363A4142434B
:100BA0004445464748494A4B4C4D4E4F505152538D
:100BB0005455565758595A30313233343536373800
:100BC00039000000385831363A7E21402324255E12
:100BD000262A28295F2B7B7D3A3C3E3F2F7C2D2BFC
:100BE0002E000000B2E2CAD4353AD6D0CEC4CFD45B
:100BF000CABEB2E2CAD4000031365831363AC8AB68
:100C0000B6AFB5E7D7D3BCBCCAF5D3D0CFDEB9AB4E
:100C1000CBBEBBB6D3ADC4FA0000000031365831AC
:100C2000363A57656C636F6D65C8ABB6AFB5E7D73D
:100C3000D300000032345832343AC9EEDBDACAD07D
:100C4000D6D0CEC4B2E2CAD400000000333258334A
:100C5000323AD7D6CCE5B2E2CAD40000B2E2CAD466
:100C6000363ACDBCC6ACCFD4CABEB2E2CAD40000BC
:100C7000424B000851510000B2E2CAD4373A546FD7
:100C8000756368B2E2CAD400525354002C000020AD
:100C9000A001214200200149086076E6A00121421E
:100CA00070B505460E4614463146284600F0A0FEB3
:100CB000204600F08CFE70BD2DE9F84F06460F4629
:100CC00014461D46DDF82890A01B401C1FFA80FA30
:100CD000E81B401C1FFA80FB0BFB0AF00090681E0B
:100CE00083B2601E82B23946304600F0B7FE4FF044
:100CF000000804E0F748A0F8009008F10108009807
:100D00008045F7D3F4484088401E83B2F2480088FB
:100D1000401E82B20021084600F0A0FEBDE8F88F18
:100D20002DE9FF4F85B081468A460020049003904C
:100D30000798A0EB09050898A0EB0A06CDF80890E3
:100D4000CDF804A0002D01DD012705E00DB9002735
:100D500002E04FF0FF376D42002E02DD4FF0010838
:100D600006E016B94FF0000802E04FF0FF38764277
:100D7000B54201DD2C4600E034464FF0000B21E087
:100D8000019A91B2029A90B200F05CFE0498284455
:100D900004900398304403900498A04205DD049821
:100DA000001B04900298384402900398A04205DD8D
:100DB0000398001B03900198404401900BF101003F
:100DC0001FFA80FB601C8345DADD09B0BDE8F08FB7
:100DD0002DE9F04104460D4616461F462B46324685
:100DE00029462046FFF79CFF3B46224629462046DF
:100DF000FFF796FF3B46324639462046FFF790FF05
:100E00003B46324629463046FFF78AFFBDE8F0816F
:100E1000F8B504460D4616461F46B04800883B46C6
:100E20003246294600902046FFF746FFF8BD2DE9DF
:100E3000F04104460D4616461F46DDF81880EA19B3
:100E400091B2A21990B24246FFF72AFFEA1991B275
:100E5000A21B90B24246FFF723FFEA1B91B2A219F0
:100E600090B24246FFF71CFFEA1B91B2A21B90B260
:100E70004246FFF715FFAA1991B2E21990B2424615
:100E8000FFF70EFFAA1991B2E21B90B24246FFF79C
:100E900007FFAA1B91B2E21990B24246FFF700FF8A
:100EA000AA1B91B2E21B90B24246FFF7F9FEBDE8E1
:100EB000F0812DE9FF4F81B0824617469846DDF854
:100EC00038B0002445464FEA4800C0F10306BBF1A4
:100ED000000F1FD01BE0A14608E04B4622460097BA
:100EE00050460299FFF7A3FF09F10109A945F4DD76
:100EF000002E04DA042000FB0460861D06E0601B5F
:100F0000042101FB006000F10A066D1E641CAC4266
:100F1000E1DD18E015E02B46224600975046029985
:100F2000FFF785FF002E04DA042000FB0460861D15
:100F300006E0601B042101FB006000F10A066D1E43
:100F4000641CAC42E7DD05B0BDE8F08F2DE9FF4F32
:100F500083B081468A469346DDE910645F48008885
:100F60000290A6F12000C6B204EBD47009EB600039
:100F7000401E82B20AEB0400401E83B2514648462E
:100F8000019400F06BFD129850BB002525E00C2C5D
:100F900007D106EB4600524901EB800010F80580AE
:100FA00004E0504800EB061010F8058000270DE023
:100FB00008F0010018B1584600F009FD02E006985B
:100FC00000F005FD4FEA6808781CC7B204EBD47145
:100FD000B7EB610FECDB681CC5B2A542D7DB2DE097
:100FE000002529E00C2C07D106EB46003C4901EB1B
:100FF000800010F8058004E03A4800EB061010F875
:101000000580002711E03548A0F800B008F0010085
:1010100038B10AEB050291B209EB070290B200F079
:1010200011FD4FEA6808781CC7B204EBD471B7EB26
:10103000610FE8DB681CC5B2A542D3DB27490298E3
:10104000088025484088401E83B223480088401EFF
:1010500082B20021084600F001FD07B0BDE8F08F24
:101060002DE9FE4306460F4615461C46DDF828804E
:101070001DE019480088401EB04204DB1648408835
:10108000401EB84201DABDE8FE8320788DE82101D8
:10109000154803881148028839463046FFF756FF45
:1010A000284605EBD07106EB61018EB2641C2078F6
:1010B0007E2802DC20782028DBDA00BFE3E710B5C9
:1010C0000246012000E050430B00A1F10104E1B20F
:1010D000F9D110BD0008006C700000202400002031
:1010E000C2570008365C0008260000202DE9FF4F9B
:1010F00083B0074691461E46109C4FF0000A00251B
:1011000043E0701B401EC1B20A20FFF7D8FFB9FBB5
:10111000F0F00A21B0FBF1F201FB1208BAF1000F66
:101120001BD1701EA84218DDB8F1000F13D10020AA
:101130002021A346CDE90014029004EBDB71491095
:1011400001FB057188B2FD490B88FD490A880499A5
:10115000FFF7FCFE17E04FF0010A002108F1300014
:10116000C0B2A346CDE90141009004EBDB71491008
:1011700001FB057188B2F1490B88F1490A8804998D
:10118000FFF7E4FE00BF681CC5B2B542B9DB07B08B
:10119000BDE8F08F2DE9FC5F0546884691469A46EA
:1011A000DDF830B000952E20019000245FE004EBC4
:1011B0000410E44911F810009BF80010884253D144
:1011C00004EB0410DF4901EB400040789BF801106C
:1011D000884249D108F10F0083B205F10F0082B2B5
:1011E0004146284600F03AFC00263BE0002734E068
:1011F0000D9890B904EB0410D24901EB4000801C1B
:10120000805D80213941084018B1484600F0DFFB7D
:1012100021E0504600F0DBFB1DE0C948A0F800903B
:1012200004EB0410C74901EB4000801C805D802165
:101230003941084018B14146284600F003FC681CBB
:1012400085B20098281A102805D1009D08F10100E8
:101250001FFA80F803E0781CC7B2082FC8DB00BF74
:10126000701CC6B2202EC1DB00BF601C84B2019886
:1012700084429CDBB4484088401E83B2B248008858
:10128000401E82B20021084600F0E8FBBDE8FC9F4A
:101290002DE9FC5F0546884691469A46DDF830B058
:1012A000009507200190002467E004EB840000EB28
:1012B0004410A64911F810009BF80010884259D13B
:1012C00004EB840000EB4410A04901EB400040789F
:1012D0009BF8011088424DD108F1170083B205F147
:1012E000170082B24146284600F0B8FB00263FE0D6
:1012F000002738E00D98A0B904EB840000EB4410FF
:10130000924901EB4000801C805D802139410840FA
:1013100018B1484600F05BFB23E0504600F057FB55
:101320001FE08748A0F8009004EB840000EB441015
:10133000864901EB4000801C805D802139410840D6
:1013400018B14146284600F07DFB681C85B2009824
:10135000281A182805D1009D08F101001FFA80F80D
:1013600003E0781CC7B2082FC4DB00BF701CC6B2F4
:10137000482EBDDB00BF601C84B20198844294DB20
:1013800071484088401E83B26F480088401E82B278
:101390000021084600F062FBBDE8FC9F2DE9FC5FE0
:1013A0000546884691469A46DDF830B000950420FF
:1013B000019000245FE004EB8410654911F81000EF
:1013C0009BF80010884253D104EB8410604901EB74
:1013D000400040789BF80110884249D108F11F0075
:1013E00083B205F11F0082B24146284600F036FB69
:1013F00000263BE0002734E00D9890B904EB841000
:10140000534901EB4000801C805D80213941084038
:1014100018B1484600F0DBFA21E0504600F0D7FA58
:101420001DE04748A0F8009004EB8410484901EB08
:101430004000801C805D80213941084018B1414640
:10144000284600F0FFFA681C85B20098281A202868
:1014500005D1009D08F101001FFA80F803E0781C17
:10146000C7B2082FC8DB00BF701CC6B2802EC1DB1C
:1014700000BF601C84B2019884429CDB32484088E3
:10148000401E83B230480088401E82B200210846C8
:1014900000F0E4FABDE8FC9F2DE9FF4F83B006465B
:1014A00088469146DDE91147109DB2464FF0000B8A
:1014B0007EE0BBF1000F4DD104EBD471224A1288BB
:1014C000A2EB6101B14204DB1F494988091B414578
:1014D00002DA07B0BDE8F08F2878802802DD4FF0EF
:1014E000010B65E028780D2806D108EB04001FFAEF
:1014F00080F856466D1C1EE0102C0DDD102128785A
:101500008DE883004A4641463046069BFFF71EFDA4
:1015100006F1080086B20EE028788DE891004A4670
:1015200041463046069BFFF711FD204604EBD07183
:1015300006EB61018EB26D1C3AE00000260000202F
:101540002400002026620008700000204268000885
:10155000486A000841480088001BB04204DB3F484D
:101560004088001B404500DAB3E74FF0000B202C09
:1015700008D1CDE900574A4641463046069BFFF761
:101580000DFF12E0182C08D1CDE900574A4641461C
:101590003046069BFFF77CFE07E0CDE900574A4640
:1015A00041463046069BFFF7F5FDAD1C301986B26B
:1015B000287800287FF47DAF00BF8AE72DE9FF4F30
:1015C00083B004460F469046DDE9119A109D2846E7
:1015D00002F036FD86B221490988A1EBC60000EB76
:1015E000D071C1F34F0B04EB0B0188B28DE82006DC
:1015F00042463946069BFFF74FFF07B0BDE8F08F24
:101600002DE9F04706460F46154607F1270083B23D
:1016100006F1270082B23946304600F01FFA002456
:101620000AE015F8149005EB440090F8018049EAAF
:10163000082000F0C8F9641CB4F5C86FF1DB074856
:101640004088401E83B205480088401E82B20021B7
:10165000084600F003FABDE8F087000070000020A3
:1016600010B56FF0040001F046FE2E4800682E49C8
:10167000B0FBF1F02D4908700846007800EB4001FE
:10168000C1EBC0104FF6FF7101EAC0002849088085
:1016900010BD0146254A12784A434FF0E0235A61B3
:1016A00000229A611A46126942F001021A6100BFD3
:1016B0004FF0E022106900F001021AB100F480320C
:1016C000002AF5D04FF0E022126922F001024FF01B
:1016D000E0231A6100229A6170470146144A128879
:1016E0004A434FF0E0235A6100229A611A46126978
:1016F00042F001021A6100BF4FF0E022106900F0D1
:1017000001021AB100F48032002AF5D04FF0E02235
:10171000126922F001024FF0E0231A6100229A615F
:10172000704700001000002000127A000A0000201C
:101730000C0000200CB50020019000906C4800685F
:1017400040F480306A49086000BF6948006800F4CE
:10175000003000900198401C0190009818B9019841
:10176000B0F5A06FF1D16248006800F4003010B10C
:101770000120009001E0002000900098012843D152
:101780005C48006840F010005A490860084600684C
:1017900020F0030008600846006840F0020008607E
:1017A00053484068524948600846406848600846C7
:1017B000406840F4806048600846406820F47C102F
:1017C00048600846406840F4E810486008460068F1
:1017D00040F08070086000BF4548006800F000706D
:1017E0000028F9D04248406820F003004049486092
:1017F0000846406840F00200486000BF3C4840682E
:1018000000F00C000828F9D10CBD10B5FFF792FFCD
:1018100010BD10B53648006840F00100344908603A
:101820000846406834490840314948600846006825
:10183000324908402E4908600846006820F480209C
:1018400008600846406820F4FE0048604FF41F001E
:101850008860FFF7DAFF4FF000602949086010BD8B
:1018600010B5002100200022214B5B6803F00C0121
:1018700021B1042906D0082928D107E0214B224CA8
:10188000236027E01F4B204C236023E0184B5B684C
:1018900003F47010164B5B6803F48032022303EBF1
:1018A000904022B9194B4343174C23600DE0104B75
:1018B0005B6803F4003323B1144B4343124C2360A1
:1018C00003E0104B4343104C236003E00D4B0E4CE0
:1018D000236000BF00BF064B5B68C3F303130C4CCF
:1018E000E15C094B1B68CB40074C236010BD000036
:1018F00000100240002002400000FFF8FFFFF6FE4B
:1019000008ED00E000127A001000002000093D0000
:101910001400002008B50121442002F027F81C2003
:10192000ADF8000048208DF803006946224801F018
:1019300061FD0120ADF8000028208DF80300694604
:101940001E4801F057FD08BD10B510211A4801F0DE
:10195000E4FD78B10821184801F0DFFD50B1042101
:10196000154801F0DAFD28B10121144801F0D5FD38
:1019700001281FD10A20FFF7B0FE10210E4801F008
:10198000CCFD08B9012010BD08210B4801F0C5FDB0
:1019900008B90220F7E70421074801F0BEFD08B9A5
:1019A0000320F0E70121054801F0B7FD012801D12E
:1019B0000420E8E70020E6E70018014000080140A5
:1019C000FE4908807047FD49891C0880704700B5B2
:1019D00002461046FFF7F7FF00BDF84A1080921C40
:1019E0001180704700B5F6490889FFF7E9FF00BD8F
:1019F00000B502460B46F2494889FFF7E1FF101295
:101A0000FFF7E1FFD0B2FFF7DEFF511C0812FFF72E
:101A1000DAFF511C88B2FFF7D6FFE9498889FFF742
:101A2000CFFF1812FFF7CFFFD8B2FFF7CCFF591C3A
:101A30000812FFF7C8FF591C88B2FFF7C4FFFFF771
:101A4000D1FF00BD30B504460D4629462046FFF7BC
:101A5000CFFFDC480088FFF7B6FF30BD30B5044645
:101A60000D46D7494889FFF7ABFF2012FFF7ABFFC0
:101A7000E0B2FFF7A8FF1012FFF7A5FFD0B2FFF703
:101A8000A2FFCF498889FFF79BFF2812FFF79BFF32
:101A9000E8B2FFF798FF1812FFF795FFD8B2FFF7EB
:101AA00092FFFFF79FFF30BD2DE9F041044600256E
:101AB00000260027C2484088401E83B2C0480088E4
:101AC000401E82B200210846FFF7C8FF00BF0BE0AE
:101AD000002503E0B948801C04806D1CA02DF9D3BB
:101AE0006420FFF7FAFD761CB6F5707FF0D3BDE8F1
:101AF000F08100B59FB00121080201F02AFF012109
:101B000040F2791001F032FF0120ADF8780010208A
:101B10008DF87B0003208DF87A001EA9AA4801F0F9
:101B200069FC2020ADF8780010208DF87B000320A0
:101B30008DF87A001EA9A54801F05CFC4CF23370C8
:101B4000ADF8780018208DF87B0003208DF87A001E
:101B50001EA99F4801F04EFC4FF68070ADF878004A
:101B600018208DF87B0003208DF87A001EA9994873
:101B700001F040FC41F20100ADF8780018208DF82A
:101B80007B0003208DF87A001EA9934801F032FCF7
:101B900001200890002009900F200A9000200B904F
:101BA0000C900D900E9002200190002002900520D4
:101BB00003900020049005900690079006200F9057
:101BC000002010901190102012900020139015907A
:101BD0001490169017904FF4805018900020199090
:101BE0004FF480401A9000201B9008A81C9001A878
:101BF0001D900FA801F06AFF0121062002F0CEF827
:101C00001FB000BD10B52020704948616420FFF767
:101C100064FD20206D4908613220FFF75EFD10BD94
:101C200000B52A20664948812B2088812C20088114
:101C3000002088714FF4A07008804FF4F070488045
:101C4000C8213620FFF7C9FE00BD10B5FFF751FFD0
:101C5000FFF7D8FFF120FFF7B3FE3620FFF7B3FE02
:101C60000420FFF7B0FE0020FFF7ADFE3C20FFF799
:101C7000AAFE0F20FFF7A7FE8F20FFF7A4FEF22099
:101C8000FFF79EFE1820FFF79EFEA320FFF79BFEA6
:101C90001220FFF798FE0220FFF795FEB220FFF713
:101CA00092FE1220FFF78FFEFF20FFF78CFE102020
:101CB000FFF789FE0020FFF786FEF820FFF780FE81
:101CC0002120FFF780FE0420FFF77DFEF920FFF7BB
:101CD00077FE0020FFF777FE0820FFF774FE36201E
:101CE000FFF76EFE0820FFF76EFEB420FFF768FED8
:101CF0000020FFF768FEB620FFF762FE0220FFF724
:101D000062FE2220FFF75FFEC120FFF759FE41204F
:101D1000FFF759FEC520FFF753FE0020FFF753FEE3
:101D20001820FFF750FEE020FFF74AFE0F20FFF7D4
:101D30004AFE1F20FFF747FE1C20FFF744FE0C2041
:101D4000FFF741FE0F20FFF73EFE0820FFF73BFEA6
:101D50004820FFF738FE9820FFF735FE3720FFF7C1
:101D600032FE0A20FFF72FFE1320FFF72CFE04207F
:101D7000FFF729FE1120FFF726FE0D20FFF723FEB7
:101D80000020FFF720FEE120FFF71AFE0F20FFF7EB
:101D90001AFE3220FFF717FE2E20FFF714FE0B204D
:101DA000FFF711FE0D20FFF70EFE0520FFF70BFEDB
:101DB0004720FFF708FE752010E00000FE07006CCA
:101DC0007000002024000020000C014000100140A1
:101DD000001401400018014000200140FFF7F3FD0E
:101DE0003720FFF7F0FD0620FFF7EDFD1020FFF78D
:101DF000EAFD0320FFF7E7FD2420FFF7E4FD2020A4
:101E0000FFF7E1FD0020FFF7DEFD3A20FFF7D8FDE8
:101E10005520FFF7D8FD1120FFF7D2FD3620FFF740
:101E2000CFFDC820FFF7CFFD7820FFF756FC292013
:101E3000FFF7C6FDFFF7F4FE0120034908604FF6E7
:101E4000FF70FFF731FE10BD8081214208B50121EE
:101E5000082001F08BFD4FF44060ADF80000102029
:101E60008DF8030003208DF802006946974801F0C1
:101E7000C1FA4FF44061954801F069FB08BD10B507
:101E80009248001D006820F470409049091D0860C8
:101E90000846006840F44050086001208C49086002
:101EA0008C49C1F8A8010420FFF7F3FB0020884902
:101EB00008600420FFF7EDFB00208649C1F8A80167
:101EC00010BD10B58148001D006820F470407F49A6
:101ED000091D08600846006840F440500860002072
:101EE0007B49091F08607B49C1F8AC010420FFF75A
:101EF000D0FB01207649091F08607649C1F8AC0182
:101F00000420FFF7C6FB10BD10B500246F48001D6C
:101F1000006820F470406D49091D0860084600689B
:101F200040F400400860012069490860FFF7B1FBF8
:101F300001206849C1F8A801FFF7ABFB07E0601C6E
:101F4000C4B2FA2C03DDFFF7BCFF012010BD6048CE
:101F5000803800680028F2D15D49091F086000BF81
:101F6000F4E710B500205A49091F08605748001DC2
:101F7000006820F470405549091D08600846006853
:101F800040F44050086000205249C1F8AC010220E2
:101F9000FFF77FFB01204E49091F08600220FFF771
:101FA00078FB00204B49C1F8A80110BD10B50020F6
:101FB0004749091F08604548001D006820F470402B
:101FC0004249091D08600846006840F44050086016
:101FD00001204049C1F8AC010220FFF75AFB012063
:101FE0003B49091F08600220FFF753FB00203949D5
:101FF000C1F8A80110BD70B504463448001D006842
:1020000020F470403149091D08600846006840F41A
:102010004050086000202E49091F086000251DE07F
:10202000E00918B101202A49086002E0002028498F
:1020300008606006040E0220FFF72BFB01202449F4
:10204000091F08600220FFF724FB00202149C1F886
:10205000A8010220FFF71DFB681CC5B2082DDFDBBD
:1020600070BD70B5054600241848001D006820F4B6
:1020700070401649091D08600846006840F4004099
:102080000860002617E000201149091F086002209F
:10209000FFF7FFFA01200F49C1F8A8016006040EFE
:1020A0000B488038006808B1601CC4B20120FFF7FB
:1020B000F0FA701CC6B2082EE5DB15B9FFF776FF03
:1020C00001E0FFF74EFF204670BD0000000C01400C
:1020D000AC8121420080214210B5FFF7B7FE10BD50
:1020E00070B504460026FFF7CAFE2546E11704EB4B
:1020F00011610912A02202EB4101C8B2FFF77BFF78
:10210000FFF702FFE11704EB11610912A4EB0121B3
:10211000C8B2FFF770FFFFF7F7FEFFF7B0FEA12090
:10212000FFF769FFFFF7F0FE0020FFF79AFF064672
:10213000FFF7C7FE304670BD70B504460E46FFF788
:102140009EFE2546E11704EB11610912A02202EB65
:102150004101C8B2FFF74FFFFFF7D6FEE11704EBCE
:1021600011610912A4EB0121C8B2FFF744FFFFF788
:10217000CBFE3046FFF73FFFFFF7C6FEFFF7A1FE9D
:1021800042F21070FFF785FA70BD2DE9F041054667
:102190000E461746002409E0E20026FA02F2D1B208
:1021A0002A1990B2FFF7C8FF601CC4B2BC42F3DB2F
:1021B000BDE8F0812DE9F04107460C4600260025D8
:1021C00009E036023919491B491E88B2FFF788FF1A
:1021D0000644681CC5B2A542F3DB3046BDE8F08179
:1021E00010B5FF20FFF77CFF0446552C01D10020DD
:1021F00010BD5521FF20FFF79FFFFF20FFF770FF65
:102200000446552C01D10020F2E70120F0E770B51B
:1022100006460C46154608E03046721C96B2FFF79B
:102220005FFF04F8010B681E85B2002DF4D170BD6C
:1022300070B505460C46164606E021782846FFF79D
:102240007BFF681C85B2641C3000A6F101018EB2D0
:10225000F3D170BD002100BF14E000F080021AB17C
:102260000122FE4B1A6002E00022FC4B1A6042067B
:10227000100E0022FA4B1A600122FA4BC3F8842197
:102280004A1CD1B20829E8DB704770B50646002524
:1022900000240020F2490860F349C1F8A401F04984
:1022A000091D08603046FFF7D5FF0620FFF7F1F95A
:1022B0000020EC49C1F884010120FFF7EAF9012070
:1022C000E74908600020E749C1F8840100BF12E037
:1022D0004FF6FF7000EA44040020E1490860012045
:1022E000E049C1F88401DD488438006808B1601C09
:1022F00084B2681CC5B2102DEADB24110120D84934
:10230000091D0860204670BD2DE9FE438046002768
:10231000002406E04046FFF7B8FF2DF81400601CCB
:1023200084B2052CF6DB002416E0601C85B20FE0B9
:102330003DF814003DF81510884207DD3DF81460A3
:102340003DF815002DF814002DF81560681C85B2B5
:10235000052DEDDB601C84B2042CE6DB0027012494
:1023600005E03DF81400384487B2601C84B2042CA8
:10237000F7DB032097FBF0F086B23046BDE8FE8322
:102380002DE9F04104460D46B8480078FFF7BCFF40
:102390000646B7480078FFF7B7FF074626802F802C
:1023A0000120BDE8F0817FB504460D4602A903A8CF
:1023B000FFF7E6FF064616B9002004B070BD694677
:1023C00001A8FFF7DDFF06460EB90020F5E7BDF8CE
:1023D0000400BDF80C10884206DCBDF80C10BDF8F6
:1023E0000400323081420CDBBDF80C00BDF8041053
:1023F000884236DCBDF80410BDF80C003230814252
:102400002FDABDF80000BDF80810884206DCBDF8E0
:102410000810BDF80000323081420CDBBDF8080026
:10242000BDF8001088421CDCBDF80010BDF80800A3
:102430003230814215DABDF80C10BDF8042088183E
:1024400000EBD071C1F34F012180BDF80810BDF839
:102450000020881800EBD071C1F34F0129800120C2
:10246000ABE70020A9E7F8B504460D4616468148BB
:10247000068004F10D018AB2193988B22B4629462B
:10248000FEF74EFC05F10D0083B2193881B22246E9
:102490002046FEF745FC6A1C91B2621C90B2FFF721
:1024A000D1FA6A1C91B2621E90B2FFF7CBFA6A1E93
:1024B00091B2621C90B2FFF7C5FA6A1E91B2621E19
:1024C00090B2FFF7BFFA0020062300906948028807
:1024D00029462046FEF7EDFCF8BD70B504460D46D2
:1024E00016466448068029462046FFF7ABFA611C71
:1024F00088B22946FFF7A6FA681C81B22046FFF78A
:10250000A1FA6A1C91B2621C90B2FFF79BFA70BDEF
:102510002DE9F041044651487C380068002853D129
:1025200024B15549881EFFF73EFF3CE05249881E02
:10253000FFF739FFB8B350491239B1F9200002F062
:1025400093F907464C491239088A02F0A5F98046EA
:10255000494812388169404602F0B2F906463946C8
:1025600002F022F8054602F05FF943491239088269
:10257000B1F9220002F078F907463F491239488A3A
:1025800002F08AF980463C481238C169404602F0A0
:1025900097F90646394602F007F8054602F044F975
:1025A00035491239488234481238007D00F08000E5
:1025B00010BBC0203049123908750846008A88814E
:1025C0000846408AC88117E02B481238007D00F089
:1025D000800040B128481238007D20F08000264954
:1025E0001239087508E00020234912398881C88112
:1025F0004FF6FF70088248821F481238007D00F0B5
:102600008000BDE8F08170B51B49123988691B490B
:1026100002F056F9054602F0EBF804460422214682
:102620002820FFF7B2FD14491239C869134902F096
:1026300047F9054602F0DCF80446042221462C2026
:10264000FFF7A3FD0C481238B0F920100222302009
:10265000FFF79BFD0848123812E00000A4812342D6
:1026600084812142008021420080234254000020C6
:1026700055000020240000203E00002020BCBE4C5D
:10268000B0F9221002223220FFF77FFDFA4890F8BD
:1026900024103420FFF750FD0A2421463520FFF78F
:1026A0004BFD70BD70B53520FFF71AFD04460A2CAE
:1026B00042D104212820FFF77DFD0446204602F088
:1026C000D3F80546ED4901F0D1FFEB4988610421BB
:1026D0002C20FFF76FFD0446204602F0C5F80546A2
:1026E000E64901F0C3FFE449C86102213020FFF749
:1026F00061FD00B2E049088402213220FFF75AFD53
:1027000000B2DD4948843420FFF7EAFCDA4981F859
:102710002400084690F8240030B19020D849087071
:10272000D020D849087005E0D020D5490870902005
:10273000D4490870012070BD0020FCE72DE9F84F56
:1027400004460D4617461E46DDE90CABDDE90A8955
:102750004FF47840CC4908800120CCA31022A0215E
:1027600000902820FEF77CFC0120C9A31022A021A4
:1027700000907820FEF774FC0120C6A31022B4213B
:1027800000902820FEF76CFC0120C3A31022B42186
:1027900000907820FEF764FC0120C0A31022C8211D
:1027A00000902820FEF75CFC0120BDA31022C82168
:1027B00000907820FEF754FC0120BAA31022DC21FF
:1027C00000902820FEF74CFC0120B7A31022DC214A
:1027D00000907820FEF744FC0120B4A31022F021E1
:1027E00000902820FEF73CFC102004232246A02164
:1027F00000904020FEF77AFC102004232A46A021F6
:1028000000909020FEF772FC102004233A46B42179
:1028100000904020FEF76AFC102004233246B421C9
:1028200000909020FEF762FC102004234246C8214D
:1028300000904020FEF75AFC102004234A46C8218D
:1028400000909020FEF752FC102004235246DC2119
:1028500000904020FEF74AFC102004235A46DC2159
:1028600000909020FEF742FC1020009091480188D3
:10287000032360200E9AFEF739FCBDE8F88F00B5FF
:1028800095B0002010900A9010901F207E4908807B
:102890004FF6FF7088490880FFF706F94FF478403B
:1028A000794908804FF6FF70FFF7FEF8002076495F
:1028B0000880012081A31022282100900A20FEF721
:1028C000CFFB012085A31022382100900A20FEF7BB
:1028D000C7FB01208AA31022482100900A20FEF79E
:1028E000BFFB01208EA31022582100900A20FEF782
:1028F000B7FB4FF4784214210846FFF7B4FD0020DF
:102900005D490875886154E25B4840680990012080
:10291000099988475848007D00F0C00040287AD1C6
:1029200000200A905448007D20F04000524908756C
:102930000846018A11AA109822F820104E48418AB0
:10294000109802EB800041801098401CC0B210909B
:102950001098012806D0022815D0032829D0042871
:1029600010D141E04FF6FF7214210846FFF77BFDBE
:1029700050480088143880B24FF4784214210990EE
:10298000FFF771FDC8E34B480088143880B24FF65A
:10299000FF7214210990FFF766FD464840881438FD
:1029A00080B24FF47842014609901420FFF75BFD96
:1029B000B2E340484088143880B24FF6FF720146B7
:1029C00009901420FFF74FFD3A484088143880B230
:1029D000099038480088143880B24FF47842089043
:1029E0000999FFF740FD97E3BDF84400BDF8481092
:1029F000401A0990002801DB099801E0099840423B
:102A00000D90BDF8461011A8C088081A099000283A
:102A100002DB099802E080E3099840420C900D988F
:102A200040430D900C9840430C90DDE90C10084495
:102A3000059001F0CEFBCDE9060101F06AFBCDE97E
:102A4000080101F099FB80B20F90BDF84C00BDF871
:102A50005010401A0990002801DB099801E00998FC
:102A600040420D9011A84189C089081A0990002898
:102A700064DB099864E061E02C00002020BCBE4CBF
:102A800054000020550000202400002078313A0036
:102A900079313A0078323A0079323A0078333A00A4
:102AA00079333A0078343A0079343A006661632029
:102AB00069733A007000002026000020506C6561A8
:102AC00073652075736520746865207374796C75FF
:102AD0007320636C69636B207468650063726F7345
:102AE00073206F6E207468652073637265656E2E47
:102AF0005468652063726F73732077696C6C000093
:102B0000616C77617973206D6F766520756E74697D
:102B10006C207468652073637265656E2000000028
:102B200061646A7573746D656E7420697320636F78
:102B30006D706C657465642E000000000998404259
:102B40000C900D9840430D900C9840430C90DDE99B
:102B50000C100844059001F03CFBCDE9060101F0A2
:102B6000D8FACDE9080101F007FB80B20E900E986B
:102B700001F092FE09900F9801F08EFE08900999DD
:102B800001F074FD0B900B9801F0E2FC4FF06632FF
:102B9000FE4BCDE9080101F02FFB0DD30B9801F09E
:102BA000D7FCFB4AFB4BCDE9080101F0B5FB03D391
:102BB0000F9808B10E98E8BB00201090F6484088A6
:102BC000143880B20990F4480088143880B24FF667
:102BD000FF7208900999FFF746FC4FF478421421E0
:102BE0000846FFF740FCED490B9801F069FE08909C
:102BF00001F01AFE80B211A90990C989BDF85020D0
:102C000011AB5B89CDE90132CDE90310BDF84C0071
:102C1000009011A8C0880890BDF848000790BDF842
:102C200046000690BDF84400059006A90EC9FFF7BE
:102C300085FD81E2FFE7BDF84400BDF84C10401A65
:102C40000990002801DB099801E0099840420D90A5
:102C5000BDF8461011A84089081A0990002801DB28
:102C6000099801E0099840420C900D9840430D905E
:102C70000C9840430C90DDE90C100844059001F0DD
:102C8000A8FACDE9060101F044FACDE9080101F006
:102C900073FA80B20F90BDF84800BDF85010401A8A
:102CA0000990002801DB099801E0099840420D9045
:102CB00011A8C188C089081A0990002801DB099869
:102CC00001E0099840420C900D9840430D900C98FB
:102CD00040430C90DDE90C100844059001F079FAAE
:102CE000CDE9060101F015FACDE9080101F044FA39
:102CF00080B20E900E9801F0CFFD09900F9801F070
:102D0000CBFD0890099901F0B1FC0B900B9801F0F4
:102D10001FFC4FF066329D4BCDE9080101F06CFAC3
:102D200009D30B9801F014FC994A9A4BCDE908019C
:102D300001F0F2FA3ED200201090974840881438F3
:102D400080B2099094480088143880B24FF6FF7220
:102D500008900999FFF787FB4FF478421421084641
:102D6000FFF781FB8D490B9801F0AAFD089001F057
:102D70005BFD80B20146099011A8C289BDF85000E0
:102D800011AB5B89CDE90130CDE90321BDF84C00E1
:102D9000009011A8C0880890BDF848000790BDF8C1
:102DA00046000690BDF84400059006A90EC9FFF73D
:102DB000C5FCC1E1BDF84800BDF84C10401A0990AF
:102DC000002801DB099801E0099840420D9011A804
:102DD000C1884089081A0990002801DB099801E0A0
:102DE000099840420C900D9840430D900C98404338
:102DF0000C90DDE90C100844059001F0EAF9CDE9EA
:102E0000060101F086F9CDE9080101F0B5F980B2BB
:102E10000F90BDF84400BDF85010401A09900028EA
:102E200001DB099801E0099840420D90BDF8461079
:102E300011A8C089081A0990002801DB099801E04F
:102E4000099840420C900D9840430D900C984043D7
:102E50000C90DDE90C100844059001F0BAF9CDE9B9
:102E6000060101F056F9CDE9080101F085F980B2BB
:102E70000E900E9801F010FD09900F9801F00CFDD6
:102E80000890099901F0F2FB0B900B9801F060FBA0
:102E90004FF066323D4BCDE9080101F0ADF909D3A1
:102EA0000B9801F055FB3A4A3A4BCDE9080101F085
:102EB00033FA3ED20020109037484088143880B250
:102EC000099035480088143880B24FF6FF72089098
:102ED0000999FFF7C8FA4FF4784214210846FFF722
:102EE000C2FA2E490B9801F0EBFC089001F09CFC13
:102EF00080B20246099011A8C089BDF8501011ABEC
:102F00005B89CDE90131CDE90302BDF84C000090A9
:102F100011A8C0880890BDF848000790BDF8460089
:102F20000690BDF84400059006A90EC9FFF706FCFF
:102F300002E1BDF84800BDF84410401A079001F0C6
:102F400093FC0990144800882838079001F08CFC05
:102F50000890099901F08AFB11498861BDF8480081
:102F6000BDF844100844049001F07EFC05900C4824
:102F7000806901460490059801F0A2FC079006487C
:102F80000088059001F088FC06900BE06666EE3F35
:102F9000CDCCCCCCCCCCF03F700000200000C8429F
:102FA0002C000020079901F057FD4FF08041089058
:102FB00001F05CFB099001F01BFC00B2844908841D
:102FC00011A84089BDF84610401A079001F04CFC4A
:102FD0000990804840882838079001F045FC089007
:102FE000099901F043FB7A49C86111A84089BDF8ED
:102FF00046100844049001F037FC05907448C069FD
:1030000001460490059801F05BFC079071484088E8
:10301000059001F041FC0690079901F01DFD4FF06D
:103020008041089001F022FB099001F0E1FB00B221
:103030006749488408468069079001F0D9FB0890E9
:10304000002801DB089801E00898404202280DDCC6
:103050005F48C069079001F0CBFB0990002801DBB5
:10306000099801E00998404202283ADD00201090BA
:1030700058484088143880B209905648008814385F
:1030800080B24FF6FF7208900999FFF7ECF94FF400
:10309000784214210846FFF7E6F901204EA31022DA
:1030A0001A2100902820FDF7DBFF494890F8240002
:1030B00008B9012000E00020454981F824000846B5
:1030C00090F8240030B1902048490870D020484939
:1030D000087005E0D02045490870902044490870E8
:1030E0002AE01F20434908804FF6FF70FEF7DCFC02
:1030F000012041A310226E2100902320FDF7B0FF94
:103100004FF47A70FEF7E9FAFFF77DFA4FF6FF7099
:10311000FEF7CAFC15B000BD00BF0A20FEF7DDFABD
:103120000A98401C80B20A900A98B0F57A7F02DDB6
:10313000FFF7B8FA02E000BFFFF7E6BB00BF00BF31
:10314000E8E708B50121882000F010FC0620ADF862
:10315000000010208DF8030003208DF8020069465E
:103160002B4800F047F90621294800F0F0F94FF408
:103170000070ADF800006946264800F03BF94FF4B6
:103180000071244800F0E3F94FF4A060ADF80000AE
:1031900048208DF8030069461E4800F02BF90C49C1
:1031A0001231881EFFF7ECF8FEF796FFFFF77AFA68
:1031B00008B1002008BD4FF6FF70FEF775FCFFF761
:1031C0005EFBFFF720FAFFF76DFA0120F2E700003F
:1031D0002C000020700000205450204E65656420B3
:1031E000726561646A7573742100000054000020E8
:1031F0005500002024000020546F7563682053633D
:103200007265656E2041646A757374204F4B2100AE
:10321000000C0140001C0140094880470948004754
:10322000FEE7FEE7FEE7FEE7FEE7FEE7FEE7FEE776
:10323000FEE7FEE704480549054A064B70470000D3
:103240001318000831010008E0000020E00600200B
:10325000E0020020E002002031490143314A1160C0
:10326000704770B5002100230F22C47804B32D4CA1
:10327000246804F4E064C4F5E064210AC1F10403A5
:10328000CA40447804FA03F18478144021430901C8
:10329000254C0678A155047804F01F050124AC40A4
:1032A00005786D11AD0005F1E025C5F8004109E094
:1032B000047804F01F050124AC401C4D06787611FB
:1032C00045F8264070BD1A4A0A400243154B1B1FA1
:1032D0001A60704739B1134A121D12680243114B2C
:1032E0001B1D1A6006E00F4A121D126882430D4B27
:1032F0001B1D1A607047042808D14FF0E0210969AE
:1033000041F004014FF0E022116107E04FF0E021AD
:10331000096921F004014FF0E022116170470000BB
:103320000000FA050CED00E000E400E080E100E0C0
:1033300080FFFF1F10B50446CC48844208D101210C
:10334000042000F02DFB0021042000F029FB46E0C2
:10335000C748844208D10121082000F021FB002148
:10336000082000F01DFB3AE0C248844208D1012148
:10337000102000F015FB0021102000F011FB2EE0C2
:10338000BD48844208D10121202000F009FB002122
:10339000202000F005FB22E0B848844208D101213A
:1033A000402000F0FDFA0021402000F0F9FA16E07C
:1033B000B348844208D10121802000F0F1FA0021B5
:1033C000802000F0EDFA0AE0AE48844207D10121E6
:1033D000801500F0E5FA0021A01500F0E1FA10BD1B
:1033E00010B50121084600F0DBFA0021012000F0B1
:1033F000D7FA10BD2DE9F041024600250026002035
:1034000000230024002791F803C00CF00F0591F869
:1034100003C00CF0100CBCF1000F03D091F802C0F7
:103420004CEA050591F800C0BCF1000F31D01468DA
:1034300000202BE04FF0010C0CFA00F3B1F800C0B3
:103440000CEA03069E4220D183004FF00F0C0CFAC9
:1034500003F7BC4305FA03FC4CEA040491F803C0EB
:10346000BCF1280F06D14FF0010C0CFA00FCC2F899
:1034700014C00AE091F803C0BCF1480F05D14FF029
:10348000010C0CFA00FCC2F810C0401C0828D1D373
:103490001460B1F800C0BCF1FF0F34DD54680020A7
:1034A0002EE000F1080C4FF0010808FA0CF3B1F817
:1034B00000C00CEA03069E4221D183004FF00F0C9E
:1034C0000CFA03F7BC4305FA03FC4CEA040491F838
:1034D00003C0BCF1280F05D100F1080C08FA0CF864
:1034E000C2F8148091F803C0BCF1480F07D100F175
:1034F000080C4FF0010808FA0CF8C2F81080401CC4
:103500000828CED35460BDE8F0814FF6FF710180EA
:10351000022181700421C170704702460020936827
:103520000B400BB1012000E0002070470146886885
:1035300080B2704702460020D3680B400BB10120D7
:1035400000E0002070470146C86880B27047016102
:103550007047416170470AB1016100E04161704705
:10356000C16070474FF480320A4382618161826199
:1035700082698269704702460020434B18684FF603
:103580008073184040EA021008433F4B18607047B0
:103590003E49C8617047F0B50A4600230024002167
:1035A000002500F00046B6F1004F02D1364EF16919
:1035B00001E0354E7168C0F3034583B200F4401654
:1035C000B6F5401F08D121F070612F4E766826F0C5
:1035D00070662D4F7E6012E000F48016B6F5801FF5
:1035E00006D1032606FA05F4A14341F0706106E016
:1035F000460D360103FA06F6B14341F0706122B17F
:10360000460D360103FA06F6314300F00046B6F1E6
:10361000004F02D11C4EF16101E01B4E7160F0BD04
:1036200030B500228B071C0F0F2303FA04F2164B50
:1036300008338C1053F824309343134C08348D1006
:1036400044F8253023468C1053F824308C07240F7F
:1036500000FA04F423430C4C08348D1044F8253050
:1036600030BD0A49DC3108607047000000080140A5
:10367000000C0140001001400014014000180140FE
:10368000001C0140002001400000014000002042D9
:10369000DF48006840F00100DD49086008464068E6
:1036A000DC490840DA49486008460068DA490840C1
:1036B000D74908600846006820F480200860084662
:1036C000406820F4FE0048604FF41F008860704797
:1036D000CF49096821F48031CD4A1160114609684B
:1036E00021F480211160B0F5803F03D0B0F5802F28
:1036F0000ED106E0C649096841F48031C44A116020
:1037000007E0C349096841F4A021C14A116000E003
:1037100000BF00BF704710B5014600220023002003
:103720004A11012A02D1BA4C236806E0022A02D1CA
:10373000B74C236A01E0B64C636A01F01F02012412
:1037400094401C400CB1012000E0002010BD38B5B1
:10375000002000900024002500BF3120FFF7DBFF90
:1037600005460098401C00900098B0F5A06F01D06D
:10377000002DF2D03120FFF7CEFF08B1012400E088
:103780000024204638BD01460020A14A106820F0E0
:10379000F80040EAC10010607047A0490860704717
:1037A000024600209A4B586820F47C1042EA01033C
:1037B0001843974B58607047984908667047014610
:1037C0000020934A506820F003000843506070477F
:1037D0008F48406800F00C007047014600208C4A7A
:1037E000506820F0F0000843506070470146002008
:1037F000874A506820F4E0600843506070470146F3
:103800000020834A506820F4605040EAC1005060B4
:10381000704729B17E4A527A02437D4B5A7204E0C6
:103820007B4A527A82437A4B5A7270477B49D8312D
:103830000860704701460020754A506820F44040F7
:103840000843506070470021714A20321170704A5D
:1038500082F82010012802D004280AD104E00121B6
:103860006B4A2032117005E00521694A203211703F
:1038700000E000BF00BF70476949086070476449B5
:10388000096A0143624A1162704765494439086018
:10389000704730B500210022002400235C4D6D6884
:1038A00005F00C0121B1042905D0082923D105E038
:1038B0005C4D056022E05B4D05601FE0544D6D6876
:1038C00005F47012524D6D6805F48034022505EB45
:1038D00092421CB9544D554305600BE04C4D6D6848
:1038E00005F400351DB1504D5543056002E04D4DC6
:1038F0005543056002E04B4D056000BF00BF444DDD
:103900006D6805F0F0010909484D6B5C0568DD4004
:1039100045603F4D6D6805F4E061090A434D6B5CFD
:103920004568DD4085603A4D6D6805F46051C90A0F
:103930003E4D6B5C4568DD40C560354D6D6805F4F6
:103940004041890B3A4D6B5CC568B5FBF3F50561E9
:1039500030BD29B12E4A526902432D4B5A6104E011
:103960002B4A526982432A4B5A61704729B1284A2F
:1039700092690243264B9A6104E0254A9269824388
:10398000234B9A61704729B1214AD2690243204BE7
:10399000DA6104E01E4AD26982431D4BDA61704746
:1039A00029B11B4AD2680243194BDA6004E0184A75
:1039B000D2688243164BDA60704729B1144A126903
:1039C0000243134B1A6104E0114A12698243104BFF
:1039D0001A61704712494039086070470F49C8643E
:1039E00070470B49C87170470948406A40F08070C1
:1039F00007494862704701460020054A92680A401C
:103A00000AB1012000E00020704701498872704728
:103A1000001002400000FFF8FFFFF6FE00004242E7
:103A20008004424200127A0000093D005C00002040
:103A30006C00002030B943F2DB028100A1F1C041EB
:103A40000A6005E043F2D2028100A1F1C0410A60A0
:103A50006FF07042411C8900A1F1C0410A608100F1
:103A6000A1F1C041C1F80421704710280AD11821E2
:103A70004FF020421166402151664FF0FC319166B3
:103A8000D16610E01821F74A116040214FF0204222
:103A9000C2F884104FF0FC31F24A083211604FF046
:103AA0002042C2F88C1070471820EE49203108607F
:103AB00000200906C1F8A4004FF0FC30E949283184
:103AC0000860091D0860091D08607047D0E90112EF
:103AD0001143C2681143026911434269114382696B
:103AE0001143C2691143026A1143426A1143826A57
:103AF0001143C26A1143026B114302689200A2F1A2
:103B0000C0421160816808290BD101688900A1F1C8
:103B1000C041096841F0400201688900A1F1C0413B
:103B20000A60416B0968426B526841EA0211426BBC
:103B3000926841EA0221426B928941EA0241426B5A
:103B4000128A41EA0251426B127D41EA0261426BE4
:103B5000926911430268521C9200A2F1C0421160A6
:103B6000C16AB1F5804F1BD1816B0968826B5268C5
:103B700041EA0211826B926841EA0221826B128A49
:103B800041EA0251826B127D41EA0261826B9269C5
:103B9000114302689200A2F1C042C2F8041107E08A
:103BA0006FF0704201688900A1F1C041C1F80421A1
:103BB000704730B5002100220023446844F0080417
:103BC00085682C43C5682C4305692C43456944EA44
:103BD0004524856944EA4531C4692468C5696D682E
:103BE00044EA0524C5692D8944EA0544C5692D7B4D
:103BF00044EA0562046A2468056A6D6844EA05249B
:103C0000056A2D8944EA0544056A2D7B44EA05636B
:103C10000468102C05D14FF020442166A266E366AB
:103C200008E0904C21604FF02044C4F888208D4C6F
:103C30000C34236030BD016841F01001426841EA54
:103C40004221826841EA4231864A20321160C168CD
:103C50000968C268526841EA0221C268128941EAD1
:103C60000241C268127B41EA02617E4A2832116039
:103C7000016909680269526841EA022102691289F0
:103C800041EA02410269127B41EA0261754A2C3223
:103C90001160416909684269526841EA022142693A
:103CA000128941EA02414269127B41EA02614FF006
:103CB0002042C2F8B010704700210160022141602B
:103CC00000218160C160016141618161C161016266
:103CD0004FF480514162490081620021C162016359
:103CE0000F21426B1160426B5160FF21426B91606A
:103CF0000F21426BD160426B1161426B5161002117
:103D0000426B91610F21826B1160826B5160FF21C8
:103D1000826B91600F21826BD160826B1161826B2B
:103D200051610021826B9161704710210160002177
:103D300041608160C160016141618161FC21C269B2
:103D40001160C2695160C2699160C269D160026A42
:103D50001160026A5160026A9160026AD160704724
:103D60000021016041608160FC21C2681160C2686D
:103D70005160C2689160C268D160026911600269D5
:103D80005160026991600269D160426911604269C3
:103D90005160426991604269D160704751B18200BF
:103DA000A2F1C042126842F001038200A2F1C042B7
:103DB000136009E08200A2F1C04212682A4B1A4047
:103DC0008300A3F1C0431A60704799B1102808D14D
:103DD0004FF02042126E42F004024FF020431A6668
:103DE0001DE0204A126842F004024FF02043C3F85D
:103DF000802014E0102809D14FF02042126E1A4B97
:103E0000DB1E1A404FF020431A6608E0154A12687C
:103E1000154BDB1E1A404FF02043C3F8802070473B
:103E200048B110492031096841F004014FF02042A7
:103E3000C2F8A01009E00B49203109680A4AD21ED5
:103E400011404FF02042C2F8A0107047B9B11028BD
:103E50000CD14FF02042126E42F040024FF020434E
:103E60001A661FE0800000A0FEFF0F00724A126871
:103E700042F040024FF02043C3F8802012E01028A7
:103E800008D14FF02042126E6C4B1A404FF0204385
:103E90001A6607E0684A1268684B1A404FF02043E0
:103EA000C3F88020704701460020102903D14FF04D
:103EB0002042506F02E0604A14321068704710B51B
:103EC000F2B1102807D14FF020435B6E0B434FF047
:103ED0002044636632E0B0F5807F08D1564B1B1D4D
:103EE0001B680B434FF02044C4F8843026E0524B4B
:103EF00024331B680B434FF02044C4F8A4301DE06A
:103F0000102807D14FF020435B6E8B434FF02044C5
:103F1000636613E0B0F5807F08D1474B1B1D1B681B
:103F20008B434FF02044C4F8843007E0424B2433E5
:103F30001B688B434FF02044C4F8A43010BD10B56B
:103F4000024600200023102A03D14FF02044636E64
:103F500009E0B2F5807F03D1374C241D236802E0CD
:103F6000354C2434236803EA01040CB1012000E03D
:103F7000002010BD102807D14FF02042526E8A4316
:103F80004FF020435A6613E0B0F5807F08D12A4AEB
:103F9000121D12688A434FF02043C3F8842007E0C3
:103FA000254A243212688A434FF02043C3F8A420E4
:103FB000704770B502460020002300240025102A17
:103FC00003D14FF02046736E09E0B2F5807F03D134
:103FD000194E361D336802E0174E2436336803EA63
:103FE000010403EAD10514B10DB1012000E0002065
:103FF00070BD102808D14FF02042526E22EAD10243
:104000004FF020435A6615E0B0F5807F09D10A4A87
:10401000121D126822EAD1024FF02043C3F8842017
:1040200008E0054A2432126822EAD1024FF0204308
:10403000C3F8A42070470000800000A0BFFF0F005D
:1040400010B5431C02E010F8011B71B18107FAD1D1
:104050004FF0013202C88C1A8C4314EAC211F9D015
:10406000C01A0A0603D0C01E10BDC01A10BD0A0433
:1040700001D0801E10BD0902FCD0401E10BD70474B
:104080007047704710B500F009F8006810BD10B512
:10409000044600F003F8046010BD000000487047BB
:1040A0008000002000487047800000207546FFF720
:1040B000F9FFAE4605006946534620F007008546E5
:1040C00018B020B5FFF7B6F8BDE820404FF0000665
:1040D0004FF000074FF000084FF0000B21F00701F0
:1040E000AC46ACE8C009ACE8C009ACE8C009ACE833
:1040F000C0098D4670470446AFF300802046FCF7A8
:104100005EF8000001491820ABBEFEE72600020061
:1041100070472DE9F04106460F4600F033F90400E0
:104120000D4618BF0120284320F00040C0F17F60F9
:1041300000F1E040C00F0ED0301C18BF0120384302
:1041400020F00040C0F17F6000F1E040C00F04BFEC
:104150000120FFF79CFF20462946BDE8F081491069
:1041600058BFC1F140415B1058BFC3F140438B427F
:10417000EFF30080704700004FEA1153A3F580630E
:10418000D3F11E03A8BFD3F1200C08DB4FF000428F
:1041900042EAC12252EA505232FA03F07047094211
:1041A0000BD4102BC4BF0020704703F5787CBCF102
:1041B000FF3F05D04FF0FF3070474FF000007047D1
:1041C00070B500F055F800BF499224800020704778
:1041D000F0E7B0FA80F310FA03F10AD0C3F11D033F
:1041E00003F580634FEA41504FEA035202EBD121BD
:1041F00070474FF00000704751EA030C17D41CF5CC
:10420000801F58BFBCF5801F00F10680994218BF7F
:10421000704708BF9042704707D711F5801F58BFFD
:1042200013F5801F19D499427047894270471CF5D5
:10423000801F08D5BCF5801FF7D58B4218BF70478B
:1042400008BF824270474FF4001C1CEB410F38BF7F
:104250001CEB430F01D28B42704770B500F008F899
:10426000922449004FF000514FF08053FFF777BF81
:104270000EF1020E2EF0030E5EF8046B364205D4EA
:10428000012A43EB030515F5001F12D8012841EB65
:10429000010C1CF5001F0CD80ED14FEAD17C15F58E
:1042A000001F0CEB4C0C0CF1020C08BF4CEBD37C48
:1042B00004E04FF0080C01E04FEAD37C0CEB4C0516
:1042C00026FA05F606F00706B6F1040C06D20EEB48
:1042D000860CBDE870404CF0010C6047DFE80CF044
:1042E000090B02024FF000414FF00000A1F5002140
:1042F00070BD19461046012851EB010418BFD4F5D2
:10430000001484BF002001F0004170BD0808A0F532
:1043100000114FEA3101704753EA010C17D41CF524
:10432000801F58BFBCF5801F00F106808B4218BF6C
:10433000704708BF8242704707D713F5801F58BFE8
:1043400011F5801F19D48B4270479B4270471CF5B2
:10435000801F08D5BCF5801FF7D5994218BF70475C
:1043600008BF904270474FF4001C1CEB430F38BF4E
:104370001CEB410F01D2994270470FB40CBC03BC37
:10438000FFF76BBF2DE9F04101F5801CBCF5001F64
:10439000C0F2C3804FEA115C21EA0C510CF1FD0C14
:1043A00041F480115FEA5C0C0CF5C07C01D3400045
:1043B00049413DA4890241EA905187028E0E0A0CC0
:1043C000A45D04FB04F602FB06F6C6F14046A4FB1E
:1043D0000662F60D46EA422606FB06F4A4FB01231C
:1043E0005242C3F1404338BF5B1EA6FB0242002489
:1043F000E6FB0324D20B42EA4446A6FB0623A1FBBC
:1044000002E2A3FB07E4A4184FF0000252F10002FD
:10441000E3FB01426442C2F1404E38BFAEF1010EEF
:10442000A6FB04234FF00002E6FB0E32A2FB03467C
:104430004FF00004B61954F10004E2FB0264A1FB42
:1044400006E6A4FB07E816EB08064FF0000858F153
:104450000008E4FB01687642C8F1405838BFA8F173
:104460000108A2FB06E4A3FB08E52D194FF00004A8
:1044700054F10004E2FB0854A1FB05E6A7FB04E8A5
:1044800018EB06084FF0000656F10006E1FB048623
:1044900018F1200556F10006A809A8F11B08B1097A
:1044A00008F03F08B8F10A0F40EA86601CD901EB1A
:1044B0000C51BDE8F08100BFFCF5EEE8E2DDD8D399
:1044C000CFCBC7C3C0BDB9B6B4B1AEACA9A7A5A385
:1044D000A19F9D9B9A9896959392908F8D8C8B8996
:1044E0008887868584838281A0FB006800FB01F2B7
:1044F00008EB4208B8EB872807D5341858EB0104BD
:10450000D5D5401C51F10001D1E7341A78EB0104F4
:10451000CDD4401E71F10001C9E75FEA4C0C5FEA9F
:104520009C5C0DD105D34FF0000001F00041BDE8C7
:10453000F081BDE8F04170B5FFF79AFE6DDBFFBE7C
:10454000BDE8F0414FF00000004970470000F87FDF
:1045500043004FEAD30C4FEA3C0C43401FBF4007D7
:104560000CF1605113F0FE4F70471CF0006F03D147
:1045700000200CF0004170470CF0004343EA5070FB
:1045800010B540EACC0000F01CFA00BF0000009219
:104590004FEA0001FFF7BABE4FF000414FF00000B4
:1045A000A1F500217047000090EA010F48BF81F09B
:1045B000004100F15882421A3CBF801A89184FEA24
:1045C000D0524FF07F4C1CEA410FA2EBD15318BFE1
:1045D0009CEA026F00F03B804FF0004C4CEA002058
:1045E0004CEA012121FA03FC10EB0C0C1ED202F163
:1045F000FF325FEA1C2040EBC25038BF70471CF00E
:104600007F0F4FEA400C18BFBCF17F4F38BF704797
:10461000C3F12003994008BF20F00100BCF17F4F97
:1046200038BF7047A0F1C04000F011BA4FEA3C001B
:10463000000A40EBC25028BF1CF0FF0F4FEA400CAD
:10464000E6D018BFBCF17F4F38BF7047EAE79CEA5D
:10465000026F05D010EA5C0F08BF00F00040704701
:1046600010B500F0AEF900BF64FBBE3E4FF47F0C06
:104670001CEAD0121EBF1CEAD11392EA0C0F93EA77
:104680000C0F00F0858090EA010F48BF42F4807261
:1046900040F4000C41F400002CF07F4120F07F40FA
:1046A00000B58142A2EB03020FF2081CACEB504EA6
:1046B000C0F100009EF800E04FEA4E0E00FB0EFC39
:1046C00038BF49004FEA2C1C02F5FA020CFB0EF32E
:1046D0004FEACE1E4FEA112C4FEAC1210EEB635E6A
:1046E00042EB22420EFB0CFC4FEA1C5300FB031171
:1046F0004FEA112C4FEA01310EFB0CFC4FEADC4C67
:1047000000FB0C11C14228BF09184CEB03335DF8C4
:1047100004EB10EB410143EBC250B2F57C0F38BF04
:10472000704729D512F0F00F1CBF00F1C04000F017
:1047300000407047008182838485868788898B8CBE
:104740008D8E8F919293959697999A9C9D9FA0A2FA
:10475000A3A5A7A8AAACAEB0B2B3B5B7B9BCBEC04A
:10476000C2C5C7C9CCCED1D4D7D9DCDFE2E6E9ECEB
:10477000F0F3F7FAFE0000004FEA400C0CF1807CE9
:10478000BCF17E4F28BF7047B0F1C04000F05FB968
:1047900090EA010F0CEAD11348BF42F480726245DF
:1047A00038BF634507D213F47F0F16D080EA0100AB
:1047B00000F00040704710B500F003F9097EFC3EA0
:1047C00000F005B880EA010000F00040704780EA80
:1047D000010000F0004000F03AB912F47F0F04BF6E
:1047E0000248704780EA010000F031B90000C07F44
:1047F00041000B0ED3F19E0208D950F400034FEA9A
:10480000032323FA02F048BF4042704710B500F07E
:10481000D8F800BF49922480002070476FF0004212
:1048200082EA200070470000C10DD1F19E0206DB34
:104830004FEA002343F0004323FA02F0704700429E
:1048400007D54FEA4001B1F1FE4F02D24FF0000010
:10485000704710B500F0B5F84992248000207047E9
:104860006FEA20007047000010F0004148BF40424E
:10487000B0FA80F310FA03F2C3F19D030BD051EAB2
:10488000C35101EB1220530638BF704700F10100FD
:1048900008BF20F001007047B0FA80F310FA03F26D
:1048A000C3F19D030AD0D90501EB1220530638BF8E
:1048B000704700F1010008BF20F0010070470000C0
:1048C0004FF47F0C1CEAD0121EBF1CEAD11392EAEF
:1048D0000C0F93EA0C0F00F0478090EA010F48BFDD
:1048E00042F480724FF0004C4CEA00204CEA012167
:1048F00002EB0302A0FB0113A2F50002002918BF7E
:1049000043F001035B0028BF4FEA330342EB22422E
:104910005FEA132C4CEBC2502EBFBCEB436FB2F5D9
:104920007C0F70474FEA036CBCF1004F08BF20F0CA
:104930000100B2F57C0F38BF70470BD582F0FF0243
:1049400012F5803FC8BF704700F1C040D8BF00F0EB
:104950000040704700F5000C5FEA4C0C48BF704700
:10496000B0F1C04000F073B890EA010F0CEAD11327
:1049700048BF42F48072624538BF634504D280EA82
:10498000010000F00040704710B500F01AF800BFB9
:104990008900013E00F007B800F009B85FEA410C59
:1049A0005FEA1C6C08D080EA010000F050B85FEAB2
:1049B000400C5FEA1C6CF6D14FF00040A0F580007F
:1049C00070470EF1020E2EF0030E5EF8044B2442E7
:1049D00004D44FEA4102B2F17F4F11D84FEA4003AD
:1049E000B3F17F4F0CD80ED14FEAD07CB2F17F4F9C
:1049F0000CEB4C0C0CF1020C08BF4CEBD17C04E02E
:104A00004FF0080C01E04FEAD17C0CEB4C0324FA88
:104A100003F404F00704B4F1040C06D20EEB840C8A
:104A2000BDE810404CF0010C6047DFE80CF00708CF
:104A300002024FF00040A0F5800010BD0846420081
:104A400018BFD2F1807288BF00F0004010BDFF2176
:104A500041EAD050C005704790EA010F48BF81F08D
:104A600000413FF5A8AD421A04D882F00042A0EB05
:104A7000020011444FEAD0524FF07F4C1CEA410F24
:104A8000A2EBD15318BF9CEA026F4AD04FF0004C02
:104A90004CEA00204CEA012121FA03FCB0EB0C0C9B
:104AA0000FD412F0FE0F36D05FEA4C001DD5001275
:104AB00040EBC25038BF70471CF03F0F18BF704723
:104AC0000BE0A2F101025FEA1C2040EBC25038BFAC
:104AD00070471CF07F0F18BF7047C3F12003994047
:104AE00014BF401E20F00100704780084FEA1223D7
:104AF00008BF7047B0FA80FCA2EB0C02CCF1280C86
:104B000060FA0CF093EA122F04BF00EBC25070471A
:104B10004FEAC3707047130A5FEADC1008BF7047A2
:104B2000F6E79CEA026F04D010EA5C0F08BF002091
:104B3000704710B5FFF745FF40DFF63E81F00040BB
:104B40007047FFFFFFFFFFFFFFFFFFFFFFFFFFFFBC
:104B5000FFFFFFFFFFFFFFFFFFFFFFFFFFFFFFFF65
:104B6000BEF7FFFFDEFF38C6928C8E6B6E6B107C3B
:104B700096AD3CE7FFFFFFFFFFFFFFFFFFFFFFFFDB
:104B8000FFFFFFFFFFFFFFFFFFFFFFFFFFFFFFFF35
:104B9000FFFFFFFFFFFFFFFFFFFFFFFFFFFFFFFF25
:104BA000FFFFFFFFFFFFFFFFFFFFFFFFFFFFFFFF15
:104BB0005DEF159D4F636C420A328829461925190D
:104BC0004521E8318E6B38C6FFFFFFFFFFFFFFFF77
:104BD000FFFFFFFFFFFFFFFFFFFFFFFFFFFFFFFFE5
:104BE000FFFFFFFFFFFFFFFFFFFFFFFFFFFFFFFFD5
:104BF000FFFFFFFFFFFFFFFFFFFFFFFFFFFF36A5E8
:104C00001053104B51530F4B6C3AE9316721251962
:104C1000E410A30862008308CB529AD6FFFFFFFF7F
:104C2000FFFFFFFFFFFFFFFFFFFFFFFFFFFFFFFF94
:104C3000FFFFFFFFFFFFFFFFFFFFFFFFFFFFFFFF84
:104C4000FFFFFFFFFFFFFFFFFFFF3CE77063B36362
:104C5000B87CF56311434D32EA29882126190519DC
:104C6000051904110411E4108300A308728CFFFFDE
:104C7000FFFFFFFFFFFFFFFFFFFFFFFFFFFFFFFF44
:104C8000FFFFFFFFFFFFFFFFFFFFFFFFFFFFFFFF34
:104C9000FFFFFFFFFFFFFFFFDBDE4B3AF042356C0B
:104CA000544BB1322E2AEB21A921671905190411A1
:104CB00004110411041104110519E4104200AF732A
:104CC000FFFFFFFFFFFFFFFFFFFFFFFFFFFFFFFFF4
:104CD000FFFFFFFFFFFFFFFFFFFFFFFFFFFFFFFFE4
:104CE000FFFFFFFFFFFF5DEF09324C32104B8F32A9
:104CF0004F2A2E2ACC19891989214719051904111F
:104D00000411C410C410041104110411E410420071
:104D10003184FFFFFFFFFFFFFFFFFFFFFFFFFFFFEC
:104D2000FFFFFFFFFFFFFFFFFFFFFFFFFFFFFFFF93
:104D3000FFFFFFFFFFFFEC5247194C320B2AEC211B
:104D4000EC210C22915BEE4A061126190419E4109D
:104D5000E410A7296621A308051904110411E41021
:104D60008200F7BDFFFFFFFFFFFFFFFFFFFFFFFF19
:104D7000FFFFFFFFFFFFFFFFFFFFFFFFFFFFFFFF43
:104D8000FFFFFFFF35A58308882188218921AA21FB
:104D90008A216B42718CFFFF728C83080411C40856
:104DA0002942FBDE5DEFEC5A830804110411041163
:104DB0008308E831DFFFFFFFFFFFFFFFFFFFFFFF7B
:104DC000FFFFFFFFFFFFFFFFFFFFFFFFFFFFFFFFF3
:104DD000FFFFBEF7C731C410251926194719471917
:104DE000A8298A52284A55ADFFFFE831A3080519C2
:104DF0004D6B4D6BFFFF7DEF4521C4100411041175
:104E00000411620076ADFFFFFFFFFFFFFFFFFFFF12
:104E1000FFFFFFFFFFFFFFFFFFFFFFFFFFFFFFFFA2
:104E2000FFFF96B562000411041905110519C408A5
:104E30008B4AB6B55DEFF7BDFFFF8E6B620029426E
:104E4000AA5A0842FFFFFFFFCC5283080411041145
:104E50000411A308AD52FFFFFFFFFFFFFFFFFFFF9D
:104E6000FFFFFFFFFFFFFFFF1CE7FFFFFFFFFFFF4D
:104E7000FFFF4E636200041104110411E41062008C
:104E80008E63FFFFFFFFFFFFFFFFCF730100F39C67
:104E90002C6396B5FFFFFFFF2D5B83000411041107
:104EA0000411E41067213DEFFFFFFFFFFFFFFFFF4D
:104EB000FFFFF8BDB7B59EEFCB52B394FFFFFFFFE6
:104EC000DFFFE831A3080411041104110411A30841
:104ED0004942FFF7FFF7FFFFFFFF6A4A01007284B4
:104EE000FFFFFFFFFFF7DFEF093AA30804110411EA
:104EF00004110411051118BEFFFFFFFFFFFFFFFFA4
:104F0000FFFFF07B6200E831C731410035A5FFFFAC
:104F10005DEF4621C4100411041104110411E410C2
:104F2000A308769DFFF7FFFFB7ADA308A308C7311D
:104F30009EE7FFF7FFF776A5A308E410041104111C
:104F400004110511051135A5FFFFFFFFFFFFFFFF4E
:104F5000FFFFDBDEA7298300C410C410C4101CE7C8
:104F60009EEF0511E4100411041104110411041939
:104F7000C408E510D16BD16BC5086400A5084300D7
:104F80002B32779DB3842519C41004110411041128
:104F9000041125192609359DFFFFFFFFFFFFFFFFC5
:104FA000FFFFFFFFAF7362000419051982000D5B5C
:104FB0008E9B62100511041104110419E410850080
:104FC0000511C439815A407B229C43AC03A4839BC6
:104FD00082728249C218A400C500E41004190411A9
:104FE000051947196711EC5ABEFFFFFFFFFFFFFFCE
:104FF000FFFFDFFFDBDEC410E41004110511A4186D
:1050000001C08388E40005190419C50844214383BD
:1050100023D542FEE4FE27FF07FFA4FE64FE03FE45
:10502000A3FDE2FC42EC83B32462E510C40804193A
:105030002619A81987210090D3BCFFFFFFFFFFFFAF
:10504000FFFFDFFFFFFF107C4200051905118328D9
:1050500001D044F8A348E400C508445A02EDE2FD3B
:1050600002FE66FE74FFB8FF73FFE7F6A6F645F68C
:10507000A4F5C3FC62FCC2FCC2FCE3CBC44906112C
:1050800088198701A49001F8EC9AFFFFFFFFFFFF4A
:10509000FFFFFFFFFFFFBEF7E831830005098240F5
:1050A00001C023F885F0A348A400445A02FD23CC94
:1050B000C2DC04FE28FE48F646F624F6E4F564FD5C
:1050C000E3FC62FCC2FC02E402DCE2FCA47A4801DC
:1050D0006701C47824F802F884B07DE7FFFFFFFF82
:1050E000FFFFFFFFFFFFFFFFDBDE2519A300C43832
:1050F00002E022D844F8A6F8A47863004321837222
:105100008339829B21F561FD22FDE2FCA2FC42FC79
:1051100042FC42FC22AB8341C39204522601251972
:10512000A49844F823F802F8A4D09EEFFFFFFFFFF5
:10513000FFFFFFFFFFFFFFFFFFFF9AD68729A500B4
:1051400043B822F823E065F8E8F807C9834842002D
:10515000A30084006329A27A62B3A2CB62D302BB0C
:10516000828A8339A400E500E500E508C46064D8BC
:1051700044F824F823F802F88388DBC6FFFFFFFF1A
:10518000FFFFFFFFFFFFFFFFFFFFFFFF3DE7505B5C
:10519000083123E843F844F065F809F9ABF989D1FF
:1051A0000689A348421802004200610082006200A2
:1051B00062008300A320C450A58885D865F844F810
:1051C00044F823F823F803D08210C7295DEFFFFFCE
:1051D000FFFFFFFFFFFFFFFFFFFFFFFFFFFFFFFFDF
:1051E0006C32A53802D823F865F866F8A7F84AF9B2
:1051F0000CFA4DFA4CEA0BD2A9B968B147A927B10C
:1052000007B907D1E7E8C7F8A7F865F865F844F8E3
:1052100023F803F802D0A3280509C408EC5AFFFFBD
:10522000FFFFFFFFFFFFFFFFFFFFFFFFFFFFFBDEB3
:105230000519C400A741E6C003F886F8A7F887F867
:1052400086F8C7F829F98AF9ABF9ABF98BF96AF94D
:1052500029F908F9C7F8A6F886F865F864F823F87C
:1052600002F006B12529E400E41025192519149D42
:10527000FFFFFFFFFFFFFFFFFFFFFFFFFFFF96ADF9
:10528000620082083595BACE8BA244D025F887F803
:10529000A7F8C7F8A7F887F886F886F886F887F899
:1052A000A7F8A7F8A6F885F865F864F824F064B8BC
:1052B0000D93BBB6CF6383080411E4106621493A0D
:1052C0005DEFFFFFFFFFFFFFFFFFFFFFFFFFD39437
:1052D0004200E410BBCEFFFFBEE776B5CCAA07C103
:1052E00045E045F846F866F886F886F886F886F8C8
:1052F00065F845F865F865E844D043A801888290D0
:105300003CD7FFEF55958308041104110519461980
:10531000B394FFFFFFFFFFFFFFFFFFFFFFFFB3940B
:10532000410086215DDFFFFFFFFFFFFFDFE77AC659
:10533000D3B44EB32AC268D1E6E0A6E8A5E8A5E852
:10534000E6D888C906A922A802A800A000C800D8EB
:10535000F7E5FFE7F8ADC410E4100411E4100511FF
:105360008B4AFFFFFFFFFFFFFFFFFFFFFFFF55A57A
:105370004100A7295DDFFFF7FFFFFFFFFFFFFFFFF2
:10538000FFFFFFEF7DDFDBCE59CEF8CDD7CDF7C5E0
:1053900079CEFBBEABA203F045F842D043E800F063
:1053A00072D4FFDF39AEE410E4100411E4100511EB
:1053B0008729FFFFFFFFFFFFFFFFFFFFFFFF59CE22
:1053C000830846211CD7FFF7FFFFFFFFFFFFFFFF0A
:1053D000FFFFFFFFFFFFFFFFFFFFFFFFFFFFFFFFDD
:1053E000FFFFFFEF8BBA04F845F862E044F000F8E5
:1053F0008EDBFFDFF8A5C410E410E4100411E41004
:105400002519FFFFFFFFFFFFFFFFFFFFFFFFBEF7B5
:105410008729830839B6FFF7DFF7FFFFFFFFFFFF9C
:10542000FFFFFFFFFFFFFFFFFFFFFFFFFFFFFFFF8C
:10543000FFFFBEE74ABA03F845F864F844F800F8FD
:105440006EE3FFD7F48C83080411E410E410E41039
:105450000519FFFFFFFFFFFFFFFFFFFFFFFFFFFF3C
:10546000EF7300007284FFEFBEEFDFFFFFFFFFFF6F
:10547000FFFFFFFFFFFFFFFFFFFFFFFFFFFFFFFF3C
:10548000FFFFDFE78BBA03F845F845F823F800F88B
:10549000D3D4FFD74E5B2100293A55A58308C41009
:1054A0002519FFFFFFFFFFFFFFFFFFFFFFFFFFFFCC
:1054B000FBDEA308E8319EDF9EE7BFEFFFFFFFFFA3
:1054C000FFFFFFFFFFFFFFFFFFFFFFFFFFFFFFFFEC
:1054D000FFFFFFF751BC02E003F803F043E0ECC22A
:1054E0007ECFFCBE46212100D394FFFF51840000F3
:1054F0008729FFFFFFFFFFFFFFFFFFFFFFFFFFFF0A
:10550000FFFF51840000F48CFFEF9EE7BFEFDFFF49
:10551000FFFFFFFFFFFFFFFFFFFFFFFFFFFFFFFF9B
:10552000FFFFFFFF3DDF55BD52BC72BCB7B55DC785
:10553000FFDFF06B0000093ABFF7FFFFFFFF149D8C
:1055400055A5FFFFFFFFFFFFFFFFFFFFFFFFFFFF6F
:10555000FFFFFFFFAC4AA408BBBEDFE77EE7BEEF5C
:10556000DFF7DFFFFFFFFFFFFFFFFFFFFFFFFFFF93
:10557000FFFFDFFFDFF7FFEFDFDFBFD79ED7DFDF04
:10558000D8A583082611DBD6FFFFFFFFFFFFFFFF33
:10559000FFFFFFFFFFFFFFFFFFFFFFFFFFFFFFFF1B
:1055A000FFFF79EE8BDC2131A9213DCFBFDF7EDF0C
:1055B0009EE7BEEFBFEFDFF7DFF7DFF7DFF7DFF7DD
:1055C000BFEFBEEF9EE77EDF5ED75ED7DFDF9AB626
:1055D00026194208EDA3BFFFFFFFFFFFFFFFFFFFFC
:1055E000FFFFFFFFFFFFFFFFFFFFFFFFFFFFFFFFCB
:1055F00074DDC0DB00FE42EE024289217BB6DFDFB4
:105600007ED77EDF7EDF9EE79EE79EE79EE79EE7F2
:105610007EDF7EDF5DD75DD79EDFFFE7F8A5071150
:10562000E31802C560FDE6D3DBEEFFFFFFFFFFFFDF
:10563000FFFFFFFFFFFFFFFFFFFFFFFFFFFF9EF7E3
:1056400084BAC1FC42FE82FEA2FE818345217474AD
:105650005EC7DFDF7ED75ED75DD75ED75ED75DD70B
:105660005DD75ED79EDFFFE73DC7F16384084252F6
:1056700026E629FF86FEE0F36AC3FFFFFFFFFFFF78
:10568000FFFFFFFFFFFFFFFFFFFFFFFFFFFF18DE32
:10569000C1D2A2FD22FE42FE42FE62FEE2D4416A77
:1056A000494253743BA63EC7BFD7BFD7BFD7BFDF62
:1056B000BFD73EC71AA6F263A729824122B462FE71
:1056C00083FEAAFE0FFF67FD63BA3CEFFFFFFFFFFB
:1056D000FFFFFFFFFFFFFFFFFFFFFFFFFFFF9AE658
:1056E00080D221FDC2FDE2F5C2F582F582FD62FDA8
:1056F00061DC219B846AE96A2C63AF6311746E6379
:105700002C63895A0452817AC2CBE2FC62FD82FD8D
:10571000C2FDC2FDE4FD24FD62CA1CE7FFFFFFFFDE
:10572000FFFFFFFFFFFFFFFFFFFFFFFFFFFFFFFF89
:10573000B1CC81D2C0F3C1FC02FD02FDE2FCC2FC8F
:10574000C2FC81FC80FBC0C9A48135AD59CE719CDF
:10575000218100DAA1FB82FCA2FC82FCA2FC02FDFA
:1057600022FDE2FC00FC60DA90CCFFFFFFFFFFFFB0
:10577000FFFFFFFFFFFFFFFFFFFFFFFFFFFFFFFF39
:10578000FFFF59DE0DC406CBE4D203DB03DBE3DA13
:10579000C3D2A4C209B3D2BC9EF7FFFFFFFFFFFF35
:1057A000FBE60EB4A6BA83D2E3E202EB22EB22E3DD
:1057B00003DBE4D26AC3B6D5FFFFFFFFFFFFFFFFA5
:1057C000FFFF0000000000000000000000000000DB
:1057D0000404040404040004000000140A0A000085
:1057E000000000000000000014143F140A3F0A0AE1
:1057F000000000041E1505060C14150F040000001F
:1058000012150D0A142C2A1200000000040A0A1EA8
:10581000151509360000000202010000000000001A
:1058200000000020100808080808081020000002E6
:105830000408080808080804020000000004150E07
:105840000E150400000000000404041F04040400FA
:105850000000000000000000000000020201000043
:105860000000001F00000000000000000000000019
:1058700000000002000000100808080404020202F0
:10588000010000000E1111111111110E0000000095
:10589000040604040404040E000000000E111108A4
:1058A0000402011F000000000E11100C1010110E58
:1058B00000000000080C0A0A091E08180000000079
:1058C0001F01010F1010110E000000000E09010F42
:1058D0001111110E000000001F0908040404040443
:1058E000000000000E11110E1111110E0000000039
:1058F0000E1111111E10120E000000000000040015
:10590000000000040000000000000004000000048B
:105910000400002010080402040810200000000009
:1059200000001F00001F00000000000204081020FB
:1059300010080402000000000E1111080404000405
:10594000000000000E111915151D011E00000000B9
:1059500004040C0A0A1E1233000000000F12120E7B
:105960001212120F000000001E1101010101110EA0
:10597000000000000F1212121212120F000000009D
:105980001F120A0E0A02121F000000001F120A0E48
:105990000A020207000000001C1201013911120C5A
:1059A000000000003312121E121212330000000019
:1059B0001F0404040404041F000000003E0808083B
:1059C000080808090700000037120A060A0A1237F9
:1059D00000000000070202020202223F0000000055
:1059E0001B1B1B1B15151515000000003B1216167E
:1059F0001A1A1217000000000E1111111111110EC8
:105A0000000000000F12120E020202070000000048
:105A10000E1111111117190E180000000F12120E9D
:105A20000A121237000000001E1101060810110FA3
:105A3000000000001F1504040404040E0000000010
:105A4000331212121212120C000000003312120A4A
:105A50000A0C0404000000001515150E0A0A0A0AB3
:105A6000000000001B0A0A04040A0A1B00000000D0
:105A70001B0A0A040404040E000000001F090804A5
:105A80000402121F0000001C0404040404040404A3
:105A90001C00000202020404080808100000000EA6
:105AA00008080808080808080E0000040A0000009A
:105AB00000000000000000000000000000000000E6
:105AC000003F000400000000000000000000000093
:105AD0000000000C121C123C000000000302020E29
