:020000042000DA
:1010000070DA00202D71002035710020377100202A
:10101000397100203B7100203D710020000000006C
:101020000000000000000000000000003F710020F0
:101030004171002000000000437100204571002034
:101040004771002047710020477100204771002040
:101050004771002047710020477100204771002030
:1010600025630020516300207D630020477100202C
:101070004771002047710020477100204771002010
:101080004771002047710020477100204771002000
:10109000477100204771002047710020A96300209C
:1010A00047710020477100204771002047710020E0
:1010B00039640020477100203F65002047710020FF
:1010C00047710020477100204771002047710020C0
:1010D00047710020477100204771002047710020B0
:1010E00047710020477100204771002047710020A0
:1010F0004771002047710020477100204771002090
:10110000477100204771002047710020477100207F
:10111000477100204771002047710020477100206F
:10112000477100204771002047710020477100205F
:1011300000F002F800F05AF80AA090E8000C82448F
:101140008344AAF10107DA4501D100F04FF8AFF26C
:10115000090EBAE80F0013F0010F18BFFB1A43F095
:101160000103184774A4000094A400000A444FF03F
:10117000000C10F8013B13F0070408BF10F8014BF6
:101180001D1108BF10F8015B641E05D010F8016B3B
:10119000641E01F8016BF9D113F0080F1EBF10F89F
:1011A000014BAD1C0C1B09D16D1E58BF01F801CBC2
:1011B000FAD505E014F8016B01F8016B6D1EF9D545
:1011C0009142D6D37047000000230024002500265A
:1011D000103A28BF78C1FBD8520728BF30C148BF9A
:1011E0000B6070471FB51FBD10B510BD07F096FE10
:1011F0001146FFF7F7FF00F009F807F0B4FE03B45B
:10120000FFF7F2FF03BC07F0BBFE00000EB50024A1
:10121000012700F012FB00F09BF94FF4A06005F0ED
:10122000A5FF04F061FC04F0C7FF05F029F8472191
:1012300040F2E73005F0D6F8002140F2833005F0A7
:101240000BF941F61F41632005F04DF904F058FFFA
:1012500004F0B4FA00F072FB00F0E4F900F0F0F9E9
:101260000020AE490860AE48AE49086054E10A204B
:1012700000F0ABF917B1601C84B201E0601E84B2CB
:10128000C82C00DD002704B901272146A64807F035
:10129000B9FD002004F0ACFAA448006818B10120A0
:1012A000A349086002E00020A1490860A148007835
:1012B000012835D14FF6FF709F490880E7209F49EC
:1012C0000880102000909E480C2360210268D220E4
:1012D00005F074FB1020009099480C23922142687D
:1012E000D22005F06BFB1020009095480C23C42100
:1012F0008268D22005F062FB1020009090480C23F9
:10130000F621C268D22005F059FB10200923009075
:101310008248282102684FF4BC7005F04FFBE6E0DC
:1013200084480078022811D14FF6FF708249088066
:10133000E720824908801020092300907748162171
:1013400002684FF4BC7005F039FBD0E079480078B2
:10135000032811D14FF6FF7077490880E7207749BD
:1013600008801020092300906C48162102684FF471
:10137000BC7005F023FBBAE06E480078042811D158
:101380004FF6FF706C490880E7206C4908801020F8
:10139000092300906148282102684FF4BC7005F0D1
:1013A0000DFBA4E06348007805283ED1AA259626C7
:1013B000E720614908804FF6FF70604908802020CF
:1013C0000090A6F1280081B207235E4802682846F3
:1013D00005F0CBFB514800684FF47A71B0FBF1F88F
:1013E00020200323424631460090284605F0BDFBED
:1013F0000B200090514803884F480288314605F180
:10140000300005F083FB454800684FF47A71B0FB6B
:10141000F1F201FB120820200323424631460090DE
:1014200005F1400005F0A1FB61E042480078062884
:101430005DD14FF6FF7040490880E7203F490880A2
:10144000364800684049C8600846C0680968B0FB73
:10145000F1F03D494860084640683C49B1FBF0F076
:101460003949886010200090084606235021026800
:10147000D62005F0A3FA10200090334806238221DD
:10148000C268D62005F09AFA102000902E48062354
:10149000B4214268D62005F091FA2B488068642177
:1014A000B0FBF1F5102003232A46E6210090D62058
:1014B00005F084FA002010212E22CDE900210290AF
:1014C0001E4803881C480288E621EE2005F0A4F996
:1014D0001D4880686421B0FBF1F201FB1205102069
:1014E00002232A46E6210090F62005F0BBFAE72009
:1014F0001149088000234FF4F0721946184605F090
:1015000075F801234FF4F0721946002005F06EF8CB
:101510004FF6FF7008490880A9E60000F4D10020CA
:101520000010002008ED00E0000400402881234264
:101530009401234205D00020BCD10020BED1002060
:10154000D4D3002080D10020B4D30020A086010095
:1015500010B56FF0040005F058FE2E4800682E49C3
:10156000B0FBF1F02D4908700846007800EB40010F
:10157000C1EBC0104FF6FF7101EAC0002849088096
:1015800010BD0146254A12784A434FF0E0235A61C4
:1015900000229A611A46126942F001021A6100BFE4
:1015A0004FF0E022106900F001021AB100F480321D
:1015B000002AF5D04FF0E022126922F001024FF02C
:1015C000E0231A6100229A6170470146144A12888A
:1015D0004A434FF0E0235A6100229A611A46126989
:1015E00042F001021A6100BF4FF0E022106900F0E2
:1015F00001021AB100F48032002AF5D04FF0E02247
:10160000126922F001024FF0E0231A6100229A6170
:101610007047000008D0002000127A0000D000209F
:1016200002D0002010B501F0B0F901F0DEFD02F0AB
:1016300098FF03F007FC03F03EFE04F036F810BDFF
:10164000002043490870704710B5044641480078AF
:10165000844200D110BD3F4800780A281ED2DFE83E
:1016600000F005080B0E1114171A1B1C01F09AF953
:1016700014E001F0C7FD11E002F080FF0EE002F07F
:101680007DFF0BE003F0EBFB08E003F021FE05E03B
:1016900004F018F802E001E000E000BF00BF0A2CEF
:1016A0001ED2DFE804F005080B0E1114171A1B1CDC
:1016B00001F072F914E001F09FFD11E002F058FF13
:1016C0000EE002F055FF0BE003F0C3FB08E003F06F
:1016D000F9FD05E003F0F0FF02E001E000E000BFEB
:1016E00000BF1C48047000BFB4E710B5184800786C
:1016F0000A281ED2DFE800F005080B0E1114171A95
:101700001B1C00F075FD14E001F02BFB11E002F052
:10171000E8FA0EE002F0E5FA0BE003F020FA08E048
:1017200003F083FC05E003F0FEFE02E001E000E0D0
:1017300000BF00BF10BD10B50748416800208847B2
:1017400003480078FFF780FFFFF7CFFF10BD0000D0
:1017500005D0002004D00020C4D100200CB500200A
:10176000019000906C48006840F480306A4908603D
:1017700000BF6948006800F4003000900198401CE8
:101780000190009818B90198B0F5A06FF1D16248A6
:10179000006800F4003010B10120009001E000204A
:1017A00000900098012843D15C48006840F0100088
:1017B0005A4908600846006820F00300086008469F
:1017C000006840F002000860534840685249486091
:1017D0000846406848600846406840F480604860B9
:1017E0000846406820F47C1048600846406840F491
:1017F000E81048600846006840F08070086000BF4C
:101800004548006800F000700028F9D04248406860
:1018100020F00300404948600846406840F002005C
:10182000486000BF3C48406800F00C000828F9D12F
:101830000CBD10B5FFF792FF10BD10B5364800681B
:1018400040F00100344908600846406834490840C7
:101850003149486008460068324908402E4908600E
:101860000846006820F4802008600846406820F49C
:10187000FE0048604FF41F008860FFF7DAFF4FF06A
:1018800000602949086010BD10B500210020002229
:10189000214B5B6803F00C0121B1042906D0082913
:1018A00028D107E0214B224C236027E01F4B204C1E
:1018B000236023E0184B5B6803F47010164B5B68E1
:1018C00003F48032022303EB904022B9194B4343C7
:1018D000174C23600DE0104B5B6803F4003323B119
:1018E000144B4343124C236003E0104B4343104C12
:1018F000236003E00D4B0E4C236000BF00BF064B7E
:101900005B68C3F303130C4CE15C094B1B68CB40D1
:10191000074C236010BD0000001002400020024070
:101920000000FFF8FFFFF6FE08ED00E000127A006D
:1019300008D0002000093D000CD0002010B54FF465
:10194000C8711B4807F0C0FA10BD10B50246002050
:1019500011E0174B53F830305BB9154B43F830208A
:1019600003EBC0035960134B1B785B1C114C2370B5
:1019700010BD431CD8B23228EBDB00BFF8E770B5CE
:10198000054600240EE00A4800EBC40040682840E9
:1019900038B1074850F8341028468847054605B93D
:1019A00070BD641C034800788442ECDB00BFF7E79D
:1019B0000CD200201CD000200EB5F9480078102170
:1019C000F8A2CDE900210290FB480388FB48028879
:1019D000FB480178FB48007805F0A2FAF04800784F
:1019E0001021F9A2CDE900210290F5480078FB4AC8
:1019F00012788118F0480388F0480288F14800788E
:101A000005F08EFAE64800781021F5A2CDE9002114
:101A10000290EB480078F14A12781044EF4A1278AD
:101A20008118E5480388E5480288E648007805F013
:101A300077FADB4800781021F1A2CDE9002102906D
:101A4000DF480078E54A12781044E44A12781044DE
:101A5000E24A12788118D8480388D8480288D948C1
:101A6000007805F05DFACE4800781021EAA2CDE9B1
:101A700000210290D2480078D84A12781044D74A00
:101A800012781044D54A12781044D44A127881183A
:101A9000C9480388C9480288CA48007805F040FA56
:101AA000BF4800781021DFA2CDE900210290C44890
:101AB0000078CA4A12781044C84A12781044C74ABB
:101AC00012781044C54A12781044C44A127881181A
:101AD000B9480388B9480288BA48007805F020FA66
:101AE000AF4800781021D5A2CDE900210290B4487A
:101AF0000078BA4A12781044B84A12781044B74AAB
:101B000012781044B54A12781044B44A12788118F9
:101B1000A9480388A94802884FF4D27005F000FA5A
:101B20009F4800781021C7A2CDE900210290A44867
:101B30000078AA4A12781044A84A12781044A74A9A
:101B400012781044A54A12781044A44A127810441E
:101B5000A24A12788118984803884FF478424FF4CB
:101B6000D27005F0DDF90EBD2DE9FE4305460E46A7
:101B7000E7200090B548028814230021084604F0AD
:101B800001FD01201021B2A21F23CDE90021029006
:101B90004FF6FF720221002005F046FA01200C21C9
:101BA000B14A0023CDE9002102904FF6FF720821CF
:101BB0004FF4C87005F0B4F94FF6FF700090A348D9
:101BC0004088143883B2A14802881421002004F010
:101BD000D9FCFFF7F1FE002454E0E720A349088078
:101BE000774F3F78DFF8F4C19CF800C00CFB047716
:101BF000DFF87CC29CF800C067441037BBB29D4F31
:101C000017F804C06F4F3F7838374FF0100808FBC3
:101C10000C77DFF85CC29CF800C007EB0C02684F41
:101C20003F78DFF8B8C19CF800C00CFB0477DFF800
:101C300040C29CF800C0A7EB0C07B9B2614F3F78D7
:101C4000DFF82CC29CF800C0A7EB0C07B8B204F078
:101C500025FD53480078102187A2CDE9002102908C
:101C6000574A12785D4B1B7804FB032291B2554A08
:101C70001278283A90B2504A1388E72205F050F9BA
:101C8000601CC4B2062CA8DB5448007800EB80002E
:101C90004B4C24782044764C2478204400F11003E7
:101CA0007348007800F5E2724C48007800EB800041
:101CB000434C247820446E4C2478001B81B24FF4AE
:101CC000CD7004F0EBFC4548007800EB40003C4C44
:101CD000247804EB4000664C2478204400F1100383
:101CE0006348007800F5E2723C48007800EB400061
:101CF000334C247804EB40005D4C2478001B81B207
:101D00004FF4CD7004F0CAFC002010215B4A03465A
:101D1000CDE9002102904FF6FF724FF4987105F063
:101D2000FFF8012056490860BDE8FE833EB5044631
:101D300054480470FFF740FE52480078012813D140
:101D400000205149087016480078102115A2E72399
:101D5000CDE9002102904FF6FF7219480178194829
:101D6000007805F0DDF86EE146480078022816D1CB
:101D70000020454908700A480078102112A2CDE9D8
:101D8000002102900E480078144A12788118E72347
:101D90004FF6FF720B48007805F0C2F853E175E08A
:101DA0004AD00020CAB5D1E931A3BAB2E2C1BFB569
:101DB000B2B9E2CAB1BCE4004CD000204ED0002041
:101DC00048D0002047D00020CAB5D1E932A3BAB22A
:101DD000E2C1BFCBB2CAB1CBD9B6C80049D000204E
:101DE000CAB5D1E933A3BAB2E2C1BFD4C8B1E4CB1A
:101DF000D9D4CBB6AFB5C4BCD3CBD9B6C8000000DC
:101E0000CAB5D1E934A3BAB2E2C1BFC5F6D7B2D6DA
:101E1000D0B5C4B6AFC1BF00CAB5D1E935A3BABC0D
:101E2000C6CAFD00CAB5D1E936A3BAB2E2C1BFD66F
:101E3000DCC6DABACDC6B5C2CA000000C9E8D6C34E
:101E400000000000CDCBB3F600000000C4D300209A
:101E5000B9E2B5E7BCC6CAB1CAFDD7D6CAB5D1E9A1
:101E6000CFB5CDB3000000001ED00020BCD10020B3
:101E700050D0002051D00020F7CE000028D0002004
:101E80008081214257D0002063D00020FE48007896
:101E900003281AD10020FD490870FD480078102160
:101EA000AFF2C402CDE900210290FA480078FA4A64
:101EB00012781044F84A12788118E7234FF6FF721F
:101EC000F648007805F02CF8BDE0EF4800780428CB
:101ED0001DD10020ED490870ED4800781021AFF2C7
:101EE000E002CDE900210290EA480078EA4A12783F
:101EF0001044E94A12781044E74A12788118E7231F
:101F00004FF6FF72E548007805F00AF89BE0DE48DE
:101F10000078052820D10020DC490870DC480078D2
:101F20001021AFF20C12CDE900210290D9480078BF
:101F3000D94A12781044D84A12781044D64A1278F6
:101F40001044D54A12788118E7234FF6FF72D34820
:101F5000007804F0E5FF76E0CB480078062823D12E
:101F60000020CA490870CA4800781021AFF24C120C
:101F7000CDE900210290C7480078C74A1278104482
:101F8000C54A12781044C44A12781044C24A1278E2
:101F90001044C14A12788118E7234FF6FF72BF48F8
:101FA000007804F0BDFF4EE0B7480078082823D140
:101FB0000020B6490870B64800781021AFF28412AC
:101FC000CDE900210290B3480078B34A127810445A
:101FD000B14A12781044B04A12781044AE4A1278CE
:101FE0001044AD4A12788118E7234FF6FF724FF480
:101FF000D27004F095FF26E0A3480078092822D18A
:10200000A34800781021AFF2C412CDE9002102905C
:10201000A0480078A04A127810449F4A12781044D1
:102020009D4A127810449C4A127810449A4A1278B9
:102030001044994A12788118E7234FF6FF724FF443
:10204000D27004F06DFF9048007895490978884275
:102050001AD18D480078082803D08B4800780928C9
:1020600010D18948007809280ED188480078401C92
:102070008649087008460078022805D189488A49AF
:10208000086001E0894804707F480078844908703E
:102090003EBD10B504468548007800281DD1012CAE
:1020A00024D183480078401E40B281490870084618
:1020B00090F90000012801DA012008707C480078BE
:1020C00001280BD17B480078002806D000207949F0
:1020D000087077490878FFF729FE87E001207549E5
:1020E000087073490878FFF721FE7FE0022C0ED1BB
:1020F0006F4890F90000002878DD6D4890F90000E5
:10210000072873DA6A490878FFF710FE6EE0042C9E
:1021100024D167480078401C40B2654908700846E1
:1021200090F90000062801DD06200870604800785C
:1021300006280BD15F480078002857D000205D4961
:1021400008705B490878FFF7F1FD4FE0012059491D
:10215000087057490878FFF7E9FD47E0B4F5805F5C
:1021600006D10120FFF7E2FD0120514908703DE052
:10217000B4F5005F06D10220FFF7D8FD02204C49DC
:10218000087033E0B4F5804F06D10320FFF7CEFD91
:1021900003204749087029E0B4F5004F06D1042018
:1021A000FFF7C4FD0420424908701FE0B4F5803FEA
:1021B00006D10520FFF7BAFD05203D49087015E05E
:1021C000B4F5003F06D10620FFF7B0FD06203849E0
:1021D00008700BE0B4F5802F03D10820FFF7A6FDAF
:1021E00004E0202C02D10920FFF7A0FD204610BDFD
:1021F00010B52A48007830490978401A2F49098AD1
:1022000088422DDA2D48028A2D480178234800782B
:102210003830102303FB0100274909780844824223
:102220001EDA1C490978084623490978401A2349CF
:10223000498A884214DA2148418A164A127810469F
:102240001D4A127810441030814209DA1D48007886
:1022500030B100201B4908701802FFF790FB54E0D2
:102260000E48007814490978401A1449098A8842AE
:1022700048DA1248028A1248017808480078383053
:10228000102303FB01001FE057D0002063D0002083
:102290004AD0002048D0002049D0002047D000205C
:1022A00058D000200400FA050CED00E005D0002015
:1022B00061D0002062D0002050D00020C4D1002086
:1022C00051D0002059D00020FE49097808448242AC
:1022D00018DAFD4909780846FA490978401AFB4995
:1022E000498A88420EDAF948418AF74A127810463C
:1022F000F44A127810441030814203DAF44800683E
:10230000012802D10120F3490870F3480078ED4913
:102310000978401AED49098A884231DAEB48028A85
:10232000EE484178EC4800783830102303FB010078
:10233000E44909780844824222DAE9480078E2490F
:1023400009780844DF490978401AE049498A8842F7
:1023500016DADE48418AE2480078DB4A12781044F7
:10236000D84A127810441030814209DADD480078EA
:1023700030B10020DB4908705802FFF700FB37E05E
:10238000D5480078CF490978401AD049098A88424F
:102390002BDACE48028AD1484178CF4800783830CD
:1023A000102303FB0100C7490978084482421CDA64
:1023B000CB480078C44909780844C2490978401AD2
:1023C000C249498A884210DAC048418AC448007824
:1023D000BD4A12781044BB4A127810441030814232
:1023E00003DABB480068012802D10120BD4908700A
:1023F000B9480078B3490978401AB449098A884233
:1024000033DAB248018AB5488278B3480078383068
:10241000102303FB0200AB4A12781044814224DAF5
:10242000AF480078A849097801EB4000A549097830
:10243000401AA649498A884217DAA448418AA8481E
:102440000078A14A127802EB40009E4A12781044AC
:102450001030814209DAA448007830B10020A24946
:1024600008709802FFF78BFA39E09B48007895498D
:102470000978401A9549098A88422DDA9348018AD9
:1024800096488278944800783830102303FB020085
:102490008C4A1278104481421EDA914800788A49A9
:1024A000097801EB400087490978401A8749498A31
:1024B000884211DA8548418A89480078824A127830
:1024C00002EB40007F4A127810441030814203DA58
:1024D0007F480068012802D10120834908707E48A6
:1024E000007878490978401A7849098A884235DAAB
:1024F0007648018A7948C2787748007838301023C6
:1025000003FB02006F4A12781044814226DA7448B5
:10251000007800EB40006C49097808446949097863
:10252000401A6A49498A884218DA6848418A6C48E0
:10253000007800EB4000644A12781044614A127837
:1025400010441030814209DA6848007830B1002028
:1025500066490870D802FFF712FA3BE05E4800783F
:1025600058490978401A5949098A88422FDA574848
:10257000028A5A48C178584800783830102303FB43
:102580000100504909780844824220DA5448007812
:1025900000EB40004C49097808444A490978401A40
:1025A0004A49498A884212DA4848418A4C480078A8
:1025B00000EB4000444A12781044424A127810441A
:1025C0001030814203DA42480068012802D101201C
:1025D00046490870404800783A490978401A3B4912
:1025E000098A884233DA3948028A3C4801793A48F4
:1025F00000783830102303FB010032490978084481
:10260000824224DA364800782F49097801EB8000AD
:102610002C490978401A2D49498A884217DA2B48F3
:10262000418A2F480078284A127802EB8000254A18
:10263000127810441030814209DA2D48007830B108
:1026400000202B4908701803FFF799F939E0224858
:1026500000781C490978401A1C49098A88422DDAF9
:102660001A48028A1D4801791B4800783830102327
:1026700003FB010013490978084482421EDA184816
:1026800000781149097801EB80000E490978401A59
:102690000E49498A884211DA0C48418A104800786C
:1026A000094A127802EB8000064A12781044103072
:1026B000814203DA06480068012802D101200C4952
:1026C000087017E050D0002048D00020C4D100206E
:1026D0002881234259D0002047D0002051D000202B
:1026E00049D000205AD000205BD000205CD00020D0
:1026F0005DD00020BC480078BC490978401ABC492C
:10270000098A884235DABA48028ABA484179B64815
:1027100000783830102303FB0100B44909780844DD
:10272000824226DAB448007800EB8000B349097889
:102730000844AE490978401AAD49498A884218DAF6
:10274000AB48418AAC48007800EB8000AB4A127875
:102750001044A64A127810441030814209DAA84881
:10276000007830B10020A64908705803FFF707F938
:102770003BE09D4800789D490978401A9C49098AA8
:1027800088422FDA9A48028A9A4841799648007816
:102790003830102303FB0100944909780844824231
:1027A00020DA9548007800EB8000944909780844C5
:1027B0008E490978401A8E49498A884212DA8C4833
:1027C000418A8D48007800EB80008C4A12781044D2
:1027D000864A127810441030814203DA8948006832
:1027E000012802D10120864908708148008AB0F58D
:1027F000CD7F2FDD7E48018A7C48007800F5E270AD
:10280000814227DA7C48007800EB80007B49097818
:10281000084476490978401A7549498A884219DA84
:102820007348418A7448007800EB8000734A12783C
:1028300010446E4A12781044103081420ADA72480D
:10284000007838B10020704908704FF48020FFF7FD
:1028500096F830E06648008AB0F5CD7F28DD644800
:10286000018A6248007800F5E270814220DA62480D
:10287000007800EB80006149097808445B490978D9
:10288000401A5B49498A884212DA5948418A5A48B3
:10289000007800EB8000594A12781044534A1278AD
:1028A00010441030814203DA56480068012802D1F2
:1028B0000120554908704E48008AB0F5CD7F30DDC3
:1028C0004B48018A4948007800F5E270814228DAD5
:1028D0004948007800EB40004849097801EB400086
:1028E00042490978401A4249498A884219DA4048DF
:1028F000418A4148007800EB4000404A127802EBE0
:1029000040003A4A127810441030814209DA3F48B8
:10291000007830B100203D4908702020FFF72FF8E3
:1029200032E03348008AB0F5CD7F2ADD3048018A95
:102930002E48007800F5E270814222DA2E480078B5
:1029400000EB40002D49097801EB40002749097848
:10295000401A2749498A884213DA2548418A26487D
:10296000007800EB4000254A127802EB40001F4A35
:10297000127810441030814203DA2248006801289E
:1029800002D101202149087010BD10B52049AFF6D1
:10299000FD00FEF7DAFF10BD10B500210846FFF775
:1029A000E3F810BD10B54FF6FF7002F0EDFF012007
:1029B00018490870184908701849087018490870B3
:1029C000184908700E4908700F4908700F490870BF
:1029D0000020154908700120144908700720144987
:1029E00008701449087010BD47D0002050D0002056
:1029F000C4D1002051D0002049D0002048D0002070
:102A00005ED00020288123425FD0002060D00020CB
:102A100027F0070059D000205AD000205BD00020BA
:102A20005CD000205DD0002061D0002062D000206A
:102A300057D0002058D000200EB5FE480078102155
:102A4000FDA2CDE900210290FD480388FD480288DF
:102A5000A6214FF4D27004F063FAF64800781021F2
:102A6000F9A2CDE900210290F5480388F5480288D3
:102A7000D8214FF4D27004F053FAEE4800781021B8
:102A8000F3A2CDE900210290ED4803884FF478428B
:102A90004FF485714FF4D27004F042FA0EBDFEB5CA
:102AA00005460E46E7200090EB48028814230021DB
:102AB000084603F067FD01201021E8A21F23CDE99D
:102AC000002102904FF6FF720221002004F0ACFAC0
:102AD0004FF6FF700090E0484388028814210020E0
:102AE00003F050FDD34800781021E2A2CDE9002187
:102AF0000290D3480388D34802882821142004F088
:102B00000FFACC4800781021DFA2CDE90021029015
:102B1000CB480388CB48028828214FF4877004F003
:102B2000FFF9C44800781021DEA2CDE9002102900F
:102B3000C3480388C34802886021822004F0F0F96A
:102B4000BC4800781021DAA2CDE900210290BC48EF
:102B50000388BC4802889221822004F0E1F9B5483C
:102B600000781021D5A2CDE900210290B448038855
:102B7000B4480288C421822004F0D2F9AD4800781C
:102B80001021D1A2CDE900210290AD480388AD48C3
:102B90000288F621822004F0C3F9A64800781021AB
:102BA000CCA2CDE900210290A5480388A54802885F
:102BB00060214FF49B7004F0B3F99E480078102117
:102BC000C4A2CDE9002102909D4803889D48028857
:102BD00092214FF49B7004F0A3F9964800781021DD
:102BE000BCA2CDE90021029095480388954802884F
:102BF000C4214FF49B7004F093F98E4800781021A3
:102C0000B4A2CDE9002102908D4803888D48028846
:102C1000F6214FF49B7004F083F986480078102168
:102C2000ACA2CDE90021029085480388854802883E
:102C3000F6214FF49B7004F073F9E720A649088051
:102C400000241DE0322204FB02F000F1560304FBD5
:102C500002F000F156014FF4BC72502003F0C6FCA4
:102C6000322204FB02F000F17A0304FB02F000F1CF
:102C70007A014FF4BC72502003F0B8FC601CC4B25F
:102C8000042CDFDB6B480078102194A2CDE90021F1
:102C900002906B4803886B4802884621CE2004F0DE
:102CA0003FF946234FF499721946D22003F09EFC57
:102CB0004FF4887350225621104603F097FC4FF4CE
:102CC00088734FF4BC725621104603F08FFCFFF757
:102CD000B3FE002435E032276743A637DFF80CC285
:102CE0009CF800C067441037BBB2804F3F7807F5AF
:102CF000E27232276743A637DFF8F0C19CF800C0C4
:102D0000A7EB0C07B9B2794F3F78C7F5D27003F043
:102D1000C5FC48480078102175A23223CDE9002176
:102D2000029004FB03F202F1A601704A1278C2F588
:102D3000CA7290B2424A1388E72204F0F1F8601C8C
:102D4000C4B2032CC7DB002010216A4A0346CDE938
:102D5000002102904FF6FF724FF4987104F0E0F8F2
:102D6000FEBD10B561480078C0F5D2706249098A8D
:102D7000884220DA6048018A5C48007800F5E270F9
:102D8000814218DA59480078C0F1A6005A49498AA8
:102D9000884210DA5848418A54480078B630814257
:102DA00009DA5648007830B1002054490870802074
:102DB000FEF7E5FD25E04D480078C0F5D2704E499C
:102DC000098A88421ADA4C48018A4848007800F596
:102DD000E270814212DA45480078C0F1A600464907
:102DE000498A88420ADA4448418A40480078B63025
:102DF000814203DA42480068012802D101203F499C
:102E000008703A480078C0F5D2703B49098A884278
:102E100078DA3948018A3548007800F5E270814255
:102E200070DA32480078C0F1D8003349498A8842C4
:102E30007BDA68E069D00020BFAACABC00000000AD
:102E400064D0002066D00020C7E5C1E30000000088
:102E5000B7B5BBD800000000C4D30020B9E2B5E785
:102E6000BCC6CAB1CAFDD7D6CAB5D1E9CFB5CDB3B4
:102E700000000000CAB5D1E931A3BAB2E2C1BFB5C2
:102E8000B2B9E2CAB1BCE400CFB5CDB3BCC6CAB1D9
:102E9000CAB1BCE43A202020202020202020206D30
:102EA00073000000B4ABB8D0C6F7313A00000000A0
:102EB000B4ABB8D0C6F7323A00000000B4ABB8D01B
:102EC000C6F7333A00000000B4ABB8D0C6F7343AC6
:102ED000000000006D730000BCD100207C20202089
:102EE00020732020207C6D737C00000068D00020BF
:102EF000F7CE00007CD00020C4D10020A1D000205B
:102F00002881234211E0C748418AC7480078E83049
:102F100081420ADAC548007838B10020C3490870F8
:102F20004FF48070FEF72BFD25E0BF480078C0F518
:102F3000D270BC49098A88421ADABA48018ABA486A
:102F4000007800F5E270814212DAB7480078C0F1EB
:102F5000D800B449498A88420ADAB248418AB2485C
:102F60000078E830814203DAB1480068012802D1D4
:102F70000120AE490870AC480078C0F5D270A9496C
:102F8000098A884221DAA748018AA748007800F513
:102F9000E270814219DAA4480078C0F58570A14931
:102FA000498A884211DA9F48418A9F48007800F593
:102FB0008D70814209DA9F48007830B100209D4928
:102FC00008704020FEF7DBFC26E097480078C0F54B
:102FD000D2709449098A88421BDA9248018A924841
:102FE000007800F5E270814213DA8F480078C0F56E
:102FF00085708C49498A88420BDA8A48418A8A4816
:10300000007800F58D70814203DA89480068012854
:1030100002D101208749087010BD3EB5044686489C
:103020000078012818D1012C17D1FFF705FD83483E
:1030300000781021AFF2E81248F21003CDE9002128
:1030400002904FF6FF724FF485714FF4D27003F087
:1030500067FF002078490870C5E0022C15D1FFF702
:10306000EBFC764800781021AFF2342248F21003CE
:10307000CDE9002102904FF6FF72A6214FF4D270E5
:1030800003F04EFF03F0D7F8ADE0042C15D1FFF7A5
:10309000D3FC6A4800781021AFF2542248F21003A2
:1030A000CDE9002102904FF6FF72D8214FF4D27083
:1030B00003F036FF03F0C8F895E0802C15D1FFF738
:1030C000BBFC5E4800781021AFF2942248F2100356
:1030D000CDE9002102904FF6FF72A6214FF4D27085
:1030E00003F01EFF03F0A7F87DE0B4F5807F15D153
:1030F000FFF7A2FC514800781021AFF2B42248F249
:103100001003CDE9002102904FF6FF72D8214FF451
:10311000D27003F005FF03F097F864E0402C17D15C
:10312000FFF78AFC454800781021AFF2DC2248F214
:103130001003CDE9002102904FF6FF724FF4857124
:103140004FF4D27003F0ECFE00203B4908704AE0D7
:10315000B4F5801F04D13A4800683A49086042E05B
:10316000B4F1807F07D13648006836490968401AB3
:103170003549086037E0B4F5001F04D130480068D5
:10318000324908602FE0B4F1007F07D12C48006875
:103190002E490968401A2C49486024E0B4F5000F14
:1031A00004D1274800682A4908601CE0B4F1006F88
:1031B00007D12348006826490968401A22498860D7
:1031C00011E0B4F5800F04D11D4800682149086062
:1031D00009E0B4F1806F06D1194800681D490968FB
:1031E000401A1949C86020463EBD10B51A49AFF2D1
:1031F000D510FEF7AAFB10BD10B500210846FFF759
:103200004EFC10BD10B54FF6FF7002F0BDFB03F091
:103210001BF8012007490870044908700F4908701D
:1032200010BD0000C4D1002068D00020A2D0002032
:1032300028812342A3D0002005D0002069D000209F
:10324000F4D100206CD00020D4D3002070D0002016
:1032500074D0002078D00020C701F00FA1D000204A
:103260001FB5FFF7E9FB4FF6FF70FE490880E72026
:10327000FD490880FD48007801287DD1FC48007890
:103280001021FCA24FF47C43CDE9002102904FF6BF
:10329000FF7242214FF4D27003F042FEF4480078EE
:1032A0001021F6A2CDE900210290F6480388F648E5
:1032B000028874214FF4D27003F032FEF348007894
:1032C000022803D12820F24908705FE0EF48007817
:1032D00003285BD11E20EE490870E54800781021D4
:1032E000ECA2CDE900210290E9480078EF49097885
:1032F00001EB80000390E3480388E3480288EC4830
:103300000078039903F00CFED94800781021E9A257
:10331000CDE900210290DE480078E449097801EB0C
:1033200080000390D7480388D7480288E748007890
:103330000A30039903F0F4FD10200090E448006B7C
:103340000390D3480078D949097801EB800009231C
:1033500002900146D64800781C30039A03F02EFBF9
:1033600010200090DA48406B0390C9480078CF499C
:10337000097801EB800000E01CE20923029001467D
:10338000D24800782630039A03F018FBB84800783A
:103390001021D0A2CDE900210290BA480388BA4892
:1033A0000288C2480178C248007803F0B9FDB048ED
:1033B00000781021CBA2CDE900210290B44800781A
:1033C000BA49097808440390AE480388AE48028899
:1033D000B7480078039903F0A3FDA54800781021B1
:1033E000C4A2CDE900210290A9480078AF4909782C
:1033F00001EB40000390A3480388A3480288AC482F
:103400000078039903F08CFD994800781021BDA243
:10341000CDE9002102909E48007800EB4000A349CE
:103420000978084403909748038897480288A04881
:103430000078039903F074FD8D4800781021B5A23F
:10344000CDE9002102908F4803888F480288974871
:1034500001789E48007803F063FD854800781021CC
:10346000B1A2CDE900210290894800788F490978FE
:10347000084403908348038883480288934800786F
:10348000039903F04DFD7A4800781021ABA2CDE9F5
:10349000002102907E4800788449097801EB4000C1
:1034A0000390784803887848028888480078039910
:1034B00003F036FD6E4800781021A5A2CDE9002169
:1034C00002907348007800EB40007849097808447E
:1034D00003906C4803886C4802887C480078039904
:1034E00003F01EFD10200090794800686F4903909A
:1034F0000978092302466E48029100781C3003F0D7
:103500005DFA10200090724840680390604800788F
:103510006649097808440923029001466448007806
:103520001C30039A03F04AFA102000906848806823
:103530000390574800785D49097801EB4000092362
:10354000029001465A4800781C30039A03F036FA7C
:10355000102000905E48C06803904D48007800EB52
:103560004000524909780844092302900146504816
:1035700000781C30039A03F021FA10200090544880
:1035800000694A4903900978092302464F4802918D
:1035900000781C3003F012FA102000904C4840696B
:1035A00003903B4800784149097808440923029078
:1035B0000146464800781C30039A03F0FFF91020BA
:1035C0000090434880690390314800783749097872
:1035D00001EB40000923029001463C4800781C3072
:1035E000039A03F0EBF9102000903948C06903906A
:1035F0002748007800EB40002C490978084409234B
:1036000002900146314800781C30039A03F0D6F945
:1036100017480078102153A2CDE9002102902348D9
:103620000078B63080B203901648038816480288A6
:103630001F4800781E30039903F072FCE720094907
:1036400008804FF6FF700849088020200090174836
:103650000078AC3080B2022303904548B0F90020D6
:10366000DC2087E0BCD10020BED10020E4D00020C7
:10367000A9D00020B7BDB7A831000000B7BDB7A8DA
:1036800032000000A4D00020A6D0002005D00020E9
:10369000D9D0002061313A20202020202020202075
:1036A00020286D6D2F73322900000000DBD0002030
:1036B000DAD0002061323A20202020202020202053
:1036C00020286D6D2F73322900000000DCD000200F
:1036D000D4D3002074313A20202020202020202024
:1036E000206D730074323A202020202020202020DA
:1036F000206D730074333A202020202020202020C9
:10370000206D730074343A202020202020202020B7
:10371000206D730076313A202020202020202020A8
:10372000206D6D2F7300000076323A20202020207B
:1037300020202020206D6D2F7300000076333A206A
:103740002020202020202020206D6D2F73000000DD
:1037500076343A202020202020202020206D6D2F3C
:1037600073000000B5B2B9E2C6ACBFEDB6C83A000E
:10377000E0D00020039903F0F8F94FF6FF70FE49FE
:103780000880E720FD490880FD4800781021FDA24F
:10379000CDE900210290FC480078B63080B2039059
:1037A000FA480388FA4802884FF48C70039903F0B2
:1037B000B7FB3BE1F24800781021AFF24812CDE9A7
:1037C00000210290F1480388F148028842214FF419
:1037D000D27003F0A5FBEA4800781021AFF2641222
:1037E0004FF47C43CDE9002102904FF6FF72742123
:1037F0004FF4D27003F094FB2020E6490870E048B3
:1038000000781021E4A2CDE900210290DF4803886E
:10381000DF480288DC480178E448007803F080FB48
:10382000D74800781021E2A2CDE900210290D948C2
:103830000078D549097801EB40000390D34803880C
:10384000D3480288D9480078039903F069FBCC4833
:1038500000781021DBA2CDE900210290CB4803883B
:10386000CB480288C8480178DB48007803F058FB51
:10387000C34800781021D9A2CDE900210290C548A3
:103880000078C149097801EB40000390BF480388E4
:10389000BF480288D0480078039903F041FB10200C
:1038A0000090D348006AB84903900978092302467A
:1038B000BE4802910078213003F080F8102000907B
:1038C000CB48406A0390B3480078AF49097801EBD0
:1038D0004000092302900146B44800782130039A41
:1038E00003F06CF810200090C148806AA64903904C
:1038F000097809230246B84802910078213003F084
:103900005DF810200090BA48C06A0390A148007882
:103910009D49097801EB4000092302900146AE4819
:1039200000782130039A03F049F8B2480078032860
:1039300021D1934800781021AFA2CDE90021029057
:1039400092480388924802888F48017880319748CE
:103950000078401D03F0E4FA10200090A448806B2A
:103960000923024603908848017880318F48007807
:10397000213003F023F8824800781021A4A2CDE979
:10398000002102908348007800EB40007E490978CE
:1039900001EB4000083880B203907C4803887C48E3
:1039A0000288824800783230039903F0B9FAE720A0
:1039B000714908804FF6FF70704908802020009000
:1039C0007448007800EB40006F49097801EB400033
:1039D000123880B2022303909048B0F90020734857
:1039E00000789630039903F0C0F84FF6FF706249F3
:1039F0000880E7206149088061480078102188A28A
:103A0000CDE9002102906348007800EB40005E4958
:103A1000097801EB4000083880B203905B480388C6
:103A20005B480288FA20039903F07AFA1FBDFEB5BD
:103A300005460E46E72000907A48028814230021AC
:103A4000084602F09FFD0120102177A21F23CDE937
:103A5000002102904FF6FF720221002003F0E4FAE9
:103A60004FF6FF7000906F484388028814210020B1
:103A700002F088FD5F48007802280FD140480078A6
:103A800010216FA2CDE900210290404803884048F0
:103A900002881621142003F043FA12E055480078FA
:103AA00003280ED13648007810216AA2CDE9002102
:103AB000029036480388364802882821142003F0F3
:103AC0002FFA2F48007810216AA2CDE90021029038
:103AD0002E4803882E48028816214FF4877003F081
:103AE0001FFAFFF7BDFB0024EAE0E7202249088027
:103AF000022C1EDA322767434237DFF894C19CF864
:103B000000C067441037BBB2614F3F7807F5E672DB
:103B1000322767434237DFF878C19CF800C0A7EB33
:103B20000C07B9B25A4F3F78C7F5D27002F0B6FD14
:103B30001DE0322767434237DFF854C19CF800C0CC
:103B400067441037BBB2524F3F7807F5E272322715
:103B500067434237DFF838C19CF800C0A7EB0C0779
:103B6000B9B24B4F3F78C7F5D27002F097FD0448C9
:103B70000078102147A28FE0BCD10020BED10020E8
:103B8000A9D000206D206D00DBD00020A4D0002043
:103B9000A6D00020D9D000207431323A2020202035
:103BA0002020202020206D7300000000DAD00020AB
:103BB0007433343A202020202020202020206D73D0
:103BC000000000007631323A2020202020202020E2
:103BD00020206D6D2F730000DCD000207633343A46
:103BE000202020202020202020206D6D2F73000019
:103BF000D4D3002005D00020613A202020202020AE
:103C0000202020202020286D6D2F733229000000F5
:103C1000B4ABB8D0C6F7BEE0C0EB3A00E2D00020AB
:103C2000636D0000C4D30020B9E2B5E7BCC6CAB1D9
:103C3000CAFDD7D6CAB5D1E9CFB5CDB300000000D3
:103C4000CAB5D1E932A3BAB2E2C1BFCBB2CAB1CBD5
:103C5000D9B6C800CAB5D1E933A3BAB2E2C1BFD45C
:103C6000C8B1E4CBD9D4CBB6AFB5C4BCD3CBD9B6ED
:103C7000C8000000CFB5CDB3BCC6CAB1CAB1BCE460
:103C80003A202020202020202020206D73000000DA
:103C9000A8D00020F7CE00003223CDE90021029009
:103CA00004FB03F202F14201FA4A1278C2F5CA7229
:103CB00090B2F94A1388E72203F032F9601CC4B2CB
:103CC000052CFFF612AF00201021F44A0346CDE97F
:103CD000002102904FF6FF724FF4987103F020F923
:103CE000FEBD10B5FFF73DF8EA480078C0F5D27088
:103CF000EB49098A884221DAE948018AE5480078D7
:103D000000F5E270814219DAE2480078C0F17400EF
:103D1000E349498A884211DAE148418ADD4800785E
:103D2000843081420ADADF48007838B10020DD496A
:103D300008704FF40060FDF722FE25E0D5480078BA
:103D4000C0F5D270D649098A88421ADAD448018A65
:103D5000D048007800F5E270814212DACD48007850
:103D6000C0F17400CE49498A88420ADACC48418AB7
:103D7000C84800788430814203DACB4800680128C3
:103D800002D10120C7490870C2480078C0F5D2703E
:103D9000C349098A884221DAC148018ABD480078AE
:103DA00000F5E270814219DABA480078C0F14200A9
:103DB000BB49498A884211DAB948418AB548007836
:103DC000523081420ADAB948007838B10020B74948
:103DD00008704FF48060FDF7D2FD25E0AD48007813
:103DE000C0F5D270AE49098A88421ADAAC48018A15
:103DF000A848007800F5E270814212DAA548007800
:103E0000C0F14200A649498A88420ADAA448418A98
:103E1000A04800785230814203DAA34800680128A4
:103E200002D10120A149087010BD3EB50446A0484A
:103E30000078022803D09E480078032817D1012C6F
:103E400016D1FFF70DFA9B48007810219AA248F28C
:103E50001003CDE9002102904FF6FF724FF48571F7
:103E60004FF4D27003F05CF800209149087076E3BB
:103E7000022C5FD192480078012829D1914800880E
:103E8000401C00B28F490880E7208F4908804FF618
:103E9000FF708E4908808B48B0F90000632802DD6E
:103EA000C820884908802020009089480078AC30DC
:103EB00081B202238348B0F90020DC2002F055FED5
:103EC0004FF6FF7080490880E7208049088046E36C
:103ED00080480088401C00B27E490880E7207A496B
:103EE00008804FF6FF70794908807A48B0F90000E1
:103EF000632802DD00207749088020200090764862
:103F0000007800EB4000724A127802EB4000123851
:103F100081B202236F48B0F90020704800789630D3
:103F200002F023FE4FF6FF7067490880E7206749DB
:103F3000088014E3042C5FD161480078012829D15E
:103F400060480088401E00B25E490880E7205E4954
:103F500008804FF6FF705D4908805A48B0F90000AC
:103F6000002802DA00205749088020200090584895
:103F70000078AC3081B202235248B0F90020DC2036
:103F800002F0F3FD4FF6FF704F490880E7204F49DC
:103F90000880E4E24F480088401E00B24D49088086
:103FA000E720494908804FF6FF7048490880494892
:103FB000B0F90000002802DA0020464908802020DD
:103FC00000904548007800EB4000414A127802EB2F
:103FD0004000123881B202233E48B0F900203F4829
:103FE0000078963002F0C1FD4FF6FF703649088028
:103FF000E72036490880B2E2802C14D1FFF730F96F
:104000002C480078102136A248F21003CDE9002197
:1040100002904FF6FF72A6214FF4D27002F080FF9B
:1040200002F009F99BE2B4F5807F1AD14FF6FF70D8
:1040300001F0AAFC02F008F900210846FFF7F7FC9E
:104040001C480078102128A248F21003CDE9002175
:1040500002904FF6FF72D8214FF4D27002F060FF49
:104060007DE2402C44D1FFF7FBF812480078102184
:1040700011A248F21003CDE9002102904FF6FF7221
:104080004FF485714FF4D27002F04AFF00200849C6
:10409000087064E2A8D00020A4D00020BCD000208A
:1040A000C4D10020DDD0002028812342DED00020B2
:1040B00005D00020A9D00020B7B5BBD80000000073
:1040C000E4D00020E0D00020BCD10020BED10020F0
:1040D000DBD00020E2D00020D9D00020DAD00020B0
:1040E000BFAACABC00000000C7E5C1E30000000091
:1040F000B4F5801F10D1FD480078012804D1FC4898
:104100000068FC4908602AE20120FB490870F84871
:104110000068F849086022E2B4F1807F31D1F348A9
:10412000007801289CD1F2480068F2490968401AD9
:10413000F2490860F248B0F900004FF47A71484340
:10414000EE490968B0FBF1F0EC49086110200090DD
:104150000846EC4B1B78194609230268EA480078A8
:104160001C3002F02BFC10200090E448E54B1B783B
:10417000194609230269E54800781C3002F01EFC4C
:10418000EDE1B4F5001F3DD1D8480078012804D1F5
:10419000D7480068DE490860E1E1D7480078002888
:1041A000B1D00020D4490870D1480068D1490968CD
:1041B000401AD2490862D748B0F9000042F21071A3
:1041C0004843CE49096AB0FBF1F0CC49886210201F
:1041D00000900846CB4B1B7819460923026ACA484F
:1041E0000078213002F0EAFB10200090C348C54B54
:1041F0001B7819460923826AC4480078213002F0EE
:10420000DDFBACE1B4F1007F50D1B8480078012863
:10421000B6D1B7480068BE490968401AB749486036
:10422000B748B0F900004FF47A714843B349496880
:10423000B0FBF1F0B1494861102000900846426897
:10424000B5480078AF4B1B78C1180923AE480078F9
:104250001C3002F0B3FB10200090A8484269AE4821
:104260000078A84B1B78C1180923A84800781C3097
:1042700002F0A4FBA948007803288DD19F4840692B
:104280009E490969401A9D4908631020009008461C
:10429000026BA14800789B4B1B7803EB800109233C
:1042A000994800781C3002F089FB58E1B4F5000F02
:1042B00010D18E480078012804D18D4800689849B3
:1042C00008604CE101208C490870894800689449D5
:1042D000086044E1B4F1006F37D1844800780128C8
:1042E0008FD1834800688E490968401A83498860E5
:1042F0008348B0F900004FF47A7148437F498968D8
:10430000B0FBF1F07D49886110200090084682687A
:10431000814800787B4B1B7803EB400109237A48E6
:1043200000781C3002F04AFB10200090734882692C
:1043300079480078734B1B7803EB400109237348DD
:1043400000781C3002F03AFB09E1B4F5800F5BD134
:1043500066480078012804D1654800687149086002
:10436000FDE06548007800289FD000206249087071
:104370005F4800686A490968401A604948626548B0
:10438000B0F9000042F2107148435C49496AB0FB41
:10439000F1F05A49C862102000900846426A5E480F
:1043A0000078584B1B7803EB4001092356480078EE
:1043B000213002F003FB102000905048C26A56489A
:1043C0000078504B1B7803EB400109234F480078DD
:1043D000213002F0F3FA51480078032813D14748FE
:1043E000C06A4649896A401A44498863102000908F
:1043F00008460923826B434801788031424800789F
:10440000213002F0DBFAAAE0B4F1806F54D13748D2
:10441000007801284FD13648006842490968401A9F
:104420003649C8603648B0F900004FF47A71484305
:104430003249C968B0FBF1F03049C86110200090E2
:104440000846C2683448007800EB40002D4B1B78CA
:10445000C11809232C4800781C3002F0AFFA102054
:1044600000902648C2692C48007800EB4000254B9C
:104470001B78C1180923254800781C3002F09EFAE9
:104480002648007803286AD11C48C0691B498969FD
:10449000401A1A494863102000900846426B1E4893
:1044A0000078184B1B7803EB80010923174800782C
:1044B000263002F083FA52E0B4F5806F36D1012045
:1044C0000A4908704FF6FF701749009049881E3955
:1044D0008BB20D4909781E3988B24FF4B972094977
:1044E000097802F04FF8FEF7BBFE38E0E4D0002078
:1044F000F4D10020ACD00020DFD00020D4D30020A5
:10450000E0D00020DBD00020DAD00020DCD000207A
:10451000B0D00020E2D00020D9D0002005D000206B
:10452000B4D00020B8D00020C4D30020B4F5006F70
:1045300015D10220174908704FF6FF7016490090F8
:1045400049881E398BB2154909781E3988B24FF453
:10455000B9721349097802F015F8FEF781FE20467A
:104560003EBD10B50F49AFF23D70FDF7EEF910BD3D
:1045700010B500210846FFF75AFA10BD10B54FF6E6
:10458000FF7001F001FA01F05FFE0120014908709F
:1045900010BD0000E4D00020C4D30020DAD00020F9
:1045A000DBD00020C70DF00F10B5FEF745FA10BDA7
:1045B000FEB505460E46E7200090FE48028814230B
:1045C0000021084601F0DEFF01201021FAA21F237E
:1045D000CDE9002102904FF6FF720221002002F087
:1045E00023FD4FF6FF700090F248438802881421A3
:1045F000002001F0C7FFF64800781021F5A2CDE9B0
:1046000000210290F9480388F948028828211420E3
:1046100002F086FCEE4800781021F6A2CDE90021D8
:104620000290F2480388F248028828214FF48770EC
:1046300002F076FC4FF6FF70F5490880E720F54957
:104640000880E34800781021F3A2CDE90021029010
:10465000E6480388E6480288FB480178FB48007872
:1046600002F05EFCDA4800781021F9A2CDE90021C1
:104670000290F5480078F84A12788118DB480388E0
:10468000DB480288F148007802F04AFC10200090D4
:10469000F2480268EC480078EF4B1B78C1180623FB
:1046A000EA480078403002F089F9C94800781021C2
:1046B000EBA2CDE900210290E3480078E64A1278A7
:1046C0008118CA480388CA480288E04800788230C6
:1046D00002F026FC10200090E0484268DA4800789A
:1046E000DD4B1B78C1180623D8480078C23002F091
:1046F00065F9B74800781021DBA2CDE900210290CE
:10470000D1480078D44A12788118B8480388B8484C
:104710000288CE48007800F5827002F001FC10207B
:104720000090CE488268C8480078CB4B1B78C118EF
:104730000623C648007800F5A27002F03FF9A448AD
:1047400000781021CAA2CDE900210290C248007869
:10475000BD4A127802EB4001A4480388A4480288AD
:10476000BA48007802F0DCFB994800781021B8A222
:10477000CDE900210290B848007800EB4000B24A31
:10478000127881189948038899480288AF480078C0
:1047900002F0C6FB10200090B048C268AE48007816
:1047A00000EB4000A84B1B78C1180623A7480078EF
:1047B000403002F003F9864800781021A8A2CDE924
:1047C00000210290A448007800EB40009E4A127835
:1047D000811886480388864802889C480078823081
:1047E00002F09EFB102000909C4802699A480078D5
:1047F00000EB4000944B1B78C118062393480078C7
:10480000C23002F0DBF872480078102196A2CDE9A0
:10481000002102909048007800EB40008A4A12780C
:10482000811872480388724802888848007800F529
:10483000827002F075FB102000908848426986481B
:10484000007800EB4000804B1B78C11806237F489E
:10485000007800F5A27002F0B1F85D4800781021F0
:104860008FA2CDE900210290604803886048028849
:104870004FF498714FF4BE7002F052FB10200223E7
:104880000090894802784FF498714FF4D67002F086
:10489000E9F84F480078102184A2CDE90021029068
:1048A00052480388524802884FF498714FF4DE70E2
:1048B00002F036FBE72056490880674A127802EB7F
:1048C0004202614C2478224402F125035E4A1278A8
:1048D000153A91B25D4A1278521F90B25B4A127833
:1048E00002F2791201F0DAFE39480078102170A244
:1048F000CDE9002102903D4803883D48028840F2FE
:104900001111002002F00CFB31480078102174A234
:10491000CDE90021029035480388354802885621A8
:104920004FF4C87002F0FCFA7048007880B1284853
:10493000007810216EA2CDE9002102902B48038857
:104940002B48028874214FF4CD7002F0E9FA0FE091
:104950001F480078102168A2CDE900210290234869
:1049600003882348028874214FF4CD7002F0D8FAEE
:10497000FFF71AFE0024E1E0E720254908803227EE
:104980006743A637DFF878C19CF800C0674410374A
:10499000BBB25B4F3F7807F5E27232276743A63719
:1049A000DFF85CC19CF800C0A7EB0C07B9B2544F0C
:1049B0003F78A7E0C4D30020B9E2B5E7BCC6CAB1CE
:1049C000CAFDD7D6CAB5D1E9CFB5CDB30000000036
:1049D000EDD00020CAB5D1E934A3BAB2E2C1BFC557
:1049E000F6D7B2D6D0B5C4B6AFC1BF00E8D000206C
:1049F000EAD00020CFB5CDB3BCC6CAB1CAB1BCE4C1
:104A00003A20202020202020202020757300000044
:104A1000BCD10020BED10020BEADB9FDB9E2B5E7E2
:104A2000B4ABB8D0C6F7B5C43132B5C4CBB2CAB195
:104A3000CBD9B6C85631323A28B5A5CEBB3A206D8F
:104A4000206D2F732900000001D1002000D100202B
:104A5000B5DA31B4CE3A000002D100209CD3002058
:104A6000B5DA32B4CE3A0000B5DA33B4CE3A00004B
:104A7000BEADB9FDB9E2B5E7B4ABB8D0C6F7B5C4C1
:104A80003334B5C4CBB2CAB1CBD9B6C85633343A35
:104A900028B5A5CEBB3A206D206D2F7329000000EC
:104AA000BEE0C0EBA3BA000031D1002020636D004E
:104AB000B0B4BCFC4B45595F31C7D0BBBBCBD9B6FA
:104AC000C8B7BDCFF22CB0B4BCFC4B59455F5550B4
:104AD000D4F6BCD3B4ABB8D0C6F7BEE0C0EB000090
:104AE000CBD9B6C8B7BDCFF2A3BA000030D10020F1
:104AF0003231CEAAD5FD00003132CEAAD5FD00005C
:104B0000ECD00020C7F5D27001F0C8FDDC48007879
:104B10001021DCA23223CDE90021029004FB03F234
:104B200002F1A601D84A1278C2F5CA7290B2D74AE9
:104B30001388E72202F0F4F9601CC4B2032CFFF6DC
:104B40001BAF00201021D24A0346CDE9002102907C
:104B50004FF6FF724FF4987102F0E2F9FEBD10B506
:104B6000FEF7FFF810BD3EB50446CA480078042899
:104B700017D1012C16D1FFF717FDC148007810217D
:104B8000C5A248F21003CDE9002102904FF6FF7252
:104B90004FF485714FF4D27002F0C2F90020BD4984
:104BA00008704DE1022C35D1BD480078401CBC494D
:104BB0000870087800EBD0714910A0EB4101A1B951
:104BC0000020B8490870AE4800781021AFF2D80232
:104BD000CDE900210290AD480388B34802887421D2
:104BE0004FF4CD7002F09CF92AE10120AD49087024
:104BF000A34800781021AFF20812CDE900210290FD
:104C0000A2480388A848028874214FF4CD7002F0AE
:104C100087F915E1042C16D1A4480078401CA3495B
:104C2000087008460078632801DD00200870102015
:104C3000022300909D4802784FF498714FF4D6708B
:104C400001F010FFFCE0802C14D1FFF7ADFC8C4884
:104C50000078102196A248F21003CDE900210290BD
:104C60004FF6FF72A6214FF4D27002F059F901F00D
:104C7000E2FAE5E0B4F5807F14D1FFF795FC8048B7
:104C8000007810218CA248F21003CDE90021029097
:104C90004FF6FF72D8214FF4D27002F041F901F0C3
:104CA000D3FACDE0402C16D1FFF77EFC7448007893
:104CB000102179A248F21003CDE9002102904FF6AD
:104CC000FF724FF485714FF4D27002F029F9002081
:104CD00070490870B4E0B4F5801F4FD101207849C5
:104CE000087078480068784908607848007800289B
:104CF0008FD00020754908704FF6FF707449088006
:104D0000E720744908806F48006873490968401AB1
:104D1000724908626548007842F2107148436F4951
:104D2000096AB0FBF1F06D4988620846806A6C49F7
:104D30000860002010212D22CDE900210290694A4F
:104D40001278694B1B78D118684A1278383290B2C1
:104D5000604A13885E4A128801F05EFD10200090C0
:104D60005F4802685F4800785F4B1B78C1180623D4
:104D70005E480078403001F021FE61E0B4F5001F8C
:104D80004FD10120514908704E48006852490860CF
:104D90004B480078002853D00020494908704FF64E
:104DA000FF704B490880E7204A4908804548006861
:104DB00045490968401A494908623C48007842F26E
:104DC000107148434549096AB0FBF1F043498862D4
:104DD0000846806A42490860002010212022CDE95F
:104DE000002102903F4A12783F4B1B78D1183F4A6E
:104DF0001278383290B2374A1388354A128801F057
:104E00000BFD102000903648026836480078364B7B
:104E10001B78C118062335480078403001F0CEFDDC
:104E20000EE0B4F5000F04D1264800683049086050
:104E300006E0B4F5800F03D1224800682D490860D0
:104E400020463EBD10B52C49AFF2E520FCF77DFDB4
:104E500010BD10B500210846FFF7AAFB10BD10B524
:104E60004FF6FF7000F090FD01F0EEF900200F49C1
:104E700008700C490870214908702149087010BD5C
:104E8000EDD00020F7CE0000ECD00020E8D00020CC
:104E900003D1002005D00020B7B5BBD8000000002A
:104EA00036D1002030D10020EAD0002031D10020BE
:104EB000BFAACABC00000000C7E5C1E300000000B3
:104EC00032D10020F4D10020F0D0002033D10020D6
:104ED000BCD10020BED10020F4D00020D4D30020CB
:104EE0009CD3002001D1002002D1002000D100205D
:104EF000F8D00020FCD00020C701F00F34D10020F2
:104F000035D1002010B5FDF797FD10BDFEB5054663
:104F10000E46E7200090F44802881423002108463A
:104F200001F030FB01201021F0A21F23CDE9002168
:104F300002904FF6FF720221002002F075F84FF642
:104F4000FF700090E848438802881421002001F097
:104F500019FBEC4800781021EBA2CDE9002102906A
:104F6000EC480388EC4802882821142001F0D8FF7F
:104F7000FFF7C8FF002438E0E720E849088032271F
:104F80006743A637DFF898C39CF800C06744103722
:104F9000BBB2E34F3F7807F5E27232276743A6378B
:104FA000DFF87CC39CF800C0A7EB0C07B9B2DC4F5C
:104FB0003F78C7F5D27001F071FBD248007810211C
:104FC000D8A23223CDE90021029004FB03F202F1C2
:104FD000A601D34A1278C2F5CA7290B2CD4A13889C
:104FE000E72201F09DFF601CC4B2032CC4DBC5485E
:104FF00000781021CCA2CDE900210290C548038899
:10500000C548028840F211110D2001F089FF0020EF
:105010001021CC4A0346CDE9002102904FF6FF72E1
:105020004FF4987101F07CFFFEBD10B5FDF799FEBD
:1050300010BD3EB50446C4480078052817D1012CA0
:1050400016D1FFF75FFFAF4800781021BFA248F2EA
:105050001003CDE9002102904FF6FF724FF48571E5
:105060004FF4D27001F05CFF0020B749087020E1D6
:10507000022C14D1FFF746FFA24800781021B5A2F8
:1050800048F21003CDE9002102904FF6FF72A621ED
:105090004FF4D27001F044FF01F0CDF809E1042C87
:1050A00015D1AE480078401CAC490870087800EB78
:1050B000D0714910A0EB410121B10021200703F07C
:1050C00007FCF6E00121880703F002FCF1E0802CE8
:1050D00014D1FFF717FF8B48007810219DA248F2EA
:1050E0001003CDE9002102904FF6FF72A6214FF484
:1050F000D27001F015FF01F09EF8DAE0B4F5807F80
:1051000017D1FFF7FFFE7F480078102194A248F2E4
:105110001003CDE9002102904FF6FF72D8214FF421
:10512000D27001F0FDFE01F08FF800208E4908607A
:10513000BFE0402C16D1FFF7E5FE72480078102141
:1051400082A248F21003CDE9002102904FF6FF72CF
:105150004FF485714FF4D27001F0E2FE00207A49DD
:105160000870A6E0B4F5801F09D17F480068401C94
:105170007D4908607D4800687D49086099E0B4F188
:10518000807F19D17948006879490968401A7949BE
:105190000860084600680321B0FBF1F00A21B0FB6B
:1051A000F1F201FB12007349096801EB810100EB88
:1051B0004100704908607CE0B4F5001F09D16A48DD
:1051C0000068401C68490860684800686A490860CF
:1051D0006FE0B4F1007F19D164480068664909683E
:1051E000401A64494860084640680321B0FBF1F06A
:1051F0000A21B0FBF1F201FB12005E49496801EBA4
:10520000810100EB41005B49486052E0B4F5000FBA
:1052100009D155480068401C53490860534800684C
:105220005649086045E0B4F1006F19D14F48006855
:1052300052490968401A4F4988600846806803212E
:10524000B0FBF1F00A21B0FBF1F201FB1200494979
:10525000896801EB810100EB41004649886028E044
:10526000B4F5800F09D140480068401C3E490860F1
:105270003E480068424908601BE0B4F1806F18D1D5
:105280003A4800683E490968401A3A49C8600846E9
:10529000C0680321B0FBF1F00A21B0FBF1F201FB81
:1052A00012003449C96801EB810100EB410031492A
:1052B000C86020463EBD10B53249AFF28920FCF7E8
:1052C00044FB10BD10B500210846FFF71FFE10BDBE
:1052D00010B54FF6FF7000F057FB00F0B5FF00204F
:1052E0002149086010BD0000C4D30020B9E2B5E731
:1052F000BCC6CAB1CAFDD7D6CAB5D1E9CFB5CDB300
:10530000000000003DD10020CAB5D1E935A3BABCE8
:10531000C6CAFD0038D100203AD10020BCD10020FF
:105320003CD10020F7CE0000CDA8B9FDB0B4BCFC44
:10533000204B45595F555020D4DDCDA3BACDBCCC10
:10534000D0F8000050D1002005D00020B7B5BBD860
:1053500000000000BFAACABC0000000084D10020E9
:10536000C7E5C1E30000000080D10020F4D1002097
:1053700040D10020D4D3002044D1002048D10020C7
:105380004CD10020C701F00F10B5FDF755FB10BD43
:10539000FEB505460E46E7200090D048028814234B
:1053A0000021084601F0EEF801201021CCA21F23B5
:1053B000CDE9002102904FF6FF720221002001F09A
:1053C00033FE4FF6FF700090C448438802881421D2
:1053D000002001F0D7F8C84800781021C7A2CDE915
:1053E00000210290CB480388CB4802882821142052
:1053F00001F096FDC04800781021C8A2CDE9002137
:105400000290C4480388C44802885021962001F0C5
:1054100087FDB94800781021C4A2CDE9002102908F
:10542000BC480388BC4802888221962001F078FDA0
:10543000B14800781021C2A2CDE900210290B54800
:105440000388B5480288B421962001F069FDAA4876
:1054500000781021BFA2CDE900210290AD48038859
:10546000AD480288E621962001F05AFDFFF78CFF37
:10547000002438E0E720BC49088032276743A6377C
:10548000DFF8E8C29CF800C067441037BBB2B74FE2
:105490003F7807F5E27232276743A637DFF8CCC2C0
:1054A0009CF800C0A7EB0C07B9B2B04F3F78C7F526
:1054B000D27001F0F3F8904800781021ACA23223AA
:1054C000CDE90021029004FB03F202F1A601A74AF4
:1054D0001278C2F5CA7290B28E4A1388E72201F0A0
:1054E0001FFD601CC4B2032CC4DB8348007810216C
:1054F000A0A2CDE900210290864803888648028850
:1055000040F211110D2001F00BFD00201021A04AE6
:105510000346CDE9002102904FF6FF724FF49871D7
:1055200001F0FEFCFEBD10B5FDF71BFC10BD3EB545
:10553000044698480078062817D1012C16D1FFF7A9
:1055400023FF6D480078102193A248F21003CDE9A3
:10555000002102904FF6FF724FF485714FF4D27024
:1055600001F0DEFC00208B4908709CE0022C14D175
:10557000FFF70AFF60480078102189A248F2100363
:10558000CDE9002102904FF6FF72A6214FF4D270B0
:1055900001F0C6FC00F04FFE85E0042C15D18248D6
:1055A0000078401C80490870087800EBD0714910E1
:1055B000A0EB410121B10021200703F089F972E03D
:1055C0000121880703F084F96DE0802C14D1FFF7E6
:1055D000DBFE49480078102171A248F21003CDE9A2
:1055E000002102904FF6FF72A6214FF4D27001F015
:1055F00097FC00F020FE56E0B4F5807F17D1FFF74E
:10560000C3FE3D480078102168A248F21003CDE99E
:10561000002102904FF6FF72D8214FF4D27001F0B2
:105620007FFC00206349086000F00EFE3BE0402C48
:1056300016D1FFF7A9FE30480078102156A248F293
:105640001003CDE9002102904FF6FF724FF48571EF
:105650004FF4D27001F064FC00204E49087022E043
:10566000B4F5801F05D153480068401C51490860BB
:1056700019E0B4F5001F05D14E480068401C4D49A3
:10568000086010E0B4F5000F05D14A480068401CDE
:105690004849086007E0B4F5800F04D14548006828
:1056A000401C4449086020463EBD10B54249AFF257
:1056B0008110FCF74AF910BD10B500210846FFF72C
:1056C00067FE10BD10B54FF6FF7000F05DF90020C9
:1056D0003849086000F0B8FD10BD0000C4D30020B8
:1056E000B9E2B5E7BCC6CAB1CAFDD7D6CAB5D1E9D9
:1056F000CFB5CDB3000000008BD10020CAB5D1E9F1
:1057000036A3BAB2E2C1BFD6DCC6DABACDC6B5C2DC
:10571000CA00000086D1002088D10020D6DCC6DA7D
:10572000CAFDA3BA2020202020202000CAB1BCE45A
:1057300020743D2020202020202020206D73000098
:10574000D6DCC6DA20543D20202020202020202036
:105750006D730000C6B5C2CA20663D2020202020FF
:1057600020202020487A0000BCD100208AD10020CF
:10577000F7CE0000CDA8B9FDB0B4BCFC204B455914
:105780005F555020D4DDCDA3BACDBCCCD0F80000FD
:105790008CD1002005D00020B7B5BBD80000000098
:1057A000BFAACABC00000000BAD10020C7E5C1E30F
:1057B00000000000B4D30020C701F00F08B501219C
:1057C000442002F05DF81820ADF8000048208DF864
:1057D000030069462F4801F097FD0120ADF8000055
:1057E00028208DF8030069462B4801F08DFD08BD87
:1057F00010B5044614B101202849087027480078E4
:1058000088B31021234801F012FE50B1082121482D
:1058100001F00DFE28B101211F4801F008FE01280A
:1058200022D10A20FBF7D1FE00201C49087010216C
:10583000184801F0FCFD18B90120FCF7A0F827E09A
:105840000821144801F0F3FD18B90220FCF797F87D
:105850001EE00121104801F0EAFD012818D10420C2
:10586000FCF78DF814E0FFE710210A4801F0DFFD96
:1058700001280DD10821074801F0D9FD012807D1E1
:105880000121054801F0D3FD10B90120034908703A
:1058900010BD00000018014000080140BBD10020ED
:1058A000FE4908807047FD49891C0880704700B593
:1058B00002461046FFF7F7FF00BDF84A1080921C21
:1058C0001180704700B5F6490889FFF7E9FF00BD70
:1058D00000B502460B46F2494889FFF7E1FF101276
:1058E000FFF7E1FFD0B2FFF7DEFF511C0812FFF710
:1058F000DAFF511C88B2FFF7D6FFE9498889FFF724
:10590000CFFF1812FFF7CFFFD8B2FFF7CCFF591C1B
:105910000812FFF7C8FF591C88B2FFF7C4FFFFF752
:10592000D1FF00BD30B504460D4629462046FFF79D
:10593000CFFFDC480088FFF7B6FF30BD30B5044626
:105940000D46D7494889FFF7ABFF2012FFF7ABFFA1
:10595000E0B2FFF7A8FF1012FFF7A5FFD0B2FFF7E4
:10596000A2FFCF498889FFF79BFF2812FFF79BFF13
:10597000E8B2FFF798FF1812FFF795FFD8B2FFF7CC
:1059800092FFFFF79FFF30BD70B50446002500264B
:10599000C3484088401E83B2C1480088401E82B27E
:1059A00000210846FFF7CAFF00BF08E0002503E01A
:1059B000BA48801C04806D1CA02DF9D3761CB6F566
:1059C000707FF3D370BD00B59FB00121080201F0D4
:1059D0004AFF012140F2791001F052FF0120ADF899
:1059E000780010208DF87B0003208DF87A001EA926
:1059F000AD4801F089FC4CF23370ADF87800182006
:105A00008DF87B0003208DF87A001EA9A74801F0CD
:105A10007BFC4FF68070ADF8780018208DF87B0085
:105A200003208DF87A001EA9A14801F06DFC41F217
:105A30000100ADF8780018208DF87B0003208DF868
:105A40007A001EA99B4801F05FFC0120089000200D
:105A500009900F200A9000200B900C900D900E9052
:105A60000220019000200290052003900020049065
:105A700005900690079006200F900020109011903E
:105A800010201290002013901590149016901790EB
:105A90004FF480501890002019904FF480401A90D5
:105AA00000201B9008A81C9001A81D900FA801F0D1
:105AB00097FF0121062002F0FBF81FB000BD00B5E2
:105AC0002A20774948812B2088812C2008810120B9
:105AD00088714FF4F07008804FF4A0704880A821BE
:105AE0003620FFF7EAFE00BD10B5FFF76CFFF1208E
:105AF000FFF7D6FE3620FFF7D6FE0420FFF7D3FED1
:105B00000020FFF7D0FE3C20FFF7CDFE0F20FFF76F
:105B1000CAFE8F20FFF7C7FEF220FFF7C1FE182054
:105B2000FFF7C1FEA320FFF7BEFE1220FFF7BBFE6A
:105B30000220FFF7B8FEB220FFF7B5FE1220FFF7F4
:105B4000B2FEFF20FFF7AFFE1020FFF7ACFE0020F3
:105B5000FFF7A9FEF820FFF7A3FE2120FFF7A3FE21
:105B60000420FFF7A0FEF920FFF79AFE0020FFF7C0
:105B70009AFE0820FFF797FE3620FFF791FE0820D7
:105B8000FFF791FEB420FFF78BFE0020FFF78BFE9E
:105B9000B620FFF785FE0220FFF785FE2220FFF7E3
:105BA00082FEC120FFF77CFE4120FFF77CFEC5206E
:105BB000FFF776FE0020FFF776FE1820FFF773FE52
:105BC000E020FFF76DFE0F20FFF76DFE1F20FFF7AF
:105BD0006AFE1C20FFF767FE0C20FFF764FE0F2013
:105BE000FFF761FE0820FFF75EFE4820FFF75BFE2F
:105BF0009820FFF758FE3720FFF755FE0A20FFF7E1
:105C000052FE1320FFF74FFE0420FFF74CFE112039
:105C1000FFF749FE0D20FFF746FE0020FFF743FE89
:105C2000E120FFF73DFE0F20FFF73DFE3220FFF79A
:105C30003AFE2E20FFF737FE0B20FFF734FE0D2033
:105C4000FFF731FE0520FFF72EFE4720FFF72BFE62
:105C50007520FFF728FE3720FFF725FE0620FFF707
:105C600022FE1020FFF71FFE0320FFF71CFE24205A
:105C7000FFF719FE2020FFF716FE0020FFF713FEA6
:105C80003A20FFF70DFE5520FFF70DFE1120FFF71C
:105C900007FE3620FFF704FEC8200DE0FE07006C6B
:105CA000C4D30020BCD10020000C014000140140EE
:105CB0000018014000200140FFF7F5FD7820FBF7B8
:105CC00084FC2920FFF7ECFDFFF7F9FE4FF6FF708B
:105CD000FFF75AFE01200149086010BD8081214272
:105CE000002100BF14E000F080021AB10122FA4B3B
:105CF0001A6002E00022F84B1A604206100E0022E1
:105D0000F64B1A600122F64BC3F884214A1CD1B22B
:105D10000829E8DB704770B50646002500240020FE
:105D2000EE490860EF49C1F8A401EB490831086069
:105D30003046FFF7D5FF0620FBF723FC0020E8499B
:105D4000C1F884010120FBF71CFC0120E349086035
:105D50000020E349C1F8840100BF12E04FF6FF7054
:105D600000EA44040020DD4908600120DC49C1F854
:105D70008401DA487C38006808B1601C84B2681C71
:105D8000C5B2102DEADB24110120D3490831086087
:105D9000204670BD2DE9FE4380460027002406E022
:105DA0004046FFF7B8FF2DF81400601C84B2052CA4
:105DB000F6DB002416E0601C85B20FE03DF814000D
:105DC0003DF81510884207DD3DF814603DF81500D8
:105DD0002DF814002DF81560681C85B2052DEDDB3B
:105DE000601C84B2042CE6DB0027012405E03DF8AA
:105DF0001400384487B2601C84B2042CF7DB032003
:105E000097FBF0F086B23046BDE8FE832DE9F04105
:105E100004460D46B4480078FFF7BCFF0646B34879
:105E20000078FFF7B7FF074626802F800120BDE8E6
:105E3000F0817FB504460D4602A903A8FFF7E6FFEF
:105E4000064616B9002004B070BD694601A8FFF7E8
:105E5000DDFF06460EB90020F5E7BDF80400BDF8E9
:105E60000C10884206DCBDF80C10BDF8040032307E
:105E700081420CDBBDF80C00BDF80410884236DC12
:105E8000BDF80410BDF80C00323081422FDABDF8A5
:105E90000000BDF80810884206DCBDF80810BDF807
:105EA0000000323081420CDBBDF80800BDF8001064
:105EB00088421CDCBDF80010BDF808003230814279
:105EC00015DABDF80C10BDF80420881800EBD0716D
:105ED000C1F34F012180BDF80810BDF800208818DB
:105EE00000EBD071C1F34F0129800120ABE7002006
:105EF000A9E7F8B504460D4616467D48068004F12C
:105F00000D018AB2193988B22B46294600F06EFB82
:105F100005F10D0083B2193881B22246204600F007
:105F200065FB6A1C91B2621C90B2FFF7FBFC6A1C15
:105F300091B2621E90B2FFF7F5FC6A1E91B2621C2C
:105F400090B2FFF7EFFC6A1E91B2621E90B2FFF7AB
:105F5000E9FC002006230090654802882946204677
:105F600000F00DFCF8BD70B504460D4616466048BD
:105F7000068029462046FFF7D5FC611C88B22946D9
:105F8000FFF7D0FC681C81B22046FFF7CBFC6A1CEF
:105F900091B2621C90B2FFF7C5FC70BD2DE9F041D3
:105FA00004464D487C380068002853D124B151493B
:105FB000881EFFF73EFF3CE04E49881EFFF739FF81
:105FC000B8B34C491239B1F9200003F063F8074621
:105FD00048491239088A03F075F880464548123856
:105FE0008169404603F082F80646394602F0D0FF48
:105FF000054603F02FF83F4912390882B1F9220013
:1060000003F048F807463B491239488A03F05AF82A
:10601000804638481238C169404603F067F80646A2
:10602000394602F0B5FF054603F014F8314912393C
:10603000488230481238007D00F0800010BBC0203C
:106040002C49123908750846008A88810846408A1A
:10605000C88117E027481238007D00F0800040B169
:1060600024481238007D20F080002249123908753A
:1060700008E000201F4912398881C8814FF6FF705F
:10608000088248821B481238007D00F08000BDE87D
:10609000F08119481749123988611848C8616FF0B2
:1060A0001E0008846FF012004884012081F824004B
:1060B000084690F8240030B190200B490870D02099
:1060C0000A49087005E0D020074908709020074968
:1060D0000870012070470000A4812342848121427E
:1060E0000080214200802342ECD10020EDD100202D
:1060F000BCD10020D6D10020A75C043EE9A1AF3D71
:1061000008B50121882001F0BBFB0220ADF800009A
:1061100010208DF8030003208DF802006946234803
:1061200001F0F2F80221214801F09BF94FF40060E0
:10613000ADF8000010208DF8030003208DF8020058
:1061400069461B4801F0E0F84FF40061184801F07F
:1061500088F94FF40070ADF8000010208DF80300AE
:106160006946134801F0D0F84FF40071104801F06F
:1061700078F94FF48060ADF8000048208DF80300F6
:1061800069460B4801F0C0F80420ADF80000482033
:106190008DF803006946054801F0B6F80549881EE8
:1061A000FFF734FEFFF775FF012008BD000C01402A
:1061B000001C0140D6D1002008B50121482001F083
:1061C0005FFB2020ADF8000010208DF803000320B5
:1061D0008DF8020069460C4801F096F820210A4823
:1061E00001F03FF92020ADF8000010208DF80300E9
:1061F00003208DF802006946044801F085F820214B
:10620000024801F02EF908BD000C014000180140C1
:1062100008B50121042001F033FB3C20ADF800005B
:1062200028208DF8030003208DF802006946694894
:1062300001F06AF808BD10B50121880702F048FB9B
:1062400001206549087010BD10B500214FF0804055
:1062500002F03EFB0020614908605F490870604918
:10626000086048608860C860086248628862C862E6
:10627000086148618861C86108634863886310BD2C
:106280000EB5FFF7C5FF0121084601F0F9FA072115
:10629000002001F04FF93C20019000208DF808000B
:1062A00010208DF8090001A801F062FE08208DF889
:1062B000000000208DF8010001208DF802008DF80B
:1062C0000300684600F057FF09208DF80000002009
:1062D0008DF8010002208DF8020001208DF80300E6
:1062E000684600F048FF0A208DF8000000208DF875
:1062F000010003208DF8020001208DF8030068469C
:1063000000F039FF17208DF8000000208DF8010003
:1063100004208DF8020001208DF80300684600F08B
:106320002AFF0EBD10B52C48007868B10421294819
:1063300001F07DF8012803D10006FBF720FB03E004
:106340004FF48010FBF71BFB042001F088FE10BD0A
:1063500010B52148007868B108211E4801F067F89F
:10636000012803D14006FBF70AFB03E04FF40010BD
:10637000FBF705FB082001F072FE10BD10B51648B2
:10638000007868B11021134801F051F8012803D1B9
:106390008006FBF7F4FA03E04FF48000FBF7EFFA16
:1063A000102001F05CFE10BD10B50B48007868B1FC
:1063B0002021084801F03BF8012803D1C006FBF773
:1063C000DEFA03E04FF40000FBF7D9FA202001F0D9
:1063D00046FE10BD00080140EED10020F4D100209F
:1063E000D4D300207FB505460C460121084601F0B4
:1063F00054FAADF80850ADF804400020ADF80A009A
:10640000ADF8060001A94FF0804001F005FF012220
:106410001146900702F077FA1C208DF8000000204A
:106420008DF8010003208DF8020001208DF8030093
:10643000684600F0A0FE7FBD10B50121880702F07C
:1064400010FD40B10121880702F01CFD42480068A0
:10645000401C4149086010BD30B589B005460C4666
:106460000121022001F019FA0121092001F008FAA6
:1064700001213A4801F019F82020ADF82000182039
:106480008DF8230003208DF8220008A9344800F07D
:106490003BFFADF81850ADF814400020ADF81A00DD
:1064A000ADF8160005A92F4801F0B6FE7020ADF832
:1064B00004000120ADF806000020ADF80A00ADF898
:1064C0000C0001A9274801F026FF0821254802F009
:1064D00038FB0121234802F0FBFA0121214802F098
:1064E000F7F909B030BD7FB505460C4601210420FF
:1064F00001F0D3F9ADF80850ADF804400020ADF834
:106500000A00ADF8060001A9174801F085FE012236
:106510001146154802F0F7F91E208DF80000022000
:106520008DF801008DF8020001208DF80300684607
:1065300000F021FE01210C4802F0CAF97FBD10B520
:106540000121094802F08DFC28B10121064802F022
:1065500099FCFBF7F0F810BDF4D1002000081A00F8
:10656000000C0140000400400008004070B50546E2
:106570000E46144631462846FFF7AAF92046FFF793
:1065800096F970BD2DE9F84F06460F4614461D4694
:10659000DDF82890A01B401C1FFA80FAE81B401C65
:1065A0001FFA80FB0BFB0AF00090681E83B2601E8E
:1065B00082B239463046FFF7C1F94FF0000804E0D7
:1065C000F848A0F8009008F1010800988045F7D33A
:1065D000F5484088401E83B2F3480088401E82B2CE
:1065E00000210846FFF7AAF9BDE8F88F2DE9FF4F13
:1065F00085B081468A460020049003900798A0EB5E
:1066000009050898A0EB0A06CDF80890CDF804A07B
:10661000002D01DD012705E00DB9002702E04FF054
:10662000FF376D42002E02DD4FF0010806E016B97B
:106630004FF0000802E04FF0FF387642B54201DD2E
:106640002C4600E034464FF0000B21E0019A91B255
:10665000029A90B2FFF766F90498284404900398D0
:10666000304403900498A04205DD0498001B049078
:106670000298384402900398A04205DD0398001B5D
:1066800003900198404401900BF101001FFA80FB38
:10669000601C8345DADD09B0BDE8F08F2DE9F041DB
:1066A00004460D4616461F462B46324629462046CE
:1066B000FFF79CFF3B46224629462046FFF796FF00
:1066C0003B46324639462046FFF790FF3B4632466E
:1066D00029463046FFF78AFFBDE8F081F8B5044649
:1066E0000D4616461F46B14800883B4632462946AD
:1066F00000902046FFF746FFF8BD2DE9F041044623
:106700000D4616461F46DDF81880EA1991B2A21907
:1067100090B24246FFF72AFFEA1991B2A21B90B24B
:106720004246FFF723FFEA1B91B2A21990B24246FC
:10673000FFF71CFFEA1B91B2A21B90B24246FFF783
:1067400015FFAA1991B2E21990B24246FFF70EFF67
:10675000AA1991B2E21B90B24246FFF707FFAA1BAB
:1067600091B2E21990B24246FFF700FFAA1B91B224
:10677000E21B90B24246FFF7F9FEBDE8F0812DE939
:10678000FF4F81B0824617469846DDF838B00024A6
:1067900045464FEA4800C0F10306BBF1000F1FD089
:1067A0001BE0A14608E04B4622460097504602995E
:1067B000FFF7A3FF09F10109A945F4DD002E04DA72
:1067C000042000FB0460861D06E0601B042101FB21
:1067D000006000F10A066D1E641CAC42E1DD18E0A9
:1067E00015E02B462246009750460299FFF785FF99
:1067F000002E04DA042000FB0460861D06E0601B06
:10680000042101FB006000F10A066D1E641CAC420D
:10681000E7DD05B0BDE8F08F2DE9FF4F83B081467D
:106820008A469346DDE91064604800880290A6F12C
:106830002000C6B204EBD47009EB6000401E82B2A7
:106840000AEB0400401E83B2514648460194FFF70C
:1068500075F8129860BB002527E00C2C07D106EBD9
:106860004600534901EB800010F8058006E0102C2B
:1068700004D1504800EB061010F8058000270DE009
:1068800008F0010018B15846FFF711F802E0069829
:10689000FFF70DF84FEA6808781CC7B204EBD47113
:1068A000B7EB610FECDB681CC5B2A542D5DB2DE070
:1068B000002529E00C2C07D106EB46003C4901EBF2
:1068C000800010F8058004E03A4800EB061010F84C
:1068D0000580002711E03548A0F800B008F001005D
:1068E00038B10AEB050291B209EB070290B2FFF74B
:1068F00019F84FEA6808781CC7B204EBD471B7EBFB
:10690000610FE8DB681CC5B2A542D3DB27490298BA
:10691000088025484088401E83B223480088401ED6
:1069200082B200210846FFF709F807B0BDE8F08FF2
:106930002DE9FE4306460F4615461C46DDF8288025
:106940001DE019480088401EB04204DB164840880C
:10695000401EB84201DABDE8FE8320788DE82101AF
:10696000154803881148028839463046FFF754FF1E
:10697000284605EBD07106EB61018EB2641C2078CD
:106980007E2802DC20782028DBDA00BFE3E710B5A0
:106990000246012000E050430B1EA1F10104E1B2C8
:1069A000F9D110BD0008006CC4D30020BCD1002078
:1069B0006E930020E2970020BED100202DE9FF4F0A
:1069C00083B0074691461E46109C4FF0000A0025F2
:1069D00043E0701B401EC1B20A20FFF7D8FFB9FB8D
:1069E000F0F00A21B0FBF1F201FB1208BAF1000F3E
:1069F0001BD1701EA84218DDB8F1000F13D1002082
:106A00002021A346CDE90014029004EBDB7149106C
:106A100001FB057188B2FD490B88FD490A8804997C
:106A2000FFF7FAFE17E04FF0010A002108F13000ED
:106A3000C0B2A346CDE90141009004EBDB714910DF
:106A400001FB057188B2F1490B88F1490A88049964
:106A5000FFF7E2FE00BF681CC5B2B542B9DB07B064
:106A6000BDE8F08F2DE9FF4F83B0074691461E46E3
:106A7000109C4FF0000A002543E0701B401EC1B27D
:106A80000A20FFF784FFB9FBF0F00A21B0FBF1F216
:106A900001FB1208BAF1000F1BD1701EA84218DDCD
:106AA000B8F1000F13D100203021A346CDE9001426
:106AB000029004EBDB71491001FB057188B2D349E8
:106AC0000B88D3490A880499FFF7A6FE17E04FF018
:106AD000010A002108F13000C0B2A346CDE901410E
