:020000040800F2
:10000000680B0020CD700008D5700008D77000087C
:10001000D9700008DB700008DD70000800000000E7
:10002000000000000000000000000000DF70000879
:10003000E170000800000000E370000827060008D7
:10004000E7700008E7700008E7700008E770000834
:10005000E7700008E7700008E7700008E770000824
:1000600095610008F16100084D620008E770000822
:10007000E7700008E7700008E7700008E770000804
:10008000E7700008E7700008E7700008E7700008F4
:10009000E7700008E7700008E7700008A962000830
:1000A000E7700008E7700008E7700008E7700008D4
:1000B00015640008E7700008B1640008E7700008E4
:1000C000E7700008E7700008E7700008E7700008B4
:1000D000E770000851700008E7700008E77000083A
:1000E000E7700008E7700008E7700008E770000894
:1000F000E7700008E7700008E7700008E770000884
:10010000E7700008E7700008E7700008E770000873
:10011000E7700008E7700008E7700008E770000863
:10012000E7700008E7700008E7700008E770000853
:1001300000F002F800F05FF80AA090E8000C82449A
:100140008344AAF10107DA4501D100F054F8AFF277
:10015000090EBAE80F0013F0010F18BFFB1A43F0A5
:100160000103184718AA000038AA00000A444FF0FB
:10017000000C10F8013B13F0070408BF10F8014B06
:100180001D1108BF10F8015B641E05D010F8016B4B
:10019000641E01F8016BF9D113F0080F1EBF10F8AF
:1001A000014BAD1C0C1B09D16D1E58BF01F801CBD2
:1001B000FAD505E014F8016B01F8016B6D1EF9D555
:1001C0009142D6D37047000000230024002500266A
:1001D000103A28BF78C1FBD8520728BF30C148BFAA
:1001E0000B607047642908F0A985002070471FB58F
:1001F0001FBD10B510BD08F0AFFE1146FFF7F7FFA9
:1002000000F008F808F0CDFE03B4FFF7F2FF03BCDE
:1002100006F0C4FE0EB500F067FB4FF4A06006F0D8
:1002200075FFB94C206880474FF4E13006F0C1FEFD
:1002300005F0FEFE05F0EFFB05F088FE05F06EFA16
:1002400005F058FF00F0B6FB00F070FA00F080FAFD
:1002500060688047AD4948604FF47A71B0FBF1F2B5
:1002600001FB1202B0FBF1F1A9A008F027FDAF4C91
:10027000DFF8BC924FF6FF76AE4DE72700F0C5FAE7
:10028000002005F068FAAC480078E0B1DFF8AC82F5
:10029000D8F80000012807D19B4840688047A8494A
:1002A00008600020C8F80000974840688047A449CB
:1002B0000968401A20600021D0F1FF3071EB010283
:1002C00001DA481E20609F48007801280AD00228E1
:1002D0000BD0032818D0042825D0052850D0062894
:1002E0007ED0FFE001F0ECF9FCE02E80A9F8007070
:1002F00010200321CDE90010082316214FF4B4701B
:10030000226806F083FBEDE02E80A9F80070102033
:100310000321CDE90010082316214FF4BC70226898
:1003200006F074FBDEE02E80A9F8007020684FF024
:10033000640AB0FBFAF24FF01008072316214FF4BD
:10034000BC70CDF8008006F0A5FA2E21CDE900188A
:1003500000200290B9F800302A8816214FF4D87096
:1003600006F0ECF920680223B0FBFAF10AFB110257
:1003700016214FF4DC70CDF8008006F0DBFAB1E016
:100380004FF0BE0A4FF0960B2F80A9F800606E4820
:100390004FF02008CDF8008002686E210723D62098
:1003A00006F075FB206869490323B0FBF1F259465A
:1003B0005046CDF8008006F06AFB0B200090B9F89B
:1003C00000302A885946EE2006F0F7FA20684FF4EC
:1003D0007A7AB0FBFAF0B0FBFAF10AFB110200E006
:1003E0001EE003235946FE20CDF8008006F04FFBA7
:1003F0000B200090B9F800302A8859464FF49770C6
:1004000006F0DBFA20680323B0FBFAF10AFB1102C5
:1004100059464FF49F70CDF8008006F038FB61E03C
:100420002E80A9F80070DFF828812268C8F818200B
:10043000B8F81C10D8F80000B0FBF1F0C8F80400C0
:10044000B2FBF0F0C8F808004249B1FBF0F100201F
:10045000C8E904104FF0100A0320DFF8B0B0CDE96E
:10046000000A9BF8000006235021403006F0CEFA27
:100470000320CDE9000A9BF80000062382214030CA
:10048000D8F8082006F0C2FA0320CDE9000A9BF84C
:1004900000000623B4214030D8F8102006F0B6FA48
:1004A000CDF800A09BF80000B8F81C2006235021CE
:1004B000EB3006F0EFF9CDF800A09BF80000062322
:1004C0008221EB30D8F8002006F0E4F9CDF800A046
:1004D0009BF800000623B42100F20310D8F8042092
:1004E00006F0D8F92F8000234FF4F07842461946E1
:1004F000184606F023F8012342461946002006F06C
:100500001DF82E80BAE60000080000200000002040
:100510000D0A53595354454D20494E4954205449CE
:100520004D453A25642E25640D0A0000580200202E
:10053000200200201E020020500200205402002051
:100540005C0200201D000020BC01002040420F0082
:100550003804002000CA9A3B30B500F00703C3F10D
:100560000704042C00D90424181D072801D20023F5
:1005700000E0DB1E012505FA04F0401E084098400B
:100580009D406D1E1540284330BD10B5042006F077
:1005900005FE5F48604A01685E48B1FBF0F01060FC
:1005A00080B24FF47A7358435060012010730020DA
:1005B00090601846B1FBF0F000F094F857480068DE
:1005C000C0F3022000220121FFF7C6FF0146BDE86B
:1005D00010404FF0FF3000F075B87047704710B50D
:1005E000042006F0DBFD4A484A490068B0FBF1F000
:1005F000494908604FF47A725043486001220A73F7
:1006000000228A6000F06EF844480068C0F30220BF
:1006100000221146FFF7A0FF0146BDE810404FF051
:10062000FF3000F04FB83C488168027B1144816084
:100630003B493C480A78002A02D10288521E0280B7
:100640000288002A03D101220A70FF21018070472D
:1006500010B531494FF0E02388689A698C6884426C
:10066000FAD14968B2FBF1F1401A10BD10B52A4920
:100670004FF0E02388689A698C688442FAD109684F
:10068000B2FBF1F100EB4002C2EBC010C1EBC000C5
:1006900010BD70B50546244C606880470544ED1ECA
:1006A00060688047A842FBD970BD70B504461E4DF6
:1006B0004FF47A7602E0E96830468847641E601C91
:1006C000F9D170BD0907090E002806DA00F00F0005
:1006D00000F1E02080F8141D704700F1E02080F860
:1006E0000014704710B5B0F1807F01D3012010BD18
:1006F00020F07F404FF0E024401E60610F21601722
:10070000FFF7E0FF0020A06107202061002010BD5E
:100710002000002040420F00800200200CED00E08D
:1007200051020020520200200800002010B500F005
:1007300086FE01F0ADF903F0DFFB04F003FB04F0EB
:10074000ABFC04F0C5FFBDE8104037A008F0B6BA16
:10075000394901204870704770B50446364D2878F5
:10076000844238D0072819D2DFE800F004070A0DC8
:100770001013160000F06CFE10E001F097F90DE088
:1007800003F0C8FB0AE003F0C5FB07E004F0E3FA5E
:1007900004E004F089FC01E004F0A2FF072C19D268
:1007A000DFE804F004070A0D1013160000F04CFEF9
:1007B00010E001F072F90DE003F0A2FB0AE003F093
:1007C0009FFB07E004F0C3FA04E004F06AFC01E0D8
:1007D00004F083FF2C7070BD17484078072813D2AF
:1007E000DFE800F00406080A0C0E100000F0D0BB91
:1007F00000F0B5BF02F0F4B802F0F2B803F0A5BD06
:1008000004F06CBB04F0B7BD704710B50B484168ED
:1008100000208847002004F09EFF07484078FFF73B
:100820009BFFBDE81040D7E766756E207061676575
:1008300020696E69740D0A001C0000202802002047
:100840000CB50022019200925248016841F48031B7
:1008500001604FF4A063016801F400310091019937
:10086000491C0191009911B901999942F3D101688C
:10087000890302D50121009100E00092009901292D
:1008800030D145490A6842F010020A600A6822F035
:1008900003020A600A6842F002020A60416841608D
:1008A00041684160416841F480614160416821F4E0
:1008B0007C114160416841F4E8114160016841F0F8
:1008C0008071016001688901FCD5416821F0030154
:1008D0004160416841F0020141604168C1F381011A
:1008E0000229FAD10CBDABE710B52A48016841F0E6
:1008F000010101604168294A114041600168284AAC
:1009000011400160016821F480210160416821F4F7
:10091000FE0141604FF41F018160FFF7E4FF2149B0
:100920004FF00060086010BD10B51A4A506800F022
:100930000C011D4B1D4800290ED004290ED008299A
:100940000ED003605168194AC1F30311121D515CA6
:100950000268CA40026010BD0360F3E70360F1E77C
:10096000516801F47011536803F48033022404EBDE
:10097000914133B153689B0307D50D4B5943016037
:10098000E0E70B4B59430160DCE7074B594301603B
:10099000D8E7000000100240002002400000FFF8ED
:1009A000FFFFF6FE08ED00E000127A0020000020B4
:1009B00000093D0010B54FF4C871184808F019FA45
:1009C000BDE8104016A008F079B910B50022134B0D
:1009D00053F8324024B1521CD2B2322AF8D310BD9F
:1009E00043F8320003EBC200416012490878401C12
:1009F000087010BD70B50024084D0E4E0AE005EBDE
:100A0000C4014968014204D055F8341088470028D1
:100A100003D0641C31788C42F1DB70BD9002002061
:100A20006576656E7420717565756520696E69748B
:100A30000D0A0000340000203EB5F94C1025F9A144
:100A4000E078CDE900150290638AA28A6178207867
:100A500006F0BFF9E078F8A1CDE9001502906078C2
:100A6000A178638A0144A28A207806F0B2F9E0787E
:100A7000F6A1CDE9001502906178A078638A01445F
:100A80000144A28A207806F0A4F9E078F7A1CDE924
:100A9000001502906178A078638A01440144014402
:100AA000A28A207806F095F9E078F6A1CDE9001544
:100AB00002906178A078638A0144014401440144B2
:100AC000A28A207806F085F9E078F1A1CDE9001539
:100AD00002906178A078638A014401440144014492
:100AE0000144A28A207806F074F9E078EEA1CDE9FD
:100AF000001502906178A078638A014401440144A2
:100B00000144014401444FF478424FF4D27006F09E
:100B100060F93EBD2DE9FE4FE54C4FF0E708CDF8FA
:100B20000080002122881423084605F0E4FC0127F8
:100B30001026E0A08DE8C1004FF6FF7A1F23524631
:100B40000221002006F0BBF9B54800231C308DE8D7
:100B5000C100524604214FF4B97006F03AF9CDF8BD
:100B600000A060882288143883B21421002005F088
:100B7000C2FC4FF00009D5A0CDE900095346E72299
:100B800064211E2006F0A5F8A54DD1A1E723E87841
:100B9000CDE9001602905246AA211E2006F019F94E
:100BA000FFF74AFF0024DFF834A305F1160BAAF87B
:100BB00000806878A97895F800C001FB04012879C5
:100BC00000F110020A4493B21BF80420091A0CEB3E
:100BD00002120244ACEB0000383289B280B205F058
:100BE000F9FCE878BEA1CDE9001602906878A978F2
:100BF0006B8A04FB010081B22878E722283880B292
:100C000006F0E7F8641CE4B2062CD0D3A878697823
:100C100000EB40002A7901EB40008318801A81B272
:100C2000103302F5E2724FF4CD7005F0D3FC7C482E
:100C3000002328308DE841024FF6FF724FF498717F
:100C4000184606F0C6F8A7480760BDE8FE8FFEB557
:100C50000646734D6E71FFF7EFFE6979002310248D
:100C60004FF6FF7201290ED0022918D0032924D093
:100C7000042931D005293FD006294ED008295ED05D
:100C800009295ED06FE06B74E87866A1CDE90014A5
:100C90000290E7236978287806F09BF863E06B748C
:100CA000E87865A1CDE9001402906878A978E72377
:100CB0000144287806F08DF855E06B74E87863A15C
:100CC000CDE9001402906978A878E7230144014433
:100CD000287806F07EF846E06B74E87863A1CDE9E9
:100CE000001402906978A878E72301440144014484
:100CF000287806F06EF836E06B74E87861A1CDE9EB
:100D0000001402906978A878E72301440144014463
:100D10000144287806F05DF825E06B74E8785CA162
:100D2000CDE9001402906878A978E72308440844C4
:100D3000084408440144287806F04BF813E06B742B
:100D400011E0E87858A1CDE9001402906878A978FC
:100D5000E7230844084408440844084401444FF485
:100D6000D27006F036F86979A879814205D1082950
:100D700005D0092903D05C480670A971FEBD092978
:100D8000FBD1687C401CC0B268740228F5D1584A77
:100D900056481060F1E72DE9F041044652480078CA
:100DA000002824D11E4D0023012695F90F002A7C2E
:100DB000411E012C1CD0022C28D00627042C26D042
:100DC000B4F5805F24D0B4F5005F22D0B4F5804F35
:100DD00020D0B4F5004F1ED0B4F5803F1CD0B4F540
:100DE000003F1AD0B4F5802F18D0202C17D0CCE0BB
:100DF00048B2E873012800DAEE7395F90F00012874
:100E000079D02E74C0B2FFF722FFBEE079E07EE019
:100E100092E096E09BE0A0E0A5E0AAE0AEE0B1E0C1
:100E200036000020CAB5D1E931A3BAB2E2C1BFB5DC
:100E3000B2B9E2CAB1BCE400CAB5D1E932A3BAB2D0
:100E4000E2C1BFCBB2CAB1CBD9B6C800CAB5D1E9ED
:100E500033A3BAB2E2C1BFD4C8B1E4CBD9D4CBB6C4
:100E6000AFB5C4BCD3CBD9B6C8000000CAB5D1E970
:100E700034A3BAB2E2C1BFC5F6D7B2D6D0B5C4B6B4
:100E8000AFC1BF00CAB5D1E935A3BABCC6CAFD001F
:100E9000CAB5D1E936A3BAB2E2C1BFD6DCC6DABA66
:100EA000CDC6B5C2CA000000CDCBB3F6000000002D
:100EB00058040020B9E2B5E7BCC6CAB1CAFDD7D60E
:100EC000CAB5D1E9CFB5CDB300000000BBD5000055
:100ED000C6BDB4A8D6D0D1A7000000001E020020D5
:100EE000F7CE0000808121421D0000200400FA0599
:100EF0000CED00E0FFE71AB32B740120FFF7A7FE0B
:100F000043E0062941D2C0B2FFF7A1FE3DE0401CFC
:100F100040B2E873062800DDEF7395F90F0006284C
:100F200004D02E74C0B2FFF792FE2EE042B12B74B3
:100F30000620FFF78CFE28E00120FFF788FEEE7305
:100F400023E00220FFF783FE0220E8731DE0032068
:100F5000FFF77DFE0320E87317E00420FFF777FE1C
:100F60000420E87311E00520FFF771FE0520E87307
:100F70000BE00620FFF76BFEEF7306E00820FFF79B
:100F800066FE02E00920FFF762FE2046BDE8F08120
:100F90002DE9F05FDFF82484DFF8249408F11604CB
:100FA00098F8002098F804002378A2EB000A02EBDE
:100FB0000312434602445B78B9F81010A3EB000C0F
:100FC00003444846383210330025FE4E0127408A3C
:100FD0008A4510DA91420ED284450CDA98420AD240
:100FE00098F807B0BBF1000F05D088F80750380318
:100FF000FFF700FD0DE08A4509DA914207D28445EA
:1010000005DA984203D2D6F82801012801D188F8E0
:10101000077098F8002098F80400B9F81010131A17
:101020008B4224DA94F801C002EB0C1C84440CF1CE
:10103000380C61451BD298F801C098F802A0D4443E
:10104000B9F812A0ACEB000BD34510DA84440CF1D4
:10105000100CE2450BD298F808C0BCF1000F06D086
:1010600088F808504FF40050FFF7C4FC1CE08B4296
:1010700018DA637802EB031202443832914211D23B
:1010800098F8011098F802200A44B9F81210131ABF
:101090008B4207DA10441030814203D2D6F828017F
:1010A000012801D188F8087098F8002098F8040009
:1010B000B9F81010131A8B4225DA94F802C002EB2B
:1010C0000C1C84440CF1380C61451CD298F801C00A
:1010D00098F802A00CEB4A0CB9F812A0ACEB000B8C
:1010E000D34510DA84440CF1100CE2450BD298F889
:1010F00009C0BCF1000F06D088F809504FF48040B9
:10110000FFF778FC1DE08B4219DAA37802EB03129B
:1011100002443832914212D298F8011098F8022015
:1011200001EB4202B9F81210131A8B4207DA10448D
:101130001030814203D2D6F82801012801D188F865
:10114000097098F8002098F80400B9F81010131AE4
:101150008B4226DA94F803C002EB0C1C84440CF199
:10116000380C61451DD298F802C098F801A00CEB2C
:101170004C0CD444B9F812A0ACEB000BD34510DAF8
:1011800084440CF1100CE2450BD298F80AC0BCF173
:10119000000F06D088F80A504FF40040FFF72AFCF1
:1011A0001EE08B421ADAE37802EB03120244383273
:1011B000914213D298F8021098F8012001EB4101F6
:1011C0000A44B9F81210131A8B4207DA104410308F
:1011D000814203D2D6F82801012801D188F80A708B
:1011E00098F8002098F80400B9F81010131A8B42F0
:1011F00025DA94F804C002EB0C1C84440CF1380C82
:1012000061451CD298F801C098F802A00CEB8A0C3A
:10121000B9F812A0ACEB000BD34510DA84440CF102
:10122000100CE2450BD298F80BC0BCF1000F06D0B1
:1012300088F80B504FF48030FFF7DCFB1DE08B4249
:1012400019DA237902EB031202443832914212D2A6
:1012500098F8011098F8022001EB8201B9F81220E9
:101260000B1A934207DA08441030824203D2D6F8B0
:101270002801012801D188F80B7098F8002098F80F
:101280000400B9F81010131A8B4226DA94F805C03E
:1012900002EB0C1C84440CF1380C61451DD298F80B
:1012A00002C098F801A00CEB8C0CD444B9F812A041
:1012B000ACEB000BD34510DA84440CF1100CE24582
:1012C0000BD298F80CC0BCF1000F06D088F80C5077
:1012D0004FF40030FFF78EFB1EE08B421ADA637981
:1012E00002EB031202443832914213D298F80210F2
:1012F00098F8012001EB81010A44B9F81210131A81
:101300008B4207DA10441030814203D2D6F828010C
:10131000012801D188F80C70B9F810004FF4CD7491
:10132000A04220D998F8041001F5E27290421AD236
:1013300098F8022098F8013002EB82021344B9F8C1
:101340001220A3EB010C94450DDA194410318A42A6
:1013500009D298F80D1031B188F80D504FF4802063
:10136000FFF748FB1DE0A04219D998F8041001F5D9
:10137000E272904213D298F8020098F8012000EB34
:1013800080000244B9F81200531A834207DA11446C
:101390001031884203D2D6F82801012801D188F8FB
:1013A0000D70B9F81000A04228D998F8041001F582
:1013B000E272904222D298F8022005E03600002026
:1013C000280200200080234298F8013002EB4202FC
:1013D00003EB4202B9F81230A2EB010C9C450DDA86
:1013E000114410318B4209D298F80E1031B188F8AF
:1013F0000E50BDE8F05F2020FFF7FCBAA0421AD9DA
:1014000098F8041001F5E272904214D298F80200A4
:1014100098F8012000EB400002EB4002B9F81200FE
:10142000531A834207DA11441031884203D2D6F8A6
:101430002801012801D188F80E70BDE8F09F0F49FE
:10144000AFF2AD60FFF7C1BA00210846FFF762BBFB
:1014500010B54FF6FF7004F045FA09480121C1713B
:10146000017241728172C1720173417381730022F2
:10147000C273017407214171817110BD27F007000B
:1014800036000020FEB5FE4C1025FEA16078CDE9A7
:10149000001502904FF4D276E3882289A6213046C7
:1014A00005F097FC6078F9A1CDE900150290E3887A
:1014B0002289D821304605F08CFC6078F5A1CDE971
:1014C00000150290E3884FF478424FF4857130465E
:1014D00005F07FFCFEBD2DE9FE4FF04CE7250095A1
:1014E000002122881423084605F005F81026ECA1F7
:1014F000CDE9001601204FF6FF7702901F233A46F0
:101500000221002005F0DBFC00976388228814216B
:10151000002004F0F0FFDA4CE7A16078CDE9001676
:101520000290E38822892821142005F052FC60787B
:10153000E6A1CDE900160290E38822892821FE2049
:1015400005F047FC6078E9A1CDE900160290E38838
:1015500022896021822005F03CFC6078E6A1CDE97B
:1015600000160290E38822899221822005F031FC46
:101570006078E4A1CDE900160290E3882289C421B5
:10158000822005F026FC6078E1A1CDE900160290EA
:10159000E3882289F621822005F01BFC6078DFA118
:1015A000CDE9001602904FF49F78E38822896021EC
:1015B000404605F00EFC6078D8A1CDE900160290F7
:1015C000E38822899221404605F003FC6078D3A18C
:1015D000CDE900160290E3882289C421404605F037
:1015E000F8FB6078CDA1CDE900160290E38822894E
:1015F000F621404605F0EDFBC948058000254FF077
:1016000056094FF4BC784FF07A0A05EBC50000EBA1
:10161000051B09EB4B010B464246502004F08EFFA0
:101620000AEB4B010B464246502004F087FF6D1C2D
:10163000EDB2042DE9D34FF4887550222B46562184
:10164000104604F07BFF40462B460246562104F02C
:1016500075FFFFF717FF00254FF0A60905EBC50042
:10166000227800EB0518C2EB4800A63002EB4803D5
:1016700081B2C2F5D270B63302F5E27204F0AAFF6D
:101680006078A8A1CDE900160290207809EB480106
:10169000C0F5CA70E388E72205F09BFB6D1CEDB234
:1016A000032DDBD3764900200A31CDE9001603462D
:1016B0003A4602904FF4987105F08BFBBDE8FE8F1F
:1016C0007CB597494FF6FF7008809749E72008805E
:1016D000964A974CD2E90010884201D9401A2060FE
:1016E000D2E90210884201D9401A6060D2E90410A0
:1016F000884201D9401AA060D2E90610884201D977
:10170000401AE06010250326CDE900650923602119
:10171000D220226805F07AF9CDE9006509239221EB
:10172000D220626805F072F9CDE900650923C42171
:10173000D220A26805F06AF9CDE900650923F621F7
:10174000D220E26805F062F97A48CDE900650268C6
:10175000082328214FF4B47005F058F97CBD2DE919
:10176000F047474CDFF8D081002521784046C1F58D
:10177000D279B8F81020C1F1A60C01F1B6036F4E72
:101780000127408A01F5E27191450FD28A420DD2BC
:1017900084450BDA984209D294F802A0BAF1000FFE
:1017A00004D0A5708020FFF725F90CE0914509D2FF
:1017B0008A4207D2844505DA984203D2D6F8280136
:1017C000012800D1A7702078B8F81010C0F5D272A7
:1017D0008A4215D200F5E273994211D2B8F812305C
:1017E000C0F1D80C9C450BDA00F1E80C634507D238
:1017F000E3782BB1E5704FF48070FFF7FBF813E04E
:101800008A4210D200F5E27291420CD2B8F812105E
:10181000C0F1D8028A4206DAE830814203D2D6F813
:101820002801012800D1E7702078B8F81010C0F521
:10183000D2728A4215D200F5E273994211D2B8F8F9
:101840001230C0F5857C9C450BD200F58D7C63453C
:1018500007D223792BB12571BDE8F0474020FFF76F
:10186000C9B88A4273D200F5E27291426FD2B8F8D9
:101870001210C0F585728A4269D200F58D7060E061
:101880007E000020BFAACABC00000000C7E5C1E37B
:1018900000000000B7B5BBD80000000058040020CD
:1018A000B9E2B5E7BCC6CAB1CAFDD7D6CAB5D1E957
:1018B000CFB5CDB300000000CAB5D1E931A3BAB2AB
:1018C000E2C1BFB5B2B9E2CAB1BCE400CFB5CDB395
:1018D000BCC6CAB1CAB1BCE43A20202020202020D6
:1018E0002020202020206D7300000000B4ABB8D071
:1018F000C6F7313A00000000B4ABB8D0C6F7323AB0
:1019000000000000B4ABB8D0C6F7333A00000000C6
:10191000B4ABB8D0C6F7343A000000006D730000D5
:101920001E020020F7CE000020020020A4040020A8
:101930006804002058020020280200200080234272
:1019400005E0814203D2D6F82801012800D1277191
:10195000BDE8F0872DE9FE4F04465C4F387801283A
:1019600016D15B4D10264FF0000848F210094FF6D3
:10197000FF7A4FF4857B012C0BD0022C1ED0042C57
:1019800031D0802C44D0B4F5807F56D0402C69D023
:101990007CE0FFF777FD6878AFF20811CDE900161B
:1019A00002904B46524659464FF4D27005F011FA58
:1019B00048A007F083F987F8008067E0FFF762FD31
:1019C0006878AFF24011CDE9001602904B465246BE
:1019D000A6214FF4D27005F0FCF942A007F06EF991
:1019E00004F06DFB52E0FFF74DFD6878AFF2641133
:1019F000CDE9001602904B465246D8214FF4D270E2
:101A000005F0E7F93CA007F059F904F05DFB3DE073
:101A1000FFF738FD6878AFF29411CDE90016029017
:101A20004B465246A6214FF4D27005F0D2F937A0AA
:101A300007F044F904F043FB28E0FFF723FD687842
:101A4000AFF2B811CDE9001602904B465246D821AC
:101A50004FF4D27005F0BDF931A007F02FF904F072
:101A600033FB13E0FFF70EFD6878AFF2D811CDE934
:101A7000001602904B46524659464FF4D27005F07C
:101A8000A8F92CA007F01AF987F80080204615E67F
:101A90002D49AFF23F10FEF798BF10B52BA007F00D
:101AA0000DF90021BDE81040084614E510B52AA044
:101AB00007F004F94FF6FF7003F014FF04F004FB85
:101AC000034901200871C870887010BD1D000020F6
:101AD0007E0000206C6162315F6B65795F626163DB
:101AE0006B0D0A006C6162315F6B65795F737472B4
:101AF00061740D0A000000006C6162315F6B6579F2
:101B00005F636C6561720D0A000000006C616231F8
:101B10005F746F7563685F73747261740D0A00009F
:101B20006C6162315F746F7563685F636C6561726D
:101B30000D0A00006C6162315F746F7563685F62EB
:101B400061636B0D0A000000C701F00F6C61623128
:101B50005F696E69740D0A006C6162315F636C6F5E
:101B600073650D0A000000002DE9FE4FFFF78AFCA7
:101B7000DFF804A44FF6FF77AAF80070DFF8FC83C3
:101B8000E720A8F80000FE4CFE4E1025617B4FF0C8
:101B90002E094FF4D2704FF0200B01297ED06178CE
:101BA000F9A2CDE900250291A38AE28A422105F03B
:101BB00010F96078F6A1CDE9001502904FF47C434E
:101BC0003A4674214FF4D27005F003F984F802B05C
:101BD0006078F1A1CDE900150290A38AE28A21790B
:101BE000E07805F0F6F86078F0A1CDE900150290F4
:101BF0002079A178A38A00EB4101E28AE07805F020
:101C0000E8F86078EEA1CDE900150290A38AE28A97
:101C10002179A07905F0DDF86078EEA1CDE9001515
:101C200002902079A178A38A00EB4101E28AA07991
:101C300005F0CFF8306A4FF47A77B0FBF7F20095F1
:101C4000E07806232179213004F024FE6078CDE984
:101C500000950290E078B8F80030BAF800202179B9
:101C6000513004F06BFD306A0095B0FBF7F107FBD3
:101C70001102E07803232179593004F05BFE706A89
:101C80000095B0FBF7F22079A178062300EB410123
:101C9000E078213004F0FEFD607800E071E0CDE9ED
:101CA000009502902079A178B8F8003000EB41014E
:101CB000E078BAF80020513004F040FD706A0095D9
:101CC000B0FBF7F107FB11022079A178032300EBA9
:101CD0004101E078593004F02DFEB06A009590FB88
:101CE000F7F2A07906232179213004F0D3FD607842
:101CF000CDE900950290A079B8F80030BAF800203C
:101D00002179513004F01AFDB06A009590FBF7F18B
:101D100007FB1102A07903232179593004F00AFE50
:101D2000F06A009590FBF7F22079A178062300EB8A
:101D30004101A079213004F0ADFD6078CDE9009536
:101D400002902079A178B8F8003000EB4101A07929
:101D5000BAF80020513004F0F1FCF06A009590FBD5
:101D6000F7F107FB11022179A078032301EB400171
:101D7000A079593004F0DEFD9B4E307803287DD0E9
:101D8000F4E3617880A2CDE9002502914FF47C4311
:101D90004FF6FF724221074605F01BF860787CA1E0
:101DA000CDE900150290A38AE28A7421384605F035
:101DB00010F88D480078022802D003287ED0A8E3CE
:101DC0002820A070607889A1CDE900150290A38A2F
:101DD000E28A6179E07804F0FCFF607888A1CDE9BF
:101DE000001502906079A178A38A0144E28AE07824
:101DF00004F0EFFF607887A1CDE9001502906079CB
:101E0000A178A38A00EB4101E28AE07804F0E1FFC7
:101E1000607885A1CDE900150290A078617900EB8A
:101E200040000144A38AE28AE07804F0D2FF60789F
:101E300082A1CDE900150290A38AE28A6179A07996
:101E400004F0C7FF607882A1CDE9001502906079A7
:101E5000A178A38A0144E28AA07904F0BAFF6078ED
:101E600080A1CDE9001502906079A178A38A00EBEA
:101E70004101E28AA07904F0ACFF00E077E36078EA
:101E80007DA1CDE900150290A078617900EB4000BA
:101E90000144A38AE28AA07904F09BFF30684FF4E2
:101EA0007A77B0FBF7F20095E078062361791C3071
:101EB00004F0F0FC6078CDE9009500E0CCE1029000
:101EC000E078B8F80030BAF8002061794C3004F0BE
:101ED00035FC30680095B0FBF7F107FB1102E078A4
:101EE00003236179543004F025FD70680095B0FB40
:101EF000F7F26079A17806230144E0781C3004F001
:101F0000C9FC6078CDE9009502906079A178B8F8B5
:101F100000300144E078BAF800204C3004F00EFCA8
:101F200070680095B0FBF7F107FB11026079A178AA
:101F300003230144E078543004F0FCFCB0680095C1
:101F4000B0FBF7F26079A178062300EB4101E0785D
:101F50001C3004F09FFC6078CDE900950290607918
:101F6000A178B8F8003000EB4101E078BAF8002021
:101F70004C3004F0E3FB89E01E0200202002002028
:101F8000B000002068040020B7BDB7A831000000F1
:101F9000B7BDB7A8320000007431323A20202020AB
:101FA000202020202020206D730000007433343A5C
:101FB00020202020202020202020206D73000000E1
:101FC0007631323A20202020202020202020206D31
:101FD0002F7300007633343A202020202020202048
:101FE0002020206D2F7300001D00002074313A2046
:101FF000202020202020202020206D7300000000C1
:1020000074323A20202020202020202020206D73B0
:102010000000000074333A202020202020202020BF
:1020200020206D730000000074343A20202020200E
:102030002020202020206D730000000076313A20FF
:10204000202020202020202020206D2F7300000041
:1020500076323A20202020202020202020206D2FA2
:102060007300000076333A202020202020202020FA
:1020700020206D2F7300000076343A20202020208D
:102080002020202020206D2F73000000B0680095D4
:10209000B0FBF7F107FB11026079A178032300EB95
:1020A0004101E078543004F045FCF0680095B0FB45
:1020B000F7F2A078617900EB40000144E078062354
:1020C0001C3004F0E7FB6078CDE900950290A07821
:1020D000617900EB40000144E078B8F80030BAF8CC
:1020E00000204C3004F02AFBF0680095B0FBF7F1BB
:1020F00007FB1102A078617900EB40000144E07811
:102100000323543004F016FC3069009590FBF7F27D
:10211000A079062361791C3004F0BCFB6078CDE91E
:1021200000950290A079B8F80030BAF800206179E3
:102130004C3004F003FB3069009590FBF7F107FB8E
:102140001102A07903236179543004F0F3FB706924
:10215000009590FBF7F26079A17806230144A079FD
:102160001C3004F097FB6078CDE90095029060790F
:10217000A178B8F800300144A079BAF800204C30BA
:1021800004F0DCFA7069009590FBF7F107FB11028F
:102190006079A17803230144A079543004F0CAFB8C
:1021A000B069009590FBF7F26079A178062300EB07
:1021B0004101A0791C3004F06DFB6078CDE90095F9
:1021C00002906079A178B8F8003000EB4101A07965
:1021D000BAF800204C3004F0B1FAB069009590FBD9
:1021E000F7F107FB11026079A178032300EB4101AD
:1021F000A079543004F09EFBF069009590FBF7F253
:10220000A078617900EB40000144A07906231C30DE
:1022100004F040FB6078CDE900950290A0786179E8
:1022200000EB40000144A079B8F80030BAF8002073
:102230004C3004F083FAF069009590FBF7F107FB4E
:102240001102A078617900EB40000144A0790323DA
:10225000543004F06FFB5CE11E20A0706078F8A1A0
:10226000CDE900150290A38AE28A6179E07804F052
:10227000B0FD6078F6A1CDE9001502906079A178F3
:10228000A38A0144E28AE07804F0A3FD6078F4A117
:10229000CDE900150290A078617900EB400001447F
:1022A000A38AE28AE07804F094FD6078F0A1CDE999
:1022B000001502906079A178A38A00EB8101E28A7F
:1022C000E07804F086FD6078EDA1CDE9001502907C
:1022D000A38AE28A6179A07904F07BFD6078EDA1A0
:1022E000CDE9001502906079A178A38A0144E28AC1
:1022F000A07904F06EFD6078EBA1CDE900150290A5
:10230000A078617900EB40000144A38AE28AA079B9
:1023100004F05FFD6178E9A0CDE90151009060799A
:10232000A178A38A00EB8101E28AA07904F051FD33
:102330000095E078092361791C30326804F0AAFA2C
:1023400000956179A07809230144E07872681C3017
:1023500004F0A0FA0095A078092300EB4001607911
:10236000B2680144E0781C3004F094FA0095617979
:10237000A078092301EB8001E078F2681C3004F0BA
:1023800089FA306942F2107790FBF7F20095A07954
:10239000092361791C3004F07DFA7069009590FB87
:1023A000F7F26079A17809230144A0791C3004F088
:1023B00071FAB069009590FBF7F2A078617900EBB3
:1023C00040000144A07909231C3004F063FAF0694D
:1023D000009590FBF7F26079A178092300EB810169
:1023E000A0791C3004F056FA6078B9A1CDE9001547
:1023F00002906079A178A38A00EB4101E078E28A3B
:10240000083880B204F0E5FC00956079A1780923D2
:1024100000EB4101E078E26B1C3004F03BFA60789D
:10242000B0A1CDE9001502906079A178A38A00EBF4
:102430004101A079E28A801C04F0CBFCCDE900B513
:102440004FF00009CDF808906079A178B8F8003015
:1024500000EB4101A079BAF800201C3004F06EF9BD
:10246000306B0095B0FBF7F26079A178082300EBA0
:102470004101A079243004F00DFA60789EA1CDE9E5
:1024800000150290A078617900EB80000144E078AB
:10249000A38A083880B2E28A04F09BFC0095A078F9
:1024A000617900EB80000144E07809231C30226C44
:1024B00004F0F0F9607895A1CDE900150290A078BC
:1024C000617900EB80000144A079A38AE28A801C34
:1024D00004F07FFCCDE900B5CDF80890A0786179D3
:1024E00000EB80000144A079B8F80030BAF8002071
:1024F0001C3004F023F9706B0095B0FBF7F2A07864
:10250000617900EB80000144A0790823243004F0B5
:10251000C1F9607882A1CDE9001502902179E078B7
:10252000A38AE28AB631183004F053FC4FF6FF70EC
:10253000AAF80000E720A8F80000CDF800B0217943
:102540000223B4F91820A231DC2004F0A0FA60784C
:1025500076A1CDE9001502902179A38AE28AB631ED
:102560004FF48C7004F035FCBDE8FE8F43E06078DA
:102570006FA1CDE9001502902179A38AE28A80310A
:10258000E07804F026FC00952179E0780923803179
:102590002130E26C04F07EF960786AA1CDE9001583
:1025A00002902179A078A38A01EB8001A079E28AC8
:1025B000103004F00EFCCDE900B500200290207927
:1025C000A178B8F8003000EB8101A079BAF80020BA
:1025D000213004F0B3F860480823816B42F2107098
:1025E000B1FBF0F200952079A17800EB8101A07990
:1025F000293004F04FF9307802281FD1607857A1B4
:10260000CDE9001502902079A178A38A00EB810121
:10261000E078E28A323004F0DCFBA07B78B16078AD
:1026200051A1CDE9001502902079A178A38A00EB91
:102630008101E078E28A7A3004F0CBFBA9E099E0EE
:1026400074313A202020202020202020206D73008B
:1026500074323A202020202020202020206D73007A
:1026600074333A202020202020202020206D730069
:1026700074343A202020202020202020206D730058
:1026800076313A202020202020202020206D2F731A
:102690000000000076323A20202020202020202038
:1026A000206D2F730000000076333A202020202078
:1026B00020202020206D2F730000000076343A2067
:1026C0002020202020202020206D2F7300000000DB
:1026D0007431323A202020202020202020206D73C9
:1026E0000000000061313A202020202020202020FE
:1026F000206D2F73320000007433343A20202020E4
:102700002020202020206D730000000061323A203C
:102710002020202020202020206D2F733200000058
:10272000B5B2B9E2C6ACBFEDB6C83A006D206D00D7
:102730007431333A202020202020202020206D7367
:1027400000000000613A20202020202020202020AE
:102750006D2F73320000000068040020CBD9B6C88A
:10276000B7BDCFF2A3BA000034333231CEAAD5FDC3
:10277000000000006078FEA1CDE9001502902079EC
:10278000A178A38A00EB8101E078E28A7A3004F034
:1027900020FB6078F9A1CDE900150290A07821799D
:1027A00000EB400001EB4000083881B2E078A38ADA
:1027B000E28A323004F00DFB4FF6FF70AAF80000F9
:1027C000E720A8F80000CDF800B0A078217900EB50
:1027D000400001EB40001C3881B2E0780223B4F9DC
:1027E0001A20963004F053F96078AFF2C001CDE9B9
:1027F00000150290A078217900EB400001EB400029
:10280000083881B2A38AE28AFA2004F0E2FAABE641
:102810002DE9FE4FDC4CE727009700212288142386
:10282000084603F068FE1026D8A1CDE90016012065
:102830004FF6FF7902901F234A460221002004F040
:102840003EFBCDF80090638822881421002003F01D
:1028500052FEDFF850A3D44D9AF80000022802D0AF
:1028600003280CD016E06878D0A1CDE900160290BC
:10287000AB8AEA8A1621142004F0ABFA0AE06878E1
:10288000CFA1CDE900160290AB8AEA8A1621142066
:1028900004F09FFA6878D2A1CDE900160290AB8AC5
:1028A000EA8A1621FE2004F094FAFFF75DF900246D
:1028B000DFF84C834FF0420BA8F80070022C12D2C4
:1028C00004EBC4002A7800EB041002EB4003C2EBD7
:1028D0004000423081B2C2F5D270523302F5E67246
:1028E00003F078FE11E004EBC4002A7800EB04103A
:1028F00002EB4003C2EB4000423081B2C2F5D2701D
:10290000523302F5E27203F065FE6878BDA1CDE9AD
:102910000016029004EBC40000EB04100BEB400126
:102920002878AB8AC0F5CA70E72204F052FA641C1A
:10293000E4B2052CC0D39AF800000021DFF8C8A249
:102940004FF4987C4FF4A07440F22715032828D048
:10295000022844D1CDE901619348002389300090D9
:102960004A466146184604F034FAA8F80070AAF8FE
:1029700000902346B42229466C2003F02BFE4FF42E
:102980008276234632462946B42003F023FE03B064
:10299000234629463046BDE8F04F4FF4A87203F0B5
:1029A00019BECDE9016180480023603000904A469D
:1029B0006146184604F00DFAA8F80070AAF80090D5
:1029C0002346F4222946A42003F004FE03B0234644
:1029D00022462946BDE8F04FF52003F0FBBDC3E5D4
:1029E0002DE9F05FFEF7BBFE6F4CDFF8209200266A
:1029F0002078B9F81010C0F5D273854F4FF0010858
:102A00008B4215D200F5E272914211D2B9F8122030
:102A1000C0F1740595420BDA00F18405AA4207D291
:102A2000E2792AB1E6714FF40060FDF7E3FF14E0AC
:102A30008B4210D200F5E27291420CD2B9F812101A
:102A4000C0F174028A4206DA8430814203D2D7F898
:102A50002801012801D184F807802078B9F81010E6
:102A6000C0F5D2738B4215D200F5E272914211D2B9
:102A7000B9F81220C0F1420595420BDA00F1520577
:102A8000AA4207D2227A2AB126724FF48060FDF75B
:102A9000B1FF14E08B4210D200F5E27291420CD2E9
:102AA000B9F81210C0F142028A4206DA523081426D
:102AB00003D2D7F82801012801D184F808803948C9
:102AC0004FF4A0750078032816D002284DD1B9F82C
:102AD00010004FF4947AA0F16D01472944D2B9F85F
:102AE0001210514540D3A9423ED2E17AE1B3E672D9
:102AF0000120FDF77FFFB1E0B9F810004FF48F7AA5
:102B0000A0F1A5014F290CD2B9F81210514508D3F4
:102B1000A94206D2617A21B166720220FDF76AFFEE
:102B20000FE0A4280BD9F42809D2B9F812005045B7
:102B300005D3A84203D2D7F82801012801D184F88F
:102B40000980B9F81000A0F1F6014A2964D2B9F859
:102B50001210514560D3A9425ED2A17A31B1A6725A
:102B6000BDE8F05F042055E068E065E054E0000057
:102B700031323334CEAAD5FD00000000B4ABB8D05A
:102B8000C6F7BEE0C0EB3A0058040020B9E2B5E752
:102B9000BCC6CAB1CAFDD7D6CAB5D1E9CFB5CDB387
:102BA000000000001D000020B0000020CAB5D1E9DF
:102BB00032A3BAB2E2C1BFCBB2CAB1CBD9B6C80058
:102BC000CAB5D1E933A3BAB2E2C1BFD4C8B1E4CB2C
:102BD000D9D4CBB6AFB5C4BCD3CBD9B6C8000000EE
:102BE000CFB5CDB3BCC6CAB1CAB1BCE43A2020202F
:102BF000202020202020202020206D7300000000B5
:102C00001E020020F7CE0000200200202802002033
:102C100000802342FDF7EEBEF5280BD9A84209D269
:102C2000B9F81200504505D3A84203D2D7F82801BD
:102C3000012801D184F80A80BDE8F09F6C280BD9E7
:102C4000B42809D2B9F81200504505D3A84203D2DE
:102C5000D7F82801012801D184F80B80B9F81000B9
:102C60004FF4827BA0F1B5014F290CD2B9F81210B4
:102C7000514508D3A94206D2617A21B16672022079
:102C8000FDF7B8FE0FE0B4280BD9584509D2B9F8C2
:102C90001200504505D3A84203D2D7F828010128D5
:102CA00001D184F80980B9F81000A0F205114B2970
:102CB0000DD2B9F81210514509D3A94207D2A17A11
:102CC00029B1A672BDE8F05F0420FDF793BE584518
:102CD0000CD9B0F5A87F09D2B9F81200504505D338
:102CE000A84203D2D7F828010128A5D184F80A8088
:102CF000A2E72DE9F04F8DB00446FE480378022B81
:102D000001D0032B7DD1FC4E00251027727B30793A
:102D10000C90B0780B90F078DFF8E093DFF8E0A348
:102D20004FF6FF784FF0E70B012C7CD0304601794D
:102D300001F1A20CCDF828C090F802C00CEB4C0CAD
:102D400001EB4C0190F803C01C390CF1960EB0F960
:102D500018C0B0F91A00022C7DD0042C7CD0802C35
:102D60007BD0B4F5807F79D0402C78D0E548B4F59D
:102D7000801F006874D0DFF88CE33146D1F81CC0A6
:102D8000DEF800E0AEEB0C0CCDF824C091F805C0E5
:102D9000CDF820C0C9781C310791B4F1807F7DD077
:102DA00031464FF47A7E91F80CC0CDF818C0B1F9D5
:102DB0001AC00CFB0EFCCDF814C0C9782131049167
:102DC000B4F5001F6BD0B4F1007F69D0B4F5000FEB
:102DD00067D0DFF830C33146496ADCF800C0ACEB9D
:102DE000010103913146B1F918E04FF47A710EFBFD
:102DF00001FE3146897801EB410C31464979614445
:102E000001E0FDE30FE0B4F1006F7CD0B4F5800F7A
:102E10007AD0B4F1806F78D0B4F5806F76D0B4F505
:102E2000006F74D07FE2032B02D0022B19D0F9E798
:102E3000FEF79AFE7078B4A1CDE90017029048F22F
:102E4000100342464FF485714FF4D27003F0C1FF76
:102E5000A8480570E6E745E076E0A2E0B3E0D4E0FC
:102E6000E6E0F17C491CF174012ADBD07178AFF205
:102E70001472CDE900270291DDE90B2101EB8201FB
:102E8000B38AF28A323003F0A4FFF07CC00717D077
:102E90000120B0737078AFF2307103E0DCE05AE1EA
:102EA0008FE1A6E2CDE9001702903079B178B38ABC
:102EB00000EB8101F078F28A7A3003F08AFFB1E703
:102EC000B5737078AFF25831CDE9001702903079C0
:102ED000B178B38A00EB8101F078F28A7A3003F09E
:102EE00078FF9FE7012A19D0401E00B27083A9F82D
:102EF0000080AAF800B0002800DA7583202089B28B
:102F00000223009004E088E222E3FDE3FDE3FDE319
:102F1000B6F91A20704603F0BAFD83E7ACF1010C54
:102F20000FFA8CF03083A9F80080AAF800B00028CE
:102F300000DA3583202000900223B6F91820DC2027
:102F40000A9903F0A4FD6DE7012A13D0401C00B2DA
:102F50007083A9F80080AAF800B0632800DD7583AB
:102F60002020009089B20223B6F91A20704603F09F
:102F70008EFD57E70CF1010C0FFA8CF03083A9F8A5
:102F80000080AAF800B0632801DDC820308320202B
:102F900000900223B6F91820DC200A9903F077FD8F
:102FA000C1E1FEF7E1FD707859A1CDE9001702906B
:102FB00048F210034246A6214FF4D27003F009FFF5
:102FC00003F07DF8AFE1404602F08CFCF563356418
:102FD000F56435657565B565F565F57335747574B6
:102FE000B57403F071F800210846FFF711FC707802
:102FF00049A1CDE90017029048F210034246D821BA
:103000004FF4D27003F0E5FE8DE1FEF7ADFD707870
:103010003DA1CDE90017029048F2100342464FF45B
:1030200085714FF4D27003F0D4FE324805707AE116
:10303000012A04D0032B05D0022B08D073E1F061E4
:10304000F06270E101213173F06170646BE1F17B3A
:10305000491CF173306566E1012A8AD1A9F8008024
:10306000AAF800B02E49099808604FF47A71B0FBB5
:10307000F1F20097DDE90701062303F00BFC7178FC
:103080002E20CDE901710090F078BAF80030B9F83F
:10309000002071794C3003F051FB21480323016873
:1030A0004FF47A70B1FBF0F200FB12120097F07847
:1030B0007179543003F03EFCB6F9180019494843C1
:1030C00017490968B0FBF1F0154908614FF47A71AE
:1030D00090FBF1F20097B079062371791C3003F070
:1030E000D9FB71782E20CDE901710090BAF800303B
:1030F0001AE000001D000020B00000201E02002089
:103100002002002058020020B7B5BBD80000000004
:10311000BFAACABC00000000C7E5C1E30000000070
:103120006804002040420F00B079B9F8002071799E
:103130004C3003F003FBFE48032301694FF47A701F
:1031400091FBF0F200FB12120097B07971795430C4
:1031500003F0F0FBE7E0012A04D0032B08D0022B98
:103160002AD0E0E030623063F16A401AF063DAE0BE
:1031700006980028EED03573A9F80080AAF800B0B0
:10318000EB48099A02620598B0FBF2F1E8488162C7
:10319000092300970C99049803F07CFBE448092369
:1031A000816A42F2107091FBF0F20097B0793179A8
:1031B000213003F06FFBB6E0317C491C317470653F
:1031C000B1E0012AC6D1A9F80080AAF800B0316A9E
:1031D000401AD74948604FF47A71B0FBF1F20B996D
:1031E0000898009701440623079803F053FB717871
:1031F0002E20CDE9017100907079B178BAF80030D5
:103200000144F078B9F800204C3003F097FAC84830
:10321000032341684FF47A70B1FBF0F200FB121205
:1032200000977079B1780144F078543003F082FB54
:10323000B6F91800BF494843BD494968B0FBF1F0F1
:10324000BB4948614FF47A7190FBF1F200977079B5
:10325000B17806230144B0791C3003F01BFB717870
:103260002E20CDE9017100907079B178BAF8003064
:103270000144B079B9F800204C3003F05FFAAC4853
:10328000032341694FF47A7091FBF0F200FB1212B4
:1032900000977079B1780144B079543003F04AFB5B
:1032A000A5480078032886D100977079B178092362
:1032B00000EB4101F078F26B1C3003F0EBFA9C4B11
:1032C000D3E90410421A002A01DC884248D14FF4A5
:1032D0007A704243F06B9649B2FBF0F00863496B99
:1032E0009648814220D2CDE9017520200090707966
:1032F000B178BAF8003000EB4101B079B9F800209C
:103300001C3003F01BFA8A480823016B42F210704C
:10331000B1FBF0F200977079B17800EB4101B07920
:10332000243003F0B7FA8AE3CDE90175202000903C
:103330007079B178BAF8003000EB4101B079B9F892
:1033400000201C3003F0FAF900977079B178082357
:1033500000EB4101B079794A243003F09BFA6EE327
:10336000081A4FF47A714843F16B714AB0FBF1F0DF
:1033700010637249884220D2CDE901752D2000905A
:103380007079B178BAF8003000EB4101B079B9F842
:1033900000201C3003F0D2F965480823016B42F28B
:1033A0001070B1FBF0F200977079B17800EB410139
:1033B000B079243003F06EFA41E3CDE901752D2098
:1033C00000907079B178BAF8003000EB4101B07923
:1033D000B9F800201C3003F0B1F900977079B1788A
:1033E000082300EB4101B079544A243003F052FA2B
:1033F00025E3012A04D0032B05D0022B08D01EE3BD
:10340000706270631BE3012131737062B06416E374
:10341000717C491C7174B06511E3012A9FD1A9F830
:103420000080AAF800B04248039A8260032B6BD058
:103430004FF47A70B2FBF0F20B990898009700EB0A
:1034400041010623079803F025FA71782E20CDE973
:10345000017100907079B178BAF8003000EB410149
:10346000F078B9F800204C3003F068F930480323B5
:1034700081684FF47A70B1FBF0F200FB12120097F2
:103480007079B17800EB4101F078543003F052FAD2
:10349000B6F918002749484325498968B0FBF1F07F
:1034A000234988614FF47A7190FBF1F200977079AB
:1034B000B178062300EB4101B0791C3003F0EAF942
:1034C00071782E20CDE9017100907079B178BAF849
:1034D000003000EB4101B079B9F800204C3003F026
:1034E0002DF91348032381694FF47A7091FBF0F2B0
:1034F00000FB121200977079B17800EB4101B079AE
:10350000543003F017FA9AE2BEFBF2F308488361E5
:1035100009230097079803F0BDF90548816942F235
:10352000107091FBF0F20097B07800EB400007E0DC
:103530006804002040420F001D0000209F8601000B
:10354000717909230144B0791C3003F0A3F976E2C4
:10355000012A04D0032B08D0022B75D06FE2B06291
:10356000B063716B401A306469E206980028CAD0D3
:103570003573A9F80080AAF800B0FE48039A4262A9
:103580000598B0FBF2F1FB48C1620097DDE90B1032
:1035900000EB41010923049803F07CF9F548092365
:1035A000C16A42F2107091FBF0F200973079B17865
:1035B00000EB4101B079213003F06CF9EE4800785E
:1035C0000328A0D1D6E91110421AF264009731798C
:1035D000F07809238031213003F05CF9E54BD3E921
:1035E0000A010A1A002A01DC81424AD14FF47A709A
:1035F0004243F06CDF49B2FBF0F08863DF4900E042
:10360000A2E3884221D2CDE90175202000903079D3
:10361000B178BAF8003000EB8101B079B9F8002038
:10362000213003F08BF8D3480823816B42F21070ED
:10363000B1FBF0F200973079B17800EB8101B079FD
:10364000293003F027F9FAE168E0CDE9017520207F
:1036500000903079B178BAF8003000EB8101B07990
:10366000B9F80020213003F069F800973079B1787B
:10367000082300EB8101B079C04A293003F00AF930
:10368000DDE1401A4FF47A714843F16CB94AB0FB5E
:10369000F1F09063B949884220D2CDE901752D201F
:1036A00000903079B178BAF8003000EB8101B07940
:1036B000B9F80020213003F041F8AE480823816BAF
:1036C00042F21070B1FBF0F200973079B17800EB64
:1036D0008101B079293003F0DDF8B0E1CDE9017561
:1036E0002D2000903079B178BAF8003000EB8101DC
:1036F000B079B9F80020213003F020F80097307934
:10370000B17800EB810102E00DE059E178E1B07998
:1037100008239A4A293003F0BDF890E1B17C491C96
:10372000B174F0658BE1012A8DD1A9F80080AAF867
:1037300000B0B26A821A8F48C260032B6CD04FF47B
:103740007A70B2FBF0F206230097079803F0A2F814
:1037500071782E20CDE901710090B078717900EB7D
:1037600040000144F078BAF80030B9F800204C303D
:1037700002F0E4FF7F480323C1684FF47A70B1FB85
:10378000F0F200FB12120097B078717900EB400064
:103790000144F078543003F0CDF8B6F918007849B8
:1037A00048437449C968B0FBF1F07249C8614FF4ED
:1037B0007A7190FBF1F20097B078717900EB4000DC
:1037C0000144B07906231C3003F064F871782E2090
:1037D000CDE901710090B078717900EB40000144AF
:1037E000B079BAF80030B9F800204C3002F0A6FFEA
:1037F00060480323C1694FF47A7091FBF0F200FB3B
:1038000012120097B078717900EB40000144B07952
:10381000543003F08FF812E1BEFBF2F15548C1615C
:103820000B990898009700EB81010923079803F092
:1038300031F850480923C16942F2107091FBF0F24F
:1038400000977079B17800EB8101B0791C3003F0FA
:1038500021F80097B078717900EB80000144F0788E
:1038600009231C30326C03F015F842484149C06905
:103870008969421A002A01DC88424BD14FF47A70E0
:103880004243306C3B49B2FBF0F048633B4988420D
:1038900022D2CDE9017520200090B078717900EB3B
:1038A00080000144B079BAF80030B9F800201C302B
:1038B00002F044FF2F480823416B42F21070B1FB25
:1038C000F0F20097B078717900EB80000144B07994
:1038D000243002F0DFFFB2E0CDE901752020009036
:1038E000B078717900EB80000144B079BAF800300B
:1038F000B9F800201C3002F021FF0097B0787179F0
:1039000000EB80000144B07908231C4A243002F007
:10391000C1FF94E0081A4FF47A714843316C154A9C
:10392000B0FBF1F05063154988422BD2CDE9017507
:103930002D200090B078717900EB80000144B079BF
:10394000BAF80030B9F800201C3002F0F7FE094840
:103950000823416B42F21070B1FBF0F20097B0788F
:10396000717900EB80000144B079243002F092FFBD
:1039700065E00000680400201D0000209F86010013
:1039800040420F00CDE901752D200090B07871798B
:1039900000EB80000144B079BAF80030B9F800209B
:1039A0001C3002F0CBFE0097B078717900EB8000FC
:1039B0000144B0790823FD4A243002F06BFF3EE059
:1039C0000120707302F080FBF5633564F5643565A2
:1039D0007565B565F565F57335747574B574F4483A
:1039E000CDF800804FF4B97240882C211E3883B284
:1039F000F0781E3880B202F07EFDFEF7B5F81EE0CA
:103A00000220707302F060FBF5633564F564356580
:103A10007565B565F565F57335747574B574E44809
:103A2000CDF800804FF4B97240882C211E3883B243
:103A3000F0781E3880B202F05EFDFEF795F8F07B5C
:103A4000317C884277D1D6E91410884275D9A9F81B
:103A50000080AAF800B0A0EB0100D6490862B6F9D0
:103A60001A10D54A01FB02F1B1FBF0F2D1498A628A
:103A70004FF47A71B0FBF1F20097F0784FF0060343
:103A8000317900F1210002F005FF71782E20CDE997
:103A900001710090F078BAF80030B9F8002031795F
:103AA000513002F04BFEC3480323016A4FF47A7091
:103AB000B1FBF0F200FB12120097F0783179593027
:103AC00002F038FFB07BB8B3CDE901752D2000902E
:103AD000B079BAF80030B9F800203179213002F01D
:103AE0002DFEB4480523816A4FF47A7091FBF0F201
:103AF0000097B0793179293002F0CCFE71782E2010
:103B0000CDE901710090B079BAF80030B9F8002021
:103B10003179513002F012FEA6480323816A4FF436
:103B20007A7091FBF0F200FB12120097B0793179B4
:103B3000593002F0FFFE85E000E00DE0CDE90175AF
:103B400020200090B079BAF80030B9F8002031791F
:103B5000213002F0F3FDC4E774D2A9F80080AAF87E
:103B600000B0A1EB000093490862B6F91A10924A1E
:103B700001FB02F1B1FBF0F28E498A624FF47A71D7
:103B8000B0FBF1F20097F0784FF00603317900F1C5
:103B9000210002F07FFE71782E20CDE901710090A6
:103BA000F078BAF80030B9F800203179513002F0DD
:103BB000C5FD80480323016A4FF47A70B1FBF0F22F
:103BC00000FB12120097F0783179593002F0B2FE02
:103BD000B07B01287ED0CDE901752D200090B07911
:103BE000BAF80030B9F800203179213002F0A6FD92
:103BF00070480523816A4FF47A7091FBF0F20097C8
:103C0000B0793179293002F045FE71782E20CDE966
:103C100001710090B079BAF80030B9F8002031791C
:103C2000513002F08BFD63480323816A4FF47A70B0
:103C300091FBF0F200FB12120097B0793179593004
:103C400002F078FE707CB17C88427DD1D6E91610F6
:103C500088427AD9A9F80080AAF800B0DFF8548128
:103C6000A0EB0100C8F82400B6F91A10524A01FB73
:103C700002F1B1FBF0F1C8F82C104FF47A7BB0FBE5
:103C8000FBF200973079B1784FF0060300EB410169
:103C9000F07800F1210002F0FDFD71782E20CDE9D1
:103CA000017100903079B178BAF8003000EB410131
:103CB000F078B9F80020513002F040FDD8F8240027
:103CC0000097B0FBFBF10BFB11023079B17800EBF0
:103CD000410100E04AE0F0780323593002F02AFE67
:103CE000B07B98B3CDE901752D2000903079B17883
:103CF000BAF8003000EB4101B079B9F8002021306A
:103D000002F01CFDD8F82C00009790FBFBF23079F4
:103D1000B178052300EB4101B079293002F0BAFDFA
:103D200071782E20CDE9017100903079B178BAF820
:103D3000003000EB4101B079B9F80020513002F0B9
:103D4000FDFCD8F82C0002E0B8E037E01CE090FB66
:103D5000FBF10BFB110200973079B178032300EBE4
:103D60004101B079593002F0E5FDB0E0CDE90175CF
:103D700020200090B079BAF80030B9F800203179ED
:103D8000213002F0DBFC33E7CDE901752020009003
:103D90003079B178BAF8003000EB4101B079B9F868
:103DA0000020213002F0CAFCACE700009F86010031
:103DB000580400206804002040420F007ED2A9F879
:103DC0000080AAF800B0DFF88481A1EB0000C8F8F9
:103DD0002400B6F91A105E4A01FB02F1B1FBF0F1C2
:103DE000C8F82C104FF47A7BB0FBFBF200973079C7
:103DF000B1784FF0060300EB4101F07800F12100AB
:103E000002F048FD71782E20CDE9017100903079E3
:103E1000B178BAF8003000EB4101F078B9F8002031
:103E2000513002F08BFCD8F824000097B0FBFBF176
:103E30000BFB11023079B178032300EB4101F078DC
:103E4000593002F077FDB07B012844D0CDE90175EF
:103E50002D2000903079B178BAF8003000EB4101A4
:103E6000B079B9F80020213002F068FCD8F82C00B5
:103E7000009790FBFBF23079B178052300EB41010C
:103E8000B079293002F006FD71782E20CDE901715C
:103E900000903079B178BAF8003000EB4101B07988
:103EA000B9F80020513002F049FCD8F82C000097F6
:103EB00090FBFBF10BFB1102307900E007E0B178D9
:103EC000032300EB4101B079593002F033FD0DB00E
:103ED0002046BDE8F08FCDE90175202000903079B3
:103EE000B178BAF8003000EB4101B079B9F80020A0
:103EF000213002F023FCB9E716491748FCF765BDED
:103F000010B516A004F0DAFE0021BDE81040084606
:103F1000FEF77EBC10B514A004F0D0FE4FF6FF7083
:103F200001F0E0FC02F0D0F81348012141730021B8
:103F3000C1630164C1648173016541658165C165C7
:103F4000C17301744174817410BD000068040020C5
:103F500040420F00C70DF00FF32C00086C61623275
:103F60005F696E69740D0A006C6162325F636C6F29
:103F700073650D0A00000000B000002070B5FDF769
:103F800081FAFF49E7200880FE494FF6FF7008805C
:103F90004FF4A07540F227162B46B42231466C2010
:103FA00002F018FB4FF482742B4622463146B420AF
:103FB00002F010FB2B4631462046BDE870404FF41E
:103FC000A87202F007BB2DE9FE4FEF4C4FF0E70857
:103FD000CDF80080002122881423084602F08BFAD5
:103FE0001025EAA1CDE9001501204FF6FF790290D6
:103FF0001F234A460221002002F061FFCDF8009005
:10400000638822881421002002F075FAE54CE6A1AD
:104010006078CDE900150290238A628A2821142055
:1040200002F0D7FE6078E6A1CDE900150290238A60
:10403000628A28214FF4877002F0CBFEDFF840A39C
:10404000AAF80090DFF83CB3ABF800806078E3A1F9
:10405000CDE900150290238A628AE178A07802F007
:10406000B8FE6078E8A1CDE900150290E0782179EA
:10407000238A0144628AA07802F0ABFEE44E42F249
:104080001077062330680095B0FBF7F2E0782179CD
:104090000144A078403002F0FDFB6078DDA1CDE95D
:1040A00000150290E0782179238A0144A078628A81
:1040B000823002F08EFE70680095B0FBF7F2E07877
:1040C000217906230144A078C23002F0E3FB607836
:1040D000D2A1CDE900150290E0782179238A01442C
:1040E000A078628A00F5827002F073FEB0680095D5
:1040F000B0FBF7F2E078217906230144A07800F5BF
:10410000A27002F0C7FB6078C6A1CDE9001502904D
:10411000E0782179238A00EB4101628AA07802F0DD
:1041200058FE6078B8A1CDE9001502902079E178B9
:1041300000EB40000144238A628AA07802F049FE25
:10414000F0680095B0FBF7F22079E17800EB4000D1
:104150000144A0780623403002F09CFB6078ADA1BA
:10416000CDE9001502902079E17800EB4000014490
:10417000A078238A628A823002F02BFE3069009593
:10418000B0FBF7F22079E17800EB40000144A07821
:104190000623C23002F07EFB6078A0A1CDE90015B5
:1041A00002902079E17800EB40000144A078238A56
:1041B000628A00F5827002F00CFE70690095B0FB17
:1041C000F7F22079E17800EB40000144A078062363
:1041D00000F5A27002F05EFB60789DA1CDE90015AC
:1041E000029040F21116238A628A3146E82002F0DA
:1041F000F0FD0095022394F9092031464FF4A47094
:1042000002F098FB607896A1CDE900150290238A10
:10421000628A31464FF4AC7002F0DBFDAAF80080F0
:104220002079A27800EB4001E0780B18153881B2B4
:10423000501F253380B202F2791202F0CBF9607878
:1042400089A1CDE900150290238A628A3146A078BF
:1042500002F0BFFD60788AA1CDE900150290238AA3
:10426000628A56214FF4C87002F0B3FD217A4FF4F0
:10427000C97051B1617885A2CDE900250291238AE8
:10428000628A742102F0A5FD09E0617882A2CDE97D
:1042900000250291238A628A742102F09AFDFFF7B9
:1042A0006DFE0026AAF8008006EBC600227800EB1F
:1042B0000617C2EB4700A63002EB470381B2C2F5F6
:1042C000D270B63302F5E27202F084F9607875A11B
:1042D000CDE900150290A62000EB47012078238A43
:1042E000C0F5CA70E72202F074FD761CF6B2032E08
:1042F000D8D32C4900202431CDE9001503464A4685
:1043000002904FF4987102F064FDAAF80080ABF8B7
:1043100000904FF4A07540F227162B46B422314688
:104320006C2002F057F94FF482742B462246314636
:10433000B42002F04FF903B02B4631462046BDE8C9
:10434000F04F4FF4A87202F045B92DE9F05FFDF788
:1043500006FA554FDFF85491124C388A4FF0000896
:10436000A0F16D014FF0010A4FF494754FF4A0765F
:10437000472903D2798AA94200D399E0A2E000003C
:104380001E0200202002002058040020B9E2B5E7F8
:10439000BCC6CAB1CAFDD7D6CAB5D1E9CFB5CDB36F
:1043A0000000000064010020CAB5D1E934A3BAB20C
:1043B000E2C1BFC5F6D7B2D6D0B5C4B6AFC1BF0053
:1043C000CFB5CDB3BCC6CAB1CAB1BCE43A20202037
:1043D000202020202020206D20730000BEADB9FDDC
:1043E000B9E2B5E7B4ABB8D0C6F7B5C43132B5C49D
:1043F000CBB2CAB1CBD9B6C85631323A28B5A5CE60
:10440000BB3A206D2F732900B5DA32B4CE3A0000E2
:1044100020040020B5DA31B4CE3A0000B5DA33B466
:10442000CE3A0000BEADB9FDB9E2B5E7B4ABB8D045
:10443000C6F7B5C43334B5C4CBB2CAB1CBD9B6C84C
:104440005633343A28B5A5CEBB3A206D2F732900D8
:10445000B4ABB8D0C6F7BEE0C0EBA3BA0000000012
:10446000206D206D00000000B0B4BCFC4B45595FCE
:1044700030C7D0BBBBCBD9B6C8B7BDCFF2000000A8
:10448000CBD9B6C8B7BDCFF2A3BA000034333231AE
:10449000CEAAD5FD0000000031323334CEAAD5FDBE
:1044A00000000000F7CE0000280200200080234218
:1044B000B14207D2617929B184F805800120FCF767
:1044C00099FA0EE06C280AD9B42808D2788AA84252
:1044D00005D3B04203D2D9F82801012801D184F8CC
:1044E00005A0388A4FF4827BA0F1B5014F290CD288
:1044F000798AA94209D3B14207D2A17929B184F8B6
:1045000006800220FCF776FA0EE0B4280AD9584556
:1045100008D2788AA84205D3B04203D2D9F828013C
:10452000012801D184F806A0388AA0F205114B2990
:104530000DD2798AA9420AD3B14208D2E17931B1C8
:1045400084F80780BDE8F05F0420FCF753BA5845B3
:104550000BD9B0F5A87F08D2788AA84205D3B0421B
:1045600003D2D9F82801012801D184F807A0BDE8B9
:10457000F09FFF490020086048608860C8600861BB
:104580004861FC498872C8720873487307224A72EE
:104590000872F949086070472DE9FE4F0646DFF8BA
:1045A000DC8398F80000042879D101220025F14F1E
:1045B00010244FF6FF7B012E24D0384640F2111113
:1045C00090F909004FF4A47C022E3FD0042E51D064
:1045D00048F210094FF4D27A802E61D0B6F5807F70
:1045E0006ED0402E7ED0E448B6F5801F00687AD0A9
:1045F000B6F5001F78D0B6F5000F76D0B6F5800F6F
:1046000074D0AEE0B87B401CB873DA495FEAC0787A
:104610004FF4C97C48780B8A498A0BD03A72AFF2C2
:104620009412CDE9002402900A467421604602F0FB
:10463000D0FB96E03D72AFF2A012CDE900240290CB
:104640000A467421604602F0C4FB8AE0401E40B274
:104650007872002800DA7D72C948A0F800B0C94A13
:10466000E72010800094022397F90920604602F0A9
:1046700061F976E0401C40B27872632801DD632066
:104680007872BF48A0F800B0BE4AE72010800094BE
:10469000022397F90920604602F04CF961E00AE232
:1046A000FFF76CFC7878B8A1CDE9001402904B4676
:1046B0005A46A621504602F08CFB01F000FD50E066
:1046C00001F002FD584601F00DF9FFF752FF0021FD
:1046D0000846FFF778FC7878ADA1CDE900144B4689
:1046E0005A4604E009E019E021E029E031E00290B7
:1046F000D821504602F06DFB33E0FFF73FFC78789D
:10470000A5A1CDE9001402904B465A464FF485719D
:10471000504602F05EFB88F8005022E07861B87ADB
:10472000401CC0B2B87203281BD9BA7219E0B86134
:10473000F87A401CC0B2F872032812D9FA7210E05D
:10474000F861387B401CC0B23873032809D93A732A
:1047500007E03862787B401CC0B27873032800D928
:104760007A738449824F4FF02008887AC97A4FF0D3
:104770002D0942F2107A884227D17E4AD2E905C13A
:10478000614579D97E4B5A46A3F800B0DFF8F4E1D1
:10479000E723AEF80030A1EB0C01DFF804C2DFF82C
:1047A000D4E1CCF820109EF909C04FF47A7E0CFBBE
:1047B0000EFCBCFBF1F1DFF8E8C1CCF828100128B1
:1047C00004D002282DD0032857D047E1396069482A
:1047D000007A60B16748CDE900940295C17890F8FD
:1047E00004C080786144383001F0A8FF0BE06148D4
:1047F000CDE900840295C17890F804C080786144C6
:10480000383001F09BFF38680094B0FBFAF2594849
:10481000C1780379807819440623403002F03AF8D1
:104820001CE179605348007A60B15248CDE90094A8
:104830000295C17890F804C080786144BA3001F0E4
:104840007DFF0BE04B48CDE900840295C17890F8DC
:1048500004C080786144BA3001F070FF7868009439
:10486000B0FBFAF24348C1780379807819440623F3
:10487000C23002F00FF8F1E02DE0B9603D48007A57
:1048800068B13C48CDE900940295C17890F804C025
:104890008078614400F59E7001F050FF0CE03548CF
:1048A000CDE900840295C17890F804C08078614415
:1048B00000F59E7001F042FFB8680094B0FBFAF278
:1048C0002C48C178037980781944062300F5A2703A
:1048D00001F0E0FFC2E02A4B5A46A3F800B0DFF82F
:1048E000A4E0E723AEF80030ACEB0101DFF8B0C084
:1048F000DFF880E0CCF820109EF909C04FF47A7EF2
:104900000CFB0EFCBCFBF1F1DFF894C0CCF82810D6
:10491000012804D0022848D0032872D09EE03960D4
:104920001448007A60B11348CDE900840295C1783B
:1049300090F804C080786144383001F0FFFE0BE04D
:104940000C48CDE900940295C17890F804C08078B5
:104950006144383001F0F2FE38680094B0FBFAF29E
:104960000448C1780379807819440623403019E05F
:104970002004002064010020580200201D000020B7
:104980001E02002020020020BFAACABC00000000B6
:10499000C7E5C1E300000000B7B5BBD800000000C8
:1049A0006804002001F076FF58E07960EF48007A53
:1049B00060B1EE48CDE900840295C17890F804C05A
:1049C00080786144BA3001F0B9FE0BE0E748CDE9E8
:1049D00000940295C17890F804C080786144BA30A0
:1049E00001F0ACFE78680094B0FBFAF2DF48C178C1
:1049F0000379807819440623C23001F04BFF2DE083
:104A0000FFE7B960D948007A68B1D848CDE9008499
:104A10000295C17890F804C08078614400F59E70DA
:104A200001F08CFE0CE0D148CDE900940295C178EC
:104A300090F804C08078614400F59E7001F07EFE1D
:104A4000B8680094B0FBFAF2C848C378017980785E
:104A50001944062300F5A27001F01CFFDFF80CE3F7
:104A60009EF80C009EF80D10884224D1DEE907C1A3
:104A700061457DD9BE4B5A46A3F800B0DFF8F4B2C9
:104A8000E723ABF80030A1EB0C01DFF8ECC2CCF867
:104A900024109EF909C04FF47A7B0CFB0BFCBCFB85
:104AA000F1F1DFF8D4C2CCF82C10012804D0022890
:104AB00031D0032860D042E1BB46F9609EF808007F
:104AC000774660B1CDE9009402953879F97800EB2A
:104AD00040000144B878383001F030FE0BE0CDE9F9
:104AE000008402953879F97800EB40000144B878E9
:104AF000383001F023FEDBF80C000094B0FBFAF232
:104B00003879F97800EB40000144B878062340304A
:104B100001F0C0FE13E1BB4639619EF808007746FC
:104B200060B1CDE9009402953879F97800EB400046
:104B30000144B878BA3001F001FE0BE0CDE9008401
:104B400002953879F97800EB40000144B878BA3022
:104B500001F0F4FDDBF810000094B0FBFAF23879B4
:104B6000F97800EB40000144B8780623C23000E039
:104B700034E001F08FFEE2E0BB4679619EF8080068
:104B8000774668B1CDE9009402953879F97800EB61
:104B900040000144B87800F59E7001F0CFFD0CE0B4
:104BA000CDE9008402953879F97800EB40000144A2
:104BB000B87800F59E7001F0C1FDDBF81400009498
:104BC000B0FBFAF23879F97800EB40000144B8788C
:104BD000062300F5A27001F05DFEB0E0644B5A467A
:104BE000A3F800B0DFF88CB1E723ABF80030ACEBF2
:104BF0000101DFF884C1CCF824109EF909C04FF4FC
:104C00007A7B0CFB0BFCBCFBF1F1DFF86CC1CCF840
:104C10002C10012804D0022831D003285ED08EE069
:104C2000BB46F9609EF80800774660B1CDE9008484
:104C300002953879F97800EB40000144B8783830B3
:104C400001F07CFD0BE0CDE9009402953879F9780C
:104C500000EB40000144B878383001F06FFDDBF81C
:104C60000C000094B0FBFAF23879F97800EB4000C0
:104C70000144B8780623403001F00CFE5FE0BB46EB
:104C800039619EF80800774660B1CDE9008402954D
:104C90003879F97800EB40000144B878BA3001F077
:104CA0004DFD0BE0CDE9009402953879F97800EBE1
:104CB00040000144B878BA3001F040FDDBF8100044
:104CC0000094B0FBFAF23879F97800EB4000014427
:104CD000B8780623C23001F0DDFD30E0BB467961D3
:104CE0009EF80800774668B1CDE9008402953879CE
:104CF000F97800EB40000144B87800F59E7001F0AF
:104D00001DFD0CE0CDE9009402953879F97800EBAF
:104D100040000144B87800F59E7001F00FFDDBF80B
:104D200014000094B0FBFAF23879F97800EB4000F7
:104D30000144B878062300F5A27001F0ABFD3046BF
:104D4000BDE8FE8F0D49AFF2AF70FBF73EBE00210C
:104D50000846FFF738B910B54FF6FF7000F0C2FDF6
:104D600001F0B2F9BDE8104003E400006401002046
:104D70001E0200202002002068040020C701F00F5E
:104D800010B5FCF77FFBCE49E7200880CD494FF6F0
:104D9000FF700880B422BDE810404FF4A07340F2C9
:104DA00027116C2001F016BC2DE9FE4FC64C4FF0C8
:104DB000E708CDF80080002122881423084601F07E
:104DC0009AFB1027C1A1CDE9001701204FF6FF7A09
:104DD00002901F2352460221002002F070F8CDF805
:104DE00000A0638822881421002001F084FBBD4EBE
:104DF000BDA17078CDE900170290B388F288282110
:104E0000142001F0E6FF7078BAA1CDE900170290F6
:104E1000B388F2887621912001F0DBFF7078B7A18A
:104E2000CDE900170290B388F2889D21912001F00E
:104E3000D0FFFFF7A5FF0024DFF884924FF0A60B08
:104E4000A9F8008004EBC400327800EB0415C2EB33
:104E50004500A63002EB450381B2C2F5D270B633ED
:104E600002F5E27201F0B6FB7078A6A1CDE9001759
:104E7000029030780BEB4501C0F5CA70B388E72289
:104E800001F0A7FF641CE4B2032CD9D370789EA173
:104E9000CDE900170290B388F28840F20111912009
:104EA00001F097FF8F4900200C31CDE90017034630
:104EB000524602904FF4987101F08BFFA9F80080E0
:104EC0008048A0F800A003B0B422BDE8F04F4FF432
:104ED000A07340F227116C2001F07CBB70B5FCF789
:104EE0003EFC8F4A7F4B4FF49474108A4FF4A075A8
:104EF000A0F16D0147290DD2518AA1420AD3A942DE
:104F000008D2997831B100209870BDE87040012036
:104F1000FBF770BD6C280AD9B42808D2508AA04289
:104F200005D3A84203D27F480068012801D101209F
:104F3000987070BD2DE9FE4F0446DFF8EC8198F8BB
:104F4000000005282DD10027664D012C2AD01026FF
:104F500048F210094FF6FF7A022C38D04FF4857BC7
:104F6000042C45D0802C54D0B4F5807F62D0402CE6
:104F700075D028468068401CB4F5801F6DD0B4F110
:104F8000807F0ED0B4F5001F7ED0B4F1007F08D032
:104F9000B4F5000F7AD0B4F1006F7AD0B4F5800F79
:104FA00076D076E0E878401CE870604DC0074FF09E
:104FB000804205D00021104603F023FC2F7068E0EA
:104FC0000121104603F01DFC0120287061E0FFF76D
:104FD000D7FE687856A1CDE9001602904B4652469E
:104FE000A6214FF4D27001F0F4FE01F068F850E011
:104FF000FFF7C6FE687850A1CDE9001602904B4637
:10500000524659464FF4D27001F0E3FE88F8007022
:105010003FE0FFF7B5FE687845A1CDE900160290A4
:105020004B465246A6214FF4D27001F0D2FE01F059
:1050300046F82EE0FFF7A4FE687841A1CDE90016FE
:1050400002904B465246D8214FF4D27001F0C1FE77
:1050500001F03AF8AF601CE001E013E014E0FFF764
:105060008FFE687834A1CDE9001602904B46524677
:1050700059464FF4D27001F0ACFE88F8007008E099
:1050800004E005E0A86004E0A86002E0A86000E099
:10509000A8602046BDE8FE8F2B49AFF26710FBF7F2
:1050A00094BC002108467FE610B54FF6FF7000F073
:1050B00019FC01F009F80B490020886010BD0000C0
:1050C0001E0200202002002058040020B9E2B5E7AB
:1050D000BCC6CAB1CAFDD7D6CAB5D1E9CFB5CDB322
:1050E00000000000B4010020CAB5D1E935A3BABC64
:1050F000C6CAFD00BCC6CAFDA3BA0000BCC6CAB180
:10510000A3BA0000F7CE0000B0B4BCFC204B455958
:105110005F3020D4DDCDA3BACDBCCCD0F8000000E8
:1051200028020020288123421D0000205002002078
:10513000BFAACABC00000000B7B5BBD80000000081
:10514000C7E5C1E300000000C701F00F70B5FCF730
:1051500099F9F849E7200880F7494FF6FF70088071
:105160004FF4A07540F227162B46B42231466C202E
:1051700001F030FA4FF482742B4622463146B420B7
:1051800001F028FA2B4631462046BDE870404FF426
:10519000A87201F01FBA2DE9FE4FE84CE7270097EF
:1051A000002122881423084601F0A5F901261025C4
:1051B000E3A08DE861004FF6FF7B1F235A460221D2
:1051C000002001F07CFECDF800B063882288142115
:1051D000002001F090F9E04CE0A16078CDE90015E5
:1051E0000290238962892821142001F0F2FD607861
:1051F000E0A1CDE900150290238962895021A078B1
:1052000001F0E7FD6078E1A1CDE900150290238966
:1052100062898221A07801F0DCFD6078E1A1CDE90E
:105220000015029023896289B421A07801F0D1FD94
:105230006078E2A1CDE900150290A0782389628907
:105240005021C83001F0C5FD6078E2A1CDE900151C
:105250000290A078238962898221C83001F0B9FDCB
:105260006078DEA1CDE900150290A07823896289DB
:10527000B421C83001F0ADFDDFF8B882A8F800B065
:10528000DFF8B492A9F80070DFF864A3AAF81C60F4
:105290000095A078062332465021FF3001F0FAFA3B
:1052A0000095A07806238221FF30DAF8002001F073
:1052B000F1FAFFF74BFF0026A8F8007006EBC600D6
:1052C000227800EB061AC2EB4A00A63002EB4A0332
:1052D00081B2C2F5D270B63302F5E27201F07AF90A
:1052E0006078C4A1CDE900150290A62000EB4A0128
:1052F00020782389C0F5CA70E72201F06AFD761C88
:10530000F6B2032ED8D36078BBA1CDE90015029088
:105310002389628940F21111A07801F05AFD8E496B
:1053200000200C31CDE9001503465A4602904FF497
:10533000987101F04EFDA8F80070A9F800B04FF484
:10534000A07540F227162B46B42231466C2001F09E
:1053500041F94FF482742B4622463146B42001F0C5
:1053600039F903B02B4631462046BDE8F04F4FF4E3
:10537000A87201F02FB92DE9F05FFCF7F0F9A44F06
:10538000DFF89092744C388A4FF00008A0F16D015C
:105390004FF0010A4FF494754FF4A07647290CD2D0
:1053A000798AA94209D3B14207D2E17829B184F8B8
:1053B00003800120FBF71EFB0EE06C280AD9B428FD
:1053C00008D2788AA84205D3B04203D2D9F828017E
:1053D000012801D184F803A0388A4FF4827BA0F120
:1053E000B5014F290CD2798AA94209D3B14207D21B
:1053F000217929B184F804800220FBF7FBFA0EE042
:10540000B4280AD9584508D2788AA84205D3B042B0
:1054100003D2D9F82801012801D184F804A0388AE0
:10542000A0F205114B290DD2798AA9420AD3B142C3
:1054300008D2617931B184F80580BDE8F05F0420BD
:10544000FBF7D8BA58450BD9B0F5A87F08D2788AAF
:10545000A84205D3B04203D2D9F82801012801D1CE
:1054600084F805A0BDE8F09F2DE9FE4F0446DFF863
:10547000A8B19BF8000006282CD1374F4FF0000947
:105480004FF0010A012C26D03846594D8078294A20
:10549000E723DFF8A4C01026FF30A98B4FF6FF7872
:1054A000022C2ED0042C3DD0802C3CD0B4F5807F33
:1054B0003AD0402C39D028460068401CB4F5801FF3
:1054C00034D0B4F5001F32D0B4F5000F30D0B4F5AD
:1054D000800F2ED0F9E0B879401CB871C1074F4851
:1054E0004FF0804206D080F800900021104603F073
:1054F00088F9EAE080F800A00121104603F081F964
:10550000E3E0491E89B2A98309B9A5F81CA0A2F855
:105510000080ACF800300096AA8B0623502101F0E1
:10552000B9F9D2E07CE089E09AE0B4E0C6E0C7E0F7
:10553000C8E0C9E01E02002020020020580400201C
:10554000B9E2B5E7BCC6CAB1CAFDD7D6CAB5D1E97A
:10555000CFB5CDB300000000E6010020CAB5D1E907
:1055600036A3BAB2E2C1BFD6DCC6DABACDC6B5C27E
:10557000CA000000F7CECAB1BCE420743D20202050
:105580002020202020202020206D7300F7CED6DCA4
:10559000C6DA20543D20202020202020202020205A
:1055A000206D7300F7CEC6B5C2CA20663D2020200C
:1055B000202020202020202020487A00F7CEB4A5EB
:1055C000B7A22020202020202020B4CECEAA31D681
:1055D000DCC6DA00F7CEB4CECAFD0000F7CED6DCCA
:1055E000C6DACAFDA3BA2020202020202000000017
:1055F00038040020F7CE0000B0B4BCFC204B455965
:105600005F3020D4DDCDA3BACDBCCCD0F8000000F3
:1056100028020020008023421D00002050020020AC
:10562000491C89B2A983A2F80080ACF800300A4670
:1056300006235021009601F02DF946E0FFF786FD84
:1056400078782EA1CDE90016029048F21003424668
:10565000A6214FF4D27001F0BCFB00F030FD34E025
:10566000404600F03FF900210846FFF794FD7878A6
:1056700024A1CDE90016029048F210034246D82139
:105680004FF4D27001F0A5FBC5F80090A5F81CA05E
:1056900000F01AFD19E0FFF759FD78781BA1CDE95C
:1056A0000016029048F2100342464FF485714FF401
:1056B000D27001F08EFB8BF8009006E0286004E0C9
:1056C000286002E0286000E028602046BDE8FE8FE8
:1056D0001049AFF26B20FBF778B9002108465AE574
:1056E00010B54FF6FF7000F0FDF800F0EDFC0A4831
:1056F000002101600121818310BD0000BFAACABC46
:1057000000000000C7E5C1E300000000B7B5BBD84A
:1057100000000000C701F00F3804002008B5012187
:10572000442001F0BEFF1820ADF8000048208DF89D
:1057300003006946324801F0AEFD0120ADF80000DB
:1057400028208DF8030069462E4801F0A4FD2EA004
:1057500003F0B4FA08BD2DE9F04101272D4C0028D3
:1057600000D027702078274E254D78B1102128468B
:1057700001F0ECFDF8B10821284601F0E7FDD0B1B9
:105780000121304601F0E2FD012814D01021284605
:1057900001F0DCFD01280CD10821284601F0D6FDDE
:1057A000012806D10121304601F0D0FD002800D1AA
:1057B0002770BDE8F0811848016902208847002061
:1057C00020701021284601F0C1FD78B1082128463B
:1057D00001F0BCFD78B10121304601F0B7FD012890
:1057E000E7D1BDE8F0410420FBF704B9BDE8F04182
:1057F0000120FBF7FFB8BDE8F0410220FBF7FAB843
:1058000000180140000801406B657920696E6974D9
:105810000D0A00001D02002008000020F649088043
:105820007047F549891C08807047FAE7F24A1080F2
:10583000901C01807047F1480089EFE710B50246DF
:105840000B46EE4C6089FFF7E9FF100AFFF7E9FF0E
:10585000D0B2FFF7E6FF521C100AFFF7E2FF90B24A
:10586000FFF7DFFFA089FFF7D9FF180AFFF7D9FF7D
:10587000D8B2FFF7D6FF5B1C180AFFF7D2FF98B229
:10588000FFF7CFFFBDE81040D5E700B5FFF7D6FF23
:10589000DB4800885DF804EBC3E770B504460D46AD
:1058A000D64E7089FFF7BAFF200AFFF7BAFFE0B2C1
:1058B000FFF7B7FF100AFFF7B4FFD0B2FFF7B1FF51
:1058C000B089FFF7ABFF280AFFF7ABFFE8B2FFF79D
:1058D000A8FF180AFFF7A5FFD8B2FFF7A2FFBDE89F
:1058E0007040A8E730B505460024C44841880088C8
:1058F000491E8BB2401E82B200210846FFF7CDFF41
:10590000BD4A4FF47070921C00211580491CA029DB
:10591000FBD3641C8442F7D330BDF0B59FB00121A6
:10592000080201F0B3FE012140F2791001F0B9FE46
:105930000127ADF8787010268DF87B6003248DF870
:105940007A401EA9AF4801F0A6FC4CF23370ADF8C6
:10595000780018258DF87B508DF87A401EA9AA484A
:1059600001F099FC4FF68070ADF878008DF87B500F
:105970008DF87A401EA9A54801F08DFC41F2010086
:10598000ADF878008DF87B508DF87A401EA9A048BC
:1059900001F081FC0897002009900F210A910B90DB
:1059A0000C900D900E90022101910290052103911F
:1059B000049005900690079006210F911090119089
:1059C000129613901590149016901790310218911A
:1059D000199089001A911B9008A81C9001A81D908D
:1059E0000FA802F0BAF80121062002F0EAF91FB070
:1059F000F0BD82482A2141812B2181812C21018106
:105A0000012181714FF4F07101804FF4A071418048
:105A1000A82136200AE710B5FFF77FFFF120FFF736
:105A2000FDFE3620FFF7FDFE0420FFF7FAFE002002
:105A3000FFF7F7FE3C20FFF7F4FE0F20FFF7F1FE23
:105A40008F20FFF7EEFEF220FFF7E8FE1820FFF7A9
:105A5000E8FEA320FFF7E5FE1220FFF7E2FE02209A
:105A6000FFF7DFFEB220FFF7DCFE1220FFF7D9FEC2
:105A7000FF20FFF7D6FE1020FFF7D3FE0020FFF730
:105A8000D0FEF820FFF7CAFE2120FFF7CAFE04204F
:105A9000FFF7C7FEF920FFF7C1FE0020FFF7C1FEA8
:105AA0000820FFF7BEFE3620FFF7B8FE0820FFF7FC
:105AB000B8FEB420FFF7B2FE0020FFF7B2FEB6201A
:105AC000FFF7ACFE0220FFF7ACFE2220FFF7A9FE95
:105AD000C120FFF7A3FE4120FFF7A3FEC520FFF77B
