:020000042000DA
:1010000070DA00206D7B0020757B0020777B00204C
:10101000797B00207B7B00207D7B0020000000008E
:101020000000000000000000000000007F7B0020A6
:10103000817B002000000000837B0020857B002056
:10104000877B0020877B0020877B0020877B002018
:10105000877B0020877B0020877B0020877B002008
:10106000656D0020916D0020BD6D0020877B002004
:10107000877B0020877B0020877B0020877B0020E8
:10108000877B0020877B0020877B0020877B0020D8
:10109000877B0020877B0020877B0020E96D002074
:1010A000877B0020877B0020877B0020877B0020B8
:1010B000796E0020877B00207F6F0020877B0020D7
:1010C000877B0020877B0020877B0020877B002098
:1010D000877B0020877B0020877B0020877B002088
:1010E000877B0020877B0020877B0020877B002078
:1010F000877B0020877B0020877B0020877B002068
:10110000877B0020877B0020877B0020877B002057
:10111000877B0020877B0020877B0020877B002047
:10112000877B0020877B0020877B0020877B002037
:1011300000F002F800F05AF80AA090E8000C82448F
:101140008344AAF10107DA4501D100F04FF8AFF26C
:10115000090EBAE80F0013F0010F18BFFB1A43F095
:1011600001031847B4AE0000D4AE00000A444FF0AB
:10117000000C10F8013B13F0070408BF10F8014BF6
:101180001D1108BF10F8015B641E05D010F8016B3B
:10119000641E01F8016BF9D113F0080F1EBF10F89F
:1011A000014BAD1C0C1B09D16D1E58BF01F801CBC2
:1011B000FAD505E014F8016B01F8016B6D1EF9D545
:1011C0009142D6D37047000000230024002500265A
:1011D000103A28BF78C1FBD8520728BF30C148BF9A
:1011E0000B6070471FB51FBD10B510BD08F0B6FBF2
:1011F0001146FFF7F7FF00F009F808F0D4FB03B43D
:10120000FFF7F2FF03BC08F0DBFB00000EB5002483
:10121000012700F00AFB00F093F94FF4A06006F0FC
:10122000C5FC05F081F905F0E7FC05F049FD472113
:1012300040F2E73005F0F6FD002140F2833005F082
:101240002BFE41F61F41632005F06DFE05F078FC92
:1012500004F0D4FF00F06AFB00F0DCF900F0E8F9DC
:101260000020AC49086054E10A2000F0A6F917B14B
:10127000601C84B201E0601E84B2C82C00DD00272F
:1012800004B901272146A44808F0DCFA002004F044
:10129000CFFFA248006818B10120A149086002E010
:1012A00000209F4908609F480078012835D14FF6FB
:1012B000FF709D490880E7209C490880102000901D
:1012C0009B480C2360210268D22006F097F810207A
:1012D000009097480C2392214268D22006F08EF8A5
:1012E0001020009092480C23C4218268D22006F07E
:1012F00085F8102000908E480C23F621C268D22079
:1013000006F07CF81020092300908248282102680A
:101310004FF4BC7006F072F8E6E0824800780228CC
:1013200011D14FF6FF7080490880E7207F4908807F
:101330001020092300907748162102684FF4BC70F2
:1013400006F05CF8D0E077480078032811D14FF61A
:10135000FF7075490880E720744908801020092330
:1013600000906C48162102684FF4BC7006F046F8F5
:10137000BAE06C480078042811D14FF6FF706A4932
:101380000880E720694908801020092300906148FF
:10139000282102684FF4BC7006F030F8A4E06148E0
:1013A000007805283ED1AA259626E7205E490880C8
:1013B0004FF6FF705D49088020200090A6F12800BC
:1013C00081B207235B480268284606F0EEF85148D0
:1013D00000684FF47A71B0FBF1F8202003234246F5
:1013E00031460090284606F0E0F80B2000904F4868
:1013F00003884D480288314605F1300006F0A6F812
:10140000444800684FF47A71B0FBF1F201FB120816
:101410002020032342463146009005F1400006F0AB
:10142000C4F861E03F48007806285DD14FF6FF70B0
:101430003D490880E7203D490880364800683E491C
:10144000C8600846C0680968B0FBF1F03A494860D6
:10145000084640683949B1FBF0F0374988601020F0
:1014600000900846062350210268D62005F0C6FFEA
:1014700010200090304806238221C268D62005F053
:10148000BDFF102000902C480623B4214268D620CE
:1014900005F0B4FF284880686421B0FBF1F5102006
:1014A00003232A46E6210090D62005F0A7FF00205E
:1014B00010212E22CDE9002102901C4803881A48F1
:1014C0000288E621EE2005F0C7FE1B4880686421F3
:1014D000B0FBF1F201FB1205102002232A46E6219F
:1014E0000090F62005F0DEFFE7200F49088000237A
:1014F0004FF4F0721946184605F098FD01234FF499
:10150000F0721946002005F091FD4FF6FF70064974
:101510000880A9E6F0D10020000400402881234281
:101520009401234205D00020B8D10020BAD1002078
:10153000D0D300207CD10020B0D30020A0860100B1
:1015400010B56FF0040006F080FB2E4800682E49AD
:10155000B0FBF1F02D4908700846007800EB40011F
:10156000C1EBC0104FF6FF7101EAC00028490880A6
:1015700010BD0146254A12784A434FF0E0235A61D4
:1015800000229A611A46126942F001021A6100BFF4
:101590004FF0E022106900F001021AB100F480322D
:1015A000002AF5D04FF0E022126922F001024FF03C
:1015B000E0231A6100229A6170470146144A12889A
:1015C0004A434FF0E0235A6100229A611A46126999
:1015D00042F001021A6100BF4FF0E022106900F0F2
:1015E00001021AB100F48032002AF5D04FF0E02257
:1015F000126922F001024FF0E0231A6100229A6181
:101600007047000008D0002000127A0000D00020AF
:1016100002D0002010B501F0B0F901F0DEFD02F0BB
:10162000C9FF04F06AF904F066FB04F05EFD10BD2A
:10163000002043490870704710B5044641480078BF
:10164000844200D110BD3F4800780A281ED2DFE84E
:1016500000F005080B0E1114171A1B1C01F09AF963
:1016600014E001F0C7FD11E002F0B1FF0EE002F05E
:10167000AEFF0BE004F04EF908E004F049FB05E092
:1016800004F040FD02E001E000E000BF00BF0A2CD2
:101690001ED2DFE804F005080B0E1114171A1B1CEC
:1016A00001F072F914E001F09FFD11E002F089FFF2
:1016B0000EE002F086FF0BE004F026F908E004F0EB
:1016C00021FB05E004F018FD02E001E000E000BFAE
:1016D00000BF1C48047000BFB4E710B5184800787C
:1016E0000A281ED2DFE800F005080B0E1114171AA5
:1016F0001B1C00F075FD14E001F02BFB11E002F063
:10170000E6FA0EE002F0E3FA0BE003F04CFA08E030
:1017100004F0ABF905E004F026FC02E001E000E093
:1017200000BF00BF10BD10B50748416800208847C2
:1017300003480078FFF780FFFFF7CFFF10BD0000E0
:1017400005D0002004D00020C0D100200CB500201E
:10175000019000906C48006840F480306A4908604D
:1017600000BF6948006800F4003000900198401CF8
:101770000190009818B90198B0F5A06FF1D16248B6
:10178000006800F4003010B10120009001E000205A
:1017900000900098012843D15C48006840F0100098
:1017A0005A4908600846006820F0030008600846AF
:1017B000006840F0020008605348406852494860A1
:1017C0000846406848600846406840F480604860C9
:1017D0000846406820F47C1048600846406840F4A1
:1017E000E81048600846006840F08070086000BF5C
:1017F0004548006800F000700028F9D04248406871
:1018000020F00300404948600846406840F002006C
:10181000486000BF3C48406800F00C000828F9D13F
:101820000CBD10B5FFF792FF10BD10B5364800682B
:1018300040F00100344908600846406834490840D7
:101840003149486008460068324908402E4908601E
:101850000846006820F4802008600846406820F4AC
:10186000FE0048604FF41F008860FFF7DAFF4FF07A
:1018700000602949086010BD10B500210020002239
:10188000214B5B6803F00C0121B1042906D0082923
:1018900028D107E0214B224C236027E01F4B204C2E
:1018A000236023E0184B5B6803F47010164B5B68F1
:1018B00003F48032022303EB904022B9194B4343D7
:1018C000174C23600DE0104B5B6803F4003323B129
:1018D000144B4343124C236003E0104B4343104C22
:1018E000236003E00D4B0E4C236000BF00BF064B8E
:1018F0005B68C3F303130C4CE15C094B1B68CB40E2
:10190000074C236010BD0000001002400020024080
:101910000000FFF8FFFFF6FE08ED00E000127A007D
:1019200008D0002000093D000CD0002010B54FF475
:10193000C8711B4807F0E8FF10BD10B50246002033
:1019400011E0174B53F830305BB9154B43F830209A
:1019500003EBC0035960134B1B785B1C114C2370C5
:1019600010BD431CD8B23228EBDB00BFF8E770B5DE
:10197000054600240EE00A4800EBC40040682840F9
:1019800038B1074850F8341028468847054605B94D
:1019900070BD641C034800788442ECDB00BFF7E7AD
:1019A00008D200201CD000200EB5F9480078102184
:1019B000F8A2CDE900210290FB480388FB48028889
:1019C000FB480178FB48007805F0CAFFF048007832
:1019D0001021F9A2CDE900210290F5480078FB4AD8
:1019E00012788118F0480388F0480288F14800789E
:1019F00005F0B6FFE64800781021F5A2CDE90021F8
:101A00000290EB480078F14A12781044EF4A1278BD
:101A10008118E5480388E5480288E648007805F023
:101A20009FFFDB4800781021F1A2CDE90021029050
:101A3000DF480078E54A12781044E44A12781044EE
:101A4000E24A12788118D8480388D8480288D948D1
:101A5000007805F085FFCE4800781021EAA2CDE994
:101A600000210290D2480078D84A12781044D74A10
:101A700012781044D54A12781044D44A127881184A
:101A8000C9480388C9480288CA48007805F068FF39
:101A9000BF4800781021DFA2CDE900210290C448A0
:101AA0000078CA4A12781044C84A12781044C74ACB
:101AB00012781044C54A12781044C44A127881182A
:101AC000B9480388B9480288BA48007805F048FF49
:101AD000AF4800781021D5A2CDE900210290B4488A
:101AE0000078BA4A12781044B84A12781044B74ABB
:101AF00012781044B54A12781044B44A127881180A
:101B0000A9480388A94802884FF4D27005F028FF3D
:101B10009F4800781021C7A2CDE900210290A44877
:101B20000078AA4A12781044A84A12781044A74AAA
:101B300012781044A54A12781044A44A127810442E
:101B4000A24A12788118984803884FF478424FF4DB
:101B5000D27005F005FF0EBD2DE9FE4305460E4689
:101B6000E7200090B548028814230021084605F0BC
:101B700029FA01201021B2A21F23CDE900210290F1
:101B80004FF6FF720221002005F06EFF01200C21AC
:101B9000B14A0023CDE9002102904FF6FF720821DF
:101BA0004FF4C87005F0DCFE4FF6FF700090A348BC
:101BB0004088143883B2A14802881421002005F01F
:101BC00001FAFFF7F1FE002454E0E720A349088062
:101BD000774F3F78DFF8F4C19CF800C00CFB047726
:101BE000DFF87CC29CF800C067441037BBB29D4F41
:101BF00017F804C06F4F3F7838374FF0100808FBD4
:101C00000C77DFF85CC29CF800C007EB0C02684F51
:101C10003F78DFF8B8C19CF800C00CFB0477DFF810
:101C200040C29CF800C0A7EB0C07B9B2614F3F78E7
:101C3000DFF82CC29CF800C0A7EB0C07B8B205F087
:101C40004DFA53480078102187A2CDE90021029077
:101C5000574A12785D4B1B7804FB032291B2554A18
:101C60001278283A90B2504A1388E72205F078FE9D
:101C7000601CC4B2062CA8DB5448007800EB80003E
:101C80004B4C24782044764C2478204400F11003F7
:101C90007348007800F5E2724C48007800EB800051
:101CA000434C247820446E4C2478001B81B24FF4BE
:101CB000CD7005F013FA4548007800EB40003C4C2D
:101CC000247804EB4000664C2478204400F1100393
:101CD0006348007800F5E2723C48007800EB400071
:101CE000334C247804EB40005D4C2478001B81B217
:101CF0004FF4CD7005F0F2F9002010215B4A034645
:101D0000CDE9002102904FF6FF724FF4987105F073
:101D100027FE012056490860BDE8FE833EB5044613
:101D200054480470FFF740FE52480078012813D150
:101D300000205149087016480078102115A2E723A9
:101D4000CDE9002102904FF6FF7219480178194839
:101D5000007805F005FE6EE146480078022816D1AD
:101D60000020454908700A480078102112A2CDE9E8
:101D7000002102900E480078144A12788118E72357
:101D80004FF6FF720B48007805F0EAFD53E175E06D
:101D90004CD00020CAB5D1E931A3BAB2E2C1BFB577
:101DA000B2B9E2CAB1BCE4004ED0002050D000204D
:101DB0004AD0002049D00020CAB5D1E932A3BAB236
:101DC000E2C1BFCBB2CAB1CBD9B6C8004BD000205C
:101DD000CAB5D1E933A3BAB2E2C1BFD4C8B1E4CB2A
:101DE000D9D4CBB6AFB5C4BCD3CBD9B6C8000000EC
:101DF000CAB5D1E934A3BAB2E2C1BFC5F6D7B2D6EB
:101E0000D0B5C4B6AFC1BF00CAB5D1E935A3BABC1D
:101E1000C6CAFD00CAB5D1E936A3BAB2E2C1BFD67F
:101E2000DCC6DABACDC6B5C2CA000000C9E8D6C35E
:101E300000000000CDCBB3F600000000C0D30020AE
:101E4000B9E2B5E7BCC6CAB1CAFDD7D6CAB5D1E9B1
:101E5000CFB5CDB3000000001ED00020B8D10020C7
:101E600052D0002053D00020F7CE00002AD000200E
:101E70008081214259D0002065D00020FE480078A2
:101E800003281AD10020FD490870FD480078102170
:101E9000AFF2C402CDE900210290FA480078FA4A74
:101EA00012781044F84A12788118E7234FF6FF722F
:101EB000F648007805F054FDBDE0EF4800780428AE
:101EC0001DD10020ED490870ED4800781021AFF2D7
:101ED000E002CDE900210290EA480078EA4A12784F
:101EE0001044E94A12781044E74A12788118E7232F
:101EF0004FF6FF72E548007805F032FD9BE0DE48C2
:101F00000078052820D10020DC490870DC480078E2
:101F10001021AFF20C12CDE900210290D9480078CF
:101F2000D94A12781044D84A12781044D64A127806
:101F30001044D54A12788118E7234FF6FF72D34830
:101F4000007805F00DFD76E0CB480078062823D117
:101F50000020CA490870CA4800781021AFF24C121C
:101F6000CDE900210290C7480078C74A1278104492
:101F7000C54A12781044C44A12781044C24A1278F2
:101F80001044C14A12788118E7234FF6FF72BF4808
:101F9000007805F0E5FC4EE0B7480078082823D12A
:101FA0000020B6490870B64800781021AFF28412BC
:101FB000CDE900210290B3480078B34A127810446A
:101FC000B14A12781044B04A12781044AE4A1278DE
:101FD0001044AD4A12788118E7234FF6FF724FF490
:101FE000D27005F0BDFC26E0A3480078092822D174
:101FF000A34800781021AFF2C412CDE9002102906D
:10200000A0480078A04A127810449F4A12781044E1
:102010009D4A127810449C4A127810449A4A1278C9
:102020001044994A12788118E7234FF6FF724FF453
:10203000D27005F095FC904800789549097888425F
:102040001AD18D480078082803D08B4800780928D9
:1020500010D18948007809280ED188480078401CA2
:102060008649087008460078022805D189488A49BF
:10207000086001E0894804707F480078844908704E
:102080003EBD10B504468548007800281DD1012CBE
:1020900024D183480078401E40B281490870084628
:1020A00090F90000012801DA012008707C480078CE
:1020B00001280BD17B480078002806D00020794900
:1020C000087077490878FFF729FE87E001207549F5
:1020D000087073490878FFF721FE7FE0022C0ED1CB
:1020E0006F4890F90000002878DD6D4890F90000F5
:1020F000072873DA6A490878FFF710FE6EE0042CAF
:1021000024D167480078401C40B2654908700846F1
:1021100090F90000062801DD06200870604800786C
:1021200006280BD15F480078002857D000205D4971
:1021300008705B490878FFF7F1FD4FE0012059492D
:10214000087057490878FFF7E9FD47E0B4F5805F6C
:1021500006D10120FFF7E2FD0120514908703DE062
:10216000B4F5005F06D10220FFF7D8FD02204C49EC
:10217000087033E0B4F5804F06D10320FFF7CEFDA1
:1021800003204749087029E0B4F5004F06D1042028
:10219000FFF7C4FD0420424908701FE0B4F5803FFA
:1021A00006D10520FFF7BAFD05203D49087015E06E
:1021B000B4F5003F06D10620FFF7B0FD06203849F0
:1021C00008700BE0B4F5802F03D10820FFF7A6FDBF
:1021D00004E0202C02D10920FFF7A0FD204610BD0D
:1021E00010B52A48007830490978401A2F49098AE1
:1021F00088422DDA2D48028A2D480178234800783C
:102200003830102303FB0100274909780844824233
:102210001EDA1C490978084623490978401A2349DF
:10222000498A884214DA2148418A164A12781046AF
:102230001D4A127810441030814209DA1D48007896
:1022400030B100201B4908701802FFF790FB54E0E2
:102250000E48007814490978401A1449098A8842BE
:1022600048DA1248028A1248017808480078383063
:10227000102303FB01001FE059D0002065D000208F
:102280004CD000204AD000204BD0002049D0002064
:102290005AD000200400FA050CED00E005D0002023
:1022A00063D0002064D0002052D00020C0D1002094
:1022B00053D000205BD00020FE49097808448242B8
:1022C00018DAFD4909780846FA490978401AFB49A5
:1022D000498A88420EDAF948418AF74A127810464C
:1022E000F44A127810441030814203DAF44800684E
:1022F000012802D10120F3490870F3480078ED4924
:102300000978401AED49098A884231DAEB48028A95
:10231000EE484178EC4800783830102303FB010088
:10232000E44909780844824222DAE9480078E2491F
:1023300009780844DF490978401AE049498A884207
:1023400016DADE48418AE2480078DB4A1278104407
:10235000D84A127810441030814209DADD480078FA
:1023600030B10020DB4908705802FFF700FB37E06E
:10237000D5480078CF490978401AD049098A88425F
:102380002BDACE48028AD1484178CF4800783830DD
:10239000102303FB0100C7490978084482421CDA74
:1023A000CB480078C44909780844C2490978401AE2
:1023B000C249498A884210DAC048418AC448007834
:1023C000BD4A12781044BB4A127810441030814242
:1023D00003DABB480068012802D10120BD4908701A
:1023E000B9480078B3490978401AB449098A884243
:1023F00033DAB248018AB5488278B3480078383079
:10240000102303FB0200AB4A12781044814224DA05
:10241000AF480078A849097801EB4000A549097840
:10242000401AA649498A884217DAA448418AA8482E
:102430000078A14A127802EB40009E4A12781044BC
:102440001030814209DAA448007830B10020A24956
:1024500008709802FFF78BFA39E09B48007895499D
:102460000978401A9549098A88422DDA9348018AE9
:1024700096488278944800783830102303FB020095
:102480008C4A1278104481421EDA914800788A49B9
:10249000097801EB400087490978401A8749498A41
:1024A000884211DA8548418A89480078824A127840
:1024B00002EB40007F4A127810441030814203DA68
:1024C0007F480068012802D10120834908707E48B6
:1024D000007878490978401A7849098A884235DABB
:1024E0007648018A7948C2787748007838301023D6
:1024F00003FB02006F4A12781044814226DA7448C6
:10250000007800EB40006C49097808446949097873
:10251000401A6A49498A884218DA6848418A6C48F0
:10252000007800EB4000644A12781044614A127847
:1025300010441030814209DA6848007830B1002038
:1025400066490870D802FFF712FA3BE05E4800784F
:1025500058490978401A5949098A88422FDA574858
:10256000028A5A48C178584800783830102303FB53
:102570000100504909780844824220DA5448007822
:1025800000EB40004C49097808444A490978401A50
:102590004A49498A884212DA4848418A4C480078B8
:1025A00000EB4000444A12781044424A127810442A
:1025B0001030814203DA42480068012802D101202C
:1025C00046490870404800783A490978401A3B4922
:1025D000098A884233DA3948028A3C4801793A4804
:1025E00000783830102303FB010032490978084491
:1025F000824224DA364800782F49097801EB8000BE
:102600002C490978401A2D49498A884217DA2B4803
:10261000418A2F480078284A127802EB8000254A28
:10262000127810441030814209DA2D48007830B118
:1026300000202B4908701803FFF799F939E0224868
:1026400000781C490978401A1C49098A88422DDA09
:102650001A48028A1D4801791B4800783830102337
:1026600003FB010013490978084482421EDA184826
:1026700000781149097801EB80000E490978401A69
:102680000E49498A884211DA0C48418A104800787C
:10269000094A127802EB8000064A12781044103082
:1026A000814203DA06480068012802D101200C4962
:1026B000087017E052D000204AD00020C0D100207E
:1026C000288123425BD0002049D0002053D0002035
:1026D0004BD000205CD000205DD000205ED00020D8
:1026E0005FD00020BC480078BC490978401ABC493A
:1026F000098A884235DABA48028ABA484179B64826
:1027000000783830102303FB0100B44909780844ED
:10271000824226DAB448007800EB8000B349097899
:102720000844AE490978401AAD49498A884218DA06
:10273000AB48418AAC48007800EB8000AB4A127885
:102740001044A64A127810441030814209DAA84891
:10275000007830B10020A64908705803FFF707F948
:102760003BE09D4800789D490978401A9C49098AB8
:1027700088422FDA9A48028A9A4841799648007826
:102780003830102303FB0100944909780844824241
:1027900020DA9548007800EB8000944909780844D5
:1027A0008E490978401A8E49498A884212DA8C4843
:1027B000418A8D48007800EB80008C4A12781044E2
:1027C000864A127810441030814203DA8948006842
:1027D000012802D10120864908708148008AB0F59D
:1027E000CD7F2FDD7E48018A7C48007800F5E270BD
:1027F000814227DA7C48007800EB80007B49097829
:10280000084476490978401A7549498A884219DA94
:102810007348418A7448007800EB8000734A12784C
:1028200010446E4A12781044103081420ADA72481D
:10283000007838B10020704908704FF48020FFF70D
:1028400096F830E06648008AB0F5CD7F28DD644810
:10285000018A6248007800F5E270814220DA62481D
:10286000007800EB80006149097808445B490978E9
:10287000401A5B49498A884212DA5948418A5A48C3
:10288000007800EB8000594A12781044534A1278BD
:1028900010441030814203DA56480068012802D102
:1028A0000120554908704E48008AB0F5CD7F30DDD3
:1028B0004B48018A4948007800F5E270814228DAE5
:1028C0004948007800EB40004849097801EB400096
:1028D00042490978401A4249498A884219DA4048EF
:1028E000418A4148007800EB4000404A127802EBF0
:1028F00040003A4A127810441030814209DA3F48C9
:10290000007830B100203D4908702020FFF72FF8F3
:1029100032E03348008AB0F5CD7F2ADD3048018AA5
:102920002E48007800F5E270814222DA2E480078C5
:1029300000EB40002D49097801EB40002749097858
:10294000401A2749498A884213DA2548418A26488D
:10295000007800EB4000254A127802EB40001F4A45
:10296000127810441030814203DA224800680128AE
:1029700002D101202149087010BD10B52049AFF6E1
:10298000FD00FEF7DAFF10BD10B500210846FFF785
:10299000E3F810BD10B54FF6FF7003F015FD0120F0
:1029A00018490870184908701849087018490870C3
:1029B000184908700E4908700F4908700F490870CF
:1029C0000020154908700120144908700720144997
:1029D00008701449087010BD49D0002052D0002062
:1029E000C0D1002053D000204BD000204AD000207E
:1029F00060D000202881234261D0002062D00020D6
:102A000027F007005BD000205CD000205DD00020C4
:102A10005ED000205FD0002063D0002064D0002072
:102A200059D000205AD000200EB5FE480078102161
:102A3000FDA2CDE900210290FD480388FD480288EF
:102A4000A6214FF4D27004F08BFFF64800781021D5
:102A5000F9A2CDE900210290F5480388F5480288E3
:102A6000D8214FF4D27004F07BFFEE48007810219B
:102A7000F3A2CDE900210290ED4803884FF478429B
:102A80004FF485714FF4D27004F06AFF0EBDFEB5AD
:102A900005460E46E7200090EB48028814230021EB
:102AA000084604F08FFA01201021E8A21F23CDE987
:102AB000002102904FF6FF720221002004F0D4FFA3
:102AC0004FF6FF700090E0484388028814210020F0
:102AD00004F078FAD34800781021E2A2CDE9002171
:102AE0000290D3480388D34802882821142004F098
:102AF00037FFCC4800781021DFA2CDE900210290F9
:102B0000CB480388CB48028828214FF4877004F013
:102B100027FFC44800781021DEA2CDE900210290F1
:102B2000C3480388C34802886021822004F018FF4C
:102B3000BC4800781021DAA2CDE900210290BC48FF
:102B40000388BC4802889221822004F009FFB5481E
:102B500000781021D5A2CDE900210290B448038865
:102B6000B4480288C421822004F0FAFEAD480078FF
:102B70001021D1A2CDE900210290AD480388AD48D3
:102B80000288F621822004F0EBFEA648007810218E
:102B9000CCA2CDE900210290A5480388A54802886F
:102BA00060214FF49B7004F0DBFE9E4800781021FA
:102BB000C4A2CDE9002102909D4803889D48028867
:102BC00092214FF49B7004F0CBFE964800781021C0
:102BD000BCA2CDE90021029095480388954802885F
:102BE000C4214FF49B7004F0BBFE8E480078102186
:102BF000B4A2CDE9002102908D4803888D48028857
:102C0000F6214FF49B7004F0ABFE8648007810214B
:102C1000ACA2CDE90021029085480388854802884E
:102C2000F6214FF49B7004F09BFEE720A649088034
:102C300000241DE0322204FB02F000F1560304FBE5
:102C400002F000F156014FF4BC72502004F0EEF98E
:102C5000322204FB02F000F17A0304FB02F000F1DF
:102C60007A014FF4BC72502004F0E0F9601CC4B249
:102C7000042CDFDB6B480078102194A2CDE9002101
:102C800002906B4803886B4802884621CE2004F0EE
:102C900067FE46234FF499721946D22004F0C6F914
:102CA0004FF4887350225621104604F0BFF94FF4B8
:102CB00088734FF4BC725621104604F0B7F9FFF741
:102CC000B3FE002435E032276743A637DFF80CC295
:102CD0009CF800C067441037BBB2804F3F7807F5BF
:102CE000E27232276743A637DFF8F0C19CF800C0D4
:102CF000A7EB0C07B9B2794F3F78C7F5D27004F053
:102D0000EDF948480078102175A23223CDE9002161
:102D1000029004FB03F202F1A601704A1278C2F598
:102D2000CA7290B2424A1388E72204F019FE601C6E
:102D3000C4B2032CC7DB002010216A4A0346CDE948
:102D4000002102904FF6FF724FF4987104F008FED4
:102D5000FEBD10B561480078C0F5D2706249098A9D
:102D6000884220DA6048018A5C48007800F5E27009
:102D7000814218DA59480078C0F1A6005A49498AB8
:102D8000884210DA5848418A54480078B630814267
:102D900009DA5648007830B1002054490870802084
:102DA000FEF7E5FD25E04D480078C0F5D2704E49AC
:102DB000098A88421ADA4C48018A4848007800F5A6
:102DC000E270814212DA45480078C0F1A600464917
:102DD000498A88420ADA4448418A40480078B63035
:102DE000814203DA42480068012802D101203F49AC
:102DF00008703A480078C0F5D2703B49098A884289
:102E000078DA3948018A3548007800F5E270814265
:102E100070DA32480078C0F1D8003349498A8842D4
:102E20007BDA68E06DD00020BFAACABC00000000B9
:102E300068D000206AD00020C7E5C1E30000000090
:102E4000B7B5BBD800000000C0D30020B9E2B5E799
:102E5000BCC6CAB1CAFDD7D6CAB5D1E9CFB5CDB3C4
:102E600000000000CAB5D1E931A3BAB2E2C1BFB5D2
:102E7000B2B9E2CAB1BCE400CFB5CDB3BCC6CAB1E9
:102E8000CAB1BCE43A202020202020202020206D40
:102E900073000000B4ABB8D0C6F7313A00000000B0
:102EA000B4ABB8D0C6F7323A00000000B4ABB8D02B
:102EB000C6F7333A00000000B4ABB8D0C6F7343AD6
:102EC000000000006D730000B8D100207C2020209D
:102ED00020732020207C6D737C0000006CD00020CB
:102EE000F7CE000080D00020C0D10020A5D0002067
:102EF0002881234211E0C748418AC7480078E8305A
:102F000081420ADAC548007838B10020C349087008
:102F10004FF48070FEF72BFD25E0BF480078C0F528
:102F2000D270BC49098A88421ADABA48018ABA487A
:102F3000007800F5E270814212DAB7480078C0F1FB
:102F4000D800B449498A88420ADAB248418AB2486C
:102F50000078E830814203DAB1480068012802D1E4
:102F60000120AE490870AC480078C0F5D270A9497C
:102F7000098A884221DAA748018AA748007800F523
:102F8000E270814219DAA4480078C0F58570A14941
:102F9000498A884211DA9F48418A9F48007800F5A3
:102FA0008D70814209DA9F48007830B100209D4938
:102FB00008704020FEF7DBFC26E097480078C0F55B
:102FC000D2709449098A88421BDA9248018A924851
:102FD000007800F5E270814213DA8F480078C0F57E
:102FE00085708C49498A88420BDA8A48418A8A4826
:102FF000007800F58D70814203DA89480068012865
:1030000002D101208749087010BD3EB504468648AC
:103010000078012818D1012C17D1FFF705FD83484E
:1030200000781021AFF2E81248F21003CDE9002138
:1030300002904FF6FF724FF485714FF4D27004F096
:103040008FFC002078490870C5E0022C15D1FFF7ED
:10305000EBFC764800781021AFF2342248F21003DE
:10306000CDE9002102904FF6FF72A6214FF4D270F5
:1030700004F076FC03F0FFFDADE0042C15D1FFF762
:10308000D3FC6A4800781021AFF2542248F21003B2
:10309000CDE9002102904FF6FF72D8214FF4D27093
:1030A00004F05EFC03F0F0FD95E0802C15D1FFF7F5
:1030B000BBFC5E4800781021AFF2942248F2100366
:1030C000CDE9002102904FF6FF72A6214FF4D27095
:1030D00004F046FC03F0CFFD7DE0B4F5807F15D110
:1030E000FFF7A2FC514800781021AFF2B42248F259
:1030F0001003CDE9002102904FF6FF72D8214FF462
:10310000D27004F02DFC03F0BFFD64E0402C17D119
:10311000FFF78AFC454800781021AFF2DC2248F224
:103120001003CDE9002102904FF6FF724FF4857134
:103130004FF4D27004F014FC00203B4908704AE0C0
:10314000B4F5801F04D13A4800683A49086042E06B
:10315000B4F1807F07D13648006836490968401AC3
:103160003549086037E0B4F5001F04D130480068E5
:10317000324908602FE0B4F1007F07D12C48006885
:103180002E490968401A2C49486024E0B4F5000F24
:1031900004D1274800682A4908601CE0B4F1006F98
:1031A00007D12348006826490968401A22498860E7
:1031B00011E0B4F5800F04D11D4800682149086072
:1031C00009E0B4F1806F06D1194800681D4909680B
:1031D000401A1949C86020463EBD10B51A49AFF2E1
:1031E000D510FEF7AAFB10BD10B500210846FFF769
:1031F0004EFC10BD10B54FF6FF7003F0E5F803F07C
:1032000043FD012007490870044908700F49087000
:1032100010BD0000C0D100206CD00020A6D000203E
:1032200028812342A7D0002005D000206DD00020A7
:10323000F0D1002070D00020D0D3002074D0002026
:1032400078D000207CD00020C701F00FA5D000204E
:103250001FB5FFF7E9FB4FF6FF70FE490880E72036
:10326000FD490880FD48007801287DD1FC480078A0
:103270001021FCA24FF47C43CDE9002102904FF6CF
:10328000FF7242214FF4D27004F06AFBF4480078D8
:103290001021F6A2CDE900210290F6480388F648F5
:1032A000028874214FF4D27004F05AFBF34800787E
:1032B000022803D12820F24908705FE0EF48007827
:1032C00003285BD11E20EE490870E54800781021E4
:1032D000ECA2CDE900210290E9480078EF49097895
:1032E00001EB80000390E3480388E3480288EC4840
:1032F0000078039904F034FBD94800781021E9A242
:10330000CDE900210290DE480078E449097801EB1C
:1033100080000390D7480388D7480288E7480078A0
:103320000A30039904F01CFB10200090E448006B65
:103330000390D3480078D949097801EB800009232C
:1033400002900146D64800781C30039A04F056F8E3
:1033500010200090DA48406B0390C9480078CF49AC
:10336000097801EB800000E01CE20923029001468D
:10337000D24800782630039A04F040F8B848007824
:103380001021D0A2CDE900210290BA480388BA48A2
:103390000288C2480178C248007804F0E1FAB048D7
:1033A00000781021CBA2CDE900210290B44800782A
:1033B000BA49097808440390AE480388AE480288A9
:1033C000B7480078039904F0CBFAA548007810219B
:1033D000C4A2CDE900210290A9480078AF4909783C
:1033E00001EB40000390A3480388A3480288AC483F
:1033F0000078039904F0B4FA994800781021BDA22E
:10340000CDE9002102909E48007800EB4000A349DE
:103410000978084403909748038897480288A04891
:103420000078039904F09CFA8D4800781021B5A229
:10343000CDE9002102908F4803888F480288974881
:1034400001789E48007804F08BFA854800781021B6
:10345000B1A2CDE900210290894800788F4909780E
:10346000084403908348038883480288934800787F
:10347000039904F075FA7A4800781021ABA2CDE9DF
:10348000002102907E4800788449097801EB4000D1
:103490000390784803887848028888480078039920
:1034A00004F05EFA6E4800781021A5A2CDE9002153
:1034B00002907348007800EB40007849097808448E
:1034C00003906C4803886C4802887C480078039914
:1034D00004F046FA10200090794800686F49039084
:1034E0000978092302466E48029100781C3003F0E7
:1034F00085FF102000907248406803906048007873
:103500006649097808440923029001466448007816
:103510001C30039A03F072FF102000906848806806
:103520000390574800785D49097801EB4000092372
:10353000029001465A4800781C30039A03F05EFF5F
:10354000102000905E48C06803904D48007800EB62
:103550004000524909780844092302900146504826
:1035600000781C30039A03F049FF10200090544863
:1035700000694A4903900978092302464F4802919D
:1035800000781C3003F03AFF102000904C4840694E
:1035900003903B4800784149097808440923029088
:1035A0000146464800781C30039A03F027FF10209C
:1035B0000090434880690390314800783749097882
:1035C00001EB40000923029001463C4800781C3082
:1035D000039A03F013FF102000903948C06903904C
:1035E0002748007800EB40002C490978084409235B
:1035F00002900146314800781C30039A03F0FEFE29
:1036000017480078102153A2CDE9002102902348E9
:103610000078B63080B203901648038816480288B6
:103620001F4800781E30039904F09AF9E7200949F1
:1036300008804FF6FF700849088020200090174846
:103640000078AC3080B2022303904548B0F90020E6
:10365000DC2087E0B8D10020BAD10020E8D00020DB
:10366000ADD00020B7BDB7A831000000B7BDB7A8E6
:1036700032000000A8D00020AAD0002005D00020F1
:10368000DDD0002061313A20202020202020202081
:1036900020286D6D2F73322900000000DFD000203C
:1036A000DED0002061323A2020202020202020205F
:1036B00020286D6D2F73322900000000E0D000201B
:1036C000D0D3002074313A20202020202020202038
:1036D000206D730074323A202020202020202020EA
:1036E000206D730074333A202020202020202020D9
:1036F000206D730074343A202020202020202020C8
:10370000206D730076313A202020202020202020B8
:10371000206D6D2F7300000076323A20202020208B
:1037200020202020206D6D2F7300000076333A207A
:103730002020202020202020206D6D2F73000000ED
:1037400076343A202020202020202020206D6D2F4C
:1037500073000000B5B2B9E2C6ACBFEDB6C83A001E
:10376000E4D00020039903F020FF4FF6FF70FE49DC
:103770000880E720FD490880FD4800781021FDA25F
:10378000CDE900210290FC480078B63080B2039069
:10379000FA480388FA4802884FF48C70039904F0C1
:1037A000DFF83BE1F24800781021AFF24812CDE992
:1037B00000210290F1480388F148028842214FF429
:1037C000D27004F0CDF8EA4800781021AFF264120C
:1037D0004FF47C43CDE9002102904FF6FF72742133
:1037E0004FF4D27004F0BCF82020E6490870E0489D
:1037F00000781021E4A2CDE900210290DF4803887F
:10380000DF480288DC480178E448007804F0A8F832
:10381000D74800781021E2A2CDE900210290D948D2
:103820000078D549097801EB40000390D34803881C
:10383000D3480288D9480078039904F091F8CC481D
:1038400000781021DBA2CDE900210290CB4803884B
:10385000CB480288C8480178DB48007804F080F83B
:10386000C34800781021D9A2CDE900210290C548B3
:103870000078C149097801EB40000390BF480388F4
:10388000BF480288D0480078039904F069F81020F6
:103890000090D348006AB84903900978092302468A
:1038A000BE4802910078213003F0A8FD102000905E
:1038B000CB48406A0390B3480078AF49097801EBE0
:1038C0004000092302900146B44800782130039A51
:1038D00003F094FD10200090C148806AA64903902F
:1038E000097809230246B84802910078213003F094
:1038F00085FD10200090BA48C06A0390A148007866
:103900009D49097801EB4000092302900146AE4829
:1039100000782130039A03F071FDB2480078032843
:1039200021D1934800781021AFA2CDE90021029067
:1039300092480388924802888F48017880319748DE
:103940000078401D04F00CF810200090A448806B13
:103950000923024603908848017880318F48007817
:10396000213003F04BFD824800781021A4A2CDE95C
:10397000002102908348007800EB40007E490978DE
:1039800001EB4000083880B203907C4803887C48F3
:103990000288824800783230039903F0E1FFE72083
:1039A000714908804FF6FF70704908802020009010
:1039B0007448007800EB40006F49097801EB400043
:1039C000123880B2022303909048B0F90020734867
:1039D00000789630039903F0E8FD4FF6FF706249D6
:1039E0000880E7206149088061480078102161A2C1
:1039F000CDE9002102906348007800EB40005E4969
:103A0000097801EB4000083880B203905B480388D6
:103A10005B480288FA20039903F0A2FF1FBDFEB5A0
:103A200005460E46E72000907948028814230021BD
:103A3000084603F0C7FA0120102176A21F23CDE922
:103A4000002102904FF6FF720221002004F00CF8D2
:103A50004FF6FF7000906E484388028814210020C2
:103A600003F0B0FA5F48007802280FD14048007890
:103A700010216EA2CDE90021029040480388404801
:103A800002881621142003F06BFF12E055480078DD
:103A900003280ED136480078102169A2CDE9002113
:103AA000029036480388364802882821142003F003
:103AB00057FF2F480078102169A2CDE9002102901C
:103AC0002E4803882E48028816214FF4877003F091
:103AD00047FFFFF7BDFB0024E8E0E720224908800C
:103AE000022C1EDA322767434237DFF890C19CF878
:103AF00000C067441037BBB2604F3F7807F5E672ED
:103B0000322767434237DFF874C19CF800C0A7EB47
:103B10000C07B9B2594F3F78C7F5D27003F0DEFAFF
:103B20001DE0322767434237DFF850C19CF800C0E0
:103B300067441037BBB2514F3F7807F5E272322726
:103B400067434237DFF834C19CF800C0A7EB0C078D
:103B5000B9B24A4F3F78C7F5D27003F0BFFA0448B4
:103B60000078102146A28DE0B8D10020BAD1002003
:103B7000ADD000206D206D00DFD00020A8D0002047
:103B8000AAD00020DDD000207431323A202020203D
:103B90002020202020206D7300000000DED00020B7
:103BA0007433343A202020202020202020206D73E0
:103BB000000000007631323A2020202020202020F2
:103BC00020206D6D2F730000E0D000207633343A52
:103BD000202020202020202020206D6D2F73000029
:103BE000D0D3002005D00020613A202020202020C2
:103BF000202020202020286D6D2F73322900000006
:103C0000B4ABB8D0C6F7BEE0C0EB3A00E6D00020B7
:103C1000C0D30020B9E2B5E7BCC6CAB1CAFDD7D649
:103C2000CAB5D1E9CFB5CDB300000000CAB5D1E91E
:103C300032A3BAB2E2C1BFCBB2CAB1CBD9B6C800C7
:103C4000CAB5D1E933A3BAB2E2C1BFD4C8B1E4CB9B
:103C5000D9D4CBB6AFB5C4BCD3CBD9B6C80000005D
:103C6000CFB5CDB3BCC6CAB1CAB1BCE43A2020209E
:103C7000202020202020206D73000000ACD00020E8
:103C8000F7CE00003223CDE90021029004FB03F2BD
:103C900002F14201FA4A1278C2F5CA7290B2F94AA8
:103CA0001388E72203F05CFE601CC4B2052CFFF60B
:103CB00014AF00201021F44A0346CDE90021029000
:103CC0004FF6FF724FF4987103F04AFEFEBD10B537
:103CD000FFF73FF8EA480078C0F5D270EB49098A4F
:103CE000884221DAE948018AE548007800F5E27067
:103CF000814219DAE2480078C0F17400E349498A48
:103D0000884211DAE148418ADD48007884308142F6
:103D10000ADADF48007838B10020DD4908704FF436
:103D20000060FDF724FE25E0D5480078C0F5D2708C
:103D3000D649098A88421ADAD448018AD0480078DC
:103D400000F5E270814212DACD480078C0F17400CB
:103D5000CE49498A88420ADACC48418AC848007864
:103D60008430814203DACB480068012802D1012067
:103D7000C7490870C2480078C0F5D270C349098AA3
:103D8000884221DAC148018ABD48007800F5E27016
:103D9000814219DABA480078C0F14200BB49498A29
:103DA000884211DAB948418AB548007852308142D8
:103DB0000ADAB948007838B10020B74908704FF4E2
:103DC0008060FDF7D4FD25E0AD480078C0F5D270E5
:103DD000AE49098A88421ADAAC48018AA8480078B4
:103DE00000F5E270814212DAA5480078C0F1420085
:103DF000A649498A88420ADAA448418AA04800783C
:103E00005230814203DAA3480068012802D1012020
:103E1000A149087010BD3EB50446A04800780228AC
:103E200003D09E480078032817D1012C16D1FFF744
:103E30000FFA9B48007810219AA248F21003CDE9AE
:103E4000002102904FF6FF724FF485714FF4D2704B
:103E500003F086FD002091490870A9E3022C5FD190
:103E600092480078012829D191480088401C00B26E
:103E70008F490880E7208F4908804FF6FF708E49F0
:103E800008808B48B0F90000632802DDC82088490B
:103E900008802020009089480078AC3081B202234D
:103EA0008348B0F90020DC2003F07FFB4FF6FF7061
:103EB00080490880E7208049088079E380480088AD
:103EC000401C00B27E490880E7207A4908804FF6FE
:103ED000FF70794908807A48B0F90000632802DD54
:103EE000002077490880202000907648007800EB79
:103EF0004000724A127802EB4000123881B202236D
:103F00006F48B0F9002070480078963003F04DFB00
:103F10004FF6FF7067490880E7206749088047E34C
:103F2000042C5FD161480078012829D160480088BD
:103F3000401E00B25E490880E7205E4908804FF6C7
:103F4000FF705D4908805A48B0F90000002802DA85
:103F50000020574908802020009058480078AC3055
:103F600081B202235248B0F90020DC2003F01DFB8F
:103F70004FF6FF704F490880E7204F49088017E34C
:103F80004F480088401E00B24D490880E72049494B
:103F900008804FF6FF70484908804948B0F9000092
:103FA000002802DA00204649088020200090454879
:103FB000007800EB4000414A127802EB40001238D2
:103FC00081B202233E48B0F900203F480078963085
:103FD00003F0EBFA4FF6FF7036490880E7203649C8
:103FE0000880E5E2802C14D1FFF732F92C480078E4
:103FF000102136A248F21003CDE9002102904FF6BD
:10400000FF72A6214FF4D27003F0AAFC02F033FE37
:10401000CEE2B4F5807F1AD14FF6FF7002F0D4F9EA
:1040200002F032FE00210846FFF7F9FC1C48007838
:10403000102128A248F21003CDE9002102904FF68A
:10404000FF72D8214FF4D27003F08AFCB0E2402C0A
:1040500044D1FFF7FDF812480078102111A248F270
:104060001003CDE9002102904FF6FF724FF48571E5
:104070004FF4D27003F074FC00200849087097E2F6
:10408000ACD00020A8D00020C0D00020C0D100209B
:10409000E1D0002028812342E2D0002005D000207A
:1040A000ADD00020B7B5BBD800000000E8D000209C
:1040B000E4D00020B8D10020BAD10020DFD0002009
:1040C000E6D00020DDD00020DED00020BFAACABC90
:1040D00000000000C7E5C1E300000000B4F5801F48
:1040E00010D1FE480078012804D1FD480068FD4940
:1040F00008605DE20120FC490870F9480068F94950
:10410000086055E2B4F1807F38D1F4480078012886
:104110009CD14FF6FF70F5490880E720F4490880EC
:10412000EF480068EF490968401AF2490860F24810
:10413000B0F900004FF47A714843EE490968B0FBCA
:10414000F1F0EC490861102000900846EB4B1B7819
:10415000194609230268EA4800781C3003F04EF93A
:1041600010200090E348E54B1B78194609230269AB
:10417000E44800781C3003F041F919E2B4F5001F5F
:1041800044D1D6480078012804D1D5480068DE49DA
:1041900008600DE2D44800780028AAD00020D24957
:1041A00008704FF6FF70D1490880E720D049088099
:1041B000CB480068CB490968401ACE490862D34809
:1041C000B0F9000042F210714843CA49096AB0FBD5
:1041D000F1F0C8498862102000900846C74B1B7850
:1041E00019460923026AC6480078213003F006F90F
:1041F00010200090BF48C14B1B7819460923826AE2
:10420000C0480078213003F0F9F8D1E1B4F1007F23
:1042100057D1B24800780128AFD14FF6FF70B349AB
:104220000880E720B2490880AD480068B6490968AF
:10423000401AB0494860B048B0F900004FF47A71B4
:104240004843AC494968B0FBF1F0AA4948611020E5
:10425000009008464268AE480078A84B1B78C11809
:104260000923A74800781C3003F0C8F810200090FC
:10427000A0484269A6480078A04B1B78C1180923C2
:10428000A04800781C3003F0B9F8A2480078032851
:10429000BBD19848406997490969401A9549086314
:1042A000102000900846026B99480078934B1B78C9
:1042B00003EB80010923924800781C3003F09EF83C
:1042C00076E1B4F5000F10D184480078012804D1BC
:1042D00083480068904908606AE1012082490870BB
:1042E0007F4800688C49086062E1B4F1006F3ED1FC
:1042F0007A480078012888D14FF6FF707B49088002
:10430000E7207B4908807648006883490968401A9D
:10431000784988607848B0F900004FF47A714843D2
:1043200074498968B0FBF1F07249886110200090EF
:104330000846826876480078704B1B7803EB400192
:1043400009236F4800781C3003F058F810200090C3
:10435000684882696E480078684B1B7803EB40011F
:104360000923684800781C3003F048F820E1B4F5D0
:10437000800F62D159480078012804D1584800685C
:104380006649086014E158480078002898D0002059
:10439000554908704FF6FF7054490880E72054498A
:1043A00008804F4800685C490968401A51494862D2
:1043B0005648B0F9000042F2107148434D49496A2D
:1043C000B0FBF1F04B49C862102000900846426AE9
:1043D0004F480078494B1B7803EB400109234848BC
:1043E0000078213003F00AF8102000904148C26A9A
:1043F00047480078414B1B7803EB400109234148B3
:104400000078213002F0FAFF424800780328ADD14D
:104410003848C06A3749896A401A3649886310208B
:10442000009008460923826B344801788031344873
:104430000078213002F0E2FFBAE0B4F1806F6FD172
:104440002648007801286CD14FF6FF702749088074
:10445000E720274908802248006830490968401A47
:104460002449C8602448B0F900004FF47A714843E9
:104470002049C968B0FBF1F01E49C86110200090C6
:104480000846C2682248007800EB40001B4B1B78AE
:10449000C11809231A4800781C3002F0AFFF102021
:1044A00000901448C2691A48007800EB4000134B92
:1044B0001B78C1180923134800781C3002F09EFFB6
:1044C00014480078032873D10A48C06909498969EA
:1044D000401A084948631020009023E0E8D00020EB
:1044E000F0D10020B0D00020E3D00020B8D10020CF
:1044F000BAD10020D0D30020E4D00020DFD00020AB
:10450000DED00020E0D00020B4D00020E6D0002093
:10451000DDD0002005D00020B8D00020BCD0002085
:104520000FE045E00846426B2E4800782E4B1B7882
:1045300003EB800109232D480078263002F05EFF4E
:1045400036E0B4F5806F18D101202949087002F0D7
:104550009BFB4FF6FF702749009049881E398BB2AC
:10456000254909781E3988B24FF4B9721E49097875
:1045700002F028FDFEF76CFE1AE0B4F5006F17D1CB
:1045800002201B49087002F07FFB4FF6FF701949AB
:10459000009049881E398BB2174909781E3988B2B4
:1045A0004FF4B9721049097802F00CFDFEF750FE85
:1045B00020463EBD10B51149AFF2A570FDF7BDF91B
:1045C00010BD10B500210846FFF729FA10BD10B53F
:1045D0004FF6FF7001F0F8FE02F056FB012004498F
:1045E000087010BDDDD00020DFD00020E0D000201A
:1045F000E8D00020C0D30020DED00020C70DF00F8F
:1046000010B5FEF711FA10BDFEB505460E46E720BF
:104610000090FE48028814230021084602F0D2FCD4
:1046200001201021FAA21F23CDE9002102904FF6AC
:10463000FF720221002003F017FA4FF6FF7000907E
:10464000F248438802881421002002F0BBFCF6489F
:1046500000781021F5A2CDE900210290F9480388E5
:10466000F94802882821142003F07AF9EE480078EE
:104670001021F6A2CDE900210290F2480388F24809
:10468000028828214FF4877003F06AF94FF6FF7013
:10469000F5490880E720F5490880E34800781021B3
:1046A000F3A2CDE900210290E6480388E64802889B
:1046B000FB480178FB48007803F052F9DA480078AB
:1046C0001021F9A2CDE900210290F5480078F84ABE
:1046D00012788118DB480388DB480288F1480078AB
:1046E00003F03EF910200090F2480268EC48007890
:1046F000EF4B1B78C1180623EA480078403002F0DF
:104700007DFEC94800781021EBA2CDE9002102907E
:10471000E3480078E64A12788118CA480388CA48F4
:104720000288E0480078823003F01AF910200090E7
:10473000E0484268DA480078DD4B1B78C118062350
:10474000D8480078C23002F059FEB74800781021EE
:10475000DBA2CDE900210290D1480078D44A12783A
:104760008118B8480388B8480288CE48007800F518
:10477000827003F0F5F810200090CE488268C84897
:104780000078CB4B1B78C1180623C648007800F58B
:10479000A27002F033FEA44800781021CAA2CDE92D
:1047A00000210290C2480078BD4A127802EB400115
:1047B000A4480388A4480288BA48007803F0D0F8D7
:1047C000994800781021B8A2CDE900210290B8489C
:1047D000007800EB4000B24A1278811899480388AB
:1047E00099480288AF48007803F0BAF8102000908A
:1047F000B048C268AE48007800EB4000A84B1B7878
:10480000C1180623A7480078403002F0F7FD86481B
:1048100000781021A8A2CDE900210290A4480078D8
:1048200000EB40009E4A127881188648038886482B
:1048300002889C480078823003F092F810200090A3
:104840009C4802699A48007800EB4000944B1B7822
:10485000C118062393480078C23002F0CFFD724899
:104860000078102196A2CDE90021029090480078AE
:1048700000EB40008A4A1278811872480388724817
:1048800002888848007800F5827003F069F81020EB
:104890000090884842698648007800EB4000804BD1
:1048A0001B78C11806237F48007800F5A27002F03B
:1048B000A5FD5D48007810218FA2CDE9002102906E
:1048C000604803886048028840F21111C81D03F057
:1048D00047F8102002230090894890F9002040F208
:1048E00011114FF4A47002F0DDFD4F480078102143
:1048F00084A2CDE9002102905248038852480288E0
:1049000040F211114FF4AC7003F02AF8E720564939
:104910000880674A127802EB4202614C24782244F4
:1049200002F125035E4A1278153A91B25D4A127877
:10493000521F90B25B4A127802F2791202F0CEFB5B
:1049400039480078102171A2CDE9002102903D483C
:1049500003883D48028840F21111142003F000F84A
:1049600031480078102170A2CDE90021029035482D
:1049700003883548028856214FF4C87002F0F0FFD2
:104980006C48007880B12848007810216AA2CDE9EF
:10499000002102902B4803882B48028874214FF491
:1049A000CD7002F0DDFF0FE01F480078102164A2F7
:1049B000CDE900210290234803882348028874210E
:1049C0004FF4CD7002F0CCFFFFF71AFE0024D9E0BF
:1049D000E7202549088032276743A637DFF868C1FA
:1049E0009CF800C067441037BBB2574F3F7807F5BB
:1049F000E27232276743A637DFF84CC19CF800C04B
:104A0000A7EB0C07B9B2504F3F789FE0C0D300200E
:104A1000B9E2B5E7BCC6CAB1CAFDD7D6CAB5D1E9B5
:104A2000CFB5CDB300000000F1D00020CAB5D1E968
:104A300034A3BAB2E2C1BFC5F6D7B2D6D0B5C4B6B8
:104A4000AFC1BF00ECD00020EED00020CFB5CDB379
:104A5000BCC6CAB1CAB1BCE43A2020202020202024
:104A60002020206D20730000B8D10020BAD1002092
:104A7000BEADB9FDB9E2B5E7B4ABB8D0C6F7B5C4C1
:104A80003132B5C4CBB2CAB1CBD9B6C85631323A3D
:104A900028B5A5CEBB3A206D206D2F7329000000EC
:104AA00005D1002004D10020B5DA31B4CE3A00009F
:104AB00006D1002098D30020B5DA32B4CE3A0000F7
:104AC000B5DA33B4CE3A0000BEADB9FDB9E2B5E710
:104AD000B4ABB8D0C6F7B5C43334B5C4CBB2CAB1E1
:104AE000CBD9B6C85633343A28B5A5CEBB3A206DDB
:104AF000206D2F7329000000BEE0C0EBA3BA0000B8
:104B000027D10020206D206D00000000CDA8B9FD48
:104B1000B0B4BCFC4B45595F30C7D0BBBBCBD9B69A
:104B2000C8B7BDCFF2000000CBD9B6C8B7BDCFF231
:104B3000A3BA000026D100203231CEAAD5FD000054
:104B40003132CEAAD5FD0000F0D00020C7F5D270DA
:104B500002F0C4FAFE4800781021FEA23223CDE90B
:104B60000021029004FB03F202F1A601FA4A127836
:104B7000C2F5CA7290B2F94A1388E72202F0F0FE39
:104B8000601CC4B2032CFFF623AF00201021F44AAE
:104B90000346CDE9002102904FF6FF724FF4987161
:104BA00002F0DEFEFEBD10B5FEF7D3F810BD00200A
:104BB000EC49086048608860C86008614861FF206F
:104BC000E9490870E94908700020E9490870E94995
:104BD0000870FF20E8490870E84908700020E8499B
:104BE0000870E84908700A20E74908700020E74982
:104BF0000870704701B586B0E5480078042825D1D3
:104C00000698012838D1E3480078401CE149087033
:104C100008460078059000EBD07041100598A0EB95
:104C20004100A0B90020D9490870C9480078102176
:104C3000AFF2F402CDE900210290C8480388D648BB
:104C4000028874214FF4CD7002F08AFEBDE201208B
:104C5000CE490870BE4800781021AFF22412CDE989
:104C600000210290BD480388CB48028874214FF48C
:104C7000CD7002F075FEE9E70698022819D1C24806
:104C80000078401C40B2C0490870084690F9000006
:104C9000632801DD63200870102002230090BA48C9
:104CA00090F9002040F211114FF4A47002F0FAFBC9
:104CB000CCE70698042819D1B3480078401E40B2CA
:104CC000B1490870084690F90000002801DA002078
:104CD0000870102002230090AB4890F9002040F2A9
:104CE00011114FF4A47002F0DDFBAFE706988028A5
:104CF00014D1FFF785FC964800781021A7A248F24E
:104D00001003CDE9002102904FF6FF72A6214FF467
:104D1000D27002F025FE01F0AEFF97E70698B0F5DD
:104D2000807F1CD14FF6FF7001F04EFB01F0ACFF0D
:104D3000FFF73DFF00210846FFF766FC8448007836
:104D4000102198A248F21003CDE9002102904FF6FD
:104D5000FF72D8214FF4D27002F002FE76E7069877
:104D6000402816D1FFF74CFC7948007810218FA21B
:104D700048F21003CDE9002102904FF6FF724FF484
:104D800085714FF4D27002F0EBFD0020804908706D
:104D90005CE70698B0F5801F70D175480078401C1C
:104DA0007349087008460078012807D181480068D7
:104DB0008149086000206C4908700EE06C4800785A
:104DC000022803D101206849087006E0684800788D
:104DD000032802D10020794908706448007800282F
:104DE0009BD10120614908704FF6FF70744908801B
:104DF000E720744908806F48006873490968401AC1
:104E000072490862604890F900004FF47A71484393
:104E10006E49096AB0FBF1F06C4988625548007828
:104E2000401C5449087008460078032801DD012021
:104E300008705048007801284ED16448806A49497A
:104E4000086052480078D0B1002010212022CDE91E
:104E5000002102905E4800785E4909780844059078
:104E60005D480078383080B2049056480388544832
:104E70000288DDE9040102F0EFF919E01BE10020EE
:104E800010212D22CDE9002102905148007851498E
:104E900009780844059050480078383080B2049072
:104EA0004848038846480288DDE9040102F0D4F945
:104EB000102000902B48006805904548007845492F
:104EC000097808440623049001464348007840309E
:104ED000059A02F093FAB9E626480078022836D1FE
:104EE0003A48806A1F49486028480078C8B10020C5
:104EF00010212022CDE90021029035480078354963
:104F000009780844059034480078BA3080B204909B
:104F10002C4803882A480288DDE9040102F09CF944
:104F200060E0002010212D22CDE9002102902848C8
:104F30000078284909780844059027480078BA3055
:104F400080B204901F4803881D48028846E05DE057
:104F5000F1D00020F7CE0000F0D00020ECD00020EF
:104F600007D1002098D3002028D1002029D100208B
:104F70002AD100202BD100202CD100202DD10020BF
:104F80002ED100202FD1002027D1002026D10020B3
:104F900005D0002030D10020EED00020BFAACABC2E
:104FA00000000000C7E5C1E300000000B7B5BBD8B2
:104FB00000000000F0D10020F4D00020EAD1002051
:104FC000B8D10020BAD10020F8D00020D0D30020E2
:104FD00005D1002006D1002004D10020DDE9040124
:104FE00002F03AF910200090FC4840680590FC4817
:104FF0000078FC4909780844062304900146FA48E1
:105000000078C230059A02F0F9F91FE6F7480078F7
:105010000328FAD1F648806AF0498860F54800789C
:10502000D0B1002010212022CDE900210290EC48CF
:105030000078EC49097808440590EB48007800F5C1
:105040009E7080B20490EC480388EC480288DDE949
:10505000040102F001F919E0002010212D22CDE910
:1050600000210290DE480078DE4909780844059066
:10507000DD48007800F59E7080B20490DE48038819
:10508000DE480288DDE9040102F0E6F81020009015
:10509000D24880680590D2480078D24909780844FF
:1050A000062304900146D048007800F5A270059AC6
:1050B00002F0A4F9CAE50698B0F5001F7ED10020E1
:1050C000CF490870CF480068CF490860CF480078C2
:1050D00000289AD10120CD4908704FF6FF70C749CA
:1050E0000880E720C4490880C6480068C8490968A4
:1050F000401ABF490862C74890F900004FF47A711E
:105100004843BB49096AB0FBF1F0B9498862B74826
:105110000078401CB549087008460078032801DD76
:1051200001200870B148007801284FD1B048806A4A
:10513000AA490860AF480078C8B1002010212D228C
:10514000CDE900210290A6480078A64909780844D4
:105150000590A5480078383080B20490A6480388AE
:10516000A6480288DDE9040102F076F818E0002084
:1051700010212022CDE90021029099480078994918
:1051800009780844059098480078383080B2049037
:105190009948038899480288DDE9040102F05CF827
:1051A000102000908D48006805908D4800788D494A
:1051B0000978084406230490014600E0ADE08A48DF
:1051C00000784030059A02F019F993E38748007897
:1051D00002284DD18648806A804948608548007819
:1051E000C8B1002010212D22CDE9002102907C4879
:1051F00000787C490978084405907B480078BA30EB
:1052000080B204907C4803887C480288DDE9040170
:1052100002F022F818E0002010212022CDE9002120
:1052200002906F4800786F490978084405906E48ED
:105230000078BA3080B204906F4803886F480288C3
:10524000DDE9040102F008F810200090634840688E
:105250000590634800786349097808440623049060
:10526000014661480078C230059A02F0C7F841E370
:105270005E4800780328A8D15D48806A5749886055
:105280005C480078D0B1002010212D22CDE900210A
:1052900002905348007853490978084405905248D1
:1052A000007800F59E7080B20490534803885348FC
:1052B0000288DDE9040101F0CFFF19E00020102190
:1052C0002022CDE90021029045480078454909781F
:1052D000084405904448007800F59E7080B2049020
:1052E0004548038845480288DDE9040101F0B4FF20
:1052F0001020009039488068059039480078394975
:10530000097808440623049001463748007800F5E0
:10531000A270059A02F072F8ECE20698B0F5000F60
:105320005AD100203C490870364800683B49086063
:105330003B48007800289AD10120394908704FF67F
:10534000FF702E490880E7202B4908802D4800680F
:1053500034490968401A264948622E4890F90000ED
:105360004FF47A7148432249496AB0FBF1F0204971
:10537000C8622D480078401C2B4908700846007808
:10538000032801DD012008702748007801287CD11E
:105390001748C06A1149C86016480078D8B1002083
:1053A00010212022CDE9002102900E48007800EB68
:1053B00040000B490978084405900B4800783830C4
:1053C00080B204900C4803880C480288DDE904018F
:1053D00001F042FF45E029E00EE1000098D30020F3
:1053E00005D1002006D1002004D100202BD10020BF
:1053F000D0D3002026D10020BAD10020B8D100207F
:1054000029D10020F0D10020F8D0002028D10020A0
:10541000F4D0002027D100202DD10020FCD0002086
:105420002CD1002000D100202FD1002000201021FD
:105430002D22CDE900210290FE48007800EB4000CB
:10544000FD49097808440590FC480078383080B25E
:105450000490FB480388FB480288DDE9040101F061
:10546000FBFE10200090F848C0680590F1480078D5
:1054700000EB4000F04909780844062304900146F7
:10548000EE4800784030059A00E002E001F0B6FFF7
:1054900030E2EE480078022853D1ED48C06AEA496C
:1054A0000861EC480078D8B1002010212022CDE915
:1054B00000210290DF48007800EB4000DE490978C7
:1054C00008440590DD480078BA3080B20490DC488A
:1054D0000388DC480288DDE9040101F0BDFE1AE022
:1054E000002010212D22CDE900210290D148007822
:1054F00000EB4000D049097808440590CF48007877
:10550000BA3080B20490CE480388CE480288DDE9E4
:10551000040101F0A1FE10200090CB480069059025
:10552000C448007800EB4001C348007808440623D3
:1055300004900146C1480078C230059A01F05EFF30
:10554000D8E1C24800780328A2D1C148C06ABE4948
:105550004861C0480078E0B1002010212022CDE948
:1055600000210290B348007800EB4000B24909786E
:1055700008440590B148007800F59E7080B2049010
:10558000AF480388AF480288DDE9040101F064FEFA
:105590001BE0002010212D22CDE900210290A5481A
:1055A000007800EB4000A449097808440590A3481E
:1055B000007800F59E7080B20490A1480388A1484D
:1055C0000288DDE9040101F047FE102000909E48AA
:1055D000406905909748007800EB400096490978AB
:1055E00008440623049001469448007800F5A27010
:1055F000059A01F003FF7DE10698B0F5800F9FD179
:1056000095480078401C94490870084600780128A5
:1056100007D19248006892490860002091490870BB
:105620000EE08D480078022803D101208D490870D2
:1056300006E089480078032802D100208A490870D2
:105640008A4800780028D6D10120884908704FF692
:10565000FF707C490880E720794908807F4800680E
:1056600083490968401A7A494862824890F90000E3
:105670004FF47A7148437649496AB0FBF1F07449B6
:10568000C86272480078401C70490870084600786B
:10569000032801DD012008706C480078012853D1EF
:1056A0006B48C06A6849C8606A480078D8B1002071
:1056B00010212D22CDE9002102905E48007800EBF8
:1056C00040005D490978084405905C48007838300E
:1056D00080B204905A4803885A480288DDE90401E0
:1056E00001F0BAFD1AE0002010212022CDE90021AE
:1056F00002905048007800EB40004F490978084478
:1057000005904E480078383080B204904C480388A9
:105710004C480288DDE9040101F09EFD1020009054
:105720004948C06805904348007800EB4000424972
:105730000978084406230490014640480078403028
:10574000059A01F05BFED5E040480078022853D16D
:105750003F48C06A3C4908613E480078D8B1002003
:1057600010212D22CDE9002102903248007800EB73
:105770004000314909780844059030480078BA3033
:1057800080B204902E4803882E480288DDE9040187
:1057900001F062FD1AE0002010212022CDE9002155
:1057A00002902448007800EB40002349097808441F
:1057B000059022480078BA3080B2049020480388CF
:1057C00020480288DDE9040101F046FD1020009028
:1057D0001D48006905901748007800EB4000164905
:1057E0000978084406230490014614480078C23022
:1057F000059A01F003FE7DE014480078032879D172
:105800001348C06A1049486112480078A0B30020CC
:1058100010212D22CDE9002102900648007800EBEE
:10582000400005490978084405900448007800F5CF
:105830009E7022E006D1002005D1002004D1002076
:10584000BAD10020B8D1002098D300202FD1002059
:10585000D0D3002026D100202ED10020F0D100206E
:1058600000D100202CD10020EAD100202DD1002031
:10587000FCD0002027D100200AE080B204902A4802
:1058800003882A480288DDE9040101F0E5FC1BE0F9
:10589000002010212022CDE9002102902448007828
:1058A00000EB40002349097808440590224800781D
:1058B00000F59E7080B204901B4803881B48028844
:1058C000DDE9040101F0C8FC102000901B4840698C
:1058D00005901748007800EB400016490978084405
:1058E0000623049001461448007800F5A270059A3A
:1058F00001F084FD069807B000BD10B51049AFF661
:105900000B50FCF71AF810BD10B500210846FEF741
:105910007BFE10BD10B54FF6FF7000F055FD01F095
:10592000B3F9FFF744F910BDBAD10020B8D1002077
:1059300006D1002005D1002004D1002098D30020FA
:10594000C701F00F10B5FDF76FF810BDFEB50546A5
:105950000E46E7200090F4480288142300210846F0
:1059600001F030FB01201021F0A21F23CDE900211E
:1059700002904FF6FF720221002002F075F84FF6F8
:10598000FF700090E848438802881421002001F04D
:1059900019FBEC4800781021EBA2CDE90021029020
:1059A000EC480388EC4802882821142001F0D8FF35
:1059B000FFF7C8FF002438E0E720E84908803227D5
:1059C0006743A637DFF898C39CF800C067441037D8
:1059D000BBB2E34F3F7807F5E27232276743A63741
:1059E000DFF87CC39CF800C0A7EB0C07B9B2DC4F12
:1059F0003F78C7F5D27001F071FBD24800781021D2
:105A0000D8A23223CDE90021029004FB03F202F177
:105A1000A601D34A1278C2F5CA7290B2CD4A138851
:105A2000E72201F09DFF601CC4B2032CC4DBC54813
:105A300000781021CCA2CDE900210290C54803884E
:105A4000C548028840F211110D2001F089FF0020A5
:105A50001021CC4A0346CDE9002102904FF6FF7297
:105A60004FF4987101F07CFFFEBD10B5FDF771F9A0
:105A700010BD3EB50446C4480078052817D1012C56
:105A800016D1FFF75FFFAF4800781021BFA248F2A0
:105A90001003CDE9002102904FF6FF724FF485719B
:105AA0004FF4D27001F05CFF0020B749087020E18C
:105AB000022C14D1FFF746FFA24800781021B5A2AE
:105AC00048F21003CDE9002102904FF6FF72A621A3
:105AD0004FF4D27001F044FF01F0CDF809E1042C3D
:105AE00015D1AE480078401CAC490870087800EB2E
:105AF000D0714910A0EB410121B10021200703F032
:105B000007FCF6E00121880703F002FCF1E0802C9D
:105B100014D1FFF717FF8B48007810219DA248F29F
:105B20001003CDE9002102904FF6FF72A6214FF439
:105B3000D27001F015FF01F09EF8DAE0B4F5807F35
:105B400017D1FFF7FFFE7F480078102194A248F29A
:105B50001003CDE9002102904FF6FF72D8214FF4D7
:105B6000D27001F0FDFE01F08FF800208E49086030
:105B7000BFE0402C16D1FFF7E5FE724800781021F7
:105B800082A248F21003CDE9002102904FF6FF7285
:105B90004FF485714FF4D27001F0E2FE00207A4993
:105BA0000870A6E0B4F5801F09D17F480068401C4A
:105BB0007D4908607D4800687D49086099E0B4F13E
:105BC000807F19D17948006879490968401A794974
:105BD0000860084600680321B0FBF1F00A21B0FB21
:105BE000F1F201FB12007349096801EB810100EB3E
:105BF0004100704908607CE0B4F5001F09D16A4893
:105C00000068401C68490860684800686A49086084
:105C10006FE0B4F1007F19D16448006866490968F3
:105C2000401A64494860084640680321B0FBF1F01F
:105C30000A21B0FBF1F201FB12005E49496801EB59
:105C4000810100EB41005B49486052E0B4F5000F70
:105C500009D155480068401C534908605348006802
:105C60005649086045E0B4F1006F19D14F4800680B
:105C700052490968401A4F498860084680680321E4
:105C8000B0FBF1F00A21B0FBF1F201FB120049492F
:105C9000896801EB810100EB41004649886028E0FA
:105CA000B4F5800F09D140480068401C3E490860A7
:105CB0003E480068424908601BE0B4F1806F18D18B
:105CC0003A4800683E490968401A3A49C86008469F
:105CD000C0680321B0FBF1F00A21B0FBF1F201FB37
:105CE00012003449C96801EB810100EB41003149E0
:105CF000C86020463EBD10B53249AFF28920FBF79F
:105D00001CFE10BD10B500210846FFF71FFE10BD98
:105D100010B54FF6FF7000F057FB00F0B5FF002004
:105D20002149086010BD0000C0D30020B9E2B5E7EA
:105D3000BCC6CAB1CAFDD7D6CAB5D1E9CFB5CDB3B5
:105D40000000000039D10020CAB5D1E935A3BABCA2
:105D5000C6CAFD0034D1002036D10020B8D10020C1
:105D600038D10020F7CE0000CDA8B9FDB0B4BCFCFE
:105D7000204B45595F555020D4DDCDA3BACDBCCCC6
:105D8000D0F800004CD1002005D00020B7B5BBD81A
:105D900000000000BFAACABC0000000080D10020A3
:105DA000C7E5C1E3000000007CD10020F0D1002055
:105DB0003CD10020D0D3002040D1002044D100208D
:105DC00048D10020C701F00F10B5FCF72DFE10BD23
:105DD000FEB505460E46E7200090D0480288142301
:105DE0000021084601F0EEF801201021CCA21F236B
:105DF000CDE9002102904FF6FF720221002001F050
:105E000033FE4FF6FF700090C44843880288142187
:105E1000002001F0D7F8C84800781021C7A2CDE9CA
:105E200000210290CB480388CB4802882821142007
:105E300001F096FDC04800781021C8A2CDE90021EC
:105E40000290C4480388C44802885021962001F07B
:105E500087FDB94800781021C4A2CDE90021029045
:105E6000BC480388BC4802888221962001F078FD56
:105E7000B14800781021C2A2CDE900210290B548B6
:105E80000388B5480288B421962001F069FDAA482C
:105E900000781021BFA2CDE900210290AD4803880F
:105EA000AD480288E621962001F05AFDFFF78CFFED
:105EB000002438E0E720BC49088032276743A63732
:105EC000DFF8E8C29CF800C067441037BBB2B74F98
:105ED0003F7807F5E27232276743A637DFF8CCC276
:105EE0009CF800C0A7EB0C07B9B2B04F3F78C7F5DC
:105EF000D27001F0F3F8904800781021ACA2322360
:105F0000CDE90021029004FB03F202F1A601A74AA9
:105F10001278C2F5CA7290B28E4A1388E72201F055
:105F20001FFD601CC4B2032CC4DB83480078102121
:105F3000A0A2CDE900210290864803888648028805
:105F400040F211110D2001F00BFD00201021A04A9C
:105F50000346CDE9002102904FF6FF724FF498718D
:105F600001F0FEFCFEBD10B5FCF7F3FE10BD3EB522
:105F7000044698480078062817D1012C16D1FFF75F
:105F800023FF6D480078102193A248F21003CDE959
:105F9000002102904FF6FF724FF485714FF4D270DA
:105FA00001F0DEFC00208B4908709CE0022C14D12B
:105FB000FFF70AFF60480078102189A248F2100319
:105FC000CDE9002102904FF6FF72A6214FF4D27066
:105FD00001F0C6FC00F04FFE85E0042C15D182488C
:105FE0000078401C80490870087800EBD071491097
:105FF000A0EB410121B10021200703F089F972E0F3
:106000000121880703F084F96DE0802C14D1FFF79B
:10601000DBFE49480078102171A248F21003CDE957
:10602000002102904FF6FF72A6214FF4D27001F0CA
:1060300097FC00F020FE56E0B4F5807F17D1FFF703
:10604000C3FE3D480078102168A248F21003CDE954
:10605000002102904FF6FF72D8214FF4D27001F068
:106060007FFC00206349086000F00EFE3BE0402CFE
:1060700016D1FFF7A9FE30480078102156A248F249
:106080001003CDE9002102904FF6FF724FF48571A5
:106090004FF4D27001F064FC00204E49087022E0F9
:1060A000B4F5801F05D153480068401C5149086071
:1060B00019E0B4F5001F05D14E480068401C4D4959
:1060C000086010E0B4F5000F05D14A480068401C94
:1060D0004849086007E0B4F5800F04D145480068DE
:1060E000401C4449086020463EBD10B54249AFF20D
:1060F0008110FBF722FC10BD10B500210846FFF708
:1061000067FE10BD10B54FF6FF7000F05DF900207E
:106110003849086000F0B8FD10BD0000C0D3002071
:10612000B9E2B5E7BCC6CAB1CAFDD7D6CAB5D1E98E
:10613000CFB5CDB30000000087D10020CAB5D1E9AA
:1061400036A3BAB2E2C1BFD6DCC6DABACDC6B5C292
:10615000CA00000082D1002084D10020D6DCC6DA3B
:10616000CAFDA3BA2020202020202000CAB1BCE410
:1061700020743D2020202020202020206D7300004E
:10618000D6DCC6DA20543D202020202020202020EC
:106190006D730000C6B5C2CA20663D2020202020B5
:1061A00020202020487A0000B8D1002086D100208D
:1061B000F7CE0000CDA8B9FDB0B4BCFC204B4559CA
:1061C0005F555020D4DDCDA3BACDBCCCD0F80000B3
:1061D00088D1002005D00020B7B5BBD80000000052
:1061E000BFAACABC00000000B6D10020C7E5C1E3C9
:1061F00000000000B0D30020C701F00F08B5012156
:10620000442002F05DF81820ADF8000048208DF819
:10621000030069462F4801F097FD0120ADF800000A
:1062200028208DF8030069462B4801F08DFD08BD3C
:1062300010B5044614B10120284908702748007899
:1062400088B31021234801F012FE50B108212148E3
:1062500001F00DFE28B101211F4801F008FE0128C0
:1062600022D10A20FBF7A9F900201C49087010214F
:10627000184801F0FCFD18B90120FBF778FB27E076
:106280000821144801F0F3FD18B90220FBF76FFB59
:106290001EE00121104801F0EAFD012818D1042078
:1062A000FBF765FB14E0FFE710210A4801F0DFFD72
:1062B00001280DD10821074801F0D9FD012807D197
:1062C0000121054801F0D3FD10B9012003490870F0
:1062D00010BD00000018014000080140B7D10020A7
:1062E000FE4908807047FD49891C0880704700B549
:1062F00002461046FFF7F7FF00BDF84A1080921CD7
:106300001180704700B5F6490889FFF7E9FF00BD25
:1063100000B502460B46F2494889FFF7E1FF10122B
:10632000FFF7E1FFD0B2FFF7DEFF511C0812FFF7C5
:10633000DAFF511C88B2FFF7D6FFE9498889FFF7D9
:10634000CFFF1812FFF7CFFFD8B2FFF7CCFF591CD1
:106350000812FFF7C8FF591C88B2FFF7C4FFFFF708
:10636000D1FF00BD30B504460D4629462046FFF753
:10637000CFFFDC480088FFF7B6FF30BD30B50446DC
:106380000D46D7494889FFF7ABFF2012FFF7ABFF57
:10639000E0B2FFF7A8FF1012FFF7A5FFD0B2FFF79A
:1063A000A2FFCF498889FFF79BFF2812FFF79BFFC9
:1063B000E8B2FFF798FF1812FFF795FFD8B2FFF782
:1063C00092FFFFF79FFF30BD70B504460025002601
:1063D000C3484088401E83B2C1480088401E82B234
:1063E00000210846FFF7CAFF00BF08E0002503E0D0
:1063F000BA48801C04806D1CA02DF9D3761CB6F51C
:10640000707FF3D370BD00B59FB00121080201F089
:106410004AFF012140F2791001F052FF0120ADF84E
:10642000780010208DF87B0003208DF87A001EA9DB
:10643000AD4801F089FC4CF23370ADF878001820BB
:106440008DF87B0003208DF87A001EA9A74801F083
:106450007BFC4FF68070ADF8780018208DF87B003B
:1064600003208DF87A001EA9A14801F06DFC41F2CD
:106470000100ADF8780018208DF87B0003208DF81E
:106480007A001EA99B4801F05FFC012008900020C3
:1064900009900F200A9000200B900C900D900E9008
:1064A000022001900020029005200390002004901B
:1064B00005900690079006200F90002010901190F4
:1064C00010201290002013901590149016901790A1
:1064D0004FF480501890002019904FF480401A908B
:1064E00000201B9008A81C9001A81D900FA801F087
:1064F00097FF0121062002F0FBF81FB000BD00B598
:106500002A20774948812B2088812C20088101206E
:1065100088714FF4F07008804FF4A0704880A82173
:106520003620FFF7EAFE00BD10B5FFF76CFFF12043
:10653000FFF7D6FE3620FFF7D6FE0420FFF7D3FE86
:106540000020FFF7D0FE3C20FFF7CDFE0F20FFF725
:10655000CAFE8F20FFF7C7FEF220FFF7C1FE18200A
:10656000FFF7C1FEA320FFF7BEFE1220FFF7BBFE20
:106570000220FFF7B8FEB220FFF7B5FE1220FFF7AA
:10658000B2FEFF20FFF7AFFE1020FFF7ACFE0020A9
:10659000FFF7A9FEF820FFF7A3FE2120FFF7A3FED7
:1065A0000420FFF7A0FEF920FFF79AFE0020FFF776
:1065B0009AFE0820FFF797FE3620FFF791FE08208D
:1065C000FFF791FEB420FFF78BFE0020FFF78BFE54
:1065D000B620FFF785FE0220FFF785FE2220FFF799
:1065E00082FEC120FFF77CFE4120FFF77CFEC52024
:1065F000FFF776FE0020FFF776FE1820FFF773FE08
:10660000E020FFF76DFE0F20FFF76DFE1F20FFF764
:106610006AFE1C20FFF767FE0C20FFF764FE0F20C8
:10662000FFF761FE0820FFF75EFE4820FFF75BFEE4
:106630009820FFF758FE3720FFF755FE0A20FFF796
:1066400052FE1320FFF74FFE0420FFF74CFE1120EF
:10665000FFF749FE0D20FFF746FE0020FFF743FE3F
:10666000E120FFF73DFE0F20FFF73DFE3220FFF750
:106670003AFE2E20FFF737FE0B20FFF734FE0D20E9
:10668000FFF731FE0520FFF72EFE4720FFF72BFE18
:106690007520FFF728FE3720FFF725FE0620FFF7BD
:1066A00022FE1020FFF71FFE0320FFF71CFE242010
:1066B000FFF719FE2020FFF716FE0020FFF713FE5C
:1066C0003A20FFF70DFE5520FFF70DFE1120FFF7D2
:1066D00007FE3620FFF704FEC8200DE0FE07006C21
:1066E000C0D30020B8D10020000C014000140140AC
:1066F0000018014000200140FFF7F5FD7820FAF76F
:106700005CFF2920FFF7ECFDFFF7F9FE4FF6FF7065
:10671000FFF75AFE01200149086010BD8081214227
:10672000002100BF14E000F080021AB10122FA4BF0
:106730001A6002E00022F84B1A604206100E002296
:10674000F64B1A600122F64BC3F884214A1CD1B2E1
:106750000829E8DB704770B50646002500240020B4
:10676000EE490860EF49C1F8A401EB49083108601F
:106770003046FFF7D5FF0620FAF7FBFE0020E84978
:10678000C1F884010120FAF7F4FE0120E349086012
:106790000020E349C1F8840100BF12E04FF6FF700A
:1067A00000EA44040020DD4908600120DC49C1F80A
:1067B0008401DA487C38006808B1601C84B2681C27
:1067C000C5B2102DEADB24110120D349083108603D
:1067D000204670BD2DE9FE4380460027002406E0D8
:1067E0004046FFF7B8FF2DF81400601C84B2052C5A
:1067F000F6DB002416E0601C85B20FE03DF81400C3
:106800003DF81510884207DD3DF814603DF815008D
:106810002DF814002DF81560681C85B2052DEDDBF0
:10682000601C84B2042CE6DB0027012405E03DF85F
:106830001400384487B2601C84B2042CF7DB0320B8
:1068400097FBF0F086B23046BDE8FE832DE9F041BB
:1068500004460D46B4480078FFF7BCFF0646B3482F
:106860000078FFF7B7FF074626802F800120BDE89C
:10687000F0817FB504460D4602A903A8FFF7E6FFA5
:10688000064616B9002004B070BD694601A8FFF79E
:10689000DDFF06460EB90020F5E7BDF80400BDF89F
:1068A0000C10884206DCBDF80C10BDF80400323034
:1068B00081420CDBBDF80C00BDF80410884236DCC8
:1068C000BDF80410BDF80C00323081422FDABDF85B
:1068D0000000BDF80810884206DCBDF80810BDF8BD
:1068E0000000323081420CDBBDF80800BDF800101A
:1068F00088421CDCBDF80010BDF80800323081422F
:1069000015DABDF80C10BDF80420881800EBD07122
:10691000C1F34F012180BDF80810BDF80020881890
:1069200000EBD071C1F34F0129800120ABE70020BB
:10693000A9E7F8B504460D4616467D48068004F1E1
:106940000D018AB2193988B22B46294600F06EFB38
:1069500005F10D0083B2193881B22246204600F0BD
:1069600065FB6A1C91B2621C90B2FFF7FBFC6A1CCB
:1069700091B2621E90B2FFF7F5FC6A1E91B2621CE2
:1069800090B2FFF7EFFC6A1E91B2621E90B2FFF761
:10699000E9FC00200623009065480288294620462D
:1069A00000F00DFCF8BD70B504460D461646604873
:1069B000068029462046FFF7D5FC611C88B229468F
:1069C000FFF7D0FC681C81B22046FFF7CBFC6A1CA5
:1069D00091B2621C90B2FFF7C5FC70BD2DE9F04189
:1069E00004464D487C380068002853D124B15149F1
:1069F000881EFFF73EFF3CE04E49881EFFF739FF37
:106A0000B8B34C491239B1F9200003F063F80746D6
:106A100048491239088A03F075F88046454812380B
:106A20008169404603F082F80646394602F0D0FFFD
:106A3000054603F02FF83F4912390882B1F92200C8
:106A400003F048F807463B491239488A03F05AF8E0
:106A5000804638481238C169404603F067F8064658
:106A6000394602F0B5FF054603F014F831491239F2
:106A7000488230481238007D00F0800010BBC020F2
:106A80002C49123908750846008A88810846408AD0
:106A9000C88117E027481238007D00F0800040B11F
:106AA00024481238007D20F08000224912390875F0
:106AB00008E000201F4912398881C8814FF6FF7015
:106AC000088248821B481238007D00F08000BDE833
:106AD000F08119481749123988611848C8616FF068
