:020000042000DA
:10100000E8DA0020697200207172002073720020FB
:1010100075720020777200207972002000000000B5
:101020000000000000000000000000007B720020B3
:101030007D720020000000007F720020817200207D
:10104000837200208372002083720020837200204C
:10105000837200208372002083720020837200203C
:101060002F6600206D660020AB6600208372002092
:10107000837200208372002083720020837200201C
:10108000837200208372002083720020837200200C
:10109000837200208372002083720020E9660020A2
:1010A00083720020837200208372002083720020EC
:1010B0008F670020837200200B680020837200205D
:1010C00083720020837200208372002083720020CC
:1010D00083720020837200208372002083720020BC
:1010E00083720020837200208372002083720020AC
:1010F000837200208372002083720020837200209C
:10110000837200208372002083720020837200208B
:10111000837200208372002083720020837200207B
:10112000837200208372002083720020837200206B
:1011300000F002F800F05AF80AA090E8000C82448F
:101140008344AAF10107DA4501D100F04FF8AFF26C
:10115000090EBAE80F0013F0010F18BFFB1A43F095
:10116000010318471C9600003C9600000A444FF00B
:10117000000C10F8013B13F0070408BF10F8014BF6
:101180001D1108BF10F8015B641E05D010F8016B3B
:10119000641E01F8016BF9D113F0080F1EBF10F89F
:1011A000014BAD1C0C1B09D16D1E58BF01F801CBC2
:1011B000FAD505E014F8016B01F8016B6D1EF9D545
:1011C0009142D6D37047000000230024002500265A
:1011D000103A28BF78C1FBD8520728BF30C148BF9A
:1011E0000B6070471FB51FBD10B510BD07F0AEFCFA
:1011F0001146FFF7F7FF00F009F807F0CCFC03B445
:10120000FFF7F2FF03BC07F0D3FC00000EB500F0BF
:10121000A9FA00F08BF94FF4A06006F045F804F04D
:101220006CFE05F055F905F0B7F9472140F2E730BB
:1012300005F084FA41F61F41632005F0B9FA05F084
:10124000E3F804F0E9FC00F0F3FA00F0BBF900F079
:10125000C8F9A94F00203860A949A8480860DFF8FC
:10126000A482A94C4FF010094FF6FF75E726002025
:1012700004F0ECFCA548006818B1A5480121016004
:1012800002E0A34900200860A248007801280AD0A3
:1012900002283BD0032846D0042851D005285CD032
:1012A00006287DD012E12580A8F80060DFF868A24A
:1012B000CDF800900C236021D220DAF8002005F050
:1012C00091FCCDF800900C239221D220DAF8042072
:1012D00005F088FCCDF800900C23C421D220DAF868
:1012E000082005F07FFCCDF800900C23F621D220D9
:1012F000DAF80C2005F076FCCDF8009009232821BF
:101300004FF4BC703A6805F06DFCDFE02580A8F86A
:101310000060CDF80090092316214FF4BC703A68A4
:1013200005F060FCD2E02580A8F80060CDF80090C0
:10133000092316214FF4BC703A6805F053FCC5E050
:101340002580A8F80060CDF80090092328214FF4EB
:10135000BC703A6805F046FCB8E04FF0BE0B962032
:1013600002902680A8F800506C484FF0200ACDF873
:1013700000A002686E210723584605F0EFFC39688B
:101380004FF47A70B1FBF0F20323CDF800A0584679
:10139000029905F0E3FC0B200090B8F8003000E063
:1013A00013E02288EE20029905F0AFFC39684FF473
:1013B0007A70B1FBF0F200FB12120323CDF800A00B
:1013C000FE20029905F0CAFC80E02580A8F80060A4
:1013D000DFF84CA13968CAF81010DAF800000028CC
:1013E0007ED0BAF81420401EB0FBF2F0CAF8040018
:1013F000DAF80420B1FBF2F0CAF808004949B1FB61
:10140000F0F0CAF80C00DFF820B1CDF80090062308
:101410009BF800005021403005F0E4FBCDF800902F
:101420009BF80000062382214030DAF8102005F0F6
:10143000D9FBCDF800909BF800000623B421403082
:10144000DAF8082005F0CEFBDAF80C106420B1FBC6
:10145000F0F2CDF800909BF800000323E621403025
:1014600005F0C0FB2E21CDE90019002002909BF869
:101470000000B8F800302288E621583005F006FB5D
:10148000DAF80C106420B1FBF0F200FB1212CDF878
:1014900000909BF800000223E621603005F0F2FB8B
:1014A000CDF800909BF80000BAF8142006235021D4
:1014B000EB3005F097FBCDF800909BF80000062379
:1014C0008221EB30DAF8002005F08CFB2680002327
:1014D0004FF4F07A52461946184605F0D7F900E065
:1014E00007E0012352461946002005F0CFF9258078
:1014F000BDE6CAF804007BE760D20020001000209F
:1015000008ED00E02CD200202AD2002028812342BE
:101510009401234207D0002048D40020C8D10020E5
:1015200020D40020A086010000D0002010B56FF06C
:10153000040005F001FF204820490068B0FBF1F0ED
:101540001F49C0B2087000EB4002C2EBC0104FF65A
:10155000FF7202EAC000488010BD1949097848436B
:101560004FF0E021486100238B61086940F00100E1
:1015700008610869C20701D0C003FAD5086920F0E4
:10158000010008618B6170470D49498848434FF05D
:10159000E021486100238B61086940F00100086187
:1015A0000869C20701D0C003FAD5086920F001001C
:1015B00008618B617047000008D0002000127A009B
:1015C00002D0002010B500F068FE01F077F902F0BB
:1015D000C0FE03F0EBFD03F0D3FFBDE8104004F0C4
:1015E000F5BA344900204870704770B50446314D53
:1015F0002878844238D0072819D2DFE800F00407A1
:101600000A0D1013160000F051FE10E001F05EF913
:101610000DE002F0A7FE0AE002F0A4FE07E003F0EE
:10162000CEFD04E003F0B4FF01E004F0D7FA072C8C
:1016300019D2DFE804F004070A0D1013160000F0B9
:1016400031FE10E001F03FF90DE002F087FE0AE004
:1016500002F084FE07E003F0AEFD04E003F095FF26
:1016600001E004F0B8FA2C7070BD124840780728E9
:1016700013D2DFE800F00406080A0C0E100000F098
:10168000B5BB00F057BF01F0DBBE01F0D9BE03F0DF
:1016900062B803F04FBE04F0E5B8704710B50648D5
:1016A00041680020884703484078FFF79EFFBDE867
:1016B0001040DAE706D0002034D200200CB500221A
:1016C000019200925248016841F4803101604FF468
:1016D000A063016801F4003100910199491C019156
:1016E000009911B901999942F3D10168890302D592
:1016F0000121009100E000920099012930D1454973
:101700000A6842F010020A600A6822F003020A60C6
:101710000A6842F002020A60416841604168416023
:10172000416841F480614160416821F47C1141606D
:10173000416841F4E8114160016841F08071016045
:1017400001688901FCD5416821F0030141604168CD
:1017500041F0020141604168C1F381010229FAD1DF
:101760000CBDABE710B52A48016841F001010160EA
:101770004168294A114041600168284A11400160CE
:10178000016821F480210160416821F4FE0141607B
:101790004FF41F018160FFF7E4FF21494FF0006023
:1017A000086010BD10B51A4A506800F00C011D4BBE
:1017B0001D4800290ED004290ED008290ED0036040
:1017C0005168194AC1F30311121D515C0268CA40E5
:1017D000026010BD0360F3E70360F1E7516801F4B4
:1017E0007011536803F48033022404EB914133B148
:1017F00053689B0307D50D4B59430160E0E70B4B42
:1018000059430160DCE7074B59430160D8E700000A
:1018100000100240002002400000FFF8FFFFF6FE2B
:1018200008ED00E000127A0008D0002000093D0019
:101830004FF4C871154807F05FB910B50022134B7B
:1018400053F8324024B1521CD2B2322AF8D310BD20
:1018500043F8320003EBC20041600D490878401C98
:10186000087010BD70B50024084D094E0AE005EB64
:10187000C4014968014204D055F834108847002853
:1018800003D0641C31788C42F1DB70BD78D200202B
:101890001CD000203EB5F94C1025F9A1E078CDE927
:1018A00000150290638AA28A6178207805F0F8FB1F
:1018B000E078F8A1CDE9001502906078A178638AFC
:1018C0000144A28A207805F0EBFBE078F6A1CDE98F
:1018D000001502906178A078638A01440144A28ACD
:1018E000207805F0DDFBE078F7A1CDE90015029046
:1018F0006178A078638A014401440144A28A207877
:1019000005F0CEFBE078F6A1CDE9001502906178F4
:10191000A078638A0144014401440144A28A2078EA
:1019200005F0BEFBE078F1A1CDE9001502906178E9
:10193000A078638A01440144014401440144A28A1D
:10194000207805F0ADFBE078EEA1CDE9001502901E
:101950006178A078638A0144014401440144014450
:1019600001444FF478424FF4D27005F099FB3EBD2C
:101970002DE9FE4FE54C4FF0E708CDF8008000213F
:1019800022881423084604F05EFF01271026E0A0F9
:101990008DE8C1004FF6FF7A1F2352460221002036
:1019A00005F0F4FBB54800231C308DE8C100524619
:1019B00004214FF4B97005F073FBCDF800A06088E6
:1019C0002288143883B21421002004F03CFF4FF029
:1019D0000009D5A0CDE900095346E72264211E2065
:1019E00005F0DEFAA54DD1A1E723E878CDE9001690
:1019F00002905246AA211E2005F052FBFFF74AFF33
:101A00000024DFF834A305F1160BAAF800806878EB
:101A1000A97895F800C001FB0401287900F11002B3
:101A20000A4493B21BF80420091A0CEB0212024478
:101A3000ACEB0000383289B280B204F073FFE87872
:101A4000BEA1CDE9001602906878A9786B8A04FBE4
:101A5000010081B22878E722283880B205F020FB07
:101A6000641CE4B2062CD0D3A878697800EB40005F
:101A70002A7901EB40008318801A81B2103302F5F5
:101A8000E2724FF4CD7004F04DFF7C480023283003
:101A90008DE841024FF6FF724FF49871184605F039
:101AA000FFFAA7480760BDE8FE8FFEB50646734DF6
:101AB0006E71FFF7EFFE6979002310244FF6FF7275
:101AC00001290ED0022918D0032924D0042931D0AD
:101AD00005293FD006294ED008295ED009295ED0BD
:101AE0006FE06B74E87866A1CDE900140290E723FB
:101AF0006978287805F0D4FA63E06B74E87865A11A
:101B0000CDE9001402906878A978E7230144287889
:101B100005F0C6FA55E06B74E87863A1CDE90014CE
:101B200002906978A878E72301440144287805F0F9
:101B3000B7FA46E06B74E87863A1CDE9001402902F
:101B40006978A878E723014401440144287805F026
:101B5000A7FA36E06B74E87861A1CDE90014029031
:101B60006978A878E72301440144014401442878B6
:101B700005F096FA25E06B74E8785CA1CDE90014D5
:101B800002906878A978E723084408440844084488
:101B90000144287805F084FA13E06B7411E0E878CA
:101BA00058A1CDE9001402906878A978E723084489
:101BB000084408440844084401444FF4D27005F036
:101BC0006FFA6979A879814205D1082905D00929D8
:101BD00003D05C480670A971FEBD0929FBD1687C61
:101BE000401CC0B268740228F5D1584A56481060AB
:101BF000F1E72DE9F041044652480078002824D14D
:101C00001E4D0023012695F90F002A7C411E012C50
:101C10001CD0022C28D00627042C26D0B4F5805FD7
:101C200024D0B4F5005F22D0B4F5804F20D0B4F5B5
:101C3000004F1ED0B4F5803F1CD0B4F5003F1AD041
:101C4000B4F5802F18D0202C17D0CCE048B2E87320
:101C5000012800DAEE7395F90F00012879D02E746F
:101C6000C0B2FFF722FFBEE079E07EE092E096E0AE
:101C70009BE0A0E0A5E0AAE0AEE0B1E01ED000202D
:101C8000CAB5D1E931A3BAB2E2C1BFB5B2B9E2CAAD
:101C9000B1BCE400CAB5D1E932A3BAB2E2C1BFCB4C
:101CA000B2CAB1CBD9B6C800CAB5D1E933A3BAB26A
:101CB000E2C1BFD4C8B1E4CBD9D4CBB6AFB5C4BCB4
:101CC000D3CBD9B6C8000000CAB5D1E934A3BAB2A3
:101CD000E2C1BFC5F6D7B2D6D0B5C4B6AFC1BF005A
:101CE000CAB5D1E935A3BABCC6CAFD00CAB5D1E9A7
:101CF00036A3BAB2E2C1BFD6DCC6DABACDC6B5C227
:101D0000CA000000CDCBB3F60000000038D400209C
:101D1000B9E2B5E7BCC6CAB1CAFDD7D6CAB5D1E9E2
:101D2000CFB5CDB300000000BBD50000C6BDB4A840
:101D3000D6D0D1A7000000002AD20020F7CE0000A4
:101D40008081214207D000200400FA050CED00E05C
:101D5000FFE71AB32B740120FFF7A7FE43E0062923
:101D600041D2C0B2FFF7A1FE3DE0401C40B2E87393
:101D7000062800DDEF7395F90F00062804D02E74B5
:101D8000C0B2FFF792FE2EE042B12B740620FFF79F
:101D90008CFE28E00120FFF788FEEE7323E002208E
:101DA000FFF783FE0220E8731DE00320FFF77DFEAE
:101DB0000320E87317E00420FFF777FE0420E873A0
:101DC00011E00520FFF771FE0520E8730BE0062007
:101DD000FFF76BFEEF7306E00820FFF766FE02E0F8
:101DE0000920FFF762FE2046BDE8F0812DE9F05F93
:101DF000DFF82484DFF8249408F1160498F8002012
:101E000098F804002378A2EB000A02EB0312434681
:101E100002445B78B9F81010A3EB000C0344484669
:101E2000383210330025FE4E0127408A8A4510DAE9
:101E300091420ED284450CDA98420AD298F807B043
:101E4000BBF1000F05D088F807503803FFF70AFDF3
:101E50000DE08A4509DA914207D2844505DA9842B5
:101E600003D2D6F82801012801D188F8077098F824
:101E7000002098F80400B9F81010131A8B4224DAE5
:101E800094F801C002EB0C1C84440CF1380C614541
:101E90001BD298F801C098F802A0D444B9F812A057
:101EA000ACEB000BD34510DA84440CF1100CE24586
:101EB0000BD298F808C0BCF1000F06D088F8085083
:101EC0004FF40050FFF7CEFC1CE08B4218DA637829
:101ED00002EB031202443832914211D298F80110F9
:101EE00098F802200A44B9F81210131A8B4207DA44
:101EF00010441030814203D2D6F82801012801D1C4
:101F000088F8087098F8002098F80400B9F81010C4
:101F1000131A8B4225DA94F802C002EB0C1C84449D
:101F20000CF1380C61451CD298F801C098F802A059
:101F30000CEB4A0CB9F812A0ACEB000BD34510DA4D
:101F400084440CF1100CE2450BD298F809C0BCF1A6
:101F5000000F06D088F809504FF48040FFF782FC4C
:101F60001DE08B4219DAA37802EB031202443832E7
:101F7000914212D298F8011098F8022001EB420227
:101F8000B9F81210131A8B4207DA1044103081424C
:101F900003D2D6F82801012801D188F8097098F8F1
:101FA000002098F80400B9F81010131A8B4226DAB2
:101FB00094F803C002EB0C1C84440CF1380C61450E
:101FC0001DD298F802C098F801A00CEB4C0CD44438
:101FD000B9F812A0ACEB000BD34510DA84440CF135
:101FE000100CE2450BD298F80AC0BCF1000F06D0E5
:101FF00088F80A504FF40040FFF734FC1EE08B4293
:102000001ADAE37802EB031202443832914213D217
:1020100098F8021098F8012001EB41010A44B9F840
:102020001210131A8B4207DA10441030814203D287
:10203000D6F82801012801D188F80A7098F8002004
:1020400098F80400B9F81010131A8B4225DA94F8A6
:1020500004C002EB0C1C84440CF1380C61451CD20A
:1020600098F801C098F802A00CEB8A0CB9F812A0FD
:10207000ACEB000BD34510DA84440CF1100CE245B4
:102080000BD298F80BC0BCF1000F06D088F80B50AB
:102090004FF48030FFF7E6FB1DE08B4219DA23791D
:1020A00002EB031202443832914212D298F8011026
:1020B00098F8022001EB8201B9F812200B1A934222
:1020C00007DA08441030824203D2D6F828010128EA
:1020D00001D188F80B7098F8002098F80400B9F83E
:1020E0001010131A8B4226DA94F805C002EB0C1C70
:1020F00084440CF1380C61451DD298F802C098F860
:1021000001A00CEB8C0CD444B9F812A0ACEB000B82
:10211000D34510DA84440CF1100CE2450BD298F848
:102120000CC0BCF1000F06D088F80C504FF4003002
:10213000FFF798FB1EE08B421ADA637902EB031279
:1021400002443832914213D298F8021098F80120D4
:1021500001EB81010A44B9F81210131A8B4207DA15
:1021600010441030814203D2D6F82801012801D151
:1021700088F80C70B9F810004FF4CD74A04220D943
:1021800098F8041001F5E27290421AD298F80220F1
:1021900098F8013002EB82021344B9F81220A3EB45
:1021A000010C94450DDA194410318A4209D298F88D
:1021B0000D1031B188F80D504FF48020FFF752FB1D
:1021C0001DE0A04219D998F8041001F5E27290427E
:1021D00013D298F8020098F8012000EB8000024426
:1021E000B9F81200531A834207DA114410318842B9
:1021F00003D2D6F82801012801D188F80D70B9F86A
:102200001000A04228D998F8041001F5E27290421B
:1022100022D298F8022005E01ED0002034D20020FF
:102220000080234298F8013002EB420203EB4202A5
:10223000B9F81230A2EB010C9C450DDA11441031B3
:102240008B4209D298F80E1031B188F80E50BDE8D3
:10225000F05F2020FFF706BBA0421AD998F80410BF
:1022600001F5E272904214D298F8020098F8012029
:1022700000EB400002EB4002B9F81200531A83420F
:1022800007DA11441031884203D2D6F82801012818
:1022900001D188F80E70BDE8F09F0F49AFF2AD6034
:1022A000FFF7CBBA00210846FFF762BB10B54FF627
:1022B000FF7003F089FD09480121C171017241726B
:1022C0008172C1720173417381730022C273017400
:1022D00007214171817110BD27F007001ED0002039
:1022E000FEB5FD4C1025FDA16078CDE900150290EA
:1022F0004FF4D276E3882289A621304604F0D0FE3E
:102300006078F8A1CDE900150290E3882289D821F0
:10231000304604F0C5FE6078F4A1CDE900150290C6
:10232000E3884FF478424FF48571304604F0B8FEEC
:10233000FEBD2DE9FE4FEF4CE725009500212288D8
:102340001423084604F07FFA1026EBA1CDE900160D
:1023500001204FF6FF7702901F233A46022100200A
:1023600004F014FF0097638822881421002004F0F1
:102370006AFAD94CE6A16078CDE900160290E388AC
:1023800022892821142004F08BFE6078E5A1CDE994
:1023900000160290E388228928214FF4877004F008
:1023A0007FFE6078E6A1CDE900160290E3882289DD
:1023B0006021822004F074FE6078E4A1CDE900166B
:1023C0000290E38822899221822004F069FE6078DD
:1023D000E1A1CDE900160290E3882289C421822080
:1023E00004F05EFE6078DFA1CDE900160290E3887C
:1023F0002289F621822004F053FE6078DCA1CDE929
:10240000001602904FF49B78E388228960214046B1
:1024100004F046FE6078D6A1CDE900160290E3886C
:1024200022899221404604F03BFE6078D0A1CDE99C
:1024300000160290E3882289C421404604F030FE51
:102440006078CBA1CDE900160290E3882289F621BD
:10245000404604F025FE6078C5A1CDE90016029043
:10246000E3882289F621404604F01AFEC14805801F
:1024700000254FF056094FF4BC784FF07A0A05EB6F
:10248000C50000EB051B09EB4B010B4642465020F3
:1024900004F0FCF90AEB4B010B464246502004F0D5
:1024A000F5F96D1CEDB2042DE9D34FF48875502277
:1024B0002B465621104604F0E9F940462B460246C9
:1024C000562104F0E3F9FFF70BFF00254FF0A609B2
:1024D00005EBC500227800EB0518C2EB4800A630DA
:1024E00002EB480381B2C2F5D270B63302F5E27254
:1024F00004F018FA6078A0A1CDE9001602902078C7
:1025000009EB4801C0F5CA70E388E72204F0C8FD72
:102510006D1CEDB2032DDBD36F4900201C31CDE9DA
:10252000001603463A4602904FF4987104F0B8FD45
:10253000BDE8FE8F2DE9F047674CDFF840820025AB
:1025400021784046C1F5D279B8F81020C1F1A60C27
:1025500001F1B6038A4E0127408A01F5E2719145E7
:102560000FD28A420DD284450BDA984209D294F8F0
:1025700002A0BAF1000F04D0A5708020FFF772F915
:102580000CE0914509D28A4207D2844505DA984287
:1025900003D2D6F82801012800D1A7702078B8F816
:1025A0001010C0F5D2728A4215D200F5E27399423A
:1025B00011D2B8F81230C0F1D80C9C450BDA00F1FA
:1025C000E80C634507D2E3782BB1E5704FF48070D7
:1025D000FFF748F913E08A4210D200F5E272914207
:1025E0000CD2B8F81210C0F1D8028A4206DAE830EC
:1025F000814203D2D6F82801012800D1E770207863
:10260000B8F81010C0F5D2728A4215D200F5E27304
:10261000994211D2B8F81230C0F5857C9C450BD296
:1026200000F58D7C634507D223792BB12571BDE878
:10263000F0474020FFF716B98A4211D200F5E27246
:1026400091420DD2B8F81210C0F585728A4207D2B5
:1026500000F58D70814203D2D6F82801012800D1FF
:102660002771BDE8F0872DE9FE4F0446454F3878C5
:1026700001282FD1184D10264FF0000848F21009FC
:102680004FF6FF7A4FF4857B012C24D0022C7FD0AB
:10269000042C7ED0802C7DD0B4F5807F7BD0402C64
:1026A0007AD03948B4F5801F006876D03749B4F144
:1026B000807F73D0B4F5001F71D0B4F1007F6FD06C
:1026C000B4F5000F6DD0B4F1006F6BD0B4F5800F8E
:1026D00069D069E0F0E06BE068D00020BFAACABC16
:1026E00000000000C7E5C1E300000000B7B5BBD89B
:1026F0000000000038D40020B9E2B5E7BCC6CAB17A
:10270000CAFDD7D6CAB5D1E9CFB5CDB30000000018
:10271000CAB5D1E931A3BAB2E2C1BFB5B2B9E2CA12
:10272000B1BCE400CFB5CDB3BCC6CAB1CAB1BCE43C
:102730003A202020202020202020206D730000003F
:10274000B4ABB8D0C6F7313A00000000B4ABB8D093
:10275000C6F7323A00000000B4ABB8D0C6F7333A3F
:1027600000000000B4ABB8D0C6F7343A0000000057
:102770006D7300002AD20020F7CE000034D2002072
:102780000080234207D0002060D2002048D40020DF
:1027900020E031E042E053E064E075E076E07AE08A
:1027A0007BE07EE07FE082E0B4F1806F72D083E076
:1027B000FFF796FD6878AFF2CC01CDE900160290E4
:1027C0004B46524659464FF4D27004F069FC87F8E4
:1027D000008071E0FFF784FD6878AFF20011CDE969
:1027E000001602904B465246A6214FF4D27004F0D8
:1027F00057FC03F0ACFE5FE0FFF772FD6878AFF2C4
:102800001C11CDE9001602904B465246D8214FF4D8
:10281000D27004F045FC03F0A3FE4DE0FFF760FD2D
:102820006878AFF24811CDE9001602904B46524647
:10283000A6214FF4D27004F033FC03F088FE3BE095
:10284000FFF74EFD6878AFF26411CDE900160290F3
:102850004B465246D8214FF4D27004F021FC03F0CD
:102860007FFE29E0FFF73CFD6878AFF28011CDE9EB
:10287000001602904B46524659464FF4D27004F06F
:102880000FFC87F8008017E0E86015E0EA68801A1E
:10289000086011E00DE028610EE02A69801A4860A6
:1028A0000AE0686108E06A69801A886004E0A8614B
:1028B00002E0AA69801AC860204639E60A49AFF2E8
:1028C0005920FEF7BABF0021084632E510B54FF691
:1028D000FF7003F079FA03F043FE04490120087108
:1028E000C870887010BD0000C701F00F68D00020CC
:1028F0002DE9FE4FFFF7F4FCFF4E4FF6FF7AA6F8E6
:1029000000A0FE4F4FF0E70BA7F800B0FC4CDFF83B
:10291000F4831025617B4FF4D2704FF02009012918
:102920007CD06178F8A2CDE900250291A38AE28AE1
:10293000422104F0B5FB6078F5A1CDE900150290C5
:102940004FF47C43524674214FF4D27004F0A8FB3C
:1029500084F802906078F0A1CDE900150290A38A76
:10296000E28A2179E07804F09BFB6078EFA1CDE961
:10297000001502902179A078A38A01EB4001E28A38
:10298000E07804F08DFB6178EDA0CDE90151009075
:10299000A38AE28A2179A07904F082FB6078EDA114
:1029A000CDE9001502902079A178A38A00EB4101BE
:1029B000E28AA07904F074FB0095E078092321797C
:1029C0002130D8F8202004F00DF900952079A17865
:1029D000092300EB4101E078D8F82420213004F0ED
:1029E00001F90095A079092321792130D8F8282010
:1029F00004F0F8F800952079A178092300EB410153
:102A0000A079D8F82C20213004F0ECF8DFF858A396
:102A10009AF8000003287CD02EE3FFE76178BAA281
:102A2000CDE9002502914FF47C434FF6FF7242211D
:102A3000824604F035FB6078B5A1CDE9001502901F
:102A4000A38AE28A7421504604F02AFBC648007823
:102A5000022802D003287DD0A5E22820A07060784B
:102A6000C2A1CDE900150290A38AE28A6179E078DB
:102A700004F016FB6078C1A1CDE9001502906079E1
:102A8000A178A38A0144E28AE07804F009FB607827
:102A9000BEA1CDE9001502906079A178A38A00EB70
:102AA0004101E28AE07804F0FBFA6078BBA1CDE94D
:102AB00000150290A078617900EB40000144A38AE0
:102AC000E28AE07804F0ECFA6078B8A1CDE900156C
:102AD0000290A38AE28A6179A07904F0E1FA607831
:102AE000B7A1CDE9001502906079A178A38A0144CD
:102AF000E28AA07904F0D4FA6078B6A1CDE9001595
:102B000002906079A178A38A00EB4101E28AA07962
:102B100000E073E204F0C4FA6078B3A1CDE90015D7
:102B20000290A078617900EB40000144A38AE28A18
:102B3000A07904F0B5FA0095E078092361791C309A
:102B4000D8F8002004F04EF800956079A1780923A8
:102B5000014400E04CE0E078D8F804201C3004F098
:102B600041F800956079A178092300EB4101E078F4
:102B7000D8F808201C3004F035F80095A078617969
:102B800000EB40000144E07809231C30D8F80C2009
:102B900004F028F80095A079092361791C30D8F851
:102BA000102004F01FF800956079A17809230144F2
:102BB000A079D8F814201C3004F014F8009560793E
:102BC000A178092300EB4101A079D8F818201C3026
:102BD00004F008F80095A078617900EB400001440A
:102BE000A07909231C30D8F81C2003F0FBFFDAE1A0
:102BF0001E20A07060785DA1CDE900150290A38A27
:102C0000E28A6179E07804F04BFA61785BA0CDE963
:102C1000015100906079A178A38A0144E28AE078AA
:102C200004F03EFA607859A1CDE900150290A07831
:102C3000617900EB40000144A38AE28AE07804F065
:102C40002FFA617855A0CDE9015100906079A17803
:102C5000A38A00EB8101E28AE07804F021FA60782F
:102C600052A1CDE900150290A38AE28A6179A07988
:102C700004F016FA607852A1CDE90015029060794F
:102C8000A178A38A0144E28AA07904F009FA607865
:102C900050A1CDE900150290A078617900EB4000C9
:102CA0000144A38AE28AA07904F0FAF961784EA07F
:102CB000CDE9015100906079A178A38A00EB8101F0
:102CC000E28AA07904F0ECF90095E07809236179B3
:102CD0001C30D8F8002003F085FF00956079A178BA
:102CE00009230144E078D8F804201C3003F07AFF6F
:102CF0000095A07882E000002AD200202CD200208B
:102D0000ACD0002048D40020B7BDB7A831000000E7
:102D1000B7BDB7A8320000007431323A202020201D
:102D20002020202020206D73000000007433343AEE
:102D3000202020202020202020206D730000000073
:102D40007631323A202020202020202020206D6D56
:102D50002F7300007633343A2020202020202020BA
:102D600020206D6D2F73000007D0002074313A20B1
:102D70002020202020202020206D730074323A2053
:102D80002020202020202020206D730074333A2042
:102D90002020202020202020206D730074343A2031
:102DA0002020202020202020206D730076313A2022
:102DB0002020202020202020206D6D2F7300000077
:102DC00076323A202020202020202020206D6D2FD8
:102DD0007300000076333A2020202020202020207D
:102DE000206D6D2F7300000076343A2020202020C3
:102DF00020202020206D6D2F73000000617900EBF2
:102E000040000144E07809231C30D8F8082003F082
:102E1000E9FE00956079A178092300EB8101E07853
:102E2000D8F80C201C3003F0DDFE0095A0790923B2
:102E300061791C30D8F8102003F0D4FE0095607939
:102E4000A17809230144A079D8F814201C3003F09C
:102E5000C9FE0095A078617900EB40000144A0799B
:102E600009231C30D8F8182003F0BCFE00956079C7
:102E7000A178092300EB8101A079D8F81C201C302F
:102E800003F0B0FE6078AFF27011CDE9001502904A
:102E90006079A178A38A00EB4101E078E28A0838E2
:102EA00080B204F0FDF800956079A178092300EB69
:102EB0004101E078E26B1C3003F094FE6078FEA1E3
:102EC000CDE9001502906079A178A38A00EB410159
:102ED000A079E28A801C04F0E3F84FF0000ACDE903
:102EE000015ACDF800906079A1783B8800EB410150
:102EF000A07932881C3003F0C9FD00956079A17873
:102F0000082300EB4101A079D8F83020243003F0E9
:102F100069FE6078AFF2EC11CDE900150290A0785F
:102F2000617900EB80000144E078A38A083880B220
:102F3000E28A04F0B5F80095A078617900EB800092
:102F40000144E07809231C30226C03F04BFE6078CA
:102F5000DEA1CDE900150290A078617900EB800038
:102F60000144A079A38AE28A801C04F099F8CDE993
:102F7000015ACDF80090A078617900EB80000144FF
:102F8000A0793B8832881C3003F080FD0095A07842
:102F9000617900EB80000144A07908232430D8F83F
:102FA000342003F01FFE6078CDA1CDE9001502901A
:102FB0002179E078A38AE28AB6311E3004F070F8F5
:102FC0004FF6FF703080A7F800B0CDF8009021795F
:102FD0000223B4F91820A231DC2003F0BFFE607890
:102FE000C2A1CDE9001502902179A38AE28AB63107
:102FF0004FF48C7004F054F8BDE8FE8F6078BCA1EB
:10300000CDE9001502902179A38AE28A8031E07827
:1030100004F046F800952179E078092380312130C9
:10302000E26C03F0DFFD6078B6A1CDE900150290F7
:103030002079A178A38A00EB8101A079E28A10307F
:1030400004F02EF8CDE90095002002902079A178B7
:103050003B8800EB8101A0793288213003F016FD16
:1030600000952079A178082300EB8101A079D8F898
:103070003820293003F0B6FD9AF8000002282FD13D
:103080006078A5A1CDE9001502902079A178A38AE6
:1030900000EB8101E078E28A323004F001F8A07B95
:1030A00078B160789FA1CDE9001502902079A178D0
:1030B000A38A00EB8101E078E28A7A3003F0F0FF26
:1030C0000EE060789AA1CDE9001502902079A178F0
:1030D000A38A00EB8101E078E28A7A3003F0E0FF16
:1030E000607896A1CDE900150290A078217900EBD7
:1030F000400001EB4000083881B2E078A38AE28A00
:10310000323003F0CDFF4FF6FF703080A7F800B0EB
:10311000CDF80090A078217900EB400001EB400051
:103120001C3881B2E0780223B4F91A20963003F0FB
:1031300015FE60786DA1CDE900150290A078217987
:1031400000EB400001EB4000083881B2A38AE28A1C
:10315000FA2003F0A5FF4FE72DE9FE4F7A4CE72751
:103160000097002122881423084603F06CFB1026E8
:1031700076A1CDE9001601204FF6FF7902901F23BA
:103180004A460221002004F001F8CDF8009063883F
:1031900022881421002003F056FBDFF8C8A1724DED
:1031A0009AF80000022802D003280CD016E06878B4
:1031B0006EA1CDE900160290AB8AEA8A162114208E
:1031C00003F06EFF0AE068786DA1CDE90016029069
:1031D000AB8AEA8A1621142003F062FF687870A196
:1031E000CDE900160290AB8AEA8A16214FF4877067
:1031F00003F056FFFFF77CFB0024DFF8C0814FF09F
:10320000420BA8F80070022C12D204EBC4002A78FA
:1032100000EB041002EB4003C2EB4000423081B2ED
:10322000C2F5D270523302F5E67203F07BFB11E077
:1032300004EBC4002A7800EB041002EB4003C2EB5D
:103240004000423081B2C2F5D270523302F5E272D0
:1032500003F068FB68785AA1CDE90016029004EBF0
:10326000C40000EB04100BEB40012878AB8AC0F5DA
:10327000CA70E72203F014FF641CE4B2052CC0D32B
:103280009AF800000021DFF83CA14FF4987C4FF43D
:10329000A07440F2271503280BD002280AD1324827
:1032A000CDE901618930002300904A466146184605
:1032B0008AE0A7E0C3E0000061313A20202020200E
:1032C00020202020206D6D2F7332000061323A20C3
:1032D0002020202020202020206D6D2F7332000020
:1032E000B5B2B9E2C6ACBFEDB6C83A006D206D000C
:1032F0007431333A202020202020202020206D739C
:1033000000000000613A20202020202020202020E2
:103310006D6D2F7332000000CBD9B6C8B7BDCFF2A8
:10332000A3BA000034333231CEAAD5FD000000002C
:1033300031323334CEAAD5FD00000000B4ABB8D092
:10334000C6F7BEE0C0EB3A0038D40020B9E2B5E7DA
:10335000BCC6CAB1CAFDD7D6CAB5D1E9CFB5CDB3BF
:103360000000000007D00020ACD00020CAB5D1E991
:1033700032A3BAB2E2C1BFCBB2CAB1CBD9B6C80090
:10338000CAB5D1E933A3BAB2E2C1BFD4C8B1E4CB64
:10339000D9D4CBB6AFB5C4BCD3CBD9B6C800000026
:1033A000CFB5CDB3BCC6CAB1CAB1BCE43A20202067
:1033B000202020202020206D730000002AD2002031
:1033C000F7CE00002CD2002003F06AFEA8F80070AF
:1033D000AAF800902346B42229466C2003F0A2FAF2
:1033E0004FF48276234632462946B42003F09AFAF7
:1033F00003B0234629463046BDE8F04F4FF4A8728B
:1034000003F090BACDE90161F648002300904A46E6
:103410006146184603F044FEA8F80070AAF8009030
:103420002346F4222946A42003F07CFA03B0234665
:1034300022462946BDE8F04FF52003F073BADBE5DC
:103440002DE9F05FFFF776F8E64CDFF89C93603CDF
:1034500000262078B9F81010C0F5D273E34F4FF072
:1034600001088B4215D200F5E272914211D2B9F8EF
:103470001220C0F1740595420BDA00F18405AA42CE
:1034800007D2E2792AB1E6714FF40060FEF7EAF95B
:1034900014E08B4210D200F5E27291420CD2B9F8DE
:1034A0001210C0F174028A4206DA8430814203D2DB
:1034B000D7F82801012801D184F807802078B9F8CD
:1034C0001010C0F5D2738B4215D200F5E272914212
:1034D00011D2B9F81220C0F1420595420BDA00F181
:1034E0005205AA4207D2227A2AB126724FF480608E
:1034F000FEF7B8F914E08B4210D200F5E272914267
:103500000CD2B9F81210C0F142028A4206DA5230E7
:10351000814203D2D7F82801012801D184F808801C
:10352000B3484FF4A0750078032816D002285FD165
:10353000B9F810004FF4947AA0F16D01472959D2DF
:10354000B9F81210514555D3A94253D2E17AE1B3EB
:10355000E6720120FEF786F95CE0B9F810004FF43E
:103560008F7AA0F1A5014F290CD2B9F8121051455C
:1035700008D3A94206D2617A21B166720220FEF711
:1035800071F90FE0A4280BD9F42809D2B9F8120078
:10359000504505D3A84203D2D7F82801012801D10C
:1035A00084F80980B9F81000A0F1F6014A290FD279
:1035B000B9F8121051450BD3A94209D2A17A39B1F9
:1035C000A672BDE8F05F042000E013E0FEF74AB900
:1035D000F5280BD9A84209D2B9F81200504505D3F5
:1035E000A84203D2D7F82801012801D184F80A8023
:1035F000BDE8F09F6C280BD9B42809D2B9F81200A5
:10360000504505D3A84203D2D7F82801012801D19B
:1036100084F80B80B9F810004FF4827BA0F1B5015B
:103620004F290CD2B9F81210514508D3A94206D23D
:10363000617A21B166720220FEF714F90FE0B42816
:103640000BD9584509D2B9F81200504505D3A84204
:1036500003D2D7F82801012801D184F80980B9F8EC
:103660001000A0F205114B290DD2B9F812105145E6
:1036700009D3A94207D2A17A29B1A672BDE8F05FA9
:103680000420FEF7EFB858450CD9B0F5A87F09D251
:10369000B9F81200504505D3A84203D2D7F8280143
:1036A0000128A5D184F80A80A2E72DE9F04F8DB05A
:1036B00004464F480078022801D003287DD1494EA6
:1036C0000025603EDFF82C9131790C91B178DFF85C
:1036D00028A110274FF6FF784FF0E70B0B91012C34
:1036E0007AD031460A794B7B02F1A20CCDF828C082
:1036F00091F802C00CEB4C0C02EB4C0291F803C0A9
:103700001C3A0CF1960EB1F918C0B1F91A10022C3E
:1037100067D0042C74D0802C73D0B4F5807F71D026
:10372000402C70D03549B4F5801F0A686CD0DFF8A2
:10373000CCC03146C969DCF800C0ACEB010109918D
:103740003146B1F918E04FF47A710EFB01FE3146B3
:10375000497908913146C9781C310791B4F1807FCD
:103760007DD031464FF47A7C097B06913146B1F920
:103770001A1001FB0CF105913146C97821310491F1
:10378000B4F5001F6CD0B4F1007F6AD0B4F5000F1F
:1037900068D0DFF868C03146B4F1006F496ADCF8E0
:1037A00000C0ACEB010103913146897801EB410C7B
:1037B0003146497961447DD001E0FDE30CE0B4F588
:1037C000800F78D0B4F1806F76D0B4F5806F74D06C
:1037D000B4F5006F72D005E2032816D0022827D076
:1037E00000E253E00CD1002034D2002000802342BC
:1037F00007D000202AD200202CD2002060D2002046
:1038000076E0A2E0B3E0D4E0E6E0FFF771F870788C
:10381000FEA1CDE90017029048F2100342464FF492
:1038200085714FF4D27003F03BFCFA480570D9E182
:10383000F07C401CF0745FEAC07EF7488178037921
:10384000427803EB8101838AB0F816C0C07800F19A
:103850007A0011D04FF0010E86F80EE003E0CFE0C1
:10386000EAE01BE1F0E1AFF2445ECDE900E702924D
:10387000624603F015FCB5E1B573AFF24C5ECDE9DD
:1038800000E70292624603F00BFCABE1012B19D07A
:10389000491E08B27083A9F80080AAF800B0002879
:1038A00000DA75832020009091B20223B6F91A2025
:1038B000704604E0DCE113E2ECE2D2E3F1E303F072
:1038C0004DFA8FE1ACF1010C0FFA8CF03083A9F8BE
:1038D0000080AAF800B0002800DA3583202000908C
:1038E0000223B6F91820DC200A9903F037FAF8E32E
:1038F000012B13D0491C08B27083A9F80080AAF8E4
:1039000000B0632800DD75832020009091B202236F
:10391000B6F91A20704603F021FAE2E30CF1010C2B
:103920000FFA8CF03083A9F80080AAF800B0632861
:1039300001DDC8203083202000900223B6F9182032
:10394000DC200A9903F00AFACBE3FEF7D1FF707886
:10395000B2A1CDE90017029048F210034246A62119
:103960004FF4D27003F09CFB02F0F1FDB9E3404646
:1039700002F02AFAF5633564F56435657565B56559
:10398000F565F57335747574B57402F0E9FD0021C1
:103990000846FFF7E1FB7078A2A1CDE9001702907D
:1039A00048F210034246D8214FF4D27003F078FB5E
:1039B00097E3FEF79DFF707894A1CDE90017029080
:1039C00048F2100342464FF485714FF4D27003F071
:1039D00067FB9048057084E3012B04D0032805D0D1
:1039E000022808D07DE3F261F2627AE301203073AD
:1039F000F261726475E3F07B401CF073326570E332
:103A0000012B8AD1A9F80080AAF800B08748099A4A
:103A10000260BEFBF2F101610097DDE907010923B5
:103A200003F0E0F88148009709230269B0797179C1
:103A30001C3003F0D7F854E3012B04D0032808D03E
:103A4000022826D04DE332623263F06A101AF06326
:103A500047E30698002889D03573A9F80080AAF8B2
:103A600000B07248099A02620598B0FBF2F16F4803
:103A70008162092300970C99049803F0B3F86B480E
:103A800000970923826AB0793179213003F0AAF8CE
:103A900027E3307C401C3074726522E3012B87D110
:103AA000A9F80080AAF800B0306A121A5F48426094
:103AB000BEFBF2F141610B9908980097014409237C
:103AC000079803F08FF859480097B17842697079E8
:103AD00009230144B0791C3003F084F84D48007884
:103AE000032887D100977079B178092300EB410151
:103AF000F078F26B1C3003F075F84C4BD3E90410EE
:103B0000421A002A01DC884244D14FF47A704243C1
:103B1000F06B4649B2FBF0F00863496B44488142C0
:103B20001CD2CDE90175202000907079B178BAF8E7
:103B3000003000EB4101B079B9F800201C3002F0F0
:103B4000A5FF3A480097B178026B7079082300EB23
:103B50004101B079243003F045F8C2E2CDE90175A6
:103B6000202000907079B178BAF8003000EB410164
:103B7000B079B9F800201C3002F088FF0097707906
:103B8000B178082300EB4101B079294A243003F0D1
:103B900029F8A6E2081A4FF47A714843F16B234AD8
:103BA000B0FBF1F01063224988421CD2CDE90175C7
:103BB0002D2000907079B178BAF8003000EB410107
:103BC000B079B9F800201C3002F060FF1748009768
:103BD000B178026B7079082300EB4101B079243091
:103BE00003F000F87DE2CDE901752D200090707999
:103BF000B178BAF8003000EB4101B079B9F8002093
:103C00001C3002F043FF0097707913E0B7B5BBD8C2
:103C10000000000007D00020ACD00020BFAACABC22
:103C200000000000C7E5C1E30000000048D4002008
:103C30009F860100B178082300EB4101B079FE4A6C
:103C4000243002F0CFFF4CE2012B04D0032805D032
:103C5000022808D045E27262726342E201203073AA
:103C60007262B2643DE2707C401C7074B26538E2EE
:103C7000012B8ED1A9F80080AAF800B0EF4B039A6F
:103C80009A60BEFBF2FCC3F818C0032815D00B994C
:103C90000898009700EB41010923079802F0A2FF62
:103CA000E6480097B17882697079092300EB4101F9
:103CB000B0791C3002F096FF13E2092300970798B1
:103CC00002F090FFDD48009771798269B07809238E
:103CD00000EB40000144B0791C3002F083FF00E2A9
:103CE000012B04D0032808D002287DD0F9E1B2626C
:103CF000B263706B101A3064F3E106980028A2D00A
:103D00003573A9F80080AAF800B0CC48039A426243
:103D10000598B0FBF2F1C948C1620097DDE90B10CC
:103D200000EB41010923049802F05CFFC3480097AF
:103D3000B178C26A3079092300EB4101B0792130B2
:103D400002F050FFBE480078032886D1D6E9111052
:103D5000421AF26400973179F078092380312130DA
:103D600002F040FFB54BD3E90A010A1A002A01DC30
:103D7000814245D14FF47A704243F06CAF49B2FBB7
:103D8000F0F08863AC4988421CD2CDE9017520204F
:103D900000903079B178BAF8003000EB8101B07949
:103DA000B9F80020213002F071FEA4480097B178E4
:103DB000826B3079082300EB8101B079293002F061
:103DC00011FF8EE1CDE90175202000903079B178A6
:103DD000BAF8003000EB8101B079B9F80020213049
:103DE00002F054FE009700E04FE03079B1780823EC
:103DF00000EB8101B079904A293002F0F3FE70E1C6
:103E0000401A4FF47A714843F16C8C4AB0FBF1F0E0
:103E10009063894988421CD2CDE901752D2000901C
:103E20003079B178BAF8003000EB8101B079B9F897
:103E30000020213002F02AFE80480097B178826B82
:103E40003079082300EB8101B079293002F0CAFEF5
:103E500047E1CDE901752D2000903079B178BAF8AD
:103E6000003000EB8101B079B9F80020213002F078
:103E70000DFE00973079B178082300EB8101B0790D
:103E80006D4A293002F0AEFE2BE1B07C401CB074CC
:103E9000F26526E1012B94D1A9F80080AAF800B0C0
:103EA000B36AD21A654BDA60BEFBF2FCC3F81CC0E1
:103EB000032812D009230097079802F093FE5F4869
:103EC00000977179C269B078092300EB4000014482
:103ED000B0791C3002F086FE03E10B990898009738
:103EE00000EB81010923079802F07CFE53480097FC
:103EF000B178C2697079092300EB8101B0791C3077
:103F000002F070FE0097B078717900EB80000144F8
:103F1000F07809231C30326C02F064FE47484749B0
:103F2000C0698969421A002A01DC884249D14FF4EC
:103F30007A704243306C4149B2FBF0F048633E492D
:103F400088421ED2CDE9017520200090B0787179A9
:103F500000EB80000144B079BAF80030B9F80020D5
:103F60001C3002F093FD354800977179426BB078B0
:103F7000082300EB80000144B079243002F032FEC7
:103F8000AFE0CDE9017520200090B078717900EBA9
:103F900080000144B079BAF80030B9F800201C3034
:103FA00002F074FD0097B078717900EB8000014455
:103FB0000823214AB07900E056E1243002F012FED5
:103FC0008FE0081A4FF47A714843316C1B4AB0FBFA
:103FD000F1F05063184988421ED2CDE901752D20B9
:103FE0000090B078717900EB80000144B079BAF8A4
:103FF0000030B9F800201C3002F048FD0F4800974F
:104000007179426BB078082300EB80000144B079ED
:10401000243002F0E7FD64E0CDE901752D20009029
:10402000B078717900EB80000144B079BAF80030C3
:10403000B9F800201C3005E09F86010048D400201C
:1040400007D0002002F022FD0097B078717900EBD4
:1040500080000144B0790823CE4A243002F0C2FD2A
:104060003FE00120707302F07BFAF5633564F5647C
:1040700035657565B565F565F57335747574B57435
:10408000C548CDF800804FF4B97240882C211E3805
:1040900083B2F0781E3880B202F0D5FBFEF728FC20
:1040A0001FE0FFE70220707302F05AFAF5633564EF
:1040B000F56435657565B565F565F57335747574C5
:1040C000B574B548CDF800804FF4B97240882C2102
:1040D0001E3883B2F0781E3880B202F0B4FBFEF7CF
:1040E00007FCF07B317C884278D1D6E914108842F5
:1040F00040D9A9F80080AAF800B0A0EB0102A748B7
:104100000262B6F91A104FF47A7301FB03F1B1FBA6
:10411000F2F181620097F0784FF00903317900F1F4
:10412000210002F05FFDB07BB0B1CDE901752D201B
:104130000090B079BAF80030B9F800203179213018
:1041400002F0A4FC954800970823826AB07931797F
:10415000293002F047FD41E0CDE9017520200090B3
:10416000B079BAF80030B9F800203179213002F086
:104170008DFCE7E732D2A9F80080AAF800B0A1EBE5
:10418000000286480262B6F91A104FF47A7301FBF6
:1041900003F1B1FBF2F181620097F0784FF009036F
:1041A000317900F1210002F01DFDB07B01285CD0C7
:1041B000CDE901752D200090B079BAF80030B9F83A
:1041C00000203179213002F061FC74480097082307
:1041D000826AB0793179293002F004FD707CB17CBB
:1041E000884241D1D6E9161088425DD9A9F80080ED
:1041F000AAF800B0DFF8A481A0EB0102C8F82420DF
:10420000B6F91A004FF47A7100FB01F0B0FBF2F03E
:10421000C8F82C0000973179B0784FF0090301EB12
:104220004001F07800F1210002F0DCFCB07B50B3DB
:10423000CDE901752D2000903079B178BAF80030C1
:1042400000EB4101B079B9F80020213002F01EFCEA
:1042500000973079B178082300EB4101B079D8F8A4
:104260002C20293002F0BEFC5EE0CDE90175202053
:104270000090B079BAF80030B9F8002031792130D7
:1042800002F004FCA1E7CDE901752020009030790F
:10429000B178BAF8003000EB4101B079B9F80020EC
:1042A000213002F0F3FBD3E73ED2A9F80080AAF850
:1042B00000B0DFF8E880A1EB0002C8F82420B6F9CE
:1042C0001A004FF47A7100FB01F0B0FBF2F0C8F86D
:1042D0002C0000973079B1784FF0090300EB4101D1
:1042E000F07800F1210002F07DFCB07B01281FD0A6
:1042F000CDE901752D2000903079B178BAF8003001
:1043000000EB4101B079B9F80020213002F0BEFB8A
:1043100000973079B178082300EB4101B079D8F8E3
:104320002C20293002F05EFC0DB02046BDE8F08F55
:10433000CDE90175202000903079B178BAF80030CD
:1043400000EB4101B079B9F80020213002F09EFB6A
:10435000DEE71349AFF6AD40FDF76FBA002108461E
:10436000FEF7FABE10B54FF6FF7001F02DFD02F01A
:10437000F7F80C48012141730021C1630164C16455
:104380008173016541658165C165C17301744174C3
:10439000817410BD9F86010038D4002048D40020CD
:1043A000C70DF00FACD0002070B5FDF799FFFB49A9
:1043B000E7200880FA494FF6FF7008804FF4A07597
:1043C00040F227162B46B42231466C2002F0AAFA9E
:1043D0004FF482742B4622463146B42002F0A2FAF2
:1043E0002B4631462046BDE870404FF4A87202F0DB
:1043F00099BA2DE9FE4FEB4CE72700970021228860
:104400001423084602F01FFA1025E7A1CDE9001594
:1044100001204FF6FF7802901F2342460221002020
:1044200002F0B4FECDF800806388228814210020B9
:1044300002F009FAE24CE3A16078CDE900150290A0
:10444000238A628A2821142002F02AFE6078E3A1E0
:10445000CDE900150290238A628A28214FF48770E3
:1044600002F01EFEDFF83493A9F80080DFF830A3D5
:10447000AAF800706078E0A1CDE900150290238AC7
:10448000628AE178A07802F00BFE6078E6A1CDE9BF
:1044900000150290E0782179238A0144628AA0788D
:1044A00002F0FEFD0095E0782179E14E0144A0780C
:1044B00006234030326802F095FB6078DDA1CDE93B
:1044C00000150290E0782179238A0144A078628A5D
:1044D000823002F0E5FD0095E07821790623014461
:1044E000A0787268C23002F07DFB6078D3A1CDE97C
:1044F00000150290E0782179238A0144A078628A2D
:1045000000F5827002F0CCFD0095E0782179062359
:104510000144A078B26800F5A27002F063FB6078F5
:10452000C8A1CDE900150290E0782179238A00EB3B
:104530004101628AA07802F0B3FD6078BAA1CDE9AA
:10454000001502902079E17800EB40000144238AB5
:10455000628AA07802F0A4FD00952079E17800EB52
:1045600040000144A07806234030F26802F03AFB94
:104570006078B0A1CDE9001502902079E17800EBD8
:1045800040000144A078238A628A823002F088FDCC
:1045900000952079E17800EB40000144A0780623E3
:1045A000C230326902F01EFB6078A4A1CDE900158B
:1045B00002902079E17800EB40000144A078238A42
:1045C000628A00F5827002F06BFD00952079E17837
:1045D00000EB40000144A078062300F5A270726948
:1045E00002F000FB6078A3A1CDE90015029040F233
:1045F0001116238A628A3146E82002F051FD0095A7
:10460000022394F9092031464FF4A47002F03AFBDA
:1046100060789CA1CDE900150290238A628A314618
:104620004FF4AC7002F03CFDA9F800702079A2783C
:1046300000EB4001E0780B18153881B2501F25338C
:1046400080B202F2791202F06DF960788FA1CDE9A3
:1046500000150290238A628A3146A07802F020FD7C
:10466000607890A1CDE900150290238A628A5621D4
:104670004FF4C87002F014FD217A4FF4C97051B1A3
:1046800061788BA2CDE900250291238A628A742188
:1046900002F006FD09E0617888A2CDE900250291CB
:1046A000238A628A742102F0FBFCFFF77DFE00265C
:1046B000A9F8007006EBC600227800EB061BC2EBDF
:1046C0004B00A63002EB4B0381B2C2F5D270B63379
:1046D00002F5E27202F026F960787BA1CDE90015BF
:1046E0000290A62000EB4B012078238AC0F5CA7007
:1046F000E72202F0D5FC761CF6B2032ED8D330495F
:1047000000202431CDE900150346424602904FF4C3
:10471000987102F0C5FCA9F80070AAF800804FF467
:10472000A07540F227162B46B42231466C2002F0C9
:10473000F9F84FF482742B4622463146B42002F039
:10474000F1F803B02B4631462046BDE8F04F4FF458
:10475000A87202F0E7B82DE9F05FFDF7EBFE5B4FC2
:10476000DFF86C91164C388A4FF00008A0F16D010B
:104770004FF0010A4FF494754FF4A07647290CD2FC
:10478000798AA94209D3B14207D2617929B184F863
:1047900005800120FDF766F8ABE09BE02AD20020FF
:1047A0002CD2002038D40020B9E2B5E7BCC6CAB18B
:1047B000CAFDD7D6CAB5D1E9CFB5CDB30000000048
:1047C00060D10020CAB5D1E934A3BAB2E2C1BFC5F5
:1047D000F6D7B2D6D0B5C4B6AFC1BF00CFB5CDB352
:1047E000BCC6CAB1CAB1BCE43A2020202020202097
:1047F0002020206D20730000BEADB9FDB9E2B5E701
:10480000B4ABB8D0C6F7B5C43132B5C4CBB2CAB1B7
:10481000CBD9B6C85631323A28B5A5CEBB3A206DB1
:10482000206D2F7329000000B5DA32B4CE3A0000B3
:1048300008D40020B5DA31B4CE3A0000B5DA33B48A
:10484000CE3A0000BEADB9FDB9E2B5E7B4ABB8D021
:10485000C6F7B5C43334B5C4CBB2CAB1CBD9B6C828
:104860005633343A28B5A5CEBB3A206D206D2F7350
:1048700029000000B4ABB8D0C6F7BEE0C0EBA3BAC5
:1048800000000000206D206D00000000B0B4BCFCF2
:104890004B45595F30C7D0BBBBCBD9B6C8B7BDCF2E
:1048A000F2000000CBD9B6C8B7BDCFF2A3BA000062
:1048B00034333231CEAAD5FD00000000313233341A
:1048C000CEAAD5FD00000000F7CE000034D20020B3
:1048D000008023426C280AD9B42808D2788AA842DA
:1048E00005D3B04203D2D9F82801012801D184F8B8
:1048F00005A0388A4FF4827BA0F1B5014F290CD274
:10490000798AA94209D3B14207D2A17929B184F8A1
:1049100006800220FCF7A6FF0EE0B4280AD958450D
:1049200008D2788AA84205D3B04203D2D9F8280128
:10493000012801D184F806A0388AA0F205114B297C
:104940000DD2798AA9420AD3B14208D2E17931B1B4
:1049500084F80780BDE8F05F0420FCF783BF58456A
:104960000BD9B0F5A87F08D2788AA84205D3B04207
:1049700003D2D9F82801012801D184F807A0BDE8A5
:10498000F09FFF490020086048608860C8600861A7
:104990004861FC498872C8720873487307224A72DA
:1049A0000872F949086070472DE9FE4F0646DFF8A6
:1049B000DC8398F80000042879D101220025F14F0A
:1049C00010244FF6FF794FF0E70B012E22D0384626
:1049D00040F2111190F909004FF4A47C022E3DD051
:1049E000042E4FD048F2100A802E61D0B6F5807F99
:1049F00073D0402E6ED0E448B6F5801F00686AD0B0
:104A0000B6F5001F68D0B6F5000F7CD0B6F5800F64
:104A10007AD0B2E0B87B401CB873DA495FEAC0785C
:104A20004FF4C97C48780B8A498A0BD03A72AFF2AE
:104A30008012CDE9002402900A467421604602F0FB
:104A40002FFB9AE03D72AFF28C12CDE90024029068
:104A50000A467421604602F023FB8EE0401E40B2FD
:104A60007872002800DA7D72C948A0F80090C94821
:104A7000A0F800B00094022397F90920604602F0E4
:104A800001F97AE0401C40B27872632801DD6320AE
:104A90007872BF48A0F80090BE48A0F800B000941B
:104AA000022397F90920604602F0ECF865E00BE27A
:104AB000FFF77AFC7878B8A1CDE90014029053464C
:104AC0004A46A6214FF4D27002F0EAFA01F03FFD07
:104AD00053E002E01CE02DE035E001F041FD4846E6
:104AE00001F072F9FFF74DFF00210846FFF781FC46
:104AF0007878ABA1CDE90014029053464A46D821FC
:104B00004FF4D27001E027E02FE002F0C9FA34E060
:104B1000FFF74AFC7978A4A0CDE901410090534603
:104B20004A464FF485714FF4D27002F0B9FA88F812
:104B3000005022E07861B87A401CC0B2B8720328F5
:104B40001BD9BA7219E0B861F87A401CC0B2F87289
:104B5000032812D9FA7210E0F861387B401CC0B209
:104B60003873032809D93A7307E03862787B401C10
:104B7000C0B27873032800D97A7382492027DFF8FE
:104B800000A2887AC97A4FF02D08884227D17D4A41
:104B9000D2E905C1614579D97D4B4A46A3F8009019
:104BA000DFF8F0E15B46AEF800B0A1EB0C01DFF8F6
:104BB00000C2DFF8D0E1CCF820109EF909C04FF414
:104BC0007A7E0CFB0EFCBCFBF1F1DFF8E4C1CCF803
:104BD0002810012804D002282DD0032857D047E1FF
:104BE000CAF800106748007A60B16648CDE90084D1
:104BF0000295C17890F804C080786144383001F0A3
:104C000045FF0BE05F48CDE900740295C17890F84C
:104C100004C080786144383001F038FF594800946E
:104C2000DAF80020C17803798078194406234030EF
:104C300001F0D8FF1CE1CAF804105248007A60B1B4
:104C40005048CDE900840295C17890F804C080787E
:104C50006144BA3001F01AFF0BE04A48CDE9007414
:104C60000295C17890F804C080786144BA3001F0B0
:104C70000DFF44480094DAF80420C1780379807865
:104C800019440623C23001F0ADFFF1E02DE0CAF86F
:104C900008103C48007A68B13A48CDE90084029592
:104CA000C17890F804C08078614400F59E7001F0EE
:104CB000EDFE0CE03348CDE900740295C17890F820
:104CC00004C08078614400F59E7001F0DFFE2D483D
:104CD0000094DAF80820C178037980781944062313
:104CE00000F5A27001F07EFFC2E0294B4A46A3F80E
:104CF0000090DFF8A0E05B46AEF800B0ACEB01013D
:104D0000DFF8ACC0DFF87CE0CCF820109EF909C0D9
:104D10004FF47A7E0CFB0EFCBCFBF1F1DFF890C087
:104D2000CCF82810012804D0022848D0032872D0DB
:104D30009EE0CAF800101348007A60B11148CDE92E
:104D400000740295C17890F804C0807861443830CE
:104D500001F09CFE0BE00B48CDE900840295C17880
:104D600090F804C080786144383001F08FFE054827
:104D70000094C1780379807819440623403019E003
:104D800008D4002060D1002060D2002007D000208D
:104D90002AD200202CD20020BFAACABC00000000EA
:104DA000C7E5C1E300000000B7B5BBD800000000B4
:104DB00048D40020DAF8002001F014FF58E0CAF8C7
:104DC0000410F648007A60B1F448CDE90074029509
:104DD000C17890F804C080786144BA3001F056FE82
:104DE0000BE0EE48CDE900840295C17890F804C04C
:104DF00080786144BA3001F049FEE8480094DAF85E
:104E00000420C1780379807819440623C23001F068
:104E1000E9FE2DE0FFE7CAF80810E048007A68B123
:104E2000DE48CDE900740295C17890F804C080781E
:104E3000614400F59E7001F029FE0CE0D748CDE9F1
:104E400000840295C17890F804C08078614400F530
:104E50009E7001F01BFED1480094DAF80820C37858
:104E6000017980781944062300F5A27001F0BAFE9A
:104E7000DFF828E39EF80C009EF80D10884223D13D
:104E8000DEE907C161457DD9C54B4A46A3F80090CC
:104E9000DFF810935B46A9F800B0A1EB0C01DFF836
:104EA00008C3F146CCF8241099F909B04FF47A7E82
:104EB0000BFB0EFBBBFBF1F1CCF82C10012804D04E
:104EC000022837D003286CD065E1CAF80C1099F895
:104ED000080078B1CDE90084029599F8040099F8AA
:104EE000031000EB4000014499F80200383001F053
:104EF000CDFD0EE0CDE90074029599F8040099F813
:104F0000031000EB4000014499F80200383001F032
:104F1000BDFD009499F8040099F8031000EB4000DF
:104F2000014499F8020006234030DAF80C2001F021
:104F300059FE30E1CAF8101099F8080078B1CDE9AF
:104F40000084029599F8040099F8031000EB4000E2
:104F5000014499F80200BA3001F098FD0EE0CDE965
:104F60000074029599F8040099F8031000EB4000D2
:104F7000014499F80200BA3001F088FD009499F8D4
:104F8000040000E045E099F8031000EB4000014404
:104F900099F802000623C230DAF8102001F022FE50
:104FA000F9E0CAF8141099F8080080B1CDE900843E
:104FB000029599F8040099F8031000EB40000144B1
:104FC00099F8020000F59E7001F060FD0FE0CDE958
:104FD0000074029599F8040099F8031000EB400062
:104FE000014499F8020000F59E7001F04FFD009415
:104FF00099F8040099F8031000EB4000014499F877
:105000000200062300F5A270DAF8142001F0EAFD90
:10501000C1E0634B4A46A3F80090DFF888915B46F5
:10502000A9F800B0ACEB0101DFF87CC1F146CCF887
:10503000241099F909B04FF47A7E0BFB0EFBBBFBF1
:10504000F1F1CCF82C10012804D0022837D0032825
:105050006AD0A0E0CAF80C1099F8080078B1CDE940
:105060000074029599F8040099F8031000EB4000D1
:10507000014499F80200383001F008FD0EE0CDE956
:105080000084029599F8040099F8031000EB4000A1
:10509000014499F80200383001F0F8FC009499F8C6
:1050A000040099F8031000EB4000014499F8020055
:1050B00006234030DAF80C2001F094FD6BE0CAF8CA
:1050C000101099F8080078B1CDE90074029599F8AC
:1050D000040099F8031000EB4000014499F8020025
:1050E000BA3001F0D3FC0EE0CDE90084029599F8C6
:1050F000040099F8031000EB4000014499F8020005
:10510000BA3001F0C3FC009499F8040099F8031038
:1051100000EB4000014499F802000623C230DAF89F
:10512000102001F05FFD36E0CAF8141099F808006D
:1051300080B1CDE90074029599F8040099F8031044
:1051400000EB4000014499F8020000F59E7001F068
:105150009DFC0FE0CDE90084029599F8040099F8D0
:10516000031000EB4000014499F8020000F59E7026
:1051700001F08CFC009499F8040099F8031000EBFE
:105180004000014499F80200062300F5A270DAF805
:10519000142001F027FD3046BDE8FE8F60D10020CD
:1051A0002AD200202CD2002048D400200949AFF692
:1051B0000700FCF742BB00210846FFF71AB910B5FB
:1051C0004FF6FF7000F000FE01F0CAF9BDE8104094
:1051D000FFF7D7BBC701F00F10B5FDF781F8F24913
:1051E000E7200880F1494FF6FF700880B422BDE83F
:1051F00010404FF4A07340F227116C2001F092BBD5
:105200002DE9FE4FEA4C4FF0E708CDF80080002171
:1052100022881423084601F016FB1027E5A1CDE9EA
:10522000001701204FF6FF7A02901F2352460221F9
:10523000002001F0ABFFCDF800A063882288142184
:10524000002001F000FBE14EE1A17078CDE90017EC
:105250000290B388F2882821142001F021FF707891
:10526000DEA1CDE900170290B388F2887621912063
:1052700001F016FF7078DBA1CDE900170290B3882A
:10528000F2889D21912001F00BFFFFF7A5FF00247C
:10529000DFF814934FF0A60BA9F8008004EBC400CC
:1052A000327800EB0415C2EB4500A63002EB450353
:1052B00081B2C2F5D270B63302F5E27201F032FB70
:1052C0007078CAA1CDE90017029030780BEB450148
:1052D000C0F5CA70B388E72201F0E2FE641CE4B2B4
:1052E000032CD9D37078C2A1CDE900170290B388FE
:1052F000F28840F20111912001F0D2FEB349002062
:105300001C31CDE900170346524602904FF49871C4
:1053100001F0C6FEA9F80080A448A0F800A003B0E0
:10532000B422BDE8F04F4FF4A07340F227116C2077
:1053300001F0F8BA70B5FDF7FDF8B34AA34B4FF48E
:105340009474108A4FF4A075A0F16D0147290DD215
:10535000518AA1420AD3A94208D2997831B10020DA
:105360009870BDE870400120FCF77CBA6C280AD91F
:10537000B42808D2508AA04205D3A84203D2A34839
:105380000068012801D10120987070BD2DE9FE4F01
:105390000446DFF87C8298F80000052835D1002704
:1053A0008A4D012C32D0102648F210094FF6FF7AB0
:1053B000022C40D04FF4857B042C4DD0802C5CD047
:1053C000B4F5807F6AD0402C7AD02946914889690B
:1053D000491C0068B4F5801F73D08F4A03230A2646
:1053E000B4F1807F6ED0B4F5001F6CD0B4F1007FB3
:1053F0006AD0B4F5000F68D0B4F1006F77D0B4F57F
:10540000800F75D0B4F1806F73D0B6E0E878401C9F
:10541000E870824DC0074FF0804205D00021104651
:1054200003F0EFF82F70A8E00121104603F0E9F82F
:1054300001202870A1E0FFF7CFFE687878A1CDE9C0
:10544000001602904B465246A6214FF4D27001F04E
:1054500027FE01F07CF890E0FFF7BEFE687872A1AD
:10546000CDE9001602904B46524659464FF4D27091
:1054700001F016FE88F800707FE0FFF7ADFE687857
:1054800067A1CDE9001602904B465246A6214FF483
:10549000D27001F005FE01F05AF86EE0FFF79CFEB5
:1054A000687863A1CDE9001602904B465246D82198
:1054B0004FF4D27001F0F4FD01F052F8AF615CE0FE
:1054C00004E017E019E026E028E035E0FFF784FE6D
:1054D000687855A1CDE9001602904B4652465946D0
:1054E0004FF4D27001F0DCFD88F8007045E026E052
:1054F00033E035E0A961A8603FE0A968401AB0FB3D
:10550000F3F1B1FBF6F306FB131100EB800001EBA6
:105510004000106031E0A961E8602EE0E968401ABF
:10552000B0FBF3F1B1FBF6F306FB131100EB8000C7
:1055300001EB4000506020E0A96128611DE029696D
:10554000401AB0FBF3F1B1FBF6F306FB131100EBCD
:10555000800001EB400090600FE0A96168610CE001
:105560006969401AB0FBF3F1B1FBF6F306FB1311C6
:1055700000EB800001EB4000D0602046BDE8FE8FCC
:105580002D49AFF2F710FCF758B90021084637E66D
:1055900010B54FF6FF7000F017FC00F0E1FF0B496B
:1055A0000020886110BD00002AD200202CD20020EB
:1055B00038D40020B9E2B5E7BCC6CAB1CAFDD7D617
:1055C000CAB5D1E9CFB5CDB300000000B0D10020FD
:1055D000CAB5D1E935A3BABCC6CAFD00BCC6CAFD6E
:1055E000A3BA0000BCC6CAB1A3BA0000F7CE00003F
:1055F000B0B4BCFC204B45595F3020D4DDCDA3BAFC
:10560000CDBCCCD0F800000034D200202881234249
:1056100007D0002060D2002048D400205CD20020B7
:10562000BFAACABC00000000B7B5BBD8000000008C
:10563000C7E5C1E300000000C701F00F70B5FCF73B
:105640004FFEF849E7200880F7494FF6FF700880C1
:105650004FF4A07540F227162B46B42231466C2039
:1056600001F060F94FF482742B4622463146B42093
:1056700001F058F92B4631462046BDE870404FF402
:10568000A87201F04FB92DE9FE4FE84CE7270097CB
:10569000002122881423084601F0D5F801261025A0
:1056A000E3A08DE861004FF6FF7B1F235A460221DD
:1056B000002001F06BFDCDF800B063882288142132
:1056C000002001F0C0F8E04CE0A16078CDE90015C1
:1056D0000290238962892821142001F0E1FC60787E
:1056E000E0A1CDE900150290238962895021A078BC
:1056F00001F0D6FC6078E0A1CDE900150290238985
:1057000062898221A07801F0CBFC6078E0A1CDE92C
:105710000015029023896289B421A07801F0C0FCB1
:105720006078E1A1CDE90015029023896289E62124
:10573000A07801F0B5FC6078E1A1CDE900150290F8
:10574000A078238962895021C83001F0A9FC6078D3
:10575000E1A1CDE900150290A07823896289822118
:10576000C83001F09DFCDFF8BC82A8F800B0DFF87B
:10577000B892A9F80070DFF868A3AAF81460009541
:10578000A078062332465021FF3001F02BFA009515
:10579000A07806238221FF30DAF8002001F022FAF7
:1057A000FFF74CFF0026A8F8007006EBC600227831
:1057B00000EB061AC2EB4A00A63002EB4A0381B2A4
:1057C000C2F5D270B63302F5E27201F0ABF8607840
:1057D000C4A1CDE900150290A62000EB4A01207873
:1057E0002389C0F5CA70E72201F05AFC761CF6B294
:1057F000032ED8D36078BCA1CDE90015029023898F
:10580000628940F21111A07801F04AFC8E49002013
:105810000C31CDE9001503465A4602904FF49871B9
:1058200001F03EFCA8F80070A9F800B04FF4A07594
:1058300040F227162B46B42231466C2001F072F854
:105840004FF482742B4622463146B42001F06AF8A8
:1058500003B02B4631462046BDE8F04F4FF4A87206
:1058600001F060B82DE9F05FFCF764FEA44FDFF8AB
:105870009492754C388A4FF00008A0F16D014FF0FA
:10588000010A4FF494754FF4A07647290CD2798A17
:10589000A94209D3B14207D2E17829B184F8038043
:1058A0000120FBF7DFFF0EE06C280AD9B42808D2EC
:1058B000788AA84205D3B04203D2D9F8280101283A
:1058C00001D184F803A0388A4FF4827BA0F1B5019E
:1058D0004F290CD2798AA94209D3B14207D2217942
:1058E00029B184F804800220FBF7BCFF0EE0B42845
:1058F0000AD9584508D2788AA84205D3B04203D2C3
:10590000D9F82801012801D184F804A0388AA0F22E
:1059100005114B290DD2798AA9420AD3B14208D286
:10592000617931B184F80580BDE8F05F0420FBF7B0
:1059300099BF58450BD9B0F5A87F08D2788AA842FC
:1059400005D3B04203D2D9F82801012801D184F847
:1059500005A0BDE8F09F2DE9FE4F0446DFF8A8B191
:105960009BF8000006282CD1374F4FF000094FF06C
:10597000010A012C26D03846594D8078294AE72360
:10598000DFF8A4C01026FF30A98A4FF6FF78022C5A
:105990002ED0042C3DD0802C3CD0B4F5807F3AD062
:1059A000402C39D028460068401CB4F5801F34D004
:1059B000B4F5001F32D0B4F5000F30D0B4F5800F2D
:1059C0002ED000E1B879401CB871504DC0074FF09F
:1059D000804206D00021104602F013FE85F80090A8
:1059E000F1E00121104602F00CFE85F800A0EAE08B
:1059F000491E89B2A98209B9A5F814A0A2F80080AD
:105A0000ACF800300096AA8A0623502101F0EAF88B
:105A1000D9E07DE090E0A1E0BBE0CDE0CEE0CFE0DA
:105A2000D0E000002AD200202CD2002038D4002060
:105A3000B9E2B5E7BCC6CAB1CAFDD7D6CAB5D1E985
:105A4000CFB5CDB300000000F2D10020CAB5D1E936
:105A500036A3BAB2E2C1BFD6DCC6DABACDC6B5C289
:105A6000CA000000F7CED6DCC6DACAFDA3BA2020F1
:105A70002020202020000000F7CECAB1BCE4207412
:105A80003D2020202020202020206D7300000000D9
:105A9000F7CED6DCC6DA20543D202020202020205E
:105AA00020206D7300000000F7CEC6B5C2CA206684
:105AB0003D202020202020202020487A00000000C7
:105AC000F7CEB4A5B7A22020202020202020B4CEDD
:105AD000CEAA31D6DCC6DA00F7CEB4CECAFD0000BD
:105AE00020D40020F7CE0000B0B4BCFC204B4559B8
:105AF0005F3020D4DDCDA3BACDBCCCD0F8000000FF
:105B000034D200200080234207D000205CD2002045
:105B1000491C89B2A982B1F57A7F02D340F2E731FC
:105B2000A982A2F80080ACF800300096AA8A062369
:105B3000502101F057F846E0FFF780FD78782EA15C
:105B4000CDE90016029048F210034246A6214FF418
:105B5000D27001F0A5FA00F0FAFC34E0404600F003
:105B600033F900210846FFF78EFD787824A1CDE9AE
:105B70000016029048F210034246D8214FF4D2702A
:105B800001F08EFAC5F80090A5F814A000F0E8FC2A
:105B900019E0FFF753FD78781BA1CDE900160290BC
:105BA00048F2100342464FF485714FF4D27001F071
:105BB00077FA8BF8009006E0286004E0286002E0A5
:105BC000286000E028602046BDE8FE8F1049AFF253
:105BD0007920FBF732BE0021084654E510B54FF698
:105BE000FF7000F0F1F800F0BBFC0A4800210160F2
:105BF0000121818210BD0000BFAACABC00000000C4
:105C0000C7E5C1E300000000B7B5BBD80000000045
:105C1000C701F00F20D4002008B50121442001F075
:105C20000EFE1820ADF8000048208DF803006946EC
:105C3000304801F0FEFB0120ADF8000028208DF86F
:105C4000030069462C4801F0F4FB08BD2DE9F04142
:105C500001252A4C002800D025702078264E254F9B
:105C600078B11021384601F03FFCF8B108213846E0
:105C700001F03AFCD0B10121304601F035FC012899
:105C800014D01021384601F02FFC01280CD1082136
:105C9000384601F029FC012806D10121304601F0E7
:105CA00023FC002800D12570BDE8F0810A20FBF715
:105CB0006BFC002020701021384601F015FC78B1F3
:105CC0000821384601F010FC78B10121304601F07E
:105CD0000BFC0128E8D1BDE8F0410420FBF7C2BD70
:105CE000BDE8F0410120FBF7BDBDBDE8F041022059
:105CF000FBF7B8BD001801400008014029D2002080
:105D0000F34908807047F249891C08807047FAE718
:105D1000EF4A1080901C01807047EE480089EFE741
:105D200010B502460B46EB4C6089FFF7E9FF100AFD
:105D3000FFF7E9FFD0B2FFF7E6FF521C100AFFF7AA
:105D4000E2FF90B2FFF7DFFFA089FFF7D9FF180A43
:105D5000FFF7D9FFD8B2FFF7D6FF5B1C180AFFF791
:105D6000D2FF98B2FFF7CFFFBDE81040D5E700B5EE
:105D7000FFF7D6FFD84800885DF804EBC3E770B59D
:105D800004460D46D34E7089FFF7BAFF200AFFF78D
:105D9000BAFFE0B2FFF7B7FF100AFFF7B4FFD0B2C7
:105DA000FFF7B1FFB089FFF7ABFF280AFFF7ABFFA2
:105DB000E8B2FFF7A8FF180AFFF7A5FFD8B2FFF770
:105DC000A2FFBDE87040A8E730B505460024C148F1
:105DD00041880088491E8BB2401E82B200210846CD
:105DE000FFF7CDFFBA4A4FF47070921C0021158066
:105DF000491CA029FBD3641C8442F7D330BDF0B505
:105E00009FB00121080201F00FFD012140F279103D
:105E100001F015FD0127ADF8787010268DF87B6034
:105E200003248DF87A401EA9AC4801F002FB4CF225
:105E30003370ADF8780018258DF87B508DF87A40D6
:105E40001EA9A74801F0F5FA4FF68070ADF878006A
:105E50008DF87B508DF87A401EA9A24801F0E9FA2E
:105E600041F20100ADF878008DF87B508DF87A4052
:105E70001EA99D4801F0DDFA0897002009900F2126
:105E80000A910B900C900D900E90022101910290BE
:105E900005210391049005900690079006210F912B
:105EA00010901190129613901590149016901790D0
:105EB00031021891199089001A911B9008A81C9022
:105EC00001A81D900FA801F048FD0121062001F056
:105ED00078FE1FB0F0BD7F482A2141812B218181AE
:105EE0002C210181012181714FF4F07101804FF467
:105EF000A0714180A82136200AE710B5FFF77FFF87
:105F0000F120FFF7FDFE3620FFF7FDFE0420FFF72E
:105F1000FAFE0020FFF7F7FE3C20FFF7F4FE0F200B
:105F2000FFF7F1FE8F20FFF7EEFEF220FFF7E8FE0D
:105F30001820FFF7E8FEA320FFF7E5FE1220FFF789
:105F4000E2FE0220FFF7DFFEB220FFF7DCFE1220A8
:105F5000FFF7D9FEFF20FFF7D6FE1020FFF7D3FE94
:105F60000020FFF7D0FEF820FFF7CAFE2120FFF740
:105F7000CAFE0420FFF7C7FEF920FFF7C1FE00208C
:105F8000FFF7C1FE0820FFF7BEFE3620FFF7B8FE80
:105F90000820FFF7B8FEB420FFF7B2FE0020FFF79D
:105FA000B2FEB620FFF7ACFE0220FFF7ACFE2220C7
:105FB000FFF7A9FEC120FFF7A3FE4120FFF7A3FED4
:105FC000C520FFF79DFE0020FFF79DFE1820FFF77C
:105FD0009AFEE020FFF794FE0F20FFF794FE1F20AB
:105FE000FFF791FE1C20FFF78EFE0C20FFF78BFEC3
:105FF0000F20FFF788FE0820FFF785FE4820FFF7F7
:1060000082FE9820FFF77FFE3720FFF77CFE0A20F4
:10601000FFF779FE1320FFF776FE0420FFF773FEEB
:106020001120FFF770FE0D20FFF76DFE0020FFF737
:106030006AFEE120FFF764FE0F20FFF764FE3220C6
:10604000FFF761FE2E20FFF75EFE0B20FFF75BFEE1
:106050000D20FFF758FE0520FFF755FE4720FFF7FC
:1060600052FE7520FFF74FFE3720FFF74CFE06204B
:10607000FFF749FE1020FFF746FE0320FFF743FE1F
:106080002420FFF740FE2020FFF73DFE0020FFF711
:106090003AFE3A20FFF734FE5520FFF734FE112078
:1060A000FFF72EFE3620FFF72BFEC820FFF72BFE52
:1060B0007820FBF769FA2920FFF722FEFFF70BFF94
:1060C0004FF6FF70FFF780FE08490120086010BD01
:1060D000FE07006C38D400202AD20020000C0140BA
:1060E000001401400018014000200140808121423D
:1060F00070B50021EC4D0024EC4A0123060602D5C0
:10610000C5F8A43101E0C5F8A4414006000EC2F86C
:106110008441C2F88431491CC9B20829EED370BD4C
:106120002DE9F04100250024E14E00273760DFF81B
:106130007883C8F8A471C8F8AC71FFF7D9FF0620BE
:10614000FBF70BFA37600120FBF707FA01213160FA
:106150003760A6F5C2764FF6FF7000EA4404C6F831
:106160008471C6F88411D6F808210AB1641CA4B25F
:106170006D1CEDB2102DF0D32009C8F8AC11BDE8AC
:10618000F081FEB5064600246D463046FFF7C8FF95
:1061900025F81400641CA4B2052CF6D30021481C79
:1061A000044680B20BE035F8113035F810209342E8
:1061B00003D925F8112025F81030401C80B205289D
:1061C000F1D3A1B20429EAD30021012035F810202F
:1061D000114489B2401C80B20428F7D30320B1FBDC
:1061E000F0F0FEBD2DE9F04104460F46B14D287890
:1061F000FFF7C7FF06466878FFF7C3FF26803880A1
:106200000120BCE72DE9FF4106460F4602A903A87D
:10621000FFF7E8FF80B3694601A8FFF7E3FF60B32B
:10622000BDF80420BDF80C309A4203D802F13200C8
:10623000834205D3934225D803F13200824221D212
:10624000BDF80050BDF80840A54203D805F1320062
:10625000844204D3AC4215D83234A54212D29818E5
:1062600040083080BDF80800BDF800100844400820
:106270003880012004B082E700E001E00020F9E767
:106280000020F7E70020F5E72DE9F84305460C4626
:10629000894F3A8005F10D0082B2193880B2234649
:1062A000214600F0F3FA04F10D0083B2193881B2EF
:1062B0002A46284600F0EAFA601C804681B2681C33
:1062C000064680B2FFF753FD1FFA88F1681E80462C
:1062D00080B2FFF74CFD601E814681B2B0B2FFF77D
:1062E00046FD1FFA89F11FFA88F0FFF740FD0020F4
:1062F000009006233A882146284600F084FBBDE83A
:10630000F88370B506460C466B480280214630463D
:10631000FFF72DFD751CA8B22146FFF728FD641C70
:10632000A1B23046FFF723FDA1B2A8B2BDE870408C
:10633000FFF71DBD70B5614909685E4C241D002939
:1063400006D0207D01063ED520F08000207541E07A
:106350000200584800F1040000F1120100F11000A1
:1063600002D0FFF74FFF24E0FFF74CFF08B3B4F96A
:10637000200002F0A7FC0546208A02F0BBFCA169C0
:1063800002F0CCFC294602F01BFC02F07BFC2082D0
:10639000B4F9220002F096FC0546608A02F0AAFCDD
:1063A000E16902F0BBFC294602F00AFC02F06AFC3B
:1063B0006082207D00060DD4C0202075208AA08137
:1063C000608AE08106E00020A081E0814FF6FF7046
:1063D00020826082207D00F0800070BD3548384901
:1063E000001D81613749C1616FF01E0101846FF0AA
:1063F00012014184012180F824109021001F0170B6
:10640000D021417001207047F8B50121882001F0AA
:1064100016FA0220ADF8000010248DF80340032680
:106420008DF80260284F6946384601F002F80221D3
:10643000384601F06DF8E501ADF800508DF80340E5
:106440008DF80260214E6946304600F0F2FF294681
:10645000304601F05DF86501ADF800508DF803405D
:106460006946304600F0E5FF2946304601F050F815
:10647000A001ADF8000048248DF80340694630467D
:1064800000F0D7FF0420ADF800008DF80340694606
:10649000384600F0CEFF07491631881EFFF7A2FEEE
:1064A000FFF79CFF0120F8BD0080234200802142BD
:1064B0008481214230D200202AD200202881234228
:1064C000A75C043EE9A1AF3D000C0140001C014067
:1064D000F8B50121482001F0B2F92024ADF80040C0
:1064E00010258DF8035003268DF802600C4F694685
:1064F000384600F09EFF2021384601F009F8ADF83B
:1065000000408DF803508DF80260064C6946204625
:1065100000F08FFF2021204600F0FAFFF8BD0000B8
:10652000000C01400018014008B50121042001F0D1
:1065300086F93C20ADF8000028208DF803000320E8
:106540008DF802006946784800F073FF08BD10B569
:106550000121880702F055F874490120087010BD28
:1065600010B500214FF0804002F04BF87049002038
:1065700008606E4908706F49086048608860C860AC
:10658000086248628862C862086148618861C861BF
:1065900008634863886310BD3EB5FFF7C5FF01215E
:1065A000084601F04CF90721002000F0FEFF3C20D6
:1065B000019000248DF8084010208DF8090001A8F2
:1065C00001F0FEFB08208DF800008DF80140012548
:1065D0008DF802508DF80350684600F06AFE0920DD
:1065E0008DF800008DF8014002208DF802008DF832
:1065F0000350684600F05DFE0A208DF800008DF81B
:10660000014003208DF802008DF80350684600F029
:1066100050FE17208DF800008DF8014004208DF801
:1066200002008DF80350684600F043FE3EBD10B5F1
:106630003E48007800280DD004213B4800F054FF6C
:106640003D4901280BD00020C1F894014FF480107F
:10665000FBF708F9BDE81040042001F010BC012050
:10666000C1F894010006FBF7FDF8F3E710B52F48D9
:10667000007800280DD008212B4800F035FF2E4966
:1066800001280BD00020C1F894014FF40010FBF753
:10669000E9F8BDE81040082001F0F1BB0120C1F885
:1066A00094014006FBF7DEF8F3E710B51F480078C9
:1066B00000280DD010211C4800F016FF1E490128AB
:1066C0000BD00020C1F894014FF48000FBF7CAF80A
:1066D000BDE81040102001F0D2BB0120C1F89401A8
:1066E0008006FBF7BFF8F3E710B5104800780028E4
:1066F0000DD020210C4800F0F7FE0F4901280BD0E7
:106700000020C1F894014FF40000FBF7ABF8BDE89E
:106710001040202001F0B3BB0120C1F89401C00655
:10672000FBF7A0F8F3E70000000801405CD200206E
:1067300060D2002048D40020008021427FB504466A
:106740000D460121084601F085F8ADF80840ADF886
:1067500004500024ADF80A40ADF806404FF08045E3
:1067600001A9284601F07CFC01221146284601F0CF
:1067700062FF1C208DF800008DF801408DF802406A
:1067800001208DF80300684600F093FD7FBD10B531
:1067900001218C07204602F081F9002807D0012151
:1067A000204602F087F921480168491C016010BDAC
:1067B0007FB504460D460121042001F04BF8ADF8E9
:1067C0000840ADF804500024ADF80A40ADF806408A
:1067D000174D01A9284601F043FC01221146284625
:1067E00001F029FF1E218DF800108DF801400221D3
:1067F0008DF8021001218DF80310684600F059FD54
:106800000121284601F0FDFE7FBD10B5084C012195
:10681000204602F043F9002807D00121204602F06B
:1068200049F9BDE81040FAF739BF10BD60D2002029
:106830000008004010B51446FFF772FA2046BDE884
:106840001040FFF764BA70B5049D141A641CA6B218
:106850005C1A641CA4B274435B1E521E9BB292B2BB
:10686000FFF78DFA0020FB4901E00D80401CA0429B
:10687000FBD3F9494888401E83B20888BDE87040C0
:10688000401E82B200210846FFF779BA2DE9FE4F7B
:1068900000250026171AA3EB010881468A46681EC8
:1068A000002F03DD4FF00101019107E003D14FF00C
:1068B0000001019102E00190C7F10007B8F1000F5B
:1068C00003DD4FF00100009007E003D14FF000001E
:1068D000009002E00090C8F10008474501DD3C4609
:1068E00000E044464FF0000B601C029015E01FFAD8
:1068F0008AF11FFA89F0FFF73AFA3D444644A5426F
:1069000002DD2D1B01988144A64202DD361B009852
:1069100082440BF1010B1FFA8BFB02988345E6DDE5
:10692000BDE8FE8F2DE9F04105460E4614461F4690
:106930003346224631462846FFF7A8FF3B462A4603
:1069400031462846FFF7A2FF3B46224639462846F5
:10695000FFF79CFF3B46224631462046BDE8F0410A
:1069600094E738B5BD4C24880094FFF76CFF38BD20
:106970002DE9F05F0446DDF828900D4616461F46C7
:1069800005EB070804EB060A1FFA88F11FFA8AF0E4
:106990004A46FFF74FFFA4EB060B1FFA88F11FFAD8
:1069A0008BF04A46FFF746FFA5EB07081FFA88F170
:1069B0001FFA8AF04A46FFF73DFF1FFA88F11FFAD7
:1069C0008BF04A46FFF736FF05EB060804EB070A93
:1069D0001FFA88F11FFA8AF04A46FFF72BFFE41BE3
:1069E0001FFA88F1A0B24A46FFF724FFAD1BA9B2F7
:1069F0001FFA8AF04A46FFF71DFFA9B2A0B24A4625
:106A0000BDE8F05F16E72DE9F84F81460A988A46FF
:106A1000904600241E465942032202EB41050028FD
:106A200019D130E0274608E03B4622465146484609
:106A3000CDF80080FFF79CFF7F1CB742F4DD002DEE
:106A400003DA05EB8405AD1D04E0A01B05EB800512
:106A50000A35761E641CB442E4DDBDE8F88F334687
:106A6000224651464846CDF80080FFF781FF002DB1
:106A700003DA05EB8405AD1D04E0A01B05EB8005E2
:106A80000A35761E641CB442E9DDE6E72DE9FF4FC6
:106A900081B082460EA89B4651C870490988009172
:106AA000203800F0FF08029802992044401E83B26B
:106AB0000AEB5400401E82B25046FFF760F9DFF83F
:106AC000A0910EB1002645E000261EE00C2C02D05D
:106AD000102C04D006E009EB0810855D02E009EBFC
