:020000040800F2
:10000000280B0020D16F0008D96F0008DB6F0008B3
:10001000DD6F0008DF6F0008E16F000800000000DE
:10002000000000000000000000000000E36F000876
:10003000E56F000800000000E76F0008E96F0008A6
:10004000EB6F0008EB6F0008EB6F0008EB6F000828
:10005000EB6F0008EB6F0008EB6F0008EB6F000818
:10006000BF6100081962000873620008EB6F0008A6
:10007000EB6F0008EB6F0008EB6F0008EB6F0008F8
:10008000EB6F0008EB6F0008EB6F0008EB6F0008E8
:10009000EB6F0008EB6F0008EB6F0008CD62000803
:1000A000EB6F0008EB6F0008EB6F0008EB6F0008C8
:1000B000CF630008EB6F000855640008EB6F000881
:1000C000EB6F0008EB6F0008EB6F0008EB6F0008A8
:1000D000EB6F0008656F0008EB6F0008EB6F00081E
:1000E000EB6F0008EB6F0008EB6F0008EB6F000888
:1000F000EB6F0008EB6F0008EB6F0008EB6F000878
:10010000EB6F0008EB6F0008EB6F0008EB6F000867
:10011000EB6F0008EB6F0008EB6F0008EB6F000857
:10012000EB6F0008EB6F0008EB6F0008EB6F000847
:1001300000F002F800F05AF80AA090E8000C82449F
:100140008344AAF10107DA4501D100F04FF8AFF27C
:10015000090EBAE80F0013F0010F18BFFB1A43F0A5
:1001600001031847A0A80000C0A800000A444FF0EF
:10017000000C10F8013B13F0070408BF10F8014B06
:100180001D1108BF10F8015B641E05D010F8016B4B
:10019000641E01F8016BF9D113F0080F1EBF10F8AF
:1001A000014BAD1C0C1B09D16D1E58BF01F801CBD2
:1001B000FAD505E014F8016B01F8016B6D1EF9D555
:1001C0009142D6D37047000000230024002500266A
:1001D000103A28BF78C1FBD8520728BF30C148BFAA
:1001E0000B6070471FB51FBD10B510BD08F0E4FDD2
:1001F0001146FFF7F7FF00F009F808F016FE03B408
:10020000FFF7F2FF03BC06F057FE00000EB500F04A
:10021000CDFB00F0AFFA4FF4A06006F0F9FE05F058
:1002200036FC05F01FFF05F07FFF4721092006F08F
:10023000A5F841F61F41632006F0DFF805F0AEFE99
:1002400005F0B4FA00F018FC00F0E0FA00F0EDFA66
:100250004FF4E13006F03AFEDFF8F8A30020CAF8C8
:100260000000FDA008F024FDDFF8FCB3FF4F4FF6BF
:10027000FF784FF0E709002005F0B2FAFC4800686B
:1002800018B1FC480121016002E0FA490020086031
:10029000F948007801280AD002287DD003287CD0B4
:1002A00004287BD005287AD0062879D04DE2A7F81B
:1002B0000080ABF80090F14E6425102430680A23CA
:1002C000B0FBF5F26021D220009406F0B3FA2E21A3
:1002D000CDE9001400200290BBF800303A8860217C
:1002E0004FF4917006F0FAF930680223B0FBF5F193
:1002F00005FB110260214FF49570009406F0EAFAB4
:1003000070680A23B0FBF5F29221D220009406F027
:1003100091FA0021CDE901412E200090BBF8003078
:100320003A8892214FF4917006F0D8F97068022350
:10033000B0FBF5F105FB110292214FF4957000948A
:1003400006F0C8FAB0680A23B0FBF5F2C421D22047
:10035000009406F06FFA2E21CDE9001400200290DF
:10036000BBF800303A88C4214FF4917006F0B6F91A
:10037000B0680223B0FBF5F105FB1102C4214FF474
:100380009570009406F0A6FAF0680A23B0FBF5F227
:10039000F621D220009404E044E06FE09AE0C5E04A
:1003A00010E106F047FA2E21CDE90014002002905A
:1003B000BBF800303A88F6214FF4917006F08EF9C0
:1003C000F0680223B0FBF5F105FB1102F6214FF4B2
:1003D0009570009406F07EFADAF800000723B0FB6F
:1003E000F5F228214FF4BC70009406F023FA2E2178
:1003F000CDE9001400200290BBF800303A88282193
:100400004FF4D87006F06AF9DAF800000223B0FB66
:10041000F5F105FB110228214FF4DC70009406F081
:1004200059FA92E1A7F80080ABF80090DAF80000E2
:100430006425B0FBF5F21024072316214FF4BC709D
:10044000009406F0F7F92E21CDE900140020029067
:10045000BBF800303A8816214FF4D87006F03EF908
:10046000DAF800000223B0FBF5F105FB11021621BA
:100470004FF4DC70009406F02DFA66E1A7F80080D6
:10048000ABF80090DAF800006425B0FBF5F2102418
:10049000072316214FF4BC70009406F0CBF92E21EF
:1004A000CDE9001400200290BBF800303A881621F4
:1004B0004FF4D87006F012F9DAF800000223B0FB0E
:1004C000F5F105FB110216214FF4DC70009406F0E3
:1004D00001FA3AE1A7F80080ABF80090DAF80000E2
:1004E0006425B0FBF5F21024072316214FF4BC70ED
:1004F000009406F09FF92E21CDE90014002002900F
:10050000BBF800303A8816214FF4D87006F0E6F8B0
:10051000DAF800000223B0FBF5F105FB1102162109
:100520004FF4DC70009406F0D5F90EE1BE2596205C
:100530000290A7F80090ABF8008051482024009466
:1005400002686E210723284606F030FADAF8001018
:100550004C480323B1FBF0F200942846029906F0C0
:1005600025FA0B260096BBF800303A88EE20029957
:1005700006F0F3F9DAF800006425B0FBF5F04FF46B
:100580007A71B0FBF1F201FB120203230094FE200A
:10059000029906F00BFA0096BBF800303A884FF447
:1005A0009770029906F0D9F9DAF800000223B0FB3F
:1005B000F5F105FB110200944FF49F70029906F0CB
:1005C000F5F9C2E0A7F80080ABF800902E4CDAF8FD
:1005D0000000A061A28B2168B1FBF2F16160B0FB69
:1005E000F1F1A160294AB2FBF1F20021C4E9042132
:1005F0006421B0FBF1F2264E1025009530780723D8
:100600005021403006F016F92E21CDE900150020CA
:1006100002903078BBF800303A885021783006F0EC
:100620005DF8A1696420B1FBF0F200FB12120095A5
:10063000307802235021803006F04CF9A168642004
:10064000B1FBF0F20095307807238221403006F0AC
:10065000F1F81FE05002002073797374656E207307
:10066000746172740D0A00001C0200201A0200203E
:1006700028812342940123420700002048040020DF
:10068000B8010020A08601001804002000E40B54EB
:10069000000000200021CDE901512E20009030788B
:1006A000BBF800303A888221783006F017F8A1684C
:1006B0006420B1FBF0F200FB1212009530780223A7
:1006C0008221803006F006F9D4E90401284A00238B
:1006D00008F076FA0246009530780423B4214030C1
:1006E00006F0A8F82E21CDE9001500200290307800
:1006F000BBF800303A88B421603005F0EFFFD4E950
:1007000004011B4A002308F05BFA009530780523AA
:10071000B421683006F0DEF800953078A28B06230D
:100720005021EB3006F086F80095307806238221C0
:10073000EB30226806F07EF8009530780623B4216D
:1007400000F20310626806F075F8A7F80090002325
:100750004FF4F07422461946184605F0BFFE0123F7
:1007600022461946002005F0B9FEA7F8008082E570
:10077000A086010010B56FF0040006F091FC20483F
:1007800020490068B0FBF1F01F49C0B2087000EBCF
:100790004002C2EBC0104FF6FF7202EAC000488070
:1007A00010BD1949097848434FF0E0214861002302
:1007B0008B61086940F0010008610869C20701D037
:1007C000C003FAD5086920F0010008618B61704709
:1007D0000D49498848434FF0E021486100238B616F
:1007E000086940F0010008610869C20701D0C00330
:1007F000FAD5086920F0010008618B61704700009C
:100800000800002000127A000200002010B500F05D
:1008100068FE01F07AF903F0B5FB04F0DBFA04F0AE
:1008200083FCBDE8104004F09BBF344900204870B1
:10083000704770B50446314D2878844238D0072877
:1008400019D2DFE800F004070A0D1013160000F0BB
:1008500051FE10E001F067F90DE003F0A1FB0AE0A2
:1008600003F09EFB07E004F0BEFA04E004F064FC31
:1008700001E004F07DFF072C19D2DFE804F0040743
:100880000A0D1013160000F031FE10E001F042F9DD
:100890000DE003F07BFB0AE003F078FB07E004F0D7
:1008A0009EFA04E004F045FC01E004F05EFF2C70C9
:1008B00070BD12484078072813D2DFE800F0040624
:1008C000080A0C0E100000F0B5BB00F04CBF02F09F
:1008D000C7B802F0C5B803F080BD04F047BB04F010
:1008E00092BD704710B5064841680020884703480C
:1008F0004078FFF79EFFBDE81040DAE706000020D1
:10090000240200200CB50022019200925248016896
:1009100041F4803101604FF4A063016801F40031BB
:1009200000910199491C0191009911B901999942CD
:10093000F3D10168890302D50121009100E0009202
:100940000099012930D145490A6842F010020A6035
:100950000A6822F003020A600A6842F002020A6092
:100960004168416041684160416841F48061416093
:10097000416821F47C114160416841F4E811416013
:10098000016841F08071016001688901FCD541680E
:1009900021F003014160416841F00201416041687A
:1009A000C1F381010229FAD10CBDABE710B52A4889
:1009B000016841F0010101604168294A114041602C
:1009C0000168284A11400160016821F4802101601A
:1009D000416821F4FE0141604FF41F018160FFF77F
:1009E000E4FF21494FF00060086010BD10B51A4ABD
:1009F000506800F00C011D4B1D4800290ED0042941
:100A00000ED008290ED003605168194AC1F30311B2
:100A1000121D515C0268CA40026010BD0360F3E71A
:100A20000360F1E7516801F47011536803F48033F7
:100A3000022404EB914133B153689B0307D50D4B5E
:100A400059430160E0E70B4B59430160DCE7074B7A
:100A500059430160D8E70000001002400020024026
:100A60000000FFF8FFFFF6FE08ED00E000127A003C
:100A70000800002000093D004FF4C871154808F037
:100A800042B910B50022134B53F8324024B1521C26
:100A9000D2B2322AF8D310BD43F8320003EBC200C1
:100AA00041600D490878401C087010BD70B50024E5
:100AB000084D094E0AE005EBC4014968014204D023
:100AC00055F834108847002803D0641C31788C42D4
:100AD000F1DB70BD700200201C0000203EB5F94C17
:100AE0001025F9A1E078CDE900150290638AA28A69
:100AF0006178207806F0FCF8E078F8A1CDE90015DF
:100B000002906078A178638A0144A28A207806F076
:100B1000EFF8E078F6A1CDE9001502906178A078B1
:100B2000638A01440144A28A207806F0E1F8E07863
:100B3000F7A1CDE9001502906178A078638A01449D
:100B400001440144A28A207806F0D2F8E078F6A1A8
:100B5000CDE9001502906178A078638A01440144D0
:100B600001440144A28A207806F0C2F8E078F1A19D
:100B7000CDE9001502906178A078638A01440144B0
:100B8000014401440144A28A207806F0B1F8E078DB
:100B9000EEA1CDE9001502906178A078638A014446
:100BA000014401440144014401444FF478424FF4AC
:100BB000D27006F09DF83EBD2DE9FE4FE54C4FF09A
:100BC000E708CDF80080002122881423084605F0AC
:100BD00062FC01271026E0A08DE8C1004FF6FF7AE5
:100BE0001F2352460221002006F0F8F8B5480023E2
:100BF0001C308DE8C100524604214FF4B97006F054
:100C000077F8CDF800A060882288143883B21421C8
:100C1000002005F040FC4FF00009D5A0CDE9000907
:100C20005346E72264211E2005F0E2FFA54DD1A125
:100C3000E723E878CDE9001602905246AA211E204B
:100C400006F056F8FFF74AFF0024DFF834A305F159
:100C5000160BAAF800806878A97895F800C001FB07
:100C60000401287900F110020A4493B21BF8042011
:100C7000091A0CEB02120244ACEB0000383289B2C4
:100C800080B205F077FCE878BEA1CDE900160290AD
:100C90006878A9786B8A04FB010081B22878E72282
:100CA000283880B206F024F8641CE4B2062CD0D3B5
:100CB000A878697800EB40002A7901EB400083189E
:100CC000801A81B2103302F5E2724FF4CD7005F054
:100CD00051FC7C48002328308DE841024FF6FF721A
:100CE0004FF49871184606F003F8A7480760BDE86E
:100CF000FE8FFEB50646734D6E71FFF7EFFE697904
:100D0000002310244FF6FF7201290ED0022918D0BB
:100D1000032924D0042931D005293FD006294ED0FB
:100D200008295ED009295ED06FE06B74E87866A16F
:100D3000CDE900140290E7236978287805F0D8FF00
:100D400063E06B74E87865A1CDE9001402906878DF
:100D5000A978E7230144287805F0CAFF55E06B74B1
:100D6000E87863A1CDE9001402906978A878E723B8
:100D700001440144287805F0BBFF46E06B74E87835
:100D800063A1CDE9001402906978A878E7230144B3
:100D900001440144287805F0ABFF36E06B74E87835
:100DA00061A1CDE9001402906978A878E723014495
:100DB000014401440144287805F09AFF25E06B7452
:100DC000E8785CA1CDE9001402906878A978E7235F
:100DD00008440844084408440144287805F088FF82
:100DE00013E06B7411E0E87858A1CDE9001402908B
:100DF0006878A978E723084408440844084408446C
:100E000001444FF4D27005F073FF6979A8798142EB
:100E100005D1082905D0092903D05C480670A971BD
:100E2000FEBD0929FBD1687C401CC0B26874022851
:100E3000F5D1584A56481060F1E72DE9F0410446D3
:100E400052480078002824D11E4D0023012695F930
:100E50000F002A7C411E012C1CD0022C28D0062712
:100E6000042C26D0B4F5805F24D0B4F5005F22D0E6
:100E7000B4F5804F20D0B4F5004F1ED0B4F5803FBC
:100E80001CD0B4F5003F1AD0B4F5802F18D0202C18
:100E900017D0CCE048B2E873012800DAEE7395F978
:100EA0000F00012879D02E74C0B2FFF722FFBEE0F8
:100EB00079E07EE092E096E09BE0A0E0A5E0AAE089
:100EC000AEE0B1E01E000020CAB5D1E931A3BAB24C
:100ED000E2C1BFB5B2B9E2CAB1BCE400CAB5D1E95A
:100EE00032A3BAB2E2C1BFCBB2CAB1CBD9B6C80045
:100EF000CAB5D1E933A3BAB2E2C1BFD4C8B1E4CB19
:100F0000D9D4CBB6AFB5C4BCD3CBD9B6C8000000DA
:100F1000CAB5D1E934A3BAB2E2C1BFC5F6D7B2D6D9
:100F2000D0B5C4B6AFC1BF00CAB5D1E935A3BABC0C
:100F3000C6CAFD00CAB5D1E936A3BAB2E2C1BFD66E
:100F4000DCC6DABACDC6B5C2CA000000CDCBB3F656
:100F50000000000038040020B9E2B5E7BCC6CAB101
:100F6000CAFDD7D6CAB5D1E9CFB5CDB300000000D0
:100F7000BBD50000C6BDB4A8D6D0D1A700000000E4
:100F80001A020020F7CE00008081214207000020D5
:100F90000400FA050CED00E0FFE71AB32B74012002
:100FA000FFF7A7FE43E0062941D2C0B2FFF7A1FE3A
:100FB0003DE0401C40B2E873062800DDEF7395F970
:100FC0000F00062804D02E74C0B2FFF792FE2EE068
:100FD00042B12B740620FFF78CFE28E00120FFF7BA
:100FE00088FEEE7323E00220FFF783FE0220E87301
:100FF0001DE00320FFF77DFE0320E87317E00420C7
:10100000FFF777FE0420E87311E00520FFF771FE7B
:101010000520E8730BE00620FFF76BFEEF7306E098
:101020000820FFF766FE02E00920FFF762FE204677
:10103000BDE8F0812DE9F05FDFF82484DFF8249427
:1010400008F1160498F8002098F804002378A2EB21
:10105000000A02EB0312434602445B78B9F8101011
:10106000A3EB000C03444846383210330025FE4EF3
:101070000127408A8A4510DA91420ED284450CDA63
:1010800098420AD298F807B0BBF1000F05D088F853
:1010900007503803FFF70AFD0DE08A4509DA91424F
:1010A00007D2844505DA984203D2D6F828010128F0
:1010B00001D188F8077098F8002098F80400B9F872
:1010C0001010131A8B4224DA94F801C002EB0C1CA6
:1010D00084440CF1380C61451BD298F801C098F893
:1010E00002A0D444B9F812A0ACEB000BD34510DA3F
:1010F00084440CF1100CE2450BD298F808C0BCF106
:10110000000F06D088F808504FF40050FFF7CEFCCF
:101110001CE08B4218DA637802EB03120244383287
:10112000914211D298F8011098F802200A44B9F8B7
:101130001210131A8B4207DA10441030814203D286
:10114000D6F82801012801D188F8087098F8002005
:1011500098F80400B9F81010131A8B4225DA94F8A5
:1011600002C002EB0C1C84440CF1380C61451CD20B
:1011700098F801C098F802A00CEB4A0CB9F812A03C
:10118000ACEB000BD34510DA84440CF1100CE245B3
:101190000BD298F809C0BCF1000F06D088F80950AE
:1011A0004FF48040FFF782FC1DE08B4219DAA378F0
:1011B00002EB031202443832914212D298F8011025
:1011C00098F8022001EB4202B9F81210131A8B4270
:1011D00007DA10441030814203D2D6F828010128E2
:1011E00001D188F8097098F8002098F80400B9F83F
:1011F0001010131A8B4226DA94F803C002EB0C1C71
:1012000084440CF1380C61451DD298F802C098F85E
:1012100001A00CEB4C0CD444B9F812A0ACEB000BC1
:10122000D34510DA84440CF1100CE2450BD298F847
:101230000AC0BCF1000F06D088F80A504FF40040F5
:10124000FFF734FC1EE08B421ADAE37802EB03125C
:1012500002443832914213D298F8021098F80120D3
:1012600001EB41010A44B9F81210131A8B4207DA54
:1012700010441030814203D2D6F82801012801D150
:1012800088F80A7098F8002098F80400B9F810104F
:10129000131A8B4225DA94F804C002EB0C1C844428
:1012A0000CF1380C61451CD298F801C098F802A0E6
:1012B0000CEB8A0CB9F812A0ACEB000BD34510DA9A
:1012C00084440CF1100CE2450BD298F80BC0BCF131
:1012D000000F06D088F80B504FF48030FFF7E6FB84
:1012E0001DE08B4219DA237902EB031202443832F3
:1012F000914212D298F8011098F8022001EB820175
:10130000B9F812200B1A934207DA084410308242CF
:1013100003D2D6F82801012801D188F80B7098F87B
:10132000002098F80400B9F81010131A8B4226DA3E
:1013300094F805C002EB0C1C84440CF1380C614598
:101340001DD298F802C098F801A00CEB8C0CD44484
:10135000B9F812A0ACEB000BD34510DA84440CF1C1
:10136000100CE2450BD298F80CC0BCF1000F06D06F
:1013700088F80C504FF40030FFF798FB1EE08B42CA
:101380001ADA637902EB031202443832914213D223
:1013900098F8021098F8012001EB81010A44B9F88D
:1013A0001210131A8B4207DA10441030814203D214
:1013B000D6F82801012801D188F80C70B9F810007E
:1013C0004FF4CD74A04220D998F8041001F5E272D0
:1013D00090421AD298F8022098F8013002EB82026B
:1013E0001344B9F81220A3EB010C94450DDA19440B
:1013F00010318A4209D298F80D1031B188F80D5099
:101400004FF48020FFF752FB1DE0A04219D998F855
:10141000041001F5E272904213D298F8020098F895
:10142000012000EB80000244B9F81200531A8342F5
:1014300007DA11441031884203D2D6F82801012876
:1014400001D188F80D70B9F81000A04228D998F899
:10145000041001F5E272904222D298F8022005E0D1
:101460001E000020240200200080234298F8013052
:1014700002EB420203EB4202B9F81230A2EB010C7C
:101480009C450DDA114410318B4209D298F80E10A8
:1014900031B188F80E50BDE8F05F2020FFF706BBA1
:1014A000A0421AD998F8041001F5E272904214D2C1
:1014B00098F8020098F8012000EB400002EB40028F
:1014C000B9F81200531A834207DA114410318842E6
:1014D00003D2D6F82801012801D188F80E70BDE8A2
:1014E000F09F0F49AFF2AD60FFF7CBBA002108467D
:1014F000FFF762BB10B54FF6FF7004F02FFA0948F2
:101500000121C171017241728172C1720173417313
:1015100081730022C273017407214171817110BD72
:1015200027F007001E000020FEB5F94C1025F9A198
:101530006078CDE9001502904FF4D276E3882289D5
:10154000A621304605F0D4FB6078F4A1CDE9001562
:101550000290E3882289D821304605F0C9FB6078E3
:10156000F0A1CDE900150290E3884FF478424FF4E2
:101570008571304605F0BCFBFEBD2DE9FE4FEB4CFE
:10158000E7250095002122881423084604F083FFF4
:101590001026E7A1CDE9001601204FF6FF77029053
:1015A0001F233A460221002005F018FC00976388AB
:1015B00022881421002004F06EFFD54CE2A160784F
:1015C000CDE900160290E38822892821142005F035
:1015D0008FFB6078E1A1CDE900160290E3882289B3
:1015E00028214FF4877005F083FB6078E2A1CDE9F4
:1015F00000160290E38822896021822005F078FBA2
:101600006078E0A1CDE900160290E388228992215A
:10161000822005F06DFB6078DDA1CDE90016029017
:10162000E3882289C421822005F062FB6078DBA177
:10163000CDE900160290E3882289F621822005F088
:1016400057FB6078CBA1CDE9001602904FF49F784C
:10165000E38822896021404605F04AFB6078C5A1F5
:10166000CDE900160290E38822899221404605F0D8
:101670003FFB6078BFA1CDE900160290E388228984
:10168000C421404605F034FB6078BAA1CDE90016CC
:101690000290E3882289F621404605F029FBC248E2
:1016A000058000254FF056094FF4BC784FF07A0AB8
:1016B00005EBC50000EB051B09EB4B010B46424651
:1016C000502004F00BFF0AEB4B010B464246502022
:1016D00004F004FF6D1CEDB2042DE9D34FF48875BE
:1016E00050222B465621104604F0F8FE40462B4669
:1016F0000246562104F0F2FEFFF716FF00254FF0D8
:10170000A60905EBC500227800EB0518C2EB4800DE
:10171000A63002EB480381B2C2F5D270B63302F5AF
:10172000E27204F027FF6078A0A1CDE900160290D4
:10173000207809EB4801C0F5CA70E388E72205F07C
:10174000D7FA6D1CEDB2032DDBD3714900201C319B
:10175000CDE9001603463A4602904FF4987105F021
:10176000C7FABDE8FE8F2DE9F047694CDFF84082EB
:10177000002521784046C1F5D279B8F81020C1F192
:10178000A60C01F1B6038B4E0127408A01F5E271E8
:1017900091450FD28A420DD284450BDA984209D284
:1017A00094F802A0BAF1000F04D0A5708020FFF7D2
:1017B0007DF90CE0914509D28A4207D2844505DAC9
:1017C000984203D2D6F82801012800D1A7702078CA
:1017D000B8F81010C0F5D2728A4215D200F5E27343
:1017E000994211D2B8F81230C0F1D80C9C450BDAEE
:1017F00000F1E80C634507D2E3782BB1E5704FF4B4
:101800008070FFF753F913E08A4210D200F5E272BC
:1018100091420CD2B8F81210C0F1D8028A4206DA0E
:10182000E830814203D2D6F82801012800D1E770C0
:101830002078B8F81010C0F5D2728A4215D200F59F
:10184000E273994211D2B8F81230C0F5857C9C45FC
:101850000BD200F58D7C634507D223792BB125711E
:10186000BDE8F0474020FFF721B98A4211D200F5C8
:10187000E27291420DD2B8F81210C0F585728A4218
:1018800007D200F58D70814203D2D6F828010128D5
:1018900000D12771BDE8F0872DE9FE4F0446464F81
:1018A0003878012831D11A4D10264FF0000848F23F
:1018B00010094FF6FF7A4FF4857B012C26D0022CBD
:1018C00025D0042C7ED0802C7DD0B4F5807F7BD0B9
:1018D000402C7AD03948B4F5801F006876D038495A
:1018E000B4F1807F73D0B4F5001F71D0B4F1007FE4
:1018F0006FD0B4F5000F6DD0B4F1006F6BD0B4F5BC
:10190000800F69D0B4F1806F67D0FCE066E07AE0C8
:1019100068000020BFAACABC00000000C7E5C1E300
:1019200000000000B7B5BBD800000000380400205C
:10193000B9E2B5E7BCC6CAB1CAFDD7D6CAB5D1E9C6
:10194000CFB5CDB300000000CAB5D1E931A3BAB21A
:10195000E2C1BFB5B2B9E2CAB1BCE400CFB5CDB304
:10196000BCC6CAB1CAB1BCE43A2020202020202045
:10197000202020206D730000B4ABB8D0C6F7313AF8
:1019800000000000B4ABB8D0C6F7323A0000000047
:10199000B4ABB8D0C6F7333A00000000B4ABB8D04F
:1019A000C6F7343A000000001A020020F7CE00000B
:1019B0002402002000802342070000205002002063
:1019C0004804002034E048E05CE070E084E085E01A
:1019D00088E089E08CE08DE090E091E0FFF7A4FDE5
:1019E0006878AFF2C001CDE9001602904B4652462E
:1019F00059464FF4D27005F07BF953A007F058F91F
:101A000087F800807FE0FFF78FFD6878AFF2FC0178
:101A1000CDE9001602904B465246A6214FF4D270F3
:101A200005F066F94CA007F043F904F05AFB6AE0B0
:101A3000FFF77AFD6878AFF21C11CDE9001602902D
:101A40004B465246D8214FF4D27005F051F947A0C9
:101A500007F02EF904F04CFB55E0FFF765FD6878C0
:101A6000AFF25011CDE9001602904B465246A62126
:101A70004FF4D27005F03CF941A007F019F904F0D9
:101A800030FB40E0FFF750FD6878AFF27011CDE910
:101A9000001602904B465246D8214FF4D27005F002
:101AA00027F93CA007F004F904F022FB2BE0FFF734
:101AB0003BFD6878AFF29411CDE9001602904B46D9
:101AC000524659464FF4D27005F012F936A007F08D
:101AD000EFF887F8008016E0E86014E0EA68801A02
:101AE000086010E028610EE02A69801A48600AE068
:101AF000686108E06A69801A886004E0A86102E011
:101B0000AA69801AC86020462BE62C49AFF27720DC
:101B1000FEF7B7BF10B52AA007F0CAF80021BDE84C
:101B20001040084629E510B528A007F0C1F84FF687
:101B3000FF7003F013FF04F0DBFA2849012008715D
:101B4000C870887010BD00006C6162315F6B657990
:101B50005F6261636B0D0A006C6162315F6B657976
:101B60005F73747261740D0A000000006C61623171
:101B70005F6B65795F636C6561720D0A0000000040
:101B80006C6162315F746F7563685F7374726174E6
:101B90000D0A00006C6162315F746F7563685F638A
:101BA0006C6561720D0A00006C6162315F746F7563
:101BB00063685F6261636B0D0A000000C701F00F8C
:101BC0006C6162315F696E69740D0A006C6162312B
:101BD0005F636C6F73650D0A0000000068000020F1
:101BE0002DE9FE4FFFF7A0FCDFF800844FF6FF7BE6
:101BF000A8F800B0FE4FE7203880FE4CFE4E1025BE
:101C0000617B4FF0640A4FF02E094FF4D270012926
:101C10007ED06178F9A2CDE900250291A38AE28AFB
:101C2000422105F065F860781021F6A2CDE9002187
:101C300002904FF47C435A4674214FF4D27005F061
:101C400057F84FF0200B84F802B060781021EFA213
:101C5000CDE900210290A38AE28A2179E07805F09B
:101C600047F860781021EEA2CDE90021029020799A
:101C7000A178A38A00EB4101E28AE07805F038F808
:101C800060781021EBA2CDE900210290A38AE28ABC
:101C90002179A07905F02CF860781021EAA2CDE92D
:101CA000002102902079A178A38A00EB4101E28A09
:101CB000A07905F01DF8306A0723B0FBFAF2102076
:101CC0000090E0782179213004F0B4FD6078102193
:101CD000CDE900910290E0783B88B8F800202179A6
:101CE000593004F0FBFC306A0223B0FBFAF10AFB26
:101CF000110210200090E0782179613004F0EAFDB3
:101D0000706AB0FBFAF2102000902079A17800E010
:101D100080E000EB4101E0780723213004F08AFDE8
:101D200060781021CDE9009102902079A1783B885C
:101D300000EB4101E078B8F80020593004F0CEFC07
:101D4000706A0223B0FBFAF10AFB11021020009026
:101D50002079A17800EB4101E078613004F0BAFD10
:101D6000B06A4FF47A7A90FBFAF210200090A079D2
:101D700006232179213004F05DFD60781021CDE942
:101D800000910290A0793B88B8F800202179513069
:101D900004F0A4FCB06A032390FBFAF10AFB1102E1
:101DA00010200090A0792179593004F093FDF06A59
:101DB000062390FBFAF2102000902079A17800EB26
:101DC0004101A079213004F035FD60781021CDE982
:101DD000009102902079A1783B8800EB4101A07925
:101DE000B8F80020513004F079FCF06A032390FB2E
:101DF000FAF10AFB1102102000902079A17800EB83
:101E00004101A079593004F065FD944E30780328E3
:101E10007ED0FDE3617879A2CDE9002502914FF4EF
:101E20007C434FF6FF724221834604F061FF6078E5
:101E300074A1CDE900150290A38AE28A7421584664
:101E400004F056FF85480078022802D003287DD090
:101E5000A0E32820A070607881A1CDE90015029050
:101E6000A38AE28A6179E07804F042FF607881A178
:101E7000CDE9001502906079A178A38A0144E28A35
:101E8000E07804F035FF60787FA1CDE9001502907D
:101E90006079A178A38A00EB4101E28AE07804F03E
:101EA00027FF60787DA1CDE900150290A0786179C7
:101EB00000EB40000144A38AE28AE07804F018FFB6
:101EC00060787BA1CDE900150290A38AE28A61794E
:101ED000A07904F00DFF60787AA1CDE90015029099
:101EE0006079A178A38A0144E28AA07904F000FF16
:101EF000607879A1CDE9001502906079A178A38A74
:101F000000EB4101E28AA07904F0F2FE607800E083
:101F10006CE376A1CDE900150290A078617900EB21
:101F200040000144A38AE28AA07904F0E1FE30680F
:101F30000095B0FBFAF2E078072361791C3004F0D9
:101F400079FC6078CDE90095029000E0C5E1E07889
:101F50003B88B8F800206179543004F0BFFB30684A
:101F60000095B0FBFAF10AFB1102E07802236179D7
:101F70005C3004F0AFFC70680095B0FBFAF2607959
:101F8000A17807230144E0781C3004F053FC60780A
:101F9000CDE9009502906079A1783B880144E07812
:101FA000B8F80020543004F099FB70680095B0FB3D
:101FB000FAF10AFB11026079A17802230144E0786A
:101FC0005C3004F087FCB0680095B0FBFAF26079F1
:101FD000A178072300EB4101E0781C3004F02AFCD3
:101FE0006078CDE900950290607989E01A020020BE
:101FF0001C020020AC00002048040020B7BDB7A898
:1020000031000000B7BDB7A8320000007431323A89
:1020100020202020202020202020206D7300000080
:102020007433343A20202020202020202020206DCE
:10203000730000007631323A20202020202020201A
:102040002020206D2F7300007633343A202020208A
:10205000202020202020206D2F730000070000206A
:1020600074313A20202020202020202020206D7351
:102070000000000074323A20202020202020202060
:1020800020206D730000000074333A2020202020AF
:102090002020202020206D730000000074343A209E
:1020A000202020202020202020206D730000000010
:1020B00076313A20202020202020202020206D2F43
:1020C0007300000076323A2020202020202020209B
:1020D00020206D2F7300000076333A20202020202E
:1020E0002020202020206D2F7300000076343A201D
:1020F000202020202020202020206D2F7300000091
:10210000A1783B8800EB4101E078B8F8002054301A
:1021100004F0E4FAB0680095B0FBFAF10AFB110292
:102120006079A178022300EB4101E0785C3004F093
:10213000D1FBF0680095B0FBFAF2A078617900EB72
:1021400040000144E07807231C3004F073FB607802
:10215000CDE900950290A078617900EB4000014440
:10216000E0783B88B8F80020543004F0B7FAF06803
:102170000095B0FBFAF10AFB1102A078617900EB3F
:1021800040000144E07802235C3004F0A3FB306996
:102190004FF47A7A90FBFAF20095A07906236179E0
:1021A0001C3004F047FB6078CDE900950290A079DF
:1021B0003B88B8F8002061794C3004F08FFA306920
:1021C000009590FBFAF10AFB1102A07903236179D3
:1021D000543004F07FFB7069009590FBFAF260794F
:1021E000A17806230144A0791C3004F023FB607819
:1021F000CDE9009502906079A1783B880144A079EF
:10220000B8F800204C3004F069FA7069009590FB32
:10221000FAF10AFB11026079A17803230144A07945
:10222000543004F057FBB069009590FBFAF26079E6
:10223000A178062300EB4101A0791C3004F0FAFAE2
:102240006078CDE9009502906079A1783B8800EB39
:102250004101A079B8F800204C3004F03FFAB06991
:10226000009590FBFAF10AFB11026079A178032333
:1022700000EB4101A079543004F02CFBF06900958B
:1022800090FBFAF2A078617900EB40000144A0795C
:1022900006231C3004F0CEFA6078CDE90095029058
:1022A000A078617900EB40000144A0793B88B8F840
:1022B00000204C3004F012FAF069009590FBFAF11E
:1022C0000AFB1102A078617900EB40000144A0797B
:1022D0000323543004F0FEFA5CE11E20A070607805
:1022E000F7A1CDE900150290A38AE28A6179E0782E
:1022F00004F0FEFC6078F6A1CDE90015029060794B
:10230000A178A38A0144E28AE07804F0F1FC6078C5
:10231000F3A1CDE900150290A078617900EB4000AF
:102320000144A38AE28AE07804F0E2FC6078F0A13C
:10233000CDE9001502906079A178A38A00EB8101B4
:10234000E28AE07804F0D4FC6078EDA1CDE90015D4
:102350000290A38AE28A6179A07904F0C9FC6078CE
:10236000ECA1CDE9001502906079A178A38A01441F
:10237000E28AA07904F0BCFC6078EBA1CDE90015FD
:102380000290A078617900EB40000144A38AE28AC0
:10239000A07904F0ADFC6078E8A1CDE900150290C9
:1023A0006079A178A38A00EB8101E28AA07904F028
:1023B0009FFC0095E078092361791C30326804F0B5
:1023C00039FA00956079A17809230144E0787268B0
:1023D0001C3004F02FFA0095A078617900EB4000E2
:1023E0000144E07809231C30B26804F023FA009518
:1023F0006079A178092300EB8101E078F2681C3054
:1024000004F018FA306942F2107990FBF9F2009565
:10241000A079092361791C3004F00CFA70690095E9
:1024200090FBF9F26079A17809230144A0791C306E
:1024300004F000FAB069009590FBF9F2A078617998
:1024400000EB40000144A07909231C3004F0F2F9AC
:10245000F069009590FBF9F26079A178092300EB0F
:102460008101A0791C3004F0E5F96078B8A1CDE9CC
:10247000001502906079A178A38A00EB4101E07811
:10248000E28A083880B204F033FC00956079A178C4
:10249000092300EB4101E078E26B1C3004F0CAF93B
:1024A0006078B0A1CDE9001502906079A178A38A87
:1024B00000EB4101A079E28A801C04F019FC4FF086
:1024C000200BCDE900B54FF0000ACDF808A06079E7
:1024D000A1783B8800EB4101A079B8F800201C30BE
:1024E00004F0FCF8306B0095B0FBF9F26079A1784C
:1024F000082300EB4101A079243004F09BF96078B7
:102500009DA1CDE900150290A078617900EB8000D3
:102510000144E078A38A083880B2E28A04F0E8FB3C
:102520000095A078617900EB80000144E0780923F0
:102530001C30226C04F07EF9607894A1CDE900157E
:102540000290A078617900EB80000144A079A38A11
:10255000E28A801C04F0CCFBCDE900B5CDF808A0E0
:10256000A078617900EB80000144A0793B88B8F83D
:1025700000201C3004F0B2F8706B0095B0FBF9F24B
:10258000A078617900EB80000144A0790823243011
:1025900004F050F9607882A1CDE90015029021790C
:1025A000E078A38AE28AB631183004F0A1FB4FF636
:1025B000FF70A8F80000E7203880202000902179E3
:1025C0000223B4F91820A231DC2004F0EFF960787E
:1025D00076A1CDE9001502902179A38AE28AB6316D
:1025E0004FF48C7004F084FBBDE8FE8F607870A11E
:1025F000CDE9001502902179A38AE28A8031E07842
:1026000004F076FB0095217909238031E07800E021
:1026100031E02130E26C04F00DF9607869A1CDE978
:10262000001502902079A178A38A00EB8101A0799E
:10263000E28A103004F05CFBCDE900B50021029184
:102640002079A1783B8800EB8101A079B8F80020BF
:10265000213004F043F860480823816B42F2107087
:10266000B1FBF0F200952079A17800EB8101A0790F
:10267000293004F0DFF8307802281FD1607857A1A4
:10268000CDE9001502902079A178A38A00EB8101A1
:10269000E078E28A323004F02BFBA07B78B16078DE
:1026A00051A1CDE9001502902079A178A38A00EB11
:1026B0008101E078E28A7A3004F01AFBA9E099E01F
:1026C00074313A202020202020202020206D73000B
:1026D00074323A202020202020202020206D7300FA
:1026E00074333A202020202020202020206D7300E9
:1026F00074343A202020202020202020206D7300D8
:1027000076313A202020202020202020206D2F7399
:102710000000000076323A202020202020202020B7
:10272000206D2F730000000076333A2020202020F7
:1027300020202020206D2F730000000076343A20E6
:102740002020202020202020206D2F73000000005A
:102750007431323A202020202020202020206D7348
:102760000000000061313A2020202020202020207D
:10277000206D2F73320000007433343A2020202063
:102780002020202020206D730000000061323A20BC
:102790002020202020202020206D2F7332000000D8
:1027A000B5B2B9E2C6ACBFEDB6C83A006D206D0057
:1027B0007431333A202020202020202020206D73E7
:1027C00000000000613A202020202020202020202E
:1027D0006D2F73320000000048040020CBD9B6C82A
:1027E000B7BDCFF2A3BA000034333231CEAAD5FD43
:1027F000000000006078FEA1CDE90015029020796C
:10280000A178A38A00EB8101E078E28A7A3004F0B3
:102810006FFA6078F9A1CDE900150290A0782179CE
:1028200000EB400001EB4000083881B2E078A38A59
:10283000E28A323004F05CFA4FF6FF70A8F800002C
:10284000E7203880CDF800B0A078217900EB400077
:1028500001EB40001C3881B2E0780223B4F91A2061
:10286000963004F0A3F86078AFF2C001CDE900150E
:102870000290A078217900EB400001EB400008387D
:1028800081B2A38AE28AFA2004F032FAACE62DE99A
:10289000FE4FDD4CE72700970021228814230846CD
:1028A00003F0F9FD1026D9A1CDE9001601204FF65D
:1028B000FF7902901F234A460221002004F08EFA7D
:1028C000CDF80090638822881421002003F0E3FDF6
:1028D000DFF850A3D44D9AF80000022802D0032854
:1028E0000CD016E06878D1A1CDE900160290AB8A31
:1028F000EA8A1621142004F0FBF90AE06878D0A1D6
:10290000CDE900160290AB8AEA8A1621142004F061
:10291000EFF96878D2A1CDE900160290AB8AEA8A75
:1029200016214FF4877004F0E3F9FFF759F90024FA
:10293000DFF848834FF0420BA8F80070022C12D247
:1029400004EBC4002A7800EB041002EB4003C2EB56
:102950004000423081B2C2F5D270523302F5E672C5
:1029600003F008FE11E004EBC4002A7800EB041029
:1029700002EB4003C2EB4000423081B2C2F5D2709C
:10298000523302F5E27203F0F5FD6878BCA1CDE99F
:102990000016029004EBC40000EB04100BEB4001A6
:1029A0002878AB8AC0F5CA70E72204F0A1F9641C4C
:1029B000E4B2052CC0D39AF800000021DFF8C4A2CD
:1029C0004FF4987C4FF4A07440F22715032828D0C8
:1029D000022844D1CDE90161934800238930009059
:1029E0004A466146184604F083F9A8F80070AAF830
:1029F00000902346B42229466C2003F0BBFD4FF41F
:102A00008276234632462946B42003F0B3FD03B054
:102A1000234629463046BDE8F04F4FF4A87203F034
:102A2000A9BDCDE9016180480023603000904A468D
:102A30006146184604F05CF9A8F80070AAF8009006
:102A40002346F4222946A42003F094FD03B0234634
:102A500022462946BDE8F04FF52003F08BBDC3E5C3
:102A60002DE9F05FFEF77FFE6F4CDFF81C92002629
:102A70002078B9F81010C0F5D273844F4FF00108D8
:102A80008B4215D200F5E272914211D2B9F81220B0
:102A9000C0F1740595420BDA00F18405AA4207D211
:102AA000E2792AB1E6714FF40060FDF7FFFF14E010
:102AB0008B4210D200F5E27291420CD2B9F812109A
:102AC000C0F174028A4206DA8430814203D2D7F818
:102AD0002801012801D184F807802078B9F8101066
:102AE000C0F5D2738B4215D200F5E272914211D239
:102AF000B9F81220C0F1420595420BDA00F15205F7
:102B0000AA4207D2227A2AB126724FF48060FDF7DA
:102B1000CDFF14E08B4210D200F5E27291420CD24C
:102B2000B9F81210C0F142028A4206DA52308142EC
:102B300003D2D7F82801012801D184F80880394848
:102B40004FF4A0750078032816D002284DD1B9F8AB
:102B500010004FF4947AA0F16D01472944D2B9F8DE
:102B60001210514540D3A9423ED2E17AE1B3E67258
:102B70000120FDF79BFFAFE0B9F810004FF48F7A0A
:102B8000A0F1A5014F290CD2B9F81210514508D374
:102B9000A94206D2617A21B166720220FDF786FF52
:102BA0000FE0A4280BD9F42809D2B9F81200504537
:102BB00005D3A84203D2D7F82801012801D184F80F
:102BC0000980B9F81000A0F1F6014A2962D2B9F8DB
:102BD000121051455ED3A9425CD2A17A31B1A672DE
:102BE000BDE8F05F042053E066E063E052E00000DF
:102BF00031323334CEAAD5FD00000000B4ABB8D0DA
:102C0000C6F7BEE0C0EB3A0038040020B9E2B5E7F1
:102C1000BCC6CAB1CAFDD7D6CAB5D1E9CFB5CDB306
:102C20000000000007000020AC000020CAB5D1E978
:102C300032A3BAB2E2C1BFCBB2CAB1CBD9B6C800D7
:102C4000CAB5D1E933A3BAB2E2C1BFD4C8B1E4CBAB
:102C5000D9D4CBB6AFB5C4BCD3CBD9B6C80000006D
:102C6000CFB5CDB3BCC6CAB1CAB1BCE43A202020AE
:102C700020202020202020206D7300001A02002038
:102C8000F7CE00001C020020240200200080234216
:102C9000FDF70CBFF5280BD9A84209D2B9F81200EC
:102CA000504505D3A84203D2D7F82801012801D105
:102CB00084F80A80BDE8F09F6C280BD9B42809D2AB
:102CC000B9F81200504505D3A84203D2D7F828011D
:102CD000012801D184F80B80B9F810004FF4827BF1
:102CE000A0F1B5014F290CD2B9F81210514508D303
:102CF000A94206D2617A21B166720220FDF7D6FEA2
:102D00000FE0B4280BD9584509D2B9F81200504544
:102D100005D3A84203D2D7F82801012801D184F8AD
:102D20000980B9F81000A0F205114B290DD2B9F8AD
:102D30001210514509D3A94207D2A17A29B1A6722E
:102D4000BDE8F05F0420FDF7B1BE58450CD9B0F5E1
:102D5000A87F09D2B9F81200504505D3A84203D282
:102D6000D7F828010128A5D184F80A80A2E72DE927
:102D7000F04F8DB00446FE480078022801D00328A9
:102D80007ED1FC4E00251027737B31790C91B178F0
:102D90000B9196F803C0DFF8E0934FF6FF784FF001
:102DA000E70A4FF0200B012C7CD031460A7902F162
:102DB000A20CCDF828C091F802C00CEB4C0C02EB31
:102DC0004C0291F803C01C3A0CF1960EB1F918C0F0
:102DD000B1F91A10022C7DD0042C7CD0802C7BD031
:102DE000B4F5807F79D0402C78D0E449B4F5801FC9
:102DF0000A6874D0DFF884E33146D1F81CC0DEF8ED
:102E000000E0AEEB0C0CCDF824C091F805C0CDF875
:102E100020C0C9781C310791B4F1807F7ED0314643
:102E20004FF47A7E91F80CC0CDF818C0B1F91AC0F1
:102E30000CFB0EFCCDF814C0C97821310491B4F517
:102E4000001F6CD0B4F1007F6AD0B4F5000F68D0D9
:102E5000DFF828C33146496ADCF800C0ACEB010159
:102E600003913146B1F918E04FF47A710EFB01FE7F
:102E70003146897801EB410C31464979614401E0E2
:102E8000FEE30FE0B4F1006F7ED0B4F5800F7CD08C
:102E9000B4F1806F7AD0B4F5806F78D0B4F5006F5C
:102EA00076D083E2032802D0022819D0F9E7FEF792
:102EB00097FE7078B2A1CDE90017029048F2100396
:102EC00042464FF485714FF4D27003F011FFA848C9
:102ED0000570E6E746E079E0A7E0B8E0D9E0EBE08E
:102EE000F07C401CF074012BDBD07078AFF21471D1
:102EF000CDE900170290DDE90B1000EB8101B38AE8
:102F0000F28A0CF1320003F0F3FEF07CC00717D018
:102F10000120B0737078AFF2307103E0E0E05DE162
:102F200093E1ABE2CDE9001702903079B178B38A32
:102F300000EB8101F078F28A7A3003F0D9FEB0E735
:102F4000B5737078AFF25831CDE90017029030793F
:102F5000B178B38A00EB8101F078F28A7A3003F01D
:102F6000C7FE9EE7012B1AD0491E08B27083A9F84C
:102F700000808549A1F800A0002800DA758391B28D
:102F80000223CDF800B004E08CE225E3FDE3FDE38D
:102F9000FDE3B6F91A20704603F008FD81E7ACF1B5
:102FA000010C0FFA8CF03083A9F800807649A1F863
:102FB00000A0002800DA3583CDF800B00223B6F96E
:102FC0001820DC200A9903F0F1FC6AE7012B14D0E9
:102FD000491C08B27083A9F800806B49A1F800A0D1
:102FE000632800DD758391B2CDF800B00223B6F9F5
:102FF0001A20704603F0DAFC53E70CF1010C0FFACB
:103000008CF03083A9F800805F49A1F800A0632804
:1030100001DDC8203083CDF800B00223B6F91820B6
:10302000DC200A9903F0C2FC3BE7FEF7D9FD70787B
:1030300056A1CDE90017029048F210034246A6219E
:103040004FF4D27003F054FE03F04BF8AEE140466B
:1030500002F084FCF5633564F56435657565B56526
:10306000F565F57335747574B57403F041F8002196
:103070000846FFF70CFC707846A1CDE900170290D6
:1030800048F210034246D8214FF4D27003F030FECC
:103090008CE1FEF7A5FD707839A1CDE9001702900B
:1030A00048F2100342464FF485714FF4D27003F09A
:1030B0001FFE2F48057079E1012B04D0032805D0AD
:1030C000022808D072E1F261F2626FE101203073F0
:1030D000F26172646AE1F07B401CF073326565E175
:1030E000012B89D1A9F800802748A0F800A02B491E
:1030F000099808606421B0FBF1F20097DDE907014F
:10310000072303F097FB71782E20CDE90171009021
:103110001D48B9F8002071790388F078543003F025
:10312000DDFA1E48022301686420B1FBF0F200FBC7
:1031300012120097F07871795C3003F0CBFBB6F98E
:1031400018001749484315490968B0FBF1F01349C5
:1031500008614FF47A7190FBF1F20097B079062381
:1031600071791C3003F066FB71782E201AE00000A4
:1031700007000020AC0000201A02002050020020AE
:10318000B7B5BBD8000000001C020020BFAACABC13
:1031900000000000C7E5C1E3000000004804002073
:1031A000A0860100CDE901710090F948B9F800202E
:1031B00071790388B0794C3003F090FAF548032315
:1031C00001694FF47A7091FBF0F200FB1212009744
:1031D000B0797179543003F07DFBE7E0012B04D026
:1031E000032808D002282BD0E0E032623263F06A74
:1031F000101AF063DAE006980028EED03573A9F8CB
:103200000080E348A0F800A0E248099A026205980D
:10321000B0FBF2F1DF488162092300970C99049812
:1032200003F008FBDB480923816A42F2107091FB2E
:10323000F0F20097B0793179213003F0FBFAB5E074
:10324000307C401C30747265B0E0012BC5D1A9F808
:103250000080CF48A0F800A0306ACE49101A48601C
:103260006421B0FBF1F20B99089800970144072301
:10327000079803F0DFFA71782E20CDE901710090F4
:103280007079B178B9F800200144C1480388F0781A
:10329000543003F023FABF48022341686420B1FB95
:1032A000F0F200FB121200977079B1780144F078C7
:1032B0005C3003F00FFBB6F91800B7494843B54935
:1032C0004968B0FBF1F0B34948614FF47A7190FB63
:1032D000F1F200977079B17806230144B0791C307F
:1032E00003F0A8FA71782E20CDE901710090707971
:1032F000B178B9F800200144A5480388B0794C3072
:1033000003F0ECF9A348032341694FF47A7091FB71
:10331000F0F200FB121200977079B1780144B07995
:10332000543003F0D7FA9D480078032887D10097DE
:103330007079B178092300EB4101F078F26B1C3011
:1033400003F078FA934BD3E90421881A002801DCB2
:10335000914248D14FF47A725043F26B8D49B0FBE1
:10336000F2F008638C48496B401E81421FD2CDE9C0
:1033700000B702957079B178B9F8002000EB4101EF
:1033800083480388B0791C3003F0A8F981480823EA
:10339000016B42F21070B1FBF0F200977079B178D6
:1033A00000EB4101B079243003F044FA86E3CDE923
:1033B00000B702957079B178B9F8002000EB4101AF
:1033C00073480388B0791C3003F088F9009771794D
:1033D000B078714A01EB4001B0790823521E2430C5
:1033E00003F028FA6AE3511A4FF47A725143F26BF0
:1033F0006848B1FBF2F101636748401E814220D268
:10340000CDE901752D2000907079B178B9F80020D0
:1034100000EB41015E480388B0791C3003F05EF98F
:103420005C480823016B42F21070B1FBF0F2009788
:103430007079B17800EB4101B079243003F0FAF9EA
:103440003CE3CDE901752D2000907079B178B9F891
:10345000002000EB41014E480388B0791C3003F096
:103460003DF900977179B0784B4A01EB4001B07992
:103470000823521E243003F0DDF91FE3012B04D092
:10348000032805D0022808D018E37262726315E39E
:10349000012030737262B26410E3707C401C70745F
:1034A000B2650BE3012B9DD1A9F80080384AA2F840
:1034B00000A0384B039A9A60032872D06420B2FBB4
:1034C000F0F20B990898009700EB41010723079849
:1034D00003F0B0F971782E20CDE901710090707978
:1034E000B178B9F8002000EB410129480388F07851
:1034F000543003F0F3F82748022381686420B1FBBD
:10350000F0F200FB121200977079B17800EB4101E4
:10351000F0785C3003F0DEF9B6F918001E49484334
:103520001C498968B0FBF1F01A4988614FF47A713F
:1035300090FBF1F200977079B178062300EB41011E
:10354000B0791C3003F076F971782E20CDE9017145
:1035500000907079B178B9F8002000EB41010C4877
:103560000388B0794C3003F0B9F80A480323816925
:103570004FF47A7091FBF0F200FB12120097707911
:10358000B17800EB4101B079543003F0A3F995E232
:103590001C02002048040020A08601000700002033
:1035A000FFE7BEFBF2F3FB4883610923009707980E
:1035B00003F040F9F7480923816942F2107091FB4A
:1035C000F0F20097B078717900EB40000144B079D7
:1035D0001C3003F02FF971E2012B04D0032808D02E
:1035E000022875D06AE2B262B263706B101A30645E
:1035F00064E206980028CAD03573A9F80080E6482E
:10360000A0F800A0E348039A42620598B0FBF2F1EB
:10361000E048C1620097DDE90B1000EB410109238E
:10362000049803F007F9DB480923C16A42F21070DD
:1036300091FBF0F200973079B17800EB4101B0795D
:10364000213003F0F7F8D548007803289FD1D6E958
:103650001110421AF26400973179F0780923803111
:10366000213003F0E7F8CB4BD3E90A10421A002AC5
:1036700001DC884248D14FF47A70C649424300E0E9
:1036800098E3F06CB2FBF0F08863C549884220D221
:10369000CDE900B702953079B178B9F8002000EB98
:1036A0008101BD480388B079213003F017F8B9488B
:1036B0000823816B42F21070B1FBF0F20097307971
:1036C000B17800EB8101B079293003F0B3F8F5E16E
:1036D00067E0CDE900B702953079B178B9F80020FC
:1036E00000EB8101AC480388B079213002F0F6FF8D
:1036F00000973179B078082301EB8001B079A84AAE
:10370000293003F097F8D9E1081A4FF47A71484349
:10371000F16CA04AB0FBF1F09063A149884220D23D
:10372000CDE901752D2000903079B178B9F80020ED
:1037300000EB810198480388B079213002F0CEFF78
:1037400094480823816B42F21070B1FBF0F20097AD
:103750003079B17800EB8101B079293003F06AF853
:10376000ACE1CDE901752D2000903079B178B9F840
:10377000002000EB810188480388B079213002F0F5
:10378000ADFF00973079B17802E00FE057E176E1C4
:1037900000EB8101B0790823814A293003F04AF80F
:1037A0008CE1B07C401CB074F26587E1012B8ED1B6
:1037B000A9F80080784BA3F800A0B36AD21A754B21
:1037C000DA6003286BD06420B2FBF0F20723009785
:1037D000079803F02FF871782E20CDE90171009041
:1037E000B078717900EB400001446B48B9F80020D3
:1037F0000388F078543002F071FF66480223C168F4
:103800006420B1FBF0F200FB12120097B0787179DE
:1038100000EB40000144F0785C3003F05BF8604955
:10382000B6F91800491C48435A49C968B0FBF1F081
:103830005849C8614FF47A7190FBF1F20097B07863
:10384000717900EB40000144B07906231C3002F08E
:10385000F1FF71782E20CDE901710090B078717977
:1038600000EB400001444C48B9F800200388B079CF
:103870004C3002F033FF47480323C1694FF47A709C
:1038800091FBF0F200FB12120097B078717900EB17
:1038900040000144B079543003F01CF80EE1BEFB47
:1038A000F2F13C48C1610B990898009700EB810147
:1038B0000923079802F0BEFF36480923C16942F286
:1038C000107091FBF0F200977079B17800EB8101F4
:1038D000B0791C3002F0AEFF0097B078717900EB40
:1038E00080000144F07809231C30326C02F0A2FF02
:1038F0002848C16980690A1A002A01DC814251D135
:103900004FF47A714A43316C2248B2FBF1F14163C2
:103910002348814221D2CDE900B70295B078717970
:1039200000EB800001441C48B9F800200388B079FE
:103930001C3002F0D3FE17480823416B42F210708E
:10394000B1FBF0F20097B078717900EB8000014490
:10395000B079243002F06EFFB0E0CDE900B70295F7
:10396000B078717900EB800001440B48B9F8002071
:103970000388B0791C3002F0B1FE0097B0787179FD
:1039800000EB80000144B0790823054A243002F09E
:1039900051FF93E0480400201C0200200700002093
:1039A0009F860100401A4FF47A714843316CFC4AFB
:1039B000B0FBF1F05063FB49884222D2CDE901759A
:1039C0002D200090B078717900EB80000144F6481A
:1039D000B9F800200388B0791C3002F07FFEF0486F
:1039E0000823416B42F21070B1FBF0F20097B078FF
:1039F000717900EB80000144B079243002F01AFFA5
:103A00005CE0CDE901752D200090B078717900EB74
:103A100080000144E448B9F800200388B0791C30E4
:103A200002F05CFE0097B078717900EB80000144F1
:103A3000B0790823DB4A243002F0FCFE3EE001208E
:103A4000707302F055FBF5633564F5643565756593
:103A5000B565F565F57335747574B574D348CDF8EF
:103A600000804FF4B97240882C211E3883B2F07860
:103A70001E3880B202F00FFDFEF7B2F81EE0022001
:103A8000707302F035FBF5633564F5643565756573
:103A9000B565F565F57335747574B574C348CDF8BF
:103AA00000804FF4B97240882C211E3883B2F07820
:103AB0001E3880B202F0EFFCFEF792F8F07B317C0A
:103AC000884277D1D6E91410884275D9A9F80080C8
:103AD000B54AA2F800A0A0EB0100B1490862B6F90E
:103AE0001A10B34A01FB02F1B1FBF0F2AC498A6251
:103AF0004FF06401B0FBF1F20097F0784FF007034C
:103B0000317900F1210002F095FE71782E20CDE987
:103B100001710090A448B9F8002031790388F07849
:103B2000593002F0DBFD9E480223016A6420B1FB9C
:103B3000F0F200FB12120097F0783179613002F058
:103B4000C9FEB07BB8B3CDE901752D200090964831
:103B5000B9F8002031790388B079213002F0BEFD38
:103B60008F480523816A4FF47A7091FBF0F2009739
:103B7000B0793179293002F05DFE71782E20CDE9DF
:103B8000017100908848B9F8002031790388B07934
:103B9000513002F0A3FD82480323816A4FF47A700A
:103BA00091FBF0F200FB12120097B0793179593095
:103BB00002F090FE84E000E00CE0CDE900B77A4826
:103BC0000295B9F800200388B0793179213002F0EC
:103BD00085FDC5E774D2A9F80080734AA2F800A059
:103BE000A1EB00006E490862B6F91A10704A01FB99
:103BF00002F1B1FBF0F26A498A624FF06401B0FB56
:103C0000F1F20097F0784FF00703317900F12100CD
:103C100002F010FE71782E20CDE90171009062480B
:103C2000B9F8002031790388F078593002F056FD58
:103C30005B480223016A6420B1FBF0F200FB121220
:103C40000097F0783179613002F044FEB07B0128B2
:103C50007ED0CDE901752D2000905348B9F80020A1
:103C600031790388B079213002F038FD4C480523C2
:103C7000816A4FF47A7091FBF0F20097B079317954
:103C8000293002F0D7FD71782E20CDE90171009026
:103C90004548B9F8002031790388B079513002F0F5
:103CA0001DFD3F480323816A4FF47A7091FBF0F2C7
:103CB00000FB12120097B0793179593002F00AFEF8
:103CC000707CB17C884275D1D6E91610884272D9D1
:103CD000A9F80080DFF8D080A8F800A0DFF8C0A025
:103CE000A0EB0100CAF82400B6F91A10304A01FB13
:103CF00002F1B1FBF0F1CAF82C104FF06401B0FBF7
:103D0000F1F200973079B1784FF0070300EB4101F1
:103D1000F07800F1210002F08DFD71782E20CDE9C0
:103D2000017100903079B178B8F8003000EB4101B2
:103D3000F078B9F80020593002F0D0FCDAF82410FD
:103D40006420B1FBF0F200FB12120097307900E022
:103D500059E0B178022300EB4101F078613002F0C4
:103D6000B9FDB07B40B3CDE901752D2000903079CD
:103D7000B178B8F8003000EB4101B079B9F8002013
:103D8000213002F0ABFCDAF82C004FF47A7590FB8E
:103D9000F5F200973079B178052300EB41010CE092
:103DA000480400209F8601001C02002038040020E7
:103DB000A0860100C3E043E032E0B079293002F090
:103DC00039FD71782E20CDE9017100903079B178FC
:103DD000B8F8003000EB4101B079B9F8002051305B
:103DE00002F07CFCDAF82C00009790FBF5F105FB63
:103DF00011023079B178032300EB4101B0795930D9
:103E000002F068FDAAE0CDE900B773480295B9F861
:103E100000200388B0793179213002F05FFC25E77A
:103E2000CDE900B702953079B178B8F8003000EBF1
:103E30004101B079B9F80020213002F04FFCA2E72F
:103E40007DD2A9F80080DFF89081A8F800A0DFF803
:103E50008CA1A1EB0000CAF82400B6F91A10604A40
:103E600001FB02F1B1FBF0F1CAF82C104FF0640134
:103E7000B0FBF1F200973079B1784FF0070300EB17
:103E80004101F07800F1210002F0D4FC71782E207D
:103E9000CDE9017100903079B178B8F8003000EBCD
:103EA0004101F078B9F80020593002F017FCDAF837
:103EB00024106420B1FBF0F200FB1212009730795D
:103EC000B178022300EB4101F078613002F002FD8D
:103ED000B07B012846D0CDE901752D2000903079C6
:103EE000B178B8F8003000EB4101B079B9F80020A2
:103EF000213002F0F3FBDAF82C004FF47A7590FBD6
:103F0000F5F200973079B178052300EB4101B079E3
:103F1000293002F08FFC71782E20CDE901710090DC
:103F20003079B178B8F8003000EB4101B079B9F8D8
:103F30000020513002F0D2FBDAF82C0000E00DE056
:103F400090FBF5F105FB110200973079B17803235E
:103F500000EB4101B079593002F0BCFC0DB02046B5
:103F6000BDE8F08FCDE900B702953079B178B8F8A7
:103F7000003000EB4101B079B9F80020213002F0A7
:103F8000ADFBB8E717491848FCF77BBD10B517A083
:103F900004F08EFE0021BDE810400846FEF777BC15
:103FA00010B515A004F084FE4FF6FF7001F0D6FCAA
:103FB00002F09EF81448012141730021C16301649D
:103FC000C1648173016541658165C165C173017417
:103FD0004174817410BD00001C02002048040020C0
:103FE000A0860100C70DF00F6F2D00086C616232D2
:103FF0005F696E69740D0A006C6162325F636C6F99
:1040000073650D0A00000000AC00002070B5FDF7DC
:104010008BFAFF49E7200880FE494FF6FF700880C1
:104020004FF4A07540F227162B46B42231466C207F
:1040300002F0A0FA4FF482742B4622463146B42097
:1040400002F098FA2B4631462046BDE870404FF406
:10405000A87202F08FBA2DE9FE4FEF4C4FF0E7083F
:10406000CDF80080002122881423084602F013FABC
:104070001025EAA1CDE9001501204FF6FF79029045
:104080001F234A460221002002F0A8FECDF800902E
:10409000638822881421002002F0FDF9E54CE6A196
:1040A0006078CDE900150290238A628A28211420C5
:1040B00002F01EFE6078E6A1CDE900150290238A89
:1040C000628A28214FF4877002F012FEDFF840A3C5
:1040D000AAF80090DFF83CB3ABF800806078E3A169
:1040E000CDE900150290238A628AE178A07802F077
:1040F000FFFD6078E8A1CDE900150290E078217914
:10410000238A0144628AA07802F0F2FDE44E42F272
:104110001077062330680095B0FBF7F2E07821793C
:104120000144A078403002F085FB6078DDA1CDE944
:1041300000150290E0782179238A0144A078628AF0
:10414000823002F0D5FD70680095B0FBF7F2E078A0
:10415000217906230144A078C23002F06BFB60781D
:10416000D2A1CDE900150290E0782179238A01449B
:10417000A078628A00F5827002F0BAFDB0680095FE
:10418000B0FBF7F2E078217906230144A07800F52E
:10419000A27002F04FFB6078C6A1CDE90015029035
:1041A000E0782179238A00EB4101628AA07802F04D
:1041B0009FFD6078B8A1CDE9001502902079E178E3
:1041C00000EB40000144238A628AA07802F090FD4F
:1041D000F0680095B0FBF7F22079E17800EB400041
:1041E0000144A0780623403002F024FB6078ADA1A2
:1041F000CDE9001502902079E17800EB4000014400
:10420000A078238A628A823002F072FD30690095BC
:10421000B0FBF7F22079E17800EB40000144A07890
:104220000623C23002F006FB6078A0A1CDE900159C
:1042300002902079E17800EB40000144A078238AC5
:10424000628A00F5827002F053FD70690095B0FB40
:10425000F7F22079E17800EB40000144A0780623D2
:1042600000F5A27002F0E6FA60789DA1CDE9001594
:10427000029040F21116238A628A3146E82002F049
:1042800037FD0095022394F9092031464FF4A470BC
:1042900002F020FB607896A1CDE900150290238AF8
:1042A000628A31464FF4AC7002F022FDAAF8008019
:1042B0002079A27800EB4001E0780B18153881B224
:1042C000501F253380B202F2791202F053F9607860
:1042D00089A1CDE900150290238A628A3146A0782F
:1042E00002F006FD60788AA1CDE900150290238ACC
:1042F000628A56214FF4C87002F0FAFC217A4FF41A
:10430000C97051B1617885A2CDE900250291238A57
:10431000628A742102F0ECFC09E0617882A2CDE9A6
:1043200000250291238A628A742102F0E1FCFFF7E2
:104330006DFE0026AAF8008006EBC600227800EB8E
:104340000617C2EB4700A63002EB470381B2C2F565
:10435000D270B63302F5E27202F00CF9607875A102
:10436000CDE900150290A62000EB47012078238AB2
:10437000C0F5CA70E72202F0BBFC761CF6B2032E31
:10438000D8D32C4900202431CDE9001503464A46F4
:1043900002904FF4987102F0ABFCAAF80080ABF8E1
:1043A00000904FF4A07540F227162B46B4223146F8
:1043B0006C2002F0DFF84FF482742B46224631461F
:1043C000B42002F0D7F803B02B4631462046BDE8B2
:1043D000F04F4FF4A87202F0CDB82DE9F05FFDF771
:1043E000C2F9554FDFF85491124C388A4FF000084B
:1043F000A0F16D014FF0010A4FF494754FF4A076CF
:10440000472903D2798AA94200D399E0A2E00000AB
:104410001A0200201C02002038040020B9E2B5E78F
:10442000BCC6CAB1CAFDD7D6CAB5D1E9CFB5CDB3DE
:104430000000000060010020CAB5D1E934A3BAB27F
:10444000E2C1BFC5F6D7B2D6D0B5C4B6AFC1BF00C2
:10445000CFB5CDB3BCC6CAB1CAB1BCE43A202020A6
:10446000202020202020206D20730000BEADB9FD4B
:10447000B9E2B5E7B4ABB8D0C6F7B5C43132B5C40C
:10448000CBB2CAB1CBD9B6C85631323A28B5A5CECF
:10449000BB3A206D2F732900B5DA32B4CE3A000052
:1044A00000040020B5DA31B4CE3A0000B5DA33B4F6
:1044B000CE3A0000BEADB9FDB9E2B5E7B4ABB8D0B5
:1044C000C6F7B5C43334B5C4CBB2CAB1CBD9B6C8BC
:1044D0005633343A28B5A5CEBB3A206D2F73290048
:1044E000B4ABB8D0C6F7BEE0C0EBA3BA0000000082
:1044F000206D206D00000000B0B4BCFC4B45595F3E
:1045000030C7D0BBBBCBD9B6C8B7BDCFF200000017
:10451000CBD9B6C8B7BDCFF2A3BA0000343332311D
:10452000CEAAD5FD0000000031323334CEAAD5FD2D
:1045300000000000F7CE000024020020008023428B
:10454000B14207D2617929B184F805800120FCF7D6
:10455000ADFA0EE06C280AD9B42808D2788AA842AD
:1045600005D3B04203D2D9F82801012801D184F83B
:1045700005A0388A4FF4827BA0F1B5014F290CD2F7
:10458000798AA94209D3B14207D2A17929B184F825
:1045900006800220FCF78AFA0EE0B4280AD95845B2
:1045A00008D2788AA84205D3B04203D2D9F82801AC
:1045B000012801D184F806A0388AA0F205114B2900
:1045C0000DD2798AA9420AD3B14208D2E17931B138
:1045D00084F80780BDE8F05F0420FCF767BA58450F
:1045E0000BD9B0F5A87F08D2788AA84205D3B0428B
:1045F00003D2D9F82801012801D184F807A0BDE829
:10460000F09FFF490020086048608860C86008612A
:104610004861FC498872C8720873487307224A725D
:104620000872F949086070472DE9FE4F0646DFF829
:10463000DC8398F80000042879D101220025F14F8D
:1046400010244FF6FF7B012E24D0384640F2111182
:1046500090F909004FF4A47C022E3FD0042E51D0D3
:1046600048F210094FF4D27A802E61D0B6F5807FDF
:104670006ED0402E7ED0E448B6F5801F00687AD018
:10468000B6F5001F78D0B6F5000F76D0B6F5800FDE
:1046900074D0AEE0B87B401CB873DA495FEAC078EA
:1046A0004FF4C97C48780B8A498A0BD03A72AFF232
:1046B0009412CDE9002402900A467421604602F06B
:1046C00017FB96E03D72AFF2A012CDE900240290F4
:1046D0000A467421604602F00BFB8AE0401E40B29D
:1046E0007872002800DA7D72C948A0F800B0C94A83
:1046F000E72010800094022397F90920604602F019
:10470000E9F876E0401C40B27872632801DD63204E
:104710007872BF48A0F800B0BE4AE720108000942D
:10472000022397F90920604602F0D4F861E00AE21A
:10473000FFF76CFC7878B8A1CDE9001402904B46E5
:104740005A46A621504602F0D3FA01F0CAFC50E0C6
:1047500001F0CEFC584601F001F9FFF752FF0021AD
:104760000846FFF778FC7878ADA1CDE900144B46F8
:104770005A4604E009E019E021E029E031E0029026
:10478000D821504602F0B4FA33E0FFF73FFC7878C6
:10479000A5A1CDE9001402904B465A464FF485710D
:1047A000504602F0A5FA88F8005022E07861B87A05
:1047B000401CC0B2B87203281BD9BA7219E0B861A4
:1047C000F87A401CC0B2F872032812D9FA7210E0CD
:1047D000F861387B401CC0B23873032809D93A739A
:1047E00007E03862787B401CC0B27873032800D998
:1047F0007A738449824F4FF02008887AC97A4FF043
:104800002D0942F2107A884227D17E4AD2E905C1A9
:10481000614579D97E4B5A46A3F800B0DFF8F4E140
:10482000E723AEF80030A1EB0C01DFF804C2DFF89B
:10483000D4E1CCF820109EF909C04FF47A7E0CFB2D
:104840000EFCBCFBF1F1DFF8E8C1CCF82810012820
:1048500004D002282DD0032857D047E13960694899
:10486000007A60B16748CDE900940295C17890F86C
:1048700004C080786144383001F030FF0BE06148BB
:10488000CDE900840295C17890F804C08078614435
:10489000383001F023FF38680094B0FBFAF2594831
:1048A000C1780379807819440623403001F0C2FFB3
:1048B0001CE179605348007A60B15248CDE9009418
:1048C0000295C17890F804C080786144BA3001F054
:1048D00005FF0BE04B48CDE900840295C17890F8C4
:1048E00004C080786144BA3001F0F8FE7868009422
:1048F000B0FBFAF24348C178037980781944062363
:10490000C23001F097FFF1E02DE0B9603D48007A38
:1049100068B13C48CDE900940295C17890F804C094
:104920008078614400F59E7001F0D8FE0CE03548B7
:10493000CDE900840295C17890F804C08078614484
:1049400000F59E7001F0CAFEB8680094B0FBFAF260
:104950002C48C178037980781944062300F5A270A9
:1049600001F068FFC2E02A4B5A46A3F800B0DFF816
:10497000A4E0E723AEF80030ACEB0101DFF8B0C0F3
:10498000DFF880E0CCF820109EF909C04FF47A7E61
:104990000CFB0EFCBCFBF1F1DFF894C0CCF8281046
:1049A000012804D0022848D0032872D09EE0396044
:1049B0001448007A60B11348CDE900840295C178AB
:1049C00090F804C080786144383001F087FE0BE035
:1049D0000C48CDE900940295C17890F804C0807825
:1049E0006144383001F07AFE38680094B0FBFAF286
:1049F0000448C1780379807819440623403019E0CF
:104A00000004002060010020500200200700002068
:104A10001A0200201C020020BFAACABC000000002D
:104A2000C7E5C1E300000000B7B5BBD80000000037
:104A30004804002001F0FEFE58E07960EF48007A5B
:104A400060B1EE48CDE900840295C17890F804C0C9
:104A500080786144BA3001F041FE0BE0E748CDE9CF
:104A600000940295C17890F804C080786144BA300F
:104A700001F034FE78680094B0FBFAF2DF48C178A8
:104A80000379807819440623C23001F0D3FE2DE06B
:104A9000FFE7B960D948007A68B1D848CDE9008409
:104AA0000295C17890F804C08078614400F59E704A
:104AB00001F014FE0CE0D148CDE900940295C178D4
:104AC00090F804C08078614400F59E7001F006FE05
:104AD000B8680094B0FBFAF2C848C37801798078CE
:104AE0001944062300F5A27001F0A4FEDFF80CE3E0
:104AF0009EF80C009EF80D10884224D1DEE907C113
:104B000061457DD9BE4B5A46A3F800B0DFF8F4B238
:104B1000E723ABF80030A1EB0C01DFF8ECC2CCF8D6
:104B200024109EF909C04FF47A7B0CFB0BFCBCFBF4
:104B3000F1F1DFF8D4C2CCF82C10012804D00228FF
:104B400031D0032860D042E1BB46F9609EF80800EE
:104B5000774660B1CDE9009402953879F97800EB99
:104B600040000144B878383001F0B8FD0BE0CDE9E1
:104B7000008402953879F97800EB40000144B87858
:104B8000383001F0ABFDDBF80C000094B0FBFAF21A
:104B90003879F97800EB40000144B87806234030BA
:104BA00001F048FE13E1BB4639619EF808007746E4
:104BB00060B1CDE9009402953879F97800EB4000B6
:104BC0000144B878BA3001F089FD0BE0CDE90084EA
:104BD00002953879F97800EB40000144B878BA3092
:104BE00001F07CFDDBF810000094B0FBFAF238799C
:104BF000F97800EB40000144B8780623C23000E0A9
:104C000034E001F017FEE2E0BB4679619EF808004F
:104C1000774668B1CDE9009402953879F97800EBD0
:104C200040000144B87800F59E7001F057FD0CE09B
:104C3000CDE9008402953879F97800EB4000014411
:104C4000B87800F59E7001F049FDDBF8140000947F
:104C5000B0FBFAF23879F97800EB40000144B878FB
:104C6000062300F5A27001F0E5FDB0E0644B5A4662
:104C7000A3F800B0DFF88CB1E723ABF80030ACEB61
:104C80000101DFF884C1CCF824109EF909C04FF46B
:104C90007A7B0CFB0BFCBCFBF1F1DFF86CC1CCF8B0
:104CA0002C10012804D0022831D003285ED08EE0D9
:104CB000BB46F9609EF80800774660B1CDE90084F4
:104CC00002953879F97800EB40000144B878383023
:104CD00001F004FD0BE0CDE9009402953879F978F4
:104CE00000EB40000144B878383001F0F7FCDBF805
:104CF0000C000094B0FBFAF23879F97800EB400030
:104D00000144B8780623403001F094FD5FE0BB46D3
:104D100039619EF80800774660B1CDE900840295BC
:104D20003879F97800EB40000144B878BA3001F0E6
:104D3000D5FC0BE0CDE9009402953879F97800EBC9
:104D400040000144B878BA3001F0C8FCDBF810002C
:104D50000094B0FBFAF23879F97800EB4000014496
:104D6000B8780623C23001F065FD30E0BB467961BA
:104D70009EF80800774668B1CDE90084029538793D
:104D8000F97800EB40000144B87800F59E7001F01E
:104D9000A5FC0CE0CDE9009402953879F97800EB98
:104DA00040000144B87800F59E7001F097FCDBF8F4
:104DB00014000094B0FBFAF23879F97800EB400067
:104DC0000144B878062300F5A27001F033FD3046A7
:104DD000BDE8FE8F0D49AFF2AF70FBF752BE002168
:104DE0000846FFF738B910B54FF6FF7000F0B6FD72
:104DF00001F07EF9BDE8104003E4000060010020EE
:104E00001A0200201C02002048040020C701F00FF5
:104E100010B5FCF789FBCE49E7200880CD494FF655
:104E2000FF700880B422BDE810404FF4A07340F238
:104E300027116C2001F09EBB2DE9FE4FC64C4FF0B0
:104E4000E708CDF80080002122881423084601F0ED
:104E500022FB1027C1A1CDE9001701204FF6FF7AF0
:104E600002901F2352460221002001F0B7FFCDF827
:104E700000A0638822881421002001F00CFBBD4EA5
:104E8000BDA17078CDE900170290B388F28828217F
:104E9000142001F02DFF7078BAA1CDE9001702901F
:104EA000B388F2887621912001F022FF7078B7A1B3
:104EB000CDE900170290B388F2889D21912001F07E
:104EC00017FFFFF7A5FF0024DFF884924FF0A60B31
:104ED000A9F8008004EBC400327800EB0415C2EBA3
:104EE0004500A63002EB450381B2C2F5D270B6335D
:104EF00002F5E27201F03EFB7078A6A1CDE9001741
:104F0000029030780BEB4501C0F5CA70B388E722F8
:104F100001F0EEFE641CE4B2032CD9D370789EA19C
:104F2000CDE900170290B388F28840F20111912078
:104F300001F0DEFE8F4900200C31CDE90017034659
:104F4000524602904FF4987101F0D2FEA9F8008009
:104F50008048A0F800A003B0B422BDE8F04F4FF4A1
:104F6000A07340F227116C2001F004BB70B5FCF770
:104F7000FAFB8F4A7F4B4FF49474108A4FF4A0755C
:104F8000A0F16D0147290DD2518AA1420AD3A9424D
:104F900008D2997831B100209870BDE870400120A6
:104FA000FBF784BD6C280AD9B42808D2508AA042E5
:104FB00005D3A84203D27F480068012801D101200F
:104FC000987070BD2DE9FE4F0446DFF8EC8198F82B
:104FD000000005282DD10027664D012C2AD010266F
:104FE00048F210094FF6FF7A022C38D04FF4857B37
:104FF000042C45D0802C54D0B4F5807F62D0402C56
:1050000075D028468068401CB4F5801F6DD0B4F17F
:10501000807F0ED0B4F5001F7ED0B4F1007F08D0A1
:10502000B4F5000F7AD0B4F1006F7AD0B4F5800FE8
:1050300076D076E0E878401CE870604DC0074FF00D
:10504000804205D00021104603F05DFB2F7068E020
:105050000121104603F057FB0120287061E0FFF7A3
:10506000D7FE687856A1CDE9001602904B4652460D
:10507000A6214FF4D27001F03BFE01F032F850E06F
:10508000FFF7C6FE687850A1CDE9001602904B46A6
:10509000524659464FF4D27001F02AFE88F800704B
:1050A0003FE0FFF7B5FE687845A1CDE90016029014
:1050B0004B465246A6214FF4D27001F019FE01F082
:1050C00010F82EE0FFF7A4FE687841A1CDE90016A4
:1050D00002904B465246D8214FF4D27001F008FEA0
:1050E00001F006F8AF601CE001E013E014E0FFF708
:1050F0008FFE687834A1CDE9001602904B465246E7
:1051000059464FF4D27001F0F3FD88F8007008E0C2
:1051100004E005E0A86004E0A86002E0A86000E008
:10512000A8602046BDE8FE8F2B49AFF26710FBF761
:10513000A8BC002108467FE610B54FF6FF7000F0CE
:105140000DFC00F0D5FF0B490020886010BD000069
:105150001A0200201C02002038040020B9E2B5E742
:10516000BCC6CAB1CAFDD7D6CAB5D1E9CFB5CDB391
:1051700000000000B0010020CAB5D1E935A3BABCD7
:10518000C6CAFD00BCC6CAFDA3BA0000BCC6CAB1EF
:10519000A3BA0000F7CE0000B0B4BCFC204B4559C8
:1051A0005F3020D4DDCDA3BACDBCCCD0F800000058
:1051B0002402002028812342070000204C02002006
:1051C000BFAACABC00000000B7B5BBD800000000F1
:1051D000C7E5C1E300000000C701F00F70B5FCF7A0
:1051E000A3F9F849E7200880F7494FF6FF700880D7
:1051F0004FF4A07540F227162B46B42231466C209E
:1052000001F0B8F94FF482742B4622463146B4209F
:1052100001F0B0F92B4631462046BDE870404FF40E
:10522000A87201F0A7B92DE9FE4FE84CE7270097D7
:10523000002122881423084601F02DF901261025AB
:10524000E3A08DE861004FF6FF7B1F235A46022141
:10525000002001F0C3FDCDF800B06388228814213E
:10526000002001F018F9E04CE0A16078CDE90015CC
:105270000290238962892821142001F039FD607889
:10528000E0A1CDE900150290238962895021A07820
:1052900001F02EFD6078E1A1CDE90015029023898F
:1052A00062898221A07801F023FD6078E1A1CDE937
:1052B0000015029023896289B421A07801F018FDBD
:1052C0006078E2A1CDE900150290A0782389628977
:1052D0005021C83001F00CFD6078E2A1CDE9001545
:1052E0000290A078238962898221C83001F000FDF4
:1052F0006078DEA1CDE900150290A078238962894B
:10530000B421C83001F0F4FCDFF8B882A8F800B08E
:10531000DFF8B492A9F80070DFF864A3AAF81C6063
:105320000095A078062332465021FF3001F082FA22
:105330000095A07806238221FF30DAF8002001F0E2
:1053400079FAFFF74BFF0026A8F8007006EBC600BD
:10535000227800EB061AC2EB4A00A63002EB4A03A1
:1053600081B2C2F5D270B63302F5E27201F002F9F1
:105370006078C4A1CDE900150290A62000EB4A0197
:1053800020782389C0F5CA70E72201F0B1FC761CB1
:10539000F6B2032ED8D36078BBA1CDE900150290F8
:1053A0002389628940F21111A07801F0A1FC8E4995
:1053B00000200C31CDE9001503465A4602904FF407
:1053C000987101F095FCA8F80070A9F800B04FF4AE
:1053D000A07540F227162B46B42231466C2001F00E
:1053E000C9F84FF482742B4622463146B42001F0AE
:1053F000C1F803B02B4631462046BDE8F04F4FF4CC
:10540000A87201F0B7B82DE9F05FFCF7ACF9A44F32
:10541000DFF89092744C388A4FF00008A0F16D01CB
:105420004FF0010A4FF494754FF4A07647290CD23F
:10543000798AA94209D3B14207D2E17829B184F827
:1054400003800120FBF732FB0EE06C280AD9B42858
:1054500008D2788AA84205D3B04203D2D9F82801ED
:10546000012801D184F803A0388A4FF4827BA0F18F
:10547000B5014F290CD2798AA94209D3B14207D28A
:10548000217929B184F804800220FBF70FFB0EE09C
:10549000B4280AD9584508D2788AA84205D3B04220
:1054A00003D2D9F82801012801D184F804A0388A50
:1054B000A0F205114B290DD2798AA9420AD3B14233
:1054C00008D2617931B184F80580BDE8F05F04202D
:1054D000FBF7ECBA58450BD9B0F5A87F08D2788A0B
:1054E000A84205D3B04203D2D9F82801012801D13E
:1054F00084F805A0BDE8F09F2DE9FE4F0446DFF8D3
:10550000A8B19BF8000006282CD1374F4FF00009B6
:105510004FF0010A012C26D03846594D8078294A8F
:10552000E723DFF8A4C01026FF30A98B4FF6FF78E1
:10553000022C2ED0042C3DD0802C3CD0B4F5807FA2
:105540003AD0402C39D028460068401CB4F5801F62
:1055500034D0B4F5001F32D0B4F5000F30D0B4F51C
:10556000800F2ED0F9E0B879401CB871C1074F48C0
:105570004FF0804206D080F800900021104603F0E2
:10558000C2F8EAE080F800A00121104603F0BBF861
:10559000E3E0491E89B2A98309B9A5F81CA0A2F8C5
:1055A0000080ACF800300096AA8B0623502101F051
:1055B00041F9D2E07CE089E09AE0B4E0C6E0C7E0DF
:1055C000C8E0C9E01A0200201C02002038040020B4
:1055D000B9E2B5E7BCC6CAB1CAFDD7D6CAB5D1E9EA
:1055E000CFB5CDB300000000E2010020CAB5D1E97B
:1055F00036A3BAB2E2C1BFD6DCC6DABACDC6B5C2EE
:10560000CA000000F7CECAB1BCE420743D202020BF
:105610002020202020202020206D7300F7CED6DC13
:10562000C6DA20543D2020202020202020202020C9
:10563000206D7300F7CEC6B5C2CA20663D2020207B
:10564000202020202020202020487A00F7CEB4A55A
:10565000B7A22020202020202020B4CECEAA31D6F0
:10566000DCC6DA00F7CEB4CECAFD0000F7CED6DC39
:10567000C6DACAFDA3BA2020202020202000000086
:1056800018040020F7CE0000B0B4BCFC204B4559F4
:105690005F3020D4DDCDA3BACDBCCCD0F800000063
:1056A0002402002000802342070000204C0200203A
:1056B000491C89B2A983A2F80080ACF800300A46E0
:1056C00006235021009601F0B5F846E0FFF786FD6D
:1056D00078782EA1CDE90016029048F210034246D8
:1056E000A6214FF4D27001F003FB00F0FAFC34E085
:1056F000404600F033F900210846FFF794FD787822
:1057000024A1CDE90016029048F210034246D821A8
:105710004FF4D27001F0ECFAC5F80090A5F81CA087
:1057200000F0E6FC19E0FFF759FD78781BA1CDE900
:105730000016029048F2100342464FF485714FF470
:10574000D27001F0D5FA8BF8009006E0286004E0F2
:10575000286002E0286000E028602046BDE8FE8F57
:105760001049AFF26B20FBF78CB9002108465AE5CF
:1057700010B54FF6FF7000F0F1F800F0B9FC0A48E0
:10578000002101600121818310BD0000BFAACABCB5
:1057900000000000C7E5C1E300000000B7B5BBD8BA
:1057A00000000000C701F00F1804002008B5012117
:1057B000442001F0F8FE1820ADF8000048208DF8D4
:1057C00003006946304801F0E8FC0120ADF8000014
:1057D00028208DF8030069462C4801F0DEFC08BD46
:1057E0002DE9F04101252A4C002800D025702078B1
:1057F000264E254F78B11021384601F029FDF8B129
:105800000821384601F024FDD0B10121304601F0D5
:105810001FFD012814D01021384601F019FD012880
:105820000CD10821384601F013FD012806D10121D1
:10583000304601F00DFD002800D12570BDE8F08153
:105840000A20FAF7C5FF002020701021384601F029
:10585000FFFC78B10821384601F0FAFC78B101214B
:10586000304601F0F5FC0128E8D1BDE8F041042004
:10587000FBF71CB9BDE8F0410120FBF717B9BDE803
:10588000F0410220FBF712B9001801400008014066
:1058900019020020F34908807047F249891C0880EA
:1058A0007047FAE7EF4A1080901C01807047EE487D
:1058B0000089EFE710B502460B46EB4C6089FFF715
:1058C000E9FF100AFFF7E9FFD0B2FFF7E6FF521C2D
:1058D000100AFFF7E2FF90B2FFF7DFFFA089FFF7A2
:1058E000D9FF180AFFF7D9FFD8B2FFF7D6FF5B1C24
:1058F000180AFFF7D2FF98B2FFF7CFFFBDE81040BC
:10590000D5E700B5FFF7D6FFD84800885DF804EB6F
:10591000C3E770B504460D46D34E7089FFF7BAFF52
:10592000200AFFF7BAFFE0B2FFF7B7FF100AFFF750
:10593000B4FFD0B2FFF7B1FFB089FFF7ABFF280A81
:10594000FFF7ABFFE8B2FFF7A8FF180AFFF7A5FFC4
:10595000D8B2FFF7A2FFBDE87040A8E730B5054612
:105960000024C14841880088491E8BB2401E82B283
:1059700000210846FFF7CDFFBA4A4FF47070921C21
:1059800000211580491CA029FBD3641C8442F7D355
:1059900030BDF0B59FB00121080201F0F9FD0121F1
:1059A00040F2791001F0FFFD0127ADF87870102664
:1059B0008DF87B6003248DF87A401EA9AC4801F075
:1059C000ECFB4CF23370ADF8780018258DF87B5065
:1059D0008DF87A401EA9A74801F0DFFB4FF68070D2
:1059E000ADF878008DF87B508DF87A401EA9A2485A
:1059F00001F0D3FB41F20100ADF878008DF87B5047
:105A00008DF87A401EA99D4801F0C7FB0897002039
:105A100009900F210A910B900C900D900E9002218D
:105A20000191029005210391049005900690079042
:105A300006210F91109011901296139015901490CA
:105A40001690179031021891199089001A911B90A5
:105A500008A81C9001A81D900FA802F000F80121D1
:105A6000062002F030F91FB0F0BD7F482A214181A5
:105A70002B2181812C210181012181714FF4F07151
:105A800001804FF4A0714180A82136200AE710B5AB
:105A9000FFF77FFFF120FFF7FDFE3620FFF7FDFE49
:105AA0000420FFF7FAFE0020FFF7F7FE3C20FFF787
:105AB000F4FE0F20FFF7F1FE8F20FFF7EEFEF2203D
:105AC000FFF7E8FE1820FFF7E8FEA320FFF7E5FE4A
:105AD0001220FFF7E2FE0220FFF7DFFEB220FFF701
