:020000042000DA
:10100000F0DA0020BD950020C5950020C79500208E
:10101000C9950020CB950020CD9500200000000050
:10102000000000000000000000000000CF9500203C
:10103000D195002000000000D3950020D595002018
:10104000D7950020D7950020D7950020D795002070
:10105000D7950020D7950020D7950020D795002060
:10106000298800205F88002095880020D7950020DF
:10107000D7950020D7950020D7950020D795002040
:10108000D7950020D7950020D7950020D795002030
:10109000D7950020D7950020D7950020CB88002039
:1010A000D7950020D7950020D7950020D795002010
:1010B00067890020D7950020E1890020D79500207E
:1010C000D7950020D7950020D7950020D7950020F0
:1010D000D7950020D7950020D7950020D7950020E0
:1010E000D7950020D7950020D7950020D7950020D0
:1010F000D7950020D7950020D7950020D7950020C0
:10110000D7950020D7950020D7950020D7950020AF
:10111000D7950020D7950020D7950020D79500209F
:10112000D7950020D7950020D7950020D79500208F
:1011300000F002F800F05AF80AA090E8000C82448F
:101140008344AAF10107DA4501D100F04FF8AFF26C
:10115000090EBAE80F0013F0010F18BFFB1A43F095
:101160000103184790BC0000B0BC00000A444FF0D7
:10117000000C10F8013B13F0070408BF10F8014BF6
:101180001D1108BF10F8015B641E05D010F8016B3B
:10119000641E01F8016BF9D113F0080F1EBF10F89F
:1011A000014BAD1C0C1B09D16D1E58BF01F801CBC2
:1011B000FAD505E014F8016B01F8016B6D1EF9D545
:1011C0009142D6D37047000000230024002500265A
:1011D000103A28BF78C1FBD8520728BF30C148BF9A
:1011E0000B6070471FB51FBD10B510BD0AF0DEF8CB
:1011F0001146FFF7F7FF00F009F80AF0FCF803B416
:10120000FFF7F2FF03BC0AF003F900000EB500F08F
:101210002EFB00F0B7F94FF4A06008F0EFF906F0EC
:10122000E5FE07F04BFA07F0ADFA472140F2E73050
:1012300007F070FB41F61F41632007F0A4FB07F0A5
:10124000E1F906F03DFD00F093FB00F005FA00F037
:1012500011FA0020BE490860BE48BF49086075E128
:10126000002006F047FDBD48006818B10120BC49C8
:10127000086002E00020BA490860BA4800780128F6
:1012800035D14FF6FF70B8490880E720B74908808C
:1012900010200090B6480C2360210268D22007F08D
:1012A000D3FD10200090B2480C2392214268D22036
:1012B00007F0CAFD10200090AD480C23C4218268BD
:1012C000D22007F0C1FD10200090A9480C23F62180
:1012D000C268D22007F0B8FD1020092300909C4876
:1012E000282102684FF4BC7007F0AEFD19E19D485B
:1012F0000078022811D14FF6FF709B490880E72043
:101300009A4908801020092300909148162102680C
:101310004FF4BC7007F098FD03E192480078032871
:1013200011D14FF6FF7090490880E7208F4908805F
:101330001020092300908648162102684FF4BC70E3
:1013400007F082FDEDE087480078042811D14FF6C0
:10135000FF7085490880E720844908801020092310
:1013600000907B48282102684FF4BC7007F06CFDA8
:10137000D7E07C48007805283ED1BE249625E7209A
:10138000794908804FF6FF70784908802020009046
:10139000A5F1280081B2072376480268204607F0AD
:1013A0002AFE6B4800684FF47A71B0FBF1F62020FA
:1013B0000323324629460090204607F01CFE0B20EE
:1013C00000906A48038868480288294604F1300082
:1013D00007F0E2FD5E4800684FF47A71B0FBF1F26D
:1013E00001FB12062020032332462946009004F117
:1013F000400007F000FE94E05A48007806288BD1A0
:101400004FF6FF7058490880E72058490880504837
:101410000068594908610846006818B9084600681C
:10142000486008E054480068401E5349898AB0FB70
:10143000F1F051494860504800694F494968B0FB94
:10144000F1F04D498860084680684C49B1FBF0F0E6
:101450004949C86010200090084606235021426880
:1014600047480078403007F0EFFC102000904248D9
:1014700006238221026942480078403007F0E4FCEC
:10148000102000903C480623B42182683C48007834
:10149000403007F0D9FC3848C0686421B0FBF1F453
:1014A000102003232246E621009035480078403082
:1014B00007F0CAFC002010212E22CDE90021029065
:1014C0002A48038828480288E6212D4800785830A9
:1014D00007F0EEFB2848C0686421B0FBF1F201FB85
:1014E0001204102002232246E621009024480078AE
:1014F000603007F0FDFC102000901F48828A062310
:1015000050211F480078EB3007F09EFC102000901F
:10151000194806238221026819480078EB3007F049
:1015200093FCE7201049088000234FF4F07219461D
:10153000184607F0A7FA01234FF4F072194600206D
:1015400007F0A0FA4FF6FF700749088088E6000010
:101550006CD200200010002008ED00E0288123421A
:101560009401234207D0002036D2002038D2002038
:1015700054D40020F8D100202CD40020A0860100F3
:1015800000D0002010B56FF0040008F086F82E4857
:1015900000682E49B0FBF1F02D490870084600782C
:1015A00000EB4001C1EBC0104FF6FF7101EAC00033
:1015B0002849088010BD0146254A12784A434FF059
:1015C000E0235A6100229A611A46126942F0010230
:1015D0001A6100BF4FF0E022106900F001021AB159
:1015E00000F48032002AF5D04FF0E022126922F098
:1015F00001024FF0E0231A6100229A617047014610
:10160000144A12884A434FF0E0235A6100229A613B
:101610001A46126942F001021A6100BF4FF0E0223F
:10162000106900F001021AB100F48032002AF5D0EE
:101630004FF0E022126922F001024FF0E0231A611C
:1016400000229A617047000008D0002000127A0042
:1016500002D0002004D0002010B501F04FF901F0B5
:101660005DFD04F00EFA05F085FC05F05CFF06F068
:10167000EAFA10BD002043490870704710B50446CF
:1016800041480078844200D110BD3F4800780A28C4
:101690001ED2DFE800F005080B0E1114171A1B1CF0
:1016A00001F039F914E001F046FD11E004F0F5F91C
:1016B0000EE004F0F2F90BE005F069FC08E005F03B
:1016C0003FFF05E006F0CCFA02E001E000E000BFD9
:1016D00000BF0A2C1ED2DFE804F005080B0E11141F
:1016E000171A1B1C01F011F914E001F01EFD11E0A6
:1016F00004F0CDF90EE004F0CAF90BE005F041FC6E
:1017000008E005F017FF05E006F0A4FA02E001E0AA
:1017100000E000BF00BF1C48047000BFB4E710B574
:10172000184800780A281ED2DFE800F005080B0EE2
:101730001114171A1B1C00F010FD14E001F0B1FA8F
:1017400011E002F027FD0EE002F024FD0BE004F0B2
:1017500008FD08E005F009FD05E006F063F802E089
:1017600001E000E000BF00BF10BD10B507484168B0
:101770000020884703480078FFF780FFFFF7CFFF7E
:1017800010BD000007D0002006D000203CD2002071
:101790000CB50020019000906C48006840F4803047
:1017A0006A49086000BF6948006800F40030009092
:1017B0000198401C0190009818B90198B0F5A06FED
:1017C000F1D16248006800F4003010B101200090AF
:1017D00001E0002000900098012843D15C48006897
:1017E00040F010005A4908600846006820F00300E5
:1017F00008600846006840F00200086053484068EE
:10180000524948600846406848600846406840F4CD
:10181000806048600846406820F47C1048600846B4
:10182000406840F4E81048600846006840F0807066
:10183000086000BF4548006800F000700028F9D03B
:101840004248406820F0030040494860084640682C
:1018500040F00200486000BF3C48406800F00C00C7
:101860000828F9D10CBD10B5FFF792FF10BD10B5D7
:101870003648006840F00100344908600846406876
:1018800034490840314948600846006832490840F8
:101890002E4908600846006820F480200860084649
:1018A000406820F4FE0048604FF41F008860FFF796
:1018B000DAFF4FF000602949086010BD10B5002123
:1018C00000200022214B5B6803F00C0121B10429A8
:1018D00006D0082928D107E0214B224C236027E0BD
:1018E0001F4B204C236023E0184B5B6803F47010FF
:1018F000164B5B6803F48032022303EB904022B95D
:10190000194B4343174C23600DE0104B5B6803F405
:10191000003323B1144B4343124C236003E0104BBC
:101920004343104C236003E00D4B0E4C236000BF7B
:1019300000BF064B5B68C3F303130C4CE15C094B1F
:101940001B68CB40074C236010BD00000010024014
:10195000002002400000FFF8FFFFF6FE08ED00E067
:1019600000127A0008D0002000093D000CD00020B1
:1019700010B54FF4C8711B4809F0EEFC10BD10B54E
:101980000246002011E0174B53F830305BB9154B7D
:1019900043F8302003EBC0035960134B1B785B1CEA
:1019A000114C237010BD431CD8B23228EBDB00BFB2
:1019B000F8E770B5054600240EE00A4800EBC400C5
:1019C0004068284038B1074850F834102846884706
:1019D000054605B970BD641C034800788442ECDB01
:1019E00000BFF7E784D200201CD000200EB5F948D4
:1019F00000781021F8A2CDE900210290FB4803886D
:101A0000FB480288FB480178FB48007807F0CFFCD0
:101A1000F04800781021F9A2CDE900210290F548A4
:101A20000078FB4A12788118F0480388F048028851
:101A3000F148007807F0BBFCE64800781021F5A2D9
:101A4000CDE900210290EB480078F14A1278104469
:101A5000EF4A12788118E5480388E5480288E6488D
:101A6000007807F0A4FCDB4800781021F1A2CDE952
:101A700000210290DF480078E54A12781044E44AD9
:101A800012781044E24A12788118D8480388D8485E
:101A90000288D948007807F08AFCCE4800781021E7
:101AA000EAA2CDE900210290D2480078D84A127803
:101AB0001044D74A12781044D54A12781044D44AB8
:101AC00012788118C9480388C9480288CA48007832
:101AD00007F06DFCBF4800781021DFA2CDE900219E
:101AE0000290C4480078CA4A12781044C84A127852
:101AF0001044C74A12781044C54A12781044C44AA8
:101B000012788118B9480388B9480288BA48007821
:101B100007F04DFCAF4800781021D5A2CDE9002197
:101B20000290B4480078BA4A12781044B84A127841
:101B30001044B74A12781044B54A12781044B44A97
:101B400012781044B24A12788118A84803884FF4DA
:101B500078424FF4D27007F02AFC0EBD2DE9FE4307
:101B600005460E46E7200090C34802881423002152
:101B7000084606F053FF01201021C0A21F23CDE923
:101B8000002102904FF6FF720221002007F093FC23
:101B900001201021BF4A0023CDE9002102904FF619
:101BA000FF7204214FF4B97007F001FC4FF6FF708B
:101BB0000090B1484088143883B2AF48028814219D
:101BC000002006F02BFFFFF711FF002454E0E72070
:101BD000B1490880874F3F78DFF834C29CF800C0D5
:101BE0000CFB0477DFF8B4C29CF800C067441037E0
:101BF000BBB2AB4F17F804C07F4F3F7838374FF078
:101C0000100808FB0C77DFF894C29CF800C007EBC3
:101C10000C02784F3F78DFF8F8C19CF800C00CFB4D
:101C20000477DFF878C29CF800C0A7EB0C07B9B2C4
:101C3000714F3F78DFF864C29CF800C0A7EB0C0737
:101C4000B8B206F077FF63480078102195A2CDE97D
:101C500000210290674A12786D4B1B7804FB032227
:101C600091B2654A1278283A90B2604A1388E72206
:101C700007F09DFB601CC4B2062CA8DB644800780A
:101C800000EB40005B4C247804EB4000834C24784C
:101C9000204400F110038148007800F5E2725C48AE
:101CA000007800EB4000534C247804EB40007B4C60
:101CB0002478001B81B24FF4CD7006F03BFF00206A
:101CC0001021794A0346CDE9002102904FF6FF72B8
:101CD0004FF4987107F06BFB012074490860BDE870
:101CE000FE833EB5044672480470FFF77FFE7048DD
:101CF0000078012813D100206E490870354800781B
:101D0000102135A2E723CDE9002102904FF6FF72A2
:101D1000384801783848007807F049FB48E16448C2
:101D20000078022816D100206249087029480078FE
:101D3000102132A2CDE9002102902E480078344AC9
:101D400012788118E7234FF6FF722B48007807F0CE
:101D50002EFB2DE156480078032819D10020554963
:101D600008701C48007810212AA2CDE900210290B9
:101D700020480078264A12781044254A12788118A3
:101D8000E7234FF6FF721C48007807F010FB0FE1C5
:101D90004748007804281CD10020464908700D48A7
:101DA0000078102123A2CDE900210290114800788B
:101DB000174A12781044164A12781044144A1278BE
:101DC0008118E7234FF6FF720B48007807F0EFFA0F
:101DD000EEE071E04CD00020CAB5D1E931A3BAB22F
:101DE000E2C1BFB5B2B9E2CAB1BCE4004ED0002036
:101DF00050D000204AD0002049D00020CAB5D1E9F7
:101E000032A3BAB2E2C1BFCBB2CAB1CBD9B6C80015
:101E10004BD00020CAB5D1E933A3BAB2E2C1BFD4D6
:101E2000C8B1E4CBD9D4CBB6AFB5C4BCD3CBD9B64B
:101E3000C8000000CAB5D1E934A3BAB2E2C1BFC537
:101E4000F6D7B2D6D0B5C4B6AFC1BF00CAB5D1E9D6
:101E500035A3BABCC6CAFD00CAB5D1E936A3BAB229
:101E6000E2C1BFD6DCC6DABACDC6B5C2CA00000030
:101E7000CDCBB3F60000000044D40020B9E2B5E7B2
:101E8000BCC6CAB1CAFDD7D6CAB5D1E9CFB5CDB3A4
:101E9000000000001ED0002036D2002052D00020CA
:101EA00053D00020F7CE00002AD0002080812142AC
:101EB00059D0002065D00020FB480078052820D1AB
:101EC0000020FA490870FA4800781021AFF2840225
:101ED000CDE900210290F7480078F74A12781044C3
:101EE000F54A12781044F44A12781044F24A1278F3
:101EF0008118E7234FF6FF72F048007807F057FA91
:101F000056E0E9480078062823D10020E749087008
:101F1000E74800781021AFF2C002CDE9002102901D
:101F2000E4480078E44A12781044E34A12781044F6
:101F3000E14A12781044E04A12781044DE4A1278DE
:101F40008118E7234FF6FF72DC48007807F02FFA7C
:101F50002EE0D5480078082803D10020D349087026
:101F600026E0D1480078092822D1D14800781021F4
:101F7000AFF20412CDE900210290CE480078CE4A9B
:101F800012781044CC4A12781044CB4A127810448C
:101F9000C94A12781044C84A12781044C64A1278C6
:101FA0008118E7234FF6FF724FF4D27007F0FFF964
:101FB000BD480078C249097888421AD1BA480078E9
:101FC000082803D0B8480078092810D1B64800780E
:101FD00009280ED1B5480078401CB449087008465D
:101FE0000078022805D1B748B749086001E0B74832
:101FF0000470AD480078B24908703EBD10B5044683
:10200000B248007800281DD1012C24D1B0480078B6
:10201000401E40B2AE490870084690F90000012801
:1020200001DA01200870AA48007801280BD1A948DC
:102030000078002806D00020A6490870A449087836
:10204000FFF74FFE87E00120A2490870A0490878F9
:10205000FFF747FE7FE0022C0ED19D4890F900006B
:10206000002878DD9A4890F90000072873DA98492B
:102070000878FFF736FE6EE0042C24D194480078EF
:10208000401C40B292490870084690F900000628AA
:1020900001DD062008708E48007806280BD18D4897
:1020A0000078002857D000208A49087088490878AD
:1020B000FFF717FE4FE00120864908708449087831
:1020C000FFF70FFE47E0B4F5805F06D10120FFF770
:1020D00008FE01207E4908703DE0B4F5005F06D19E
:1020E0000220FFF7FEFD02207949087033E0B4F5C5
:1020F000804F06D10320FFF7F4FD032074490870D8
:1021000029E0B4F5004F06D10420FFF7EAFD0420D2
:102110006F4908701FE0B4F5803F06D10520FFF736
:10212000E0FD05206A49087015E0B4F5003F06D1CE
:102130000620FFF7D6FD0620654908700BE0B4F5D0
:10214000802F03D10820FFF7CCFD04E0202C02D122
:102150000920FFF7C6FD204610BD10B5574800788E
:102160005D490978401A5D49098A88422DDA5B4841
:10217000028A5B480178514800783830102303FB0D
:10218000010055490978084482421EDA4949097814
:10219000084651490978401A5049498A884214DA58
:1021A0004E48418A434A127810464B4A12781044EE
:1021B0001030814209DA4B48007830B1002049499B
:1021C00008701802FFF7F5FB33E03C4800784249FD
:1021D0000978401A4149098A884227DA3F48028A29
:1021E0003F480178354800783830102303FB010060
:1021F000394909780844824218DA2E490978084694
:1022000035490978401A3549498A88420EDA3348F7
:10221000418A284A127810462F4A1278104410300A
:10222000814203DA30480068012802D101202D499B
:1022300008702248007828490978401A2749098AF5
:10224000884256DA2548028A254841781B4800789A
:102250003830102303FB01001F49097808448242EB
:1022600047DA154800781349097808441A4909786B
:10227000401A1A49498A88423BDA1848418A0E486E
:1022800000780C4A12781044134A12781044103027
:1022900081422EDA1548007850B3002013490870A7
:1022A0005802FFF786FB5CE059D0002065D0002083
:1022B0004CD000204AD000204BD0002049D0002034
:1022C0005AD000200400FA050CED00E007D00020F1
:1022D00063D0002064D0002052D000203CD20020E7
:1022E00053D000205BD00020288123425CD0002006
:1022F000FFE7FE480078FE490978401AFD49098A3F
:1023000088422BDAFB48028AFB484178F74800787C
:102310003830102303FB0100F54909780844824254
:102320001CDAF6480078F64909780844F04909783B
:10233000401AF049498A884210DAEE48418AEF484B
:102340000078EF4A12781044E94A127810441030AD
:10235000814203DAEB480068012802D10120EA49F2
:102360000870E2480078E2490978401AE149098A90
:10237000884233DADF48018ADF488278DB48007818
:102380003830102303FB0200D94A127810448142EE
:1023900024DADA480078DA49097801EB4000D449B8
:1023A0000978401AD349498A884217DAD148418AC4
:1023B000D2480078D24A127802EB4000CC4A127818
:1023C00010441030814209DAD048007830B1002042
:1023D000CE4908709802FFF7ECFA39E0C34800785C
:1023E000C3490978401AC349098A88422DDAC1488D
:1023F000018AC1488278BD4800783830102303FB39
:102400000200BB4A1278104481421EDABB480078B1
:10241000BB49097801EB4000B5490978401AB54934
:10242000498A884211DAB348418AB4480078B44AEC
:10243000127802EB4000AE4A12781044103081420C
:1024400003DAB0480068012802D10120AF490870C2
:10245000A6480078A6490978401AA649098A884200
:1024600035DAA448018AA448C278A04800783830F8
:10247000102303FB02009E4A12781044814226DAA0
:102480009E48007800EB40009D490978084498492F
:102490000978401A9749498A884218DA9548418A4A
:1024A0009648007800EB4000954A12781044904A14
:1024B000127810441030814209DA9548007830B122
:1024C000002093490870D802FFF773FA3BE0874871
:1024D000007887490978401A8649098A88422FDAA4
:1024E0008448028A8448C1788048007838301023B4
:1024F00003FB01007E4909780844824220DA7F48C4
:10250000007800EB40007E49097808447849097852
:10251000401A7849498A884212DA7648418A7748CF
:10252000007800EB4000764A12781044704A127826
:1025300010441030814203DA72480068012802D149
:102540000120734908706948007869490978401A80
:102550006849098A884233DA6648028A66480179FE
:10256000624800783830102303FB01006049097885
:102570000844824224DA614800786149097801EB15
:1025800080005B490978401A5A49498A884217DA1B
:102590005848418A59480078594A127802EB80001D
:1025A000534A127810441030814209DA59480078B1
:1025B00030B10020574908701803FFF7FAF939E0E5
:1025C0004A4800784A490978401A4A49098A8842A3
:1025D0002DDA4848028A4848017944480078383062
:1025E000102303FB010042490978084482421EDAA5
:1025F000424800784249097801EB80003C4909785B
:10260000401A3C49498A884211DA3A48418A3B4893
:1026100000783B4A127802EB8000354A1278104469
:102620001030814203DA37480068012802D10120C6
:10263000384908702D4800782D490978401A2D49ED
:10264000098A884235DA2B48028A2B484179274883
:1026500000783830102303FB01002549097808442D
:10266000824226DA2548007800EB80002449097868
:1026700008441F490978401A1E49498A884218DAD5
:102680001C48418A1D48007800EB80001C4A1278E3
:102690001044174A127810441030814209DA1E485B
:1026A000007830B100201C4908705803FFF781F909
:1026B00054E00E4800780E490978401A0D49098AFD
:1026C000884248DA0B48028A0B484179074800786B
:1026D0003830102303FB0100054909780844824281
:1026E00039DA0648007800EB800017E049D0002076
:1026F00052D000203CD2002053D000204BD00020EC
:102700004AD00020288123425CD000205DD00020E8
:102710005ED000205FD0002060D000208F49097873
:1027200008448F490978401A8E49498A884212DA4A
:102730008C48418A8C48007800EB8000874A1278E8
:102740001044874A127810441030814203DA8748D7
:102750000068012802D10120854908708148008A5B
:10276000B0F5CD7F2FDD7F48018A7D48007800F5E8
:10277000E270814227DA7C48007800EB80007749DC
:102780000978084476490978401A7649498A884286
:1027900019DA7448418A7448007800EB80006F4A67
:1027A000127810446E4A12781044103081420ADACE
:1027B0007048007838B100206E4908704FF48020CE
:1027C000FFF7F7F830E06748008AB0F5CD7F28DDE5
:1027D0006448018A6248007800F5E270814220DA9C
:1027E0006148007800EB80005C49097808445C4946
:1027F0000978401A5B49498A884212DA5948418A65
:102800005948007800EB8000544A12781044544A2A
:10281000127810441030814203DA544800680128CD
:1028200002D10120534908704E48008AB0F5CD7F8F
:1028300030DD4C48018A4A48007800F5E270814258
:1028400028DA4948007800EB40004449097801EB58
:10285000400043490978401A4249498A884219DAB6
:102860004048418A4048007800EB40003B4A1278DB
:1028700002EB40003A4A127810441030814209DAE3
:102880003D48007830B100203B4908702020FFF718
:1028900090F832E03348008AB0F5CD7F2ADD314828
:1028A000018A2F48007800F5E270814222DA2E4832
:1028B000007800EB40002949097801EB40002849E5
:1028C0000978401A2749498A884213DA2548418AFB
:1028D0002548007800EB4000204A127802EB4000C7
:1028E0001F4A127810441030814203DA1F480068F2
:1028F000012802D101202049087010BD10B51F49E0
:10290000AFF60710FFF73BF810BD10B500210846E1
:10291000FFF724F910BD10B54FF6FF7005F0B6FAB9
:10292000012017490870174908701749087017499E
:102930000870174908700E4908700E4908700E4952
:1029400008700020134908700120134908700720FF
:10295000124908701249087010BD00004AD00020CA
:1029600052D000203CD200204BD0002028812342AE
:1029700060D0002061D0002062D0002027F0070046
:102980005BD000205CD000205DD000205ED0002015
:102990005FD0002063D0002064D0002059D00020F8
:1029A0005AD000200EB5FC4800781021FBA2CDE9DA
:1029B00000210290FB480388FB480288A6214FF4BF
:1029C000D27006F0F4FCF44800781021F7A2CDE9AB
:1029D00000210290F3480388F3480288D8214FF47D
:1029E000D27006F0E4FCEC4800781021F1A2CDE9A9
:1029F00000210290EB4803884FF478424FF4857130
:102A00004FF4D27006F0D3FC0EBDFEB505460E465F
:102A1000E7200090E948028814230021084605F0C9
:102A2000FDFF01201021E6A21F23CDE90021029025
:102A30004FF6FF720221002006F03DFD4FF6FF70B9
:102A40000090DE48438802881421002005F0E6FF4C
:102A5000D14800781021E0A2CDE900210290D148B0
:102A60000388D14802882821142006F0A0FCCA4817
:102A700000781021DDA2CDE900210290C948038829
:102A8000C948028828214FF4877006F090FCC2489C
:102A900000781021DCA2CDE900210290C148038812
:102AA000C14802886021822006F081FCBA48007883
:102AB0001021D8A2CDE900210290BA480388BA4873
:102AC00002889221822006F072FCB348007810211F
:102AD000D3A2CDE900210290B2480388B24802880F
:102AE000C421822006F063FCAB4800781021CFA2FD
:102AF000CDE900210290AB480388AB480288F6215B
:102B0000822006F054FCA44800781021CAA2CDE926
:102B100000210290A3480388A348028860214FF453
:102B20009B7006F044FC9C4800781021C2A2CDE9BD
:102B3000002102909B4803889B48028892214FF411
:102B40009B7006F034FC944800781021BAA2CDE9BD
:102B5000002102909348038893480288C4214FF4CF
:102B60009B7006F024FC8C4800781021B2A2CDE9BD
:102B7000002102908B4803888B480288F6214FF48D
:102B80009B7006F014FC844800781021AAA2CDE9BD
:102B9000002102908348038883480288F6214FF47D
:102BA0009B7006F004FCE720A449088000241DE087
:102BB000322204FB02F000F1560304FB02F000F1A4
:102BC00056014FF4BC72502005F05CFF322204FB2A
:102BD00002F000F17A0304FB02F000F17A014FF4F5
:102BE000BC72502005F04EFF601CC4B2042CDFDB29
:102BF0004FF4887350225621104605F043FF4FF4DE
:102C000088734FF4BC725621104605F03BFFFFF766
:102C1000C9FE002435E032276743A637DFF820C21B
:102C20009CF800C067441037BBB2854F3F7807F56A
:102C3000E27232276743A637DFF804C29CF800C06F
:102C4000A7EB0C07B9B27E4F3F78C7F5D27005F0FD
:102C500071FF5148007810217AA23223CDE900217A
:102C6000029004FB03F202F1A601754A1278C2F544
:102C7000CA7290B24B4A1388E72206F098FB601C98
:102C8000C4B2032CC7DB002010216F4A0346CDE9F4
:102C9000002102904FF6FF724FF4987106F087FB07
:102CA000FEBD10B566480078C0F5D2706749098A44
:102CB000884220DA6548018A6148007800F5E270B0
:102CC000814218DA5E480078C0F1A6005F49498A5F
:102CD000884210DA5D48418A59480078B63081420E
:102CE00009DA5B48007830B100205949087080202B
:102CF000FEF75FFE25E052480078C0F5D2705349D8
:102D0000098A88421ADA5148018A4D48007800F54C
:102D1000E270814212DA4A480078C0F1A6004B49BD
:102D2000498A88420ADA4948418A45480078B630DB
:102D3000814203DA47480068012802D10120444952
:102D400008703F480078C0F5D2704049098A88422F
:102D500021DA3E48018A3A48007800F5E270814263
:102D60007CDA37480078C0F1D8003849498A88426F
:102D700074DA3648418A32480078E83081426DDAA8
:102D80003548007838B10020334908704FF480701E
:102D9000FEF70FFE88E061E06DD00020BFAACABC3C
:102DA0000000000068D000206AD00020C7E5C1E321
:102DB00000000000B7B5BBD80000000044D40020DC
:102DC000B9E2B5E7BCC6CAB1CAFDD7D6CAB5D1E922
:102DD000CFB5CDB300000000CAB5D1E931A3BAB276
:102DE000E2C1BFB5B2B9E2CAB1BCE400CFB5CDB360
:102DF000BCC6CAB1CAB1BCE43A20202020202020A1
:102E00002020206D73000000B4ABB8D0C6F7313A73
:102E100000000000B4ABB8D0C6F7323A00000000A2
:102E2000B4ABB8D0C6F7333A00000000B4ABB8D0AA
:102E3000C6F7343A000000006D73000036D200205F
:102E40006CD00020F7CE000080D000203CD20020C3
:102E5000A5D0002028812342A6D00020BD480078BC
:102E6000C0F5D270BC49098A88421ADABA48018A88
:102E7000B848007800F5E270814212DAB54800786F
:102E8000C0F1D800B449498A88420ADAB248418A76
:102E9000B0480078E830814203DAB0480068012881
:102EA00002D10120AE490870AA480078C0F5D2705E
:102EB000A949098A884221DAA748018AA5480078E9
:102EC00000F5E270814219DAA2480078C0F58570F9
:102ED000A149498A884211DA9F48418A9D48007871
:102EE00000F58D70814209DA9E48007830B10020EB
:102EF0009C4908704020FEF75CFD26E0954800786C
:102F0000C0F5D2709449098A88421BDA9248018A36
:102F10009048007800F5E270814213DA8D4800781D
:102F2000C0F585708C49498A88420BDA8A48418A03
:102F30008848007800F58D70814203DA8748006880
:102F4000012802D101208749087010BD3EB5044612
:102F500085480078012818D1012C17D1FFF722FDF0
:102F6000824800781021AFF2B41248F21003CDE984
:102F7000002102904FF6FF724FF485714FF4D2702A
:102F800006F015FA002078490870C5E0022C15D12A
:102F9000FFF708FD754800781021AFF2002248F2D3
:102FA0001003CDE9002102904FF6FF72A6214FF4E5
:102FB000D27006F0FCF905F0C0FBADE0042C15D191
:102FC000FFF7F0FC694800781021AFF2202248F2A8
:102FD0001003CDE9002102904FF6FF72D8214FF483
:102FE000D27006F0E4F905F0B1FB95E0802C15D124
:102FF000FFF7D8FC5D4800781021AFF2602248F25C
:103000001003CDE9002102904FF6FF72A6214FF484
:10301000D27006F0CCF905F090FB7DE0B4F5807F2E
:1030200015D1FFF7BFFC514800781021AFF2842280
:1030300048F21003CDE9002102904FF6FF72D8212B
:103040004FF4D27006F0B3F905F080FB64E0402C39
:1030500017D1FFF7A7FC454800781021AFF2AC224A
:1030600048F21003CDE9002102904FF6FF724FF4B1
:1030700085714FF4D27006F09AF900203A49087031
:103080004AE0B4F5801F04D1394800683949086026
:1030900042E0B4F1807F07D13548006835490968BE
:1030A000401A3549086037E0B4F5001F04D13048B4
:1030B0000068324908602FE0B4F1007F07D12C4846
:1030C00000682E490968401A2B49486024E0B4F58D
:1030D000000F04D126480068294908601CE0B4F1BB
:1030E000006F07D12248006825490968401A224923
:1030F000886011E0B4F5800F04D11D4800682149B3
:10310000086009E0B4F1806F06D1194800681D49D4
:103110000968401A1849C86020463EBD10B51A49D2
:10312000AFF2D710FEF72BFC10BD10B500210846FA
:10313000FFF76BFC10BD10B54FF6FF7004F0A6FE54
:1031400005F004FB012007490870054908700F4984
:10315000087010BD6CD000203CD200202881234292
:10316000A6D00020A7D0002007D000206DD00020DE
:103170006CD2002070D0002054D4002074D00020E5
:1031800078D000207CD00020C701F00FA5D000200F
:1031900000B585B0FFF706FC4FF6FF70FE490880CA
:1031A000E720FE490880FE48007801287ED1FD48CE
:1031B00000781021FCA24FF47C43CDE9002102905D
:1031C0004FF6FF7242214FF4D27006F0F0F8F54846
:1031D00000781021F6A2CDE900210290F64803887C
:1031E000F648028874214FF4D27006F0E0F8F448F3
:1031F000007802287ED12820F2490870E94800783A
:103200001021F1A2CDE900210290EB480388EB48A0
:103210000288F1480178F148007806F0C8F8E148E2
:1032200000781021EEA2CDE900210290E548007857
:10323000E949097808440490DF480388DF48028898
:10324000E6480078049906F0B2F8D64800781021D4
:10325000E7A2CDE900210290DA480078DE4909783A
:1032600001EB40000490D4480388D4480288DB482E
:103270000078049906F09BF8CA4800781021E0A273
:10328000CDE900210290CF48007800EB4000D24900
:10329000097808440490C8480388C8480288CF4881
:1032A0000078049906F083F8BE4800E0CEE3007889
:1032B0001021D7A2CDE900210290BF480388BF4862
:1032C0000288C5480178D748007806F070F8B548FC
:1032D00000781021D4A2CDE900210290B9480078ED
:1032E000BD49097808440490B3480388B34802886C
:1032F000CC4800E0C9E00078049906F058F8A948E5
:1033000000781021CDA2CDE900210290AD480078CF
:10331000B149097801EB40000490A7480388A74809
:103320000288C0480078049906F041F89D4800786A
:103330001021C7A2CDE900210290A248007800EB3D
:103340004000A5490978084404909B4803889B489D
:103350000288B4480078049906F029F810200090FB
:10336000C04800689C4904900978092302469B489C
:10337000039100781C3005F067FD10200090B948DB
:10338000406804908F4800789349097808440923DD
:1033900003900146914800781C30049A05F054FDD2
:1033A00010200090AF4880680490864800788A49D1
:1033B000097801EB40000923039001468748007813
:1033C0001C30049A05F040FD10200090A548C0680C
:1033D00004907C48007800EB40007F49097808445D
:1033E0000923039001467D4800781C30049A05F0BB
:1033F0002BFD102000909B480069774904900978C4
:10340000092302468748039100781C3005F01CFD13
:10341000102000909348406904906A4800786E49F3
:10342000097808440923039001467E4800781C303F
:10343000049A05F009FD102000908A4880690490E4
:10344000604800786449097801EB40000923039043
:103450000146744800781C30049A05F0F5FC1020F1
:1034600000908048C06904905648007800EB400006
:1034700059490978084409230390014669480078AE
:103480001C30049A05F0E0FC9EE24D4800780328C9
:10349000FAD11E204B4908704248007810214AA2F8
:1034A000CDE90021029044480388444802884A48F4
:1034B00001784A48007805F07AFF3A4800781021F0
:1034C00047A2CDE9002102903E48007842490978A0
:1034D0000844049038480388384802883F480078F8
:1034E000049905F064FF2F480078102140A2CDE92F
:1034F000002102903348007800EB400036490978FB
:10350000084404902C4803882C48028833480078EB
:10351000049905F04CFF23480078102138A2CDE92A
:1035200000210290274800782B49097801EB8000A0
:10353000049021480388214802882848007804998B
:1035400005F035FF17480078102131A2CDE90021A0
:10355000029019480388194802881F4801783148A9
:10356000007805F024FF0F48007810212EA2CDE945
:103570000021029013480078174909780844049004
:103580000D4803880D48028826480078049905F004
:103590000EFF0448007867E036D2002038D20020C1
:1035A000D0D00020ADD00020B7BDB7A831000000BA
:1035B000B7BDB7A832000000A8D00020AAD00020D4
:1035C00007D00020C0D0002074313A2020202020D5
:1035D00020202020206D7300C3D00020C1D0002007
:1035E00074323A202020202020202020206D7300DB
:1035F00074333A202020202020202020206D7300CA
:1036000074343A202020202020202020206D7300B8
:1036100076313A202020202020202020206D6D2F80
:1036200073000000C4D0002076323A2020202020F1
:1036300020202020206D6D2F7300000076333A206B
:103640002020202020202020206D6D2F73000000DE
:1036500076343A202020202020202020206D6D2F3D
:103660007300000054D400201021AFF23002CDE9E5
:1036700000210290FE48007800EB4000FD490978E7
:1036800008440490FC480388FC480288FC48007801
:10369000049905F08CFEFB4800781021AFF250022F
:1036A000CDE900210290F2480078F249097801EB57
:1036B00080000490F0480388F0480288F0480078C1
:1036C000049905F074FE10200090EF480068E94965
:1036D0000490097809230246EC48039100781C30D5
:1036E00005F0B2FB10200090E74840680490E048E5
:1036F0000078E04909780844092303900146E3482B
:1037000000781C30049A05F09FFB10200090DE48E2
:1037100080680490D648007800EB4000D5490978CD
:103720000844092303900146D84800781C30049AC5
:1037300005F08AFB10200090D348C0680490CC4864
:103740000078CC49097801EB8000092303900146F9
:10375000CE4800781C30049A05F076FB10200090CB
:10376000C9480069C3490490097809230246C4483E
:10377000039100781C3005F067FB10200090C248D0
:1037800040690490BA480078BA4909780844092386
:1037900003900146BA4800781C30049A05F054FBA7
:1037A00010200090B84880690490B148007800EB80
:1037B0004000B04909780844092303900146B04805
:1037C00000781C30049A05F03FFB10200090AE48B2
:1037D000C0690490A6480078A649097801EB8000EA
:1037E000092303900146A64800781C30049A05F08E
:1037F0002BFBA44800781021A5A2CDE9002102905E
:103800009B4800789B49097801EB400004909F4851
:103810000078083880B20390974803889748028858
:10382000DDE9030105F0C3FD102000909048007809
:103830009049097801EB40000923049099480268F7
:10384000924800781C30049905F0FEFA8D48007803
:10385000102195A2CDE90021029085480078854984
:10386000097801EB4000049085480078801C80B204
:1038700003908148038881480288DDE9030105F04F
:1038800096FD002010212022CDE9002102907848E9
:1038900000787849097801EB400004908748038854
:1038A00087480288764800781C30049905F000FAB1
:1038B000102000907448006B04906D4800786D49AA
:1038C000097801EB40000823039001466C4800781A
:1038D0002430049A05F0B8FA6A480078102179A2D9
:1038E000CDE9002102906248007800EB8000614938
:1038F00009780844049065480078083880B203903D
:103900005D4803885D480288DDE9030105F04FFD4D
:10391000102000905648007800EB80005549097847
:103920000844092304906C480268584800781C3009
:10393000049905F089FA53480078102167A2CDE96F
:10394000002102904A48007800EB8000494909783C
:10395000084404904A480078801C80B2039046488E
:10396000038846480288DDE9030105F020FD0020B8
:1039700010212022CDE9002102903D48007800EB83
:1039800080003C490978084404904C4803884C481E
:1039900002883B4800781C30049905F089F9102012
:1039A00000903948406B04903148007800EB80006B
:1039B00030490978084408230390014630480078CC
:1039C0002430049A05F040FA2E480078102148A2CD
:1039D000CDE90021029049480078B63080B20490C9
:1039E0002548038825480288284800781E30049915
:1039F00005F0DDFC4FF6FF7031490880E7202F49C4
:103A00000880202000903D480078A23080B2022338
:103A100004903B48B0F90020DC20049905F0EBFA53
:103A200018480078102137A2CDE9002102903348D0
:103A30000078B63080B204900F4803880F4802889F
:103A40004FF48C70049905F0B2FC14E20D48007834
:103A50001021AFF2AC42CDE9002102900648038864
:103A60000648028842214FF4D27005F0A0FC4BE0DA
:103A7000C0D00020C3D00020A8D00020AAD00020B1
:103A8000C4D00020ADD0002054D40020C1D00020EC
:103A90007431323A202020202020202020206D73F5
:103AA00000000000E4D0002061313A2020202020D6
:103AB00020202020206D6D2F7332000038D200208E
:103AC00036D200207433343A2020202020202020B9
:103AD00020206D7300000000E8D0002061323A2001
:103AE0002020202020202020206D6D2F7332000008
:103AF000B5B2B9E2C6ACBFEDB6C83A00C2D000203C
:103B0000CCD000206D206D00F84800781021AFF275
:103B100060524FF47C43CDE9002102904FF6FF72D2
:103B200074214FF4D27005F042FC2020F049087057
:103B3000EE4800781021AFF2A802CDE900210290F2
:103B4000EC480388EC480288EC480178EC4800789F
:103B500005F02DFCE54800781021AFF29802CDE980
:103B600000210290E2480078E449097801EB400026
:103B70000490E0480388E0480288E148007804990E
:103B800005F015FCD94800781021DEA2CDE900210E
:103B90000290D8480388D8480288D8480178DE487F
:103BA000007805F004FCD14800781021DBA2CDE9B3
:103BB00000210290CE480078D049097801EB4000FE
:103BC0000490CC480388CC480288D34800780499F4
:103BD00005F0EDFB10200090D548006AC74904901D
:103BE000097809230246C64803910078213005F080
:103BF0002BF910200090CE48406A0490BC48007811
:103C0000BE49097801EB4000092303900146BC48F6
:103C100000782130049A05F017F910200090C4486C
:103C2000806AB6490490097809230246BA4803918C
:103C30000078213005F008F910200090BC48C06AD7
:103C40000490AB480078AD49097801EB40000923A6
:103C500003900146B04800782130049A05F0F4F84A
:103C6000B4480078032861D1A04800781021B2A29E
:103C7000CDE9002102909F4803889F4802889F4811
:103C8000017880319E48007805F091FB10200923CF
:103C90000090AE48026899480178803198480078D1
:103CA000213005F0D1F8914800781021A8A2CDE983
:103CB000002102908E4800789049097801EB80003D
:103CC00004908C4803888C48028893480078103010
:103CD000049905F06CFB002010212022CDE9002181
:103CE0000290834800788549097801EB80000490B0
:103CF0009C4803889C4802888748007821300499B2
:103D000004F0D6FF102000908948806B049078481A
:103D100000787A49097801EB800008230390014676
:103D20007D4800782930049A05F08EF881480078A3
:103D300002284BD16D48007810218CA2CDE90021DA
:103D400002906B4800786D49097801EB800004907F
:103D500068480388684802886948007832300499C6
:103D600005F025FB84480078C0B160480078102138
:103D700082A2CDE9002102905D4800785F49097870
:103D800001EB800004905B4803885B4802885C4834
:103D900000787A30049905F00AFB17E05348007860
:103DA000102179A2CDE900210290514800785349B1
:103DB000097801EB800004904E4803884E48028841
:103DC0004F4800787A30049905F0F1FA47480078B6
:103DD000102170A2CDE9002102904548007800EB47
:103DE00040004649097801EB4000083880B2049051
:103DF000404803884048028841480078323004999E
:103E000005F0D5FA4FF6FF7057490880E72055496D
:103E10000880202000903648007800EB40003749A9
:103E2000097801EB40001C3880B2022304905C4802
:103E3000B0F90020324800789630049905F0DBF89C
:103E40002A4800781021AFF24432CDE900210290D7
:103E50002748007800EB40002849097801EB400032
:103E6000083880B204902348038823480288FA2047
:103E7000049905F09CFA05B000BDFEB505460E4656
:103E8000E72000904748028814230021084604F0E8
:103E9000C5FD0120102144A21F23CDE9002102907D
:103EA0004FF6FF720221002005F005FB4FF6FF7070
:103EB00000903C48438802881421002004F0AEFDA5
:103EC0001C48007802280FD10848007810213CA235
:103ED000CDE900210290074803880748028816218F
:103EE000142005F064FA88E074E00000ADD00020F2
:103EF000C0D00020A8D00020AAD00020C2D000202E
:103F0000C1D000207631323A2020202020202020ED
:103F100020206D6D2F730000C4D000207633343A1A
:103F2000202020202020202020206D6D2F730000D5
:103F300054D4002007D000207431333A20202020B0
:103F40002020202020206D7300000000F4D00020ED
:103F5000613A202020202020202020206D6D2F730A
:103F60003200000038D2002036D20020CBD9B6C8AB
:103F7000B7BDCFF2A3BA0000F8D0002034333231FD
:103F8000CEAAD5FD0000000031323334CEAAD5FDD3
:103F900000000000B4ABB8D0C6F7BEE0C0EB3A00FA
:103FA000CED0002044D40020B9E2B5E7BCC6CAB1E7
:103FB000CAFDD7D6CAB5D1E9CFB5CDB30000000050
:103FC000CAB5D1E932A3BAB2E2C1BFCBB2CAB1CB52
:103FD000D9B6C800F948007803280ED1F84800780F
:103FE0001021F8A2CDE900210290FE480388FE4886
:103FF00002881621142005F0DAF9F1480078102122
:10400000FAA2CDE900210290F6480388F64802881A
:1040100016214FF4877005F0CAF9FFF7B9F80024AC
:1040200059E0E720F8490880022C1EDA322767435E
:104030004237DFF8D8C39CF800C067441037BBB2E2
:10404000F24F3F7807F5E672322767434237DFF8D1
:10405000BCC39CF800C0A7EB0C07B9B2EB4F3F788C
:10406000C7F5D27004F066FD1DE032276743423782
:10407000DFF898C39CF800C067441037BBB2E34F29
:104080003F7807F5E272322767434237DFF87CC397
:104090009CF800C0A7EB0C07B9B2DC4F3F78C7F51E
:1040A000D27004F047FDC64800781021D8A2322310
:1040B000CDE90021029004FB03F202F14201D34A50
:1040C0001278C2F5CA7290B2C64A1388E72205F088
:1040D0006EF9601CC4B2052CA3DBB8480078032835
:1040E00024D100201021CB4A0346CDE900210290C3
:1040F0004FF6FF724FF4987105F059F9E720C24965
:1041000008804FF6FF70C44908804FF4A073F42272
:1041100040F22711A42004F00DFD4FF4A0731A46BD
:1041200040F22711F52004F005FD32E0A3480078A5
:1041300002282ED100201021B84A0346CDE90021E3
:1041400002904FF6FF724FF4987105F030F9E720B6
:10415000AD4908804FF6FF70AF4908804FF4A07357
:10416000B42240F227116C2004F0E4FC4FF4A07359
:104170004FF4827240F22711B42004F0DBFC4FF4BC
:10418000A0734FF4A87240F227114FF4827004F02C
:10419000D1FCFEBD10B5FEF784FD9C480078C0F54B
:1041A000D2709F49098A884221DA9D48018A97483E
:1041B000007800F5E270814219DA94480078C0F185
:1041C00074009749498A884211DA9548418A8F4894
:1041D0000078843081420ADA9248007838B10020B1
:1041E000904908704FF40060FDF7E3FB25E0874835
:1041F0000078C0F5D2708A49098A88421ADA88485C
:10420000018A8248007800F5E270814212DA7F4824
:104210000078C0F174008249498A88420ADA8048ED
:10422000418A7A4800788430814203DA7E48006807
:10423000012802D101207B49087074480078C0F53C
:10424000D2707749098A884221DA7548018A6F4815
:10425000007800F5E270814219DA6C480078C0F10C
:1042600042006F49498A884211DA6D48418A67489D
:104270000078523081420ADA6C48007838B1002068
:104280006A4908704FF48060FDF793FB25E05F48B2
:104290000078C0F5D2706249098A88421ADA60480B
:1042A000018A5A48007800F5E270814212DA5748D4
:1042B0000078C0F142005A49498A88420ADA5848CF
:1042C000418A524800785230814203DA56480068E9
:1042D000012802D101205549087038480078032888
:1042E0006AD14F48008AA42818DD4D48008AF42876
:1042F00014DA4B48408A40F21D1188420EDD4848CE
:10430000408AB0F5A07F09DA4948007830B1002032
:10431000474908700220FDF74CFB19E04048008A2D
:10432000A42812DD3E48008AF4280EDA3C48408A70
:1043300040F21D11884208DD3948408AB0F5A07F5F
:1043400003DA39480068012802D101203849087091
:104350003348008AF52819DD3148008AB0F5A07F7E
:1043600014DA2F48408A40F21D1188420EDD2C4895
:10437000408AB0F5A07F09DA2E48007830B10020DD
:104380002C4908700420FDF714FB0DE12448008A35
:10439000F52854DD2248008AB0F5A07F4FDA204886
:1043A000408A40F21D11884249DD1D48408AB0F51F
:1043B000A07F44DA1C483FE045E0000007D0002021
:1043C000ADD00020CAB5D1E933A3BAB2E2C1BFD49F
:1043D000C8B1E4CBD9D4CBB6AFB5C4BCD3CBD9B676
:1043E000C8000000A8D00020AAD00020CFB5CDB3CF
:1043F000BCC6CAB1CAB1BCE43A202020202020208B
:104400002020206D7300000036D20020ACD00020A8
:10441000F7CE000010D1002038D2002039D1002082
:104420003CD20020C5D0002028812342C6D00020E5
:10443000C7D00020C8D0002000680128A5D10120E5
:10444000FA490870B0E0FA48007802287ED1F948AD
:10445000008A6C2818DDF748008AB42814DAF54879
:10446000408A40F2271188420EDDF248408AB0F5BA
:10447000A07F09DAF048007830B10020EE490870DA
:104480000120FDF796FA19E0EA48008A6C2812DD4F
:10449000E848008AB4280EDAE648408A40F227113C
:1044A000884208DDE348408AB0F5A07F03DAE3489C
:1044B0000068012802D10120DF490870DD48008A28
:1044C000B42819DDDB48008AB0F5827F14DAD948B8
:1044D000408A40F2271188420EDDD648408AB0F566
:1044E000A07F09DAD648007830B10020D44908709E
:1044F0000220FDF75EFA1AE0CE48008AB42813DDE8
:10450000CC48008AB0F5827F0EDACA48408A40F271
:104510002711884208DDC748408AB0F5A07F03DA3A
:10452000C6480068012802D10120C5490870C14869
:10453000008AB0F5827F1BDDBE48008AB0F5A87FF7
:1045400016DABC48408A40F2271100E02CE088428D
:104550000EDDB848408AB0F5A07F09DAB34800788C
:1045600030B10020B14908700420FDF722FA1BE0A9
:10457000B048008AB0F5827F13DDAE48008AB0F5FE
:10458000A87F0EDAAB48408A40F22711884208DD46
:10459000A848408AB0F5A07F03DAA848006801283F
:1045A00002D10120A149087010BD01B584B0A04816
:1045B0000078022804D09E480078032841F05E82EB
:1045C0000498012867D19A480078032816D1FEF78D
:1045D000DFFD9C48007810219BA248F21003CDE932
:1045E000002102904FF6FF724FF485714FF4D270A4
:1045F00004F0DDFE00208E490870ECE38C48007862
:104600000228FAD192480078401C91490870084667
:104610000078039000EBD07041100398A0EB4100AC
:10462000E0B900208B490870864800781021AFF26D
:10463000A862CDE90021029087480078874909786F
:1046400001EB8000039086480388864802888648EC
:1046500000787A30039904F0AAFECEE701207D4964
:104660000870784800781021AFF2F062CDE900219F
:104670000290794800787949097801EB800003902D
:104680007748038877480288774800787A3003991A
:1046900004F08DFEB1E70498022855D173480078E4
:1046A000012824D172480088401E00B27049088059
:1046B0004FF6FF706F490880E7206F4908806C480B
:1046C000B0F90000002802DA0020694908802020A3
:1046D000009062480078A23080B2022303906448C0
:1046E000B0F90020DC20039904F085FC85E76348DD
:1046F0000088401E00B2614908804FF6FF705D4996
:104700000880E7205C4908805C48B0F90000002878
:1047100002DA002059490880202000904E48007895
:1047200000EB40004D49097801EB40001C3880B295
:10473000022303905148B0F900204B48007896308E
:10474000039904F058FC58E70498042855D14748C9
:104750000078012824D146480088401C00B2444912
:1047600008804FF6FF7043490880E72042490880DF
:104770003F48B0F90000632802DDC8203C490880AA
:104780002020009035480078A23080B202230390A8
:104790003748B0F90020DC20039904F02CFC2CE70A
:1047A00036480088401C00B2344908804FF6FF703C
:1047B00030490880E720304908803048B0F90000CF
:1047C000632802DD00202D49088020200090224827
:1047D000007800EB40002149097801EB40001C38CB
:1047E00080B2022303902548B0F900201E480078CB
:1047F0009630039904F0FFFBFFE60498802843D12C
:10480000FEF7C6FC0F48007810211DA248F21003E5
:10481000CDE9002102904FF6FF72A6214FF4D2702D
:1048200004F0C5FD03F089FFE7E60000C8D00020D2
:1048300007D000203CD20020C9D00020288123428C
:10484000C7D00020ADD00020B7B5BBD80000000015
:1048500064D10020F8D00020C0D00020C2D00020B9
:10486000A8D00020AAD00020C1D00020D0D00020A5
:10487000CCD0002036D2002038D20020CED000206C
:10488000BFAACABC000000000498B0F5807F31D1F7
:104890004FF6FF7003F0FAFA0020F9490860F94971
:1048A0000860F9490860F9490860F9490860F94960
:1048B0000860F9490860F9490870F9490870F94930
:1048C0000870F949087003F041FF00210846FFF71E
:1048D000D4FAF64800781021F5A248F21003CDE989
:1048E000002102904FF6FF72D8214FF4D27004F0ED
:1048F0005EFD82E60498402817D1FEF749FCEB489C
:1049000000781021AFF2C00248F21003CDE9002177
:1049100002904FF6FF724FF485714FF4D27004F09D
:1049200046FD0020E449087067E60498B0F5801F52
:1049300026D1E2480078012806D1E1480068E14923
:104940000860E149086058E6DB480078032809D18F
:104950000120DE490870DA480068DA490860DC495D
:1049600008604AE6D44800780228C2D1CB480078D3
:10497000401CCA490870D2480068C44908603CE637
:104980000498B0F1807F3CD1CC4800780128B0D1A8
:104990004FF6FF70CF490880E720CF490880C8480C
:1049A0000068C8490968401ACC490860CC48B0F989
:1049B00000004FF47A714843C8490968B0FBF1F030
:1049C000C64908611020009008460068C549039058
:1049D000097809230246C448029100781C3004F08B
:1049E00033FA10200090BD480069BE490390097851
:1049F00009230246BD48029100781C3004F024FAD5
:104A0000FBE50498B0F5001F63D1AC48007801289D
:104A10000DD1AB480068B6490860B6490860084641
:104A20000068A9490968401A95490860E5E5A24867
:104A3000007803283FD1A5480078002891D00020B5
:104A4000A24908704FF6FF70A2490880E720A249EA
:104A500008809B4800689B490968401A9F49086282
:104A6000A548B0F900004FF47A7148439B49096AA0
:104A7000B0FBF1F099498862102000900846006A66
:104A80009E490390097809230246974802910078CD
:104A9000213004F0D9F9102000909048806A97499D
:104AA000039009780923024690480291007821304A
:104AB00004F0CAF9A1E5804800780228A0D178481E
:104AC0000078401C764908707D480068704908608D
:104AD00093E50498B0F1007F7DD1784800780128F3
:104AE0008ED14FF6FF707B490880E7207A49088015
:104AF000734800687E490968401A784948607848D8
:104B0000B0F900004FF47A71484374494968B0FB2A
:104B1000F1F0724948611020009008464068039007
:104B2000774800786F4909780844092302900146C4
:104B30006D4800781C30039A04F086F9102000902C
:104B40006648406903906E480078664909780844D1
:104B5000092302900146654800781C30039A04F04E
:104B600073F9554800780328A4D1102000906448B8
:104B700000785C49097801EB400009230390404824
:104B80000268594800781C30039904F05DF95348D5
:104B9000406952490969401A002805DC4F484069BC
:104BA0004E490969401A69D14C4840694B49096925
:104BB000401A4FF47A71484331490968B0FBF1F06B
:104BC000464908630846406B4E4988422DD2002072
:104BD0001021202200E0FFE0CDE9002102904848AA
:104BE00000784049097801EB400003903A48038877
:104BF000384802883D4800781C30039904F058F882
:104C0000102000903548006B03903D4800783549EE
:104C1000097801EB400008230290014633480078F0
:104C20002430039A04F010F9E7E400201021202238
:104C3000CDE900210290324800782A49097801EB39
:104C400040000390244803882248028827480078BF
:104C50001C30039904F02CF81020009028480078AC
:104C60002049097801EB40000823264A01460390B9
:104C70001E480078243004F0E7F8BEE444E0000069
:104C8000E4D00020E8D00020F4D0002000D10020A3
:104C900004D1002008D100200CD10020F9D0002040
:104CA000FAD00020FBD00020FCD00020ADD00020A6
:104CB000C7E5C1E30000000007D00020D0D00020ED
:104CC0006CD20020B0D00020D4D00020CAD0002068
:104CD000ECD0002036D2002038D2002054D400205E
:104CE000CCD00020C3D00020C1D00020C4D00020F0
:104CF000B4D00020D8D00020CED00020C2D00020D8
:104D0000C0D000209F860100FE480069FD49496926
:104D1000401A4FF47A714843FB490968B0FBF1F03F
:104D2000F84908630846006BF84988422BD20020F6
:104D300010212D22CDE900210290F5480078F54997
:104D4000097801EB40000390F3480388F348028898
:104D5000F34800781C30039903F0AAFF102000905C
:104D6000E848006B0390EA480078EA49097801EBCB
:104D70004000082302900146E94800782430039A55
:104D800004F062F839E4002010212D22CDE9002141
:104D90000290DF480078DF49097801EB400003907A
:104DA000DD480388DD480288DD4800781C3003991F
:104DB00003F07EFF10200090D5480078D54909788F
:104DC00001EB40000823D14A01460390D448007803
:104DD000243004F039F80DE20498B0F5000F26D124
:104DE000D0480078012806D1CF480068CF49086034
:104DF000CF490860FEE1CF480078032809D101209F
:104E0000CD490870C8480068C8490860CB490860A7
:104E1000F0E1C84800780228B4D1C9480078401CA5
:104E2000C7490870C0480068C6490860E2E10498B4
:104E3000B0F1006F76D1BB4800780128A2D14FF6BF
:104E4000FF70B6490880E720B3490880B64800687B
:104E5000B6490968401AAB498860BB48B0F9000000
:104E60004FF47A714843A7498968B0FBF1F0A5492E
:104E70008861B048007803282AD1102000900846A5
:104E800080680390A248007800EB4000A1490978AF
:104E90000844092302900146AC4800781C30039A6C
:104EA00003F0D2FF10200090964880690390984844
:104EB000007800EB400097490978084409230290E4
:104EC0000146974800781C30039A03F0BDFFCEE3FB
:104ED000102000908B48806803908D4800788D49A1
:104EE000097801EB400009230290014697480078B9
:104EF0001C30039A03F0A8FF1020009081488069BD
:104F00000390834800788349097801EB4000092326
:104F100002900146824800781C30039A03F094FF07
:104F2000A5E3FFE70498B0F5800F7DD17D480078B8
:104F300001280DD17C4800688549086085490860D2
:104F4000084600687A490968401A834908608EE378
:104F500078480078032868D1774800780028B6D0D0
:104F60000020754908704FF6FF706C490880E720F3
:104F7000694908806C4800686C490968401A6149B1
:104F800048627648B0F900004FF47A7148435D49B1
:104F9000496AB0FBF1F05B49C862102000900846F6
:104FA000406A03905A4800786D49097801EB400047
:104FB000092302900146654800782130039A03F0E6
:104FC00043FF102000904F48C06A0390504800787B
:104FD0006349097801EB40000923029001465048DB
:104FE00000782130039A03F02FFF524800780328FD
:104FF00096D1524800685B490968401A5A490860CE
:105000001020092300900846026855480178803135
:105010004E480078213003F017FF3A48C06A3949FA
:10502000896A401A002801E01CE10DE105DC3548E1
:10503000C06A3449896A401A62D13248C06A31492B
:10504000896A401A4FF47A71484347490968B0FBAE
:10505000F1F02C4988630846806B2C4988422BD29A
:10506000002010212022CDE900210290284800785C
:105070003B49097801EB80000390274803882748C3
:105080000288274800782130039903F011FE102090
:1050900000901C48806B03901D48007830490978C7
:1050A00001EB80000823029001461D48007829305A
:1050B000039A03F0C9FEDAE2002010212022CDE994
:1050C00000210290124800782549097801EB800000
:1050D0000390114803881148028811480078213054
:1050E000039903F0E5FD10200090094800781C4961
:1050F000097801EB80000823044A0146039035E05B
:105100003AE0000054D40020E4D000209F86010043
:10511000C0D00020C3D0002038D2002036D20020DA
:10512000C4D00020D0D000206CD20020B8D0002005
:10513000DCD0002007D00020CAD00020F0D0002012
:10514000FBD0002008D10020CCD00020C1D000200E
:10515000BCD00020E0D00020E8D00020CED000203D
:10516000C2D00020ECD00020F4D00020F848007815
:10517000293003F069FE7AE2F648806AF549C96A87
:10518000401A4FF47A714843F3490968B0FBF1F0D3
:10519000F04988630846806BF04988422BD2002092
:1051A00010212D22CDE900210290ED480078ED4933
:1051B000097801EB80000390EB480388EB480288F4
:1051C000E34800782130039903F072FD102000902D
:1051D000E048806B0390E2480078E249097801EBEF
:1051E0008000082302900146D94800782930039AAC
:1051F00003F02AFE3BE2002010212D22CDE9002100
:105200000290D7480078D749097801EB80000390D5
:10521000D5480388D5480288CD48007821300399C5
:1052200003F046FD10200090CD480078CD49097864
:1052300001EB80000823C94A01460390C448007866
:10524000293003F001FE12E2C9480078022892D109
:10525000C8480078401CC7490870C7480068C7495B
:10526000086004E20498B0F1806F7DD1C4480078F2
:105270000128BFD14FF6FF70BC490880E720BA492A
:105280000880BD480068BF490968401AB149C86034
:10529000BD48B0F900004FF47A714843AD49C96880
:1052A000B0FBF1F0AB49C861B148007803287CD16C
:1052B000102000900846C0680390A9480078B349C0
:1052C000097801EB8000092302900146B04800787C
:1052D0001C30039A03F0B8FD102000909D48C0696F
:1052E00003909F480078A949097801EB80000923C1
:1052F00002900146964800781C30039A03F0A4FD02
:10530000102000909648007800EB80009F490978B3
:105310000844092303909F4802689D4800781C3088
:10532000039903F091FD8B48C0698A498969401A45
:10533000002805DC8748C06986498969401A70D110
:105340008448C06983498969401A4FF47A71484397
:1053500090490968B0FBF1F07E4948630846406B0C
:105360007E49884231D200E016E10020102120223F
:10537000CDE9002102907A48007800EB8000834953
:105380000978084403907848038878480288704870
:1053900000781C30039903F08BFC102000906D48BE
:1053A000406B03906E48007800E0A6E000EB8000C0
:1053B0007649097808440823029001466448007839
:1053C0002430039A03F040FD51E1002010212022F7
:1053D000CDE9002102906248007800EB80006B4923
:1053E0000978084403906048038860480288584858
:1053F00000781C30039903F05BFC102000905848A3
:10540000007800EB80006149097808440823534A7A
:10541000014603904E480078243003F015FD26E144
:10542000FFE74C4880694B49C969401A4FF47A71CB
:10543000484358490968B0FBF1F0464948630846BB
:10544000406B464988422DD2002010212D22CDE903
:10545000002102904248007800EB80004B49097817
:105460000844039040480388404802883848007840
:105470001C30039903F01CFC102000903548406B51
:1054800003903748007800EB8000404909780844D1
:105490000823029001462E4800782430039A03F036
:1054A000D3FCE4E0002010212D22CDE90021029060
:1054B0002B48007800EB80003449097808440390B9
:1054C0002948038829480288214800781C3003991C
:1054D00003F0EEFB102000902148007800EB8000E4
:1054E0002A490978084408231C4A014603901848B1
:1054F0000078243003F0A8FCB9E010200090154893
:10550000C06803901648007800EB40001F490978F6
:1055100008440923029001461D4800781C30039A74
:1055200003F092FC102000900A48C06903900C48D8
:10553000007800EB400015490978084409230290DF
:105540000146034800781C30039A03F07DFC8EE08E
:10555000C4D0002054D40020F4D000209F86010045
:10556000C0D00020C2D0002038D2002036D2002087
:1055700007D00020FCD000206CD200200CD10020ED
:10558000D0D00020BCD00020CCD00020C3D0002040
:10559000C1D00020E8D000200498B0F5806F31D150
:1055A0000120FE49087003F0D1F80020FC49086092
:1055B000FC490860FC490860FC490860FC49086037
:1055C000FC490860FC490860FC490870FC49087007
:1055D000FC490870FC4908704FF6FF700090FB48CA
:1055E00040881E3880B20390F94800781E3880B297
:1055F00002904FF4B9722C21039B03F00FFAFDF7D0
:10560000C7FD34E00498B0F5006F30D10220E349C3
:10561000087003F09BF80020E1490860E149086048
:10562000E1490860E1490860E1490860E149086032
:10563000E1490860E1490870E1490870E1490870F2
:10564000E14908704FF6FF700090E04840881E382E
:1056500080B20390DE4800781E3880B202904FF48A
:10566000B9722C21039B03F0D9F9FDF791FDD348C2
:105670000078D3490978884269D1CD480068CB4980
:105680000968884264D94FF6FF70D2490880E72044
:10569000D1490880C6480068C4490968401ACF4902
:1056A0000862CF48B0F900004FF47A714843CB4903
:1056B000096AB0FBF1F0C9498862102000900846E1
:1056C000006AC8490390097809230246C04802913C
:1056D0000078213003F0B8FBC3480078A0B900205F
:1056E00010212022CDE900210290BE49097808440A
:1056F0000390B9480388B7480288BC480078213035
:10570000039903F0D5FA13E0002010212D22CDE9F2
:1057100000210290B349097808440390AE480388F9
:10572000AC480288B14800782130039903F0C0FAF0
:1057300010200090A948806AAA490390097808239C
:105740000246AA4802910078293003F07DFB6AE006
:105750009748006895490968884264D24FF6FF70FF
:105760009C490880E7209C4908809048006890493F
:105770000968401A994908629948B0F900004FF445
:105780007A7148439549096AB0FBF1F09349886200
:10579000102000900846006A924903900978092376
:1057A00002468B4802910078213003F04DFB8E4871
:1057B0000078012814D1002010212022CDE90021F9
:1057C00002908849097808440390834803888148F7
:1057D0000288864800782130039903F069FA13E0C3
:1057E000002010212D22CDE9002102907D49097869
:1057F0000844039078480388764802887B480078FC
:105800002130039903F054FA102000907348806A05
:10581000744903900978082302467448029100787D
:10582000293003F011FB67480078674909788842FE
:1058300079D1614800685F490968884275D94FF697
:10584000FF7064490880E720634908805A4800686F
:1058500058490968401A614948626148B0F9000036
:105860004FF47A7148435D49496AB0FBF1F05B49F6
:10587000C862102000900846406A03905C48007897
:105880005849097801EB400009230290014650482D
:1058900000782130039A03F0D7FA53480078B8B95A
:1058A000002010212022CDE90021029050480078EC
:1058B0004C49097801EB400003904748038845486C
:1058C00002884A4800782130039903F0F1F916E084
:1058D000002010212D22CDE90021029044480078BB
:1058E0004049097801EB400003903B480388394860
:1058F00002883E4800782130039903F0D9F910203E
:1059000000903648C06A03903948007835490978D4
:1059100001EB40000823029001463448007829300A
:10592000039A03F091FAA9E0FFE7234800682149B0
:105930000968884276D24FF6FF7026490880E72032
:10594000254908801B4800681B490968401A2349FB
:1059500048622348B0F900004FF47A7148431F4968
:10596000496AB0FBF1F01D49C8621020009008465A
:10597000406A03901E4800781A49097801EB4000FC
:10598000092302900146124800782130039A03F05F
:105990005BFA15480078012845D12BE0D0D00020D3
:1059A000E4D00020E8D00020F4D0002000D1002076
:1059B00004D1002008D100200CD10020F9D0002013
:1059C000FAD00020FBD00020FCD0002044D40020DE
:1059D000C1D0002036D2002038D2002054D400207C
:1059E000CED00020C2D00020F8D00020C4D00020AB
:1059F000C0D00020002010212022CDE900210290FB
:105A0000384800783849097801EB4000039037485E
:105A1000038837480288374800782130039903F01B
:105A200047F917E02AE0002010212D22CDE90021BE
:105A300002902C4800782C49097801EB4000039033
:105A40002A4803882A4802882A4800782130039986
:105A500003F02EF9102000902748C06A03902148D7
:105A600000782149097801EB4000082302900146A3
:105A7000204800782930039A03F0E6F9049805B02D
:105A800000BD10B51D491E48FBF779FF10BD10B5CC
:105A900000210846FEF7F1F910BD10B54FF6FF7072
:105AA00002F0F4F902F052FE0120164908700020BD
:105AB00015490860154908601549086015490870BE
:105AC00015490860154908601549086015490860BE
:105AD000154908701549087015490870154908706E
:105AE00010BD0000C0D00020C2D0002038D200205D
:105AF00036D20020C4D0002054D40020C70DF00FAF
:105B0000AB450020D0D00020E4D00020E8D0002019
:105B1000F4D00020F8D0002000D1002004D10020D3
:105B200008D100200CD10020F9D00020FAD00020AC
:105B3000FBD00020FCD0002010B5FCF733FFE7209D
:105B4000F94908804FF6FF70F84908804FF4A073B8
:105B5000B42240F227116C2002F0ECFF4FF4A07346
:105B60004FF4827240F22711B42002F0E3FF4FF4A9
:105B7000A0734FF4A87240F227114FF4827002F024
:105B8000D9FF10BDFEB505460E46E7200090E84857
:105B9000028814230021084602F040FF0120102152
:105BA000E4A21F23CDE9002102904FF6FF720221EB
:105BB000002003F080FC4FF6FF700090DC48438823
:105BC00002881421002002F029FFE048007810210B
:105BD000DFA2CDE900210290E3480388E348028870
:105BE0002821142003F0E3FBD84800781021E0A21C
:105BF000CDE900210290DC480388DC480288282196
:105C00004FF4877003F0D3FB4FF6FF70C64908804E
:105C1000E720C6490880CD4800781021DBA2CDE9F5
:105C200000210290D0480388D0480288E3480178D8
:105C3000E348007803F0BBFBC44800781021E1A2E0
:105C4000CDE900210290DD480078E04A1278811801
:105C5000C5480388C5480288D948007803F0A7FBE7
:105C600010200090DA480268D4480078D74B1B789F
:105C7000C1180623D2480078403003F0E5F8B34855
:105C800000781021D3A2CDE900210290CB48007802
:105C9000CE4A12788118B4480388B4480288C848AC
:105CA0000078823003F083FB10200090C8484268DF
:105CB000C2480078C54B1B78C1180623C04800783D
:105CC000C23003F0C1F8A14800781021C3A2CDE989
:105CD00000210290B9480078BC4A12788118A24885
:105CE0000388A2480288B648007800F5827003F065
:105CF0005EFB10200090B6488268B0480078B34B35
:105D00001B78C1180623AE48007800F5A27003F096
:105D10009BF88E4800781021B2A2CDE900210290B4
:105D2000AA480078A54A127802EB40018E48038801
:105D30008E480288A248007803F039FB8348007837
:105D40001021A0A2CDE900210290A048007800EB2C
:105D500040009A4A12788118834803888348028851
:105D60009748007803F023FB102000909848C26801
:105D70009648007800EB4000904B1B78C118062332
:105D80008F480078403003F05FF8704800781021A9
:105D900090A2CDE9002102908C48007800EB4000F1
:105DA000864A1278811870480388704802888448AF
:105DB0000078823003F0FBFA1020009084480269DA
:105DC0008248007800EB40007C4B1B78C11806230A
:105DD0007B480078C23003F037F85C480078102127
:105DE0007EA2CDE9002102907848007800EB4000C7
:105DF000724A127881185C4803885C4802887048AF
:105E0000007800F5827003F0D2FA102000907048FC
:105E100042696E48007800EB4000684B1B78C1185F
:105E200006236748007800F5A27003F00DF8474894
:105E30000078102177A2CDE9002102904A4803881A
:105E40004A48028840F21111E82003F0B0FA10200D
:105E500002230090734890F9002040F211114FF492
:105E6000A47003F045F83948007810216EA2CDE9FE
:105E7000002102903C4803883C48028840F21111FE
:105E80004FF4AC7003F093FAE720274908804F4A9B
:105E9000127802EB4202494C2478224402F1250395
:105EA000464A1278153A91B2454A1278521F90B27A
:105EB000434A127802F2791202F03CFE234800783D
:105EC00010215BA2CDE900210290274803882748D2
:105ED000028840F211113A48007803F068FA1B4832
:105EE0000078102158A2CDE9002102901E480388B5
:105EF0001E48028856214FF4C87003F058FA5548DE
:105F0000007880B111480078102153A2CDE900211A
:105F10000290154803881548028874214FF4C9700F
:105F200003F045FAAEE09DE036D2002038D20020E2
:105F300044D40020B9E2B5E7BCC6CAB1CAFDD7D681
:105F4000CAB5D1E9CFB5CDB3000000006DD10020B6
:105F5000CAB5D1E934A3BAB2E2C1BFC5F6D7B2D649
:105F6000D0B5C4B6AFC1BF0068D100206AD100204F
:105F7000CFB5CDB3BCC6CAB1CAB1BCE43A2020206B
:105F8000202020202020206D20730000BEADB9FD10
:105F9000B9E2B5E7B4ABB8D0C6F7B5C43132B5C4D1
:105FA000CBB2CAB1CBD9B6C85631323A28B5A5CE94
:105FB000BB3A206D206D2F732900000081D1002095
:105FC00080D10020B5DA31B4CE3A000082D1002071
:105FD00014D40020B5DA32B4CE3A0000B5DA33B4C6
:105FE000CE3A0000BEADB9FDB9E2B5E7B4ABB8D06A
:105FF000C6F7B5C43334B5C4CBB2CAB1CBD9B6C871
:106000005633343A28B5A5CEBB3A206D206D2F7398
:1060100029000000B4ABB8D0C6F7BEE0C0EBA3BA0D
:1060200000000000B2D10020206D206D00000000B3
:10603000B0B4BCFC4B45595F30C7D0BBBBCBD9B665
:10604000C8B7BDCFF2000000CBD9B6C8B7BDCFF2FC
:10605000A3BA0000B1D1002034333231CEAAD5FD2D
:1060600000000000FD4800781021FDA2CDE90021CC
:106070000290FE480388FE48028874214FF4C970DC
:1060800003F095F9FFF758FD002438E0E720F949BF
:10609000088032276743A637DFF8DCC39CF800C0CE
:1060A00067441037BBB2F44F3F7807F5E2723227EE
:1060B0006743A637DFF8C0C39CF800C0A7EB0C0706
:1060C000B9B2ED4F3F78C7F5D27002F033FDE34827
:1060D00000781021E9A23223CDE90021029004FBCF
:1060E00003F202F1A601E44A1278C2F5CA7290B234
:1060F000DE4A1388E72203F05AF9601CC4B2032C6D
:10610000C4DB00201021DE4A0346CDE900210290C5
:106110004FF6FF724FF4987103F049F9E720D54923
:1061200008804FF6FF70D74908804FF4A073B4225F
:1061300040F227116C2002F0FDFC4FF4A0734FF4E5
:10614000827240F22711B42002F0F4FC4FF4A073E5
:106150004FF4A87240F227114FF4827002F0EAFC6B
:10616000FEBD10B5FCF79DFDC748008A6C2818DD00
:10617000C548008AB42814DAC348408A40F227117F
:1061800088420EDDC048408AB0F5A07F09DABF48DA
:10619000007830B10020BD4908700120FBF709FCF0
:1061A00019E0B948008A6C2812DDB748008AB42883
:1061B0000EDAB548408A40F22711884208DDB2481D
:1061C000408AB0F5A07F03DAB1480068012802D107
:1061D0000120AE490870AC48008AB42819DDAA48ED
:1061E000008AB0F5827F14DAA748408A40F227116E
:1061F00088420EDDA448408AB0F5A07F09DAA548A0
:10620000007830B10020A34908700220FBF7D1FBD1
:106210001AE09D48008AB42813DD9B48008AB0F537
:10622000827F0EDA9848408A40F22711884208DDC2
:106230009548408AB0F5A07F03DA954800680128A8
:1062400002D10120934908708F48008AB0F5827FFF
:1062500019DD8D48008AB0F5A87F14DA8A48408A93
:1062600040F2271188420EDD8748408AB0F5A07FB2
:1062700009DA8948007830B1002087490870042085
:10628000FBF797FB1BE08048008AB0F5827F13DDA7
:106290007D48008AB0F5A87F0EDA7B48408A40F23C
:1062A0002711884208DD7848408AB0F5A07F03DADC
:1062B00077480068012802D101207749087010BD95
:1062C00000207649086048608860C86008614861BD
:1062D00073490870734908707349087073490870EE
:1062E00007207349087000207249087072490860DD
:1062F000704701B586B07148007804287ED10698B1
:10630000012837D16E480078401C6D490870084656
:106310000078059000EBD07041100598A0EB41008B
:1063200098B90020634908704C48007810214CA2AD
:10633000CDE9002102904D4803884D480288742120
:106340004FF4C97003F033F839E10120594908705E
:10635000424800781021AFF20032CDE900210290CE
:10636000424803884248028874214FF4C97003F000
:106370001EF824E10698022820D14D480078401EDE
:1063800040B24B490870084690F90000002801DA35
:10639000002008704FF6FF7036490880E720394921
:1063A0000880102002230090414890F9002040F21C
:1063B00011114FF4A47002F09BFD00E1069804282F
:1063C00022D13B480078401C40B239490870084649
:1063D00090F90000632801DD632008704FF6FF701C
:1063E00024490880E72027490880102002230090D4
:1063F0002F4890F9002040F2111100E0C1E34FF462
:10640000A47002F075FDDAE00698802814D1FFF739
:1064100093FB1248007810212AA248F21003CDE91C
:10642000002102904FF6FF72A6214FF4D27002F0C5
:10643000BEFF02F082F9C2E00698B0F5807F55D128
:1064400002F084F94FF6FF7001F020FDFFF738FFEE
:1064500000210846FFF796FB004837E06DD1002089
:1064600031323334CEAAD5FD0000000068D10020BF
:106470006AD1002036D200206CD10020F7CE000077
:1064800083D1002038D200203CD20020AED10020A1
:1064900028812342AFD10020B0D1002014D40020A5
:1064A000B3D10020B4D10020B5D10020B6D1002056
:1064B000B2D10020B1D100206CD2002007D0002042
:1064C000B7D10020BFAACABC00000000007810218C
:1064D000FEA248F21003CDE9002102904FF6FF72B0
:1064E000D8214FF4D27002F062FF68E0069840288D
:1064F00016D1FFF721FBF74800781021F6A248F2E9
:106500001003CDE9002102904FF6FF724FF4857120
:106510004FF4D27002F04BFF0020F14908704EE0BA
:106520000698B0F5801F0FD1EE480068EE4908606C
:10653000EE480078401CED490870084600780328B2
:106540003DDD012008703AE00698B0F5001F0FD13C
:10655000E4480068E6490860E6480078401CE549E0
:10656000087008460078032829DD0120087026E01D
:106570000698B0F5000F0FD1DA480068DE490860D0
:10658000DE480078401CDD49087008460078032882
:1065900015DD0120087012E00698B0F5800F0ED1CD
:1065A000D0480068D6490860D6480078401CD549D4
:1065B000087008460078032801DD01200870CB48E8
:1065C0000078CC490978884270D1C9480068C6492A
:1065D000096888427ED94FF6FF70CB490880E720D2
:1065E000CA490880C2480068BF490968401AC849BA
:1065F0000862C84890F900004FF47A714843C449D2
:10660000096AB0FBF1F0C2498862B84800780128F5
:106610004DD10846806AC0490860C0480078C8B1BA
:10662000002010212D22CDE900210290BC480078E5
:10663000BC49097808440590BB480078383080B2DE
:106640000490B2480388B0480288DDE9040102F0F2
:106650002FFB18E0002010212022CDE9002102901C
:10666000AF480078AF49097808440590AE480078F3
:10667000383080B20490A5480388A3480288DDE939
:10668000040102F015FB10200090A348006805905B
:10669000A3480078A34909780844062304900146DA
:1066A000A14800784030059A02F0CEFBECE18F481B
:1066B000007802284FD19648806A974948609748E9
:1066C0000078D8B1002010212D22CDE900210290C0
:1066D000934800E094E000789249097808440590D6
:1066E00091480078BA3080B2049088480388864880
:1066F0000288DDE9040102F0DBFA18E00020102135
:106700002022CDE90021029085480078854909784A
:106710000844059084480078BA3080B204907B48E1
:10672000038879480288DDE9040102F0C1FA1020EB
:10673000009079484068059079480078794909784F
:10674000084406230490014677480078C230059A31
:1067500002F07AFB98E1654800780328A6D16C48DE
:10676000806A6D4988606D480078D0B100201021A2
:106770002D22CDE900210290694800786949097805
:10678000084405906848007800F59E7080B2049037
:106790005E4803885C480288DDE9040102F088FA5B
:1067A00019E0002010212022CDE9002102905C4850
:1067B00000785C490978084405905B48007800F54A
:1067C0009E7080B20490514803884F480288DDE9EA
:1067D000040102F06DFA102000904F488068059087
:1067E0004F4800784F490978084406230490014631
:1067F0004D48007800F5A270059A02F025FB43E1B0
:106800004FF6FF7040490880E7204049088036482D
:10681000006837490968401A3D4908623D4890F9C7
:1068200000004FF47A7148433949096AB0FBF1F02E
:10683000374988622D48007801287FD10846806A50
:106840003549086035480078C8B100201021202261
:10685000CDE9002102903248007832490978084495
:10686000059031480078383080B20490274803887A
:1068700025480288DDE9040102F01AFA18E0002038
:1068800010212D22CDE900210290254800782549CC
:1068900009780844059024480078383080B2049084
:1068A0001A48038818480288DDE9040102F000FA5A
:1068B0001020009018480068059019480078194980
:1068C0000978084406230490014630E0C7E5C1E397
:1068D000000000006DD10020B7B5BBD8000000005B
:1068E00007D000206CD2002070D10020B3D100204E
:1068F00074D10020B4D1002078D10020B5D100207F
:106900007CD10020B6D1002036D2002038D2002021
:1069100054D40020B2D1002014D40020B1D10020E2
:1069200081D1002082D1002080D1002006E0FE48E5
:1069300000784030059A02F087FAA5E0FB4800781D
:1069400002284DD1FA48806AFA494860FA4800782E
:10695000C8B1002010212022CDE900210290F74883
:106960000078F749097808440590EF480078BA3074
:1069700080B20490F3480388F3480288DDE90401FB
:1069800002F096F918E0002010212D22CDE9002117
:106990000290EA480078EA49097808440590E248FC
:1069A0000078BA3080B20490E6480388E64802884E
:1069B000DDE9040102F07CF910200090DD48406818
:1069C0000590DE480078DE490978084406230490E3
:1069D0000146D5480078C230059A02F035FA53E0F6
:1069E000D248007803284FD1D148806AD1498860C5
:1069F000D1480078D0B1002010212022CDE900211B
:106A00000290CE480078CE49097808440590C648DF
:106A1000007800F59E7080B20490CA480388CA4886
:106A20000288DDE9040102F043F919E00020102199
:106A30002D22CDE900210290C0480078C049097894
:106A400008440590B848007800F59E7080B2049024
:106A5000BC480388BC480288DDE9040102F028F93B
:106A600010200090B34880680590B4480078B4497D
:106A700009780844062304900146AB48007800F5E5
:106A8000A270059A02F0E0F9B0480078B0490978A0
:106A9000884276D1AF480068AF490968884271D909
:106AA0004FF6FF70A8490880E720A6490880A9484A
:106AB0000068A9490968401A9D494862A74890F9A9
:106AC00000004FF47A7148439949496AB0FBF1F0EC
:106AD0009749C8629D480078012854D10846C06A89
