:020000040800F2
:10000000E80A00204D6A0008556A0008576A00088F
:10001000596A00085B6A00085D6A00080000000079
:100020000000000000000000000000005F6A0008FF
:10003000616A000800000000636A0008656A000841
:10004000676A0008676A0008676A0008676A00084C
:10005000676A0008676A0008676A0008676A00083C
:10006000135E0008515E00088F5E0008676A000892
:10007000676A0008676A0008676A0008676A00081C
:10008000676A0008676A0008676A0008676A00080C
:10009000676A0008676A0008676A0008CD5E0008A2
:1000A000676A0008676A0008676A0008676A0008EC
:1000B000735F0008676A0008EF5F0008676A00085E
:1000C000676A0008676A0008676A0008676A0008CC
:1000D000676A0008676A0008676A0008676A0008BC
:1000E000676A0008676A0008676A0008676A0008AC
:1000F000676A0008676A0008676A0008676A00089C
:10010000676A0008676A0008676A0008676A00088B
:10011000676A0008676A0008676A0008676A00087B
:10012000676A0008676A0008676A0008676A00086B
:1001300000F002F800F05AF80AA090E8000C82449F
:100140008344AAF10107DA4501D100F04FF8AFF27C
:10015000090EBAE80F0013F0010F18BFFB1A43F0A5
:1001600001031847009E0000209E00000A444FF043
:10017000000C10F8013B13F0070408BF10F8014B06
:100180001D1108BF10F8015B641E05D010F8016B4B
:10019000641E01F8016BF9D113F0080F1EBF10F8AF
:1001A000014BAD1C0C1B09D16D1E58BF01F801CBD2
:1001B000FAD505E014F8016B01F8016B6D1EF9D555
:1001C0009142D6D37047000000230024002500266A
:1001D000103A28BF78C1FBD8520728BF30C148BFAA
:1001E0000B6070471FB51FBD10B510BD08F0A0F81B
:1001F0001146FFF7F7FF00F009F808F0BEF803B466
:10020000FFF7F2FF03BC08F0C5F800000EB500F0E0
:1002100069FB00F04BFA4FF4A06006F037FC05F0E4
:100220005EFA05F047FD05F0A9FD4721092005F01C
:1002300077FE41F61F41632005F0ACFE05F0D6FCC9
:1002400005F0DCF800F0B4FB00F07CFA00F089FA6D
:10025000DFF800B40020CBF80000DFF8FC83FF4F8C
:100260004FF6FF794FF0E70A002005F0E1F8FC486F
:10027000006818B1FB480121016002E0F949002043
:100280000860F948007801280AD002287DD00328A8
:100290007CD004287BD005287AD0062879D0D8E1F4
:1002A000A7F80090A8F800A0F04E6425102430684C
:1002B0000A23B0FBF5F26021D220009406F084F806
:1002C0000021CDE901412E200090B8F800303A8895
:1002D00060214FF4917005F0CBFF30680223B0FB32
:1002E000F5F105FB110260214FF49570009406F0C2
:1002F000BBF870680A23B0FBF5F29221D22000947B
:1003000006F062F82E21CDE9001400200290B8F822
:1003100000303A8892214FF4917005F0A9FF70687F
:100320000223B0FBF5F105FB110292214FF4957009
:10033000009406F099F8B0680A23B0FBF5F2C421E6
:10034000D220009406F040F82E21CDE900140020C0
:100350000290B8F800303A88C4214FF4917005F04B
:1003600087FFB0680223B0FBF5F105FB1102C42141
:100370004FF49570009406F077F8F0680A23B0FB0C
:10038000F5F2F621D220009404E044E06FE09AE018
:10039000C5E0F7E006F018F82E21CDE900140020A2
:1003A0000290B8F800303A88F6214FF4917005F0C9
:1003B0005FFFF0680223B0FBF5F105FB1102F621A7
:1003C0004FF49570009406F04FF8DBF80000072317
:1003D000B0FBF5F228214FF4BC70009405F0F4FF57
:1003E0002E21CDE9001400200290B8F800303A88A0
:1003F00028214FF4D87005F03BFFDBF80000022302
:10040000B0FBF5F105FB110228214FF4DC700094DC
:1004100006F02AF81DE1A7F80090A8F800A0DBF884
:1004200000006425B0FBF5F21024072316214FF4D9
:10043000BC70009405F0C8FF0021CDE901412E20D9
:100440000090B8F800303A8816214FF4D87005F0C3
:100450000FFFDBF800000223B0FBF5F105FB1102F2
:1004600016214FF4DC70009405F0FEFFF1E0A7F8D0
:100470000090A8F800A0DBF800006425B0FBF5F2BE
:100480001024072316214FF4BC70009405F09CFF44
:100490002E21CDE9001400200290B8F800303A88EF
:1004A00016214FF4D87005F0E3FEDBF800000223BC
:1004B000B0FBF5F105FB110216214FF4DC7000943E
:1004C00005F0D2FFC5E0A7F80090A8F800A0DBF87F
:1004D00000006425B0FBF5F21024072316214FF429
:1004E000BC70009405F070FF2E21CDE900140020AF
:1004F0000290B8F800303A8816214FF4D87005F011
:10050000B7FEDBF800000223B0FBF5F105FB11029A
:1005100016214FF4DC70009405F0A6FF99E0BE258B
:100520009626A7F800A0A8F800905148202400942F
:1005300002686E210723284606F002F8DBF8001057
:100540004FF47A70B1FBF0F2032331462846009451
:1005500005F0F6FF0B200090B8F800303A883146DD
:10056000EE2005F0C4FFDBF800104FF47A70B1FB09
:10057000F0F200FB121203233146FE20009405F036
:10058000DFFF66E0A7F80090A8F800A0394CDBF880
:10059000002022612068002872D0A18A401EB0FB92
:1005A000F1F060606068B2FBF0F0A0603249B1FB2E
:1005B000F0F0E060314E1025009530780623502190
:1005C000403005F001FF009530780623822140304D
:1005D000A26805F0F9FEE1686420B1FBF0F2009535
:1005E00030780323B421403005F0EEFE2E21CDE912
:1005F0000015002002903078B8F800303A88B42115
:10060000583005F035FEE1686420B1FBF0F200FBE4
:100610001212009530780223B421603005F024FFD7
:1006200000953078A28A06235021EB3005F0CCFEED
:100630000095307806238221EB30226805F0C4FE55
:10064000009530780623B42100F20310626805F0AB
:10065000BBFE16E0600200202C0200202A020020CF
:1006600028812342940123420700002048040020EF
:10067000C801002020040020A08601000000002006
:1006800012E0A7F800A000234FF4F07422461946A8
:10069000184605F0EDFC012322461946002005F01E
:1006A000E7FCA7F80090DFE560607BE710B56FF02E
:1006B000040006F033FA204820490068B0FBF1F04E
:1006C0001F49C0B2087000EB4002C2EBC0104FF6E9
:1006D000FF7202EAC000488010BD194909784843FA
:1006E0004FF0E021486100238B61086940F0010070
:1006F00008610869C20701D0C003FAD5086920F073
:10070000010008618B6170470D49498848434FF0EB
:10071000E021486100238B61086940F00100086115
:100720000869C20701D0C003FAD5086920F00100AA
:1007300008618B61704700000800002000127A00F9
:100740000200002010B500F068FE01F068F903F027
:1007500007FA04F015F904F005FBBDE8104004F0B9
:1007600027BE344900204870704770B50446314DAB
:100770002878844238D0072819D2DFE800F004072F
:100780000A0D1013160000F051FE10E001F04FF9B1
:100790000DE003F0EDF90AE003F0EAF907E004F0F8
:1007A000F8F804E004F0E6FA01E004F009FE072C92
:1007B00019D2DFE804F004070A0D1013160000F048
:1007C00031FE10E001F030F90DE003F0CDF90AE060
:1007D00003F0CAF907E004F0D8F804E004F0C7FA1F
:1007E00001E004F0EAFD2C7070BD12484078072843
:1007F00013D2DFE800F00406080A0C0E100000F027
:10080000B5BB00F04CBF02F009B802F007B803F026
:10081000BABB04F081B904F018BC704710B50648A3
:1008200041680020884703484078FFF79EFFBDE8F5
:100830001040DAE706000020340200200CB5002248
:10084000019200925248016841F4803101604FF4F6
:10085000A063016801F4003100910199491C0191E4
:10086000009911B901999942F3D10168890302D520
:100870000121009100E000920099012930D1454901
:100880000A6842F010020A600A6822F003020A6055
:100890000A6842F002020A604168416041684160B2
:1008A000416841F480614160416821F47C114160FC
:1008B000416841F4E8114160016841F080710160D4
:1008C00001688901FCD5416821F00301416041685C
:1008D00041F0020141604168C1F381010229FAD16E
:1008E0000CBDABE710B52A48016841F00101016079
:1008F0004168294A114041600168284A114001605D
:10090000016821F480210160416821F4FE01416009
:100910004FF41F018160FFF7E4FF21494FF00060B1
:10092000086010BD10B51A4A506800F00C011D4B4C
:100930001D4800290ED004290ED008290ED00360CE
:100940005168194AC1F30311121D515C0268CA4073
:10095000026010BD0360F3E70360F1E7516801F442
:100960007011536803F48033022404EB914133B1D6
:1009700053689B0307D50D4B59430160E0E70B4BD0
:1009800059430160DCE7074B59430160D8E7000099
:1009900000100240002002400000FFF8FFFFF6FEBA
:1009A00008ED00E000127A000800002000093D0078
:1009B0004FF4C871154807F091BC10B50022134BD5
:1009C00053F8324024B1521CD2B2322AF8D310BDAF
:1009D00043F8320003EBC20041600D490878401C27
:1009E000087010BD70B50024084D094E0AE005EBF3
:1009F000C4014968014204D055F8341088470028E2
:100A000003D0641C31788C42F1DB70BD7802002089
:100A10001C0000203EB5F94C1025F9A1E078CDE985
:100A200000150290638AA28A6178207805F02AFF77
:100A3000E078F8A1CDE9001502906078A178638A8A
:100A40000144A28A207805F01DFFE078F6A1CDE9E7
:100A5000001502906178A078638A01440144A28A5B
:100A6000207805F00FFFE078F7A1CDE9001502909E
:100A70006178A078638A014401440144A28A207805
:100A800005F000FFE078F6A1CDE90015029061784D
:100A9000A078638A0144014401440144A28A207879
:100AA00005F0F0FEE078F1A1CDE900150290617843
:100AB000A078638A01440144014401440144A28AAC
:100AC000207805F0DFFEE078EEA1CDE90015029078
:100AD0006178A078638A01440144014401440144DF
:100AE00001444FF478424FF4D27005F0CBFE3EBD86
:100AF0002DE9FE4FE54C4FF0E708CDF800800021CE
:100B000022881423084605F090FA01271026E0A059
:100B10008DE8C1004FF6FF7A1F23524602210020C4
:100B200005F026FFB54800231C308DE8C100524671
:100B300004214FF4B97005F0A5FECDF800A060883F
:100B40002288143883B21421002005F06EFA4FF089
:100B50000009D5A0CDE900095346E72264211E20F3
:100B600005F010FEA54DD1A1E723E878CDE90016E8
:100B700002905246AA211E2005F084FEFFF74AFF8C
:100B80000024DFF834A305F1160BAAF8008068787A
:100B9000A97895F800C001FB0401287900F1100242
:100BA0000A4493B21BF80420091A0CEB0212024407
:100BB000ACEB0000383289B280B205F0A5FAE878D3
:100BC000BEA1CDE9001602906878A9786B8A04FB73
:100BD000010081B22878E722283880B205F052FE61
:100BE000641CE4B2062CD0D3A878697800EB4000EE
:100BF0002A7901EB40008318801A81B2103302F584
:100C0000E2724FF4CD7005F07FFA7C480023283063
:100C10008DE841024FF6FF724FF49871184605F0C7
:100C200031FEA7480760BDE8FE8FFEB50646734D4E
:100C30006E71FFF7EFFE6979002310244FF6FF7203
:100C400001290ED0022918D0032924D0042931D03B
:100C500005293FD006294ED008295ED009295ED04B
:100C60006FE06B74E87866A1CDE900140290E72389
:100C70006978287805F006FE63E06B74E87865A172
:100C8000CDE9001402906878A978E7230144287818
:100C900005F0F8FD55E06B74E87863A1CDE9001428
:100CA00002906978A878E72301440144287805F088
:100CB000E9FD46E06B74E87863A1CDE90014029089
:100CC0006978A878E723014401440144287805F0B5
:100CD000D9FD36E06B74E87861A1CDE9001402908B
:100CE0006978A878E7230144014401440144287845
:100CF00005F0C8FD25E06B74E8785CA1CDE900142F
:100D000002906878A978E723084408440844084416
:100D10000144287805F0B6FD13E06B7411E0E87823
:100D200058A1CDE9001402906878A978E723084417
:100D3000084408440844084401444FF4D27005F0C4
:100D4000A1FD6979A879814205D1082905D0092931
:100D500003D05C480670A971FEBD0929FBD1687CEF
:100D6000401CC0B268740228F5D1584A5648106039
:100D7000F1E72DE9F041044652480078002824D1DB
:100D80001E4D0023012695F90F002A7C411E012CDF
:100D90001CD0022C28D00627042C26D0B4F5805F66
:100DA00024D0B4F5005F22D0B4F5804F20D0B4F544
:100DB000004F1ED0B4F5803F1CD0B4F5003F1AD0D0
:100DC000B4F5802F18D0202C17D0CCE048B2E873AF
:100DD000012800DAEE7395F90F00012879D02E74FE
:100DE000C0B2FFF722FFBEE079E07EE092E096E03D
:100DF0009BE0A0E0A5E0AAE0AEE0B1E01E0000208C
:100E0000CAB5D1E931A3BAB2E2C1BFB5B2B9E2CA3B
:100E1000B1BCE400CAB5D1E932A3BAB2E2C1BFCBDA
:100E2000B2CAB1CBD9B6C800CAB5D1E933A3BAB2F8
:100E3000E2C1BFD4C8B1E4CBD9D4CBB6AFB5C4BC42
:100E4000D3CBD9B6C8000000CAB5D1E934A3BAB231
:100E5000E2C1BFC5F6D7B2D6D0B5C4B6AFC1BF00E8
:100E6000CAB5D1E935A3BABCC6CAFD00CAB5D1E935
:100E700036A3BAB2E2C1BFD6DCC6DABACDC6B5C2B5
:100E8000CA000000CDCBB3F60000000038040020FB
:100E9000B9E2B5E7BCC6CAB1CAFDD7D6CAB5D1E971
:100EA000CFB5CDB300000000BBD50000C6BDB4A8CF
:100EB000D6D0D1A7000000002A020020F7CE000003
:100EC00080812142070000200400FA050CED00E0BB
:100ED000FFE71AB32B740120FFF7A7FE43E00629B2
:100EE00041D2C0B2FFF7A1FE3DE0401C40B2E87322
:100EF000062800DDEF7395F90F00062804D02E7444
:100F0000C0B2FFF792FE2EE042B12B740620FFF72D
:100F10008CFE28E00120FFF788FEEE7323E002201C
:100F2000FFF783FE0220E8731DE00320FFF77DFE3C
:100F30000320E87317E00420FFF777FE0420E8732E
:100F400011E00520FFF771FE0520E8730BE0062095
:100F5000FFF76BFEEF7306E00820FFF766FE02E086
:100F60000920FFF762FE2046BDE8F0812DE9F05F21
:100F7000DFF82484DFF8249408F1160498F80020A0
:100F800098F804002378A2EB000A02EB0312434610
:100F900002445B78B9F81010A3EB000C03444846F8
:100FA000383210330025FE4E0127408A8A4510DA78
:100FB00091420ED284450CDA98420AD298F807B0D2
:100FC000BBF1000F05D088F807503803FFF70AFD82
:100FD0000DE08A4509DA914207D2844505DA984244
:100FE00003D2D6F82801012801D188F8077098F8B3
:100FF000002098F80400B9F81010131A8B4224DA74
:1010000094F801C002EB0C1C84440CF1380C6145CF
:101010001BD298F801C098F802A0D444B9F812A0E5
:10102000ACEB000BD34510DA84440CF1100CE24514
:101030000BD298F808C0BCF1000F06D088F8085011
:101040004FF40050FFF7CEFC1CE08B4218DA6378B7
:1010500002EB031202443832914211D298F8011087
:1010600098F802200A44B9F81210131A8B4207DAD2
:1010700010441030814203D2D6F82801012801D152
:1010800088F8087098F8002098F80400B9F8101053
:10109000131A8B4225DA94F802C002EB0C1C84442C
:1010A0000CF1380C61451CD298F801C098F802A0E8
:1010B0000CEB4A0CB9F812A0ACEB000BD34510DADC
:1010C00084440CF1100CE2450BD298F809C0BCF135
:1010D000000F06D088F809504FF48040FFF782FCDB
:1010E0001DE08B4219DAA37802EB03120244383276
:1010F000914212D298F8011098F8022001EB4202B6
:10110000B9F81210131A8B4207DA104410308142DA
:1011100003D2D6F82801012801D188F8097098F87F
:10112000002098F80400B9F81010131A8B4226DA40
:1011300094F803C002EB0C1C84440CF1380C61459C
:101140001DD298F802C098F801A00CEB4C0CD444C6
:10115000B9F812A0ACEB000BD34510DA84440CF1C3
:10116000100CE2450BD298F80AC0BCF1000F06D073
:1011700088F80A504FF40040FFF734FC1EE08B4221
:101180001ADAE37802EB031202443832914213D2A6
:1011900098F8021098F8012001EB41010A44B9F8CF
:1011A0001210131A8B4207DA10441030814203D216
:1011B000D6F82801012801D188F80A7098F8002093
:1011C00098F80400B9F81010131A8B4225DA94F835
:1011D00004C002EB0C1C84440CF1380C61451CD299
:1011E00098F801C098F802A00CEB8A0CB9F812A08C
:1011F000ACEB000BD34510DA84440CF1100CE24543
:101200000BD298F80BC0BCF1000F06D088F80B5039
:101210004FF48030FFF7E6FB1DE08B4219DA2379AB
:1012200002EB031202443832914212D298F80110B4
:1012300098F8022001EB8201B9F812200B1A9342B0
:1012400007DA08441030824203D2D6F82801012878
:1012500001D188F80B7098F8002098F80400B9F8CC
:101260001010131A8B4226DA94F805C002EB0C1CFE
:1012700084440CF1380C61451DD298F802C098F8EE
:1012800001A00CEB8C0CD444B9F812A0ACEB000B11
:10129000D34510DA84440CF1100CE2450BD298F8D7
:1012A0000CC0BCF1000F06D088F80C504FF4003091
:1012B000FFF798FB1EE08B421ADA637902EB031208
:1012C00002443832914213D298F8021098F8012063
:1012D00001EB81010A44B9F81210131A8B4207DAA4
:1012E00010441030814203D2D6F82801012801D1E0
:1012F00088F80C70B9F810004FF4CD74A04220D9D2
:1013000098F8041001F5E27290421AD298F802207F
:1013100098F8013002EB82021344B9F81220A3EBD3
:10132000010C94450DDA194410318A4209D298F81B
:101330000D1031B188F80D504FF48020FFF752FBAB
:101340001DE0A04219D998F8041001F5E27290420C
:1013500013D298F8020098F8012000EB80000244B4
:10136000B9F81200531A834207DA11441031884247
:1013700003D2D6F82801012801D188F80D70B9F8F8
:101380001000A04228D998F8041001F5E2729042AA
:1013900022D298F8022005E01E000020340200202E
:1013A0000080234298F8013002EB420203EB420234
:1013B000B9F81230A2EB010C9C450DDA1144103142
:1013C0008B4209D298F80E1031B188F80E50BDE862
:1013D000F05F2020FFF706BBA0421AD998F804104E
:1013E00001F5E272904214D298F8020098F80120B8
:1013F00000EB400002EB4002B9F81200531A83429E
:1014000007DA11441031884203D2D6F828010128A6
:1014100001D188F80E70BDE8F09F0F49AFF2AD60C2
:10142000FFF7CBBA00210846FFF762BB10B54FF6B5
:10143000FF7004F0BBF809480121C17101724172CB
:101440008172C1720173417381730022C27301748E
:1014500007214171817110BD27F007001E00002097
:10146000FEB5F94C1025F9A16078CDE90015029080
:101470004FF4D276E3882289A621304605F002FA9D
:101480006078F4A1CDE900150290E3882289D82183
:10149000304605F0F7F96078F0A1CDE9001502902B
:1014A000E3884FF478424FF48571304605F0EAF94D
:1014B000FEBD2DE9FE4FEB4CE7250095002122886B
:1014C0001423084604F0B1FD1026E7A1CDE900166B
:1014D00001204FF6FF7702901F233A460221002099
:1014E00005F046FA0097638822881421002004F052
:1014F0009CFDD54CE2A16078CDE900160290E3880E
:1015000022892821142005F0BDF96078E1A1CDE9F8
:1015100000160290E388228928214FF4877005F095
:10152000B1F96078E2A1CDE900160290E388228942
:101530006021822005F0A6F96078E0A1CDE90016CF
:101540000290E38822899221822005F09BF960783D
:10155000DDA1CDE900160290E3882289C421822012
:1015600005F090F96078DBA1CDE900160290E388E0
:101570002289F621822005F085F96078CBA1CDE99A
:10158000001602904FF49F78E3882289602140463C
:1015900005F078F96078C5A1CDE900160290E388DE
:1015A00022899221404605F06DF96078BFA1CDE90E
:1015B00000160290E3882289C421404605F062F9B2
:1015C0006078BAA1CDE900160290E3882289F6215D
:1015D000404605F057F9C248058000254FF05609EE
:1015E0004FF4BC784FF07A0A05EBC50000EB051B01
:1015F00009EB4B010B464246502004F039FD0AEB43
:101600004B010B464246502004F032FD6D1CEDB2FA
:10161000042DE9D34FF4887550222B4656211046ED
:1016200004F026FD40462B460246562104F020FDDC
:10163000FFF716FF00254FF0A60905EBC50022783D
:1016400000EB0518C2EB4800A63002EB480381B25C
:10165000C2F5D270B63302F5E27204F055FD60783F
:10166000A0A1CDE900160290207809EB4801C0F551
:10167000CA70E388E72205F005F96D1CEDB2032D71
:10168000DBD3714900201C31CDE9001603463A46F0
:1016900002904FF4987105F0F5F8BDE8FE8F2DE942
:1016A000F047694CDFF84082002521784046C1F5BB
:1016B000D279B8F81020C1F1A60C01F1B6038B4E17
:1016C0000127408A01F5E27191450FD28A420DD27D
:1016D00084450BDA984209D294F802A0BAF1000FBF
:1016E00004D0A5708020FFF77DF90CE0914509D268
:1016F0008A4207D2844505DA984203D2D6F82801F7
:10170000012800D1A7702078B8F81010C0F5D27267
:101710008A4215D200F5E273994211D2B8F812301C
:10172000C0F1D80C9C450BDA00F1E80C634507D2F8
:10173000E3782BB1E5704FF48070FFF753F913E0B5
:101740008A4210D200F5E27291420CD2B8F812101F
:10175000C0F1D8028A4206DAE830814203D2D6F8D4
:101760002801012800D1E7702078B8F81010C0F5E2
:10177000D2728A4215D200F5E273994211D2B8F8BA
:101780001230C0F5857C9C450BD200F58D7C6345FD
:1017900007D223792BB12571BDE8F0474020FFF730
:1017A00021B98A4211D200F5E27291420DD2B8F805
:1017B0001210C0F585728A4207D200F58D70814201
:1017C00003D2D6F82801012800D12771BDE8F0879F
:1017D0002DE9FE4F0446464F3878012831D11A4D85
:1017E00010264FF0000848F210094FF6FF7A4FF428
:1017F000857B012C26D0022C25D0042C7ED0802C79
:101800007DD0B4F5807F7BD0402C7AD03948B4F5B8
:10181000801F006876D03849B4F1807F73D0B4F56A
:10182000001F71D0B4F1007F6FD0B4F5000F6DD000
:10183000B4F1006F6BD0B4F5800F69D0B4F1806F54
:1018400067D0EAE066E077E068000020BFAACABC83
:1018500000000000C7E5C1E300000000B7B5BBD839
:101860000000000038040020B9E2B5E7BCC6CAB1E8
:10187000CAFDD7D6CAB5D1E9CFB5CDB300000000B7
:10188000CAB5D1E931A3BAB2E2C1BFB5B2B9E2CAB1
:10189000B1BCE400CFB5CDB3BCC6CAB1CAB1BCE4DB
:1018A0003A20202020202020202020206D730000BE
:1018B000B4ABB8D0C6F7313A00000000B4ABB8D032
:1018C000C6F7323A00000000B4ABB8D0C6F7333ADE
:1018D00000000000B4ABB8D0C6F7343A00000000F6
:1018E0002A020020F7CE00003402002000802342AC
:1018F0000700002060020020480400202EE03FE0A6
:1019000050E061E072E073E076E077E07AE07BE05F
:101910007EE07FE0FFF7A4FD6878AFF2C001CDE97B
:10192000001602904B46524659464FF4D27004F0CE
:10193000A9FF87F8008070E0FFF792FD6878AFF2AA
:10194000F401CDE9001602904B465246A6214FF411
:10195000D27004F097FF04F0ECF95EE0FFF780FD31
:101960006878AFF21011CDE9001602904B4652464E
:10197000D8214FF4D27004F085FF04F0E3F94CE075
:10198000FFF76EFD6878AFF23C11CDE900160290CA
:101990004B465246A6214FF4D27004F073FF04F078
:1019A000C8F93AE0FFF75CFD6878AFF25811CDE96D
:1019B000001602904B465246D8214FF4D27004F0E4
:1019C00061FF04F0BFF928E0FFF74AFD6878AFF245
:1019D0007411CDE9001602904B46524659464FF419
:1019E000D27004F04FFF87F8008016E0E86014E042
:1019F000EA68801A086010E028610EE02A69801AFF
:101A000048600AE0686108E06A69801A886004E05A
:101A1000A86102E0AA69801AC86020463DE60A492A
:101A2000AFF25320FEF7C9BF0021084641E510B5CB
:101A30004FF6FF7003F0BAFD04F084F9034901206A
:101A40000871C870887010BDC701F00F68000020D1
:101A50002DE9FE4FFFF704FDDFF800844FF6FF7A13
:101A6000A8F800A0FE4FE7203880FE4CFE4E10255F
:101A7000617B4FF4D27042F210794FF0200B0129B4
:101A80007CD06178F9A2CDE900250291A38AE28A8F
:101A9000422104F0F7FE6078F6A1CDE9001502902E
:101AA0004FF47C43524674214FF4D27004F0EAFEA6
:101AB00084F802B06078F1A1CDE900150290A38A04
:101AC000E28A2179E07804F0DDFE6078F0A1CDE9CA
:101AD000001502902179A078A38A01EB4001E28AE7
:101AE000E07804F0CFFE6078EEA1CDE90015029019
:101AF000A38AE28A2179A07904F0C4FE6078EEA17D
:101B0000CDE9001502902179A078A38A01EB40016C
:101B1000E28AA07904F0B6FE0095E07809232179E5
:101B20002130326A04F050FC00952079A178092315
:101B300000EB4101E078726A213004F045FCB06AA4
:101B4000009590FBF9F2A07909232179213004F066
:101B50003BFCF06A009590FBF9F22179A07809230B
:101B600001EB4001A079213004F02EFCDFF85CA3EA
:101B70009AF8000003287CD0FEE3FFE76178BBA25F
:101B8000CDE9002502914FF47C434FF6FF724221CC
:101B9000824604F077FE6078B6A1CDE90015029088
:101BA000A38AE28A7421504604F06CFEC74800788C
:101BB000022802D003287CD0D9E32820A0706078C6
:101BC000C3A1CDE900150290A38AE28A6179E07889
:101BD00004F058FE6078C3A1CDE900150290607949
:101BE000A178A38A0144E28AE07804F04BFE607891
:101BF000C1A1CDE9001502906079A178A38A00EB1C
:101C00004101E28AE07804F03DFE6078BFA1CDE9B1
:101C100000150290A078617900EB40000144A38A8E
:101C2000E28AE07804F02EFE6078BDA1CDE90015CF
:101C30000290A38AE28A6179A07904F023FE607899
:101C4000BCA1CDE9001502906079A178A38A014476
:101C5000E28AA07904F016FE6078BBA1CDE90015F8
:101C600002906079A178A38A00EB4101E28AA07911
:101C700000E0AAE304F006FE6078B8A1CDE9001503
:101C80000290A078617900EB40000144A38AE28AC7
:101C9000A07904F0F7FD30684FF0640AB0FBFAF267
:101CA0000095E078072361791C3004F08DFB6078A3
:101CB00000E001E24FF02E09CDE900950290E078B6
:101CC0003B88B8F800206179543004F0D1FA3068CC
:101CD0000095B0FBFAF10AFB1102E078022361796A
:101CE0005C3004F0C1FB70680095B0FBFAF26079DB
:101CF000A17807230144E0781C3004F065FB60788C
:101D0000CDE9009502906079A1783B880144E078A4
:101D1000B8F80020543004F0ABFA70680095B0FBBE
:101D2000FAF10AFB11026079A17802230144E078FC
:101D30005C3004F099FBB0680095B0FBFAF2607972
:101D4000A178072300EB4101E0781C3004F03CFB54
:101D50006078CDE9009502906079A1783B8800EB2E
:101D60004101E078B8F80020543004F081FAB068FE
:101D70000095B0FBFAF10AFB11026079A178022309
:101D800000EB4101E0785C3004F06EFBF0680095F8
:101D9000B0FBFAF2A078617900EB40000144E078F2
:101DA00007231C3004F010FB6078CDE90095029009
:101DB000A078617900EB40000144E0783B88B8F8F6
:101DC0000020543004F054FAF0680095B0FBFAF1AA
:101DD0000AFB1102A078617900EB40000144E07831
:101DE00002235C3004F040FB30694FF47A7A90FBB8
:101DF000FAF20095A079062361791C3004F0E4FA28
:101E00006078CDE900950290A0793B88B8F8002071
:101E100061794C3004F02CFA3069009590FBFAF1AE
:101E20000AFB1102A07903236179543004F01CFBF2
:101E30007069009590FBFAF26079A178062301445D
:101E4000A0791C3004F0C0FA6078CDE900950290CA
:101E50006079A1783B8801448AE000002A020020D2
:101E60002C020020AC00002048040020B7BDB7A819
:101E700031000000B7BDB7A8320000007431323A1B
:101E8000202020202020202020206D730000000032
:101E90007433343A202020202020202020206D730D
:101EA000000000007631323A20202020202020201F
:101EB00020206D2F730000007633343A202020203C
:101EC0002020202020206D2F73000000070000201C
:101ED00074313A20202020202020202020206D73E3
:101EE0000000000074323A202020202020202020F2
:101EF00020206D730000000074333A202020202041
:101F00002020202020206D730000000074343A202F
:101F1000202020202020202020206D7300000000A1
:101F200076313A20202020202020202020206D2FD4
:101F30007300000076323A2020202020202020202C
:101F400020206D2F7300000076333A2020202020BF
:101F50002020202020206D2F7300000076343A20AE
:101F6000202020202020202020206D2F7300000022
:101F7000A079B8F800204C3004F07AF97069009527
:101F800090FBFAF10AFB11026079A1780323014466
:101F9000A079543004F068FAB069009590FBFAF229
:101FA0006079A178062300EB4101A0791C3004F090
:101FB0000BFA6078CDE9009502906079A1783B88B2
:101FC00000EB4101A079B8F800204C3004F050F942
:101FD000B069009590FBFAF10AFB11026079A178D3
:101FE000032300EB4101A079543004F03DFAF0697D
:101FF000009590FBFAF2A078617900EB4000014473
:10200000A07906231C3004F0DFF96078CDE9009553
:102010000290A078617900EB40000144A0793B88F0
:10202000B8F800204C3004F023F9F069009590FBDB
:10203000FAF10AFB1102A078617900EB400001443B
:10204000A0790323543004F00FFA6078FEA1CDE9A3
:10205000001502902079A178A38A00EB8100103846
:1020600081B2E078E28A183004F00CFCA07B88B1E1
:102070006078F8A1CDE9001502902079A178A38AB3
:1020800000EB8100103881B2E078E28A663004F01B
:10209000F9FB6CE16078F2A1CDE90015029020799E
:1020A000A178A38A00EB8100103881B2E078E28A3F
:1020B000663004F0E7FB5AE11E20A0706078EBA1C7
:1020C000CDE900150290A38AE28A6179E07804F0F4
:1020D000D9FB6078E9A1CDE9001502906079A1787B
:1020E000A38A0144E28AE07804F0CCFB6078E7A19F
:1020F000CDE900150290A078617900EB4000014421
:10210000A38AE28AE07804F0BDFB6078E3A1CDE920
:10211000001502906079A178A38A00EB8101E28A20
:10212000E07804F0AFFB6078E0A1CDE90015029003
:10213000A38AE28A6179A07904F0A4FB6078E0A127
:10214000CDE9001502906079A178A38A0144E28A62
:10215000A07904F097FB6078DEA1CDE9001502902C
:10216000A078617900EB40000144A38AE28AA0795B
:1021700004F088FB6078DCA1CDE90015029060795D
:10218000A178A38A00EB8101E28AA07904F07AFBAE
:102190000095E078092361791C30326804F014F965
:1021A00000956079A17809230144E07872681C30B9
:1021B00004F00AF90095A078617900EB4000014431
:1021C000E07809231C30B26804F0FEF800956079CD
:1021D000A178092300EB8101E078F2681C3004F05B
:1021E000F3F83069009590FBF9F2A0790923617941
:1021F0001C3004F0E9F87069009590FBF9F2607901
:10220000A17809230144A0791C3004F0DDF8B069FD
:10221000009590FBF9F2A078617900EB4000014451
:10222000A07909231C3004F0CFF8F069009590FBE9
:10223000F9F26079A178092300EB8101A0791C30C3
:1022400004F0C2F86078AFF2CC31CDE9001502900D
:102250006079A178A38A00EB4101E078E28A08382E
:1022600080B204F00FFB00956079A178092300EBA0
:102270004101E078E26B1C3004F0A6F861789FA081
:10228000CDE9015100906079A178A38A00EB41016A
:10229000A079E28A801C04F0F5FACDE900B54FF090
:1022A000000ACDF808A06079A1783B8800EB4101D5
:1022B000A079B8F800201C3003F0DAFF306B0095ED
:1022C000B0FBF9F26079A178082300EB4101A07915
:1022D000243004F079F86078AFF24C41CDE9001574
:1022E0000290A078617900EB80000144E078A38A35
:1022F000083880B2E28A04F0C5FA0095A0786179C6
:1023000000EB80000144E07809231C30226C04F0CB
:102310005BF860787EA1CDE900150290A078617924
:1023200000EB80000144A079A38AE28A801C04F0BB
:10233000A9FACDE900B5CDF808A0A078617900EB45
:1023400080000144A0793B88B8F800201C3003F0DD
:102350008FFF706B0095B0FBF9F2A078617900EB0C
:1023600080000144A0790823243004F02DF860781F
:102370006CA1CDE9001500E0F2E002902179E0784F
:10238000A38AE28AB631183004F07CFA4FF6FF7067
:10239000A8F80000E7203880CDF800B021790223AA
:1023A000B4F91820A231DC2004F0CAF8607860A1EA
:1023B000CDE9001502902179A38AE28AB6314FF463
:1023C0008C7004F05FFABDE8FE8F607859A1CDE90A
:1023D000001502902179A38AE28A8031E07804F026
:1023E00051FA00952179E078092380312130E26C9F
:1023F00003F0EAFF607854A1CDE90015029020793E
:10240000A178A38A00EB8101A079E28A103004F060
:1024100039FACDE900B5002002902079A1783B88F7
:1024200000EB8101A079B8F80020213003F020FFF3
:10243000B06B0095B0FBF9F22079A178082300EB8E
:102440008101A079293089E0CBD9B6C8B7BDCFF2D8
:10245000A3BA000034333231CEAAD5FD000000000B
:1024600031323334CEAAD5FD0000000074313A2059
:102470002020202020202020206D730074323A205C
:102480002020202020202020206D730074333A204B
:102490002020202020202020206D730074343A203A
:1024A0002020202020202020206D730076313A202B
:1024B0002020202020202020206D2F7300000000ED
:1024C00076323A202020202020202020206D2F73DB
:1024D0000000000076333A202020202020202020F9
:1024E000206D2F730000000076343A202020202039
:1024F00020202020206D2F730000000061313A2041
:102500002020202020202020206D2F73320000006A
:1025100061323A202020202020202020206D2F739F
:1025200032000000B5B2B9E2C6ACBFEDB6C83A00A1
:102530006D206D007431333A20202020202020208F
:1025400020206D7300000000613A20202020202010
:10255000202020206D2F73320000000003F034FF94
:102560009AF80000022832D16078AFF22411CDE948
:10257000001502902079A178A38A00EB8101E07810
:10258000E28A323004F07EF9A07B80B16078AFF24D
:102590003C11CDE9001502902079A178A38A00EBC7
:1025A0008101E078E28A7A3004F06CF90FE060781B
:1025B000AFF25411CDE9001502902079A178A38AD9
:1025C00000EB8101E078E28A7A3004F05BF9607810
:1025D000FEA1CDE900150290A078217900EB400022
:1025E00001EB4000083881B2E078A38AE28A3230F9
:1025F00004F048F94FF6FF70A8F80000E720388093
:10260000CDF800B0A078217900EB400001EB40004C
:102610001C3881B2E0780223B4F91A20963003F016
:102620008FFF6078AFF2F801CDE900150290A07835
:10263000217900EB400001EB4000083881B2A38A09
:10264000E28AFA2004F01EF9BDE62DE9FE4FE24CC5
:10265000E7270097002122881423084603F0E5FCB1
:102660001026DEA1CDE9001601204FF6FF79029079
:102670001F234A460221002004F07AF9CDF8009089
:10268000638822881421002003F0CFFCDFF864A3C4
:10269000D94D9AF80000022802D003280CD016E089
:1026A0006878D6A1CDE900160290AB8AEA8A162195
:1026B000142004F0E7F80AE06878D5A1CDE9001607
:1026C0000290AB8AEA8A1621142004F0DBF86878BD
:1026D000D7A1CDE900160290AB8AEA8A16214FF401
:1026E000877004F0CFF8FFF7B3F90024DFF85C83BC
:1026F0004FF0420BA8F80070022C12D204EBC40079
:102700002A7800EB041002EB4003C2EB4000423099
:1027100081B2C2F5D270523302F5E67203F0F4FCD6
:1027200011E004EBC4002A7800EB041002EB400334
:10273000C2EB4000423081B2C2F5D270523302F592
:10274000E27203F0E1FC6878C1A1CDE900160290C5
:1027500004EBC40000EB04100BEB40012878AB8ABB
:10276000C0F5CA70E72204F08DF8641CE4B2052CB1
:10277000C0D39AF800000021DFF8D8A24FF4987C6B
:102780004FF4A07440F22715032828D0022844D122
:10279000CDE9016198480023893000904A4661469E
:1027A000184604F06FF8A8F80070AAF800902346C5
:1027B000B42229466C2003F0A7FC4FF4827623460E
:1027C00032462946B42003F09FFC03B02346294635
:1027D0003046BDE8F04F4FF4A87203F095BCCDE948
:1027E000016185480023603000904A4661461846E2
:1027F00004F048F8A8F80070AAF800902346F422E4
:102800002946A42003F080FC03B023462246294633
:10281000BDE8F04FF52003F077BCD4E52DE9F05F7B
:10282000FEF73DFF744CDFF8309200262078B9F8AF
:102830001010C0F5D273894F4FF001088B4215D2AA
:1028400000F5E272914211D2B9F81220C0F174057C
:1028500095420BDA00F18405AA4207D2E2792AB147
:10286000E6714FF40060FEF7BDF814E08B4210D221
:1028700000F5E27291420CD2B9F81210C0F1740264
:102880008A4206DA8430814203D2D7F8280101282F
:1028900001D184F807802078B9F81010C0F5D27300
:1028A0008B4215D200F5E272914211D2B9F8122092
:1028B000C0F1420595420BDA00F15205AA4207D257
:1028C000227A2AB126724FF48060FEF78BF814E06A
:1028D0008B4210D200F5E27291420CD2B9F812107C
:1028E000C0F142028A4206DA5230814203D2D7F85E
:1028F0002801012801D184F808803E484FF4A075D2
:102900000078032816D002285ED1B9F810004FF4E1
:10291000947AA0F16D01472946D2B9F812105145B9
:1029200042D3A94240D2E17AF1B3E6720120FEF728
:1029300059F8A9E0B9F810004FF48F7AA0F1A50179
:102940004F290CD2B9F81210514508D3A94206D22A
:10295000617A21B166720220FEF744F80FE0A428E4
:102960000BD9F42809D2B9F81200504505D3A84272
:1029700003D2D7F82801012801D184F80980B9F8D9
:102980001000A0F1F6014A290DD2B9F812105145F4
:1029900009D3A94207D2A17A29B1A672BDE8F05F96
:1029A0000420FEF71FB800E05EE0F5280BD9A8422E
:1029B00009D2B9F81200504505D3A84203D2D7F87E
:1029C000280101284ED14BE04CE00000B4ABB8D058
:1029D000C6F7BEE0C0EB3A0038040020B9E2B5E724
:1029E000BCC6CAB1CAFDD7D6CAB5D1E9CFB5CDB339
:1029F0000000000007000020AC000020CAB5D1E9AB
:102A000032A3BAB2E2C1BFCBB2CAB1CBD9B6C80009
:102A1000CAB5D1E933A3BAB2E2C1BFD4C8B1E4CBDD
:102A2000D9D4CBB6AFB5C4BCD3CBD9B6C80000009F
:102A3000CFB5CDB3BCC6CAB1CAB1BCE43A202020E0
:102A400020202020202020206D7300002A0200205A
:102A5000F7CE00002C020020340200200080234228
:102A600084F80A80BDE8F09F6C280BD9B42809D2FD
:102A7000B9F81200504505D3A84203D2D7F828016F
:102A8000012801D184F80B80B9F810004FF4827B43
:102A9000A0F1B5014F290CD2B9F81210514508D355
:102AA000A94206D2617A21B166720220FDF79AFF2F
:102AB0000FE0B4280BD9584509D2B9F81200504597
:102AC00005D3A84203D2D7F82801012801D184F800
:102AD0000980B9F81000A0F205114B290DD2B9F800
:102AE0001210514509D3A94207D2A17A29B1A67281
:102AF000BDE8F05F0420FDF775BF58450CD9B0F56F
:102B0000A87F09D2B9F81200504505D3A84203D2D4
:102B1000D7F828010128A5D184F80A80A2E72DE979
:102B2000F04F8DB00446FE480078022801D00328FB
:102B30007ED1FC4E0025DFF8F093727B31790C9149
:102B4000B1780B9196F803C0DFF8E0A310274FF699
:102B5000FF784FF0E70B012C7CD031460B7991F8D0
:102B600002C003F1A20E0CEB4C0C03EB4C0391F8EA
:102B700003C01C3B0CF1960CCDF828C0B1F918C06D
:102B8000B1F91A10022C7DD0042C7CD0802C7BD083
:102B9000B4F5807F79D0402C78D0E549B4F5801F1A
:102BA000096874D0DFF888E33346D3F81CC0DEF838
:102BB00000E0AEEB0C0CCDF824C093F805C0CDF8C6
:102BC00020C0DB781C330793B4F1807F7ED033467E
:102BD0004FF47A7E93F80CC0CDF818C0B3F91AC040
:102BE0000CFB0EFCCDF814C0DB7821330493B4F554
:102BF000001F6CD0B4F1007F6AD0B4F5000F68D02C
:102C0000DFF82CC333465B6ADCF800C0ACEB03038F
:102C100003933346B3F918E04FF47A730EFB03FEC7
:102C200033469B7803EB430C33465B79634401E006
:102C3000FEE30FE0B4F1006F7DD0B4F5800F7BD0E0
:102C4000B4F1806F79D0B4F5806F77D0B4F5006FB0
:102C500075D001E2032802D0022819D0F9E7FEF767
:102C6000F7FE7078B3A1CDE90017029048F2100387
:102C700042464FF485714FF4D27003F003FEA8482A
:102C80000570E6E785E0B0E0DCE0EDE00EE120E194
:102C9000F07C401CF074A348012A8178037990F8F5
:102CA00001E003EB8101838AC08A23D0AFF668027A
:102CB0008DE8844002460CF1320003F0E3FDF07C25
:102CC000C00754D00120B073707803E015E18EE1A5
:102CD000C3E1DCE2AFF68401CDE900170290307960
:102CE000B178B38A00EB8101F078F28A7A3003F090
:102CF000C9FDAEE7AFF6B0028DE884401039024658
:102D000089B20CF1180003F0BDFDF07CC0071AD0A9
:102D10000120B0737078AFF6C401CDE900170290BE
:102D20003079B178B38A00EB8100103881B2F07845
:102D3000F28A663004E0BEE256E3EEE3EEE3EEE351
:102D400003F0A0FD85E7B5737078AFF6EC01CDE92F
:102D5000001702903079B178B38A00EB8100103807
:102D600081B2F078F28A663003F08CFD71E7B573BA
:102D70007078AFF61411CDE9001702903079B17870
:102D8000B38A00EB8101F078F28A7A3003F07AFDA1
:102D90005FE7012A13D0491E08B27083A9F80080AA
:102DA000AAF800B0002800DA75832020009099B2BC
:102DB0000223B6F91A200A9803F0C2FB49E7ACF1E6
:102DC000010C0FFA8CF03083A9F80080AAF800B04B
:102DD000002800DA3583202000900223B6F918205D
:102DE0007146DC2003F0ACFB33E7012A13D0491C09
:102DF00008B27083A9F80080AAF800B0632800DD4B
:102E000075832020009099B20223B6F91A200A98FF
:102E100003F096FB1DE70CF1010C0FFA8CF03083E8
:102E2000A9F80080AAF800B0632801DDC82030832B
:102E3000202000900223B6F918207146DC2003F010
:102E40007FFB09E1FEF704FE70783CA1CDE9001795
:102E5000029048F210034246A6214FF4D27003F0CC
:102E600011FD02F066FFF7E0404602F09FFBF563BC
:102E70003564F56435657565B565F565F573357467
:102E80007574B57402F05EFF00210846FFF7DDFBA4
:102E900070782CA1CDE90017029048F21003424649
:102EA000D8214FF4D27003F0EDFCD5E0FEF7D0FD51
:102EB000707820A1CDE90017029048F21003424635
:102EC0004FF485714FF4D27003F0DCFC14480570A8
:102ED000C2E0012A04D0032805D0022808D0BBE0B4
:102EE000F161F162B8E001203073F1617164B3E027
:102EF000F07B401CF0733165AEE0012A8AD1A9F85D
:102F00000080AAF800B01149099808606421B0FB5C
:102F1000F1F20097DDE90701072303F055FA17E006
:102F200007000020AC0000202A0200202C02002014
:102F300060020020B7B5BBD800000000BFAACABC21
:102F400000000000C7E5C1E30000000048040020C5
:102F500071782E20CDE901710090F078BAF8003038
:102F6000B9F800207179543003F082F9FE48022349
:102F700001686420B1FBF0F200FB12120097F078B8
:102F800071795C3003F070FAB6F91800F7494843DC
:102F9000F5490968B0FBF1F0F34908614FF47A7123
:102FA00090FBF1F20097B079062371791C3003F0A1
:102FB0000BFA71782E20CDE901710090B079BAF842
:102FC0000030B9F8002071794C3003F051F9E6482F
:102FD000032301694FF47A7091FBF0F200FB1212A7
:102FE0000097B0797179543003F03EFA34E0012A49
:102FF00004D0032808D002282AD02DE031623163A2
:10300000F06A081AF06327E006980028EED03573BE
:10301000A9F80080AAF800B0D348099A026205987E
:10302000B0FBF2F1D0488162092300970C99049813
:1030300003F0CAF9CC480923816A42F2107091FB6F
:10304000F0F20097B0793179213003F0BDF903E057
:10305000307C401C3074716541E2012AC6D1A9F868
:103060000080AAF800B0306A081ABF49486064219D
:10307000B0FBF1F20B9908980097014407230798D9
:1030800003F0A2F971782E20CDE9017100907079DA
:10309000B178BAF800300144F078B9F80020543023
:1030A00003F0E6F8B048022341686420B1FBF0F277
:1030B00000FB121200977079B1780144F0785C300F
:1030C00003F0D2F9B6F91800A8494843A64949685F
:1030D000B0FBF1F0A44948614FF47A7190FBF1F232
:1030E00000977079B17806230144B0791C3003F061
:1030F0006BF971782E20CDE9017100907079B1786B
:10310000BAF800300144B079B9F800204C3003F02F
:10311000AFF89548032341694FF47A7091FBF0F2C0
:1031200000FB121200977079B1780144B0795430E5
:1031300003F09AF98E480078032888D100977079B7
:10314000B178092300EB4101F078F26B1C3003F0F9
:103150003BF9854BD3E90410421A002A01DC88426E
:103160004AD14FF47A704243F06B7F49B2FBF0F0E2
:1031700008637E48496B401E814220D2CDE901752B
:10318000202000907079B178BAF8003000EB41014E
:10319000B079B9F800201C3003F06AF872480823AF
:1031A000016B42F21070B1FBF0F200977079B178C8
:1031B00000EB4101B079243003F006F988E3CDE952
:1031C0000175202000907079B178BAF8003000EBDA
:1031D0004101B079B9F800201C3003F049F800979C
:1031E0007079B178614A00EB4101B0790823521E31
:1031F000243003F0E9F86BE3081A4FF47A7148437E
:10320000F16B594AB0FBF1F010635849491E8842EE
:1032100020D2CDE901752D2000907079B178BAF8EF
:10322000003000EB4101B079B9F800201C3003F008
:103230001FF84D480823016B42F21070B1FBF0F209
:1032400000977079B17800EB4101B079243003F038
:10325000BBF83DE3CDE901752D2000907079B17880
:10326000BAF8003000EB4101B079B9F800201C3009
:1032700002F0FEFF00977079B1783C4A00EB410103
:10328000B0790823521E243003F09EF820E3012A6F
:1032900004D0032805D0022808D019E371627163B5
:1032A00016E3012030737162B16411E3707C401C3D
:1032B0007074B1650CE3012A9DD1A9F80080AAF8C9
:1032C00000B02949039A8A60032871D06420B2FBB8
:1032D000F0F20B990898009700EB4101072307983B
:1032E00003F072F871782E20CDE9017100907079A9
:1032F000B178BAF8003000EB4101F078B9F800205D
:10330000543002F0B5FF1848022381686420B1FBF5
:10331000F0F200FB121200977079B17800EB4101D6
:10332000F0785C3003F0A0F8B6F918000F49484374
:103330000D498968B0FBF1F00B4988614FF47A714F
:1033400090FBF1F200977079B178062300EB410110
:10335000B0791C3003F038F871782E20CDE9017176
:1033600000907079B17805E048040020A086010043
:103370000700002000EB4101B079BAF80030B9F83D
:1033800000204C3002F074FFF948032381694FF4A8
:103390007A7091FBF0F200FB121200977079B1780D
:1033A00000EB4101B079543003F05EF890E2FFE7A2
:1033B000BEFBF2F1EE488161194609230097079898
:1033C00003F002F8EA480923816942F2107091FB88
:1033D000F0F20097B078717900EB40000144B079C9
:1033E0001C3002F0F1FF73E2012A04D0032808D058
:1033F000022875D06CE2B162B163706B081A306458
:1034000066E206980028D1D03573A9F80080AAF8A2
:1034100000B0D748039A42620598B0FBF2F1D44855
:10342000C1620097DDE90B1000EB4101092300E0C8
:103430001DE3049802F0C8FFCD480923C16A42F297
:10344000107091FBF0F200973079B17800EB4101F8
:10345000B079213002F0B8FFC64800780328A5D122
:10346000D6E91110421AF26400973179F0780923F5
:103470008031213002F0A8FFBD4BD3E90A010A1ABE
:10348000002A01DC81424BD14FF47A704243F06C48
:10349000B749B2FBF0F08863B749884221D2CDE941
:1034A0000175202000903079B178BAF8003000EB37
:1034B0008101B079B9F80020213002F0D9FEAC4882
:1034C0000823816B42F21070B1FBF0F20097307963
:1034D000B17800EB8101B079293002F075FFF7E196
:1034E00067E0CDE90175202000903079B178BAF815
:1034F000003000EB8101B079B9F80020213002F0F2
:10350000B7FE00973079B178082300EB8101B079DC
:10351000994A293002F058FFDAE14FE099E1B8E129
:10352000401A4FF47A714843F16C914AB0FBF1F0C4
:1035300090639149884220D2CDE901752D200090F9
:103540003079B178BAF8003000EB8101B079B9F880
:103550000020213002F08CFE85480823816B42F266
:103560001070B1FBF0F200973079B17800EB810177
:10357000B079293002F028FFAAE1CDE901752D20AC
:1035800000903079B178BAF8003000EB8101B07961
:10359000B9F80020213002F06BFE00973079B17845
:1035A000082300EB8101B079734A293002F00CFF47
:1035B0008EE1B07C401CB074F16589E1012A8ED1A6
:1035C000A9F80080AAF800B0B26A8A1A6849CA60ED
:1035D00003286CD06420B2FBF0F219460723009751
:1035E000079802F0F1FE71782E20CDE9017100906C
:1035F000B078717900EB40000144F078BAF80030FF
:10360000B9F80020543002F033FE59480223C16853
:103610006420B1FBF0F200FB12120097B0787179D0
:1036200000EB40000144F0785C3002F01DFF52498D
:10363000B6F91800491C48434D49C968B0FBF1F080
:103640004B49C8614FF47A7190FBF1F20097B07862
:10365000717900EB40000144B07906231C3002F080
:10366000B3FE71782E20CDE901710090B0787179A8
:1036700000EB40000144B079BAF80030B9F80020FE
:103680004C3002F0F5FD3A480323C1694FF47A70DB
:1036900091FBF0F200FB12120097B078717900EB09
:1036A00040000144B079543002F0DEFE10E1BEFB70
:1036B000F2F12F48C1610B990898009700EB810146
:1036C0000923079802F080FE29480923C16942F2C4
:1036D000107091FBF0F200977079B17800EB8101E6
:1036E000B0791C3002F070FE0097B078717900EB71
:1036F00080000144F07809231C30326C02F064FE33
:103700001B481B49C0698969421A002A01DC8842AA
:1037100052D14FF47A704243306C1549B2FBF0F04D
:1037200048631549884229D2CDE9017520200090CF
:10373000B078717900EB80000144B079BAF80030BC
:10374000B9F800201C3002F093FD09480823416BB2
:1037500042F21070B1FBF0F20097B078717900EB93
:1037600080000144B079243002F02EFEB0E0000069
:1037700048040020070000209F860100CDE9017564
:1037800020200090B078717900EB80000144B0797E
:10379000BAF80030B9F800201C3002F069FD00973B
:1037A000B078717900EB80000144B0790823FC4ABD
:1037B000243002F009FE8BE0081A4FF47A71484376
:1037C000316CF84AB0FBF1F05063F549884222D2DF
:1037D000CDE901752D200090B078717900EB800063
:1037E0000144B079BAF80030B9F800201C3002F07A
:1037F0003FFDEC480823416B42F21070B1FBF0F240
:103800000097B078717900EB80000144B0792430E2
:1038100002F0DAFD5CE0CDE901752D200090B07872
:10382000717900EB80000144B079BAF80030B9F842
:1038300000201C3002F01CFD0097B078717900EB7D
:1038400080000144B0790823D54A243002F0BCFD41
:103850003EE00120707302F075FAF5633564F5649B
:1038600035657565B565F565F57335747574B5744D
:10387000CD48CDF800804FF4B97240882C211E3815
:1038800083B2F0781E3880B202F0CFFBFEF7E0F88A
:103890001EE00220707302F055FAF5633564F5649A
:1038A00035657565B565F565F57335747574B5740D
:1038B000BD48CDF800804FF4B97240882C211E38E5
:1038C00083B2F0781E3880B202F0AFFBFEF7C0F88A
:1038D000F07B317C884239D1D6E91410884244D932
:1038E000A9F80080AAF800B0A0EB0102AD4802627E
:1038F000B6F91A104FF47A7301FB03F1B1FBF2F140
:1039000081620097F0784FF00903317900F12100CE
:1039100002F05AFDB07BD0B1CDE901752D200090A9
:10392000B079BAF80030B9F800203179213002F0CE
:103930009FFC9C480823816A42F2107091FBF0F2D0
:103940000097B0793179293002F03EFD45E0CDE9AC
:10395000017520200090B079BAF80030B9F8002045
:103960003179213002F084FCE3E736D2A9F80080F7
:10397000AAF800B0A1EB00028A480262B6F91A1058
:103980004FF47A7301FB03F1B1FBF2F1816200970E
:10399000F0784FF00903317900F1210002F014FDB5
:1039A000B07B012864D0CDE901752D200090B0795D
:1039B000BAF80030B9F800203179213002F058FC13
:1039C00078480823816A42F2107091FBF0F2009768
:1039D000B0793179293002F0F7FC707CB17C8842F3
:1039E00045D1D6E91610884261D9A9F80080AAF815
:1039F00000B0DFF8B081A0EB0102C8F82420B6F9CE
:103A00001A004FF47A7100FB01F0B0FBF2F0C8F835
:103A10002C0000973079B1784FF0090300EB410199
:103A2000F07800F1210002F0CFFCB07B70B3CDE95B
:103A300001752D2000903079B178BAF8003000EB94
:103A40004101B079B9F80020213002F011FCD8F81A
:103A50002C1042F2107091FBF0F200973079B1789F
:103A6000082300EB4101B079293002F0ADFC62E09F
:103A7000CDE9017520200090B079BAF80030B9F88E
:103A800000203179213002F0F3FB99E7CDE901758F
:103A9000202000903079B178BAF8003000EB410175
:103AA000B079B9F80020213002F0E2FBCFE742D232
:103AB000A9F80080AAF800B0DFF8E880A1EB0002C6
:103AC000C8F82420B6F91A004FF47A7100FB01F00F
:103AD000B0FBF2F0C8F82C0000973079B1784FF0C5
:103AE000090300EB4101F07800F1210002F06CFCC9
:103AF000B07B012823D0CDE901752D2000903079CD
:103B0000B178BAF8003000EB4101B079B9F8002083
:103B1000213002F0ADFBD8F82C1042F2107091FB6E
:103B2000F0F200973079B178082300EB4101B079C9
:103B3000293002F049FC0DB02046BDE8F08FCDE9F8
:103B40000175202000903079B178BAF8003000EB90
:103B50004101B079B9F80020213002F089FBDAE7A1
:103B600012491348FCF729BF00210846FEF76DBD36
:103B700010B54FF6FF7001F019FD02F0E3F80D48A3
:103B8000012141730021C1630164C1648173016536
:103B900041658165C165C17301744174817410BD53
:103BA0009F8601004804002038040020C70DF00F54
:103BB0001F2B0008AC00002070B5FDF751FCFF4939
:103BC000E7200880FE494FF6FF7008804FF4A0758B
:103BD00040F227162B46B42231466C2002F094FAAC
:103BE0004FF482742B4622463146B42002F08CFA00
:103BF0002B4631462046BDE870404FF4A87202F0D3
:103C000083BA2DE9FE4FEF4C4FF0E708CDF8008066
:103C1000002122881423084602F007FA1025EAA1A1
:103C2000CDE9001501204FF6FF7902901F234A4687
:103C30000221002002F09CFECDF8009063882288CB
:103C40001421002002F0F1F9E54CE6A16078CDE9FD
:103C500000150290238A628A2821142002F012FEA5
:103C60006078E6A1CDE900150290238A628A2821B6
:103C70004FF4877002F006FEDFF840A3AAF8009028
:103C8000DFF83CB3ABF800806078E3A1CDE9001524
:103C90000290238A628AE178A07802F0F3FD6078CE
:103CA000E8A1CDE900150290E0782179238A01444A
:103CB000628AA07802F0E6FDE44E42F21077062315
:103CC00030680095B0FBF7F2E07821790144A078E4
:103CD000403002F079FB6078DDA1CDE9001502905B
:103CE000E0782179238A0144A078628A823002F048
:103CF000C9FD70680095B0FBF7F2E07821790623E2
:103D00000144A078C23002F05FFB6078D2A1CDE917
:103D100000150290E0782179238A0144A078628A14
:103D200000F5827002F0AEFDB0680095B0FBF7F2CE
:103D3000E078217906230144A07800F5A27002F012
:103D400043FB6078C6A1CDE900150290E0782179A7
:103D5000238A00EB4101628AA07802F093FD60782B
:103D6000B8A1CDE9001502902079E17800EB400080
:103D70000144238A628AA07802F084FDF0680095ED
:103D8000B0FBF7F22079E17800EB40000144A07825
:103D90000623403002F018FB6078ADA1CDE9001594
:103DA00002902079E17800EB40000144A078238A5A
:103DB000628A823002F066FD30690095B0FBF7F24E
:103DC0002079E17800EB40000144A0780623C2305E
:103DD00002F0FAFA6078A0A1CDE9001502902079EE
:103DE000E17800EB40000144A078238A628A00F564
:103DF000827002F047FD70690095B0FBF7F2207900
:103E0000E17800EB40000144A078062300F5A270A1
:103E100002F0DAFA60789DA1CDE90015029040F237
:103E20001116238A628A3146E82002F02BFD0095A4
:103E3000022394F9092031464FF4A47002F014FBD8
:103E4000607896A1CDE900150290238A628A3146F6
:103E50004FF4AC7002F016FDAAF800802079A27829
:103E600000EB4001E0780B18153881B2501F253364
:103E700080B202F2791202F047F9607889A1CDE9A7
:103E800000150290238A628A3146A07802F0FAFC7B
:103E900060788AA1CDE900150290238A628A5621B2
:103EA0004FF4C87002F0EEFC217A4FF4C97051B1A2
:103EB000617885A2CDE900250291238A628A742166
:103EC00002F0E0FC09E0617882A2CDE900250291D0
:103ED000238A628A742102F0D5FCFFF76DFE00266A
:103EE000AAF8008006EBC600227800EB0617C2EBAA
:103EF0004700A63002EB470381B2C2F5D270B63359
:103F000002F5E27202F000F9607875A1CDE90015C2
:103F10000290A62000EB47012078238AC0F5CA70E2
:103F2000E72202F0AFFC761CF6B2032ED8D32C4960
:103F300000202431CDE9001503464A4602904FF493
:103F4000987102F09FFCAAF80080ABF800904FF443
:103F5000A07540F227162B46B42231466C2002F0A1
:103F6000D3F84FF482742B4622463146B42002F037
:103F7000CBF803B02B4631462046BDE8F04F4FF456
:103F8000A87202F0C1B82DE9F05FFDF788FB554F2C
:103F9000DFF85491124C388A4FF00008A0F16D01FF
:103FA0004FF0010A4FF494754FF4A076472903D2DD
:103FB000798AA94200D399E0A2E000002A020020F9
:103FC0002C02002038040020B9E2B5E7BCC6CAB113
:103FD000CAFDD7D6CAB5D1E9CFB5CDB30000000030
:103FE00060010020CAB5D1E934A3BAB2E2C1BFC5AD
:103FF000F6D7B2D6D0B5C4B6AFC1BF00CFB5CDB33A
:10400000BCC6CAB1CAB1BCE43A202020202020207E
:104010002020206D20730000BEADB9FDB9E2B5E7E8
:10402000B4ABB8D0C6F7B5C43132B5C4CBB2CAB19F
:10403000CBD9B6C85631323A28B5A5CEBB3A206D99
:104040002F732900B5DA32B4CE3A000008040020FC
:10405000B5DA31B4CE3A0000B5DA33B4CE3A000066
:10406000BEADB9FDB9E2B5E7B4ABB8D0C6F7B5C4DB
:104070003334B5C4CBB2CAB1CBD9B6C85633343A4F
:1040800028B5A5CEBB3A206D2F732900B4ABB8D0AC
:10409000C6F7BEE0C0EBA3BA00000000206D206DA3
:1040A00000000000B0B4BCFC4B45595F30C7D0BB2A
:1040B000BBCBD9B6C8B7BDCFF2000000CBD9B6C8CC
:1040C000B7BDCFF2A3BA000034333231CEAAD5FD4A
:1040D0000000000031323334CEAAD5FD00000000CC
:1040E000F7CE00003402002000802342B14207D204
:1040F000617929B184F805800120FCF773FC0EE09A
:104100006C280AD9B42808D2788AA84205D3B042CC
:1041100003D2D9F82801012801D184F805A0388AF2
:104120004FF4827BA0F1B5014F290CD2798AA942C4
:1041300009D3B14207D2A17929B184F806800220BF
:10414000FCF750FC0EE0B4280AD9584508D2788A0A
:10415000A84205D3B04203D2D9F82801012801D1E1
:1041600084F806A0388AA0F205114B290DD2798A6D
:10417000A9420AD3B14208D2E17931B184F807806B
:10418000BDE8F05F0420FCF72DBC58450BD9B0F515
:10419000A87F08D2788AA84205D3B04203D2D9F8C2
:1041A0002801012801D184F807A0BDE8F09FFF494C
:1041B0000020086048608860C86008614861FC4968
:1041C0008872C8720873487307224A720872F949E4
:1041D000086070472DE9FE4F0646DFF8DC8398F84B
:1041E0000000042879D101220025F14F10244FF658
:1041F000FF7B012E24D0384640F2111190F90900BE
:104200004FF4A47C022E3FD0042E51D048F2100966
:104210004FF4D27A802E61D0B6F5807F6ED0402EDA
:104220007ED0E448B6F5801F00687AD0B6F5001F4E
:1042300078D0B6F5000F76D0B6F5800F74D0AEE02A
:10424000B87B401CB873DA495FEAC0784FF4C97C88
:1042500048780B8A498A0BD03A72AFF29412CDE9B2
:10426000002402900A467421604602F00BFB96E09F
:104270003D72AFF2A012CDE9002402900A467421EB
:10428000604602F0FFFA8AE0401E40B278720028D1
:1042900000DA7D72C948A0F800B0C94AE720108052
:1042A0000094022397F90920604602F0DDF876E0D9
:1042B000401C40B27872632801DD63207872BF48E9
:1042C000A0F800B0BE4AE72010800094022397F9BE
:1042D0000920604602F0C8F861E00AE2FFF76CFCD2
:1042E0007878B8A1CDE9001402904B465A46A62131
:1042F000504602F0C7FA01F01CFD50E001F022FD2B
:10430000584601F053F9FFF752FF00210846FFF726
:1043100078FC7878ADA1CDE900144B465A4604E00C
:1043200009E019E021E029E031E00290D82150466F
:1043300002F0A8FA33E0FFF73FFC7878A5A1CDE9B9
:10434000001402904B465A464FF48571504602F0D5
:1043500099FA88F8005022E07861B87A401CC0B21F
:10436000B87203281BD9BA7219E0B861F87A401CF8
:10437000C0B2F872032812D9FA7210E0F861387BE3
:10438000401CC0B23873032809D93A7307E0386279
:10439000787B401CC0B27873032800D97A738449B3
:1043A000824F4FF02008887AC97A4FF02D0942F2E7
:1043B000107A884227D17E4AD2E905C1614579D970
:1043C0007E4B5A46A3F800B0DFF8F4E1E723AEF8DD
:1043D0000030A1EB0C01DFF804C2DFF8D4E1CCF827
:1043E00020109EF909C04FF47A7E0CFB0EFCBCFB3A
:1043F000F1F1DFF8E8C1CCF82810012804D0022838
:104400002DD0032857D047E139606948007A60B160
:104410006748CDE900940295C17890F804C080788F
:104420006144383001F024FF0BE06148CDE900849D
:104430000295C17890F804C080786144383001F06A
:1044400017FF38680094B0FBFAF25948C178037935
:10445000807819440623403001F0B6FF1CE17960F2
:104460005348007A60B15248CDE900940295C17872
:1044700090F804C080786144BA3001F0F9FE0BE096
:104480004B48CDE900840295C17890F804C080784B
:104490006144BA3001F0ECFE78680094B0FBFAF2A7
:1044A0004348C1780379807819440623C23001F06B
:1044B0008BFFF1E02DE0B9603D48007A68B13C48DF
:1044C000CDE900940295C17890F804C080786144E9
:1044D00000F59E7001F0CCFE0CE03548CDE900847B
:1044E0000295C17890F804C08078614400F59E7010
:1044F00001F0BEFEB8680094B0FBFAF22C48C17817
:10450000037980781944062300F5A27001F05CFF5E
:10451000C2E02A4B5A46A3F800B0DFF8A4E0E72334
:10452000AEF80030ACEB0101DFF8B0C0DFF880E09E
:10453000CCF820109EF909C04FF47A7E0CFB0EFCDB
:10454000BCFBF1F1DFF894C0CCF82810012804D0AE
:10455000022848D0032872D09EE039601448007ABF
:1045600060B11348CDE900840295C17890F804C089
:1045700080786144383001F07BFE0BE00C48CDE9D7
:1045800000940295C17890F804C080786144383076
:1045900001F06EFE38680094B0FBFAF20448C1786E
:1045A0000379807819440623403019E0080400207C
:1045B0006001002060020020070000202A02002085
:1045C0002C020020BFAACABC00000000C7E5C1E35E
:1045D00000000000B7B5BBD8000000004804002070
:1045E00001F0F2FE58E07960EF48007A60B1EE48E1
:1045F000CDE900840295C17890F804C080786144C8
:10460000BA3001F035FE0BE0E748CDE900940295A1
:10461000C17890F804C080786144BA3001F028FE77
:1046200078680094B0FBFAF2DF48C17803798078AB
:1046300019440623C23001F0C7FE2DE0FFE7B96040
:10464000D948007A68B1D848CDE900840295C1788C
:1046500090F804C08078614400F59E7001F008FE77
:104660000CE0D148CDE900940295C17890F804C0DF
:104670008078614400F59E7001F0FAFDB8680094FE
:10468000B0FBFAF2C848C378017980781944062350
:1046900000F5A27001F098FEDFF80CE39EF80C0024
:1046A0009EF80D10884224D1DEE907C161457DD90D
:1046B000BE4B5A46A3F800B0DFF8F4B2E723ABF8DC
:1046C0000030A1EB0C01DFF8ECC2CCF824109EF90D
:1046D00009C04FF47A7B0CFB0BFCBCFBF1F1DFF85B
:1046E000D4C2CCF82C10012804D0022831D00328E1
:1046F00060D042E1BB46F9609EF80800774660B1A1
:10470000CDE9009402953879F97800EB4000014436
:10471000B878383001F0ACFD0BE0CDE900840295AB
:104720003879F97800EB40000144B878383001F06E
:104730009FFDDBF80C000094B0FBFAF23879F978B1
:1047400000EB40000144B8780623403001F03CFE05
:1047500013E1BB4639619EF80800774660B1CDE9A8
:10476000009402953879F97800EB40000144B8785C
:10477000BA3001F07DFD0BE0CDE900840295387977
:10478000F97800EB40000144B878BA3001F070FDD0
:10479000DBF810000094B0FBFAF23879F97800EBFE
:1047A00040000144B8780623C23000E034E001F054
:1047B0000BFEE2E0BB4679619EF80800774668B1DF
:1047C000CDE9009402953879F97800EB4000014476
:1047D000B87800F59E7001F04BFD0CE0CDE9008447
:1047E00002953879F97800EB40000144B87800F57B
:1047F0009E7001F03DFDDBF814000094B0FBFAF26E
:104800003879F97800EB40000144B878062300F5C8
:10481000A27001F0D9FDB0E0644B5A46A3F800B095
:10482000DFF88CB1E723ABF80030ACEB0101DFF827
:1048300084C1CCF824109EF909C04FF47A7B0CFB9C
:104840000BFCBCFBF1F1DFF86CC1CCF82C1001289B
:1048500004D0022831D003285ED08EE0BB46F96038
:104860009EF80800774660B1CDE90084029538795A
:10487000F97800EB40000144B878383001F0F8FCDA
:104880000BE0CDE9009402953879F97800EB40000F
:104890000144B878383001F0EBFCDBF80C000094F0
:1048A000B0FBFAF23879F97800EB40000144B878AF
:1048B0000623403001F088FD5FE0BB4639619EF879
:1048C0000800774660B1CDE9008402953879F9781F
:1048D00000EB40000144B878BA3001F0C9FC0BE0AD
:1048E000CDE9009402953879F97800EB4000014455
:1048F000B878BA3001F0BCFCDBF810000094B0FBD3
:10490000FAF23879F97800EB40000144B8780623D0
:10491000C23001F059FD30E0BB4679619EF80800D5
:10492000774668B1CDE9008402953879F97800EBD3
:1049300040000144B87800F59E7001F099FC0CE04D
:10494000CDE9009402953879F97800EB40000144F4
:10495000B87800F59E7001F08BFCDBF81400009431
:10496000B0FBFAF23879F97800EB40000144B878EE
:10497000062300F5A27001F027FD3046BDE8FE8F4A
:104980000D49AFF2AF70FCF718B800210846FFF7E9
:1049900038B910B54FF6FF7000F008FE01F0D2F9FB
:1049A000BDE8104003E40000600100202A0200205E
:1049B0002C02002048040020C701F00F10B5FCF7BE
:1049C0004FFDF249E7200880F1494FF6FF7008805B
:1049D000B422BDE810404FF4A07340F227116C20C0
:1049E00001F092BB2DE9FE4FEA4C4FF0E708CDF8FD
:1049F0000080002122881423084601F016FB1027AE
:104A0000E5A1CDE9001701204FF6FF7A02901F23A0
:104A100052460221002001F0ABFFCDF800A06388D0
:104A200022881421002001F000FBE14EE1A1707802
:104A3000CDE900170290B388F2882821142001F0F4
:104A400021FF7078DEA1CDE900170290B388F288CB
:104A50007621912001F016FF7078DBA1CDE90017D7
:104A60000290B388F2889D21912001F00BFFFFF79F
:104A7000A5FF0024DFF814934FF0A60BA9F80080DF
:104A800004EBC400327800EB0415C2EB4500A630FD
:104A900002EB450381B2C2F5D270B63302F5E27281
:104AA00001F032FB7078CAA1CDE90017029030788E
:104AB0000BEB4501C0F5CA70B388E72201F0E2FEB6
:104AC000641CE4B2032CD9D37078C2A1CDE90017DD
:104AD0000290B388F28840F20111912001F0D2FED9
:104AE000B34900201C31CDE900170346524602901D
:104AF0004FF4987101F0C6FEA9F80080A448A0F810
:104B000000A003B0B422BDE8F04F4FF4A07340F210
:104B100027116C2001F0F8BA70B5FCF7C0FDB34A5C
:104B2000A34B4FF49474108A4FF4A075A0F16D015B
:104B300047290DD2518AA1420AD3A94208D29978B5
:104B400031B100209870BDE870400120FBF74ABFEA
:104B50006C280AD9B42808D2508AA04205D3A842AA
:104B600003D2A3480068012801D10120987070BDCC
:104B70002DE9FE4F0446DFF87C8298F800000528F6
:104B800035D100278A4D012C32D0102648F2100969
:104B90004FF6FF7A022C40D04FF4857B042C4DD089
:104BA000802C5CD0B4F5807F6AD0402C7AD0294626
:104BB00091488969491C0068B4F5801F73D08F4AF9
:104BC00003230A26B4F1807F6ED0B4F5001F6CD0A9
:104BD000B4F1007F6AD0B4F5000F68D0B4F1006F73
:104BE00077D0B4F5800F75D0B4F1806F73D0B6E094
:104BF000E878401CE870824DC0074FF0804205D035
:104C00000021104603F0EFF82F70A8E001211046B4
:104C100003F0E9F801202870A1E0FFF7CFFE6878E3
:104C200078A1CDE9001602904B465246A6214FF4DA
:104C3000D27001F027FE01F07CF890E0FFF7BEFE95
:104C4000687872A1CDE9001602904B46524659464B
:104C50004FF4D27001F016FE88F800707FE0FFF785
:104C6000ADFE687867A1CDE9001602904B4652462A
:104C7000A6214FF4D27001F005FE01F05AF86EE063
:104C8000FFF79CFE687863A1CDE9001602904B46C1
:104C90005246D8214FF4D27001F0F4FD01F052F8E1
:104CA000AF615CE004E017E019E026E028E035E0C1
:104CB000FFF784FE687855A1CDE9001602904B46B7
:104CC000524659464FF4D27001F0DCFD88F800706E
:104CD00045E026E033E035E0A961A8603FE0A9683F
:104CE000401AB0FBF3F1B1FBF6F306FB131100EB36
:104CF000800001EB4000106031E0A961E8602EE027
:104D0000E968401AB0FBF3F1B1FBF6F306FB1311AF
:104D100000EB800001EB4000506020E0A9612861B9
:104D20001DE02969401AB0FBF3F1B1FBF6F306FB75
:104D3000131100EB800001EB400090600FE0A961CF
:104D400068610CE06969401AB0FBF3F1B1FBF6F35E
:104D500006FB131100EB800001EB4000D060204601
:104D6000BDE8FE8F2D49AFF2F710FBF726BE0021FC
:104D7000084637E610B54FF6FF7000F017FC00F05C
:104D8000E1FF0B490020886110BD00002A020020CD
:104D90002C02002038040020B9E2B5E7BCC6CAB135
:104DA000CAFDD7D6CAB5D1E9CFB5CDB30000000052
:104DB000B0010020CAB5D1E935A3BABCC6CAFD000E
:104DC000BCC6CAFDA3BA0000BCC6CAB1A3BA0000E3
:104DD000F7CE0000B0B4BCFC204B45595F3020D466
:104DE000DDCDA3BACDBCCCD0F80000003402002049
:104DF0002881234207000020600200204804002090
:104E00005C020020BFAACABC00000000B7B5BBD836
:104E100000000000C7E5C1E300000000C701F00F7B
:104E200070B5FCF71DFBF849E7200880F7494FF6FD
:104E3000FF7008804FF4A07540F227162B46B4226D
:104E400031466C2001F060F94FF482742B46224603
:104E50003146B42001F058F92B4631462046BDE8D2
:104E600070404FF4A87201F04FB92DE9FE4FE84CA5
:104E7000E7270097002122881423084601F0D5F87F
:104E800001261025E3A08DE861004FF6FF7B1F236C
:104E90005A460221002001F06BFDCDF800B0638876
:104EA00022881421002001F0C0F8E04CE0A16078D5
:104EB000CDE900150290238962892821142001F090
:104EC000E1FC6078E0A1CDE90015029023896289B8
:104ED0005021A07801F0D6FC6078E1A1CDE9001561
:104EE0000290238962898221A07801F0CBFC60784E
:104EF000E1A1CDE90015029023896289B421A0784F
:104F000001F0C0FC6078E2A1CDE900150290A07824
:104F1000238962895021C83001F0B4FC6078E2A195
:104F2000CDE900150290A078238962898221C830DA
:104F300001F0A8FC6078DEA1CDE900150290A07810
:104F400023896289B421C83001F09CFCDFF8B88263
:104F5000A8F800B0DFF8B492A9F80070DFF864A3F5
:104F6000AAF814600095A078062332465021FF303D
:104F700001F02AFA0095A07806238221FF30DAF8A2
:104F8000002001F021FAFFF74BFF0026A8F800707F
:104F900006EBC600227800EB061AC2EB4A00A630E8
:104FA00002EB4A0381B2C2F5D270B63302F5E27267
:104FB00001F0AAF86078C4A1CDE900150290A620FE
:104FC00000EB4A0120782389C0F5CA70E72201F07E
:104FD00059FC761CF6B2032ED8D36078BBA1CDE97C
:104FE000001502902389628940F21111A07801F026
:104FF00049FC8E4900200C31CDE9001503465A4684
:1050000002904FF4987101F03DFCA8F80070A9F8E7
:1050100000B04FF4A07540F227162B46B42231465B
:105020006C2001F071F84FF482742B462246314611
:10503000B42001F069F803B02B4631462046BDE8A4
:10504000F04F4FF4A87201F05FB82DE9F05FFCF764
:1050500026FBA44FDFF89092744C388A4FF000087A
:10506000A0F16D014FF0010A4FF494754FF4A07652
:1050700047290CD2798AA94209D3B14207D2E178F3
:1050800029B184F803800120FBF7ACFC0EE06C280A
:105090000AD9B42808D2788AA84205D3B04203D2EC
:1050A000D9F82801012801D184F803A0388A4FF4E7
:1050B000827BA0F1B5014F290CD2798AA94209D38C
:1050C000B14207D2217929B184F804800220FBF78C
:1050D00089FC0EE0B4280AD9584508D2788AA8423B
:1050E00005D3B04203D2D9F82801012801D184F8B0
:1050F00004A0388AA0F205114B290DD2798AA94261
:105100000AD3B14208D2617931B184F80580BDE893
:10511000F05F0420FBF766BC58450BD9B0F5A87FBB
:1051200008D2788AA84205D3B04203D2D9F8280120
:10513000012801D184F805A0BDE8F09F2DE9FE4FBC
:105140000446DFF8A8B19BF8000006282CD1374FA1
:105150004FF000094FF0010A012C26D03846594D76
:105160008078294AE723DFF8A4C01026FF30A98AF7
:105170004FF6FF78022C2ED0042C3DD0802C3CD052
:10518000B4F5807F3AD0402C39D028460068401CC6
:10519000B4F5801F34D0B4F5001F32D0B4F5000F41
:1051A00030D0B4F5800F2ED0FFE0B879401CB87134
:1051B0004F4DC0074FF0804206D00021104602F04C
:1051C00012FE85F80090F0E00121104602F00BFE7F
:1051D00085F800A0E9E0491E89B2A98209B9A5F8BD
:1051E00014A0A2F80080ACF800300096AA8A06232A
:1051F000502101F0E9F8D8E07CE08FE0A0E0BAE0CF
:10520000CCE0CDE0CEE0CFE02A0200202C0200204E
:1052100038040020B9E2B5E7BCC6CAB1CAFDD7D68A
:10522000CAB5D1E9CFB5CDB300000000F20100202E
:10523000CAB5D1E936A3BAB2E2C1BFD6DCC6DABA82
:10524000CDC6B5C2CA000000F7CECAB1BCE4207416
:105250003D2020202020202020206D730000000011
:10526000F7CED6DCC6DA20543D2020202020202096
:1052700020206D7300000000F7CEC6B5C2CA2066BC
:105280003D202020202020202020487A00000000FF
:10529000F7CEB4A5B7A22020202020202020B4CE15
:1052A000CEAA31D6DCC6DA00F7CEB4CECAFD0000F5
:1052B000F7CED6DCC6DACAFDA3BA202020202020F3
:1052C0002000000020040020F7CE0000B0B4BCFC99
:1052D000204B45595F3020D4DDCDA3BACDBCCCD016
:1052E000F800000034020020008023420700002064
:1052F0005C020020491C89B2A982B1F57A7F02D3F1
:1053000040F2E731A982A2F80080ACF800300096A4
:10531000AA8A0623502101F057F846E0FFF780FDE6
:1053200078782EA1CDE90016029048F2100342468B
:10533000A6214FF4D27001F0A5FA00F0FAFC34E097
:10534000404600F033F900210846FFF78EFD7878DB
:1053500024A1CDE90016029048F210034246D8215C
:105360004FF4D27001F08EFAC5F80090A5F814A0A1
:1053700000F0E8FC19E0FFF753FD78781BA1CDE9B8
:105380000016029048F2100342464FF485714FF424
:10539000D27001F077FA8BF8009006E0286004E004
:1053A000286002E0286000E028602046BDE8FE8F0B
:1053B0001049AFF27720FBF700BB0021084654E507
:1053C00010B54FF6FF7000F0F1F800F0BBFC0A4892
:1053D000002101600121818210BD0000BFAACABC6A
:1053E00000000000C7E5C1E300000000B7B5BBD86E
:1053F00000000000C701F00F2004002008B50121C3
:10540000442001F00EFE1820ADF8000048208DF871
:1054100003006946304801F0FEFB0120ADF80000B2
:1054200028208DF8030069462C4801F0F4FB08BDE4
:105430002DE9F04101252A4C002800D02570207864
:10544000264E254F78B11021384601F03FFCF8B1C7
:105450000821384601F03AFCD0B10121304601F074
:1054600035FC012814D01021384601F02FFC01280A
:105470000CD10821384601F029FC012806D1012170
:10548000304601F023FC002800D12570BDE8F081F2
:105490000A20FBF739F9002020701021384601F06E
:1054A00015FC78B10821384601F010FC78B10121D3
:1054B000304601F00BFC0128E8D1BDE8F0410420A2
:1054C000FBF790BABDE8F0410120FBF78BBABDE8CD
:1054D000F0410220FBF786BA0018014000080140A5
:1054E00029020020F34908807047F249891C08808E
:1054F0007047FAE7EF4A1080901C01807047EE4831
:105500000089EFE710B502460B46EB4C6089FFF7C8
:10551000E9FF100AFFF7E9FFD0B2FFF7E6FF521CE0
:10552000100AFFF7E2FF90B2FFF7DFFFA089FFF755
:10553000D9FF180AFFF7D9FFD8B2FFF7D6FF5B1CD7
:10554000180AFFF7D2FF98B2FFF7CFFFBDE810406F
:10555000D5E700B5FFF7D6FFD84800885DF804EB23
:10556000C3E770B504460D46D34E7089FFF7BAFF06
:10557000200AFFF7BAFFE0B2FFF7B7FF100AFFF704
:10558000B4FFD0B2FFF7B1FFB089FFF7ABFF280A35
:10559000FFF7ABFFE8B2FFF7A8FF180AFFF7A5FF78
:1055A000D8B2FFF7A2FFBDE87040A8E730B50546C6
:1055B0000024C14841880088491E8BB2401E82B237
:1055C00000210846FFF7CDFFBA4A4FF47070921CD5
:1055D00000211580491CA029FBD3641C8442F7D309
:1055E00030BDF0B59FB00121080201F00FFD01218F
:1055F00040F2791001F015FD0127ADF87870102602
:105600008DF87B6003248DF87A401EA9AC4801F028
:1056100002FB4CF23370ADF8780018258DF87B5002
:105620008DF87A401EA9A74801F0F5FA4FF6807070
:10563000ADF878008DF87B508DF87A401EA9A2480D
:1056400001F0E9FA41F20100ADF878008DF87B50E5
:105650008DF87A401EA99D4801F0DDFA08970020D8
:1056600009900F210A910B900C900D900E90022141
:1056700001910290052103910490059006900790F6
:1056800006210F911090119012961390159014907E
:105690001690179031021891199089001A911B9059
:1056A00008A81C9001A81D900FA801F048FD012139
:1056B000062001F078FE1FB0F0BD7F482A2141810D
:1056C0002B2181812C210181012181714FF4F07105
:1056D00001804FF4A0714180A82136200AE710B55F
:1056E000FFF77FFFF120FFF7FDFE3620FFF7FDFEFD
:1056F0000420FFF7FAFE0020FFF7F7FE3C20FFF73B
:10570000F4FE0F20FFF7F1FE8F20FFF7EEFEF220F0
:10571000FFF7E8FE1820FFF7E8FEA320FFF7E5FEFD
:105720001220FFF7E2FE0220FFF7DFFEB220FFF7B4
:10573000DCFE1220FFF7D9FEFF20FFF7D6FE102077
:10574000FFF7D3FE0020FFF7D0FEF820FFF7CAFED8
:105750002120FFF7CAFE0420FFF7C7FEF920FFF75C
:10576000C1FE0020FFF7C1FE0820FFF7BEFE362075
:10577000FFF7B8FE0820FFF7B8FEB420FFF7B2FE2F
:105780000020FFF7B2FEB620FFF7ACFE0220FFF7C5
:10579000ACFE2220FFF7A9FEC120FFF7A3FE4120A7
:1057A000FFF7A3FEC520FFF79DFE0020FFF79DFE3B
:1057B0001820FFF79AFEE020FFF794FE0F20FFF776
:1057C00094FE1F20FFF791FE1C20FFF78EFE0C2099
:1057D000FFF78BFE0F20FFF788FE0820FFF785FEFE
:1057E0004820FFF782FE9820FFF77FFE3720FFF763
:1057F0007CFE0A20FFF779FE1320FFF776FE0420D7
:10580000FFF773FE1120FFF770FE0D20FFF76DFE0E
:105810000020FFF76AFEE120FFF764FE0F20FFF78C
:1058200064FE3220FFF761FE2E20FFF75EFE0B20A4
:10583000FFF75BFE0D20FFF758FE0520FFF755FE32
:105840004720FFF752FE7520FFF74FFE3720FFF786
:105850004CFE0620FFF749FE1020FFF746FE03200E
:10586000FFF743FE2420FFF740FE2020FFF73DFE18
:105870000020FFF73AFE3A20FFF734FE5520FFF7ED
:1058800034FE1120FFF72EFE3620FFF72BFEC82036
:10589000FFF72BFE7820FAF737FF2920FFF722FECB
:1058A000FFF70BFF4FF6FF70FFF780FE084901205E
:1058B000086010BDFE07006C380400202A0200209A
:1058C000000C01400014014000180140002001407C
:1058D0008081214270B50021EC4D0024EC4A012367
:1058E000060602D5C5F8A43101E0C5F8A44140067A
:1058F000000EC2F88441C2F88431491CC9B208299B
:10590000EED370BD2DE9F04100250024E14E0027C3
:105910003760DFF87883C8F8A471C8F8AC71FFF776
:10592000D9FF0620FAF7D9FE37600120FAF7D5FE35
:10593000012131603760A6F5C2764FF6FF7000EAAC
:105940004404C6F88471C6F88411D6F808210AB157
:10595000641CA4B26D1CEDB2102DF0D32009C8F860
:10596000AC11BDE8F081FEB5064600246D46304618
:10597000FFF7C8FF25F81400641CA4B2052CF6D369
:105980000021481C044680B20BE035F8113035F890
:105990001020934203D925F8112025F81030401C1F
:1059A00080B20528F1D3A1B20429EAD30021012055
:1059B00035F81020114489B2401C80B20428F7D376
:1059C0000320B1FBF0F0FEBD2DE9F04104460F4687
:1059D000B14D2878FFF7C7FF06466878FFF7C3FF89
:1059E000268038800120BCE72DE9FF4106460F469E
:1059F00002A903A8FFF7E8FF80B3694601A8FFF7F3
:105A0000E3FF60B3BDF80420BDF80C309A4203D820
:105A100002F13200834205D3934225D803F13200CC
:105A2000824221D2BDF80050BDF80840A54203D8FB
:105A300005F13200844204D3AC4215D83234A54279
:105A400012D2981840083080BDF80800BDF8001048
:105A5000084440083880012004B082E700E001E0FB
:105A60000020F9E70020F7E70020F5E72DE9F843EB
:105A700005460C46894F3A8005F10D0082B219386F
:105A800080B22346214600F0F3FA04F10D0083B200
:105A9000193881B22A46284600F0EAFA601C80468E
:105AA00081B2681C064680B2FFF753FD1FFA88F1E9
:105AB000681E804680B2FFF74CFD601E814681B2B1
:105AC000B0B2FFF746FD1FFA89F11FFA88F0FFF721
:105AD00040FD0020009006233A882146284600F029
