:020000042000DA
:10100000A8DA0020D98C0020E18C0020E38C00209D
:10101000E58C0020E78C0020E98C00200000000017
:10102000000000000000000000000000EB8C002029
:10103000ED8C002000000000EF8C0020F18C0020DF
:10104000F38C0020F38C0020F38C0020F38C002024
:10105000F38C0020F38C0020F38C0020F38C002014
:10106000497F00207F7F0020B57F0020F38C002087
:10107000F38C0020F38C0020F38C0020F38C0020F4
:10108000F38C0020F38C0020F38C0020F38C0020E4
:10109000F38C0020F38C0020F38C0020EB7F0020E9
:1010A000F38C0020F38C0020F38C0020F38C0020C4
:1010B00087800020F38C002001810020F38C002029
:1010C000F38C0020F38C0020F38C0020F38C0020A4
:1010D000F38C0020F38C0020F38C0020F38C002094
:1010E000F38C0020F38C0020F38C0020F38C002084
:1010F000F38C0020F38C0020F38C0020F38C002074
:10110000F38C0020F38C0020F38C0020F38C002063
:10111000F38C0020F38C0020F38C0020F38C002053
:10112000F38C0020F38C0020F38C0020F38C002043
:1011300000F002F800F05AF80AA090E8000C82448F
:101140008344AAF10107DA4501D100F04FF8AFF26C
:10115000090EBAE80F0013F0010F18BFFB1A43F095
:1011600001031847ACB30000CCB300000A444FF0B1
:10117000000C10F8013B13F0070408BF10F8014BF6
:101180001D1108BF10F8015B641E05D010F8016B3B
:10119000641E01F8016BF9D113F0080F1EBF10F89F
:1011A000014BAD1C0C1B09D16D1E58BF01F801CBC2
:1011B000FAD505E014F8016B01F8016B6D1EF9D545
:1011C0009142D6D37047000000230024002500265A
:1011D000103A28BF78C1FBD8520728BF30C148BF9A
:1011E0000B6070471FB51FBD10B510BD09F06CFC3A
:1011F0001146FFF7F7FF00F009F809F08AFC03B485
:10120000FFF7F2FF03BC09F091FC00000EB500F0FF
:101210002EFB00F0B7F94FF4A06007F07DFD06F05B
:1012200075FA06F0DBFD06F03DFE472140F2E7309F
:1012300006F000FF41F61F41632006F034FF06F080
:1012400071FD06F0CDF800F093FB00F005FA00F018
:1012500011FA0020BE490860BE48BF49086075E128
:10126000002006F0D7F8BD48006818B10120BC493D
:10127000086002E00020BA490860BA4800780128F6
:1012800035D14FF6FF70B8490880E720B74908808C
:1012900010200090B6480C2360210268D22007F08D
:1012A00063F910200090B2480C2392214268D220AA
:1012B00007F05AF910200090AD480C23C421826831
:1012C000D22007F051F910200090A9480C23F621F4
:1012D000C268D22007F048F91020092300909C48EA
:1012E000282102684FF4BC7007F03EF919E19D48CF
:1012F0000078022811D14FF6FF709B490880E72043
:101300009A4908801020092300909148162102680C
:101310004FF4BC7007F028F903E1924800780328E5
:1013200011D14FF6FF7090490880E7208F4908805F
:101330001020092300908648162102684FF4BC70E3
:1013400007F012F9EDE087480078042811D14FF634
:10135000FF7085490880E720844908801020092310
:1013600000907B48282102684FF4BC7007F0FCF81D
:10137000D7E07C48007805283ED1BE249625E7209A
:10138000794908804FF6FF70784908802020009046
:10139000A5F1280081B2072376480268204607F0AD
:1013A000BAF96B4800684FF47A71B0FBF1F620206F
:1013B0000323324629460090204607F0ACF90B2063
:1013C00000906A48038868480288294604F1300082
:1013D00007F072F95E4800684FF47A71B0FBF1F2E1
:1013E00001FB12062020032332462946009004F117
:1013F000400007F090F994E05A48007806288BD115
:101400004FF6FF7058490880E72058490880504837
:101410000068594908610846006818B9084600681C
:10142000486008E054480068401E5349898AB0FB70
:10143000F1F051494860504800694F494968B0FB94
:10144000F1F04D498860084680684C49B1FBF0F0E6
:101450004949C86010200090084606235021426880
:1014600047480078403007F07FF81020009042484D
:1014700006238221026942480078403007F074F860
:10148000102000903C480623B42182683C48007834
:10149000403007F069F83848C0686421B0FBF1F4C7
:1014A000102003232246E621009035480078403082
:1014B00007F05AF8002010212E22CDE900210290D9
:1014C0002A48038828480288E6212D4800785830A9
:1014D00006F07EFF2848C0686421B0FBF1F201FBF2
:1014E0001204102002232246E621009024480078AE
:1014F000603007F08DF8102000901F48828A062384
:1015000050211F480078EB3007F02EF81020009093
:10151000194806238221026819480078EB3007F049
:1015200023F8E7201049088000234FF4F072194691
:10153000184606F037FE01234FF4F07219460020DA
:1015400006F030FE4FF6FF700749088088E600007D
:1015500024D200200010002008ED00E02881234262
:101560009401234207D00020EED10020F0D10020CA
:101570000CD40020B0D10020E4D30020A0860100CC
:1015800000D0002010B56FF0040007F014FC2E48C6
:1015900000682E49B0FBF1F02D490870084600782C
:1015A00000EB4001C1EBC0104FF6FF7101EAC00033
:1015B0002849088010BD0146254A12784A434FF059
:1015C000E0235A6100229A611A46126942F0010230
:1015D0001A6100BF4FF0E022106900F001021AB159
:1015E00000F48032002AF5D04FF0E022126922F098
:1015F00001024FF0E0231A6100229A617047014610
:10160000144A12884A434FF0E0235A6100229A613B
:101610001A46126942F001021A6100BF4FF0E0223F
:10162000106900F001021AB100F48032002AF5D0EE
:101630004FF0E022126922F001024FF0E0231A611C
:1016400000229A617047000008D0002000127A0042
:1016500002D0002004D0002010B501F04FF901F0B5
:101660005DFD03F0CCFD05F015F805F0ECFA05F092
:101670007AFE10BD002043490870704710B504463B
:1016800041480078844200D110BD3F4800780A28C4
:101690001ED2DFE800F005080B0E1114171A1B1CF0
:1016A00001F039F914E001F046FD11E003F0B4FD5A
:1016B0000EE003F0B1FD0BE004F0F9FF08E005F0E7
:1016C000CFFA05E005F05CFE02E001E000E000BFBB
:1016D00000BF0A2C1ED2DFE804F005080B0E11141F
:1016E000171A1B1C01F011F914E001F01EFD11E0A6
:1016F00003F08CFD0EE003F089FD0BE004F0D1FF58
:1017000008E005F0A7FA05E005F034FE02E001E08C
:1017100000E000BF00BF1C48047000BFB4E710B574
:10172000184800780A281ED2DFE800F005080B0EE2
:101730001114171A1B1C00F010FD14E001F0B1FA8F
:1017400011E002F0C4FC0EE002F0C1FC0BE004F07A
:1017500098F808E005F099F805E005F0F3FB02E0E1
:1017600001E000E000BF00BF10BD10B507484168B0
:101770000020884703480078FFF780FFFFF7CFFF7E
:1017800010BD000007D0002006D00020F4D10020BA
:101790000CB50020019000906C48006840F4803047
:1017A0006A49086000BF6948006800F40030009092
:1017B0000198401C0190009818B90198B0F5A06FED
:1017C000F1D16248006800F4003010B101200090AF
:1017D00001E0002000900098012843D15C48006897
:1017E00040F010005A4908600846006820F00300E5
:1017F00008600846006840F00200086053484068EE
:10180000524948600846406848600846406840F4CD
:10181000806048600846406820F47C1048600846B4
:10182000406840F4E81048600846006840F0807066
:10183000086000BF4548006800F000700028F9D03B
:101840004248406820F0030040494860084640682C
:1018500040F00200486000BF3C48406800F00C00C7
:101860000828F9D10CBD10B5FFF792FF10BD10B5D7
:101870003648006840F00100344908600846406876
:1018800034490840314948600846006832490840F8
:101890002E4908600846006820F480200860084649
:1018A000406820F4FE0048604FF41F008860FFF796
:1018B000DAFF4FF000602949086010BD10B5002123
:1018C00000200022214B5B6803F00C0121B10429A8
:1018D00006D0082928D107E0214B224C236027E0BD
:1018E0001F4B204C236023E0184B5B6803F47010FF
:1018F000164B5B6803F48032022303EB904022B95D
:10190000194B4343174C23600DE0104B5B6803F405
:10191000003323B1144B4343124C236003E0104BBC
:101920004343104C236003E00D4B0E4C236000BF7B
:1019300000BF064B5B68C3F303130C4CE15C094B1F
:101940001B68CB40074C236010BD00000010024014
:10195000002002400000FFF8FFFFF6FE08ED00E067
:1019600000127A0008D0002000093D000CD00020B1
:1019700010B54FF4C8711B4809F07CF810BD10B5C4
:101980000246002011E0174B53F830305BB9154B7D
:1019900043F8302003EBC0035960134B1B785B1CEA
:1019A000114C237010BD431CD8B23228EBDB00BFB2
:1019B000F8E770B5054600240EE00A4800EBC400C5
:1019C0004068284038B1074850F834102846884706
:1019D000054605B970BD641C034800788442ECDB01
:1019E00000BFF7E73CD200201CD000200EB5F9481C
:1019F00000781021F8A2CDE900210290FB4803886D
:101A0000FB480288FB480178FB48007807F05EF845
:101A1000F04800781021F9A2CDE900210290F548A4
:101A20000078FB4A12788118F0480388F048028851
:101A3000F148007807F04AF8E64800781021F5A24E
:101A4000CDE900210290EB480078F14A1278104469
:101A5000EF4A12788118E5480388E5480288E6488D
:101A6000007807F033F8DB4800781021F1A2CDE9C7
:101A700000210290DF480078E54A12781044E44AD9
:101A800012781044E24A12788118D8480388D8485E
:101A90000288D948007807F019F8CE48007810215C
:101AA000EAA2CDE900210290D2480078D84A127803
:101AB0001044D74A12781044D54A12781044D44AB8
:101AC00012788118C9480388C9480288CA48007832
:101AD00006F0FCFFBF4800781021DFA2CDE900210D
:101AE0000290C4480078CA4A12781044C84A127852
:101AF0001044C74A12781044C54A12781044C44AA8
:101B000012788118B9480388B9480288BA48007821
:101B100006F0DCFFAF4800781021D5A2CDE9002106
:101B20000290B4480078BA4A12781044B84A127841
:101B30001044B74A12781044B54A12781044B44A97
:101B400012781044B24A12788118A84803884FF4DA
:101B500078424FF4D27006F0B9FF0EBD2DE9FE4376
:101B600005460E46E7200090C34802881423002152
:101B7000084606F0E3FA01201021C0A21F23CDE998
:101B8000002102904FF6FF720221002007F022F898
:101B900001201021BF4A0023CDE9002102904FF619
:101BA000FF7204214FF4B97006F090FF4FF6FF70FA
:101BB0000090B1484088143883B2AF48028814219D
:101BC000002006F0BBFAFFF711FF002454E0E720E5
:101BD000B1490880874F3F78DFF834C29CF800C0D5
:101BE0000CFB0477DFF8B4C29CF800C067441037E0
:101BF000BBB2AB4F17F804C07F4F3F7838374FF078
:101C0000100808FB0C77DFF894C29CF800C007EBC3
:101C10000C02784F3F78DFF8F8C19CF800C00CFB4D
:101C20000477DFF878C29CF800C0A7EB0C07B9B2C4
:101C3000714F3F78DFF864C29CF800C0A7EB0C0737
:101C4000B8B206F007FB63480078102195A2CDE9F1
:101C500000210290674A12786D4B1B7804FB032227
:101C600091B2654A1278283A90B2604A1388E72206
:101C700006F02CFF601CC4B2062CA8DB6448007878
:101C800000EB40005B4C247804EB4000834C24784C
:101C9000204400F110038148007800F5E2725C48AE
:101CA000007800EB4000534C247804EB40007B4C60
:101CB0002478001B81B24FF4CD7006F0CBFA0020DF
:101CC0001021794A0346CDE9002102904FF6FF72B8
:101CD0004FF4987106F0FAFE012074490860BDE8DF
:101CE000FE833EB5044672480470FFF77FFE7048DD
:101CF0000078012813D100206E490870354800781B
:101D0000102135A2E723CDE9002102904FF6FF72A2
:101D1000384801783848007806F0D8FE48E1644831
:101D20000078022816D100206249087029480078FE
:101D3000102132A2CDE9002102902E480078344AC9
:101D400012788118E7234FF6FF722B48007806F0CF
:101D5000BDFE2DE156480078032819D100205549D1
:101D600008701C48007810212AA2CDE900210290B9
:101D700020480078264A12781044254A12788118A3
:101D8000E7234FF6FF721C48007806F09FFE0FE134
:101D90004748007804281CD10020464908700D48A7
:101DA0000078102123A2CDE900210290114800788B
:101DB000174A12781044164A12781044144A1278BE
:101DC0008118E7234FF6FF720B48007806F07EFE7D
:101DD000EEE071E04CD00020CAB5D1E931A3BAB22F
:101DE000E2C1BFB5B2B9E2CAB1BCE4004ED0002036
:101DF00050D000204AD0002049D00020CAB5D1E9F7
:101E000032A3BAB2E2C1BFCBB2CAB1CBD9B6C80015
:101E10004BD00020CAB5D1E933A3BAB2E2C1BFD4D6
:101E2000C8B1E4CBD9D4CBB6AFB5C4BCD3CBD9B64B
:101E3000C8000000CAB5D1E934A3BAB2E2C1BFC537
:101E4000F6D7B2D6D0B5C4B6AFC1BF00CAB5D1E9D6
:101E500035A3BABCC6CAFD00CAB5D1E936A3BAB229
:101E6000E2C1BFD6DCC6DABACDC6B5C2CA00000030
:101E7000CDCBB3F600000000FCD30020B9E2B5E7FB
:101E8000BCC6CAB1CAFDD7D6CAB5D1E9CFB5CDB3A4
:101E9000000000001ED00020EED1002052D0002013
:101EA00053D00020F7CE00002AD0002080812142AC
:101EB00059D0002065D00020FB480078052820D1AB
:101EC0000020FA490870FA4800781021AFF2840225
:101ED000CDE900210290F7480078F74A12781044C3
:101EE000F54A12781044F44A12781044F24A1278F3
:101EF0008118E7234FF6FF72F048007806F0E6FD00
:101F000056E0E9480078062823D10020E749087008
:101F1000E74800781021AFF2C002CDE9002102901D
:101F2000E4480078E44A12781044E34A12781044F6
:101F3000E14A12781044E04A12781044DE4A1278DE
:101F40008118E7234FF6FF72DC48007806F0BEFDEB
:101F50002EE0D5480078082803D10020D349087026
:101F600026E0D1480078092822D1D14800781021F4
:101F7000AFF20412CDE900210290CE480078CE4A9B
:101F800012781044CC4A12781044CB4A127810448C
:101F9000C94A12781044C84A12781044C64A1278C6
:101FA0008118E7234FF6FF724FF4D27006F08EFDD2
:101FB000BD480078C249097888421AD1BA480078E9
:101FC000082803D0B8480078092810D1B64800780E
:101FD00009280ED1B5480078401CB449087008465D
:101FE0000078022805D1B748B749086001E0B74832
:101FF0000470AD480078B24908703EBD10B5044683
:10200000B248007800281DD1012C24D1B0480078B6
:10201000401E40B2AE490870084690F90000012801
:1020200001DA01200870AA48007801280BD1A948DC
:102030000078002806D00020A6490870A449087836
:10204000FFF74FFE87E00120A2490870A0490878F9
:10205000FFF747FE7FE0022C0ED19D4890F900006B
:10206000002878DD9A4890F90000072873DA98492B
:102070000878FFF736FE6EE0042C24D194480078EF
:10208000401C40B292490870084690F900000628AA
:1020900001DD062008708E48007806280BD18D4897
:1020A0000078002857D000208A49087088490878AD
:1020B000FFF717FE4FE00120864908708449087831
:1020C000FFF70FFE47E0B4F5805F06D10120FFF770
:1020D00008FE01207E4908703DE0B4F5005F06D19E
:1020E0000220FFF7FEFD02207949087033E0B4F5C5
:1020F000804F06D10320FFF7F4FD032074490870D8
:1021000029E0B4F5004F06D10420FFF7EAFD0420D2
:102110006F4908701FE0B4F5803F06D10520FFF736
:10212000E0FD05206A49087015E0B4F5003F06D1CE
:102130000620FFF7D6FD0620654908700BE0B4F5D0
:10214000802F03D10820FFF7CCFD04E0202C02D122
:102150000920FFF7C6FD204610BD10B5574800788E
:102160005D490978401A5D49098A88422DDA5B4841
:10217000028A5B480178514800783830102303FB0D
:10218000010055490978084482421EDA4949097814
:10219000084651490978401A5049498A884214DA58
:1021A0004E48418A434A127810464B4A12781044EE
:1021B0001030814209DA4B48007830B1002049499B
:1021C00008701802FFF7F5FB33E03C4800784249FD
:1021D0000978401A4149098A884227DA3F48028A29
:1021E0003F480178354800783830102303FB010060
:1021F000394909780844824218DA2E490978084694
:1022000035490978401A3549498A88420EDA3348F7
:10221000418A284A127810462F4A1278104410300A
:10222000814203DA30480068012802D101202D499B
:1022300008702248007828490978401A2749098AF5
:10224000884256DA2548028A254841781B4800789A
:102250003830102303FB01001F49097808448242EB
:1022600047DA154800781349097808441A4909786B
:10227000401A1A49498A88423BDA1848418A0E486E
:1022800000780C4A12781044134A12781044103027
:1022900081422EDA1548007850B3002013490870A7
:1022A0005802FFF786FB5CE059D0002065D0002083
:1022B0004CD000204AD000204BD0002049D0002034
:1022C0005AD000200400FA050CED00E007D00020F1
:1022D00063D0002064D0002052D00020F4D1002030
:1022E00053D000205BD00020288123425CD0002006
:1022F000FFE7FE480078FE490978401AFD49098A3F
:1023000088422BDAFB48028AFB484178F74800787C
:102310003830102303FB0100F54909780844824254
:102320001CDAF6480078F64909780844F04909783B
:10233000401AF049498A884210DAEE48418AEF484B
:102340000078EF4A12781044E94A127810441030AD
:10235000814203DAEB480068012802D10120EA49F2
:102360000870E2480078E2490978401AE149098A90
:10237000884233DADF48018ADF488278DB48007818
:102380003830102303FB0200D94A127810448142EE
:1023900024DADA480078DA49097801EB4000D449B8
:1023A0000978401AD349498A884217DAD148418AC4
:1023B000D2480078D24A127802EB4000CC4A127818
:1023C00010441030814209DAD048007830B1002042
:1023D000CE4908709802FFF7ECFA39E0C34800785C
:1023E000C3490978401AC349098A88422DDAC1488D
:1023F000018AC1488278BD4800783830102303FB39
:102400000200BB4A1278104481421EDABB480078B1
:10241000BB49097801EB4000B5490978401AB54934
:10242000498A884211DAB348418AB4480078B44AEC
:10243000127802EB4000AE4A12781044103081420C
:1024400003DAB0480068012802D10120AF490870C2
:10245000A6480078A6490978401AA649098A884200
:1024600035DAA448018AA448C278A04800783830F8
:10247000102303FB02009E4A12781044814226DAA0
:102480009E48007800EB40009D490978084498492F
:102490000978401A9749498A884218DA9548418A4A
:1024A0009648007800EB4000954A12781044904A14
:1024B000127810441030814209DA9548007830B122
:1024C000002093490870D802FFF773FA3BE0874871
:1024D000007887490978401A8649098A88422FDAA4
:1024E0008448028A8448C1788048007838301023B4
:1024F00003FB01007E4909780844824220DA7F48C4
:10250000007800EB40007E49097808447849097852
:10251000401A7849498A884212DA7648418A7748CF
:10252000007800EB4000764A12781044704A127826
:1025300010441030814203DA72480068012802D149
:102540000120734908706948007869490978401A80
:102550006849098A884233DA6648028A66480179FE
:10256000624800783830102303FB01006049097885
:102570000844824224DA614800786149097801EB15
:1025800080005B490978401A5A49498A884217DA1B
:102590005848418A59480078594A127802EB80001D
:1025A000534A127810441030814209DA59480078B1
:1025B00030B10020574908701803FFF7FAF939E0E5
:1025C0004A4800784A490978401A4A49098A8842A3
:1025D0002DDA4848028A4848017944480078383062
:1025E000102303FB010042490978084482421EDAA5
:1025F000424800784249097801EB80003C4909785B
:10260000401A3C49498A884211DA3A48418A3B4893
:1026100000783B4A127802EB8000354A1278104469
:102620001030814203DA37480068012802D10120C6
:10263000384908702D4800782D490978401A2D49ED
:10264000098A884235DA2B48028A2B484179274883
:1026500000783830102303FB01002549097808442D
:10266000824226DA2548007800EB80002449097868
:1026700008441F490978401A1E49498A884218DAD5
:102680001C48418A1D48007800EB80001C4A1278E3
:102690001044174A127810441030814209DA1E485B
:1026A000007830B100201C4908705803FFF781F909
:1026B00054E00E4800780E490978401A0D49098AFD
:1026C000884248DA0B48028A0B484179074800786B
:1026D0003830102303FB0100054909780844824281
:1026E00039DA0648007800EB800017E049D0002076
:1026F00052D00020F4D1002053D000204BD0002035
:102700004AD00020288123425CD000205DD00020E8
:102710005ED000205FD0002060D000208F49097873
:1027200008448F490978401A8E49498A884212DA4A
:102730008C48418A8C48007800EB8000874A1278E8
:102740001044874A127810441030814203DA8748D7
:102750000068012802D10120854908708148008A5B
:10276000B0F5CD7F2FDD7F48018A7D48007800F5E8
:10277000E270814227DA7C48007800EB80007749DC
:102780000978084476490978401A7649498A884286
:1027900019DA7448418A7448007800EB80006F4A67
:1027A000127810446E4A12781044103081420ADACE
:1027B0007048007838B100206E4908704FF48020CE
:1027C000FFF7F7F830E06748008AB0F5CD7F28DDE5
:1027D0006448018A6248007800F5E270814220DA9C
:1027E0006148007800EB80005C49097808445C4946
:1027F0000978401A5B49498A884212DA5948418A65
:102800005948007800EB8000544A12781044544A2A
:10281000127810441030814203DA544800680128CD
:1028200002D10120534908704E48008AB0F5CD7F8F
:1028300030DD4C48018A4A48007800F5E270814258
:1028400028DA4948007800EB40004449097801EB58
:10285000400043490978401A4249498A884219DAB6
:102860004048418A4048007800EB40003B4A1278DB
:1028700002EB40003A4A127810441030814209DAE3
:102880003D48007830B100203B4908702020FFF718
:1028900090F832E03348008AB0F5CD7F2ADD314828
:1028A000018A2F48007800F5E270814222DA2E4832
:1028B000007800EB40002949097801EB40002849E5
:1028C0000978401A2749498A884213DA2548418AFB
:1028D0002548007800EB4000204A127802EB4000C7
:1028E0001F4A127810441030814203DA1F480068F2
:1028F000012802D101202049087010BD10B51F49E0
:10290000AFF60710FFF73BF810BD10B500210846E1
:10291000FFF724F910BD10B54FF6FF7004F046FE26
:10292000012017490870174908701749087017499E
:102930000870174908700E4908700E4908700E4952
:1029400008700020134908700120134908700720FF
:10295000124908701249087010BD00004AD00020CA
:1029600052D00020F4D100204BD0002028812342F7
:1029700060D0002061D0002062D0002027F0070046
:102980005BD000205CD000205DD000205ED0002015
:102990005FD0002063D0002064D0002059D00020F8
:1029A0005AD000200EB5FC4800781021FBA2CDE9DA
:1029B00000210290FB480388FB480288A6214FF4BF
:1029C000D27006F083F8F44800781021F7A2CDE920
:1029D00000210290F3480388F3480288D8214FF47D
:1029E000D27006F073F8EC4800781021F1A2CDE91E
:1029F00000210290EB4803884FF478424FF4857130
:102A00004FF4D27006F062F80EBDFEB505460E46D4
:102A1000E7200090E948028814230021084605F0C9
:102A20008DFB01201021E6A21F23CDE90021029099
:102A30004FF6FF720221002006F0CCF84FF6FF702F
:102A40000090DE48438802881421002005F076FBC0
:102A5000D14800781021E0A2CDE900210290D148B0
:102A60000388D14802882821142006F02FF8CA488C
:102A700000781021DDA2CDE900210290C948038829
:102A8000C948028828214FF4877006F01FF8C24811
:102A900000781021DCA2CDE900210290C148038812
:102AA000C14802886021822006F010F8BA480078F8
:102AB0001021D8A2CDE900210290BA480388BA4873
:102AC00002889221822006F001F8B3480078102194
:102AD000D3A2CDE900210290B2480388B24802880F
:102AE000C421822005F0F2FFAB4800781021CFA26C
:102AF000CDE900210290AB480388AB480288F6215B
:102B0000822005F0E3FFA44800781021CAA2CDE995
:102B100000210290A3480388A348028860214FF453
:102B20009B7005F0D3FF9C4800781021C2A2CDE92C
:102B3000002102909B4803889B48028892214FF411
:102B40009B7005F0C3FF944800781021BAA2CDE92C
:102B5000002102909348038893480288C4214FF4CF
:102B60009B7005F0B3FF8C4800781021B2A2CDE92C
:102B7000002102908B4803888B480288F6214FF48D
:102B80009B7005F0A3FF844800781021AAA2CDE92C
:102B9000002102908348038883480288F6214FF47D
:102BA0009B7005F093FFE720A449088000241DE0F6
:102BB000322204FB02F000F1560304FB02F000F1A4
:102BC00056014FF4BC72502005F0ECFA322204FB9F
:102BD00002F000F17A0304FB02F000F17A014FF4F5
:102BE000BC72502005F0DEFA601CC4B2042CDFDB9E
:102BF0004FF4887350225621104605F0D3FA4FF453
:102C000088734FF4BC725621104605F0CBFAFFF7DB
:102C1000C9FE002435E032276743A637DFF820C21B
:102C20009CF800C067441037BBB2854F3F7807F56A
:102C3000E27232276743A637DFF804C29CF800C06F
:102C4000A7EB0C07B9B27E4F3F78C7F5D27005F0FD
:102C500001FB5148007810217AA23223CDE90021EE
:102C6000029004FB03F202F1A601754A1278C2F544
:102C7000CA7290B24B4A1388E72205F027FF601C06
:102C8000C4B2032CC7DB002010216F4A0346CDE9F4
:102C9000002102904FF6FF724FF4987105F016FF75
:102CA000FEBD10B566480078C0F5D2706749098A44
:102CB000884220DA6548018A6148007800F5E270B0
:102CC000814218DA5E480078C0F1A6005F49498A5F
:102CD000884210DA5D48418A59480078B63081420E
:102CE00009DA5B48007830B100205949087080202B
:102CF000FEF75FFE25E052480078C0F5D2705349D8
:102D0000098A88421ADA5148018A4D48007800F54C
:102D1000E270814212DA4A480078C0F1A6004B49BD
:102D2000498A88420ADA4948418A45480078B630DB
:102D3000814203DA47480068012802D10120444952
:102D400008703F480078C0F5D2704049098A88422F
:102D500021DA3E48018A3A48007800F5E270814263
:102D60007CDA37480078C0F1D8003849498A88426F
:102D700074DA3648418A32480078E83081426DDAA8
:102D80003548007838B10020334908704FF480701E
:102D9000FEF70FFE88E061E06DD00020BFAACABC3C
:102DA0000000000068D000206AD00020C7E5C1E321
:102DB00000000000B7B5BBD800000000FCD3002025
:102DC000B9E2B5E7BCC6CAB1CAFDD7D6CAB5D1E922
:102DD000CFB5CDB300000000CAB5D1E931A3BAB276
:102DE000E2C1BFB5B2B9E2CAB1BCE400CFB5CDB360
:102DF000BCC6CAB1CAB1BCE43A20202020202020A1
:102E00002020206D73000000B4ABB8D0C6F7313A73
:102E100000000000B4ABB8D0C6F7323A00000000A2
:102E2000B4ABB8D0C6F7333A00000000B4ABB8D0AA
:102E3000C6F7343A000000006D730000EED10020A8
:102E40006CD00020F7CE000080D00020F4D100200C
:102E5000A5D0002028812342A6D00020BD480078BC
:102E6000C0F5D270BC49098A88421ADABA48018A88
:102E7000B848007800F5E270814212DAB54800786F
:102E8000C0F1D800B449498A88420ADAB248418A76
:102E9000B0480078E830814203DAB0480068012881
:102EA00002D10120AE490870AA480078C0F5D2705E
:102EB000A949098A884221DAA748018AA5480078E9
:102EC00000F5E270814219DAA2480078C0F58570F9
:102ED000A149498A884211DA9F48418A9D48007871
:102EE00000F58D70814209DA9E48007830B10020EB
:102EF0009C4908704020FEF75CFD26E0954800786C
:102F0000C0F5D2709449098A88421BDA9248018A36
:102F10009048007800F5E270814213DA8D4800781D
:102F2000C0F585708C49498A88420BDA8A48418A03
:102F30008848007800F58D70814203DA8748006880
:102F4000012802D101208749087010BD3EB5044612
:102F500085480078012818D1012C17D1FFF722FDF0
:102F6000824800781021AFF2B41248F21003CDE984
:102F7000002102904FF6FF724FF485714FF4D2702A
:102F800005F0A4FD002078490870C5E0022C15D199
:102F9000FFF708FD754800781021AFF2002248F2D3
:102FA0001003CDE9002102904FF6FF72A6214FF4E5
:102FB000D27005F08BFD04F050FFADE0042C15D16C
:102FC000FFF7F0FC694800781021AFF2202248F2A8
:102FD0001003CDE9002102904FF6FF72D8214FF483
:102FE000D27005F073FD04F041FF95E0802C15D1FF
:102FF000FFF7D8FC5D4800781021AFF2602248F25C
:103000001003CDE9002102904FF6FF72A6214FF484
:10301000D27005F05BFD04F020FF7DE0B4F5807F09
:1030200015D1FFF7BFFC514800781021AFF2842280
:1030300048F21003CDE9002102904FF6FF72D8212B
:103040004FF4D27005F042FD04F010FF64E0402C14
:1030500017D1FFF7A7FC454800781021AFF2AC224A
:1030600048F21003CDE9002102904FF6FF724FF4B1
:1030700085714FF4D27005F029FD00203A4908709F
:103080004AE0B4F5801F04D1394800683949086026
:1030900042E0B4F1807F07D13548006835490968BE
:1030A000401A3549086037E0B4F5001F04D13048B4
:1030B0000068324908602FE0B4F1007F07D12C4846
:1030C00000682E490968401A2B49486024E0B4F58D
:1030D000000F04D126480068294908601CE0B4F1BB
:1030E000006F07D12248006825490968401A224923
:1030F000886011E0B4F5800F04D11D4800682149B3
:10310000086009E0B4F1806F06D1194800681D49D4
:103110000968401A1849C86020463EBD10B51A49D2
:10312000AFF2D710FEF72BFC10BD10B500210846FA
:10313000FFF76BFC10BD10B54FF6FF7004F036FAC8
:1031400004F094FE012007490870054908700F49F2
:10315000087010BD6CD00020F4D1002028812342DB
:10316000A6D00020A7D0002007D000206DD00020DE
:1031700024D2002070D000200CD4002074D0002075
:1031800078D000207CD00020C701F00FA5D000200F
:1031900000B585B0FFF706FC4FF6FF70FE490880CA
:1031A000E720FE490880FE48007801287ED1FD48CE
:1031B00000781021FCA24FF47C43CDE9002102905D
:1031C0004FF6FF7242214FF4D27005F07FFCF548B4
:1031D00000781021F6A2CDE900210290F64803887C
:1031E000F648028874214FF4D27005F06FFCF44861
:1031F000007802287ED12820F2490870E94800783A
:103200001021F1A2CDE900210290EB480388EB48A0
:103210000288F1480178F148007805F057FCE14850
:1032200000781021EEA2CDE900210290E548007857
:10323000E949097808440490DF480388DF48028898
:10324000E6480078049905F041FCD6480078102142
:10325000E7A2CDE900210290DA480078DE4909783A
:1032600001EB40000490D4480388D4480288DB482E
:103270000078049905F02AFCCA4800781021E0A2E1
:10328000CDE900210290CF48007800EB4000D24900
:10329000097808440490C8480388C8480288CF4881
:1032A0000078049905F012FCBE4800E0CEE30078F7
:1032B0001021D7A2CDE900210290BF480388BF4862
:1032C0000288C5480178D748007805F0FFFBB5486B
:1032D00000781021D4A2CDE900210290B9480078ED
:1032E000BD49097808440490B3480388B34802886C
:1032F000CC4800E0C9E00078049905F0E7FBA94854
:1033000000781021CDA2CDE900210290AD480078CF
:10331000B149097801EB40000490A7480388A74809
:103320000288C0480078049905F0D0FB9D480078D9
:103330001021C7A2CDE900210290A248007800EB3D
:103340004000A5490978084404909B4803889B489D
:103350000288B4480078049905F0B8FB102000906A
:10336000C04800689C4904900978092302469B489C
:10337000039100781C3005F0F7F810200090B94850
:10338000406804908F4800789349097808440923DD
:1033900003900146914800781C30049A05F0E4F847
:1033A00010200090AF4880680490864800788A49D1
:1033B000097801EB40000923039001468748007813
:1033C0001C30049A05F0D0F810200090A548C06881
:1033D00004907C48007800EB40007F49097808445D
:1033E0000923039001467D4800781C30049A05F0BB
:1033F000BBF8102000909B48006977490490097839
:10340000092302468748039100781C3005F0ACF888
:10341000102000909348406904906A4800786E49F3
:10342000097808440923039001467E4800781C303F
:10343000049A05F099F8102000908A488069049059
:10344000604800786449097801EB40000923039043
:103450000146744800781C30049A05F085F8102065
:1034600000908048C06904905648007800EB400006
:1034700059490978084409230390014669480078AE
:103480001C30049A05F070F89EE24D48007803283D
:10349000FAD11E204B4908704248007810214AA2F8
:1034A000CDE90021029044480388444802884A48F4
:1034B00001784A48007805F009FB3A480078102165
:1034C00047A2CDE9002102903E48007842490978A0
:1034D0000844049038480388384802883F480078F8
:1034E000049905F0F3FA2F480078102140A2CDE9A5
:1034F000002102903348007800EB400036490978FB
:10350000084404902C4803882C48028833480078EB
:10351000049905F0DBFA23480078102138A2CDE9A0
:1035200000210290274800782B49097801EB8000A0
:10353000049021480388214802882848007804998B
:1035400005F0C4FA17480078102131A2CDE9002116
:10355000029019480388194802881F4801783148A9
:10356000007805F0B3FA0F48007810212EA2CDE9BB
:103570000021029013480078174909780844049004
:103580000D4803880D48028826480078049905F004
:103590009DFA0448007867E0EED10020F0D10020C9
:1035A000F8D00020ADD00020B7BDB7A83100000092
:1035B000B7BDB7A832000000A8D00020AAD00020D4
:1035C00007D00020E9D0002074313A2020202020AC
:1035D00020202020206D7300ECD00020EAD00020B5
:1035E00074323A202020202020202020206D7300DB
:1035F00074333A202020202020202020206D7300CA
:1036000074343A202020202020202020206D7300B8
:1036100076313A202020202020202020206D6D2F80
:1036200073000000EDD0002076323A2020202020C8
:1036300020202020206D6D2F7300000076333A206B
:103640002020202020202020206D6D2F73000000DE
:1036500076343A202020202020202020206D6D2F3D
:10366000730000000CD400201021AFF23002CDE92D
:1036700000210290FE48007800EB4000FD490978E7
:1036800008440490FC480388FC480288FC48007801
:10369000049905F01BFAFB4800781021AFF25002A4
:1036A000CDE900210290F2480078F249097801EB57
:1036B00080000490F0480388F0480288F0480078C1
:1036C000049905F003FA10200090EF480068E949DA
:1036D0000490097809230246EC48039100781C30D5
:1036E00004F042FF10200090E74840680490E04852
:1036F0000078E04909780844092303900146E3482B
:1037000000781C30049A04F02FFF10200090DE484F
:1037100080680490D648007800EB4000D5490978CD
:103720000844092303900146D84800781C30049AC5
:1037300004F01AFF10200090D348C0680490CC48D1
:103740000078CC49097801EB8000092303900146F9
:10375000CE4800781C30049A04F006FF1020009038
:10376000C9480069C3490490097809230246C4483E
:10377000039100781C3004F0F7FE10200090C2483E
:1037800040690490BA480078BA4909780844092386
:1037900003900146BA4800781C30049A04F0E4FE15
:1037A00010200090B84880690490B148007800EB80
:1037B0004000B04909780844092303900146B04805
:1037C00000781C30049A04F0CFFE10200090AE4820
:1037D000C0690490A6480078A649097801EB8000EA
:1037E000092303900146A64800781C30049A04F08F
:1037F000BBFEA44800781021A5A2CDE900210290CB
:103800009B4800789B49097801EB400004909F4851
:103810000078083880B20390974803889748028858
:10382000DDE9030105F052F910200090904800787E
:103830009049097801EB40000923049099480268F7
:10384000924800781C30049904F08EFE8D48007870
:10385000102195A2CDE90021029085480078854984
:10386000097801EB4000049085480078801C80B204
:1038700003908148038881480288DDE9030105F04F
:1038800025F9002010212022CDE90021029078485E
:1038900000787849097801EB400004908748038854
:1038A00087480288764800781C30049904F090FD1F
:1038B000102000907448006B04906D4800786D49AA
:1038C000097801EB40000823039001466C4800781A
:1038D0002430049A04F048FE6A480078102179A246
:1038E000CDE9002102906248007800EB8000614938
:1038F00009780844049065480078083880B203903D
:103900005D4803885D480288DDE9030105F0DEF8C3
:10391000102000905648007800EB80005549097847
:103920000844092304906C480268584800781C3009
:10393000049904F019FE53480078102167A2CDE9DC
:10394000002102904A48007800EB8000494909783C
:10395000084404904A480078801C80B2039046488E
:10396000038846480288DDE9030105F0AFF800202E
:1039700010212022CDE9002102903D48007800EB83
:1039800080003C490978084404904C4803884C481E
:1039900002883B4800781C30049904F019FD10207F
:1039A00000903948406B04903148007800EB80006B
:1039B00030490978084408230390014630480078CC
:1039C0002430049A04F0D0FD2E480078102148A23B
:1039D000CDE90021029049480078B63080B20490C9
:1039E0002548038825480288284800781E30049915
:1039F00005F06CF84FF6FF7031490880E7202F4939
:103A00000880202000903D480078A23080B2022338
:103A100004903B48B0F90020DC20049904F07BFEC0
:103A200018480078102137A2CDE9002102903348D0
:103A30000078B63080B204900F4803880F4802889F
:103A40004FF48C70049905F041F8C4E10D480078FA
:103A50001021AFF2AC42CDE9002102900648038864
:103A60000648028842214FF4D27005F02FF84BE04F
:103A7000E9D00020ECD00020A8D00020AAD000205F
:103A8000EDD00020ADD000200CD40020EAD00020E2
:103A90007431323A202020202020202020206D73F5
:103AA000000000000CD1002061313A2020202020AD
:103AB00020202020206D6D2F73320000F0D10020D7
:103AC000EED100207433343A202020202020202002
:103AD00020206D730000000010D1002061323A20D8
:103AE0002020202020202020206D6D2F7332000008
:103AF000B5B2B9E2C6ACBFEDB6C83A00EBD0002013
:103B0000F4D000206D206D00FE4800781021AFF247
:103B100060524FF47C43CDE9002102904FF6FF72D2
:103B200074214FF4D27004F0D1FF2020F6490870C0
:103B3000F44800781021AFF2A802CDE900210290EC
:103B4000F2480388F2480288F2480178F248007887
:103B500004F0BCFFEB4800781021AFF29802CDE9E9
:103B600000210290E8480078EA49097801EB40001A
:103B70000490E6480388E6480288E74800780499FC
:103B800004F0A4FFDF4800781021E4A2CDE9002171
:103B90000290DE480388DE480288DE480178E44867
:103BA000007804F093FFD74800781021E1A2CDE916
:103BB00000210290D4480078D649097801EB4000F2
:103BC0000490D2480388D2480288D94800780499E2
:103BD00004F07CFF10200090DB48006ACD4904907F
:103BE000097809230246CC4803910078213004F07B
:103BF000BBFC10200090D448406A0490C248007872
:103C0000C449097801EB4000092303900146C248EA
:103C100000782130049A04F0A7FC10200090CA48D4
:103C2000806ABC490490097809230246C048039180
:103C30000078213004F098FC10200090C248C06A3F
:103C40000490B1480078B349097801EB400009239A
:103C500003900146B64800782130049A04F084FCB1
:103C6000BA480078032861D1A64800781021B8A28C
:103C7000CDE900210290A5480388A5480288A548FF
:103C800001788031A448007804F020FF1020092337
:103C90000090B44802689F48017880319E480078BF
:103CA000213004F061FC974800781021AEA2CDE9E4
:103CB00000210290944800789649097801EB800031
:103CC00004909248038892480288994800781030FE
:103CD000049904F0FBFE002010212022CDE90021F0
:103CE0000290894800788B49097801EB80000490A4
:103CF000A2480388A24802888D48007821300499A0
:103D000004F066FB102000908F48806B04907E4882
:103D100000788049097801EB800008230390014670
:103D2000834800782930049A04F01EFC7548007816
:103D3000102194A2CDE9002102907348007800EB95
:103D400040007449097801EB4000083880B20490C3
:103D50006E4803886E4802886F48007832300499B4
:103D600004F0B4FE4FF6FF7085490880E7208349D0
:103D70000880202000906448007800EB40006549EE
:103D8000097801EB40001C3880B20223049080487F
:103D9000B0F90020604800789630049904F0BBFC2C
:103DA000584800781021AFF2A422CDE900210290FA
:103DB0005548007800EB40005649097801EB400077
:103DC000083880B204905148038851480288FA208C
:103DD000049904F07BFEE720694908804FF6FF70E4
:103DE000664908804FF4A073F42240F21D11A4200C
:103DF00004F030FA4FF4A0731A4640F21D11F5207A
:103E000004F028FA05B000BDFEB505460E46E720D1
:103E100000906048028814230021084604F08EF9BF
:103E2000012010215CA21F23CDE9002102904FF652
:103E3000FF720221002004F0CDFE4FF6FF700090CB
:103E40005448438802881421002004F077F93F4841
:103E5000007802280FD12B480078102154A2CDE918
:103E6000002102902948038829480288162114203D
:103E700004F02CFE12E03548007803280ED12148CA
:103E8000007810214FA2CDE9002102901F4803883D
:103E90001F4802881621142004F018FE19480078E3
:103EA000102150A2CDE9002102901848038818483B
:103EB000028816214FF4877004F008FEFFF768F9B6
:103EC0000024DCE0E7202E490880022C18DA322793
:103ED00067434237DFF828C19CF800C067441037B9
:103EE000BBB2474F3F7807F5E67232276743423748
:103EF000DFF80CC19CF800C0A7EB0C07B9B281E059
:103F000087E00000ADD00020E9D00020A8D000203C
:103F1000AAD00020EBD00020EAD000207631323A3F
:103F2000202020202020202020206D6D2F730000D5
:103F3000EDD000207633343A20202020202020208D
:103F400020206D6D2F7300000CD4002007D00020BE
:103F50007431333A202020202020202020206D732F
:103F6000000000001CD10020613A202020202020E9
:103F7000202020206D6D2F7332000000F0D1002032
:103F8000EED10020B4ABB8D0C6F7BEE0C0EB3A002B
:103F9000F6D00020FCD30020B9E2B5E7BCC6CAB118
:103FA000CAFDD7D6CAB5D1E9CFB5CDB30000000060
:103FB000CAB5D1E932A3BAB2E2C1BFCBB2CAB1CB62
:103FC000D9B6C800CAB5D1E933A3BAB2E2C1BFD4E9
:103FD000C8B1E4CBD9D4CBB6AFB5C4BCD3CBD9B67A
:103FE000C8000000CFB5CDB3BCC6CAB1CAB1BCE4ED
:103FF0003A202020202020202020206D7300000067
:10400000ACD00020FB4F3F78C7F5D27004F022F906
:104010001DE0322767434237DFF8D8C39CF800C061
:1040200067441037BBB2F34F3F7807F5E27232278F
:1040300067434237DFF8BCC39CF800C0A7EB0C070E
:10404000B9B2EC4F3F78C7F5D27004F003F9EA48F3
:1040500000781021E9A23223CDE90021029004FB6F
:1040600003F202F14201E34A1278C2F5CA7290B239
:10407000E34A1388E72204F029FD601CC4B2052C32
:10408000FFF620AF00201021DE4A0346CDE90021D3
:1040900002904FF6FF724FF4987104F017FDE7207D
:1040A000D94908804FF6FF70D84908804FF4A073B3
:1040B000F42240F21D11A42004F0CCF84FF4A073B8
:1040C0001A4640F21D11F52004F0C4F8FEBD10B5EB
:1040D000FEF7E7FDC7480078C0F5D270CC49098AE1
:1040E000884221DACA48018AC248007800F5E270A5
:1040F000814219DABF480078C0F17400C449498A86
:10410000884211DAC248418ABA4800788430814234
:104110000ADAC048007838B10020BE4908704FF470
:104120000060FDF746FC25E0B2480078C0F5D2708B
:10413000B749098A88421ADAB548018AAD48007839
:1041400000F5E270814212DAAA480078C0F17400EA
:10415000AF49498A88420ADAAD48418AA5480078C1
:104160008430814203DAAC480068012802D1012082
:10417000A84908709F480078C0F5D270A449098A00
:10418000884221DAA248018A9A48007800F5E27054
:10419000814219DA97480078C0F142009C49498A67
:1041A000884211DA9A48418A924800785230814216
:1041B0000ADA9A48007838B10020984908704FF41C
:1041C0008060FDF7F6FB25E08A480078C0F5D270E4
:1041D0008F49098A88421ADA8D48018A8548007811
:1041E00000F5E270814212DA82480078C0F14200A4
:1041F0008749498A88420ADA8548418A7D48007899
:104200005230814203DA84480068012802D101203B
:10421000824908707E48008AA42818DD7C48008AFC
:10422000F42814DA7A48408A40F21D1188420EDDE3
:104230007748408AB0F5A07F09DA7948007830B134
:104240000020774908700220FDF7B3FB19E07048A1
:10425000008AA42812DD6E48008AF4280EDA6C4821
:10426000408A40F21D11884208DD6948408AB0F555
:10427000A07F03DA68480068012802D1012068495C
:1042800008706348008AF52819DD6148008AB0F596
:10429000A07F14DA5E48408A40F21D1188420EDD8C
:1042A0005B48408AB0F5A07F09DA5E48007830B1FB
:1042B00000205C4908700420FDF77BFB1AE054489D
:1042C000008AF52813DD5248008AB0F5A07F0EDA87
:1042D0004F48408A40F21D11884208DD4C48408A10
:1042E000B0F5A07F03DA4C480068012802D1012014
:1042F0004C49087010BD01B584B04B4800780228C5
:1043000003D049480078032818D10498012816D111
:10431000FEF73EFF38480078102144A248F210030F
:10432000CDE9002102904FF6FF724FF485714FF4F2
:10433000D27004F0CBFB00203B490870F6E20498F1
:10434000022855D13B480078012824D13A480088FA
:10435000401E00B2384908804FF6FF702A49088095
:10436000E7202A4908803448B0F90000002802DA22
:104370000020314908802020009030480078A23089
:1043800080B2022303902C48B0F90020DC2003996E
:1043900004F0C1F9D2E72A480088401E00B228493B
:1043A00008804FF6FF7018490880E72017490880F9
:1043B0002348B0F90000002802DA002020490880D4
:1043C000202000901F48007800EB40001B4909782E
:1043D00001EB40001C3880B2022303901848B0F96A
:1043E0000020194800789630039904F094F9A5E765
:1043F0002CE00000ACD00020ADD00020F7CE0000B3
:10440000A8D00020C0D00020EED10020F0D10020A4
:10441000F4D10020EED0002028812342EFD00020EC
:10442000F0D00020F1D0002007D00020B7B5BBD8D5
:1044300000000000F8D00020F4D00020EBD00020D5
:10444000F6D00020E9D00020EAD00020049804280B
:1044500055D1FE480078012824D1FD480088401C31
:1044600000B2FB4908804FF6FF70FA490880E72048
:10447000F9490880F648B0F90000632802DDC82039
:10448000F349088020200090F4480078A23080B2E0
:1044900002230390EE48B0F90020DC20039904F0D9
:1044A0003AF94BE7EE480088401C00B2EC4908801E
:1044B0004FF6FF70E7490880E720E7490880E848A1
:1044C000B0F90000632802DD0020E54908802020C3
:1044D0000090E448007800EB4000E049097801EBE7
:1044E00040001C3880B202230390DD48B0F9002060
:1044F000DD4800789630039904F00DF91EE7049822
:10450000802814D1FEF744FED84800781021D8A2A4
:1045100048F21003CDE9002102904FF6FF72A62168
:104520004FF4D27004F0D2FA03F097FC06E7049837
:10453000B0F5807F21D14FF6FF7003F037F80020EF
:10454000CD490860CD490860CD49086003F08EFC74
:1045500000210846FFF758FCC44800781021C9A282
:1045600048F21003CDE9002102904FF6FF72D821E6
:104570004FF4D27004F0AAFAE0E60498402817D16C
:10458000FEF706FEB94800781021AFF2601248F23B
:104590001003CDE9002102904FF6FF724FF48571B0
:1045A0004FF4D27004F092FA0020B8490870C5E6C2
:1045B0000498B0F5801F14D1A4480078012806D1D2
:1045C000B3480068B3490860B3490860B6E6012003
:1045D000B2490870AE480068AE490860B04908604A
:1045E000ACE60498B0F1807F3CD19848007801286F
:1045F00084D14FF6FF7097490880E72096490880DC
:10460000A3480068A3490968401AA6490860904871
:10461000B0F900004FF47A714843A2490968B0FB31
:10462000F1F0A049086110200090084600689E49FA
:1046300003900978092302468B48029100781C30C8
:1046400003F092FF1020009096480069964903906D
:104650000978092302469548029100781C3003F03E
:1046600083FF6BE60498B0F5001F51D177480078BE
:1046700001280DD1864800688D4908608D49086081
:104680000846006884490968401A7B49086055E675
:104690008248007800288AD00020804908704FF6B0
:1046A000FF706C490880E7206B49088078480068F3
:1046B00078490968401A7B4908626948B0F90000E6
:1046C00042F2107148437749096AB0FBF1F075492D
:1046D0008862102000900846006A604903900978BB
:1046E00009230246604802910078213003F03CFF24
:1046F000102000906B48806A58490390097809237C
:1047000002466A4802910078213003F02DFF15E639
:104710000498B0F1007F7DD14C4800780128A0D1E9
:104720004FF6FF704B490880E7204B4908805848F6
:1047300000685F490968401A5A4948604448B0F91E
:1047400000004FF47A71484356494968B0FBF1F0D4
:104750005449486110200090084640680390414841
:1047600000785149097808440923029001463E48DF
:1047700000781C30039A03F0F7FE1020009049489F
:10478000406903903748007847490978084409236D
:1047900002900146454800781C30039A03F0E4FE7D
:1047A0003A4800780328B2D1102000902D480078B4
:1047B0003D49097801EB4000092303902E48026827
:1047C000294800781C30039903F0CEFE3548406933
:1047D00034490969401A002805DC324840693149EA
:1047E0000969401A6AD12F4840692E490969401A5F
:1047F0004FF47A71484320490968B0FBF1F0294928
:1048000008630846406B2C49884267D2002010217B
:10481000202200E0F3E0CDE9002102901148007869
:104820002149097801EB400003900B4803880948AF
:1048300002881E4800781C30039903F0C9FD10203F
:1048400000901848006B0390064838E0F8D000202C
:10485000F4D00020EED10020F0D10020EBD00020D9
:10486000F6D00020E9D00020EAD00020ADD0002012
:10487000BFAACABC000000000CD1002010D100204B
:104880001CD10020C7E5C1E30000000007D00020D4
:1048900024D20020B0D00020FCD00020F2D0002094
:1048A00014D100200CD40020ECD00020EDD000204A
:1048B000B4D0002000D100209F86010037E00078AE
:1048C000FB49097801EB4000082302900146F948B2
:1048D00000782430039A03F047FE2FE500201021D2
:1048E0002022CDE900210290F3480078F0490978B0
:1048F00001EB40000390F1480388F1480288ED483D
:1049000000781C30039903F063FD10200090EA4802
:104910000078E749097801EB40000823E94A01469D
:104920000390E4480078243003F01EFE19E2E648C4
:104930000069E5494969401A4FF47A714843E349EF
:104940000968B0FBF1F0E04908630846006BDD49F7
:1049500088422BD2002010212D22CDE90021029087
:10496000D5480078D249097801EB40000390D3483C
:104970000388D3480288CF4800781C30039903F09D
:1049800027FD10200090D048006B0390CA480078A3
:10499000C749097801EB4000082302900146C54849
:1049A00000782430039A03F0DFFDDAE100201021C3
:1049B0002D22CDE900210290BF480078BC4909783A
:1049C00001EB40000390BD480388BD480288B94808
:1049D00000781C30039903F0FBFC10200090B648CF
:1049E0000078B349097801EB40000823B54A014635
:1049F0000390B0480078243003F0B6FDFCE304983F
:104A0000B0F5000F14D1B2480078012806D1B148A2
:104A10000068B1490860B1490860EDE30120B04980
:104A20000870AC480068AC490860AE490860E3E330
:104A30000498B0F1006F76D1A54800780128B4D170
:104A40004FF6FF709E490880E7209C490880A148E6
:104A50000068A1490968401A9B498860A248B0F9DA
:104A600000004FF47A71484397498968B0FBF1F030
:104A7000954988619D48007803282AD1102000902C
:104A80000846806803908C48007800EB4000884915
:104A900009780844092302900146954800781C30A3
:104AA000039A03F061FD102000908748806903900D
:104AB0008148007800EB40017D48007808440923D4
:104AC000029001467B4800781C30039A03F04CFDAD
:104AD00092E3102000907C4880680390764800782C
:104AE0007349097801EB4000092302900146804890
:104AF00000781C30039A03F037FD102000907248B4
:104B0000806903906C4800786949097801EB40009E
:104B1000092302900146674800781C30039A03F08D
:104B200023FD69E3FFE70498B0F5800F7ED1684864
:104B3000007801280DD1674800686E4908606E4909
:104B400008600846006865490968401A6B490860B2
:104B500052E3634800780028BAD00020604908700A
:104B60004FF6FF7056490880E7205449088059489D
:104B7000006859490968401A534948626048B0F9C9
:104B8000000042F2107148434F49496AB0FBF1F00E
:104B90004D49C862102000900846406A039046487C
:104BA00000785849097801EB40000923029001463A
:104BB0004F4800782130039A03F0D6FC1020009073
:104BC0004148C06A03903C4800784E49097801EB9F
:104BD0004000092302900146364800782130039AAC
:104BE00003F0C2FC4148007803289AD13D48006890
:104BF00045490968401A454908601020092300907A
:104C0000084602683F4801788031394800782130F1
:104C100003F0AAFC2C48C06A2B49896A401A002874
:104C200007DC2948C06A2849896A00E002E1401A85
:104C30006ED12548C06A2449896A401A4FF47A71B6
:104C4000484332490968B0FBF1F01F4988630846C0
:104C5000806B1C4988425CD2002010212022CDE9C3
:104C600000210290144800782649097801EB800061
:104C7000039012480388124802880E4800782130B9
:104C8000039903F0A5FB102000900F48806B039060
:104C9000094800781B49097801EB8000082302903D
:104CA0000146044800782930039A03F05DFCA3E232
:104CB000ECD00020EDD00020E9D00020F0D1002081
:104CC000EED100209F8601000CD400200CD10020E2
:104CD000F8D0002024D20020B8D0002004D1002039
:104CE000F2D0002018D10020F4D0002007D00020FE
:104CF000EAD00020BCD0002008D1002010D1002034
:104D0000F6D00020EBD0002014D100201CD10020D0
:104D100028E0002010212022CDE900210290FE4849
:104D20000078FE49097801EB80000390FC48038875
:104D3000FC480288FC4800782130039903F048FBC6
:104D400010200090F4480078F449097801EB8000C5
:104D50000823F64A01460390F3480078293003F00F
:104D600003FC49E2F248806AF149C96A401A4FF4EB
:104D70007A714843EF490968B0FBF1F0EC49886368
:104D80000846806BE94988422BD2002010212D2251
:104D9000CDE900210290E0480078E049097801EB74
:104DA00080000390DE480388DE480288DE480078F1
:104DB0002130039903F00CFB10200090DC48806B3D
:104DC0000390D5480078D549097801EB8000082385
:104DD00002900146D44800782930039A03F0C4FBBE
:104DE0000AE2002010212D22CDE900210290CA48BC
:104DF0000078CA49097801EB80000390C84803880D
:104E0000C8480288C84800782130039903F0E0FAC6
:104E100010200090C0480078C049097801EB80005C
:104E20000823C24A01460390BF480078293003F0A6
:104E30009BFBE1E10498B0F1806F7DD1BE48007822
:104E400001288ED14FF6FF70B6490880E720B4499B
:104E50000880BA480068BA490968401AB449C8606D
:104E6000B848B0F900004FF47A714843B049C968B6
:104E7000B0FBF1F0AE49C861B348007803287CD19B
:104E8000102000900846C0680390A3480078AF49FE
:104E9000097801EB8000092302900146AC480078B4
:104EA0001C30039A03F060FB10200090A048C069FA
:104EB000039099480078A549097801EB80000923FF
:104EC00002900146984800781C30039A03F04CFB8E
:104ED000102000909048007800EB80009B490978F2
:104EE0000844092303909B480268994800781C30C5
:104EF000039903F039FB8E48C0698D498969401ACE
:104F0000002805DC8A48C06989498969401A70D13E
:104F10008748C06986498969401A4FF47A714843C5
:104F20008C490968B0FBF1F0814948630846406B41
:104F30007E49884231D200E013E100201021202276
:104F4000CDE9002102907448007800EB80007F4991
:104F500009780844039072480388724802887248AE
:104F600000781C30039903F033FA10200090704849
:104F7000406B03906848007800E0A6E000EB8000FA
:104F8000724909780844082302900146664800786F
:104F90002430039A03F0E8FA2EE1002010212022A9
:104FA000CDE9002102905C48007800EB8000674961
:104FB0000978084403905A4803885A4802885A4896
:104FC00000781C30039903F003FA10200090524837
:104FD000007800EB80005D49097808440823534AB3
:104FE0000146039050480078243003F0BDFA03E1F5
:104FF000FFE74F4880694E49C969401A4FF47A71FA
:10500000484354490968B0FBF1F0494948630846F0
:10501000406B464988422DD2002010212D22CDE937
:10502000002102903C48007800EB80004749097855
:10503000084403903A4803883A4802883A4800787E
:105040001C30039903F0C4F9102000903848406BDD
:1050500003903148007800EB80003C49097808440F
:10506000082302900146304800782430039A03F068
:105070007BFAC1E0002010212D22CDE90021029011
:105080002548007800EB80003049097808440390F7
:105090002348038823480288234800781C3003995A
:1050A00003F096F9102000901B48007800EB800078
:1050B00026490978084408231C4A014603901A48E7
:1050C0000078243003F050FA96E010200090184841
:1050D000C06803901048007800EB40001B49097835
:1050E0000844092302900146194800781C30039AAD
:1050F00003F03AFA102000900D48C069039006486A
:10510000007800EB40011148007808440923029020
:105110000146054800781FE0E9D00020EBD00020D0
:10512000F0D10020EED10020EDD000209F860100BC
:105130000CD400201CD10020F8D0002024D2002064
:10514000BCD00020F4D0002007D00020ECD00020FC
:10515000EAD0002010D100201C30039A03F004FA9A
:105160004AE00498B0F5806F21D1012033490870DE
:1051700002F07CFE00203249086032490860324962
:1051800008604FF6FF700090304840881E3880B2AB
:1051900003902F4800781E3880B202904FF4B97205
:1051A0002C21039B02F0CAFFFDF7F2FF24E00498D4
:1051B000B0F5006F20D102202049087002F056FEA1
:1051C00000201F4908601F4908601F4908604FF60A
:1051D000FF7000901D4840881E3880B203901C4824
:1051E00000781E3880B202904FF4B9722C21039BD4
:1051F00002F0A4FFFDF7CCFF049805B000BD10B588
:105200001449AFF60D70FCF7BAFB10BD10B50021C4
:105210000846FEF7F9FD10BD10B54FF6FF7002F01D
:10522000C5F902F023FE012004490870002004495A
:105230000860044908600449086010BDF8D00020E7
:105240000CD1002010D100201CD10020FCD3002064
:10525000EAD00020C70DF00F10B5FDF7A3FBE72043
:10526000F94908804FF6FF70F84908804FF4A073A1
:10527000B42240F227116C2002F0ECFF4FF4A0732F
:105280004FF4827240F22711B42002F0E3FF4FF492
:10529000A0734FF4A87240F227114FF4827002F00D
:1052A000D9FF10BDFEB505460E46E7200090E84840
:1052B000028814230021084602F040FF012010213B
:1052C000E4A21F23CDE9002102904FF6FF720221D4
:1052D000002003F07FFC4FF6FF700090DC4843880D
:1052E00002881421002002F029FFE04800781021F4
:1052F000DFA2CDE900210290E3480388E348028859
:105300002821142003F0E2FBD84800781021E0A205
:10531000CDE900210290DC480388DC48028828217E
:105320004FF4877003F0D2FB4FF6FF70C649088038
:10533000E720C6490880CD4800781021DBA2CDE9DE
:1053400000210290D0480388D0480288E3480178C1
:10535000E348007803F0BAFBC44800781021E1A2CA
:10536000CDE900210290DD480078E04A12788118EA
:10537000C5480388C5480288D948007803F0A6FBD1
:1053800010200090DA480268D4480078D74B1B7888
:10539000C1180623D2480078403003F0E5F8B3483E
:1053A00000781021D3A2CDE900210290CB480078EB
:1053B000CE4A12788118B4480388B4480288C84895
:1053C0000078823003F082FB10200090C8484268C9
:1053D000C2480078C54B1B78C1180623C048007826
:1053E000C23003F0C1F8A14800781021C3A2CDE972
:1053F00000210290B9480078BC4A12788118A2486E
:105400000388A2480288B648007800F5827003F04D
:105410005DFB10200090B6488268B0480078B34B1E
:105420001B78C1180623AE48007800F5A27003F07F
:105430009BF88E4800781021B2A2CDE9002102909D
:10544000AA480078A54A127802EB40018E480388EA
:105450008E480288A248007803F038FB8348007821
:105460001021A0A2CDE900210290A048007800EB15
:1054700040009A4A1278811883480388834802883A
:105480009748007803F022FB102000909848C268EB
:105490009648007800EB4000904B1B78C11806231B
:1054A0008F480078403003F05FF870480078102192
:1054B00090A2CDE9002102908C48007800EB4000DA
:1054C000864A127881187048038870480288844898
:1054D0000078823003F0FAFA1020009084480269C4
:1054E0008248007800EB40007C4B1B78C1180623F3
:1054F0007B480078C23003F037F85C480078102110
:105500007EA2CDE9002102907848007800EB4000AF
:10551000724A127881185C4803885C480288704897
:10552000007800F5827003F0D1FA102000907048E6
:1055300042696E48007800EB4000684B1B78C11848
:1055400006236748007800F5A27003F00DF847487D
:105550000078102177A2CDE9002102904A48038803
:105560004A48028840F21111E82003F0AFFA1020F7
:1055700002230090734890F9002040F211114FF47B
:10558000A47003F045F83948007810216EA2CDE9E7
:10559000002102903C4803883C48028840F21111E7
:1055A0004FF4AC7003F092FAE720274908804F4A85
:1055B000127802EB4202494C2478224402F125037E
:1055C000464A1278153A91B2454A1278521F90B263
:1055D000434A127802F2791202F03CFE2348007826
:1055E00010215BA2CDE900210290274803882748BB
:1055F000028840F211113A48007803F067FA1B481C
:105600000078102158A2CDE9002102901E4803889D
:105610001E48028856214FF4C87003F057FA5548C7
:10562000007880B111480078102153A2CDE9002103
:105630000290154803881548028874214FF4C970F8
:1056400003F044FAAEE09DE0EED10020F0D100205E
:10565000FCD30020B9E2B5E7BCC6CAB1CAFDD7D6B3
:10566000CAB5D1E9CFB5CDB30000000025D10020E7
:10567000CAB5D1E934A3BAB2E2C1BFC5F6D7B2D632
:10568000D0B5C4B6AFC1BF0020D1002022D10020C8
:10569000CFB5CDB3BCC6CAB1CAB1BCE43A20202054
:1056A000202020202020206D20730000BEADB9FDF9
:1056B000B9E2B5E7B4ABB8D0C6F7B5C43132B5C4BA
:1056C000CBB2CAB1CBD9B6C85631323A28B5A5CE7D
:1056D000BB3A206D206D2F732900000039D10020C6
:1056E00038D10020B5DA31B4CE3A00003AD10020EA
:1056F000CCD30020B5DA32B4CE3A0000B5DA33B4F8
:10570000CE3A0000BEADB9FDB9E2B5E7B4ABB8D052
:10571000C6F7B5C43334B5C4CBB2CAB1CBD9B6C859
:105720005633343A28B5A5CEBB3A206D206D2F7381
:1057300029000000B4ABB8D0C6F7BEE0C0EBA3BAF6
:10574000000000006AD10020206D206D00000000E4
:10575000B0B4BCFC4B45595F30C7D0BBBBCBD9B64E
:10576000C8B7BDCFF2000000CBD9B6C8B7BDCFF2E5
:10577000A3BA000069D1002034333231CEAAD5FD5E
:1057800000000000FD4800781021FDA2CDE90021B5
:105790000290FE480388FE48028874214FF4C970C5
:1057A00003F094F9FFF758FD002438E0E720F949A9
:1057B000088032276743A637DFF8DCC39CF800C0B7
:1057C00067441037BBB2F44F3F7807F5E2723227D7
:1057D0006743A637DFF8C0C39CF800C0A7EB0C07EF
:1057E000B9B2ED4F3F78C7F5D27002F033FDE34810
:1057F00000781021E9A23223CDE90021029004FBB8
:1058000003F202F1A601E44A1278C2F5CA7290B21C
:10581000DE4A1388E72203F059F9601CC4B2032C56
:10582000C4DB00201021DE4A0346CDE900210290AE
:105830004FF6FF724FF4987103F048F9E720D5490D
:1058400008804FF6FF70D74908804FF4A073B42248
:1058500040F227116C2002F0FDFC4FF4A0734FF4CE
:10586000827240F22711B42002F0F4FC4FF4A073CE
:105870004FF4A87240F227114FF4827002F0EAFC54
:10588000FEBD10B5FDF70DFAC748008A6C2818DD7B
:10589000C548008AB42814DAC348408A40F2271168
:1058A00088420EDDC048408AB0F5A07F09DABF48C3
:1058B000007830B10020BD4908700120FCF779F86C
:1058C00019E0B948008A6C2812DDB748008AB4286C
:1058D0000EDAB548408A40F22711884208DDB24806
:1058E000408AB0F5A07F03DAB1480068012802D1F0
:1058F0000120AE490870AC48008AB42819DDAA48D6
:10590000008AB0F5827F14DAA748408A40F2271156
:1059100088420EDDA448408AB0F5A07F09DAA54888
:10592000007830B10020A34908700220FCF741F84C
:105930001AE09D48008AB42813DD9B48008AB0F520
:10594000827F0EDA9848408A40F22711884208DDAB
:105950009548408AB0F5A07F03DA95480068012891
:1059600002D10120934908708F48008AB0F5827FE8
:1059700019DD8D48008AB0F5A87F14DA8A48408A7C
:1059800040F2271188420EDD8748408AB0F5A07F9B
:1059900009DA8948007830B100208749087004206E
:1059A000FCF707F81BE08048008AB0F5827F13DD22
:1059B0007D48008AB0F5A87F0EDA7B48408A40F225
:1059C0002711884208DD7848408AB0F5A07F03DAC5
:1059D00077480068012802D101207749087010BD7E
:1059E00000207649086048608860C86008614861A6
:1059F00073490870734908707349087073490870D7
:105A000007207349087000207249087072490860C5
:105A1000704701B586B07148007804287ED1069899
:105A2000012837D16E480078401C6D49087008463F
:105A30000078059000EBD07041100598A0EB410074
:105A400098B90020634908704C48007810214CA296
:105A5000CDE9002102904D4803884D480288742109
:105A60004FF4C97003F032F839E101205949087048
:105A7000424800781021AFF20032CDE900210290B7
:105A8000424803884248028874214FF4C97003F0E9
:105A90001DF824E10698022820D14D480078401EC8
:105AA00040B24B490870084690F90000002801DA1E
:105AB000002008704FF6FF7036490880E72039490A
:105AC0000880102002230090414890F9002040F205
:105AD00011114FF4A47002F09BFD00E10698042818
:105AE00022D13B480078401C40B239490870084632
:105AF00090F90000632801DD632008704FF6FF7005
:105B000024490880E72027490880102002230090BC
:105B10002F4890F9002040F2111100E0C1E34FF44A
:105B2000A47002F075FDDAE00698802814D1FFF722
:105B300093FB1248007810212AA248F21003CDE905
:105B4000002102904FF6FF72A6214FF4D27002F0AE
:105B5000BDFF02F082F9C2E00698B0F5807F55D112
:105B600002F084F94FF6FF7001F020FDFFF738FFD7
:105B700000210846FFF796FB004837E025D10020BA
:105B800031323334CEAAD5FD0000000020D10020F0
:105B900022D10020EED1002024D10020F7CE000039
:105BA0003BD10020F0D10020F4D1002066D10020AC
:105BB0002881234267D1002068D10020CCD3002067
:105BC0006BD100206CD100206DD100206ED100205F
:105BD0006AD1002069D1002024D2002007D0002003
:105BE0006FD10020BFAACABC0000000000781021BD
:105BF000FEA248F21003CDE9002102904FF6FF7299
:105C0000D8214FF4D27002F061FF68E00698402876
:105C100016D1FFF721FBF74800781021F6A248F2D1
:105C20001003CDE9002102904FF6FF724FF4857109
:105C30004FF4D27002F04AFF0020F14908704EE0A4
:105C40000698B0F5801F0FD1EE480068EE49086055
:105C5000EE480078401CED4908700846007803289B
:105C60003DDD012008703AE00698B0F5001F0FD125
:105C7000E4480068E6490860E6480078401CE549C9
:105C8000087008460078032829DD0120087026E006
:105C90000698B0F5000F0FD1DA480068DE490860B9
:105CA000DE480078401CDD4908700846007803286B
:105CB00015DD0120087012E00698B0F5800F0ED1B6
:105CC000D0480068D6490860D6480078401CD549BD
:105CD000087008460078032801DD01200870CB48D1
:105CE0000078CC490978884270D1C9480068C64913
:105CF000096888427ED94FF6FF70CB490880E720BB
:105D0000CA490880C2480068BF490968401AC849A2
:105D10000862C84890F900004FF47A714843C449BA
:105D2000096AB0FBF1F0C2498862B84800780128DE
:105D30004DD10846806AC0490860C0480078C8B1A3
:105D4000002010212D22CDE900210290BC480078CE
:105D5000BC49097808440590BB480078383080B2C7
:105D60000490B2480388B0480288DDE9040102F0DB
:105D70002FFB18E0002010212022CDE90021029005
:105D8000AF480078AF49097808440590AE480078DC
:105D9000383080B20490A5480388A3480288DDE922
:105DA000040102F015FB10200090A3480068059044
:105DB000A3480078A34909780844062304900146C3
:105DC000A14800784030059A02F0CEFBECE18F4804
:105DD000007802284FD19648806A974948609748D2
:105DE0000078D8B1002010212D22CDE900210290A9
:105DF000934800E094E000789249097808440590BF
:105E000091480078BA3080B2049088480388864868
:105E10000288DDE9040102F0DBFA18E0002010211D
:105E20002022CDE900210290854800788549097833
:105E30000844059084480078BA3080B204907B48CA
:105E4000038879480288DDE9040102F0C1FA1020D4
:105E50000090794840680590794800787949097838
:105E6000084406230490014677480078C230059A1A
:105E700002F07AFB98E1654800780328A6D16C48C7
:105E8000806A6D4988606D480078D0B1002010218B
:105E90002D22CDE9002102906948007869490978EE
:105EA000084405906848007800F59E7080B2049020
:105EB0005E4803885C480288DDE9040102F088FA44
:105EC00019E0002010212022CDE9002102905C4839
:105ED00000785C490978084405905B48007800F533
:105EE0009E7080B20490514803884F480288DDE9D3
:105EF000040102F06DFA102000904F488068059070
:105F00004F4800784F490978084406230490014619
:105F10004D48007800F5A270059A02F025FB43E198
:105F20004FF6FF7040490880E72040490880364816
:105F3000006837490968401A3D4908623D4890F9B0
:105F400000004FF47A7148433949096AB0FBF1F017
:105F5000374988622D48007801287FD10846806A39
:105F60003549086035480078C8B10020102120224A
:105F7000CDE900210290324800783249097808447E
:105F8000059031480078383080B204902748038863
:105F900025480288DDE9040102F01AFA18E0002021
:105FA00010212D22CDE900210290254800782549B5
:105FB00009780844059024480078383080B204906D
:105FC0001A48038818480288DDE9040102F000FA43
:105FD0001020009018480068059019480078194969
:105FE0000978084406230490014630E0C7E5C1E380
:105FF0000000000025D10020B7B5BBD8000000008C
:1060000007D0002024D2002028D100206BD100200E
:106010002CD100206CD1002030D100206DD1002087
:1060200034D100206ED10020EED10020F0D100202C
:106030000CD400206AD10020CCD3002069D10020EC
:1060400039D100203AD1002038D1002006E0FE48A6
:1060500000784030059A02F087FAA5E0FB48007806
:1060600002284DD1FA48806AFA494860FA48007817
:10607000C8B1002010212022CDE900210290F7486C
:106080000078F749097808440590EF480078BA305D
:1060900080B20490F3480388F3480288DDE90401E4
:1060A00002F096F918E0002010212D22CDE9002100
:1060B0000290EA480078EA49097808440590E248E5
:1060C0000078BA3080B20490E6480388E648028837
:1060D000DDE9040102F07CF910200090DD48406801
:1060E0000590DE480078DE490978084406230490CC
:1060F0000146D5480078C230059A02F035FA53E0DF
:10610000D248007803284FD1D148806AD1498860AD
:10611000D1480078D0B1002010212022CDE9002103
:106120000290CE480078CE49097808440590C648C8
:10613000007800F59E7080B20490CA480388CA486F
:106140000288DDE9040102F043F919E00020102182
:106150002D22CDE900210290C0480078C04909787D
:1061600008440590B848007800F59E7080B204900D
:10617000BC480388BC480288DDE9040102F028F924
:1061800010200090B34880680590B4480078B44966
:1061900009780844062304900146AB48007800F5CE
:1061A000A270059A02F0E0F9B0480078B049097889
:1061B000884276D1AF480068AF490968884271D9F2
:1061C0004FF6FF70A8490880E720A6490880A94833
:1061D0000068A9490968401A9D494862A74890F992
:1061E00000004FF47A7148439949496AB0FBF1F0D5
:1061F0009749C8629D480078012854D10846C06A72
:106200009449C86094480078D8B1002010212D220C
:10621000CDE9002102909248007800EB40008F49C0
:1062200009780844059088480078383080B2049096
:106230008C4803888C480288DDE9040102F0C8F824
:106240001AE0002010212022CDE90021029084488C
:10625000007800EB400081490978084405907A48AD
:106260000078383080B204907E4803887E480288E7
:10627000DDE9040102F0ACF8102000907548C06818
:1062800005907748007800EB40007449097808448D
:106290000623049001466C4800784030059A02F0CD
:1062A00063F9F4E1B2E071480078022853D16848FC
:1062B000C06A6849086168480078D8B10020102198
:1062C0002D22CDE9002102906548007800EB4000C6
:1062D00062490978084405905B480078BA3080B27A
:1062E00004906048038860480288DDE9040102F0F8
:1062F0006FF81AE0002010212022CDE90021029041
:106300005748007800EB400054490978084405904C
:106310004D480078BA3080B2049052480388524801
:106320000288DDE9040102F053F81020009049488A
:10633000006905904A48007800EB40004749097819
:1063400008440623049001463F480078C230059A6D
:1063500002F00AF99BE1454800780328A1D13C48A6
:10636000C06A3C4948613C480078E0B100201021F7
:106370002D22CDE9002102903948007800EB400041
:1063800036490978084405902F48007800F59E703A
:1063900080B204903348038833480288DDE9040161
:1063A00002F016F81BE0002010212022CDE9002188
:1063B00002902B48007800EB4000284909780844F7
:1063C00005902148007800F59E7080B20490254821
:1063D000038825480288DDE9040101F0F9FF102057
:1063E00000901C48406905901D48007800EB400073
:1063F0001A49097808440623049001461248007897
:1064000000F5A270059A02F0AFF840E14FF6FF7078
:1064100015490880E7201349088017480068154986
:106420000968401A0A494862144890F900004FF47C
:106430007A7148430649496AB0FBF1F00449C862E1
:106440000A48007801281BE038D100206BD10020D9
:106450000CD40020CCD3002069D1002039D10020F9
:106460003AD10020F0D10020EED100206DD10020E3
:106470006ED1002034D1002030D100206AD100201C
:1064800053D10846C06A8F49C8608F480078D8B198
:10649000002010212022CDE9002102908B480078B5
:1064A00000EB40008A490978084405908948007843
:1064B000383080B204908848038888480288DDE933
:1064C000040101F085FF1AE0002010212D22CDE902
:1064D000002102907D48007800EB40007C4909785B
:1064E000084405907B480078383080B204907A48A0
:1064F00003887A480288DDE9040101F069FF102071
:1065000000907048C06805907048007800EB40002B
:106510006F49097808440623049001466D480078C5
:106520004030059A02F020F8B1E06D48007802286A
:1065300053D16C48C06A6349086163480078D8B198
:10654000002010212022CDE9002102905F48007830
:1065500000EB40005E490978084405905D480078EA
:10656000BA3080B204905C4803885C480288DDE958
:10657000040101F02DFF1AE0002010212D22CDE9A9
:10658000002102905148007800EB40005049097802
:10659000084405904F480078BA3080B204904E48C5
:1065A00003884E480288DDE9040101F011FF102044
:1065B00000904448006905904448007800EB400092
:1065C000434909780844062304900146414800786D
:1065D000C230059A01F0C8FF59E04148007803280D
:1065E00055D14048C06A3749486137480078E0B122
:1065F000002010212022CDE90021029033480078AC
:1066000000EB400032490978084405903148007891
:1066100000F59E7080B204902F4803882F480288AE
:10662000DDE9040101F0D4FE1BE0002010212D2241
:10663000CDE9002102902548007800EB4000244974
:106640000978084405902348007800F59E7080B2D0
:1066500004902148038821480288DDE9040101F003
:10666000B7FE102000901748406905901748007841
:1066700000EB4000164909780844062304900146BF
:106680001448007800F5A270059A01F06DFF069895
:1066900007B000BD10B51449AFF68940FBF76FF99C
:1066A00010BD10B500210846FEF7FCFD10BD10B569
:1066B0004FF6FF7000F07AFF01F0D8FBFFF790F97A
:1066C00010BD0000CCD3002069D100203AD10020B9
:1066D00039D1002038D10020F0D10020EED10020A7
:1066E0006DD100200CD40020C701F00F10B5FCF7CD
:1066F00059F9E720FC4908804FF6FF70FB490880F4
:106700004FF4A073B42240F227116C2001F0A2FDD7
:1067100010BDFEB505460E46E7200090F4480288FD
:1067200014230021084601F009FD01201021F1A2E7
:106730001F23CDE9002102904FF6FF7202210020B5
:1067400002F048FA4FF6FF700090E948438802884B
:106750001421002001F0F2FCEC4800781021ECA29A
:10676000CDE900210290ED480388ED4802882821F8
:10677000142002F0ABF9E54800781021E9A2CDE938
:1067800000210290E5480388E5480288762191209F
:1067900002F09CF9DD4800781021E4A2CDE9002147
:1067A0000290DE480388DE4802889D21912002F095
:1067B0008DF9FFF79BFF002438E0E720CA490880E5
:1067C00032276743A637DFF86CC39CF800C06744E4
:1067D0001037BBB2D74F3F7807F5E27232276743D5
:1067E000A637DFF850C39CF800C0A7EB0C07B9B27E
:1067F000D04F3F78C7F5D27001F02CFDC348007828
:106800001021CDA23223CDE90021029004FB03F236
:1068100002F1A601C74A1278C2F5CA7290B2BF4A05
:106820001388E72202F052F9601CC4B2032CC4DBC7
:10683000B64800781021C1A2CDE900210290B748E6
:106840000388B748028840F20111912002F03EF916
:1068500000201021BF4A0346CDE9002102904FF6E7
:10686000FF724FF4987102F031F9E7209E490880D9
:106870004FF6FF709D4908804FF4A073B42240F298
:1068800027116C2001F0E6FCFEBD10B5FCF709FAFB
:10689000B148008A6C2818DDAF48008AB42814DAA1
:1068A000AD48408A40F2271188420EDDAA48408A4E
:1068B000B0F5A07F09DAA948007830B10020A749D7
:1068C00008700120FBF775F819E0A348008A6C28CE
:1068D00012DDA148008AB4280EDA9F48408A40F2AF
:1068E0002711884208DD9C48408AB0F5A07F03DA72
:1068F0009B480068012802D101209849087010BD0A
:106900003EB5044697480078052814D1012C1BD1C8
:1069100095480078401C94490870087800EBD071C5
:106920004910A0EB410139B10021A00703F0A6FDF9
:1069300000208E49087084E10121880703F09EFD44
:1069400001208A4908707CE1022C14D1FFF7CEFEA9
:106950006E480078102186A248F21003CDE900218C
:1069600002904FF6FF72A6214FF4D27002F0AEF8FB
:1069700001F073FA65E1042C16D1FFF7B7FE634806
:10698000007810217CA248F21003CDE9002102908A
:106990004FF6FF724FF485714FF4D27002F096F803
:1069A0000020704908704CE1802C14D1FFF79EFE46
:1069B0005648007810216EA248F21003CDE900215C
:1069C00002904FF6FF72A6214FF4D27002F07EF8CB
:1069D00001F043FA35E1B4F5807F17D1FFF786FE69
:1069E0004A480078102166A248F21003CDE9002140
:1069F00002904FF6FF72D8214FF4D27002F066F881
:106A000001F034FA0020604908601AE1402C16D1E8
:106A1000FFF76CFE3D480078102157A248F21003A2
:106A2000CDE9002102904FF6FF724FF485714FF4CB
:106A3000D27002F04BF800204A49087001E1B4F529
:106A4000801F09D150480068401C4F4908604F48DA
:106A500000684F490860F4E0B4F1807F19D14B48D9
:106A600000684B490968401A4A49086008460068AE
:106A70000321B0FBF1F00A21B0FBF1F201FB12009F
:106A80004449096801EB810100EB4100414908607C
:106A9000D7E0B4F5001F09D13B480068401C3A49D3
:106AA00008603A4800683C490860CAE0B4F1007FD9
:106AB00074D13648006838490968401A3549486039
:106AC000084640680321B0FBF1F00A21B0FBF1F267
:106AD00001FB12002F49496801EB810100EB4100E5
