:020000040800F2
:10000000600B00207D72000885720008877200086E
:10001000897200088B7200088D72000800000000D1
:100020000000000000000000000000008F720008C7
:100030009172000800000000937200087708000821
:10004000977200089772000897720008977200086C
:10005000977200089772000897720008977200085C
:10006000D9630008316400088964000897720008A9
:10007000977200089772000897720008977200083C
:10008000977200089772000897720008977200082C
:10009000977200089772000897720008E1640008E0
:1000A000977200089772000897720008977200080C
:1000B0004566000897720008E1660008977200081C
:1000C00097720008977200089772000897720008EC
:1000D0009772000801720008977200089772000872
:1000E00097720008977200089772000897720008CC
:1000F00097720008977200089772000897720008BC
:1001000097720008977200089772000897720008AB
:10011000977200089772000897720008977200089B
:10012000977200089772000897720008977200088B
:1001300000F002F800F05FF80AA090E8000C82449A
:100140008344AAF10107DA4501D100F054F8AFF277
:10015000090EBAE80F0013F0010F18BFFB1A43F0A5
:1001600001031847B8AC0000D8AC00000A444FF0B7
:10017000000C10F8013B13F0070408BF10F8014B06
:100180001D1108BF10F8015B641E05D010F8016B4B
:10019000641E01F8016BF9D113F0080F1EBF10F8AF
:1001A000014BAD1C0C1B09D16D1E58BF01F801CBD2
:1001B000FAD505E014F8016B01F8016B6D1EF9D555
:1001C0009142D6D37047000000230024002500266A
:1001D000103A28BF78C1FBD8520728BF30C148BFAA
:1001E0000B607047642908F0F986002070471FB53E
:1001F0001FBD10B510BD08F0FFFF1146FFF7F7FF58
:1002000000F008F809F01DF803B4FFF7F2FF03BC93
:1002100006F09CFF0EB500F08DFC4FF4A06007F0D7
:100220004DF8FE4C206880474FF4E13006F099FF0E
:1002300006F020F805F011FD05F0AAFF05F090FB8F
:1002400006F07AF800F0DCFC00F098FB00F0A8FB68
:1002500041F61F41632006F016FA60688047F049B6
:1002600048604FF47A71B0FBF1F201FB1202B0FB6F
:10027000F1F1ECA008F072FEF14FDFF8C8B34FF0D7
:10028000000810254FF6FF79002005F086FBEE48A8
:100290000078D0B1ED4C2068012806D1DF484068D5
:1002A0008047EB490860C4F80080DC48406880471C
:1002B000E7490968401A38600021D0F1FF3071EB3E
:1002C000080102DA4FF0FF303860E2480078012878
:1002D0000AD002287DD003287CD004287BD00528B2
:1002E0007AD0062879D047E2DFF86CA3AAF800900C
:1002F000E720ABF80000D94E4FF47A740923306838
:100300006021B0FBF4F2D220009506F0DDFB2E2038
:100310008DE82101BBF80030BAF8002060214FF4CD
:100320008D7006F025FB30680323B0FBF4F104FB6D
:10033000110260214FF49170009506F015FC706871
:100340000923B0FBF4F29221D220009506F0BCFB09
:100350002E208DE82101BBF80030BAF80020922150
:100360004FF48D7006F004FB70680323B0FBF4F1CA
:1003700004FB110292214FF49170009506F0F4FBFA
:10038000B0680923B0FBF4F2C421D220009506F036
:100390009BFB2E208DE82101BBF80030BAF800202D
:1003A000C4214FF48D7006F0E3FAB0680323B0FB6C
:1003B000F4F104FB1102C4214FF49170009506F092
:1003C000D3FBF0680923B0FBF4F2F621D2200095AC
:1003D00004E040E069E091E0B9E006E106F074FB7A
:1003E0002E208DE82101BBF80030BAF80020F6215C
:1003F0004FF48D7006F0BCFAF0680323B0FBF4F103
:1004000004FB1102F6214FF49170009506F0ACFB4D
:1004100038680823B0FBF4F228214FF4B47000953B
:1004200006F052FB2E208DE82101BBF80030BAF80F
:10043000002028214FF4D47006F09AFA386803237C
:10044000B0FBF4F104FB110228214FF4D8700095A1
:1004500006F08AFB90E1804EA6F80090E720ABF80A
:10046000000038684FF47A74B0FBF4F208231621C8
:100470004FF4B470009506F027FB2E208DE8210183
:10048000BBF80030328816214FF4D47006F070FAB1
:1004900038680323B0FBF4F104FB110216214FF47A
:1004A000D870009506F060FB66E16B4EA6F80090F0
:1004B000E720ABF8000038686424B0FBF4F20723AF
:1004C00016214FF4BC70009506F0FEFA2E208DE840
:1004D0002101BBF80030328816214FF4D87006F0A5
:1004E00047FA38680223B0FBF4F104FB110216212D
:1004F0004FF4DC70009506F037FB3DE1564EA6F850
:100500000090E720ABF8000038686424B0FBF4F2F8
:10051000072316214FF4BC70009506F0D5FA2E2063
:100520008DE82101BBF80030328816214FF4D870D5
:1005300006F01EFA38680223B0FBF4F104FB110246
:1005400016214FF4DC70009506F00EFB14E1BE2678
:1005500096200290DFF800A1E720AAF80000ABF88F
:1005600000903F482024009402686E210723D62083
:1005700006F066FB38683B490323B0FBF1F20094B8
:100580003046029906F05CFB0B200090BBF800306F
:10059000BAF80020EE20029906F029FB38684FF4E3
:1005A0007A76B0FBF6F0B0FBF6F106FB11020323FE
:1005B0000094FE20029906F043FB0B200090BBF84C
:1005C0000030BAF800204FF49770029906F00FFB44
:1005D00038680323B0FBF6F106FB110200944FF4D8
:1005E0009F70029906F02CFBC6E01B48A0F8009013
:1005F000E720ABF800001C4C3868A061A28B216892
:10060000B1FBF2F16160B0FBF1F1A160174AB2FBFE
:10061000F1F1C4E904184FF47A7A29E008000020C7
:10062000000000200D0A53595354454D20494E49AE
:10063000542054494D453A25642E25640D0A000086
:100640006C020020340200206402002068020020B6
:10065000700200201D0000203202002080040020D3
:10066000D001002040420F005004002000CA9A3BF5
:10067000B0FBFAF24A4E0095062330785021403004
:1006800006F022FA2E208DE821014648BBF8003002
:10069000502102883078703006F06AF9A069009520
:1006A000B0FBFAF10AFB11023078032350217830B5
:1006B00006F05AFAA0680095B0FBFAF230780623EB
:1006C0008221403006F000FA2E208DE821013548C5
:1006D000BBF80030822102883078703006F048F98B
:1006E000A0680095B0FBFAF10AFB110230780323F1
:1006F0008221783006F038FAD4E90401524600230A
:1007000008F0B4FB0246009530780623B42140304F
:1007100006F0DAF92E208DE821012248BBF80030DE
:10072000B42102883078703006F022F9D4E904014F
:100730005246002308F09AFB009530780323B42139
:10074000783006F011FA00953078A28B06235021FC
:10075000EB3006F0B9F90095307806238221EB30B2
:10076000226806F0B1F9009530780623B42100F232
:100770000310626806F0A8F90A4CE72020800023E5
:100780004FF4F07632461946184605F0F1FF012382
:1007900032461946002005F0EBFFA4F8009073E5FF
:1007A000000000203202002030B500F00703C3F142
:1007B0000704042C00D90424181D072801D20023A3
:1007C00000E0DB1E012505FA04F0401E08409840B9
:1007D0009D406D1E1540284330BD10B5042006F025
:1007E000B5FD5F48604A01685E48B1FBF0F01060FB
:1007F00080B24FF47A735843506001201073002088
:1008000090601846B1FBF0F000F094F8574800688B
:10081000C0F3022000220121FFF7C6FF0146BDE818
:1008200010404FF0FF3000F075B87047704710B5BA
:10083000042006F08BFD4A484A490068B0FBF1F0FD
:10084000494908604FF47A725043486001220A73A4
:1008500000228A6000F06EF844480068C0F302206D
:1008600000221146FFF7A0FF0146BDE810404FF0FF
:10087000FF3000F04FB83C488168027B1144816032
:100880003B493C480A78002A02D10288521E028065
:100890000288002A03D101220A70FF2101807047DB
:1008A00010B531494FF0E02388689A698C6884421A
:1008B000FAD14968B2FBF1F1401A10BD10B52A49CE
:1008C0004FF0E02388689A698C688442FAD10968FD
:1008D000B2FBF1F100EB4002C2EBC010C1EBC00073
:1008E00010BD70B50546244C606880470544ED1E78
:1008F00060688047A842FBD970BD70B504461E4DA4
:100900004FF47A7602E0E96830468847641E601C3E
:10091000F9D170BD0907090E002806DA00F00F00B2
:1009200000F1E02080F8141D704700F1E02080F80D
:100930000014704710B5B0F1807F01D3012010BDC5
:1009400020F07F404FF0E024401E60610F216017CF
:10095000FFF7E0FF0020A06107202061002010BD0C
:100960002000002040420F00940200200CED00E027
:1009700065020020660200200800002010B500F08B
:1009800084FE01F0A9F903F0D9FB04F0FDFA04F0AC
:10099000A5FC04F0BFFFBDE8104036A008F0DEBAA9
:1009A000384901204870704770B50446354D2878A5
:1009B000844238D0072819D2DFE800F004070A0D76
:1009C0001013160000F06AFE10E001F093F90DE03C
:1009D00003F0C2FB0AE003F0BFFB07E004F0DDFA1E
:1009E00004E004F083FC01E004F09CFF072C19D222
:1009F000DFE804F004070A0D1013160000F04AFEA9
:100A000010E001F06EF90DE003F09CFB0AE003F04A
:100A100099FB07E004F0BDFA04E004F064FC01E097
:100A200004F07DFF2C7070BD16484078072813D263
:100A3000DFE800F00406080A0C0E100000F0CEBB40
:100A400000F064BF02F0EEB802F0ECB803F09FBD16
:100A500004F066BB04F0B1BD704710B50A484168A8
:100A60000020884707484078FFF79EFFBDE8104008
:100A7000DAE7000066756E207061676520696E694F
:100A8000740D0A001C0000203C0200200CB500225E
:100A9000019200925248016841F4803101604FF4A4
:100AA000A063016801F4003100910199491C019192
:100AB000009911B901999942F3D10168890302D5CE
:100AC0000121009100E000920099012930D14549AF
:100AD0000A6842F010020A600A6822F003020A6003
:100AE0000A6842F002020A60416841604168416060
:100AF000416841F480614160416821F47C114160AA
:100B0000416841F4E8114160016841F08071016081
:100B100001688901FCD5416821F003014160416809
:100B200041F0020141604168C1F381010229FAD11B
:100B30000CBDABE710B52A48016841F00101016026
:100B40004168294A114041600168284A114001600A
:100B5000016821F480210160416821F4FE014160B7
:100B60004FF41F018160FFF7E4FF21494FF000605F
:100B7000086010BD10B51A4A506800F00C011D4BFA
:100B80001D4800290ED004290ED008290ED003607C
:100B90005168194AC1F30311121D515C0268CA4021
:100BA000026010BD0360F3E70360F1E7516801F4F0
:100BB0007011536803F48033022404EB914133B184
:100BC00053689B0307D50D4B59430160E0E70B4B7E
:100BD00059430160DCE7074B59430160D8E7000047
:100BE00000100240002002400000FFF8FFFFF6FE68
:100BF00008ED00E000127A002000002000093D000E
:100C000010B54FF4C871184808F043FABDE8104019
:100C100016A008F0A3B910B50022134B53F83240C8
:100C200024B1521CD2B2322AF8D310BD43F832009C
:100C300003EBC200416012490878401C087010BDE7
:100C400070B50024084D0E4E0AE005EBC40149685A
:100C5000014204D055F834108847002803D0641CA2
:100C600031788C42F1DB70BDA40200206576656EA0
:100C70007420717565756520696E69740D0A0000D0
:100C8000340000203EB5F94C1025F9A1E078CDE9FB
:100C900000150290638AA28A6178207806F072F9C2
:100CA000E078F8A1CDE9001502906078A178638A18
:100CB0000144A28A207806F065F9E078F6A1CDE932
:100CC000001502906178A078638A01440144A28AE9
:100CD000207806F057F9E078F7A1CDE900150290E9
:100CE0006178A078638A014401440144A28A207893
:100CF00006F048F9E078F6A1CDE900150290617898
:100D0000A078638A0144014401440144A28A207806
:100D100006F038F9E078F1A1CDE90015029061788C
:100D2000A078638A01440144014401440144A28A39
:100D3000207806F027F9E078EEA1CDE900150290C1
:100D40006178A078638A014401440144014401446C
:100D500001444FF478424FF4D27006F013F93EBDCF
:100D60002DE9FE4FE54C4FF0E708CDF8008000215B
:100D700022881423084605F0D8FC01271026E0A09D
:100D80008DE8C1004FF6FF7A1F2352460221002052
:100D900006F06EF9B54800231C308DE8C1005246BC
:100DA00004214FF4B97006F0EDF8CDF800A060888A
:100DB0002288143883B21421002005F0B6FC4FF0CD
:100DC0000009D5A0CDE900095346E72264211E2081
:100DD00006F058F8A54DD1A1E723E878CDE9001633
:100DE00002905246AA211E2006F0CCF8FFF74AFFD7
:100DF0000024DFF834A305F1160BAAF80080687808
:100E0000A97895F800C001FB0401287900F11002CF
:100E10000A4493B21BF80420091A0CEB0212024494
:100E2000ACEB0000383289B280B205F0EDFCE87816
:100E3000BEA1CDE9001602906878A9786B8A04FB00
:100E4000010081B22878E722283880B206F09AF8AB
:100E5000641CE4B2062CD0D3A878697800EB40007B
:100E60002A7901EB40008318801A81B2103302F511
:100E7000E2724FF4CD7005F0C7FC7C4800232830A7
:100E80008DE841024FF6FF724FF49871184606F054
:100E900079F8A7480760BDE8FE8FFEB50646734D9A
:100EA0006E71FFF7EFFE6979002310244FF6FF7291
:100EB00001290ED0022918D0032924D0042931D0C9
:100EC00005293FD006294ED008295ED009295ED0D9
:100ED0006FE06B74E87866A1CDE900140290E72317
:100EE0006978287806F04EF863E06B74E87865A1BD
:100EF000CDE9001402906878A978E72301442878A6
:100F000006F040F855E06B74E87863A1CDE9001471
:100F100002906978A878E72301440144287806F014
:100F200031F846E06B74E87863A1CDE900140290D3
:100F30006978A878E723014401440144287806F041
:100F400021F836E06B74E87861A1CDE900140290D5
:100F50006978A878E72301440144014401442878D2
:100F600006F010F825E06B74E8785CA1CDE9001478
:100F700002906878A978E7230844084408440844A4
:100F80000144287805F0FEFF13E06B7411E0E87867
:100F900058A1CDE9001402906878A978E7230844A5
:100FA000084408440844084401444FF4D27005F052
:100FB000E9FF6979A879814205D1082905D0092975
:100FC00003D05C480670A971FEBD0929FBD1687C7D
:100FD000401CC0B268740228F5D1584A56481060C7
:100FE000F1E72DE9F041044652480078002824D169
:100FF0001E4D0023012695F90F002A7C411E012C6D
:101000001CD0022C28D00627042C26D0B4F5805FF3
:1010100024D0B4F5005F22D0B4F5804F20D0B4F5D1
:10102000004F1ED0B4F5803F1CD0B4F5003F1AD05D
:10103000B4F5802F18D0202C17D0CCE048B2E8733C
:10104000012800DAEE7395F90F00012879D02E748B
:10105000C0B2FFF722FFBEE079E07EE092E096E0CA
:101060009BE0A0E0A5E0AAE0AEE0B1E03600002001
:10107000CAB5D1E931A3BAB2E2C1BFB5B2B9E2CAC9
:10108000B1BCE400CAB5D1E932A3BAB2E2C1BFCB68
:10109000B2CAB1CBD9B6C800CAB5D1E933A3BAB286
:1010A000E2C1BFD4C8B1E4CBD9D4CBB6AFB5C4BCD0
:1010B000D3CBD9B6C8000000CAB5D1E934A3BAB2BF
:1010C000E2C1BFC5F6D7B2D6D0B5C4B6AFC1BF0076
:1010D000CAB5D1E935A3BABCC6CAFD00CAB5D1E9C3
:1010E00036A3BAB2E2C1BFD6DCC6DABACDC6B5C243
:1010F000CA000000CDCBB3F6000000007004002051
:10110000B9E2B5E7BCC6CAB1CAFDD7D6CAB5D1E9FE
:10111000CFB5CDB300000000BBD50000C6BDB4A85C
:10112000D6D0D1A70000000032020020F7CE000088
:10113000808121421D0000200400FA050CED00E032
:10114000FFE71AB32B740120FFF7A7FE43E006293F
:1011500041D2C0B2FFF7A1FE3DE0401C40B2E873AF
:10116000062800DDEF7395F90F00062804D02E74D1
:10117000C0B2FFF792FE2EE042B12B740620FFF7BB
:101180008CFE28E00120FFF788FEEE7323E00220AA
:10119000FFF783FE0220E8731DE00320FFF77DFECA
:1011A0000320E87317E00420FFF777FE0420E873BC
:1011B00011E00520FFF771FE0520E8730BE0062023
:1011C000FFF76BFEEF7306E00820FFF766FE02E014
:1011D0000920FFF762FE2046BDE8F0812DE9F05FAF
:1011E000DFF82484DFF8249408F1160498F800202E
:1011F00098F804002378A2EB000A02EB031243469E
:1012000002445B78B9F81010A3EB000C0344484685
:10121000383210330025FE4E0127408A8A4510DA05
:1012200091420ED284450CDA98420AD298F807B05F
:10123000BBF1000F05D088F807503803FFF700FD19
:101240000DE08A4509DA914207D2844505DA9842D1
:1012500003D2D6F82801012801D188F8077098F840
:10126000002098F80400B9F81010131A8B4224DA01
:1012700094F801C002EB0C1C84440CF1380C61455D
:101280001BD298F801C098F802A0D444B9F812A073
:10129000ACEB000BD34510DA84440CF1100CE245A2
:1012A0000BD298F808C0BCF1000F06D088F808509F
:1012B0004FF40050FFF7C4FC1CE08B4218DA63784F
:1012C00002EB031202443832914211D298F8011015
:1012D00098F802200A44B9F81210131A8B4207DA60
:1012E00010441030814203D2D6F82801012801D1E0
:1012F00088F8087098F8002098F80400B9F81010E1
:10130000131A8B4225DA94F802C002EB0C1C8444B9
:101310000CF1380C61451CD298F801C098F802A075
:101320000CEB4A0CB9F812A0ACEB000BD34510DA69
:1013300084440CF1100CE2450BD298F809C0BCF1C2
:10134000000F06D088F809504FF48040FFF778FC72
:101350001DE08B4219DAA37802EB03120244383203
:10136000914212D298F8011098F8022001EB420243
:10137000B9F81210131A8B4207DA10441030814268
:1013800003D2D6F82801012801D188F8097098F80D
:10139000002098F80400B9F81010131A8B4226DACE
:1013A00094F803C002EB0C1C84440CF1380C61452A
:1013B0001DD298F802C098F801A00CEB4C0CD44454
:1013C000B9F812A0ACEB000BD34510DA84440CF151
:1013D000100CE2450BD298F80AC0BCF1000F06D001
:1013E00088F80A504FF40040FFF72AFC1EE08B42B9
:1013F0001ADAE37802EB031202443832914213D234
:1014000098F8021098F8012001EB41010A44B9F85C
:101410001210131A8B4207DA10441030814203D2A3
:10142000D6F82801012801D188F80A7098F8002020
:1014300098F80400B9F81010131A8B4225DA94F8C2
:1014400004C002EB0C1C84440CF1380C61451CD226
:1014500098F801C098F802A00CEB8A0CB9F812A019
:10146000ACEB000BD34510DA84440CF1100CE245D0
:101470000BD298F80BC0BCF1000F06D088F80B50C7
:101480004FF48030FFF7DCFB1DE08B4219DA237943
:1014900002EB031202443832914212D298F8011042
:1014A00098F8022001EB8201B9F812200B1A93423E
:1014B00007DA08441030824203D2D6F82801012806
:1014C00001D188F80B7098F8002098F80400B9F85A
:1014D0001010131A8B4226DA94F805C002EB0C1C8C
:1014E00084440CF1380C61451DD298F802C098F87C
:1014F00001A00CEB8C0CD444B9F812A0ACEB000B9F
:10150000D34510DA84440CF1100CE2450BD298F864
:101510000CC0BCF1000F06D088F80C504FF400301E
:10152000FFF78EFB1EE08B421ADA637902EB03129F
:1015300002443832914213D298F8021098F80120F0
:1015400001EB81010A44B9F81210131A8B4207DA31
:1015500010441030814203D2D6F82801012801D16D
:1015600088F80C70B9F810004FF4CD74A04220D95F
:1015700098F8041001F5E27290421AD298F802200D
:1015800098F8013002EB82021344B9F81220A3EB61
:10159000010C94450DDA194410318A4209D298F8A9
:1015A0000D1031B188F80D504FF48020FFF748FB43
:1015B0001DE0A04219D998F8041001F5E27290429A
:1015C00013D298F8020098F8012000EB8000024442
:1015D000B9F81200531A834207DA114410318842D5
:1015E00003D2D6F82801012801D188F80D70B9F886
:1015F0001000A04228D998F8041001F5E272904238
:1016000022D298F8022005E0360000203C0200209B
:101610000080234298F8013002EB420203EB4202C1
:10162000B9F81230A2EB010C9C450DDA11441031CF
:101630008B4209D298F80E1031B188F80E50BDE8EF
:10164000F05F2020FFF7FCBAA0421AD998F80410E6
:1016500001F5E272904214D298F8020098F8012045
:1016600000EB400002EB4002B9F81200531A83422B
:1016700007DA11441031884203D2D6F82801012834
:1016800001D188F80E70BDE8F09F0F49AFF2AD6050
:10169000FFF7C1BA00210846FFF762BB10B54FF64D
:1016A000FF7004F041FA09480121C17101724172D1
:1016B0008172C1720173417381730022C27301741C
:1016C00007214171817110BD27F00700360000200D
:1016D000FEB5FA4C1025FAA16078CDE9001502900C
:1016E0004FF4D276E3882289A621304605F04AFCE1
:1016F0006078F5A1CDE900150290E3882289D82110
:10170000304605F03FFC6078F1A1CDE9001502906C
:10171000E3884FF478424FF48571304605F032FC8F
:10172000FEBD2DE9FE4FEC4CE725009500212288F7
:101730001423084604F0F9FF1026E8A1CDE90016AD
:1017400001204FF6FF7702901F233A460221002026
:1017500005F08EFC0097638822881421002004F095
:10176000E4FFD64CE3A16078CDE900160290E3884F
:1017700022892821142005F005FC6078E2A1CDE93A
:1017800000160290E38822892821FE2005F0FAFB4A
:101790006078E5A1CDE900160290E38822896021F6
:1017A000822005F0EFFB6078E2A1CDE900160290FF
:1017B000E38822899221822005F0E4FB6078E0A191
:1017C000CDE900160290E3882289C421822005F029
:1017D000D9FB6078DDA1CDE900160290E38822896B
:1017E000F621822005F0CEFB6078DBA1CDE9001662
:1017F00002904FF49F78E38822896021404605F0EB
:10180000C1FB6078D4A1CDE900160290E38822895B
:101810009221404605F0B6FB6078CFA1CDE90016D5
:101820000290E3882289C421404605F0ABFB607832
:10183000C9A1CDE900160290E3882289F62140462D
:1018400005F0A0FBC548058000254FF056094FF470
:10185000BC784FF07A0A05EBC50000EB051B09EBDD
:101860004B010B464246502004F082FF0AEB4B012D
:101870000B464246502004F07BFF6D1CEDB2042D58
:10188000E9D34FF4887550222B465621104604F0B8
:101890006FFF40462B460246562104F069FFFFF7D2
:1018A00017FF00254FF0A60905EBC500227800EBD5
:1018B0000518C2EB4800A63002EB480381B2C2F51E
:1018C000D270B63302F5E27204F09EFF6078A4A1F4
:1018D000CDE900160290207809EB4801C0F5CA70E6
:1018E000E388E72205F04EFB6D1CEDB2032DDBD340
:1018F000724900201C31CDE9001603463A46029099
:101900004FF4987105F03EFBBDE8FE8F2DE9F047DE
:101910006A4CDFF85082002521784046C1F5D27923
:10192000B8F81020C1F1A60C01F1B6038E4E0127C4
:10193000408A01F5E27191450FD28A420DD2844569
:101940000BDA984209D294F803A0BAF1000F04D040
:10195000E5708020FFF774F90CE0914509D28A42C6
:1019600007D2844505DA984203D2D6F82801012827
:1019700000D1E7702078B8F81010C0F5D2728A4212
:1019800015D200F5E273994211D2B8F81230C0F1C5
:10199000D80C9C450BDA00F1E80C634507D223799B
:1019A0002BB125714FF48070FFF74AF913E08A429A
:1019B00010D200F5E27291420CD2B8F81210C0F1C8
:1019C000D8028A4206DAE830814203D2D6F82801EA
:1019D000012800D127712078B8F81010C0F5D27214
:1019E0008A4215D200F5E273994211D2B8F812304A
:1019F000C0F5857C9C450BD200F58D7C634507D2F4
:101A000063792BB16571BDE8F0474020FFF718B945
:101A10008A4211D200F5E27291420DD2B8F812104A
:101A2000C0F585728A4207D200F58D70814203D2DB
:101A3000D6F82801012800D16771BDE8F0872DE9AB
:101A4000FE4F0446494F3878012831D11B4D1026EE
:101A50004FF0000848F210094FF6FF7A4FF4857BEB
:101A6000012C26D0022C25D0042C24D0802C23D06D
:101A7000B4F5807F21D0402C7ED03D48B4F5801F46
:101A800040687AD03B4EB4F1807F77D0B4F5001F28
:101A900075D0B4F1007F73D0B4F5000F71D0B4F1FC
:101AA000006F6FD0B4F5800F6DD0B4F1806F6BD044
:101AB00010E16AE07EE092E0A6E0BAE0800000205B
:101AC000BFAACABC00000000C7E5C1E300000000D7
:101AD000B7B5BBD80000000070040020B9E2B5E73C
:101AE000BCC6CAB1CAFDD7D6CAB5D1E9CFB5CDB348
:101AF00000000000CAB5D1E931A3BAB2E2C1BFB556
:101B0000B2B9E2CAB1BCE400CFB5CDB3BCC6CAB16C
:101B1000CAB1BCE43A202020202020202020202010
:101B200020206D7300000000B4ABB8D0C6F7313A86
:101B300000000000B4ABB8D0C6F7323A0000000095
:101B4000B4ABB8D0C6F7333A00000000B4ABB8D09D
:101B5000C6F7343A000000006D7300003202002026
:101B6000F7CE00003C020020008023421D00002030
:101B7000080000208004002070E084E086E08CE013
:101B80008EE094E096E09CE09EE0FFF7A1FD68788F
:101B9000AFF2C401CDE9001602904B4652465946B9
:101BA0004FF4D27005F0EEF95AA007F0D7F987F894
:101BB00000808FE0FFF78CFD6878AFF2FC01CDE983
:101BC000001602904B465246A6214FF4D27005F003
:101BD000D9F954A007F0C2F904F093FB7AE0FFF7BB
:101BE00077FD6878AFF22011CDE9001602904B46E0
:101BF0005246D8214FF4D27005F0C4F94EA007F038
:101C0000ADF904F083FB65E0FFF762FD6878AFF2A1
:101C10005011CDE9001602904B465246A6214FF4D2
:101C2000D27005F0AFF949A007F098F904F069FB0C
:101C300050E0FFF74DFD6878AFF27411CDE9001662
:101C400002904B465246D8214FF4D27005F09AF9D3
:101C500043A007F083F904F059FB3BE0FFF738FDA0
:101C60006878AFF29411CDE9001602904B465246C7
:101C700059464FF4D27005F085F93EA007F06EF991
:101C800087F8008026E08047E86023E08047E96825
:101C9000401AA978401A30601CE08047286119E09A
:101CA00080472969401AA978401A706012E080477D
:101CB00068610FE080476969401AA978401AB060EE
:101CC00008E08047A86105E08047A969401AA97823
:101CD000401AF060204617E62B49AFF29D20FEF730
:101CE0009ABF10B529A007F039F90021BDE81040CE
:101CF000084616E510B528A007F030F94FF6FF703A
:101D000003F012FF04F002FB27490120487108711B
:101D1000C87010BD6C6162315F6B65795F62616331
:101D20006B0D0A006C6162315F6B65795F73747271
:101D300061740D0A000000006C6162315F6B6579AF
:101D40005F636C6561720D0A000000006C616231B6
:101D50005F746F7563685F73747261740D0A00005D
:101D60006C6162315F746F7563685F636C6561722B
:101D70000D0A00006C6162315F746F7563685F62A9
:101D800061636B0D0A000000C701F00F6C616231E6
:101D90005F696E69740D0A006C6162315F636C6F1C
:101DA00073650D0A00000000800000202DE9FE4F41
:101DB000FFF78EFCDFF804A44FF6FF77AAF8007057
:101DC000DFF8FC83E720A8F80000FE4CFE4E10254B
:101DD000617B4FF02E094FF4D2704FF0200B012998
:101DE0007ED06178F9A2CDE900250291A38AE28A2A
:101DF000422105F0C7F86078F6A1CDE90015029000
:101E00004FF47C433A4674214FF4D27005F0BAF88F
:101E100084F802B06078F1A1CDE900150290A38AA0
:101E2000E28A2179E07805F0ADF86078F0A1CDE99B
:101E3000001502902079A178A38A00EB4101E28A83
:101E4000E07805F09FF86078EEA1CDE900150290EA
:101E5000A38AE28A2179A07905F094F86078EEA14E
:101E6000CDE9001502902079A178A38A00EB410109
:101E7000E28AA07905F086F8306A4FF47A77B0FBF1
:101E8000F7F20095E07806232179213004F01CFE5A
:101E90006078CDE900950290E078B8F80030BAF8A3
:101EA00000202179513004F063FD306A0095B0FBC9
:101EB000F7F107FB1102E07803232179593004F090
:101EC00053FE706A0095B0FBF7F22079A1780623E3
:101ED00000EB4101E078213004F0F6FD607800E08D
:101EE00071E0CDE9009502902079A178B8F8003032
:101EF00000EB4101E078BAF80020513004F038FDE1
:101F0000706A0095B0FBF7F107FB11022079A17808
:101F1000032300EB4101E078593004F025FEB06A5C
:101F2000009590FBF7F2A07906232179213004F087
:101F3000CBFD6078CDE900950290A079B8F800302B
:101F4000BAF800202179513004F012FDB06A0095F2
:101F500090FBF7F107FB1102A07903232179593097
:101F600004F002FEF06A009590FBF7F22079A17868
:101F7000062300EB4101A079213004F0A5FD607833
:101F8000CDE9009502902079A178B8F8003000EBF7
:101F90004101A079BAF80020513004F0E9FCF06A60
:101FA000009590FBF7F107FB11022179A07803233C
:101FB00001EB4001A079593004F0D6FD9B4E3078FA
:101FC00003287DD0F4E3617880A2CDE90025029159
:101FD0004FF47C434FF6FF724221074604F0D2FFD4
:101FE00060787CA1CDE900150290A38AE28A742171
:101FF000384604F0C7FF8D480078022802D0032835
:102000007ED0A8E32820A070607889A1CDE90015D2
:102010000290A38AE28A6179E07804F0B3FF6078E5
:1020200088A1CDE9001502906079A178A38A0144C6
:10203000E28AE07804F0A6FF607887A1CDE9001578
:1020400002906079A178A38A00EB4101E28AE078EE
:1020500004F098FF607885A1CDE900150290A07882
:10206000617900EB40000144A38AE28AE07804F041
:1020700089FF607882A1CDE900150290A38AE28AE7
:102080006179A07904F07EFF607882A1CDE9001526
:1020900002906079A178A38A0144E28AA07904F0D1
:1020A00071FF607880A1CDE9001502906079A17878
:1020B000A38A00EB4101E28AA07904F063FF00E00B
:1020C00077E360787DA1CDE900150290A078617971
:1020D00000EB40000144A38AE28AA07904F052FF99
:1020E00030684FF47A77B0FBF7F20095E07806237A
:1020F00061791C3004F0E8FC6078CDE9009500E0DF
:10210000CCE10290E078B8F80030BAF800206179AC
:102110004C3004F02DFC30680095B0FBF7F107FB64
:102120001102E07803236179543004F01DFD7068DA
:102130000095B0FBF7F26079A17806230144E078BE
:102140001C3004F0C1FC6078CDE900950290607904
:10215000A178B8F800300144E078BAF800204C309B
:1021600004F006FC70680095B0FBF7F107FB110264
:102170006079A17803230144E078543004F0F4FC42
:10218000B0680095B0FBF7F26079A178062300EB08
:102190004101E0781C3004F097FC6078CDE90095AF
:1021A00002906079A178B8F8003000EB4101E07846
:1021B000BAF800204C3004F0DBFB89E0320200204A
:1021C00034020020C400002080040020B7BDB7A85E
:1021D00031000000B7BDB7A8320000007431323AB8
:1021E00020202020202020202020206D73000000AF
:1021F0007433343A20202020202020202020206DFD
:10220000730000007631323A202020202020202048
:102210002020206D2F7300007633343A20202020B8
:10222000202020202020206D2F7300001D00002082
:1022300074313A20202020202020202020206D737F
:102240000000000074323A2020202020202020208E
:1022500020206D730000000074333A2020202020DD
:102260002020202020206D730000000074343A20CC
:10227000202020202020202020206D73000000003E
:1022800076313A20202020202020202020206D2F71
:102290007300000076323A202020202020202020C9
:1022A00020206D2F7300000076333A20202020205C
:1022B0002020202020206D2F7300000076343A204B
:1022C000202020202020202020206D2F73000000BF
:1022D000B0680095B0FBF7F107FB11026079A178B7
:1022E000032300EB4101E078543004F03DFCF0683A
:1022F0000095B0FBF7F2A078617900EB4000014453
:10230000E07806231C3004F0DFFB6078CDE900950F
:102310000290A078617900EB40000144E078B8F8C1
:102320000030BAF800204C3004F022FBF068009531
:10233000B0FBF7F107FB1102A078617900EB4000D8
:102340000144E0780323543004F00EFC306900951A
:1023500090FBF7F2A079062361791C3004F0B4FBFE
:102360006078CDE900950290A079B8F80030BAF80D
:10237000002061794C3004F0FBFA3069009590FB45
:10238000F7F107FB1102A07903236179543004F0BF
:10239000EBFB7069009590FBF7F26079A17806235A
:1023A0000144A0791C3004F08FFB6078CDE90095E2
:1023B00002906079A178B8F800300144A079BAF8A9
:1023C00000204C3004F0D4FA7069009590FBF7F1CE
:1023D00007FB11026079A17803230144A0795430EE
:1023E00004F0C2FBB069009590FBF7F26079A17828
:1023F000062300EB4101A0791C3004F065FB6078F6
:10240000CDE9009502906079A178B8F8003000EB32
:102410004101A079BAF800204C3004F0A9FAB06963
:10242000009590FBF7F107FB11026079A178032377
:1024300000EB4101A079543004F096FBF06900955F
:1024400090FBF7F2A078617900EB40000144A0799D
:1024500006231C3004F038FB6078CDE9009502902B
:10246000A078617900EB40000144A079B8F8003011
:10247000BAF800204C3004F07BFAF069009590FB2C
:10248000F7F107FB1102A078617900EB40000144ED
:10249000A0790323543004F067FB5CE11E20A07098
:1024A0006078F8A1CDE900150290A38AE28A6179EB
:1024B000E07804F067FD6078F6A1CDE900150290A0
:1024C0006079A178A38A0144E28AE07804F05AFD99
:1024D0006078F4A1CDE900150290A078617900EB55
:1024E00040000144A38AE28AE07804F04BFD607862
:1024F000F0A1CDE9001502906079A178A38A00EBE4
:102500008101E28AE07804F03DFD6078EDA1CDE93B
:1025100000150290A38AE28A6179A07904F032FD65
:102520006078EDA1CDE9001502906079A178A38AC9
:102530000144E28AA07904F025FD6078EBA1CDE9A1
:1025400000150290A078617900EB40000144A38A55
:10255000E28AA07904F016FD6178E9A0CDE9015185
:1025600000906079A178A38A00EB8101E28AA079CA
:1025700004F008FD0095E078092361791C30326889
:1025800004F0A2FA00956179A07809230144E0786B
:1025900072681C3004F098FA0095A078092300EBCB
:1025A00040016079B2680144E0781C3004F08CFA94
:1025B00000956179A078092301EB8001E078F26849
:1025C0001C3004F081FA306942F2107790FBF7F288
:1025D0000095A079092361791C3004F075FA7069BF
:1025E000009590FBF7F26079A17809230144A07966
:1025F0001C3004F069FAB069009590FBF7F2A078FE
:10260000617900EB40000144A07909231C3004F0FB
:102610005BFAF069009590FBF7F26079A1780923E5
:1026200000EB8101A0791C3004F04EFA6078B9A16A
:10263000CDE9001502906079A178A38A00EB4101F1
:10264000E078E28A083880B204F09CFC009560795A
:10265000A178092300EB4101E078E26B1C3004F023
:1026600033FA6078B0A1CDE9001502906079A178C5
:10267000A38A00EB4101A079E28A801C04F082FC6D
:10268000CDE900B54FF00009CDF808906079A17848
:10269000B8F8003000EB4101A079BAF800201C30F6
:1026A00004F066F9306B0095B0FBF7F26079A17821
:1026B000082300EB4101A079243004F005FA60788A
:1026C0009EA1CDE900150290A078617900EB800011
:1026D0000144E078A38A083880B2E28A04F052FC10
:1026E0000095A078617900EB80000144E07809232F
:1026F0001C30226C04F0E8F9607895A1CDE9001552
:102700000290A078617900EB80000144A079A38A4F
:10271000E28A801C04F036FCCDE900B5CDF80890C3
:10272000A078617900EB80000144A079B8F800300E
:10273000BAF800201C3004F01BF9706B0095B0FB58
:10274000F7F2A078617900EB80000144A0790823BA
:10275000243004F0B9F9607882A1CDE90015029027
:102760002179E078A38AE28AB631183004F00AFCB5
:102770004FF6FF70AAF80000E720A8F80000CDF897
:1027800000B021790223B4F91820A231DC2004F032
:1027900057FA607876A1CDE9001502902179A38AD5
:1027A000E28AB6314FF48C7004F0ECFBBDE8FE8F8A
:1027B00043E060786FA1CDE9001502902179A38AEA
:1027C000E28A8031E07804F0DDFB00952179E07841
:1027D000092380312130E26C04F076F960786AA137
:1027E000CDE9001502902179A078A38A01EB800140
:1027F000A079E28A103004F0C5FBCDE900B50020D5
:1028000002902079A178B8F8003000EB8101A0791E
:10281000BAF80020213004F0ABF860480823816B3F
:1028200042F21070B1FBF0F200952079A17800EB34
:102830008101A079293004F047F9307802281FD1AE
:10284000607857A1CDE9001502902079A178A38A7C
:1028500000EB8101E078E28A323004F093FBA07B48
:1028600078B1607851A1CDE9001502902079A17866
:10287000A38A00EB8101E078E28A7A3004F082FBDF
:10288000A9E099E074313A20202020202020202047
:10289000206D730074323A20202020202020202038
:1028A000206D730074333A20202020202020202027
:1028B000206D730074343A20202020202020202016
:1028C000206D730076313A20202020202020202007
:1028D000206D2F730000000076323A202020202047
:1028E00020202020206D2F730000000076333A2036
:1028F0002020202020202020206D2F7300000000A9
:1029000076343A202020202020202020206D2F7394
:10291000000000007431323A2020202020202020A6
:1029200020206D730000000061313A20202020201B
:1029300020202020206D2F73320000007433343AA1
:10294000202020202020202020206D730000000067
:1029500061323A202020202020202020206D2F735B
:1029600032000000B5B2B9E2C6ACBFEDB6C83A005D
:102970006D206D007431333A20202020202020204B
:1029800020206D7300000000613A202020202020CC
:10299000202020206D2F73320000000080040020D2
:1029A000CBD9B6C8B7BDCFF2A3BA000034333231A9
:1029B000CEAAD5FD000000006078FEA1CDE900158B
:1029C00002902079A178A38A00EB8101E078E28A65
:1029D0007A3004F0D7FA6078F9A1CDE900150290B9
:1029E000A078217900EB400001EB4000083881B26B
:1029F000E078A38AE28A323004F0C4FA4FF6FF701E
:102A0000AAF80000E720A8F80000CDF800B0A078F0
:102A1000217900EB400001EB40001C3881B2E078E6
:102A20000223B4F91A20963004F00AF96078AFF264
:102A3000C001CDE900150290A078217900EB40009B
:102A400001EB4000083881B2A38AE28AFA2004F040
:102A500099FAABE62DE9FE4FDC4CE7270097002101
:102A600022881423084603F060FE1026D8A1CDE981
:102A7000001601204FF6FF7902901F234A460221DB
:102A8000002004F0F5FACDF8009063882288142124
:102A9000002003F04AFEDFF850A3D44D9AF800005E
:102AA000022802D003280CD016E06878D0A1CDE926
:102AB00000160290AB8AEA8A1621142004F062FA0A
:102AC0000AE06878CFA1CDE900160290AB8AEA8AC5
:102AD0001621142004F056FA6878D2A1CDE9001628
:102AE0000290AB8AEA8A1621FE2004F04BFAFFF727
:102AF0005DF90024DFF84C834FF0420BA8F800701A
:102B0000022C12D204EBC4002A7800EB041002EB72
:102B10004003C2EB4000423081B2C2F5D270523362
:102B200002F5E67203F070FE11E004EBC4002A78AF
:102B300000EB041002EB4003C2EB4000423081B2D4
:102B4000C2F5D270523302F5E27203F05DFE68788E
:102B5000BDA1CDE90016029004EBC40000EB041007
:102B60000BEB40012878AB8AC0F5CA70E72204F06D
:102B700009FA641CE4B2052CC0D39AF800000021C5
:102B8000DFF8C8A24FF4987C4FF4A07440F22715E8
:102B9000032828D0022844D1CDE9016193480023BD
:102BA000893000904A466146184604F0EBF9A8F8CF
:102BB0000070AAF800902346B42229466C2003F046
:102BC00023FE4FF48276234632462946B42003F092
:102BD0001BFE03B0234629463046BDE8F04F4FF4B4
:102BE000A87203F011BECDE9016180480023603076
:102BF00000904A466146184604F0C4F9A8F80070EF
:102C0000AAF800902346F4222946A42003F0FCFDF4
:102C100003B0234622462946BDE8F04FF52003F0D5
:102C2000F3BDC3E52DE9F05FFEF770FE6F4CDFF8F2
:102C3000209200262078B9F81010C0F5D273854F85
:102C40004FF001088B4215D200F5E272914211D289
:102C5000B9F81220C0F1740595420BDA00F1840531
:102C6000AA4207D2E2792AB1E6714FF40060FDF77B
:102C7000E7FF14E08B4210D200F5E27291420CD2D1
:102C8000B9F81210C0F174028A4206DA8430814227
:102C900003D2D7F82801012801D184F807802078D1
:102CA000B9F81010C0F5D2738B4215D200F5E2725C
:102CB000914211D2B9F81220C0F1420595420BDAC7
:102CC00000F15205AA4207D2227A2AB126724FF4A5
:102CD0008060FDF7B5FF14E08B4210D200F5E27280
:102CE00091420CD2B9F81210C0F142028A4206DABF
:102CF0005230814203D2D7F82801012801D184F84B
:102D0000088039484FF4A0750078032816D00228AF
:102D10004DD1B9F810004FF4947AA0F16D01472914
:102D200044D2B9F81210514540D3A9423ED2E17ABB
:102D3000E1B3E6720120FDF783FFB1E0B9F81000BE
:102D40004FF48F7AA0F1A5014F290CD2B9F81210D7
:102D5000514508D3A94206D2617A21B16672022098
:102D6000FDF76EFF0FE0A4280BD9F42809D2B9F8BB
:102D70001200504505D3A84203D2D7F828010128F4
:102D800001D184F80980B9F81000A0F1F6014A29B0
:102D900064D2B9F81210514560D3A9425ED2A17A2B
:102DA00031B1A672BDE8F05F042055E068E065E04F
:102DB00054E0000031323334CEAAD5FD00000000CB
:102DC000B4ABB8D0C6F7BEE0C0EB3A007004002048
:102DD000B9E2B5E7BCC6CAB1CAFDD7D6CAB5D1E912
:102DE000CFB5CDB3000000001D000020C4000020BE
:102DF000CAB5D1E932A3BAB2E2C1BFCBB2CAB1CB34
:102E0000D9B6C800CAB5D1E933A3BAB2E2C1BFD4BA
:102E1000C8B1E4CBD9D4CBB6AFB5C4BCD3CBD9B64B
:102E2000C8000000CFB5CDB3BCC6CAB1CAB1BCE4BE
:102E30003A202020202020202020202020206D73D8
:102E40000000000032020020F7CE00003402002013
:102E50003C02002000802342FDF7F2BEF5280BD98A
:102E6000A84209D2B9F81200504505D3A84203D2AE
:102E7000D7F82801012801D184F80A80BDE8F09F25
:102E80006C280BD9B42809D2B9F81200504505D3E3
:102E9000A84203D2D7F82801012801D184F80B8079
:102EA000B9F810004FF4827BA0F1B5014F290CD284
:102EB000B9F81210514508D3A94206D2617A21B15E
:102EC00066720220FDF7BCFE0FE0B4280BD958450E
:102ED00009D2B9F81200504505D3A84203D2D7F859
:102EE0002801012801D184F80980B9F81000A0F266
:102EF00005114B290DD2B9F81210514509D3A94239
:102F000007D2A17A29B1A672BDE8F05F0420FDF7CF
:102F100097BE58450CD9B0F5A87F09D2B9F8120070
:102F2000504505D3A84203D2D7F828010128A5D1DE
:102F300084F80A80A2E72DE9F04F8DB00446FE48E0
:102F40000378022B01D0032B7DD1FC4E00251027E6
:102F5000727B30790C90B0780B90F078DFF8E093CA
:102F6000DFF8E0A34FF6FF784FF0E70B012C7CD0A1
:102F70003046017901F1A20CCDF828C090F802C0CA
:102F80000CEB4C0C01EB4C0190F803C01C390CF11C
:102F9000960EB0F918C0B0F91A00022C7DD0042C9E
:102FA0007CD0802C7BD0B4F5807F79D0402C78D039
:102FB000E548B4F5801F006874D0DFF88CE3314633
:102FC000D1F81CC0DEF800E0AEEB0C0CCDF824C04C
:102FD00091F805C0CDF820C0C9781C310791B4F133
:102FE000807F7DD031464FF47A7E91F80CC0CDF8C9
:102FF00018C0B1F91AC00CFB0EFCCDF814C0C9788A
:1030000021310491B4F5001F6BD0B4F1007F69D079
:10301000B4F5000F67D0DFF830C33146496ADCF8F9
:1030200000C0ACEB010103913146B1F918E04FF457
:103030007A710EFB01FE3146897801EB410C314675
:103040004979614401E0FDE30FE0B4F1006F7CD009
:10305000B4F5800F7AD0B4F1806F78D0B4F5806F7A
:1030600076D0B4F5006F74D07FE2032B02D0022B30
:1030700019D0F9E7FEF79AFE7078B4A1CDE90017F0
:10308000029048F2100342464FF485714FF4D2701B
:1030900003F078FFA8480570E6E745E076E0A2E097
:1030A000B3E0D4E0E6E0F17C491CF174012ADBD006
:1030B0007178AFF21472CDE900270291DDE90B219E
:1030C00001EB8201B38AF28A323003F05BFFF07CBD
:1030D000C00717D00120B0737078AFF2307103E0F1
:1030E000DCE05AE18FE1A6E2CDE9001702903079E9
:1030F000B178B38A00EB8101F078F28A7A3003F07C
:1031000041FFB1E7B5737078AFF25831CDE90017E0
:1031100002903079B178B38A00EB8101F078F28ABD
:103120007A3003F02FFF9FE7012A19D0401E00B22A
:103130007083A9F80080AAF800B0002800DA75832F
:10314000202089B20223009004E088E222E3FDE31C
:10315000FDE3FDE3B6F91A20704603F071FD83E745
:10316000ACF1010C0FFA8CF03083A9F80080AAF8BA
:1031700000B0002800DA3583202000900223B6F941
:103180001820DC200A9903F05BFD6DE7012A13D0BB
:10319000401C00B27083A9F80080AAF800B0632830
:1031A00000DD75832020009089B20223B6F91A2031
:1031B000704603F045FD57E70CF1010C0FFA8CF057
:1031C0003083A9F80080AAF800B0632801DDC82088
:1031D0003083202000900223B6F91820DC200A99C1
:1031E00003F02EFDC1E1FEF7E1FD707859A1CDE9B4
:1031F0000017029048F210034246A6214FF4D27005
:1032000003F0C0FE03F07DF8AFE1404602F08CFC15
:10321000F5633564F56435657565B565F565F57314
:1032200035747574B57403F071F800210846FFF722
:1032300011FC707849A1CDE90017029048F2100303
:103240004246D8214FF4D27003F09CFE8DE1FEF788
:10325000ADFD70783DA1CDE90017029048F2100352
:1032600042464FF485714FF4D27003F08BFE324822
:1032700005707AE1012A04D0032B05D0022B08D077
:1032800073E1F061F06270E101213173F06170640B
:103290006BE1F17B491CF173306566E1012A8AD14B
:1032A000A9F80080AAF800B02E49099808604FF4E8
:1032B0007A71B0FBF1F20097DDE90701062303F014
:1032C00003FC71782E20CDE901710090F078BAF8F6
:1032D0000030B9F8002071794C3003F049FB2148E7
:1032E000032301684FF47A70B1FBF0F200FB121275
:1032F0000097F0787179543003F036FCB6F9180075
:103300001949484317490968B0FBF1F015490861AC
:103310004FF47A7190FBF1F20097B079062371793E
:103320001C3003F0D1FB71782E20CDE901710090A3
:10333000BAF800301AE000001D000020C400002090
:1033400032020020340200206C020020B7B5BBD846
:1033500000000000BFAACABC00000000C7E5C1E32E
:10336000000000008004002040420F00B079B9F84E
:10337000002071794C3003F0FBFAFE480323016909
:103380004FF47A7091FBF0F200FB12120097B079C3
:103390007179543003F0E8FBE7E0012A04D0032BF5
:1033A00008D0022B2AD0E0E030623063F16A401A84
:1033B000F063DAE006980028EED03573A9F80080B3
:1033C000AAF800B0EB48099A02620598B0FBF2F146
:1033D000E8488162092300970C99049803F074FB74
:1033E000E4480923816A42F2107091FBF0F20097E1
:1033F000B0793179213003F067FBB6E0317C491CAC
:1034000031747065B1E0012AC6D1A9F80080AAF82C
:1034100000B0316A401AD74948604FF47A71B0FB66
:10342000F1F20B990898009701440623079803F0DE
:103430004BFB71782E20CDE9017100907079B17845
:10344000BAF800300144F078B9F800204C3003F0AD
:103450008FFAC848032341684FF47A70B1FBF0F249
:1034600000FB121200977079B1780144F078543063
:1034700003F07AFBB6F91800BF494843BD494968D3
:10348000B0FBF1F0BB4948614FF47A7190FBF1F267
:1034900000977079B17806230144B0791C3003F0AD
:1034A00013FB71782E20CDE9017100907079B1780D
:1034B000BAF800300144B079B9F800204C3003F07C
:1034C00057FAAC48032341694FF47A7091FBF0F24C
:1034D00000FB121200977079B1780144B079543032
:1034E00003F042FBA5480078032886D10097707945
:1034F000B178092300EB4101F078F26B1C3003F046
:10350000E3FA9C4BD3E90410421A002A01DC8842FA
:1035100048D14FF47A704243F06B9649B2FBF0F019
:103520000863496B9648814220D2CDE9017520207D
:1035300000907079B178BAF8003000EB4101B079B1
:10354000B9F800201C3003F013FA8A480823016BF5
:1035500042F21070B1FBF0F200977079B17800EB95
:103560004101B079243003F0AFFA8AE3CDE9017567
:10357000202000907079B178BAF8003000EB41015A
:10358000B079B9F800201C3003F0F2F90097707997
:10359000B178082300EB4101B079794A243003F077
:1035A00093FA6EE3081A4FF47A714843F16B714A4B
:1035B000B0FBF1F010637249884220D2CDE9017569
:1035C0002D2000907079B178BAF8003000EB4101FD
:1035D000B079B9F800201C3003F0CAF96548082317
:1035E000016B42F21070B1FBF0F200977079B17884
:1035F00000EB4101B079243003F066FA41E3CDE9F4
:1036000001752D2000907079B178BAF8003000EB88
:103610004101B079B9F800201C3003F0A9F90097F6
:103620007079B178082300EB4101B079544A243015
:1036300003F04AFA25E3012A04D0032B05D0022B1C
:1036400008D01EE3706270631BE301213173706266
:10365000B06416E3717C491C7174B06511E3012AF2
:103660009FD1A9F80080AAF800B04248039A82606E
:10367000032B6BD04FF47A70B2FBF0F20B990898E1
:10368000009700EB41010623079803F01DFA7178BB
:103690002E20CDE9017100907079B178BAF8003030
:1036A00000EB4101F078B9F800204C3003F060F9EC
:1036B0003048032381684FF47A70B1FBF0F200FBCD
:1036C000121200977079B17800EB4101F078543014
:1036D00003F04AFAB6F91800274948432549896892
:1036E000B0FBF1F0234988614FF47A7190FBF1F25D
:1036F00000977079B178062300EB4101B0791C3056
:1037000003F0E2F971782E20CDE901710090707913
:10371000B178BAF8003000EB4101B079B9F8002077
:103720004C3003F025F91348032381694FF47A7074
:1037300091FBF0F200FB121200977079B17800EB68
:103740004101B079543003F00FFA9AE2BEFBF2F374
:103750000848836109230097079803F0B5F90548E5
:10376000816942F2107091FBF0F20097B07800EBA3
:10377000400007E08004002040420F001D000020B0
:103780009F860100717909230144B0791C3003F050
:103790009BF976E2012A04D0032B08D0022B75D0C6
:1037A0006FE2B062B063716B401A306469E20698F0
:1037B0000028CAD03573A9F80080AAF800B0FE48E6
:1037C000039A42620598B0FBF2F1FB48C162009790
:1037D000DDE90B1000EB41010923049803F074F9B3
:1037E000F5480923C16A42F2107091FBF0F200978C
:1037F0003079B17800EB4101B079213003F064F900
:10380000EE4800780328A0D1D6E91110421AF264DC
:1038100000973179F07809238031213003F054F991
:10382000E54BD3E90A010A1A002A01DC81424AD198
:103830004FF47A704243F06CDF49B2FBF0F08863DA
:10384000DF4900E0A2E3884221D2CDE901752020C2
:1038500000903079B178BAF8003000EB8101B0798E
:10386000B9F80020213003F083F8D3480823816B96
:1038700042F21070B1FBF0F200973079B17800EBB2
:103880008101B079293003F01FF9FAE168E0CDE950
:103890000175202000903079B178BAF8003000EB43
:1038A0008101B079B9F80020213003F061F8009768
:1038B0003079B178082300EB8101B079C04A293012
:1038C00003F002F9DDE1401A4FF47A714843F16CDC
:1038D000B94AB0FBF1F09063B949884220D2CDE9F2
:1038E00001752D2000903079B178BAF8003000EBE6
:1038F0008101B079B9F80020213003F039F8AE48E1
:103900000823816B42F21070B1FBF0F2009730791E
:10391000B17800EB8101B079293003F0D5F8B0E13E
:10392000CDE901752D2000903079B178BAF80030DA
:1039300000EB8101B079B9F80020213003F018F8CC
:1039400000973079B17800EB810102E00DE059E198
:1039500078E1B07908239A4A293003F0B5F890E16C
:10396000B17C491CB174F0658BE1012A8DD1A9F8B5
:103970000080AAF800B0B26A821A8F48C260032B96
:103980006CD04FF47A70B2FBF0F2062300970798E0
:1039900003F09AF871782E20CDE901710090B0788B
:1039A000717900EB40000144F078BAF80030B9F8C2
:1039B00000204C3002F0DCFF7F480323C1684FF445
:1039C0007A70B1FBF0F200FB12120097B0787179B7
:1039D00000EB40000144F078543003F0C5F8B6F92C
:1039E0001800784948437449C968B0FBF1F072493E
:1039F000C8614FF47A7190FBF1F20097B078717959
:103A000000EB40000144B07906231C3003F05CF861
:103A100071782E20CDE901710090B078717900EBBA
:103A200040000144B079BAF80030B9F800204C30B9
:103A300002F09EFF60480323C1694FF47A7091FB46
:103A4000F0F200FB12120097B078717900EB4000A1
:103A50000144B079543003F087F812E1BEFBF2F173
:103A60005548C1610B990898009700EB8101092323
:103A7000079803F029F850480923C16942F21070F1
:103A800091FBF0F200977079B17800EB8101B07989
:103A90001C3003F019F80097B078717900EB8000C2
:103AA0000144F07809231C30326C03F00DF84248D1
:103AB0004149C0698969421A002A01DC88424BD118
:103AC0004FF47A704243306C3B49B2FBF0F04863EC
:103AD0003B49884222D2CDE9017520200090B07880
:103AE000717900EB80000144B079BAF80030B9F880
:103AF00000201C3002F03CFF2F480823416B42F2AB
:103B00001070B1FBF0F20097B078717900EB800093
:103B10000144B079243002F0D7FFB2E0CDE901755D
:103B200020200090B078717900EB80000144B079DA
:103B3000BAF80030B9F800201C3002F019FF0097E5
:103B4000B078717900EB80000144B07908231C4AF9
:103B5000243002F0B9FF94E0081A4FF47A71484318
:103B6000316C154AB0FBF1F05063154988422BD2F5
:103B7000CDE901752D200090B078717900EB8000BF
:103B80000144B079BAF80030B9F800201C3002F0D6
:103B9000EFFE09480823416B42F21070B1FBF0F2CE
:103BA0000097B078717900EB80000144B07924303F
:103BB00002F08AFF65E00000800400201D00002064
:103BC0009F86010040420F00CDE901752D20009035
:103BD000B078717900EB80000144B079BAF8003018
:103BE000B9F800201C3002F0C3FE0097B07871795C
:103BF00000EB80000144B0790823FD4A243002F034
:103C000063FF3EE00120707302F080FBF5633564D2
:103C1000F56435657565B565F565F5733574757469
:103C2000B574F448CDF800804FF4B97240882C2167
:103C30001E3883B2F0781E3880B202F076FDFEF7AF
:103C4000B5F81EE00220707302F060FBF563356486
:103C5000F56435657565B565F565F5733574757429
:103C6000B574E448CDF800804FF4B97240882C2137
:103C70001E3883B2F0781E3880B202F056FDFEF78F
:103C800095F8F07B317C884277D1D6E914108842D0
:103C900075D9A9F80080AAF800B0A0EB0100D649B8
:103CA0000862B6F91A10D54A01FB02F1B1FBF0F235
:103CB000D1498A624FF47A71B0FBF1F20097F07843
:103CC0004FF00603317900F1210002F0FDFE71781A
:103CD0002E20CDE901710090F078BAF80030B9F8E3
:103CE00000203179513002F043FEC3480323016ABA
:103CF0004FF47A70B1FBF0F200FB12120097F078EB
:103D00003179593002F030FFB07BB8B3CDE901759D
:103D10002D200090B079BAF80030B9F80020317940
:103D2000213002F025FEB4480523816A4FF47A70F1
:103D300091FBF0F20097B0793179293002F0C4FE9E
:103D400071782E20CDE901710090B079BAF8003079
:103D5000B9F800203179513002F00AFEA648032359
:103D6000816A4FF47A7091FBF0F200FB1212009717
:103D7000B0793179593002F0F7FE85E000E00DE0CE
:103D8000CDE9017520200090B079BAF80030B9F87B
:103D900000203179213002F0EBFDC4E774D2A9F89C
:103DA0000080AAF800B0A1EB000093490862B6F9C0
:103DB0001A10924A01FB02F1B1FBF0F28E498A62BD
:103DC0004FF47A71B0FBF1F20097F0784FF00603F0
:103DD000317900F1210002F077FE71782E20CDE9D3
:103DE00001710090F078BAF80030B9F8002031790C
:103DF000513002F0BDFD80480323016A4FF47A7010
:103E0000B1FBF0F200FB12120097F07831795930D3
:103E100002F0AAFEB07B01287ED0CDE901752D20ED
:103E20000090B079BAF80030B9F80020317921302B
:103E300002F09EFD70480523816A4FF47A7091FB71
:103E4000F0F20097B0793179293002F03DFE7178B7
:103E50002E20CDE901710090B079BAF80030B9F8A0
:103E600000203179513002F083FD63480323816AD9
:103E70004FF47A7091FBF0F200FB12120097B079C8
:103E80003179593002F070FE707CB17C88427DD16E
:103E9000D6E9161088427AD9A9F80080AAF800B0AD
:103EA000DFF85481A0EB0100C8F82400B6F91A101D
:103EB000524A01FB02F1B1FBF0F1C8F82C104FF4AB
:103EC0007A7BB0FBFBF200973079B1784FF00603B4
:103ED00000EB4101F07800F1210002F0F5FD71786E
:103EE0002E20CDE9017100903079B178BAF8003018
:103EF00000EB4101F078B9F80020513002F038FDB4
:103F0000D8F824000097B0FBFBF10BFB11023079CD
:103F1000B17800EB410100E04AE0F078032359302A
:103F200002F022FEB07B98B3CDE901752D20009000
:103F30003079B178BAF8003000EB4101B079B9F8C6
:103F40000020213002F014FDD8F82C00009790FBDF
:103F5000FBF23079B178052300EB4101B0792930CB
:103F600002F0B2FD71782E20CDE901710090307918
:103F7000B178BAF8003000EB4101B079B9F800200F
:103F8000513002F0F5FCD8F82C0002E0B8E037E040
:103F90001CE090FBFBF10BFB110200973079B1782C
:103FA000032300EB4101B079593002F0DDFDB0E0B0
:103FB000CDE9017520200090B079BAF80030B9F849
:103FC00000203179213002F0D3FC33E7CDE90175CF
:103FD000202000903079B178BAF8003000EB410130
:103FE000B079B9F80020213002F0C2FCACE7000043
:103FF0009F860100700400208004002040420F00D2
:104000007ED2A9F80080AAF800B0DFF88481A1EB85
:104010000000C8F82400B6F91A105E4A01FB02F14C
:10402000B1FBF0F1C8F82C104FF47A7BB0FBFBF237
:1040300000973079B1784FF0060300EB4101F0783A
:1040400000F1210002F040FD71782E20CDE90171D0
:1040500000903079B178BAF8003000EB4101F07887
:10406000B9F80020513002F083FCD8F82400009702
:10407000B0FBFBF10BFB11023079B178032300EBAD
:104080004101F078593002F06FFDB07B012844D037
:10409000CDE901752D2000903079B178BAF8003063
:1040A00000EB4101B079B9F80020213002F060FC4A
:1040B000D8F82C00009790FBFBF23079B1780523FB
:1040C00000EB4101B079293002F0FEFC71782E201E
:1040D000CDE9017100903079B178BAF8003000EB89
:1040E0004101B079B9F80020513002F041FCD8F814
:1040F0002C00009790FBFBF10BFB1102307900E0E4
:1041000007E0B178032300EB4101B079593002F0A8
:104110002BFD0DB02046BDE8F08FCDE901752020C4
:1041200000903079B178BAF8003000EB4101B079F5
:10413000B9F80020213002F01BFCB9E716491748F6
:10414000FCF769BD10B516A004F008FF0021BDE81A
:1041500010400846FEF77EBC10B514A004F0FEFE29
:104160004FF6FF7001F0E0FC02F0D0F81348012197
:1041700041730021C1630164C164817301654165BC
:104180008165C165C17301744174817410BD000003
:104190008004002040420F00C70DF00F372F0008A9
:1041A0006C6162325F696E69740D0A006C61623223
:1041B0005F636C6F73650D0A00000000C40000208F
:1041C00070B5FDF785FAFF49E7200880FE494FF6F4
:1041D000FF7008804FF4A07540F227162B46B422DA
:1041E00031466C2002F010FB4FF482742B462246BD
:1041F0003146B42002F008FB2B4631462046BDE88C
:1042000070404FF4A87202F0FFBA2DE9FE4FEF4C58
:104210004FF0E708CDF800800021228814230846DB
:1042200002F083FA1025EAA1CDE9001501204FF62E
:10423000FF7902901F234A460221002002F018FF56
:10424000CDF80090638822881421002002F06DFAD6
:10425000E54CE6A16078CDE900150290238A628AD8
:104260002821142002F08EFE6078E6A1CDE9001529
:104270000290238A628A28214FF4877002F082FE1E
:10428000DFF840A3AAF80090DFF83CB3ABF8008059
:104290006078E3A1CDE900150290238A628AE17873
:1042A000A07802F06FFE6078E8A1CDE900150290D9
:1042B000E0782179238A0144628AA07802F062FEC4
:1042C000E44E42F21077062330680095B0FBF7F217
:1042D000E07821790144A078403002F0F5FB607865
:1042E000DDA1CDE900150290E0782179238A01440F
:1042F000A078628A823002F045FE70680095B0FBBB
:10430000F7F2E078217906230144A078C23002F068
:10431000DBFB6078D2A1CDE900150290E07821792D
:10432000238A0144A078628A00F5827002F02AFE96
:10433000B0680095B0FBF7F2E078217906230144DC
:10434000A07800F5A27002F0BFFB6078C6A1CDE9AD
:1043500000150290E0782179238A00EB4101628AFE
:10436000A07802F00FFE6078B8A1CDE900150290A8
:104370002079E17800EB40000144238A628AA0782A
:1043800002F000FEF0680095B0FBF7F22079E178CA
:1043900000EB40000144A0780623403002F094FB7B
:1043A0006078ADA1CDE9001502902079E17800EBAD
:1043B00040000144A078238A628A823002F0E2FD44
:1043C00030690095B0FBF7F22079E17800EB40000E
:1043D0000144A0780623C23002F076FB6078A0A1E9
:1043E000CDE9001502902079E17800EB400001440E
:1043F000A078238A628A00F5827002F0C3FD70699A
:104400000095B0FBF7F22079E17800EB4000014421
:10441000A078062300F5A27002F056FB60789DA1FB
:10442000CDE90015029040F21116238A628A3146C6
:10443000E82002F0A7FD0095022394F909203146F7
:104440004FF4A47002F090FB607896A1CDE90015BE
:104450000290238A628A31464FF4AC7002F092FDDA
:10446000AAF800802079A27800EB4001E0780B18D0
:10447000153881B2501F253380B202F2791202F052
:10448000C3F9607889A1CDE900150290238A628A78
:104490003146A07802F076FD60788AA1CDE900155A
:1044A0000290238A628A56214FF4C87002F06AFD96
:1044B000217A4FF4C97051B1617885A2CDE9002508
:1044C0000291238A628A742102F05CFD09E061781E
:1044D00082A2CDE900250291238A628A742102F02A
:1044E00051FDFFF76DFE0026AAF8008006EBC6001E
:1044F000227800EB0617C2EB4700A63002EB470319
:1045000081B2C2F5D270B63302F5E27202F07CF9E4
:10451000607875A1CDE900150290A62000EB470157
:104520002078238AC0F5CA70E72202F02BFD761CA2
:10453000F6B2032ED8D32C4900202431CDE9001542
:1045400003464A4602904FF4987102F01BFDAAF808
:104550000080ABF800904FF4A07540F227162B4670
:10456000B42231466C2002F04FF94FF482742B468E
:1045700022463146B42002F047F903B02B463146BB
:104580002046BDE8F04F4FF4A87202F03DB92DE986
:10459000F05FFDF7BBF9554FDFF85491124C388AA4
:1045A0004FF00008A0F16D014FF0010A4FF494752F
:1045B0004FF4A076472903D2798AA94200D399E023
:1045C000A2E000003202002034020020700400202B
:1045D000B9E2B5E7BCC6CAB1CAFDD7D6CAB5D1E9FA
:1045E000CFB5CDB30000000078010020CAB5D1E9F5
:1045F00034A3BAB2E2C1BFC5F6D7B2D6D0B5C4B6FD
:10460000AFC1BF00CFB5CDB3BCC6CAB1CAB1BCE45F
:104610003A202020202020202020206D2073000020
:10462000BEADB9FDB9E2B5E7B4ABB8D0C6F7B5C415
:104630003132B5C4CBB2CAB1CBD9B6C85631323A91
:1046400028B5A5CEBB3A206D2F732900B5DA32B458
:10465000CE3A000034040020B5DA31B4CE3A00007E
:10466000B5DA33B4CE3A0000BEADB9FDB9E2B5E774
:10467000B4ABB8D0C6F7B5C43334B5C4CBB2CAB145
:10468000CBD9B6C85633343A28B5A5CEBB3A206D3F
:104690002F732900B4ABB8D0C6F7BEE0C0EBA3BA05
:1046A00000000000206D206D00000000B0B4BCFCD4
:1046B0004B45595F30C7D0BBBBCBD9B6C8B7BDCF10
:1046C000F2000000CBD9B6C8B7BDCFF2A3BA000044
:1046D00034333231CEAAD5FD0000000031323334FC
:1046E000CEAAD5FD00000000F7CE00003C0200205D
:1046F00000802342B14207D2617929B184F8058054
:104700000120FCF79DFA0EE06C280AD9B42808D2E3
:10471000788AA84205D3B04203D2D9F828010128EB
:1047200001D184F805A0388A4FF4827BA0F1B5014D
:104730004F290CD2798AA94209D3B14207D2A17973
:1047400029B184F806800220FCF77AFA0EE0B4283A
:104750000AD9584508D2788AA84205D3B04203D274
:10476000D9F82801012801D184F806A0388AA0F2DE
:1047700005114B290DD2798AA9420AD3B14208D238
:10478000E17931B184F80780BDE8F05F0420FCF7DF
:1047900057BA58450BD9B0F5A87F08D2788AA842F5
:1047A00005D3B04203D2D9F82801012801D184F8F9
:1047B00007A0BDE8F09FFF490020086048608860BE
:1047C000C86008614861FC498872C8720873487300
:1047D00007224A720872F949086070472DE9FE4FB6
:1047E0000646DFF8DC8398F80000042879D101221E
:1047F0000025F14F10244FF6FF7B012E24D03846C0
:1048000040F2111190F909004FF4A47C022E3FD020
:10481000042E51D048F210094FF4D27A802E61D084
:10482000B6F5807F6ED0402E7ED0E448B6F5801F6E
:1048300000687AD0B6F5001F78D0B6F5000F76D0B4
:10484000B6F5800F74D0AEE0B87B401CB873DA497F
:104850005FEAC0784FF4C97C48780B8A498A0BD04C
:104860003A72AFF29412CDE9002402900A46742104
:10487000604602F087FB96E03D72AFF2A012CDE9F0
:10488000002402900A467421604602F07BFB8AE015
:10489000401E40B27872002800DA7D72C948A0F844
:1048A00000B0C94AE72010800094022397F909203C
:1048B000604602F059F976E0401C40B278726328F5
:1048C00001DD63207872BF48A0F800B0BE4AE7203F
:1048D00010800094022397F90920604602F044F901
:1048E00061E00AE2FFF76CFC7878B8A1CDE900142A
:1048F00002904B465A46A621504602F043FB01F077
:1049000000FD50E001F002FD584601F00DF9FFF7FF
:1049100052FF00210846FFF778FC7878ADA1CDE979
:1049200000144B465A4604E009E019E021E029E072
:1049300031E00290D821504602F024FB33E0FFF72B
:104940003FFC7878A5A1CDE9001402904B465A4669
:104950004FF48571504602F015FB88F8005022E0B4
:104960007861B87A401CC0B2B87203281BD9BA72F9
:1049700019E0B861F87A401CC0B2F872032812D965
:10498000FA7210E0F861387B401CC0B2387303281B
:1049900009D93A7307E03862787B401CC0B278735B
:1049A000032800D97A738449824F4FF02008887A0F
:1049B000C97A4FF02D0942F2107A884227D17E4AF7
:1049C000D2E905C1614579D97E4B5A46A3F800B0BA
:1049D000DFF8F4E1E723AEF80030A1EB0C01DFF8DB
:1049E00004C2DFF8D4E1CCF820109EF909C04FF4DE
:1049F0007A7E0CFB0EFCBCFBF1F1DFF8E8C1CCF8D1
:104A00002810012804D002282DD0032857D047E1D0
:104A100039606948007A60B16748CDE90094029531
:104A2000C17890F804C080786144383001F0A0FF6C
:104A30000BE06148CDE900840295C17890F804C08C
:104A400080786144383001F093FF38680094B0FBFF
:104A5000FAF25948C1780379807819440623403026
:104A600002F032F81CE179605348007A60B1524894
:104A7000CDE900940295C17890F804C08078614433
:104A8000BA3001F075FF0BE04B48CDE90084029588
:104A9000C17890F804C080786144BA3001F068FFB2
:104AA00078680094B0FBFAF24348C17803798078C3
:104AB00019440623C23002F007F8F1E02DE0B96096
:104AC0003D48007A68B13C48CDE900940295C17830
:104AD00090F804C08078614400F59E7001F048FFB2
:104AE0000CE03548CDE900840295C17890F804C007
:104AF0008078614400F59E7001F03AFFB868009438
:104B0000B0FBFAF22C48C178037980781944062367
:104B100000F5A27001F0D8FFC2E02A4B5A46A3F874
:104B200000B0DFF8A4E0E723AEF80030ACEB010101
:104B3000DFF8B0C0DFF880E0CCF820109EF909C0A3
:104B40004FF47A7E0CFB0EFCBCFBF1F1DFF894C055
:104B5000CCF82810012804D0022848D0032872D0AD
:104B60009EE039601448007A60B11348CDE90084B2
:104B70000295C17890F804C080786144383001F023
:104B8000F7FE0BE00C48CDE900940295C17890F84F
:104B900004C080786144383001F0EAFE386800943F
:104BA000B0FBFAF20448C1780379807819440623EF
:104BB000403019E034040020780100206C0200200D
:104BC0001D0000203202002034020020BFAACABC0F
:104BD00000000000C7E5C1E300000000B7B5BBD886
:104BE000000000008004002001F06EFF58E07960B2
:104BF000EF48007A60B1EE48CDE900840295C178B3
:104C000090F804C080786144BA3001F0B1FE0BE046
:104C1000E748CDE900940295C17890F804C0807807
:104C20006144BA3001F0A4FE78680094B0FBFAF257
:104C3000DF48C1780379807819440623C23001F037
:104C400043FF2DE0FFE7B960D948007A68B1D84842
:104C5000CDE900840295C17890F804C08078614461
:104C600000F59E7001F084FE0CE0D148CDE900947F
:104C70000295C17890F804C08078614400F59E7078
:104C800001F076FEB8680094B0FBFAF2C848C37829
:104C9000017980781944062300F5A27001F014FF11
:104CA000DFF80CE39EF80C009EF80D10884224D12A
:104CB000DEE907C161457DD9BE4B5A46A3F800B075
:104CC000DFF8F4B2E723ABF80030A1EB0C01DFF81A
:104CD000ECC2CCF824109EF909C04FF47A7B0CFB8F
:104CE0000BFCBCFBF1F1DFF8D4C2CCF82C1001288E
:104CF00004D0022831D0032860D042E1BB46F960DD
:104D00009EF80800774660B1CDE9009402953879A5
:104D1000F97800EB40000144B878383001F028FE03
:104D20000BE0CDE9008402953879F97800EB40007A
:104D30000144B878383001F01BFEDBF80C00009419
:104D4000B0FBFAF23879F97800EB40000144B8780A
:104D50000623403001F0B8FE13E1BB4639619EF8EE
:104D60000800774660B1CDE9009402953879F9786A
:104D700000EB40000144B878BA3001F0F9FD0BE0D7
:104D8000CDE9008402953879F97800EB40000144C0
:104D9000B878BA3001F0ECFDDBF810000094B0FBFD
:104DA000FAF23879F97800EB40000144B87806232C
:104DB000C23000E034E001F087FEE2E0BB467961FA
:104DC0009EF80800774668B1CDE9009402953879DD
:104DD000F97800EB40000144B87800F59E7001F0CE
:104DE000C7FD0CE0CDE9008402953879F97800EB35
:104DF00040000144B87800F59E7001F0B9FDDBF881
:104E000014000094B0FBFAF23879F97800EB400016
:104E10000144B878062300F5A27001F055FEB0E019
:104E2000644B5A46A3F800B0DFF88CB1E723ABF827
:104E30000030ACEB0101DFF884C1CCF824109EF9FE
:104E400009C04FF47A7B0CFB0BFCBCFBF1F1DFF8E3
:104E50006CC1CCF82C10012804D0022831D00328D2
:104E60005ED08EE0BB46F9609EF80800774660B1E0
:104E7000CDE9008402953879F97800EB40000144CF
:104E8000B878383001F074FD0BE0CDE9009402955C
:104E90003879F97800EB40000144B878383001F0F7
:104EA00067FDDBF80C000094B0FBFAF23879F97872
:104EB00000EB40000144B8780623403001F004FEC6
:104EC0005FE0BB4639619EF80800774660B1CDE9E6
:104ED000008402953879F97800EB40000144B878F5
:104EE000BA3001F045FD0BE0CDE900940295387928
:104EF000F97800EB40000144B878BA3001F038FD91
:104F0000DBF810000094B0FBFAF23879F97800EB86
:104F100040000144B8780623C23001F0D5FD30E0EE
:104F2000BB4679619EF80800774668B1CDE90084F8
:104F300002953879F97800EB40000144B87800F523
:104F40009E7001F015FD0CE0CDE9009402953879D2
:104F5000F97800EB40000144B87800F59E7001F04C
:104F600007FDDBF814000094B0FBFAF23879F97809
:104F700000EB40000144B878062300F5A27001F070
:104F8000A3FD3046BDE8FE8F0D49AFF2AF70FBF7D1
:104F900042BE00210846FFF738B910B54FF6FF7042
:104FA00000F0C2FD01F0B2F9BDE8104003E40000DA
:104FB000780100203202002034020020800400200A
:104FC000C701F00F10B5FCF783FBCE49E72008803E
:104FD000CD494FF6FF700880B422BDE810404FF471
:104FE000A07340F227116C2001F00EBC2DE9FE4F9A
:104FF000C64C4FF0E708CDF800800021228814232A
:10500000084601F092FB1027C1A1CDE9001701204D
:105010004FF6FF7A02901F2352460221002002F031
:1050200027F8CDF800A0638822881421002001F021
:105030007CFBBD4EBDA17078CDE900170290B3880E
:10504000F2882821142001F09DFF7078BAA1CDE9E3
:1050500000170290B388F2887621912001F092FF28
:105060007078B7A1CDE900170290B388F2889D212E
:10507000912001F087FFFFF7A5FF0024DFF884925D
:105080004FF0A60BA9F8008004EBC400327800EBC7
:105090000415C2EB4500A63002EB450381B2C2F510
:1050A000D270B63302F5E27201F0AEFB7078A6A1C1
:1050B000CDE90017029030780BEB4501C0F5CA70BE
:1050C000B388E72201F05EFF641CE4B2032CD9D35D
:1050D00070789EA1CDE900170290B388F28840F263
:1050E0000111912001F04EFF8F4900200C31CDE9D4
:1050F00000170346524602904FF4987101F042FFA8
:10510000A9F800808048A0F800A003B0B422BDE850
:10511000F04F4FF4A07340F227116C2001F074BBE4
:1051200070B5FCF7F3FB8F4A7F4B4FF49474108AF1
:105130004FF4A075A0F16D0147290DD2518AA1420B
:105140000AD3A94208D2997831B100209870BDE8FD
:1051500070400120FBF774BD6C280AD9B42808D22E
:10516000508AA04205D3A84203D27F480068012894
:1051700001D10120987070BD2DE9FE4F0446DFF883
:10518000EC8198F8000005282DD10027664D012CF0
:105190002AD0102648F210094FF6FF7A022C38D098
:1051A0004FF4857B042C45D0802C54D0B4F5807FFF
:1051B00062D0402C75D028468068401CB4F5801F12
:1051C0006DD0B4F1807F0ED0B4F5001F7ED0B4F165
:1051D000007F08D0B4F5000F7AD0B4F1006F7AD018
:1051E000B4F5800F76D076E0E878401CE870604D2A
:1051F000C0074FF0804205D00021104603F0D9FBD4
:105200002F7068E00121104603F0D3FB01202870C5
:1052100061E0FFF7D7FE687856A1CDE9001602904D
:105220004B465246A6214FF4D27001F0ABFE01F07E
:1052300068F850E0FFF7C6FE687850A1CDE9001687
:1052400002904B46524659464FF4D27001F09AFEF6
:1052500088F800703FE0FFF7B5FE687845A1CDE91A
:10526000001602904B465246A6214FF4D27001F030
:1052700089FE01F046F82EE0FFF7A4FE687841A110
:10528000CDE9001602904B465246D8214FF4D27019
:1052900001F078FE01F03AF8AF601CE001E013E0A5
:1052A00014E0FFF78FFE687834A1CDE90016029074
:1052B0004B46524659464FF4D27001F063FE88F8CF
:1052C000007008E004E005E0A86004E0A86002E0E7
:1052D000A86000E0A8602046BDE8FE8F2B49AFF231
:1052E0006710FBF798BC002108467FE610B54FF623
:1052F000FF7000F019FC01F009F80B4900208860EC
:1053000010BD000032020020340200207004002092
:10531000B9E2B5E7BCC6CAB1CAFDD7D6CAB5D1E9AC
:10532000CFB5CDB300000000C8010020CAB5D1E957
:1053300035A3BABCC6CAFD00BCC6CAFDA3BA0000EC
:10534000BCC6CAB1A3BA0000F7CE0000B0B4BCFC22
:10535000204B45595F3020D4DDCDA3BACDBCCCD095
:10536000F80000003C020020288123421D0000209C
:1053700064020020BFAACABC00000000B7B5BBD8B9
:1053800000000000C7E5C1E300000000C701F00F06
:1053900070B5FCF79DF9F849E7200880F7494FF60A
:1053A000FF7008804FF4A07540F227162B46B422F8
:1053B00031466C2001F028FA4FF482742B462246C5
:1053C0003146B42001F020FA2B4631462046BDE894
:1053D00070404FF4A87201F017BA2DE9FE4FE84C67
:1053E000E7270097002122881423084601F09DF941
:1053F00001261025E3A08DE861004FF6FF7B1F23F7
:105400005A460221002001F033FECDF800B0638837
:1054100022881421002001F088F9E04CE0A1607896
:10542000CDE900150290238962892821142001F01A
:10543000A9FD6078E0A1CDE9001502902389628979
:105440005021A07801F09EFD6078E1A1CDE9001522
:105450000290238962898221A07801F093FD60780F
:10546000E1A1CDE90015029023896289B421A078D9
:1054700001F088FD6078E2A1CDE900150290A078E6
:10548000238962895021C83001F07CFD6078E2A157
:10549000CDE900150290A078238962898221C83065
:1054A00001F070FD6078DEA1CDE900150290A078D2
:1054B00023896289B421C83001F064FDDFF8B88225
:1054C000A8F800B0DFF8B492A9F80070DFF864A380
:1054D000AAF81C600095A078062332465021FF30C0
:1054E00001F0F2FA0095A07806238221FF30DAF865
:1054F000002001F0E9FAFFF74BFF0026A8F8007042
:1055000006EBC600227800EB061AC2EB4A00A63072
:1055100002EB4A0381B2C2F5D270B63302F5E272F1
:1055200001F072F96078C4A1CDE900150290A620BF
:1055300000EB4A0120782389C0F5CA70E72201F008
:1055400021FD761CF6B2032ED8D36078BBA1CDE93D
:10555000001502902389628940F21111A07801F0B0
:1055600011FD8E4900200C31CDE9001503465A4645
:1055700002904FF4987101F005FDA8F80070A9F8A9
:1055800000B04FF4A07540F227162B46B4223146E6
:105590006C2001F039F94FF482742B4622463146D3
:1055A000B42001F031F903B02B4631462046BDE866
:1055B000F04F4FF4A87201F027B92DE9F05FFCF726
:1055C000A5F9A44FDFF89092744C388A4FF0000888
:1055D000A0F16D014FF0010A4FF494754FF4A076DD
:1055E00047290CD2798AA94209D3B14207D2E1787E
:1055F00029B184F803800120FBF722FB0EE06C2820
:105600000AD9B42808D2788AA84205D3B04203D276
:10561000D9F82801012801D184F803A0388A4FF471
:10562000827BA0F1B5014F290CD2798AA94209D316
:10563000B14207D2217929B184F804800220FBF716
:10564000FFFA0EE0B4280AD9584508D2788AA84251
:1056500005D3B04203D2D9F82801012801D184F83A
:1056600004A0388AA0F205114B290DD2798AA942EB
:105670000AD3B14208D2617931B184F80580BDE81E
:10568000F05F0420FBF7DCBA58450BD9B0F5A87FD2
:1056900008D2788AA84205D3B04203D2D9F82801AB
:1056A000012801D184F805A0BDE8F09F2DE9FE4F47
:1056B0000446DFF8A8B19BF8000006282CD1374F2C
:1056C0004FF000094FF0010A012C26D03846594D01
:1056D0008078294AE723DFF8A4C01026FF30A98B81
:1056E0004FF6FF78022C2ED0042C3DD0802C3CD0DD
:1056F000B4F5807F3AD0402C39D028460068401C51
:10570000B4F5801F34D0B4F5001F32D0B4F5000FCB
:1057100030D0B4F5800F2ED0F9E0B879401CB871C4
:10572000C1074F484FF0804206D080F8009000211A
:10573000104603F03EF9EAE080F800A0012110468F
:1057400003F037F9E3E0491E89B2A98309B9A5F846
:105750001CA0A2F80080ACF800300096AA8B0623AB
:10576000502101F0B1F9D2E07CE089E09AE0B4E0A8
:10577000C6E0C7E0C8E0C9E03202002034020020E1
:1057800070040020B9E2B5E7BCC6CAB1CAFDD7D6DD
:10579000CAB5D1E9CFB5CDB300000000FA010020B1
:1057A000CAB5D1E936A3BAB2E2C1BFD6DCC6DABA0D
:1057B000CDC6B5C2CA000000F7CECAB1BCE42074A1
:1057C0003D2020202020202020202020206D73003C
:1057D000F7CED6DCC6DA20543D2020202020202021
:1057E00020202020206D7300F7CEC6B5C2CA2066E7
:1057F0003D202020202020202020202020487A002A
:10580000F7CEB4A5B7A22020202020202020B4CE9F
:10581000CEAA31D6DCC6DA00F7CEB4CECAFD00007F
:10582000F7CED6DCC6DACAFDA3BA2020202020207D
:105830002000000050040020F7CE0000B0B4BCFCF3
:10584000204B45595F3020D4DDCDA3BACDBCCCD0A0
:10585000F80000003C020020008023421D000020D0
:1058600064020020491C89B2A983A2F80080ACF828
:1058700000300A4606235021009601F025F946E043
:10588000FFF786FD78782EA1CDE90016029048F248
:1058900010034246A6214FF4D27001F073FB00F0D2
:1058A00030FD34E0404600F03FF900210846FFF7A4
:1058B00094FD787824A1CDE90016029048F21003F7
:1058C0004246D8214FF4D27001F05CFBC5F800903D
:1058D000A5F81CA000F01AFD19E0FFF759FD787833
:1058E0001BA1CDE90016029048F2100342464FF486
:1058F00085714FF4D27001F045FB8BF8009006E003
:10590000286004E0286002E0286000E0286020466B
:10591000BDE8FE8F1049AFF26B20FBF77CB9002188
:1059200008465AE510B54FF6FF7000F0FDF800F09C
:10593000EDFC0A48002101600121818310BD0000B7
:10594000BFAACABC00000000C7E5C1E30000000018
:10595000B7B5BBD800000000C701F00F500400200D
:1059600008B50121442001F074FF1820ADF80000B3
:1059700048208DF803006946324801F064FD01209B
:10598000ADF8000028208DF8030069462E4801F08C
:105990005AFD2EA003F0E2FA08BD2DE9F0410127DF
:1059A0002D4C002800D027702078274E254D78B147
:1059B0001021284601F0A2FDF8B10821284601F087
:1059C0009DFDD0B10121304601F098FD012814D091
:1059D0001021284601F092FD01280CD1082128460B
:1059E00001F08CFD012806D10121304601F086FD31
:1059F000002800D12770BDE8F081184801690A200D
:105A00008847002020701021284601F077FD78B1EA
:105A10000821284601F072FD78B10121304601F0DD
:105A20006DFD0128E7D1BDE8F0410420FBF708B97E
:105A3000BDE8F0410120FBF703B9BDE8F0410220C9
:105A4000FBF7FEB800180140000801406B657920A3
:105A5000696E69740D0A0000310200200800002000
:105A6000F64908807047F549891C08807047FAE7B5
:105A7000F24A1080901C01807047F1480089EFE7DE
:105A800010B502460B46EE4C6089FFF7E9FF100A9D
:105A9000FFF7E9FFD0B2FFF7E6FF521C100AFFF74D
:105AA000E2FF90B2FFF7DFFFA089FFF7D9FF180AE6
:105AB000FFF7D9FFD8B2FFF7D6FF5B1C180AFFF734
:105AC000D2FF98B2FFF7CFFFBDE81040D5E700B591
:105AD000FFF7D6FFDB4800885DF804EBC3E770B53D
