:020000042000DA
:10100000A0DA0020CD820020D5820020D7820020E7
:10101000D9820020DB820020DD8200200000000059
:10102000000000000000000000000000DF8200203F
:10103000E182002000000000E3820020E582002021
:10104000E7820020E7820020E7820020E78200207C
:10105000E7820020E7820020E7820020E78200206C
:10106000C5740020F17400201D750020E782002067
:10107000E7820020E7820020E7820020E78200204C
:10108000E7820020E7820020E7820020E78200203C
:10109000E7820020E7820020E782002049750020D7
:1010A000E7820020E7820020E7820020E78200201C
:1010B000D7750020E7820020DF760020E78200203D
:1010C000E7820020E7820020E7820020E7820020FC
:1010D000E7820020E7820020E7820020E7820020EC
:1010E000E7820020E7820020E7820020E7820020DC
:1010F000E7820020E7820020E7820020E7820020CC
:10110000E7820020E7820020E7820020E7820020BB
:10111000E7820020E7820020E7820020E7820020AB
:10112000E7820020E7820020E7820020E78200209B
:1011300000F002F800F05AF80AA090E8000C82448F
:101140008344AAF10107DA4501D100F04FF8AFF26C
:10115000090EBAE80F0013F0010F18BFFB1A43F095
:101160000103184758B6000078B600000A444FF053
:10117000000C10F8013B13F0070408BF10F8014BF6
:101180001D1108BF10F8015B641E05D010F8016B3B
:10119000641E01F8016BF9D113F0080F1EBF10F89F
:1011A000014BAD1C0C1B09D16D1E58BF01F801CBC2
:1011B000FAD505E014F8016B01F8016B6D1EF9D545
:1011C0009142D6D37047000000230024002500265A
:1011D000103A28BF78C1FBD8520728BF30C148BF9A
:1011E0000B6070471FB51FBD10B510BD08F066FF3E
:1011F0001146FFF7F7FF00F009F808F084FF03B489
:10120000FFF7F2FF03BC08F08BFF00000EB50024CF
:10121000012700F044FB00F0CDF94FF4A06007F087
:1012200075F805F031FD06F097F806F0F9F847215A
:1012300040F2E73006F0A6F9472140F2E73006F029
:10124000DAF941F61F41632006F01CFA06F028F88F
:1012500005F084FB00F0A4FB00F016FA00F022FA7F
:101260000020C6490860C648C649086085E117B134
:10127000601C84B201E0601E84B2B4F5967F00DD8C
:10128000002704B901272146BF4808F08BFE002043
:1012900005F07EFBBD48006818B10120BC4908601C
:1012A00002E00020BA490860BA480078012835D128
:1012B0004FF6FF70B8490880E720B8490880102031
:1012C0000090B7480C2360210268D22006F046FC4B
:1012D00010200090B2480C2392214268D22006F0E0
:1012E0003DFC10200090AE480C23C4218268D2201F
:1012F00006F034FC10200090A9480C23F621C268A7
:10130000D22006F02BFC1020092300909B482821B6
:1013100002684FF4BC7006F021FC19E19D4800788A
:10132000022811D14FF6FF709B490880E7209B49A6
:1013300008801020092300909048162102684FF47D
:10134000BC7006F00BFC03E192480078032811D131
:101350004FF6FF7090490880E720904908801020E0
:10136000092300908548162102684FF4BC7006F0EE
:10137000F5FBEDE087480078042811D14FF6FF70A7
:1013800085490880E72085490880102009230090BE
:101390007A48282102684FF4BC7006F0DFFBD7E0E2
:1013A0007C48007805283ED1BE259626E7207A495C
:1013B00008804FF6FF707949088020200090A6F140
:1013C000280081B2072377480268284606F09DFC72
:1013D0006A4800684FF47A71B0FBF1F820200323CB
:1013E000424631460090284606F08FFC0B200090C4
:1013F0006A48038868480288314605F1300006F0E3
:1014000055FC5E4800684FF47A71B0FBF1F201FBC5
:1014100012082020032342463146009005F1400087
:1014200006F073FC94E05B48007806288BD14FF6F9
:10143000FF7059490880E720584908804F480068E4
:10144000594908610846006818B9084600684860AC
:1014500008E055480068401E5349898AB0FBF1F006
:1014600051494860504800694F494968B0FBF1F064
:101470004D498860084680684C49B1FBF0F04A4904
:10148000C860102000900846062350214268484852
:101490000078403006F062FB10200090424806239E
:1014A0008221026942480078403006F057FB102044
:1014B00000903D480623B42182683D4800784030C2
:1014C00006F04CFB3848C0686421B0FBF1F51020F1
:1014D00003232A46E621009035480078403006F084
:1014E0003DFB002010212E22CDE9002102902B4847
:1014F000038829480288E6212D480078583006F0F4
:101500005BFA2948C0686421B0FBF1F201FB1205C7
:10151000102002232A46E6210090254800786030FA
:1015200006F070FB102000901F48828A062350218D
:101530001F480078EB3006F011FB102000901A488D
:101540000623822102681A480078EB3006F006FB79
:10155000E7201149088000234FF4F072194618461D
:1015600006F014F901234FF4F0721946002006F03A
:101570000DF94FF6FF700849088078E618D2002070
:101580000010002008ED00E0000400402881234204
:101590009401234207D00020E2D10020E4D10020B2
:1015A00000D40020A4D10020D8D30020A0860100C0
:1015B00000D0002010B56FF0040006F0F6FE2E48B3
:1015C00000682E49B0FBF1F02D49087008460078FC
:1015D00000EB4001C1EBC0104FF6FF7101EAC00003
:1015E0002849088010BD0146254A12784A434FF029
:1015F000E0235A6100229A611A46126942F0010200
:101600001A6100BF4FF0E022106900F001021AB128
:1016100000F48032002AF5D04FF0E022126922F067
:1016200001024FF0E0231A6100229A6170470146DF
:10163000144A12884A434FF0E0235A6100229A610B
:101640001A46126942F001021A6100BF4FF0E0220F
:10165000106900F001021AB100F48032002AF5D0BE
:101660004FF0E022126922F001024FF0E0231A61EC
:1016700000229A617047000008D0002000127A0012
:1016800002D0002004D0002010B501F04FF901F085
:101690005DFD03F063F804F0C9FA04F093FD05F072
:1016A00020F910BD002043490870704710B504466A
:1016B00041480078844200D110BD3F4800780A2894
:1016C0001ED2DFE800F005080B0E1114171A1B1CC0
:1016D00001F039F914E001F046FD11E003F04BF898
:1016E0000EE003F048F80BE004F0ADFA08E004F077
:1016F00076FD05E005F002F902E001E000E000BF40
:1017000000BF0A2C1ED2DFE804F005080B0E1114EE
:10171000171A1B1C01F011F914E001F01EFD11E075
:1017200003F023F80EE003F020F80BE004F085FA54
:1017300008E004F04EFD05E005F0DAF802E001E013
:1017400000E000BF00BF1C48047000BFB4E710B544
:10175000184800780A281ED2DFE800F005080B0EB2
:101760001114171A1B1C00F010FD14E001F0B1FA5F
:1017700011E002F0AAFA0EE002F0A7FA0BE003F083
:101780004CFB08E004F03EFB05E004F099FE02E0AB
:1017900001E000E000BF00BF10BD10B50748416880
:1017A0000020884703480078FFF780FFFFF7CFFF4E
:1017B00010BD000007D0002006D00020E8D1002096
:1017C0000CB50020019000906C48006840F4803017
:1017D0006A49086000BF6948006800F40030009062
:1017E0000198401C0190009818B90198B0F5A06FBD
:1017F000F1D16248006800F4003010B1012000907F
:1018000001E0002000900098012843D15C48006866
:1018100040F010005A4908600846006820F00300B4
:1018200008600846006840F00200086053484068BD
:10183000524948600846406848600846406840F49D
:10184000806048600846406820F47C104860084684
:10185000406840F4E81048600846006840F0807036
:10186000086000BF4548006800F000700028F9D00B
:101870004248406820F003004049486008464068FC
:1018800040F00200486000BF3C48406800F00C0097
:101890000828F9D10CBD10B5FFF792FF10BD10B5A7
:1018A0003648006840F00100344908600846406846
:1018B00034490840314948600846006832490840C8
:1018C0002E4908600846006820F480200860084619
:1018D000406820F4FE0048604FF41F008860FFF766
:1018E000DAFF4FF000602949086010BD10B50021F3
:1018F00000200022214B5B6803F00C0121B1042978
:1019000006D0082928D107E0214B224C236027E08C
:101910001F4B204C236023E0184B5B6803F47010CE
:10192000164B5B6803F48032022303EB904022B92C
:10193000194B4343174C23600DE0104B5B6803F4D5
:10194000003323B1144B4343124C236003E0104B8C
:101950004343104C236003E00D4B0E4C236000BF4B
:1019600000BF064B5B68C3F303130C4CE15C094BEF
:101970001B68CB40074C236010BD000000100240E4
:10198000002002400000FFF8FFFFF6FE08ED00E037
:1019900000127A0008D0002000093D000CD0002081
:1019A00010B54FF4C8711B4808F05EFB10BD10B5B0
:1019B0000246002011E0174B53F830305BB9154B4D
:1019C00043F8302003EBC0035960134B1B785B1CBA
:1019D000114C237010BD431CD8B23228EBDB00BF82
:1019E000F8E770B5054600240EE00A4800EBC40095
:1019F0004068284038B1074850F8341028468847D6
:101A0000054605B970BD641C034800788442ECDBD0
:101A100000BFF7E730D200201CD000200EB5F948F7
:101A200000781021F8A2CDE900210290FB4803883C
:101A3000FB480288FB480178FB48007806F040FB31
:101A4000F04800781021F9A2CDE900210290F54874
:101A50000078FB4A12788118F0480388F048028821
:101A6000F148007806F02CFBE64800781021F5A23A
:101A7000CDE900210290EB480078F14A1278104439
:101A8000EF4A12788118E5480388E5480288E6485D
:101A9000007806F015FBDB4800781021F1A2CDE9B3
:101AA00000210290DF480078E54A12781044E44AA9
:101AB00012781044E24A12788118D8480388D8482E
:101AC0000288D948007806F0FBFACE480078102149
:101AD000EAA2CDE900210290D2480078D84A1278D3
:101AE0001044D74A12781044D54A12781044D44A88
:101AF00012788118C9480388C9480288CA48007802
:101B000006F0DEFABF4800781021DFA2CDE90021FF
:101B10000290C4480078CA4A12781044C84A127821
:101B20001044C74A12781044C54A12781044C44A77
:101B300012788118B9480388B9480288BA480078F1
:101B400006F0BEFAAF4800781021D5A2CDE90021F9
:101B50000290B4480078BA4A12781044B84A127811
:101B60001044B74A12781044B54A12781044B44A67
:101B700012781044B24A12788118A84803884FF4AA
:101B800078424FF4D27006F09BFA0EBD2DE9FE4369
:101B900005460E46E7200090C34802881423002122
:101BA000084605F0BFFD01201021C0A21F23CDE98A
:101BB000002102904FF6FF720221002006F004FB84
:101BC00001200C21BF4A0023CDE9002102904FF6ED
:101BD000FF7208214FF4C87006F072FA4FF6FF70DA
:101BE0000090B1484088143883B2AF48028814216D
:101BF000002005F097FDFFF711FF002454E0E720D7
:101C0000B1490880874F3F78DFF834C29CF800C0A4
:101C10000CFB0477DFF8B4C29CF800C067441037AF
:101C2000BBB2AB4F17F804C07F4F3F7838374FF047
:101C3000100808FB0C77DFF894C29CF800C007EB93
:101C40000C02784F3F78DFF8F8C19CF800C00CFB1D
:101C50000477DFF878C29CF800C0A7EB0C07B9B294
:101C6000714F3F78DFF864C29CF800C0A7EB0C0707
:101C7000B8B205F0E3FD63480078102195A2CDE9E4
:101C800000210290674A12786D4B1B7804FB0322F7
:101C900091B2654A1278283A90B2604A1388E722D6
:101CA00006F00EFA601CC4B2062CA8DB644800786B
:101CB00000EB40005B4C247804EB4000834C24781C
:101CC000204400F110038148007800F5E2725C487E
:101CD000007800EB4000534C247804EB40007B4C30
:101CE0002478001B81B24FF4CD7005F0A7FD0020D1
:101CF0001021794A0346CDE9002102904FF6FF7288
:101D00004FF4987106F0DCF9012074490860BDE8D1
:101D1000FE833EB5044672480470FFF77FFE7048AC
:101D20000078012813D100206E49087035480078EA
:101D3000102135A2E723CDE9002102904FF6FF7272
:101D4000384801783848007806F0BAF948E1644824
:101D50000078022816D100206249087029480078CE
:101D6000102132A2CDE9002102902E480078344A99
:101D700012788118E7234FF6FF722B48007806F09F
:101D80009FF92DE156480078032819D100205549C4
:101D900008701C48007810212AA2CDE90021029089
:101DA00020480078264A12781044254A1278811873
:101DB000E7234FF6FF721C48007806F081F90FE127
:101DC0004748007804281CD10020464908700D4877
:101DD0000078102123A2CDE900210290114800785B
:101DE000174A12781044164A12781044144A12788E
:101DF0008118E7234FF6FF720B48007806F060F970
:101E0000EEE071E04CD00020CAB5D1E931A3BAB2FE
:101E1000E2C1BFB5B2B9E2CAB1BCE4004ED0002005
:101E200050D000204AD0002049D00020CAB5D1E9C6
:101E300032A3BAB2E2C1BFCBB2CAB1CBD9B6C800E5
:101E40004BD00020CAB5D1E933A3BAB2E2C1BFD4A6
:101E5000C8B1E4CBD9D4CBB6AFB5C4BCD3CBD9B61B
:101E6000C8000000CAB5D1E934A3BAB2E2C1BFC507
:101E7000F6D7B2D6D0B5C4B6AFC1BF00CAB5D1E9A6
:101E800035A3BABCC6CAFD00CAB5D1E936A3BAB2F9
:101E9000E2C1BFD6DCC6DABACDC6B5C2CA00000000
:101EA000CDCBB3F600000000F0D30020B9E2B5E7D7
:101EB000BCC6CAB1CAFDD7D6CAB5D1E9CFB5CDB374
:101EC000000000001ED00020E2D1002052D00020EF
:101ED00053D00020F7CE00002AD00020808121427C
:101EE00059D0002065D00020FB480078052820D17B
:101EF0000020FA490870FA4800781021AFF28402F5
:101F0000CDE900210290F7480078F74A1278104492
:101F1000F54A12781044F44A12781044F24A1278C2
:101F20008118E7234FF6FF72F048007806F0C8F8F2
:101F300056E0E9480078062823D10020E7490870D8
:101F4000E74800781021AFF2C002CDE900210290ED
:101F5000E4480078E44A12781044E34A12781044C6
:101F6000E14A12781044E04A12781044DE4A1278AE
:101F70008118E7234FF6FF72DC48007806F0A0F8DE
:101F80002EE0D5480078082803D10020D3490870F6
:101F900026E0D1480078092822D1D14800781021C4
:101FA000AFF20412CDE900210290CE480078CE4A6B
:101FB00012781044CC4A12781044CB4A127810445C
:101FC000C94A12781044C84A12781044C64A127896
:101FD0008118E7234FF6FF724FF4D27006F070F8C5
:101FE000BD480078C249097888421AD1BA480078B9
:101FF000082803D0B8480078092810D1B6480078DE
:1020000009280ED1B5480078401CB449087008462C
:102010000078022805D1B748B749086001E0B74801
:102020000470AD480078B24908703EBD10B5044652
:10203000B248007800281DD1012C24D1B048007886
:10204000401E40B2AE490870084690F900000128D1
:1020500001DA01200870AA48007801280BD1A948AC
:102060000078002806D00020A6490870A449087806
:10207000FFF74FFE87E00120A2490870A0490878C9
:10208000FFF747FE7FE0022C0ED19D4890F900003B
:10209000002878DD9A4890F90000072873DA9849FB
:1020A0000878FFF736FE6EE0042C24D194480078BF
:1020B000401C40B292490870084690F9000006287A
:1020C00001DD062008708E48007806280BD18D4867
:1020D0000078002857D000208A490870884908787D
:1020E000FFF717FE4FE00120864908708449087801
:1020F000FFF70FFE47E0B4F5805F06D10120FFF740
:1021000008FE01207E4908703DE0B4F5005F06D16D
:102110000220FFF7FEFD02207949087033E0B4F594
:10212000804F06D10320FFF7F4FD032074490870A7
:1021300029E0B4F5004F06D10420FFF7EAFD0420A2
:102140006F4908701FE0B4F5803F06D10520FFF706
:10215000E0FD05206A49087015E0B4F5003F06D19E
:102160000620FFF7D6FD0620654908700BE0B4F5A0
:10217000802F03D10820FFF7CCFD04E0202C02D1F2
:102180000920FFF7C6FD204610BD10B5574800785E
:102190005D490978401A5D49098A88422DDA5B4811
:1021A000028A5B480178514800783830102303FBDD
:1021B000010055490978084482421EDA49490978E4
:1021C000084651490978401A5049498A884214DA28
:1021D0004E48418A434A127810464B4A12781044BE
:1021E0001030814209DA4B48007830B1002049496B
:1021F00008701802FFF7F5FB33E03C4800784249CD
:102200000978401A4149098A884227DA3F48028AF8
:102210003F480178354800783830102303FB01002F
:10222000394909780844824218DA2E490978084663
:1022300035490978401A3549498A88420EDA3348C7
:10224000418A284A127810462F4A127810441030DA
:10225000814203DA30480068012802D101202D496B
:1022600008702248007828490978401A2749098AC5
:10227000884256DA2548028A254841781B4800786A
:102280003830102303FB01001F49097808448242BB
:1022900047DA154800781349097808441A4909783B
:1022A000401A1A49498A88423BDA1848418A0E483E
:1022B00000780C4A12781044134A127810441030F7
:1022C00081422EDA1548007850B300201349087077
:1022D0005802FFF786FB5CE059D0002065D0002053
:1022E0004CD000204AD000204BD0002049D0002004
:1022F0005AD000200400FA050CED00E007D00020C1
:1023000063D0002064D0002052D00020E8D100200B
:1023100053D000205BD00020288123425CD00020D5
:10232000FFE7FE480078FE490978401AFD49098A0E
:1023300088422BDAFB48028AFB484178F74800784C
:102340003830102303FB0100F54909780844824224
:102350001CDAF6480078F64909780844F04909780B
:10236000401AF049498A884210DAEE48418AEF481B
:102370000078EF4A12781044E94A1278104410307D
:10238000814203DAEB480068012802D10120EA49C2
:102390000870E2480078E2490978401AE149098A60
:1023A000884233DADF48018ADF488278DB480078E8
:1023B0003830102303FB0200D94A127810448142BE
:1023C00024DADA480078DA49097801EB4000D44988
:1023D0000978401AD349498A884217DAD148418A94
:1023E000D2480078D24A127802EB4000CC4A1278E8
:1023F00010441030814209DAD048007830B1002012
:10240000CE4908709802FFF7ECFA39E0C34800782B
:10241000C3490978401AC349098A88422DDAC1485C
:10242000018AC1488278BD4800783830102303FB08
:102430000200BB4A1278104481421EDABB48007881
:10244000BB49097801EB4000B5490978401AB54904
:10245000498A884211DAB348418AB4480078B44ABC
:10246000127802EB4000AE4A1278104410308142DC
:1024700003DAB0480068012802D10120AF49087092
:10248000A6480078A6490978401AA649098A8842D0
:1024900035DAA448018AA448C278A04800783830C8
:1024A000102303FB02009E4A12781044814226DA70
:1024B0009E48007800EB40009D49097808449849FF
:1024C0000978401A9749498A884218DA9548418A1A
:1024D0009648007800EB4000954A12781044904AE4
:1024E000127810441030814209DA9548007830B1F2
:1024F000002093490870D802FFF773FA3BE0874841
:10250000007887490978401A8649098A88422FDA73
:102510008448028A8448C178804800783830102383
:1025200003FB01007E4909780844824220DA7F4893
:10253000007800EB40007E49097808447849097822
:10254000401A7849498A884212DA7648418A77489F
:10255000007800EB4000764A12781044704A1278F6
:1025600010441030814203DA72480068012802D119
:102570000120734908706948007869490978401A50
:102580006849098A884233DA6648028A66480179CE
:10259000624800783830102303FB01006049097855
:1025A0000844824224DA614800786149097801EBE5
:1025B00080005B490978401A5A49498A884217DAEB
:1025C0005848418A59480078594A127802EB8000ED
:1025D000534A127810441030814209DA5948007881
:1025E00030B10020574908701803FFF7FAF939E0B5
:1025F0004A4800784A490978401A4A49098A884273
:102600002DDA4848028A4848017944480078383031
:10261000102303FB010042490978084482421EDA74
:10262000424800784249097801EB80003C4909782A
:10263000401A3C49498A884211DA3A48418A3B4863
:1026400000783B4A127802EB8000354A1278104439
:102650001030814203DA37480068012802D1012096
:10266000384908702D4800782D490978401A2D49BD
:10267000098A884235DA2B48028A2B484179274853
:1026800000783830102303FB0100254909780844FD
:10269000824226DA2548007800EB80002449097838
:1026A00008441F490978401A1E49498A884218DAA5
:1026B0001C48418A1D48007800EB80001C4A1278B3
:1026C0001044174A127810441030814209DA1E482B
:1026D000007830B100201C4908705803FFF781F9D9
:1026E00054E00E4800780E490978401A0D49098ACD
:1026F000884248DA0B48028A0B484179074800783B
:102700003830102303FB0100054909780844824250
:1027100039DA0648007800EB800017E049D0002045
:1027200052D00020E8D1002053D000204BD0002010
:102730004AD00020288123425CD000205DD00020B8
:102740005ED000205FD0002060D000208F49097843
:1027500008448F490978401A8E49498A884212DA1A
:102760008C48418A8C48007800EB8000874A1278B8
:102770001044874A127810441030814203DA8748A7
:102780000068012802D10120854908708148008A2B
:10279000B0F5CD7F2FDD7F48018A7D48007800F5B8
:1027A000E270814227DA7C48007800EB80007749AC
:1027B0000978084476490978401A7649498A884256
:1027C00019DA7448418A7448007800EB80006F4A37
:1027D000127810446E4A12781044103081420ADA9E
:1027E0007048007838B100206E4908704FF480209E
:1027F000FFF7F7F830E06748008AB0F5CD7F28DDB5
:102800006448018A6248007800F5E270814220DA6B
:102810006148007800EB80005C49097808445C4915
:102820000978401A5B49498A884212DA5948418A34
:102830005948007800EB8000544A12781044544AFA
:10284000127810441030814203DA5448006801289D
:1028500002D10120534908704E48008AB0F5CD7F5F
:1028600030DD4C48018A4A48007800F5E270814228
:1028700028DA4948007800EB40004449097801EB28
:10288000400043490978401A4249498A884219DA86
:102890004048418A4048007800EB40003B4A1278AB
:1028A00002EB40003A4A127810441030814209DAB3
:1028B0003D48007830B100203B4908702020FFF7E8
:1028C00090F832E03348008AB0F5CD7F2ADD3148F8
:1028D000018A2F48007800F5E270814222DA2E4802
:1028E000007800EB40002949097801EB40002849B5
:1028F0000978401A2749498A884213DA2548418ACB
:102900002548007800EB4000204A127802EB400096
:102910001F4A127810441030814203DA1F480068C1
:10292000012802D101202049087010BD10B51F49AF
:10293000AFF60710FFF73BF810BD10B500210846B1
:10294000FFF724F910BD10B54FF6FF7004F0ECF856
:10295000012017490870174908701749087017496E
:102960000870174908700E4908700E4908700E4922
:1029700008700020134908700120134908700720CF
:10298000124908701249087010BD00004AD000209A
:1029900052D00020E8D100204BD0002028812342D3
:1029A00060D0002061D0002062D0002027F0070016
:1029B0005BD000205CD000205DD000205ED00020E5
:1029C0005FD0002063D0002064D0002059D00020C8
:1029D0005AD000200EB5FC4800781021FBA2CDE9AA
:1029E00000210290FB480388FB480288A6214FF48F
:1029F000D27005F065FBF44800781021F7A2CDE90C
:102A000000210290F3480388F3480288D8214FF44C
:102A1000D27005F055FBEC4800781021F1A2CDE909
:102A200000210290EB4803884FF478424FF48571FF
:102A30004FF4D27005F044FB0EBDFEB505460E46C0
:102A4000E7200090E948028814230021084604F09A
:102A500069FE01201021E6A21F23CDE9002102908A
:102A60004FF6FF720221002005F0AEFB4FF6FF701B
:102A70000090DE48438802881421002004F052FEB2
:102A8000D14800781021E0A2CDE900210290D14880
:102A90000388D14802882821142005F011FBCA4878
:102AA00000781021DDA2CDE900210290C9480388F9
:102AB000C948028828214FF4877005F001FBC248FD
:102AC00000781021DCA2CDE900210290C1480388E2
:102AD000C14802886021822005F0F2FABA480078E5
:102AE0001021D8A2CDE900210290BA480388BA4843
:102AF00002889221822005F0E3FAB3480078102181
:102B0000D3A2CDE900210290B2480388B2480288DE
:102B1000C421822005F0D4FAAB4800781021CFA25E
:102B2000CDE900210290AB480388AB480288F6212A
:102B3000822005F0C5FAA44800781021CAA2CDE988
:102B400000210290A3480388A348028860214FF423
:102B50009B7005F0B5FA9C4800781021C2A2CDE91F
:102B6000002102909B4803889B48028892214FF4E1
:102B70009B7005F0A5FA944800781021BAA2CDE91F
:102B8000002102909348038893480288C4214FF49F
:102B90009B7005F095FA8C4800781021B2A2CDE91F
:102BA000002102908B4803888B480288F6214FF45D
:102BB0009B7005F085FA844800781021AAA2CDE91F
:102BC000002102908348038883480288F6214FF44D
:102BD0009B7005F075FAE720A449088000241DE0E9
:102BE000322204FB02F000F1560304FB02F000F174
:102BF00056014FF4BC72502004F0C8FD322204FB91
:102C000002F000F17A0304FB02F000F17A014FF4C4
:102C1000BC72502004F0BAFD601CC4B2042CDFDB8F
:102C20004FF4887350225621104604F0AFFD4FF444
:102C300088734FF4BC725621104604F0A7FDFFF7CD
:102C4000C9FE002435E032276743A637DFF820C2EB
:102C50009CF800C067441037BBB2854F3F7807F53A
:102C6000E27232276743A637DFF804C29CF800C03F
:102C7000A7EB0C07B9B27E4F3F78C7F5D27004F0CE
:102C8000DDFD5148007810217AA23223CDE90021E0
:102C9000029004FB03F202F1A601754A1278C2F514
:102CA000CA7290B24B4A1388E72205F009FA601CF9
:102CB000C4B2032CC7DB002010216F4A0346CDE9C4
:102CC000002102904FF6FF724FF4987105F0F8F969
:102CD000FEBD10B566480078C0F5D2706749098A14
:102CE000884220DA6548018A6148007800F5E27080
:102CF000814218DA5E480078C0F1A6005F49498A2F
:102D0000884210DA5D48418A59480078B6308142DD
:102D100009DA5B48007830B10020594908708020FA
:102D2000FEF75FFE25E052480078C0F5D2705349A7
:102D3000098A88421ADA5148018A4D48007800F51C
:102D4000E270814212DA4A480078C0F1A6004B498D
:102D5000498A88420ADA4948418A45480078B630AB
:102D6000814203DA47480068012802D10120444922
:102D700008703F480078C0F5D2704049098A8842FF
:102D800021DA3E48018A3A48007800F5E270814233
:102D90007CDA37480078C0F1D8003849498A88423F
:102DA00074DA3648418A32480078E83081426DDA78
:102DB0003548007838B10020334908704FF48070EE
:102DC000FEF70FFE88E061E06DD00020BFAACABC0C
:102DD0000000000068D000206AD00020C7E5C1E3F1
:102DE00000000000B7B5BBD800000000F0D3002001
:102DF000B9E2B5E7BCC6CAB1CAFDD7D6CAB5D1E9F2
:102E0000CFB5CDB300000000CAB5D1E931A3BAB245
:102E1000E2C1BFB5B2B9E2CAB1BCE400CFB5CDB32F
:102E2000BCC6CAB1CAB1BCE43A2020202020202070
:102E30002020206D73000000B4ABB8D0C6F7313A43
:102E400000000000B4ABB8D0C6F7323A0000000072
:102E5000B4ABB8D0C6F7333A00000000B4ABB8D07A
:102E6000C6F7343A000000006D730000E2D1002084
:102E70006CD00020F7CE000080D00020E8D10020E8
:102E8000A5D0002028812342A6D00020BD4800788C
:102E9000C0F5D270BC49098A88421ADABA48018A58
:102EA000B848007800F5E270814212DAB54800783F
:102EB000C0F1D800B449498A88420ADAB248418A46
:102EC000B0480078E830814203DAB0480068012851
:102ED00002D10120AE490870AA480078C0F5D2702E
:102EE000A949098A884221DAA748018AA5480078B9
:102EF00000F5E270814219DAA2480078C0F58570C9
:102F0000A149498A884211DA9F48418A9D48007840
:102F100000F58D70814209DA9E48007830B10020BA
:102F20009C4908704020FEF75CFD26E0954800783B
:102F3000C0F5D2709449098A88421BDA9248018A06
:102F40009048007800F5E270814213DA8D480078ED
:102F5000C0F585708C49498A88420BDA8A48418AD3
:102F60008848007800F58D70814203DA8748006850
:102F7000012802D101208749087010BD3EB50446E2
:102F800085480078012818D1012C17D1FFF722FDC0
:102F9000824800781021AFF2B41248F21003CDE954
:102FA000002102904FF6FF724FF485714FF4D270FA
:102FB00005F086F8002078490870C5E0022C15D18C
:102FC000FFF708FD754800781021AFF2002248F2A3
:102FD0001003CDE9002102904FF6FF72A6214FF4B5
:102FE000D27005F06DF804F0F6F9ADE0042C15D1BF
:102FF000FFF7F0FC694800781021AFF2202248F278
:103000001003CDE9002102904FF6FF72D8214FF452
:10301000D27005F055F804F0E7F995E0802C15D151
:10302000FFF7D8FC5D4800781021AFF2602248F22B
:103030001003CDE9002102904FF6FF72A6214FF454
:10304000D27005F03DF804F0C6F97DE0B4F5807F5C
:1030500015D1FFF7BFFC514800781021AFF2842250
:1030600048F21003CDE9002102904FF6FF72D821FB
:103070004FF4D27005F024F804F0B6F964E0402C67
:1030800017D1FFF7A7FC454800781021AFF2AC221A
:1030900048F21003CDE9002102904FF6FF724FF481
:1030A00085714FF4D27005F00BF800203A49087092
:1030B0004AE0B4F5801F04D13948006839490860F6
:1030C00042E0B4F1807F07D135480068354909688E
:1030D000401A3549086037E0B4F5001F04D1304884
:1030E0000068324908602FE0B4F1007F07D12C4816
:1030F00000682E490968401A2B49486024E0B4F55D
:10310000000F04D126480068294908601CE0B4F18A
:10311000006F07D12248006825490968401A2249F2
:10312000886011E0B4F5800F04D11D480068214982
:10313000086009E0B4F1806F06D1194800681D49A4
:103140000968401A1849C86020463EBD10B51A49A2
:10315000AFF2D710FEF72BFC10BD10B500210846CA
:10316000FFF76BFC10BD10B54FF6FF7003F0DCFCF1
:1031700004F03AF9012007490870054908700F4921
:10318000087010BD6CD00020E8D1002028812342B7
:10319000A6D00020A7D0002007D000206DD00020AE
:1031A00018D2002070D0002000D4002074D000205D
:1031B00078D000207CD00020C701F00FA5D00020DF
:1031C00000B585B0FFF706FC4FF6FF70FE4908809A
:1031D000E720FE490880FE48007801287DD1FD489F
:1031E00000781021FCA24FF47C43CDE9002102902D
:1031F0004FF6FF7242214FF4D27004F061FFF548A0
:1032000000781021F6A2CDE900210290F64803884B
:10321000F648028874214FF4D27004F051FFF4484C
:103220000078022803D12820F2490870B9E0F0485C
:1032300000780328FAD11E20EE490870E54800788E
:103240001021EDA2CDE900210290EA480078EF4973
:10325000097801EB80000490ED480078083880B2CE
:103260000390E1480388E1480288DDE9030104F0A6
:1032700027FFD84800781021E6A2CDE9002102906E
:10328000DC480078E149097801EB80000490E648C9
:103290000078801C80B20390D3480388D34802880A
:1032A000DDE9030104F00CFF10200090D148007804
:1032B000D649097801EB800009230490DB480268B5
:1032C000D34800781C30049904F048FC102000908A
:1032D000C8480078CD49097800E07BE201EB800026
:1032E00009230490D2480268CF4800782630049918
:1032F00004F034FCB74800781021CEA2CDE90021BB
:103300000290BC48007800EB8000C049097808446E
:103310000490B5480388B5480288BD4800780499F0
:1033200004F0CEFEAB4800781021C7A2CDE9002101
:103330000290B048007800EB8000B4490978084456
:103340000490A9480388A9480288B74800780A3041
:10335000049904F0B5FE10200090A648007800EB18
:103360008000AA490978084409230490AF480268FC
:10337000A74800781C30049904F0F0FB102000905E
:103380009C48007800EB8000A04909780844092394
:103390000490A7480268A44800782630049904F0F5
:1033A000DDFB8C4800781021ACA2CDE90021029011
:1033B0008D4803888D4802889448017894480078A5
:1033C00004F07EFE834800781021A8A2CDE90021F8
:1033D0000290884800788D49097808440490824812
:1033E0000388824802888A480078049904F068FEBD
:1033F000784800781021A1A2CDE9002102907D48F3
:1034000000788249097801EB4000049076480388EF
:10341000764802887E480078049904F051FE6D4891
:103420000078102199A2CDE900210290714800781E
:1034300000EB400075490978084404906A48038805
:103440006A48028872480078049904F039FE61489D
:103450000078102191A2CDE90021029062480388F2
:1034600062480288694801786F48007804F028FEB5
:103470005848007810218EA2CDE9002102905D48C5
:1034800000786249097808440490574803885748EF
:10349000028865480078049904F012FE4D480078CF
:1034A000102188A2CDE900210290524800785749A6
:1034B000097801EB400004904B4803884B48028890
:1034C00059480078049904F0FBFD42480078102127
:1034D00081A2CDE9002102904648007800EB40002F
:1034E0004A490978084404903F4803883F480288C5
:1034F0004D480078049904F0E3FD102000907B48CB
:103500000068424904900978092302464048039123
:1035100000781C3004F022FB1020009073484068B3
:103520000490344800783949097808440923039005
:103530000146374800781C30049A04F00FFB102035
:1035400000906A48806804902A4800782F490978DA
:1035500001EB40000923039001462D4800781C3000
:10356000049A04F0FBFA102000906048C0680490B0
:103570002048007800EB40002449097808440923DA
:1035800003900146224800781C30049A04F0E6FAC1
:1035900010200090554800691C49049009780923BF
:1035A00002462148039100781C3004F0D7FA10201D
:1035B00000904E48406904900E48007813490978FD
:1035C00008440923039093E0E2D10020E4D10020D5
:1035D000F8D00020ADD00020B7BDB7A83100000062
:1035E000B7BDB7A832000000A8D00020AAD00020A4
:1035F00007D00020E9D000207431323A202020206A
:103600002020202020206D7300000000ECD000203E
:10361000EAD000207433343A2020202020202020BB
:1036200020206D7300000000EDD000200CD10020A0
:1036300010D1002061313A2020202020202020209D
:10364000206D6D2F7332000061323A20202020203F
:1036500020202020206D6D2F7332000074313A201D
:103660002020202020202020206D730074323A205A
:103670002020202020202020206D730074333A2049
:103680002020202020202020206D730074343A2038
:103690002020202020202020206D730076313A2029
:1036A0002020202020202020206D6D2F730000007E
:1036B00076323A202020202020202020206D6D2FDF
:1036C0007300000076333A20202020202020202084
:1036D000206D6D2F7300000076343A2020202020CA
:1036E00020202020206D6D2F7300000000D40020CA
:1036F0000146FC4800781C30049A04F02FFA102090
:103700000090F94880690490F8480078F8490978F1
:1037100001EB4000092303900146F24800781C3079
:10372000049A04F01BFA10200090EF48C06904903E
:10373000EE48007800EB4000ED4909780844092381
:1037400003900146E74800781C30049A04F006FA1A
:10375000E84800781021E8A2CDE900210290E9486C
:103760000078B63080B20490E7480388E7480288C2
:10377000E74800781E30049904F0A2FC4FF6FF7071
:10378000E4490880E720E449088020200090DD48D3
:103790000078A23080B202230490E048B0F9002003
:1037A000DC20049904F0B1FAD24800781021DCA2A0
:1037B000CDE900210290D3480078B63080B2049061
:1037C000D1480388D14802884FF48C70049904F0E2
:1037D00077FC36E1C74800781021AFF20422CDE92A
:1037E00000210290C8480388C848028842214FF44B
:1037F000D27004F065FCBF4800781021AFF220229F
:103800004FF47C43CDE9002102904FF6FF72742102
:103810004FF4D27004F054FC2020B4490870B5482D
:1038200000781021AFF23022CDE900210290B64895
:103830000388B6480288B3480178B548007804F098
:103840003FFCAC4800781021AFF23822CDE90021CE
:103850000290A6480078AB49097801EB400004903B
:10386000A9480388A9480288A9480078049904F067
:1038700027FCA04800781021AAA2CDE900210290DF
:10388000A1480388A14802889E480178954800789D
:1038900004F016FC974800781021A7A2CDE900217A
:1038A0000290924800789749097801EB4000049013
:1038B00095480388954802888A480078049904F05E
:1038C000FFFB102000908848006A8E490490097818
:1038D000092302468E4803910078213004F03EF916
:1038E000102000908048406A049080480078854904
:1038F000097801EB400009230390014684480078D1
:103900002130049A04F02AF9102000907648806A49
:103910007C49049009780923024672480391007893
:10392000213004F01BF9102000906F48C06A049009
:103930006E4800787349097801EB40000923039031
:103940000146684800782130049A04F007F97F485E
:103950000078032821D16748007810217CA2CDE9A6
:103960000021029068480388684802886548017809
:10397000803167480078401D04F0A2FB10200090C1
:103980005948806B0923024604905E4801788031D3
:103990005F480078213004F0E1F8564800781021A3
:1039A00071A2CDE9002102905048007800EB400060
:1039B0005449097801EB4000083880B2049052481D
:1039C000038852480288524800783230049904F043
:1039D00077FB4FF6FF704F490880E7204E4908807B
:1039E000202000904148007800EB400045490978CC
:1039F00001EB40001C3880B2022304905D48B0F90E
:103A00000020434800789630049904F07EF9394844
:103A10000078102142A2CDE90021029033480078BD
:103A200000EB40003749097801EB4000083880B2CC
:103A300004903548038835480288FA20049904F038
:103A40003FFBE720334908804FF6FF70324908807A
:103A50004FF4A073F42240F21D11A42003F0EEFEF7
:103A60004FF4A0731A4640F21D11F52003F0E6FE54
:103A700005B000BDFEB505460E46E72000903E4865
:103A8000028814230021084603F04CFE0120102177
:103A90003AA21F23CDE9002102904FF6FF720221C6
:103AA000002004F091FB4FF6FF70009032484388ED
:103AB00002881421002003F035FE244800780228F3
:103AC00072D10C480078102132A2CDE90021029079
:103AD0000D4803880D4802881621142004F0F0FADE
:103AE00075E061E0EDD0002000D40020E9D0002096
:103AF000ECD00020ADD00020B5B2B9E2C6ACBFED2D
:103B0000B6C83A00EBD00020A8D00020AAD00020F0
:103B1000EAD00020E2D10020E4D10020F4D000203F
:103B20006D206D007631323A202020202020202088
:103B300020206D6D2F7300007633343A2020202032
:103B40002020202020206D6D2F73000007D0002042
:103B5000613A202020202020202020202020286DB5
:103B60006D2F733229000000B4ABB8D0C6F7BEE0A9
:103B7000C0EB3A00F6D00020F0D30020B9E2B5E760
:103B8000BCC6CAB1CAFDD7D6CAB5D1E9CFB5CDB387
:103B900000000000CAB5D1E932A3BAB2E2C1BFCB7E
:103BA000B2CAB1CBD9B6C800F848007803280ED104
:103BB000F74800781021F7A2CDE900210290FD48D6
:103BC0000388FD4802881621142004F079FAF04891
:103BD00000781021F9A2CDE900210290F548038870
:103BE000F548028816214FF4877004F069FAFFF750
:103BF000E7FA002459E0E720F7490880022C1EDA92
:103C0000322767434237DFF8D4C39CF800C06744CB
:103C10001037BBB2F14F3F7807F5E67232276743A2
:103C20004237DFF8B8C39CF800C0A7EB0C07B9B265
:103C3000EA4F3F78C7F5D27003F000FE1DE032274F
:103C400067434237DFF894C39CF800C067441037DD
:103C5000BBB2E24F3F7807F5E27232276743423743
:103C6000DFF878C39CF800C0A7EB0C07B9B2DB4FB4
:103C70003F78C7F5D27003F0E1FDC5480078102108
:103C8000D7A23223CDE90021029004FB03F202F116
:103C90004201D24A1278C2F5CA7290B2C54A13885C
:103CA000E72204F00DFA601CC4B2052CA3DB00204F
:103CB0001021CC4A0346CDE9002102904FF6FF7255
:103CC0004FF4987104F0FCF9FEBD10B5FFF701F850
:103CD000C2480078C0F5D270C349098A884221DA07
:103CE000C148018ABD48007800F5E270814219DAC6
:103CF000BA480078C0F17400BB49498A884211DA99
:103D0000B948418AB5480078843081420ADAB74818
:103D1000007838B10020B54908704FF40060FDF715
:103D200060FE25E0AD480078C0F5D270AE49098A42
:103D300088421ADAAC48018AA848007800F5E27097
:103D4000814212DAA5480078C0F17400A649498A78
:103D500088420ADAA448418AA04800788430814227
:103D600003DAA3480068012802D101209F490870A6
:103D70009A480078C0F5D2709B49098A884221DAB6
:103D80009948018A9548007800F5E270814219DA75
:103D900092480078C0F142009349498A884211DA7A
:103DA0009148418A8D480078523081420ADA914820
:103DB000007838B100208F4908704FF48060FDF71B
:103DC00010FE25E085480078C0F5D2708649098A42
:103DD00088421ADA8448018A8048007800F5E27047
:103DE000814212DA7D480078C0F142007E49498A5A
:103DF00088420ADA7C48418A784800785230814209
:103E000003DA7B480068012802D101207949087053
:103E10007548008AA42818DD7348008AF42814DA4B
:103E20007148408A40F21D1188420EDD6E48408A7A
:103E3000B0F5A07F09DA7048007830B100206E49F3
:103E400008700220FDF7CDFD19E06748008AA4281C
:103E500012DD6548008AF4280EDA6348408A40F291
:103E60001D11884208DD6048408AB0F5A07F03DA62
:103E70005F480068012802D101205F4908705A4854
:103E8000008AF52819DD5848008AB0F5A07F14DAB9
:103E90005548408A40F21D1188420EDD5248408A42
:103EA000B0F5A07F09DA5548007830B100205349B9
:103EB00008700420FDF795FD1AE04B48008AF528AC
:103EC00013DD4948008AB0F5A07F0EDA4648408AE3
:103ED00040F21D11884208DD4348408AB0F5A07FBA
:103EE00003DA43480068012802D1012043490870E1
:103EF00010BD3EB5044625480078022803D023486B
:103F00000078032817D1012C16D1FFF759F9204862
:103F1000007810213AA248F21003CDE90021029066
:103F20004FF6FF724FF485714FF4D27004F0C8F869
:103F300000201649087058E2022C26D13248007839
:103F400001286AD131480088401E00B22F490880FC
:103F50004FF6FF7020490880E7202D4908802B4844
:103F6000B0F90000002802DA00202849088020204B
:103F7000009028480078A23081B202232348B0F98B
:103F80000020DC2003F0C1FEE6E371E007D0002052
:103F9000ADD00020CAB5D1E933A3BAB2E2C1BFD4D3
:103FA000C8B1E4CBD9D4CBB6AFB5C4BCD3CBD9B6AA
:103FB000C8000000A8D00020AAD00020CFB5CDB303
:103FC000BCC6CAB1CAB1BCE43A20202020202020BF
:103FD0002020206D73000000E2D10020ACD0002032
:103FE000F7CE0000C0D00020E8D10020EED00020A5
:103FF00028812342EFD00020F0D00020F1D0002013
:10400000B7B5BBD800000000F8D00020F4D00020E5
:10401000E4D10020EBD00020FFE7FC480088401EE0
:1040200000B2FA4908804FF6FF70F9490880E7208E
:10403000F8490880F548B0F90000002802DA0020AD
:10404000F249088020200090F348007800EB4000FF
:10405000F24A127802EB40001C3881B20223EB488E
:10406000B0F90020EE480078963003F04EFE73E37E
:10407000042C51D1EB480078012822D1EA4800886D
:10408000401C00B2E84908804FF6FF70E049088004
:10409000E720E0490880E448B0F90000632802DD29
:1040A000C820E149088020200090DC480078A23038
:1040B00081B20223DC48B0F90020DC2003F025FEA9
:1040C0004AE3D2480088401C00B2D04908804FF62D
:1040D000FF70CF490880E720CE490880CB48B0F96F
:1040E0000000632802DD0020C849088020200090DD
:1040F000C948007800EB4000C84A127802EB400043
:104100001C3881B20223C148B0F90020C4480078AD
:10411000963003F0FAFD1FE3802C14D1FFF750F81E
:10412000C24800781021C2A248F21003CDE9002154
:1041300002904FF6FF72A6214FF4D27003F0C0FF39
:1041400003F049F908E3B4F5807F1FD14FF6FF7003
:1041500002F0EAFC0020B8490860B849086003F0A2
:1041600043F900210846FFF785FCB048007810218C
:10417000B3A248F21003CDE9002102904FF6FF727E
:10418000D8214FF4D27003F09BFFE5E2402C17D109
:10419000FFF716F8A54800781021AFF29C1248F2FC
:1041A0001003CDE9002102904FF6FF724FF48571A4
:1041B0004FF4D27003F084FF0020A3490870CBE2D3
:1041C000B4F5801F12D197480078012806D19F4886
:1041D00000689F4908609F490860BDE201209E4930
:1041E00008709A4800689A490860B5E2B4F1807F87
:1041F00038D18C48007801288DD14FF6FF70844962
:104200000880E72083490880904800689049096841
:10421000401A924908608448B0F900004FF47A715E
:1042200048438E490968B0FBF1F08C4908611020C1
:10423000009008468A4B1B78194609230268784883
:1042400000781C3003F08AFC102000908348844BD7
:104250001B78194609230269824800781C3003F054
:104260007DFC79E2B4F5001F4DD16E48007801283D
:104270000DD1764800687C4908607C490860084692
:10428000006874490968401A6B49086064E2724822
:104290000078002893D000206F4908704FF6FF7017
:1042A0005B490880E7205B490880684800686849E6
:1042B0000968401A694908625448B0F9000042F29E
:1042C000107148436549096AB0FBF1F0634988629F
:1042D000102000900846514B1B7819460923026AAA
:1042E0004F480078213003F039FC102000905B48E3
:1042F0004A4B1B7819460923826A5A4800782130B4
:1043000003F02CFC28E2B4F1007F70D1454800781E
:104310000128A6D14FF6FF703D490880E7203D49AE
:1043200008804A48006850490968401A4B4948606B
:104330003D48B0F900004FF47A7148434749496855
:10434000B0FBF1F0454948611020009008464268F2
:1043500031480078424B1B78C11809233048007857
:104360001C3003F0FBFB102000903C4842692A48B7
:1043700000783B4B1B78C11809233A4800781C3061
:1043800003F0ECFB304800780328BBD13348406988
:1043900032490969401A4FF47A714843264909683D
:1043A000B0FBF1F02D490863102000901A48007806
:1043B0002B4A127802EB800109231F480268184833
:1043C00000781C3003F0CAFB102000902348026BD9
:1043D0001148007800EB8000214B1B78C11809239D
:1043E0000F4800781C3003F0B9FBB5E1FFE7B4F5E6
:1043F000000F49D10B48007801283DD113480068CF
:104400001B4908601B490860A6E10000F6D00020A7
:10441000E2D10020E4D10020E9D00020EBD0002040
:10442000EAD00020F8D00020F4D00020ADD0002049
:10443000BFAACABC000000000CD1002010D100208F
:10444000C7E5C1E30000000007D0002018D200201B
:10445000B0D00020FCD00020F2D0002000D40020FA
:10446000ECD00020EDD00020B4D0002000D10020FE
:10447000B8D0002004D100200120C7490870C748E7
:104480000068C749086067E1B4F1006F3ED1C548D4
:1044900000780128A9D14FF6FF70C3490880E720B2
:1044A000C2490880BD480068BD490968401AC04932
:1044B0008860C048B0F900004FF47A714843BC49A5
:1044C0008968B0FBF1F0BA49886110200090084675
:1044D0008268B9480078B94B1B7803EB4001092387
:1044E000B74800781C3003F039FB10200090B0482A
:1044F0008269B1480078B14B1B7803EB4001092376
:10450000B04800781C3003F029FB25E1B4F5800F9A
:104510006BD1A448007801280DD1A0480068AA49B1
:104520000860AA49086008460068A9490968401A55
:10453000A849086010E1984800780028A3D000201E
:10454000954908704FF6FF7097490880E720974912
:1045500008809248006892490968401A9449486264
:104560009D48B0F9000042F2107148439049496AF1
:10457000B0FBF1F08E49C862102000900846426AF4
:104580008D480078954B1B7803EB400109238C483C
:104590000078213003F0E2FA102000908448C26ACB
:1045A000854800788D4B1B7803EB40010923854833
:1045B0000078213003F0D2FA894800780328A4D18A
:1045C0007B48C06A7A49896A401A79498863102011
:1045D000009008460923826B804801788031784832
:1045E0000078213003F0BAFAB6E0B4F1806F74D1EC
:1045F0006C480078012888D14FF6FF706A4908801E
:10460000E7206A490880654800686F490968401AD0
:104610006749C8606748B0F900004FF47A714843B1
:104620006349C968B0FBF1F06149C861102000908E
:104630000846C2686048007800EB40005F4B1B787A
:10464000C11809235E4800781C3003F087FA102057
:1046500000905748C2695848007800EB4000574B1B
:104660001B78C1180923574800781C3003F076FAEC
:104670005B48007803286FD14D48C0694C4989696F
:10468000401A4FF47A71484352490968B0FBF1F07F
:10469000474948631020009047480078474A1278FD
:1046A00002EB800109234B48026846480078263017
:1046B00003F054FA102000903D48426B3E480078C9
:1046C00000EB80003D4B1B78C11809233D48007862
:1046D000263003F043FA3FE0FFE7B4F5806F1CD1CA
:1046E00001203049087002F07FFE00203D4908603B
:1046F000384908604FF6FF703B49009049881E39E1
:104700008BB22F4909781E3988B24FF4B9722C2127
:1047100003F008F8FEF754FD1EE0B4F5006F1BD15E
:1047200002202049087002F05FFE00202D49086039
:10473000284908604FF6FF702B49009049881E39C0
:104740008BB21F4909781E3988B24FF4B9722C21F7
:1047500002F0E8FFFEF734FD20463EBD10B52349C8
:10476000AFF67100FDF723F910BD10B50021084622
:10477000FFF780F910BD10B54FF6FF7002F0D4F9C5
:1047800002F032FE01200749087000201549086038
:104790001049086010BD0000F2D0002018D200209F
:1047A000B8D00020F8D00020E2D10020E4D10020D1
:1047B00000D40020F4D00020E9D00020ECD000206C
:1047C000EAD00020EDD00020BCD0002008D100208D
:1047D00004D1002010D10020F6D00020EBD0002022
:1047E00007D000200CD10020F0D30020C70DF00F1F
:1047F00010B5FEF7EFF8E720F94908804FF6FF7093
:10480000F84908804FF4A073B42240F227116C20BD
:1048100003F014F84FF4A0734FF4827240F22711A2
:10482000B42003F00BF84FF4A0734FF4A87240F2D9
:1048300027114FF4827003F001F810BDFEB5054654
:104840000E46E7200090E84802881423002108461D
:1048500002F068FF01201021E4A21F23CDE900210E
:1048600002904FF6FF720221002003F0ADFC4FF6DC
:10487000FF700090DC48438802881421002002F079
:1048800051FFE04800781021DFA2CDE9002102901D
:10489000E3480388E34802882821142003F010FC31
:1048A000D84800781021E0A2CDE900210290DC4830
:1048B0000388DC48028828214FF4877003F000FC4D
:1048C0004FF6FF70C6490880E720C6490880CD48EA
:1048D00000781021DBA2CDE900210290D0480388A6
:1048E000D0480288E3480178E348007803F0E8FB09
:1048F000C44800781021E1A2CDE900210290DD48F2
:104900000078E04A12788118C5480388C5480288B3
:10491000D948007803F0D4FB10200090DA480268F0
:10492000D4480078D74B1B78C1180623D2480078AA
:10493000403003F013F9B34800781021D3A2CDE939
:1049400000210290CB480078CE4A12788118B448F2
:104950000388B4480288C8480078823003F0B0FB6E
:1049600010200090C8484268C2480078C54B1B78A8
:10497000C1180623C0480078C23003F0EFF8A14800
:1049800000781021C3A2CDE900210290B948007837
:10499000BC4A12788118A2480388A2480288B64807
:1049A000007800F5827003F08BFB10200090B64871
:1049B0008268B0480078B34B1B78C1180623AE4814
:1049C000007800F5A27003F0C9F88E480078102135
:1049D000B2A2CDE900210290AA480078A54A127837
:1049E00002EB40018E4803888E480288A248007876
:1049F00003F066FB834800781021A0A2CDE90021D6
:104A00000290A048007800EB40009A4A1278811882
:104A100083480388834802889748007803F050FB56
:104A2000102000909848C2689648007800EB40003B
:104A3000904B1B78C11806238F480078403003F054
:104A40008DF870480078102190A2CDE900210290E5
:104A50008C48007800EB4000864A12788118704834
:104A600003887048028884480078823003F028FB6D
:104A700010200090844802698248007800EB4000D2
:104A80007C4B1B78C11806237B480078C23003F0AA
:104A900065F85C48007810217EA2CDE900210290E3
:104AA0007848007800EB4000724A127881185C4820
:104AB00003885C4802887048007800F5827003F033
:104AC000FFFA10200090704842696E48007800EBB1
:104AD0004000684B1B78C11806236748007800F532
:104AE000A27003F03BF847480078102177A2CDE987
:104AF000002102904A4803884A48028840F2111176
:104B0000E82003F0DDFA102002230090734890F9AA
:104B1000002040F211114FF4A47003F073F83948EB
:104B2000007810216EA2CDE9002102903C48038854
:104B30003C48028840F211114FF4AC7003F0C0FA07
:104B4000E720274908804F4A127802EB4202494C7D
:104B50002478224402F12503464A1278153A91B28C
:104B6000454A1278521F90B2434A127802F27912E3
:104B700002F064FE2348007810215BA2CDE90021F9
:104B80000290274803882748028840F211113A48CA
:104B9000007803F095FA1B480078102158A2CDE95F
:104BA000002102901E4803881E48028856214FF4B7
:104BB000C87003F085FA5548007880B11148007834
:104BC000102153A2CDE90021029015480388154811
:104BD000028874214FF4C97003F072FAAEE09DE0D0
:104BE000E2D10020E4D10020F0D30020B9E2B5E703
:104BF000BCC6CAB1CAFDD7D6CAB5D1E9CFB5CDB307
:104C00000000000019D10020CAB5D1E934A3BAB21E
:104C1000E2C1BFC5F6D7B2D6D0B5C4B6AFC1BF00EA
:104C200014D1002016D10020CFB5CDB3BCC6CAB177
:104C3000CAB1BCE43A202020202020202020206D72
:104C400020730000BEADB9FDB9E2B5E7B4ABB8D092
:104C5000C6F7B5C43132B5C4CBB2CAB1CBD9B6C828
:104C60005631323A28B5A5CEBB3A206D206D2F7350
:104C7000290000002DD100202CD10020B5DA31B45C
:104C8000CE3A00002ED10020C0D30020B5DA32B4D5
:104C9000CE3A0000B5DA33B4CE3A0000BEADB9FD6D
:104CA000B9E2B5E7B4ABB8D0C6F7B5C43334B5C4D0
:104CB000CBB2CAB1CBD9B6C85633343A28B5A5CE93
:104CC000BB3A206D206D2F7329000000B4ABB8D023
:104CD000C6F7BEE0C0EBA3BA000000005ED1002022
:104CE000206D206D00000000B0B4BCFC4B45595F46
:104CF00030C7D0BBBBCBD9B6C8B7BDCFF200000020
:104D0000CBD9B6C8B7BDCFF2A3BA00005DD10020A1
:104D100034333231CEAAD5FD00000000FD480078C2
:104D20001021FDA2CDE900210290FE480388FE4833
:104D3000028874214FF4C97003F0C2F9FFF758FDDF
:104D4000002438E0E720F949088032276743A63776
:104D5000DFF8DCC39CF800C067441037BBB2F44FE7
:104D60003F7807F5E27232276743A637DFF8C0C302
:104D70009CF800C0A7EB0C07B9B2ED4F3F78C7F520
:104D8000D27002F05BFDE34800781021E9A23223E3
:104D9000CDE90021029004FB03F202F1A601E44AEE
:104DA0001278C2F5CA7290B2DE4A1388E72203F085
:104DB00087F9601CC4B2032CC4DB00201021DE4A3A
:104DC0000346CDE9002102904FF6FF724FF498712F
:104DD00003F076F9E720D54908804FF6FF70D749F0
:104DE00008804FF4A073B42240F227116C2002F027
:104DF00025FD4FF4A0734FF4827240F22711B420C6
:104E000002F01CFD4FF4A0734FF4A87240F227117A
:104E10004FF4827002F012FDFEBD10B5FDF759FF90
:104E2000C748008A6C2818DDC548008AB42814DAFF
:104E3000C348408A40F2271188420EDDC048408AAC
:104E4000B0F5A07F09DABF48007830B10020BD4935
:104E500008700120FCF7C5FD19E0B948008A6C28EC
:104E600012DDB748008AB4280EDAB548408A40F20D
:104E70002711884208DDB248408AB0F5A07F03DAE6
:104E8000B1480068012802D10120AE490870AC4841
:104E9000008AB42819DDAA48008AB0F5827F14DAA6
:104EA000A748408A40F2271188420EDDA448408A74
:104EB000B0F5A07F09DAA548007830B10020A349F9
:104EC00008700220FCF78DFD1AE09D48008AB42886
:104ED00013DD9B48008AB0F5827F0EDA9848408A3D
:104EE00040F22711884208DD9548408AB0F5A07F3E
:104EF00003DA95480068012802D10120934908701F
:104F00008F48008AB0F5827F19DD8D48008AB0F5A0
:104F1000A87F14DA8A48408A40F2271188420EDDC1
:104F20008748408AB0F5A07F09DA8948007830B117
:104F30000020874908700420FCF753FD1BE08048DF
:104F4000008AB0F5827F13DD7D48008AB0F5A87F26
:104F50000EDA7B48408A40F22711884208DD784803
:104F6000408AB0F5A07F03DA77480068012802D1B3
:104F700001207749087010BD00207649086048601C
:104F80008860C86008614861734908707349087097
:104F9000734908707349087007207349087000202E
:104FA0007249087072490860704701B586B071484F
:104FB000007804287ED10698012837D16E48007801
:104FC000401C6D49087008460078059000EBD070D1
:104FD00041100598A0EB410098B900206349087082
:104FE0004C48007810214CA2CDE9002102904D4898
:104FF00003884D48028874214FF4C97003F060F8AB
:1050000039E1012059490870424800781021AFF277
:105010000032CDE9002102904248038842480288CC
:1050200074214FF4C97003F04BF824E1069802286C
:1050300020D14D480078401E40B24B4908700846C8
:1050400090F90000002801DA002008704FF6FF7088
:1050500036490880E7203949088010200223009053
:10506000414890F9002040F211114FF4A47002F071
:10507000C9FD00E10698042822D13B480078401C75
:1050800040B239490870084690F90000632801DDF4
:10509000632008704FF6FF7024490880E7202749F5
:1050A00008801020022300902F4890F9002040F241
:1050B000111100E0C1E34FF4A47002F0A3FDDAE0A7
:1050C0000698802814D1FFF793FB1248007810212E
:1050D0002AA248F21003CDE9002102904FF6FF7298
:1050E000A6214FF4D27002F0EBFF02F074F9C2E097
:1050F0000698B0F5807F55D102F076F94FF6FF7033
:1051000001F012FDFFF738FF00210846FFF796FB7C
:10511000004837E019D1002031323334CEAAD5FD12
:105120000000000014D1002016D10020E2D10020A0
:1051300018D10020F7CE00002FD10020E4D10020AC
:10514000E8D100205AD10020288123425BD10020E1
:105150005CD10020C0D300205FD1002060D10020AE
:1051600061D1002062D100205ED100205DD10020FD
:1051700018D2002007D0002063D10020BFAACABCEB
:105180000000000000781021FEA248F21003CDE9D3
:10519000002102904FF6FF72D8214FF4D27002F036
:1051A0008FFF68E00698402816D1FFF721FBF748EB
:1051B00000781021F6A248F21003CDE900210290F8
:1051C0004FF6FF724FF485714FF4D27002F078FF02
:1051D0000020F14908704EE00698B0F5801F0FD10D
:1051E000EE480068EE490860EE480078401CED4942
:1051F00008700846007803283DDD012008703AE079
:105200000698B0F5001F0FD1E4480068E649086031
:10521000E6480078401CE5490870084600780328F5
:1052200029DD0120087026E00698B0F5000F0FD1A7
:10523000DA480068DE490860DE480078401CDD4935
:10524000087008460078032815DD0120087012E078
:105250000698B0F5800F0ED1D0480068D649086096
:10526000D6480078401CD5490870084600780328C5
:1052700001DD01200870CB480078CC4909788842CC
:1052800070D1C9480068C649096888427ED94FF67E
:10529000FF70CB490880E720CA490880C2480068EF
:1052A000BF490968401AC8490862C84890F9000017
:1052B0004FF47A714843C449096AB0FBF1F0C2491E
:1052C0008862B848007801284DD10846806AC049F4
:1052D0000860C0480078C8B1002010212D22CDE917
:1052E00000210290BC480078BC4909780844059028
:1052F000BB480078383080B20490B2480388B04888
:105300000288DDE9040102F057FB18E000201021BB
:105310002022CDE900210290AF480078AF490978FA
:1053200008440590AE480078383080B20490A54813
:105330000388A3480288DDE9040102F03DFB102048
:105340000090A34800680590A3480078A349097815
:105350000844062304900146A14800784030059A8D
:1053600002F0FCFBECE18F48007802284FD1964810
:10537000806A9749486097480078D8B1002010218A
:105380002D22CDE900210290934800E094E00078BE
:10539000924909780844059091480078BA3080B263
:1053A00004908848038886480288DDE9040102F0F9
:1053B00003FB18E0002010212022CDE900210290FB
:1053C0008548007885490978084405908448007824
:1053D000BA3080B204907B48038879480288DDE9BE
:1053E000040102F0E9FA1020009079484068059025
:1053F00079480078794909780844062304900146E1
:1054000077480078C230059A02F0A8FB98E1654819
:1054100000780328A6D16C48806A6D4988606D4881
:105420000078D0B1002010212D22CDE9002102907A
:105430006948007869490978084405906848007807
:1054400000F59E7080B204905E4803885C48028834
:10545000DDE9040102F0B0FA19E000201021202259
:10546000CDE9002102905C4800785C490978084445
:1054700005905B48007800F59E7080B2049051481A
:1054800003884F480288DDE9040102F095FA1020F4
:1054900000904F48806805904F4800784F49097840
:1054A00008440623049001464D48007800F5A27098
:1054B000059A02F053FB43E14FF6FF704049088024
:1054C000E720404908803648006837490968401A93
:1054D0003D4908623D4890F900004FF47A71484315
:1054E0003949096AB0FBF1F0374988622D480078E4
:1054F00001287FD10846806A354908603548007820
:10550000C8B1002010212022CDE9002102903248AC
:1055100000783249097808440590314800783830DD
:1055200080B204902748038825480288DDE90401F9
:1055300002F042FA18E0002010212D22CDE90021CE
:1055400002902548007825490978084405902448A8
:105550000078383080B204901A48038818480288CE
:10556000DDE9040102F028FA1020009018480068D4
:1055700005901948007819490978084406230490D1
:10558000014630E0C7E5C1E30000000019D100206A
:10559000B7B5BBD80000000007D0002018D200200B
:1055A0001CD100205FD1002020D1002060D100203C
:1055B00024D1002061D1002028D1002062D1002018
:1055C000E2D10020E4D1002000D400205ED10020F0
:1055D000C0D300205DD100202DD100202ED100208D
:1055E0002CD1002006E0FE4800784030059A02F0F9
:1055F000B5FAA5E0FB48007802284DD1FA48806A48
:10560000FA494860FA480078C8B1002010212022E9
:10561000CDE900210290F7480078F749097808445D
:105620000590EF480078BA3080B20490F3480388C0
:10563000F3480288DDE9040102F0BEF918E0002019
:1056400010212D22CDE900210290EA480078EA4994
:10565000097808440590E2480078BA3080B2049096
:10566000E6480388E6480288DDE9040102F0A4F96F
:1056700010200090DD4840680590DE480078DE4943
:1056800009780844062304900146D5480078C230C2
:10569000059A02F063FA53E0D248007803284FD10C
:1056A000D148806AD1498860D1480078D0B10020C3
:1056B00010212022CDE900210290CE480078CE4969
:1056C000097808440590C648007800F59E7080B2BD
:1056D0000490CA480388CA480288DDE9040102F040
:1056E0006BF919E0002010212D22CDE90021029054
:1056F000C0480078C049097808440590B848007847
:1057000000F59E7080B20490BC480388BC480288B3
:10571000DDE9040102F050F910200090B3488068E0
:105720000590B4480078B4490978084406230490E9
:105730000146AB48007800F5A270059A02F00EFA17
:10574000B0480078B0490978884276D1AF480068FF
:10575000AF490968884271D94FF6FF70A84908809F
:10576000E720A6490880A9480068A9490968401AA5
:105770009D494862A74890F900004FF47A71484368
:105780009949496AB0FBF1F09749C8629D48007891
:10579000012854D10846C06A9449C86094480078EA
:1057A000D8B1002010212D22CDE90021029092488D
:1057B000007800EB40008F4909780844059088483C
:1057C0000078383080B204908C4803888C48028876
:1057D000DDE9040102F0F0F81AE000201021202297
:1057E000CDE9002102908448007800EB4000814917
:1057F0000978084405907A480078383080B20490DF
:105800007E4803887E480288DDE9040102F0D4F86E
:10581000102000907548C06805907748007800EB2C
:1058200040007449097808440623049001466C48F6
:1058300000784030059A02F091F9F4E1B2E0714845
:105840000078022853D16848C06A684908616848EE
:105850000078D8B1002010212D22CDE9002102903E
:105860006548007800EB40006249097808440590DB
:105870005B480078BA3080B2049060480388604882
:105880000288DDE9040102F097F81AE000201021F7
:105890002022CDE9002102905748007800EB40001B
:1058A00054490978084405904D480078BA3080B2D0
:1058B00004905248038852480288DDE9040102F04E
:1058C0007BF8102000904948006905904A4800780C
:1058D00000EB40004749097808440623049001463C
:1058E0003F480078C230059A02F038F99BE14548FC
:1058F00000780328A1D13C48C06A3C4948613C4833
:105900000078E0B1002010212D22CDE90021029085
:105910003948007800EB4000364909780844059082
:105920002F48007800F59E7080B2049033480388B9
:1059300033480288DDE9040102F03EF81BE0002054
:1059400010212022CDE9002102902B48007800EBA5
:10595000400028490978084405902148007800F55E
:105960009E7080B204902548038825480288DDE9AE
:10597000040102F021F8102000901C4840690590B5
:105980001D48007800EB40001A49097808440623B6
:10599000049001461248007800F5A270059A02F0C2
:1059A000DDF840E14FF6FF7015490880E720134904
:1059B00008801748006815490968401A0A49486272
:1059C000144890F900004FF47A7148430649496A37
:1059D000B0FBF1F00449C8620A48007801281BE0D6
:1059E0002CD100205FD1002000D40020C0D30020A3
:1059F0005DD100202DD100202ED10020E4D1002047
:105A0000E2D1002061D1002062D1002028D1002005
:105A100024D100205ED1002053D10846C06A8F49AE
:105A2000C8608F480078D8B1002010212022CDE92D
:105A3000002102908B48007800EB40008A490978E9
:105A40000844059089480078383080B2049088482E
:105A5000038888480288DDE9040101F0ADFF1AE0FF
:105A6000002010212D22CDE9002102907D480078F0
:105A700000EB40007C490978084405907B48007899
:105A8000383080B204907A4803887A480288DDE989
:105A9000040101F091FF102000907048C06805904B
:105AA0007048007800EB40006F49097808440623ED
:105AB000049001466D4800784030059A02F04EF897
:105AC000B1E06D480078022853D16C48C06A634940
:105AD000086163480078D8B1002010212022CDE968
:105AE000002102905F48007800EB40005E49097891
:105AF000084405905D480078BA3080B204905C4854
:105B000003885C480288DDE9040101F055FF1AE0D2
:105B1000002010212D22CDE900210290514800786B
:105B200000EB400050490978084405904F48007840
:105B3000BA3080B204904E4803884E480288DDE9AE
:105B4000040101F039FF10200090444800690590DD
:105B50004448007800EB4000434909780844062394
:105B60000490014641480078C230059A01F0F6FFE2
:105B700059E041480078032855D14048C06A374968
:105B8000486137480078E0B1002010212022CDE99B
:105B9000002102903348007800EB40003249097838
:105BA000084405903148007800F59E7080B204905A
:105BB0002F4803882F480288DDE9040101F0FCFE2C
:105BC0001BE0002010212D22CDE900210290254864
:105BD000007800EB400024490978084405902348E8
:105BE000007800F59E7080B2049021480388214817
:105BF0000288DDE9040101F0DFFE10200090174863
:105C0000406905901748007800EB40001649097874
:105C100008440623049001461448007800F5A27059
:105C2000059A01F09BFF069807B000BD10B5144916
:105C3000AFF68940FBF7BBFE10BD10B5002108464A
:105C4000FEF7FCFD10BD10B54FF6FF7000F06CFFC5
:105C500001F0CAFBFFF790F910BD0000C0D300208F
:105C60005DD100202ED100202DD100202CD100208C
:105C7000E4D10020E2D1002061D1002000D4002036
:105C8000C701F00F10B5FCF7A5FEE720FB4908801F
:105C90004FF6FF70FA4908804FF4A073B42240F227
:105CA00027116C2001F0CAFD10BDFEB505460E4659
:105CB000E7200090F348028814230021084601F0F1
:105CC00031FD01201021F0A21F23CDE90021029017
:105CD0004FF6FF720221002002F076FA4FF6FF70B5
:105CE0000090E848438802881421002001F01AFD42
:105CF000EB4800781021EBA2CDE900210290EC489E
:105D00000388EC4802882821142002F0D9F9E448DD
:105D100000781021E8A2CDE900210290E448038830
:105D2000E44802887621912002F0CAF9DC48007824
:105D30001021E3A2CDE900210290DD480388DD486F
:105D400002889D21912002F0BBF9FFF79BFF002400
:105D500038E0E720C949088032276743A637DFF8D3
:105D600068C39CF800C067441037BBB2D64F3F7879
:105D700007F5E27232276743A637DFF84CC39CF879
:105D800000C0A7EB0C07B9B2CF4F3F78C7F5D27070
:105D900001F054FDC24800781021CCA23223CDE995
:105DA0000021029004FB03F202F1A601C64A127818
:105DB000C2F5CA7290B2BE4A1388E72202F080F997
:105DC000601CC4B2032CC4DBB54800781021C0A20B
:105DD000CDE900210290B6480388B648028840F217
:105DE0000111912002F06CF900201021BE4A0346F7
:105DF000CDE9002102904FF6FF724FF4987102F046
:105E00005FF9FEBD10B5FCF764FFB848008A6C2846
:105E100018DDB648008AB42814DAB448408A40F243
:105E2000271188420EDDB148408AB0F5A07F09DA1B
:105E3000AF48007830B10020AD4908700120FBF771
:105E4000D0FD19E0A948008A6C2812DDA748008A15
:105E5000B4280EDAA548408A40F22711884208DDAE
:105E6000A248408AB0F5A07F03DAA2480068012862
:105E700002D101209E49087010BD3EB504469E48DF
:105E80000078052814D1012C1BD19C480078401CB7
:105E90009A490870087800EBD0714910A0EB4101D5
:105EA00039B10021A00703F0E3FD002094490870F8
:105EB00086E10121880703F0DBFD0120904908708D
:105EC0007EE1022C14D1FFF7DDFE75480078102129
:105ED0008CA248F21003CDE9002102904FF6FF7228
:105EE000A6214FF4D27002F0EBF801F074FA67E1EA
:105EF000042C16D1FFF7C6FE69480078102183A252
:105F000048F21003CDE9002102904FF6FF724FF4E2
:105F100085714FF4D27002F0D3F8002076490870F2
:105F20004EE1802C14D1FFF7ADFE5D4800781021C2
:105F300074A248F21003CDE9002102904FF6FF72DF
:105F4000A6214FF4D27002F0BBF801F044FA37E119
:105F5000B4F5807F17D1FFF795FE514800781021E6
:105F60006CA248F21003CDE9002102904FF6FF72B7
:105F7000D8214FF4D27002F0A3F801F035FA0020D6
:105F8000664908601CE1402C16D1FFF77BFE4448AF
:105F9000007810215DA248F21003CDE900210290A3
:105FA0004FF6FF724FF485714FF4D27002F088F80B
:105FB00000205149087003E1B4F5801F09D157480A
:105FC0000068401C554908605548006855490860FC
:105FD000F6E0B4F1807F19D1514800685149096851
:105FE000401A51490860084600680321B0FBF1F0EF
:105FF0000A21B0FBF1F201FB12004B49096801EBE9
:10600000810100EB410048490860D9E0B4F5001F68
:1060100009D142480068401C404908604048006877
:1060200042490860CCE0B4F1007F19D13C480068D7
:106030003E490968401A3C494860084640680321C7
:10604000B0FBF1F00A21B0FBF1F201FB120036497E
:10605000496801EB810100EB410033494860AFE042
:10606000B4F5000F66D12D480068401C2B4908602C
:106070002B4800682E490860A2E05BE0E2D10020D6
:10608000E4D10020F0D30020B9E2B5E7BCC6CAB124
:10609000CAFDD7D6CAB5D1E9CFB5CDB3000000004F
:1060A00069D10020CAB5D1E935A3BABCC6CAFD0082
:1060B00064D1002066D10020BCC6CAFDA3BA00008E
:1060C000BCC6CAB1A3BA000068D10020F7CE000058
:1060D000B0B4BCFC204B45595F3020D4DDCDA3BA11
:1060E000CDBCCCD0F80000007CD10020E8D100204D
:1060F000A2D100202881234207D00020A8D100206F
:1061000012D20020BFAACABC00000000B7B5BBD89D
:1061100000000000C7E5C1E300000000A4D100209A
:1061200018D200206CD1002000D4002070D10020B3
:1061300074D10020B4F1006F19D12E4800682E49A7
:106140000968401A2D498860084680680321B0FB21
:10615000F1F00A21B0FBF1F201FB12002749896836
:1061600001EB810100EB41002449886028E0B4F58F
:10617000800F09D122480068401C214908601D4851
:106180000068204908601BE0B4F1806F18D11948FD
:1061900000681C490968401A1849C8600846C06868
:1061A0000321B0FBF1F00A21B0FBF1F201FB120078
:1061B0001249C96801EB810100EB41000F49C86039
:1061C00020463EBD10B51049AFF25130FBF7EFFB52
:1061D00010BD10B500210846FFF767FD10BD10B5D2
:1061E0004FF6FF7000F0A0FC01F0FEF8002004491B
:1061F000086010BD18D2002074D1002000D4002007
:10620000A4D1002078D10020C701F00F10B5FCF711
:10621000E1FBE720FD4908804FF6FF70FC4908804C
:106220004FF4A073B42240F227116C2001F006FB5A
:106230004FF4A0734FF4827240F22711B42001F0A2
:10624000FDFA4FF4A0734FF4A87240F227114FF4F7
:10625000827001F0F3FA10BDFEB505460E46E72048
:106260000090EC48028814230021084601F05AFAF5
:1062700001201021E8A21F23CDE9002102904FF652
:10628000FF720221002001F09FFF4FF6FF70009087
:10629000E048438802881421002001F043FAE448D2
:1062A00000781021E3A2CDE900210290E74803889D
:1062B000E74802882821142001F002FFDC4800781A
:1062C0001021E4A2CDE900210290E0480388E048D3
:1062D00002885021E448007801F0F2FED4480078AA
:1062E0001021E2A2CDE900210290D8480388D848C5
:1062F00002888221DC48007801F0E2FECC48007878
:106300001021E0A2CDE900210290D0480388D048B6
:106310000288B421D448007801F0D2FEC448007845
:106320001021DEA2CDE900210290C8480388C848A8
:106330000288E621CC48007801F0C2FEBC48007813
:106340001021DCA2CDE900210290C0480388C0489A
:1063500002885021C4480078C83001F0B1FEB4482A
:1063600000781021D9A2CDE900210290B748038816
:10637000B74802888221BC480078C83001F0A0FEEE
:106380004FF6FF70A1490880E720A149088001204D
:10639000D0498882102000900846828A0623502126
:1063A000B1480078FF3001F0D9FB10200090C948B7
:1063B000062382210268AC480078FF3001F0CEFB52
:1063C000FFF724FF002438E0E720904908803227B7
:1063D0006743A637DFF800C39CF800C06744103756
:1063E000BBB2BD4F3F7807F5E27232276743A6374D
:1063F000DFF8E4C29CF800C0A7EB0C07B9B2B64FB7
:106400003F78C7F5D27001F019FA89480078102159
:10641000B2A23223CDE90021029004FB03F202F183
:10642000A601AD4A1278C2F5CA7290B2874A1388A3
:10643000E72201F045FE601CC4B2032CC4DB7C489B
:1064400000781021A6A2CDE9002102907F480388A0
:106450007F48028840F211118348007801F030FE35
:1064600000201021A44A0346CDE9002102904FF6F6
:10647000FF724FF4987101F023FEE7206349088012
:106480004FF6FF70624908804FF4A073B42240F2C7
:1064900027116C2001F0D2F94FF4A0734FF48272EF
:1064A00040F22711B42001F0C9F94FF4A0734FF462
:1064B000A87240F227114FF4827001F0BFF9FEBDBF
:1064C00010B5FCF706FC8D48008A6C2818DD8B4857
:1064D000008AB42814DA8948408A40F22711884299
:1064E0000EDD8648408AB0F5A07F09DA844800783E
:1064F00030B10020824908700120FBF772FA19E0E0
:106500007E48008A6C2812DD7C48008AB4280EDAA6
:106510007A48408A40F22711884208DD7748408A4D
:10652000B0F5A07F03DA77480068012802D1012086
:10653000734908707148008AB42819DD6F48008AD1
:10654000B0F5827F14DA6D48408A40F22711884204
:106550000EDD6A48408AB0F5A07F09DA6A48007803
:1065600030B10020684908700220FBF73AFA1AE0BF
:106570006248008AB42813DD6048008AB0F5827F43
:106580000EDA5E48408A40F22711884208DD5B48F7
:10659000408AB0F5A07F03DA5A480068012802D18A
:1065A0000120594908705548008AB0F5827F19DDED
:1065B0005248008AB0F5A87F14DA5048408A40F269
:1065C000271188420EDD4D48408AB0F5A07F09DAD8
:1065D0004E48007830B100204C4908700420FBF789
:1065E00000FA9FE04548008AB0F5827F0DDD434800
:1065F000008AB0F5A87F08DA4048408A40F22711A7
:10660000884202DD3D48408A82E088E0E2D10020F5
:10661000E4D10020F0D30020B9E2B5E7BCC6CAB18E
:10662000CAFDD7D6CAB5D1E9CFB5CDB300000000B9
:10663000AFD10020CAB5D1E936A3BAB2E2C1BFD604
:10664000DCC6DABACDC6B5C2CA000000AAD10020A5
:10665000ACD10020F7CED6DCC6DACAFDA3BA202022
:106660002020202020000000B0D10020F7CECAB1A9
:10667000BCE420743D2020202020202020206D73A9
:1066800000000000F7CED6DCC6DA20543D202020E2
:106690002020202020206D7300000000F7CEC6B51A
:1066A000C2CA20663D202020202020202020487AB9
:1066B00000000000F7CEB4A5B7A2202020202020A3
:1066C0002020B4CECEAA31D6DCC6DA00F7CEB4CEC6
:1066D000CAFD0000D8D30020AED10020F7CE0000C4
:1066E000B0B4BCFC204B45595F3020D4DDCDA3BAFB
:1066F000CDBCCCD0F8000000B1D10020E8D1002002
:10670000DCD1002028812342DDD10020DED1002011
:10671000B0F5A07F03DA80480068012802D101208B
:106720007E49087010BD3EB504467D4800780628B5
:1067300014D1012C1BD17B480078401C794908708A
:10674000087800EBD0714910A0EB410139B100216C
:10675000A00703F08DF9002073490870BFE0012104
:10676000880703F085F901206F490870B7E0022C13
:106770001DD16E48808A401E6C4988820846808AF6
:10678000012801DA012088824FF6FF7068490880ED
:10679000E72068490880102000906448828A062318
:1067A000502165480078FF3001F0D8F997E0042CBB
:1067B0001FD15E48808A401C5C4988820846808AD6
:1067C000B0F57A7F02DB40F2E73088824FF6FF7047
:1067D00057490880E7205749088010200090534807
:1067E000828A0623502154480078FF3001F0B6F920
:1067F00075E0802C14D1FFF709FD50480078102176
:106800004FA248F21003CDE9002102904FF6FF722B
:10681000A6214FF4D27001F053FC00F0DCFD5EE0E5
:10682000B4F5807F1FD14FF6FF7000F07DF9002195
:106830000846FFF711FD41480078102142A248F2B6
:106840001003CDE9002102904FF6FF72D8214FF4DA
:10685000D27001F035FC00203449086001208882A4
:1068600000F0C2FD3BE0402C16D1FFF7CFFC3348CF
:106870000078102136A248F21003CDE900210290E1
:106880004FF6FF724FF485714FF4D27001F018FC8F
:1068900000202349087022E0B4F5801F05D1234869
:1068A0000068401C2149086019E0B4F5001F05D1BB
:1068B0001E480068401C1D49086010E0B4F5000F38
:1068C00005D11A480068401C1849086007E0B4F573
:1068D000800F04D115480068401C14490860204608
:1068E0003EBD10B51C49AFF2C110FBF760F810BDFA
:1068F00010B500210846FFF7AFFC10BD10B54FF6EC
:10690000FF7000F011F900F06FFD002007490860EA
:106910000120888210BD000028812342DED10020A2
:1069200007D00020DFD1002012D20020D8D30020D1
:10693000E2D10020E4D10020B0D10020AFD100206E
:10694000BFAACABC00000000C7E5C1E30000000008
:10695000B7B5BBD800000000C701F00F08B5012192
:10696000442002F05DF81820ADF8000048208DF8B2
:10697000030069462F4801F097FD0120ADF80000A3
:1069800028208DF8030069462B4801F08DFD08BDD5
:1069900010B5044614B10120284908702748007832
:1069A00088B31021234801F012FE50B1082121487C
:1069B00001F00DFE28B101211F4801F008FE012859
:1069C00022D10A20FAF733FE00201C49087010215A
:1069D000184801F0FCFD18B90120FBF702F827E088
:1069E0000821144801F0F3FD18B90220FAF7F9FF65
:1069F0001EE00121104801F0EAFD012818D1042011
:106A0000FAF7EFFF14E0FFE710210A4801F0DFFD7D
:106A100001280DD10821074801F0D9FD012807D12F
:106A20000121054801F0D3FD10B901200349087088
:106A300010BD00000018014000080140E0D1002016
:106A4000FE4908807047FD49891C0880704700B5E1
:106A500002461046FFF7F7FF00BDF84A1080921C6F
:106A60001180704700B5F6490889FFF7E9FF00BDBE
:106A700000B502460B46F2494889FFF7E1FF1012C4
:106A8000FFF7E1FFD0B2FFF7DEFF511C0812FFF75E
:106A9000DAFF511C88B2FFF7D6FFE9498889FFF772
:106AA000CFFF1812FFF7CFFFD8B2FFF7CCFF591C6A
:106AB0000812FFF7C8FF591C88B2FFF7C4FFFFF7A1
:106AC000D1FF00BD30B504460D4629462046FFF7EC
:106AD000CFFFDC480088FFF7B6FF30BD30B5044675
