:020000040800F2
:10000000580B0020E1700008E9700008EB70000850
:10001000ED700008EF700008F170000800000000AB
:10002000000000000000000000000000F370000865
:10003000F570000800000000F7700008790800085B
:10004000FB700008FB700008FB700008FB700008E4
:10005000FB700008FB700008FB700008FB700008D4
:10006000A1630008EF6300083D640008FB7000080E
:10007000FB700008FB700008FB700008FB700008B4
:10008000FB700008FB700008FB700008FB700008A4
:10009000FB700008FB700008FB7000088B64000810
:1000A000FB700008FB700008FB700008FB70000884
:1000B000FB700008FB70000857650008FB70000823
:1000C000FB700008FB700008FB700008FB70000864
:1000D000FB70000865700008FB700008FB700008EA
:1000E000FB700008FB700008FB700008FB70000844
:1000F000FB700008FB700008FB700008FB70000834
:10010000FB700008FB700008FB700008FB70000823
:10011000FB700008FB700008FB700008FB70000813
:10012000FB700008FB700008FB700008FB70000803
:1001300000F002F800F05FF80AA090E8000C82449A
:100140008344AAF10107DA4501D100F054F8AFF277
:10015000090EBAE80F0013F0010F18BFFB1A43F0A5
:10016000010318471CAB00003CAB00000A444FF0F1
:10017000000C10F8013B13F0070408BF10F8014B06
:100180001D1108BF10F8015B641E05D010F8016B4B
:10019000641E01F8016BF9D113F0080F1EBF10F8AF
:1001A000014BAD1C0C1B09D16D1E58BF01F801CBD2
:1001B000FAD505E014F8016B01F8016B6D1EF9D555
:1001C0009142D6D37047000000230024002500266A
:1001D000103A28BF78C1FBD8520728BF30C148BFAA
:1001E0000B607047642908F02B86002070471FB50C
:1001F0001FBD10B510BD08F031FF1146FFF7F7FF26
:1002000000F008F808F04FFF03B4FFF7F2FF03BC5B
:1002100006F0CEFE0EB500F07DFC4FF4A06006F0B7
:100220007FFFFE4C206880474FF4E13006F0CBFEA4
:1002300006F006F805F0F7FC05F090FF05F078FBF6
:1002400006F060F800F0CCFC00F086FB00F096FBB6
:1002500041F61F41632006F051F960688047F0497C
:1002600048604FF47A71B0FBF1F201FB1202B0FB6F
:10027000F1F1ECA008F0A4FDF14FDFF8C8B34FF0A6
:10028000000810254FF6FF79EF480078D0B1EF4C09
:100290002068012806D1E14840688047EC490860A1
:1002A000C4F80080DD4840688047E9490968401A81
:1002B00038600021D0F1FF3071EB080102DA4FF015
:1002C000FF303860E348007801280AD002287DD04A
:1002D00003287CD004287BD005287AD0062879D042
:1002E00047E2DFF874A3AAF80090E720ABF800001B
:1002F000DA4E4FF47A74092330686021B0FBF4F2CF
:10030000D220009506F012FB2E208DE82101BBF8CB
:100310000030BAF8002060214FF48D7006F05AFAD0
:1003200030680323B0FBF4F104FB110260214FF4A9
:100330009170009506F04AFB70680923B0FBF4F257
:100340009221D220009506F0F1FA2E208DE82101AD
:10035000BBF80030BAF8002092214FF48D7006F0FF
:1003600039FA70680323B0FBF4F104FB1102922107
:100370004FF49170009506F029FBB0680923B0FB9B
:10038000F4F2C421D220009506F0D0FA2E208DE898
:100390002101BBF80030BAF80020C4214FF48D7061
:1003A00006F018FAB0680323B0FBF4F104FB110265
:1003B000C4214FF49170009506F008FBF068092302
:1003C000B0FBF4F2F621D220009504E040E069E0B1
:1003D00091E0B9E006E106F0A9FA2E208DE82101AE
:1003E000BBF80030BAF80020F6214FF48D7006F00B
:1003F000F1F9F0680323B0FBF4F104FB1102F621DC
:100400004FF49170009506F0E1FA38680823B0FBCC
:10041000F4F228214FF4B470009506F087FA2E20EC
:100420008DE82101BBF80030BAF8002028214FF4F4
:10043000D47006F0CFF938680323B0FBF4F104FB65
:10044000110228214FF4D870009506F0BFFA90E110
:10045000814EA6F80090E720ABF8000038684FF412
:100460007A74B0FBF4F2082316214FF4B4700095AF
:1004700006F05CFA2E208DE82101BBF800303288AE
:1004800016214FF4D47006F0A5F938680323B0FBA9
:10049000F4F104FB110216214FF4D870009506F018
:1004A00095FA66E16C4EA6F80090E720ABF80000E4
:1004B00038686424B0FBF4F2072316214FF4BC70B3
:1004C000009506F033FA2E208DE82101BBF80030AC
:1004D000328816214FF4D87006F07CF93868022370
:1004E000B0FBF4F104FB110216214FF4DC7000950F
:1004F00006F06CFA3DE1584EA6F80090E720ABF804
:10050000000038686424B0FBF4F2072316214FF48E
:10051000BC70009506F00AFA2E208DE82101BBF888
:100520000030328816214FF4D87006F053F938683D
:100530000223B0FBF4F104FB110216214FF4DC702E
:10054000009506F043FA14E1BE2696200290DFF8EB
:1005500008A1E720AAF80000ABF80090404820244A
:10056000009402686E210723D62006F09BFA3868B3
:100570003C490323B0FBF1F200943046029906F0A7
:1005800091FA0B200090BBF80030BAF80020EE2062
:10059000029906F05EFA38684FF47A76B0FBF6F00E
:1005A000B0FBF6F106FB110203230094FE20029932
:1005B00006F078FA0B200090BBF80030BAF8002063
:1005C0004FF49770029906F044FA38680323B0FBA1
:1005D000F6F106FB110200944FF49F70029906F0A9
:1005E00061FAC6E01C48A0F80090E720ABF80000D4
:1005F0001D4C3868A061A28B2168B1FBF2F16160EB
:10060000B0FBF1F1A160194AB2FBF1F1C4E90418A1
:100610004FF47A7AB0FBFAF2062329E008000020B2
:10062000000000200D0A53595354454D20494E49AE
:10063000542054494D453A25642E25640D0A000086
:100640006C020020340200206402002068020020B6
:10065000700200201D0000203202002078040020DB
:10066000D001002040420F004804002000CA9A3BFD
:100670004A4E009550213078403006F057F92E2030
:100680008DE821014648BBF80030502102883078BF
:10069000703006F09FF8A0690095B0FBFAF10AFBF4
:1006A0001102307803235021783006F08FF9A068CA
:1006B0000095B0FBFAF2307806238221403006F034
:1006C00035F92E208DE821013548BBF80030822114
:1006D00002883078703006F07DF8A0680095B0FB95
:1006E000FAF10AFB1102307803238221783006F0F8
:1006F0006DF9D4E904015246002308F0E9FA0246F4
:10070000009530780623B421403006F00FF92E20F2
:100710008DE821012248BBF80030B42102883078EE
:10072000703006F057F8D4E904015246002308F06F
:10073000CFFA009530780323B421783006F046F9DB
:1007400000953078A28B06235021EB3006F0EEF8AE
:100750000095307806238221EB30226806F0E6F817
:10076000009530780623B42100F20310626806F089
:10077000DDF80B4CE720208000234FF4F076324662
:100780001946184605F026FF012332461946002077
:1007900005F020FFA4F8009076E50000000000209E
:1007A0003202002030B500F00703C3F10704042C27
:1007B00000D90424181D072801D2002300E0DB1E05
:1007C000012505FA04F0401E084098409D406D1E2A
:1007D0001540284330BD10B5042006F0E9FC594807
:1007E0005A4A01685848B1FBF0F0106080B24FF4EB
:1007F0007A735843506001201073002090601846AF
:10080000B1FBF0F000F088F851480068C0F3022016
:1008100000220121FFF7C6FF0146BDE810404FF05E
:10082000FF3000F069B87047704710B5042006F03B
:10083000BFFC444844490068B0FBF1F243490A60F8
:100840004FF47A72B0FBF2F34B6001230B73002379
:100850008B60B0FBF2F000F05FF83D480068C0F339
:10086000022000221146FFF79DFF0146BDE810401F
:100870004FF0FF3000F040B834488168027B1144EB
:100880008160704710B531494FF0E02388689A695C
:100890008C688442FAD14968B2FBF1F1401A10BD6C
:1008A00010B52A494FF0E02388689A698C68844221
:1008B000FAD10968B2FBF1F100EB4002C2EBC010C3
:1008C000C1EBC00010BD70B50546224C6068804782
:1008D0000544ED1E60688047A842FBD970BD70B525
:1008E00004461C4D4FF47A7602E0E96830468847AA
:1008F000641E601CF9D170BD0907090E002806DAD4
:1009000000F00F0000F1E02080F8141D704700F1A6
:10091000E02080F80014704710B5B0F1807F01D35B
:10092000012010BD20F07F404FF0E024401E6061A8
:100930000F216017FFF7E0FF0020A0610720206172
:10094000002010BD2000002040420F009002002037
:100950000CED00E00800002010B500F086FE01F06C
:10096000A3F903F0D3FB04F0F7FA04F09FFC04F0C2
:10097000B9FFBDE8104037A008F022BA394900207D
:100980004870704770B50446364D2878844238D098
:10099000072819D2DFE800F004070A0D101316002B
:1009A00000F06CFE10E001F08DF90DE003F0BCFBEF
:1009B0000AE003F0B9FB07E004F0D7FA04E004F022
:1009C0007DFC01E004F096FF072C19D2DFE804F06B
:1009D00004070A0D1013160000F04CFE10E001F0A1
:1009E00068F90DE003F096FB0AE003F093FB07E0E3
:1009F00004F0B7FA04E004F05EFC01E004F077FFD5
:100A00002C7070BD17484078072813D2DFE800F03B
:100A10000406080A0C0E100000F0D0BB00F066BF00
:100A200002F0E8B802F0E6B803F099BD04F060BB4C
:100A300004F0ABBD704710B50B48416800208847F3
:100A4000002004F092FF07484078FFF79BFFBDE8C5
:100A50001040D7E766756E207061676520696E6922
:100A6000740D0A001C0000203C0200200CB500227E
:100A7000019200925248016841F4803101604FF4C4
:100A8000A063016801F4003100910199491C0191B2
:100A9000009911B901999942F3D10168890302D5EE
:100AA0000121009100E000920099012930D14549CF
:100AB0000A6842F010020A600A6822F003020A6023
:100AC0000A6842F002020A60416841604168416080
:100AD000416841F480614160416821F47C114160CA
:100AE000416841F4E8114160016841F080710160A2
:100AF00001688901FCD5416821F00301416041682A
:100B000041F0020141604168C1F381010229FAD13B
:100B10000CBDABE710B52A48016841F00101016046
:100B20004168294A114041600168284A114001602A
:100B3000016821F480210160416821F4FE014160D7
:100B40004FF41F018160FFF7E4FF21494FF000607F
:100B5000086010BD10B51A4A506800F00C011D4B1A
:100B60001D4800290ED004290ED008290ED003609C
:100B70005168194AC1F30311121D515C0268CA4041
:100B8000026010BD0360F3E70360F1E7516801F410
:100B90007011536803F48033022404EB914133B1A4
:100BA00053689B0307D50D4B59430160E0E70B4B9E
:100BB00059430160DCE7074B59430160D8E7000067
:100BC00000100240002002400000FFF8FFFFF6FE88
:100BD00008ED00E000127A002000002000093D002E
:100BE00010B54FF4C871184808F085F9BDE81040F9
:100BF00016A008F0E5B810B50022134B53F83240A8
:100C000024B1521CD2B2322AF8D310BD43F83200BC
:100C100003EBC200416012490878401C087010BD07
:100C200070B50024084D0E4E0AE005EBC40149687A
:100C3000014204D055F834108847002803D0641CC2
:100C400031788C42F1DB70BDA00200206576656EC4
:100C50007420717565756520696E69740D0A0000F0
:100C6000340000203EB5F94C1025F9A1E078CDE91B
:100C700000150290638AA28A6178207806F0B4F8A1
:100C8000E078F8A1CDE9001502906078A178638A38
:100C90000144A28A207806F0A7F8E078F6A1CDE911
:100CA000001502906178A078638A01440144A28A09
:100CB000207806F099F8E078F7A1CDE900150290C8
:100CC0006178A078638A014401440144A28A2078B3
:100CD00006F08AF8E078F6A1CDE900150290617877
:100CE000A078638A0144014401440144A28A207827
:100CF00006F07AF8E078F1A1CDE90015029061786C
:100D0000A078638A01440144014401440144A28A59
:100D1000207806F069F8E078EEA1CDE900150290A0
:100D20006178A078638A014401440144014401448C
:100D300001444FF478424FF4D27006F055F83EBDAE
:100D40002DE9FE4FE54C4FF0E708CDF8008000217B
:100D500022881423084605F01AFC01271026E0A07B
:100D60008DE8C1004FF6FF7A1F2352460221002072
:100D700006F0B0F8B54800231C308DE8C10052469B
:100D800004214FF4B97006F02FF8CDF800A0608868
:100D90002288143883B21421002005F0F8FB4FF0AC
:100DA0000009D5A0CDE900095346E72264211E20A1
:100DB00005F09AFFA54DD1A1E723E878CDE900160B
:100DC00002905246AA211E2006F00EF8FFF74AFFB5
:100DD0000024DFF834A305F1160BAAF80080687828
:100DE000A97895F800C001FB0401287900F11002F0
:100DF0000A4493B21BF80420091A0CEB02120244B5
:100E0000ACEB0000383289B280B205F02FFCE878F4
:100E1000BEA1CDE9001602906878A9786B8A04FB20
:100E2000010081B22878E722283880B205F0DCFF83
:100E3000641CE4B2062CD0D3A878697800EB40009B
:100E40002A7901EB40008318801A81B2103302F531
:100E5000E2724FF4CD7005F009FC7C480023283085
:100E60008DE841024FF6FF724FF49871184605F075
:100E7000BBFFA7480760BDE8FE8FFEB50646734D71
:100E80006E71FFF7EFFE6979002310244FF6FF72B1
:100E900001290ED0022918D0032924D0042931D0E9
:100EA00005293FD006294ED008295ED009295ED0F9
:100EB0006FE06B74E87866A1CDE900140290E72337
:100EC0006978287805F090FF63E06B74E87865A195
:100ED000CDE9001402906878A978E72301442878C6
:100EE00005F082FF55E06B74E87863A1CDE900144A
:100EF00002906978A878E72301440144287805F036
:100F000073FF46E06B74E87863A1CDE900140290AA
:100F10006978A878E723014401440144287805F062
:100F200063FF36E06B74E87861A1CDE900140290AC
:100F30006978A878E72301440144014401442878F2
:100F400005F052FF25E06B74E8785CA1CDE9001450
:100F500002906878A978E7230844084408440844C4
:100F60000144287805F040FF13E06B7411E0E87845
:100F700058A1CDE9001402906878A978E7230844C5
:100F8000084408440844084401444FF4D27005F072
:100F90002BFF6979A879814205D1082905D0092953
:100FA00003D05C480670A971FEBD0929FBD1687C9D
:100FB000401CC0B268740228F5D1584A56481060E7
:100FC000F1E72DE9F041044652480078002824D189
:100FD0001E4D0023012695F90F002A7C411E012C8D
:100FE0001CD0022C28D00627042C26D0B4F5805F14
:100FF00024D0B4F5005F22D0B4F5804F20D0B4F5F2
:10100000004F1ED0B4F5803F1CD0B4F5003F1AD07D
:10101000B4F5802F18D0202C17D0CCE048B2E8735C
:10102000012800DAEE7395F90F00012879D02E74AB
:10103000C0B2FFF722FFBEE079E07EE092E096E0EA
:101040009BE0A0E0A5E0AAE0AEE0B1E03600002021
:10105000CAB5D1E931A3BAB2E2C1BFB5B2B9E2CAE9
:10106000B1BCE400CAB5D1E932A3BAB2E2C1BFCB88
:10107000B2CAB1CBD9B6C800CAB5D1E933A3BAB2A6
:10108000E2C1BFD4C8B1E4CBD9D4CBB6AFB5C4BCF0
:10109000D3CBD9B6C8000000CAB5D1E934A3BAB2DF
:1010A000E2C1BFC5F6D7B2D6D0B5C4B6AFC1BF0096
:1010B000CAB5D1E935A3BABCC6CAFD00CAB5D1E9E3
:1010C00036A3BAB2E2C1BFD6DCC6DABACDC6B5C263
:1010D000CA000000CDCBB3F6000000006804002079
:1010E000B9E2B5E7BCC6CAB1CAFDD7D6CAB5D1E91F
:1010F000CFB5CDB300000000BBD50000C6BDB4A87D
:10110000D6D0D1A70000000032020020F7CE0000A8
:10111000808121421D0000200400FA050CED00E052
:10112000FFE71AB32B740120FFF7A7FE43E006295F
:1011300041D2C0B2FFF7A1FE3DE0401C40B2E873CF
:10114000062800DDEF7395F90F00062804D02E74F1
:10115000C0B2FFF792FE2EE042B12B740620FFF7DB
:101160008CFE28E00120FFF788FEEE7323E00220CA
:10117000FFF783FE0220E8731DE00320FFF77DFEEA
:101180000320E87317E00420FFF777FE0420E873DC
:1011900011E00520FFF771FE0520E8730BE0062043
:1011A000FFF76BFEEF7306E00820FFF766FE02E034
:1011B0000920FFF762FE2046BDE8F0812DE9F05FCF
:1011C000DFF82484DFF8249408F1160498F800204E
:1011D00098F804002378A2EB000A02EB03124346BE
:1011E00002445B78B9F81010A3EB000C03444846A6
:1011F000383210330025FE4E0127408A8A4510DA26
:1012000091420ED284450CDA98420AD298F807B07F
:10121000BBF1000F05D088F807503803FFF700FD39
:101220000DE08A4509DA914207D2844505DA9842F1
:1012300003D2D6F82801012801D188F8077098F860
:10124000002098F80400B9F81010131A8B4224DA21
:1012500094F801C002EB0C1C84440CF1380C61457D
:101260001BD298F801C098F802A0D444B9F812A093
:10127000ACEB000BD34510DA84440CF1100CE245C2
:101280000BD298F808C0BCF1000F06D088F80850BF
:101290004FF40050FFF7C4FC1CE08B4218DA63786F
:1012A00002EB031202443832914211D298F8011035
:1012B00098F802200A44B9F81210131A8B4207DA80
:1012C00010441030814203D2D6F82801012801D100
:1012D00088F8087098F8002098F80400B9F8101001
:1012E000131A8B4225DA94F802C002EB0C1C8444DA
:1012F0000CF1380C61451CD298F801C098F802A096
:101300000CEB4A0CB9F812A0ACEB000BD34510DA89
:1013100084440CF1100CE2450BD298F809C0BCF1E2
:10132000000F06D088F809504FF48040FFF778FC92
:101330001DE08B4219DAA37802EB03120244383223
:10134000914212D298F8011098F8022001EB420263
:10135000B9F81210131A8B4207DA10441030814288
:1013600003D2D6F82801012801D188F8097098F82D
:10137000002098F80400B9F81010131A8B4226DAEE
:1013800094F803C002EB0C1C84440CF1380C61454A
:101390001DD298F802C098F801A00CEB4C0CD44474
:1013A000B9F812A0ACEB000BD34510DA84440CF171
:1013B000100CE2450BD298F80AC0BCF1000F06D021
:1013C00088F80A504FF40040FFF72AFC1EE08B42D9
:1013D0001ADAE37802EB031202443832914213D254
:1013E00098F8021098F8012001EB41010A44B9F87D
:1013F0001210131A8B4207DA10441030814203D2C4
:10140000D6F82801012801D188F80A7098F8002040
:1014100098F80400B9F81010131A8B4225DA94F8E2
:1014200004C002EB0C1C84440CF1380C61451CD246
:1014300098F801C098F802A00CEB8A0CB9F812A039
:10144000ACEB000BD34510DA84440CF1100CE245F0
:101450000BD298F80BC0BCF1000F06D088F80B50E7
:101460004FF48030FFF7DCFB1DE08B4219DA237963
:1014700002EB031202443832914212D298F8011062
:1014800098F8022001EB8201B9F812200B1A93425E
:1014900007DA08441030824203D2D6F82801012826
:1014A00001D188F80B7098F8002098F80400B9F87A
:1014B0001010131A8B4226DA94F805C002EB0C1CAC
:1014C00084440CF1380C61451DD298F802C098F89C
:1014D00001A00CEB8C0CD444B9F812A0ACEB000BBF
:1014E000D34510DA84440CF1100CE2450BD298F885
:1014F0000CC0BCF1000F06D088F80C504FF400303F
:10150000FFF78EFB1EE08B421ADA637902EB0312BF
:1015100002443832914213D298F8021098F8012010
:1015200001EB81010A44B9F81210131A8B4207DA51
:1015300010441030814203D2D6F82801012801D18D
:1015400088F80C70B9F810004FF4CD74A04220D97F
:1015500098F8041001F5E27290421AD298F802202D
:1015600098F8013002EB82021344B9F81220A3EB81
:10157000010C94450DDA194410318A4209D298F8C9
:101580000D1031B188F80D504FF48020FFF748FB63
:101590001DE0A04219D998F8041001F5E2729042BA
:1015A00013D298F8020098F8012000EB8000024462
:1015B000B9F81200531A834207DA114410318842F5
:1015C00003D2D6F82801012801D188F80D70B9F8A6
:1015D0001000A04228D998F8041001F5E272904258
:1015E00022D298F8022005E0360000203C020020BC
:1015F0000080234298F8013002EB420203EB4202E2
:10160000B9F81230A2EB010C9C450DDA11441031EF
:101610008B4209D298F80E1031B188F80E50BDE80F
:10162000F05F2020FFF7FCBAA0421AD998F8041006
:1016300001F5E272904214D298F8020098F8012065
:1016400000EB400002EB4002B9F81200531A83424B
:1016500007DA11441031884203D2D6F82801012854
:1016600001D188F80E70BDE8F09F0F49AFF2AD6070
:10167000FFF7C1BA00210846FFF762BB10B54FF66D
:10168000FF7004F037FA09480121C17101724172FB
:101690008172C1720173417381730022C27301743C
:1016A00007214171817110BD27F00700360000202D
:1016B000FEB5FA4C1025FAA16078CDE9001502902C
:1016C0004FF4D276E3882289A621304605F08CFBC0
:1016D0006078F5A1CDE900150290E3882289D82130
:1016E000304605F081FB6078F1A1CDE9001502904C
:1016F000E3884FF478424FF48571304605F074FB6F
:10170000FEBD2DE9FE4FEC4CE72500950021228817
:101710001423084604F03BFF1026E8A1CDE900168B
:1017200001204FF6FF7702901F233A460221002046
:1017300005F0D0FB0097638822881421002004F074
:1017400026FFD64CE3A16078CDE900160290E3882D
:1017500022892821142005F047FB6078E2A1CDE919
:1017600000160290E38822892821FE2005F03CFB28
:101770006078E5A1CDE900160290E3882289602116
:10178000822005F031FB6078E2A1CDE900160290DD
:10179000E38822899221822005F026FB6078E0A16F
:1017A000CDE900160290E3882289C421822005F049
:1017B0001BFB6078DDA1CDE900160290E388228949
:1017C000F621822005F010FB6078DBA1CDE9001640
:1017D00002904FF49F78E38822896021404605F00B
:1017E00003FB6078D4A1CDE900160290E38822893A
:1017F0009221404605F0F8FA6078CFA1CDE90016B5
:101800000290E3882289C421404605F0EDFA607811
:10181000C9A1CDE900160290E3882289F62140464D
:1018200005F0E2FAC548058000254FF056094FF44F
:10183000BC784FF07A0A05EBC50000EB051B09EBFD
:101840004B010B464246502004F0C4FE0AEB4B010C
:101850000B464246502004F0BDFE6D1CEDB2042D37
:10186000E9D34FF4887550222B465621104604F0D8
:10187000B1FE40462B460246562104F0ABFEFFF770
:1018800017FF00254FF0A60905EBC500227800EBF5
:101890000518C2EB4800A63002EB480381B2C2F53E
:1018A000D270B63302F5E27204F0E0FE6078A4A1D3
:1018B000CDE900160290207809EB4801C0F5CA7006
:1018C000E388E72205F090FA6D1CEDB2032DDBD31F
:1018D000724900201C31CDE9001603463A460290B9
:1018E0004FF4987105F080FABDE8FE8F2DE9F047BE
:1018F0006A4CDFF85082002521784046C1F5D27944
:10190000B8F81020C1F1A60C01F1B6038E4E0127E4
:10191000408A01F5E27191450FD28A420DD2844589
:101920000BDA984209D294F802A0BAF1000F04D061
:10193000A5708020FFF774F90CE0914509D28A4226
:1019400007D2844505DA984203D2D6F82801012847
:1019500000D1A7702078B8F81010C0F5D2728A4272
:1019600015D200F5E273994211D2B8F81230C0F1E5
:10197000D80C9C450BDA00F1E80C634507D2E378FC
:101980002BB1E5704FF48070FFF74AF913E08A42FB
:1019900010D200F5E27291420CD2B8F81210C0F1E8
:1019A000D8028A4206DAE830814203D2D6F828010A
:1019B000012800D1E7702078B8F81010C0F5D27275
:1019C0008A4215D200F5E273994211D2B8F812306A
:1019D000C0F5857C9C450BD200F58D7C634507D214
:1019E00023792BB12571BDE8F0474020FFF718B9E6
:1019F0008A4211D200F5E27291420DD2B8F812106B
:101A0000C0F585728A4207D200F58D70814203D2FB
:101A1000D6F82801012800D12771BDE8F0872DE90B
:101A2000FE4F0446494F3878012831D11B4D10260E
:101A30004FF0000848F210094FF6FF7A4FF4857B0B
:101A4000012C26D0022C25D0042C24D0802C23D08D
:101A5000B4F5807F21D0402C7ED03D48B4F5801F66
:101A600040687AD03B4EB4F1807F77D0B4F5001F48
:101A700075D0B4F1007F73D0B4F5000F71D0B4F11C
:101A8000006F6FD0B4F5800F6DD0B4F1806F6BD064
:101A900008E16AE07EE092E0A6E0BAE08000002083
:101AA000BFAACABC00000000C7E5C1E300000000F7
:101AB000B7B5BBD80000000068040020B9E2B5E764
:101AC000BCC6CAB1CAFDD7D6CAB5D1E9CFB5CDB368
:101AD00000000000CAB5D1E931A3BAB2E2C1BFB576
:101AE000B2B9E2CAB1BCE400CFB5CDB3BCC6CAB18D
:101AF000CAB1BCE43A202020202020202020202031
:101B000020206D7300000000B4ABB8D0C6F7313AA6
:101B100000000000B4ABB8D0C6F7323A00000000B5
:101B2000B4ABB8D0C6F7333A00000000B4ABB8D0BD
:101B3000C6F7343A000000006D7300003202002046
:101B4000F7CE00003C020020008023421D00002050
:101B5000080000207804002070E084E086E08AE03D
:101B60008CE090E092E096E098E0FFF7A1FD6878C5
:101B7000AFF2C401CDE9001602904B4652465946D9
:101B80004FF4D27005F030F956A007F019F987F834
:101B9000008087E0FFF78CFD6878AFF2FC01CDE9AB
:101BA000001602904B465246A6214FF4D27005F023
:101BB0001BF950A007F004F904F089FB72E0FFF76D
:101BC00077FD6878AFF22011CDE9001602904B4600
:101BD0005246D8214FF4D27005F006F94AA007F01A
:101BE000EFF804F079FB5DE0FFF762FD6878AFF293
:101BF0005011CDE9001602904B465246A6214FF4F3
:101C0000D27005F0F1F845A007F0DAF804F05FFBB8
:101C100048E0FFF74DFD6878AFF27411CDE900168A
:101C200002904B465246D8214FF4D27005F0DCF8B2
:101C30003FA007F0C5F804F04FFB33E0FFF738FD95
:101C40006878AFF29411CDE9001602904B465246E7
:101C500059464FF4D27005F0C7F83AA007F0B0F833
:101C600087F800801EE08047E8601BE08047E96855
:101C7000401A306016E08047286113E080472969E8
:101C8000401A70600EE0804768610BE08047696928
:101C9000401AB06006E08047A86103E08047A96968
:101CA000401AF06020461FE62B49AFF28D20FEF768
:101CB000A2BF10B529A007F083F80021BDE81040AD
:101CC00008461EE510B528A007F07AF84FF6FF7019
:101CD00003F010FF04F000FB274901200871C870D1
:101CE000887010BD6C6162315F6B65795F626163A2
:101CF0006B0D0A006C6162315F6B65795F737472A2
:101D000061740D0A000000006C6162315F6B6579DF
:101D10005F636C6561720D0A000000006C616231E6
:101D20005F746F7563685F73747261740D0A00008D
:101D30006C6162315F746F7563685F636C6561725B
:101D40000D0A00006C6162315F746F7563685F62D9
:101D500061636B0D0A000000C701F00F6C61623116
:101D60005F696E69740D0A006C6162315F636C6F4C
:101D700073650D0A00000000800000202DE9FE4F71
:101D8000FFF796FCDFF804A44FF6FF77AAF800707F
:101D9000DFF8FC83E720A8F80000FE4CFE4E10257B
:101DA000617B4FF02E094FF4D2704FF0200B0129C8
:101DB0007ED06178F9A2CDE900250291A38AE28A5A
:101DC000422105F011F86078F6A1CDE900150290E6
:101DD0004FF47C433A4674214FF4D27005F004F876
:101DE00084F802B06078F1A1CDE900150290A38AD1
:101DF000E28A2179E07804F0F7FF6078F0A1CDE97C
:101E0000001502902079A178A38A00EB4101E28AB3
:101E1000E07804F0E9FF6078EEA1CDE900150290CA
:101E2000A38AE28A2179A07904F0DEFF6078EEA12E
:101E3000CDE9001502902079A178A38A00EB410139
:101E4000E28AA07904F0D0FF306A4FF47A77B0FBD1
:101E5000F7F20095E07806232179213004F066FD41
:101E60006078CDE900950290E078B8F80030BAF8D3
:101E700000202179513004F0ADFC306A0095B0FBB0
:101E8000F7F107FB1102E07803232179593004F0C0
:101E90009DFD706A0095B0FBF7F22079A1780623CA
:101EA00000EB4101E078213004F040FD607800E073
:101EB00071E0CDE9009502902079A178B8F8003062
:101EC00000EB4101E078BAF80020513004F082FCC8
:101ED000706A0095B0FBF7F107FB11022079A17839
:101EE000032300EB4101E078593004F06FFDB06A44
:101EF000009590FBF7F2A07906232179213004F0B8
:101F000015FD6078CDE900950290A079B8F8003011
:101F1000BAF800202179513004F05CFCB06A0095D9
:101F200090FBF7F107FB1102A079032321795930C7
:101F300004F04CFDF06A009590FBF7F22079A1784F
:101F4000062300EB4101A079213004F0EFFC60781A
:101F5000CDE9009502902079A178B8F8003000EB27
:101F60004101A079BAF80020513004F033FCF06A46
:101F7000009590FBF7F107FB11022179A07803236C
:101F800001EB4001A079593004F020FD9B4E3078E0
:101F900003287DD0F4E3617880A2CDE90025029189
:101FA0004FF47C434FF6FF724221074604F01CFFBA
:101FB00060787CA1CDE900150290A38AE28A7421A1
:101FC000384604F011FF8D480078022802D003281B
:101FD0007ED0A8E32820A070607889A1CDE9001503
:101FE0000290A38AE28A6179E07804F0FDFE6078CD
:101FF00088A1CDE9001502906079A178A38A0144F7
:10200000E28AE07804F0F0FE607887A1CDE900155F
:1020100002906079A178A38A00EB4101E28AE0781E
:1020200004F0E2FE607885A1CDE900150290A07869
:10203000617900EB40000144A38AE28AE07804F071
:10204000D3FE607882A1CDE900150290A38AE28ACE
:102050006179A07904F0C8FE607882A1CDE900150D
:1020600002906079A178A38A0144E28AA07904F001
:10207000BBFE607880A1CDE9001502906079A1785F
:10208000A38A00EB4101E28AA07904F0ADFE00E0F2
:1020900077E360787DA1CDE900150290A0786179A1
:1020A00000EB40000144A38AE28AA07904F09CFE80
:1020B00030684FF47A77B0FBF7F20095E0780623AA
:1020C00061791C3004F032FC6078CDE9009500E0C5
:1020D000CCE10290E078B8F80030BAF800206179DD
:1020E0004C3004F077FB30680095B0FBF7F107FB4C
:1020F0001102E07803236179543004F067FC7068C2
:102100000095B0FBF7F26079A17806230144E078EE
:102110001C3004F00BFC6078CDE9009502906079EA
:10212000A178B8F800300144E078BAF800204C30CB
:1021300004F050FB70680095B0FBF7F107FB11024B
:102140006079A17803230144E078543004F03EFC28
:10215000B0680095B0FBF7F26079A178062300EB38
:102160004101E0781C3004F0E1FB6078CDE9009596
:1021700002906079A178B8F8003000EB4101E07876
:10218000BAF800204C3004F025FB89E03202002030
:1021900034020020C400002078040020B7BDB7A896
:1021A00031000000B7BDB7A8320000007431323AE8
:1021B00020202020202020202020206D73000000DF
:1021C0007433343A20202020202020202020206D2D
:1021D000730000007631323A202020202020202079
:1021E0002020206D2F7300007633343A20202020E9
:1021F000202020202020206D2F7300001D000020B3
:1022000074313A20202020202020202020206D73AF
:102210000000000074323A202020202020202020BE
:1022200020206D730000000074333A20202020200D
:102230002020202020206D730000000074343A20FC
:10224000202020202020202020206D73000000006E
:1022500076313A20202020202020202020206D2FA1
:102260007300000076323A202020202020202020F9
:1022700020206D2F7300000076333A20202020208C
:102280002020202020206D2F7300000076343A207B
:10229000202020202020202020206D2F73000000EF
:1022A000B0680095B0FBF7F107FB11026079A178E7
:1022B000032300EB4101E078543004F087FBF06821
:1022C0000095B0FBF7F2A078617900EB4000014483
:1022D000E07806231C3004F029FB6078CDE90095F6
:1022E0000290A078617900EB40000144E078B8F8F2
:1022F0000030BAF800204C3004F06CFAF068009519
:10230000B0FBF7F107FB1102A078617900EB400008
:102310000144E0780323543004F058FB3069009501
:1023200090FBF7F2A079062361791C3004F0FEFAE5
:102330006078CDE900950290A079B8F80030BAF83D
:10234000002061794C3004F045FA3069009590FB2B
:10235000F7F107FB1102A07903236179543004F0EF
:1023600035FB7069009590FBF7F26079A178062340
:102370000144A0791C3004F0D9FA6078CDE90095C9
:1023800002906079A178B8F800300144A079BAF8D9
:1023900000204C3004F01EFA7069009590FBF7F1B4
:1023A00007FB11026079A17803230144A07954301E
:1023B00004F00CFBB069009590FBF7F26079A1780E
:1023C000062300EB4101A0791C3004F0AFFA6078DD
:1023D000CDE9009502906079A178B8F8003000EB63
:1023E0004101A079BAF800204C3004F0F3F9B0694B
:1023F000009590FBF7F107FB11026079A1780323A8
:1024000000EB4101A079543004F0E0FAF069009546
:1024100090FBF7F2A078617900EB40000144A079CD
:1024200006231C3004F082FA6078CDE90095029012
:10243000A078617900EB40000144A079B8F8003041
:10244000BAF800204C3004F0C5F9F069009590FB13
:10245000F7F107FB1102A078617900EB400001441D
:10246000A0790323543004F0B1FA5CE11E20A0707F
:102470006078F8A1CDE900150290A38AE28A61791B
:10248000E07804F0B1FC6078F6A1CDE90015029087
:102490006079A178A38A0144E28AE07804F0A4FC80
:1024A0006078F4A1CDE900150290A078617900EB85
:1024B00040000144A38AE28AE07804F095FC607849
:1024C000F0A1CDE9001502906079A178A38A00EB14
:1024D0008101E28AE07804F087FC6078EDA1CDE923
:1024E00000150290A38AE28A6179A07904F07CFC4D
:1024F0006078EDA1CDE9001502906079A178A38AFA
:102500000144E28AA07904F06FFC6078EBA1CDE988
:1025100000150290A078617900EB40000144A38A85
:10252000E28AA07904F060FC6178E9A0CDE901516C
:1025300000906079A178A38A00EB8101E28AA079FA
:1025400004F052FC0095E078092361791C30326870
:1025500004F0ECF900956179A07809230144E07852
:1025600072681C3004F0E2F90095A078092300EBB2
:1025700040016079B2680144E0781C3004F0D6F97B
:1025800000956179A078092301EB8001E078F26879
:102590001C3004F0CBF9306942F2107790FBF7F26F
:1025A0000095A079092361791C3004F0BFF97069A6
:1025B000009590FBF7F26079A17809230144A07996
:1025C0001C3004F0B3F9B069009590FBF7F2A078E5
:1025D000617900EB40000144A07909231C3004F02C
:1025E000A5F9F069009590FBF7F26079A1780923CD
:1025F00000EB8101A0791C3004F098F96078B9A152
:10260000CDE9001502906079A178A38A00EB410121
:10261000E078E28A083880B204F0E6FB0095607941
:10262000A178092300EB4101E078E26B1C3004F053
:102630007DF96078B0A1CDE9001502906079A178AC
:10264000A38A00EB4101A079E28A801C04F0CCFB54
:10265000CDE900B54FF00009CDF808906079A17878
:10266000B8F8003000EB4101A079BAF800201C3026
:1026700004F0B0F8306B0095B0FBF7F26079A17808
:10268000082300EB4101A079243004F04FF9607871
:102690009EA1CDE900150290A078617900EB800041
:1026A0000144E078A38A083880B2E28A04F09CFBF7
:1026B0000095A078617900EB80000144E07809235F
:1026C0001C30226C04F032F9607895A1CDE9001538
:1026D0000290A078617900EB80000144A079A38A80
:1026E000E28A801C04F080FBCDE900B5CDF80890AB
:1026F000A078617900EB80000144A079B8F800303F
:10270000BAF800201C3004F065F8706B0095B0FB3F
:10271000F7F2A078617900EB80000144A0790823EA
:10272000243004F003F9607882A1CDE9001502900D
:102730002179E078A38AE28AB631183004F054FB9C
:102740004FF6FF70AAF80000E720A8F80000CDF8C7
:1027500000B021790223B4F91820A231DC2004F062
:10276000A1F9607876A1CDE9001502902179A38ABC
:10277000E28AB6314FF48C7004F036FBBDE8FE8F70
:1027800043E060786FA1CDE9001502902179A38A1A
:10279000E28A8031E07804F027FB00952179E07827
:1027A000092380312130E26C04F0C0F860786AA11E
:1027B000CDE9001502902179A078A38A01EB800170
:1027C000A079E28A103004F00FFBCDE900B50020BB
:1027D00002902079A178B8F8003000EB8101A0794F
:1027E000BAF80020213003F0F5FF60480823816B20
:1027F00042F21070B1FBF0F200952079A17800EB65
:102800008101A079293004F091F8307802281FD195
:10281000607857A1CDE9001502902079A178A38AAC
:1028200000EB8101E078E28A323004F0DDFAA07B2F
:1028300078B1607851A1CDE9001502902079A17896
:10284000A38A00EB8101E078E28A7A3004F0CCFAC6
:10285000A9E099E074313A20202020202020202077
:10286000206D730074323A20202020202020202068
:10287000206D730074333A20202020202020202057
:10288000206D730074343A20202020202020202046
:10289000206D730076313A20202020202020202037
:1028A000206D2F730000000076323A202020202077
:1028B00020202020206D2F730000000076333A2066
:1028C0002020202020202020206D2F7300000000D9
:1028D00076343A202020202020202020206D2F73C5
:1028E000000000007431323A2020202020202020D7
:1028F00020206D730000000061313A20202020204C
:1029000020202020206D2F73320000007433343AD1
:10291000202020202020202020206D730000000097
:1029200061323A202020202020202020206D2F738B
:1029300032000000B5B2B9E2C6ACBFEDB6C83A008D
:102940006D206D007431333A20202020202020207B
:1029500020206D7300000000613A202020202020FC
:10296000202020206D2F733200000000780400200A
:10297000CBD9B6C8B7BDCFF2A3BA000034333231D9
:10298000CEAAD5FD000000006078FEA1CDE90015BB
:1029900002902079A178A38A00EB8101E078E28A95
:1029A0007A3004F021FA6078F9A1CDE9001502909F
:1029B000A078217900EB400001EB4000083881B29B
:1029C000E078A38AE28A323004F00EFA4FF6FF7004
:1029D000AAF80000E720A8F80000CDF800B0A07821
:1029E000217900EB400001EB40001C3881B2E07817
:1029F0000223B4F91A20963004F054F86078AFF24C
:102A0000C001CDE900150290A078217900EB4000CB
:102A100001EB4000083881B2A38AE28AFA2004F070
:102A2000E3F9ABE62DE9FE4FDC4CE72700970021E8
:102A300022881423084603F0AAFD1026D8A1CDE968
:102A4000001601204FF6FF7902901F234A4602210B
:102A5000002004F03FFACDF800906388228814210A
:102A6000002003F094FDDFF850A3D44D9AF8000045
:102A7000022802D003280CD016E06878D0A1CDE956
:102A800000160290AB8AEA8A1621142004F0ACF9F1
:102A90000AE06878CFA1CDE900160290AB8AEA8AF5
:102AA0001621142004F0A0F96878D2A1CDE900160F
:102AB0000290AB8AEA8A1621FE2004F095F9FFF70E
:102AC0005DF90024DFF84C834FF0420BA8F800704A
:102AD000022C12D204EBC4002A7800EB041002EBA3
:102AE0004003C2EB4000423081B2C2F5D270523393
:102AF00002F5E67203F0BAFD11E004EBC4002A7897
:102B000000EB041002EB4003C2EB4000423081B204
:102B1000C2F5D270523302F5E27203F0A7FD687875
:102B2000BDA1CDE90016029004EBC40000EB041037
:102B30000BEB40012878AB8AC0F5CA70E72204F09D
:102B400053F9641CE4B2052CC0D39AF800000021AC
:102B5000DFF8C8A24FF4987C4FF4A07440F2271518
:102B6000032828D0022844D1CDE9016193480023ED
:102B7000893000904A466146184604F035F9A8F8B5
:102B80000070AAF800902346B42229466C2003F076
:102B90006DFD4FF48276234632462946B42003F079
:102BA00065FD03B0234629463046BDE8F04F4FF49B
:102BB000A87203F05BBDCDE901618048002360305D
:102BC00000904A466146184604F00EF9A8F80070D5
:102BD000AAF800902346F4222946A42003F046FDDB
:102BE00003B0234622462946BDE8F04FF52003F006
:102BF0003DBDC3E52DE9F05FFEF778FE6F4CDFF8D1
:102C0000209200262078B9F81010C0F5D273854FB5
:102C10004FF001088B4215D200F5E272914211D2B9
:102C2000B9F81220C0F1740595420BDA00F1840561
:102C3000AA4207D2E2792AB1E6714FF40060FDF7AB
:102C4000EFFF14E08B4210D200F5E27291420CD2F9
:102C5000B9F81210C0F174028A4206DA8430814257
:102C600003D2D7F82801012801D184F80780207801
:102C7000B9F81010C0F5D2738B4215D200F5E2728C
:102C8000914211D2B9F81220C0F1420595420BDAF7
:102C900000F15205AA4207D2227A2AB126724FF4D5
:102CA0008060FDF7BDFF14E08B4210D200F5E272A8
:102CB00091420CD2B9F81210C0F142028A4206DAEF
:102CC0005230814203D2D7F82801012801D184F87B
:102CD000088039484FF4A0750078032816D00228E0
:102CE0004DD1B9F810004FF4947AA0F16D01472945
:102CF00044D2B9F81210514540D3A9423ED2E17AEC
:102D0000E1B3E6720120FDF78BFFB1E0B9F81000E6
:102D10004FF48F7AA0F1A5014F290CD2B9F8121007
:102D2000514508D3A94206D2617A21B166720220C8
:102D3000FDF776FF0FE0A4280BD9F42809D2B9F8E3
:102D40001200504505D3A84203D2D7F82801012824
:102D500001D184F80980B9F81000A0F1F6014A29E0
:102D600064D2B9F81210514560D3A9425ED2A17A5B
:102D700031B1A672BDE8F05F042055E068E065E07F
:102D800054E0000031323334CEAAD5FD00000000FB
:102D9000B4ABB8D0C6F7BEE0C0EB3A006804002080
:102DA000B9E2B5E7BCC6CAB1CAFDD7D6CAB5D1E942
:102DB000CFB5CDB3000000001D000020C4000020EE
:102DC000CAB5D1E932A3BAB2E2C1BFCBB2CAB1CB64
:102DD000D9B6C800CAB5D1E933A3BAB2E2C1BFD4EB
:102DE000C8B1E4CBD9D4CBB6AFB5C4BCD3CBD9B67C
:102DF000C8000000CFB5CDB3BCC6CAB1CAB1BCE4EF
:102E00003A202020202020202020202020206D7308
:102E10000000000032020020F7CE00003402002043
:102E20003C02002000802342FDF7FABEF5280BD9B2
:102E3000A84209D2B9F81200504505D3A84203D2DE
:102E4000D7F82801012801D184F80A80BDE8F09F55
:102E50006C280BD9B42809D2B9F81200504505D313
:102E6000A84203D2D7F82801012801D184F80B80A9
:102E7000B9F810004FF4827BA0F1B5014F290CD2B4
:102E8000B9F81210514508D3A94206D2617A21B18E
:102E900066720220FDF7C4FE0FE0B4280BD9584536
:102EA00009D2B9F81200504505D3A84203D2D7F889
:102EB0002801012801D184F80980B9F81000A0F296
:102EC00005114B290DD2B9F81210514509D3A94269
:102ED00007D2A17A29B1A672BDE8F05F0420FDF700
:102EE0009FBE58450CD9B0F5A87F09D2B9F8120099
:102EF000504505D3A84203D2D7F828010128A5D10F
:102F000084F80A80A2E72DE9F04F8DB00446FE4810
:102F10000378022B01D0032B7DD1FC4E0025102716
:102F2000727B30790C90B0780B90F078DFF8E093FA
:102F3000DFF8E0A34FF6FF784FF0E70B012C7CD0D1
:102F40003046017901F1A20CCDF828C090F802C0FA
:102F50000CEB4C0C01EB4C0190F803C01C390CF14C
:102F6000960EB0F918C0B0F91A00022C7DD0042CCE
:102F70007CD0802C7BD0B4F5807F79D0402C78D069
:102F8000E548B4F5801F006874D0DFF88CE3314663
:102F9000D1F81CC0DEF800E0AEEB0C0CCDF824C07C
:102FA00091F805C0CDF820C0C9781C310791B4F163
:102FB000807F7DD031464FF47A7E91F80CC0CDF8F9
:102FC00018C0B1F91AC00CFB0EFCCDF814C0C978BA
:102FD00021310491B4F5001F6BD0B4F1007F69D0AA
:102FE000B4F5000F67D0DFF830C33146496ADCF82A
:102FF00000C0ACEB010103913146B1F918E04FF488
:103000007A710EFB01FE3146897801EB410C3146A5
:103010004979614401E0FDE30FE0B4F1006F7CD039
:10302000B4F5800F7AD0B4F1806F78D0B4F5806FAA
:1030300076D0B4F5006F74D07FE2032B02D0022B60
:1030400019D0F9E7FEF79AFE7078B4A1CDE9001720
:10305000029048F2100342464FF485714FF4D2704B
:1030600003F0C2FEA8480570E6E745E076E0A2E07E
:10307000B3E0D4E0E6E0F17C491CF174012ADBD036
:103080007178AFF21472CDE900270291DDE90B21CE
:1030900001EB8201B38AF28A323003F0A5FEF07CA4
:1030A000C00717D00120B0737078AFF2307103E021
:1030B000DCE05AE18FE1A6E2CDE900170290307919
:1030C000B178B38A00EB8101F078F28A7A3003F0AC
:1030D0008BFEB1E7B5737078AFF25831CDE90017C8
:1030E00002903079B178B38A00EB8101F078F28AEE
:1030F0007A3003F079FE9FE7012A19D0401E00B212
:103100007083A9F80080AAF800B0002800DA75835F
:10311000202089B20223009004E088E222E3FDE34C
:10312000FDE3FDE3B6F91A20704603F0BBFC83E72C
:10313000ACF1010C0FFA8CF03083A9F80080AAF8EA
:1031400000B0002800DA3583202000900223B6F971
:103150001820DC200A9903F0A5FC6DE7012A13D0A2
:10316000401C00B27083A9F80080AAF800B0632860
:1031700000DD75832020009089B20223B6F91A2061
:10318000704603F08FFC57E70CF1010C0FFA8CF03E
:103190003083A9F80080AAF800B0632801DDC820B8
:1031A0003083202000900223B6F91820DC200A99F1
:1031B00003F078FCC1E1FEF7E1FD707859A1CDE99B
:1031C0000017029048F210034246A6214FF4D27035
:1031D00003F00AFE03F07BF8AFE1404602F08AFC00
:1031E000F5633564F56435657565B565F565F57345
:1031F00035747574B57403F06FF800210846FFF755
:1032000011FC707849A1CDE90017029048F2100333
:103210004246D8214FF4D27003F0E6FD8DE1FEF76F
:10322000ADFD70783DA1CDE90017029048F2100382
:1032300042464FF485714FF4D27003F0D5FD324809
:1032400005707AE1012A04D0032B05D0022B08D0A7
:1032500073E1F061F06270E101213173F06170643B
:103260006BE1F17B491CF173306566E1012A8AD17B
:10327000A9F80080AAF800B02E49099808604FF418
:103280007A71B0FBF1F20097DDE90701062303F044
:103290004DFB71782E20CDE901710090F078BAF8DD
:1032A0000030B9F8002071794C3003F093FA2148CE
:1032B000032301684FF47A70B1FBF0F200FB1212A5
:1032C0000097F0787179543003F080FBB6F918005C
:1032D0001949484317490968B0FBF1F015490861DD
:1032E0004FF47A7190FBF1F20097B079062371796F
:1032F0001C3003F01BFB71782E20CDE9017100908A
:10330000BAF800301AE000001D000020C4000020C0
:1033100032020020340200206C020020B7B5BBD876
:1033200000000000BFAACABC00000000C7E5C1E35E
:10333000000000007804002040420F00B079B9F886
:10334000002071794C3003F045FAFE4803230169EF
:103350004FF47A7091FBF0F200FB12120097B079F3
:103360007179543003F032FBE7E0012A04D0032BDB
:1033700008D0022B2AD0E0E030623063F16A401AB4
:10338000F063DAE006980028EED03573A9F80080E3
:10339000AAF800B0EB48099A02620598B0FBF2F176
:1033A000E8488162092300970C99049803F0BEFA5B
:1033B000E4480923816A42F2107091FBF0F2009711
:1033C000B0793179213003F0B1FAB6E0317C491C93
:1033D00031747065B1E0012AC6D1A9F80080AAF85D
:1033E00000B0316A401AD74948604FF47A71B0FB97
:1033F000F1F20B990898009701440623079803F00F
:1034000095FA71782E20CDE9017100907079B1782C
:10341000BAF800300144F078B9F800204C3003F0DD
:10342000D9F9C848032341684FF47A70B1FBF0F230
:1034300000FB121200977079B1780144F078543093
:1034400003F0C4FAB6F91800BF494843BD494968BA
:10345000B0FBF1F0BB4948614FF47A7190FBF1F297
:1034600000977079B17806230144B0791C3003F0DD
:103470005DFA71782E20CDE9017100907079B178F4
:10348000BAF800300144B079B9F800204C3003F0AC
:10349000A1F9AC48032341694FF47A7091FBF0F233
:1034A00000FB121200977079B1780144B079543062
:1034B00003F08CFAA5480078032886D1009770792C
:1034C000B178092300EB4101F078F26B1C3003F076
:1034D0002DFA9C4BD3E90410421A002A01DC8842E1
:1034E00048D14FF47A704243F06B9649B2FBF0F04A
:1034F0000863496B9648814220D2CDE901752020AE
:1035000000907079B178BAF8003000EB4101B079E1
:10351000B9F800201C3003F05DF98A480823016BDC
:1035200042F21070B1FBF0F200977079B17800EBC5
:103530004101B079243003F0F9F98AE3CDE901754E
:10354000202000907079B178BAF8003000EB41018A
:10355000B079B9F800201C3003F03CF9009770797D
:10356000B178082300EB4101B079794A243003F0A7
:10357000DDF96EE3081A4FF47A714843F16B714A32
:10358000B0FBF1F010637249884220D2CDE9017599
:103590002D2000907079B178BAF8003000EB41012D
:1035A000B079B9F800201C3003F014F965480823FD
:1035B000016B42F21070B1FBF0F200977079B178B4
:1035C00000EB4101B079243003F0B0F941E3CDE9DB
:1035D00001752D2000907079B178BAF8003000EBB9
:1035E0004101B079B9F800201C3003F0F3F80097DE
:1035F0007079B178082300EB4101B079544A243046
:1036000003F094F925E3012A04D0032B05D0022B03
:1036100008D01EE3706270631BE301213173706296
:10362000B06416E3717C491C7174B06511E3012A22
:103630009FD1A9F80080AAF800B04248039A82609E
:10364000032B6BD04FF47A70B2FBF0F20B99089811
:10365000009700EB41010623079803F067F97178A2
:103660002E20CDE9017100907079B178BAF8003060
:1036700000EB4101F078B9F800204C3003F0AAF8D3
:103680003048032381684FF47A70B1FBF0F200FBFD
:10369000121200977079B17800EB4101F078543044
:1036A00003F094F9B6F91800274948432549896879
:1036B000B0FBF1F0234988614FF47A7190FBF1F28D
:1036C00000977079B178062300EB4101B0791C3086
:1036D00003F02CF971782E20CDE9017100907079FA
:1036E000B178BAF8003000EB4101B079B9F80020A8
:1036F0004C3003F06FF81348032381694FF47A705C
:1037000091FBF0F200FB121200977079B17800EB98
:103710004101B079543003F059F99AE2BEFBF2F35B
:103720000848836109230097079803F0FFF80548CC
:10373000816942F2107091FBF0F20097B07800EBD3
:10374000400007E07804002040420F001D000020E8
:103750009F860100717909230144B0791C3003F080
:10376000E5F876E2012A04D0032B08D0022B75D0AD
:103770006FE2B062B063716B401A306469E2069820
:103780000028CAD03573A9F80080AAF800B0FE4816
:10379000039A42620598B0FBF2F1FB48C1620097C0
:1037A000DDE90B1000EB41010923049803F0BEF89A
:1037B000F5480923C16A42F2107091FBF0F20097BC
:1037C0003079B17800EB4101B079213003F0AEF8E7
:1037D000EE4800780328A0D1D6E91110421AF2640D
:1037E00000973179F07809238031213003F09EF879
:1037F000E54BD3E90A010A1A002A01DC81424AD1C9
:103800004FF47A704243F06CDF49B2FBF0F088630A
:10381000DF4900E0A2E3884221D2CDE901752020F2
:1038200000903079B178BAF8003000EB8101B079BE
:10383000B9F80020213002F0CDFFD3480823816B76
:1038400042F21070B1FBF0F200973079B17800EBE2
:103850008101B079293003F069F8FAE168E0CDE937
:103860000175202000903079B178BAF8003000EB73
:103870008101B079B9F80020213002F0ABFF009748
:103880003079B178082300EB8101B079C04A293042
:1038900003F04CF8DDE1401A4FF47A714843F16CC3
:1038A000B94AB0FBF1F09063B949884220D2CDE922
:1038B00001752D2000903079B178BAF8003000EB16
:1038C0008101B079B9F80020213002F083FFAE48C1
:1038D0000823816B42F21070B1FBF0F2009730794F
:1038E000B17800EB8101B079293003F01FF8B0E125
:1038F000CDE901752D2000903079B178BAF800300B
:1039000000EB8101B079B9F80020213002F062FFAC
:1039100000973079B17800EB810102E00DE059E1C8
:1039200078E1B07908239A4A293002F0FFFF90E14C
:10393000B17C491CB174F0658BE1012A8DD1A9F8E5
:103940000080AAF800B0B26A821A8F48C260032BC6
:103950006CD04FF47A70B2FBF0F206230097079810
:1039600002F0E4FF71782E20CDE901710090B0786B
:10397000717900EB40000144F078BAF80030B9F8F2
:1039800000204C3002F026FF7F480323C1684FF42B
:103990007A70B1FBF0F200FB12120097B0787179E7
:1039A00000EB40000144F078543003F00FF8B6F912
:1039B0001800784948437449C968B0FBF1F072496E
:1039C000C8614FF47A7190FBF1F20097B078717989
:1039D00000EB40000144B07906231C3002F0A6FF42
:1039E00071782E20CDE901710090B078717900EBEB
:1039F00040000144B079BAF80030B9F800204C30EA
:103A000002F0E8FE60480323C1694FF47A7091FB2D
:103A1000F0F200FB12120097B078717900EB4000D1
:103A20000144B079543002F0D1FF12E1BEFBF2F153
:103A30005548C1610B990898009700EB8101092353
:103A4000079802F073FF50480923C16942F21070D1
:103A500091FBF0F200977079B17800EB8101B079B9
:103A60001C3002F063FF0097B078717900EB8000A2
:103A70000144F07809231C30326C02F057FF4248B1
:103A80004149C0698969421A002A01DC88424BD148
:103A90004FF47A704243306C3B49B2FBF0F048631C
:103AA0003B49884222D2CDE9017520200090B078B0
:103AB000717900EB80000144B079BAF80030B9F8B0
:103AC00000201C3002F086FE2F480823416B42F292
:103AD0001070B1FBF0F20097B078717900EB8000C4
:103AE0000144B079243002F021FFB2E0CDE9017544
:103AF00020200090B078717900EB80000144B0790B
:103B0000BAF80030B9F800201C3002F063FE0097CC
:103B1000B078717900EB80000144B07908231C4A29
:103B2000243002F003FF94E0081A4FF47A714843FE
:103B3000316C154AB0FBF1F05063154988422BD225
:103B4000CDE901752D200090B078717900EB8000EF
:103B50000144B079BAF80030B9F800201C3002F006
:103B600039FE09480823416B42F21070B1FBF0F2B4
:103B70000097B078717900EB80000144B07924306F
:103B800002F0D4FE65E00000780400201D00002053
:103B90009F86010040420F00CDE901752D20009065
:103BA000B078717900EB80000144B079BAF8003048
:103BB000B9F800201C3002F00DFE0097B078717942
:103BC00000EB80000144B0790823FD4A243002F064
:103BD000ADFE3EE00120707302F07EFBF5633564BC
:103BE000F56435657565B565F565F573357475749A
:103BF000B574F448CDF800804FF4B97240882C2198
:103C00001E3883B2F0781E3880B202F0C0FCFEF796
:103C1000B5F81EE00220707302F05EFBF5633564B8
:103C2000F56435657565B565F565F5733574757459
:103C3000B574E448CDF800804FF4B97240882C2167
:103C40001E3883B2F0781E3880B202F0A0FCFEF776
:103C500095F8F07B317C884277D1D6E91410884200
:103C600075D9A9F80080AAF800B0A0EB0100D649E8
:103C70000862B6F91A10D54A01FB02F1B1FBF0F265
:103C8000D1498A624FF47A71B0FBF1F20097F07873
:103C90004FF00603317900F1210002F047FE717800
:103CA0002E20CDE901710090F078BAF80030B9F813
:103CB00000203179513002F08DFDC3480323016AA1
:103CC0004FF47A70B1FBF0F200FB12120097F0781B
:103CD0003179593002F07AFEB07BB8B3CDE9017585
:103CE0002D200090B079BAF80030B9F80020317971
:103CF000213002F06FFDB4480523816A4FF47A70D9
:103D000091FBF0F20097B0793179293002F00EFE84
:103D100071782E20CDE901710090B079BAF80030A9
:103D2000B9F800203179513002F054FDA648032340
:103D3000816A4FF47A7091FBF0F200FB1212009747
:103D4000B0793179593002F041FE85E000E00DE0B4
:103D5000CDE9017520200090B079BAF80030B9F8AB
:103D600000203179213002F035FDC4E774D2A9F882
:103D70000080AAF800B0A1EB000093490862B6F9F0
:103D80001A10924A01FB02F1B1FBF0F28E498A62ED
:103D90004FF47A71B0FBF1F20097F0784FF0060320
:103DA000317900F1210002F0C1FD71782E20CDE9BA
:103DB00001710090F078BAF80030B9F8002031793C
:103DC000513002F007FD80480323016A4FF47A70F6
:103DD000B1FBF0F200FB12120097F0783179593004
:103DE00002F0F4FDB07B01287ED0CDE901752D20D5
:103DF0000090B079BAF80030B9F80020317921305C
:103E000002F0E8FC70480523816A4FF47A7091FB58
:103E1000F0F20097B0793179293002F087FD71789E
:103E20002E20CDE901710090B079BAF80030B9F8D0
:103E300000203179513002F0CDFC63480323816AC0
:103E40004FF47A7091FBF0F200FB12120097B079F8
:103E50003179593002F0BAFD707CB17C88427DD155
:103E6000D6E9161088427AD9A9F80080AAF800B0DD
:103E7000DFF85481A0EB0100C8F82400B6F91A104D
:103E8000524A01FB02F1B1FBF0F1C8F82C104FF4DB
:103E90007A7BB0FBFBF200973079B1784FF00603E4
:103EA00000EB4101F07800F1210002F03FFD717854
:103EB0002E20CDE9017100903079B178BAF8003048
:103EC00000EB4101F078B9F80020513002F082FC9B
:103ED000D8F824000097B0FBFBF10BFB11023079FE
:103EE000B17800EB410100E04AE0F078032359305B
:103EF00002F06CFDB07B98B3CDE901752D200090E8
:103F00003079B178BAF8003000EB4101B079B9F8F6
:103F10000020213002F05EFCD8F82C00009790FBC6
:103F2000FBF23079B178052300EB4101B0792930FB
:103F300002F0FCFC71782E20CDE9017100903079FF
:103F4000B178BAF8003000EB4101B079B9F800203F
:103F5000513002F03FFCD8F82C0002E0B8E037E026
:103F60001CE090FBFBF10BFB110200973079B1785C
:103F7000032300EB4101B079593002F027FDB0E096
:103F8000CDE9017520200090B079BAF80030B9F879
:103F900000203179213002F01DFC33E7CDE90175B5
:103FA000202000903079B178BAF8003000EB410160
:103FB000B079B9F80020213002F00CFCACE7000029
:103FC0009F860100680400207804002040420F0012
:103FD0007ED2A9F80080AAF800B0DFF88481A1EBB6
:103FE0000000C8F82400B6F91A105E4A01FB02F17D
:103FF000B1FBF0F1C8F82C104FF47A7BB0FBFBF268
:1040000000973079B1784FF0060300EB4101F0786A
:1040100000F1210002F08AFC71782E20CDE90171B7
:1040200000903079B178BAF8003000EB4101F078B7
:10403000B9F80020513002F0CDFBD8F824000097E9
:10404000B0FBFBF10BFB11023079B178032300EBDD
:104050004101F078593002F0B9FCB07B012844D01E
:10406000CDE901752D2000903079B178BAF8003093
:1040700000EB4101B079B9F80020213002F0AAFB31
:10408000D8F82C00009790FBFBF23079B17805232B
:1040900000EB4101B079293002F048FC71782E2004
:1040A000CDE9017100903079B178BAF8003000EBB9
:1040B0004101B079B9F80020513002F08BFBD8F8FB
:1040C0002C00009790FBFBF10BFB1102307900E014
:1040D00007E0B178032300EB4101B079593002F0D9
:1040E00075FC0DB02046BDE8F08FCDE901752020AC
:1040F00000903079B178BAF8003000EB4101B07926
:10410000B9F80020213002F065FBB9E716491748DD
:10411000FCF771BD10B516A004F052FE0021BDE8F9
:1041200010400846FEF77EBC10B514A004F048FE0F
:104130004FF6FF7001F0DEFC02F0CEF813480121CB
:1041400041730021C1630164C164817301654165EC
:104150008165C165C17301744174817410BD000033
:104160007804002040420F00C70DF00F072F000811
:104170006C6162325F696E69740D0A006C61623253
:104180005F636C6F73650D0A00000000C4000020BF
:1041900070B5FDF78DFAFF49E7200880FE494FF61C
:1041A000FF7008804FF4A07540F227162B46B4220A
:1041B00031466C2002F05AFA4FF482742B462246A4
:1041C0003146B42002F052FA2B4631462046BDE873
:1041D00070404FF4A87202F049BA2DE9FE4FEF4C3F
:1041E0004FF0E708CDF8008000212288142308460C
:1041F00002F0CDF91025EAA1CDE9001501204FF616
:10420000FF7902901F234A460221002002F062FE3D
:10421000CDF80090638822881421002002F0B7F9BD
:10422000E54CE6A16078CDE900150290238A628A08
:104230002821142002F0D8FD6078E6A1CDE9001510
:104240000290238A628A28214FF4877002F0CCFD05
:10425000DFF840A3AAF80090DFF83CB3ABF8008089
:104260006078E3A1CDE900150290238A628AE178A3
:10427000A07802F0B9FD6078E8A1CDE900150290C0
:10428000E0782179238A0144628AA07802F0ACFDAB
:10429000E44E42F21077062330680095B0FBF7F247
:1042A000E07821790144A078403002F03FFB60784B
:1042B000DDA1CDE900150290E0782179238A01443F
:1042C000A078628A823002F08FFD70680095B0FBA2
:1042D000F7F2E078217906230144A078C23002F099
:1042E00025FB6078D2A1CDE900150290E078217914
:1042F000238A0144A078628A00F5827002F074FD7E
:10430000B0680095B0FBF7F2E0782179062301440C
:10431000A07800F5A27002F009FB6078C6A1CDE993
:1043200000150290E0782179238A00EB4101628A2E
:10433000A07802F059FD6078B8A1CDE9001502908F
:104340002079E17800EB40000144238A628AA0785A
:1043500002F04AFDF0680095B0FBF7F22079E178B1
:1043600000EB40000144A0780623403002F0DEFA62
:104370006078ADA1CDE9001502902079E17800EBDD
:1043800040000144A078238A628A823002F02CFD2A
:1043900030690095B0FBF7F22079E17800EB40003E
:1043A0000144A0780623C23002F0C0FA6078A0A1D0
:1043B000CDE9001502902079E17800EB400001443E
:1043C000A078238A628A00F5827002F00DFD706980
:1043D0000095B0FBF7F22079E17800EB4000014452
:1043E000A078062300F5A27002F0A0FA60789DA1E3
:1043F000CDE90015029040F21116238A628A3146F7
:10440000E82002F0F1FC0095022394F909203146DE
:104410004FF4A47002F0DAFA607896A1CDE90015A5
:104420000290238A628A31464FF4AC7002F0DCFCC1
:10443000AAF800802079A27800EB4001E0780B1800
:10444000153881B2501F253380B202F2791202F082
:104450000DF9607889A1CDE900150290238A628A5E
:104460003146A07802F0C0FC60788AA1CDE9001541
:104470000290238A628A56214FF4C87002F0B4FC7D
:10448000217A4FF4C97051B1617885A2CDE9002538
:104490000291238A628A742102F0A6FC09E0617805
:1044A00082A2CDE900250291238A628A742102F05A
:1044B0009BFCFFF76DFE0026AAF8008006EBC60005
:1044C000227800EB0617C2EB4700A63002EB470349
:1044D00081B2C2F5D270B63302F5E27202F0C6F8CC
:1044E000607875A1CDE900150290A62000EB470188
:1044F0002078238AC0F5CA70E72202F075FC761C8A
:10450000F6B2032ED8D32C4900202431CDE9001572
:1045100003464A4602904FF4987102F065FCAAF8EF
:104520000080ABF800904FF4A07540F227162B46A0
:10453000B42231466C2002F099F84FF482742B4675
:1045400022463146B42002F091F803B02B463146A2
:104550002046BDE8F04F4FF4A87202F087B82DE96D
:10456000F05FFDF7C3F9554FDFF85491124C388ACC
:104570004FF00008A0F16D014FF0010A4FF494755F
:104580004FF4A076472903D2798AA94200D399E053
:10459000A2E0000032020020340200206804002063
:1045A000B9E2B5E7BCC6CAB1CAFDD7D6CAB5D1E92A
:1045B000CFB5CDB30000000078010020CAB5D1E925
:1045C00034A3BAB2E2C1BFC5F6D7B2D6D0B5C4B62D
:1045D000AFC1BF00CFB5CDB3BCC6CAB1CAB1BCE490
:1045E0003A202020202020202020206D2073000051
:1045F000BEADB9FDB9E2B5E7B4ABB8D0C6F7B5C446
:104600003132B5C4CBB2CAB1CBD9B6C85631323AC1
:1046100028B5A5CEBB3A206D2F732900B5DA32B488
:10462000CE3A000030040020B5DA31B4CE3A0000B2
:10463000B5DA33B4CE3A0000BEADB9FDB9E2B5E7A4
:10464000B4ABB8D0C6F7B5C43334B5C4CBB2CAB175
:10465000CBD9B6C85633343A28B5A5CEBB3A206D6F
:104660002F732900B4ABB8D0C6F7BEE0C0EBA3BA35
:1046700000000000206D206D00000000B0B4BCFC04
:104680004B45595F30C7D0BBBBCBD9B6C8B7BDCF40
:10469000F2000000CBD9B6C8B7BDCFF2A3BA000074
:1046A00034333231CEAAD5FD00000000313233342C
:1046B000CEAAD5FD00000000F7CE00003C0200208D
:1046C00000802342B14207D2617929B184F8058084
:1046D0000120FCF7A5FA0EE06C280AD9B42808D20C
:1046E000788AA84205D3B04203D2D9F8280101281C
:1046F00001D184F805A0388A4FF4827BA0F1B5017E
:104700004F290CD2798AA94209D3B14207D2A179A3
:1047100029B184F806800220FCF782FA0EE0B42862
:104720000AD9584508D2788AA84205D3B04203D2A4
:10473000D9F82801012801D184F806A0388AA0F20E
:1047400005114B290DD2798AA9420AD3B14208D268
:10475000E17931B184F80780BDE8F05F0420FCF70F
:104760005FBA58450BD9B0F5A87F08D2788AA8421D
:1047700005D3B04203D2D9F82801012801D184F829
:1047800007A0BDE8F09FFF490020086048608860EE
:10479000C86008614861FC498872C8720873487330
:1047A00007224A720872F949086070472DE9FE4FE6
:1047B0000646DFF8DC8398F80000042879D101224E
:1047C0000025F14F10244FF6FF7B012E24D03846F0
:1047D00040F2111190F909004FF4A47C022E3FD051
:1047E000042E51D048F210094FF4D27A802E61D0B5
:1047F000B6F5807F6ED0402E7ED0E448B6F5801F9F
:1048000000687AD0B6F5001F78D0B6F5000F76D0E4
:10481000B6F5800F74D0AEE0B87B401CB873DA49AF
:104820005FEAC0784FF4C97C48780B8A498A0BD07C
:104830003A72AFF29412CDE9002402900A46742134
:10484000604602F0D1FA96E03D72AFF2A012CDE9D7
:10485000002402900A467421604602F0C5FA8AE0FC
:10486000401E40B27872002800DA7D72C948A0F874
:1048700000B0C94AE72010800094022397F909206C
:10488000604602F0A3F876E0401C40B278726328DC
:1048900001DD63207872BF48A0F800B0BE4AE7206F
:1048A00010800094022397F90920604602F08EF8E8
:1048B00061E00AE2FFF76CFC7878B8A1CDE900145A
:1048C00002904B465A46A621504602F08DFA01F05E
:1048D000FEFC50E001F000FD584601F00BF9FFF737
:1048E00052FF00210846FFF778FC7878ADA1CDE9AA
:1048F00000144B465A4604E009E019E021E029E0A3
:1049000031E00290D821504602F06EFA33E0FFF712
:104910003FFC7878A5A1CDE9001402904B465A4699
:104920004FF48571504602F05FFA88F8005022E09B
:104930007861B87A401CC0B2B87203281BD9BA7229
:1049400019E0B861F87A401CC0B2F872032812D995
:10495000FA7210E0F861387B401CC0B2387303284B
:1049600009D93A7307E03862787B401CC0B278738B
:10497000032800D97A738449824F4FF02008887A3F
:10498000C97A4FF02D0942F2107A884227D17E4A27
:10499000D2E905C1614579D97E4B5A46A3F800B0EA
:1049A000DFF8F4E1E723AEF80030A1EB0C01DFF80B
:1049B00004C2DFF8D4E1CCF820109EF909C04FF40E
:1049C0007A7E0CFB0EFCBCFBF1F1DFF8E8C1CCF801
:1049D0002810012804D002282DD0032857D047E101
:1049E00039606948007A60B16748CDE90094029562
:1049F000C17890F804C080786144383001F0EAFE54
:104A00000BE06148CDE900840295C17890F804C0BC
:104A100080786144383001F0DDFE38680094B0FBE6
:104A2000FAF25948C1780379807819440623403056
:104A300001F07CFF1CE179605348007A60B1524874
:104A4000CDE900940295C17890F804C08078614463
:104A5000BA3001F0BFFE0BE04B48CDE9008402956F
:104A6000C17890F804C080786144BA3001F0B2FE99
:104A700078680094B0FBFAF24348C17803798078F3
:104A800019440623C23001F051FFF1E02DE0B96076
:104A90003D48007A68B13C48CDE900940295C17860
:104AA00090F804C08078614400F59E7001F092FE99
:104AB0000CE03548CDE900840295C17890F804C037
:104AC0008078614400F59E7001F084FEB86800941F
:104AD000B0FBFAF22C48C178037980781944062398
:104AE00000F5A27001F022FFC2E02A4B5A46A3F85B
:104AF00000B0DFF8A4E0E723AEF80030ACEB010132
:104B0000DFF8B0C0DFF880E0CCF820109EF909C0D3
:104B10004FF47A7E0CFB0EFCBCFBF1F1DFF894C085
:104B2000CCF82810012804D0022848D0032872D0DD
:104B30009EE039601448007A60B11348CDE90084E2
:104B40000295C17890F804C080786144383001F053
:104B500041FE0BE00C48CDE900940295C17890F835
:104B600004C080786144383001F034FE3868009425
:104B7000B0FBFAF20448C17803798078194406231F
:104B8000403019E030040020780100206C02002041
:104B90001D0000203202002034020020BFAACABC3F
:104BA00000000000C7E5C1E300000000B7B5BBD8B6
:104BB000000000007804002001F0B8FE58E07960A1
:104BC000EF48007A60B1EE48CDE900840295C178E3
:104BD00090F804C080786144BA3001F0FBFD0BE02E
:104BE000E748CDE900940295C17890F804C0807838
:104BF0006144BA3001F0EEFD78680094B0FBFAF23F
:104C0000DF48C1780379807819440623C23001F067
:104C10008DFE2DE0FFE7B960D948007A68B1D84829
:104C2000CDE900840295C17890F804C08078614491
:104C300000F59E7001F0CEFD0CE0D148CDE9009466
:104C40000295C17890F804C08078614400F59E70A8
:104C500001F0C0FDB8680094B0FBFAF2C848C37810
:104C6000017980781944062300F5A27001F05EFEF8
:104C7000DFF80CE39EF80C009EF80D10884224D15A
:104C8000DEE907C161457DD9BE4B5A46A3F800B0A5
:104C9000DFF8F4B2E723ABF80030A1EB0C01DFF84A
:104CA000ECC2CCF824109EF909C04FF47A7B0CFBBF
:104CB0000BFCBCFBF1F1DFF8D4C2CCF82C100128BE
:104CC00004D0022831D0032860D042E1BB46F9600D
:104CD0009EF80800774660B1CDE9009402953879D6
:104CE000F97800EB40000144B878383001F072FDEB
:104CF0000BE0CDE9008402953879F97800EB4000AB
:104D00000144B878383001F065FDDBF80C00009400
:104D1000B0FBFAF23879F97800EB40000144B8783A
:104D20000623403001F002FE13E1BB4639619EF8D4
:104D30000800774660B1CDE9009402953879F9789A
:104D400000EB40000144B878BA3001F043FD0BE0BD
:104D5000CDE9008402953879F97800EB40000144F0
:104D6000B878BA3001F036FDDBF810000094B0FBE3
:104D7000FAF23879F97800EB40000144B87806235C
:104D8000C23000E034E001F0D1FDE2E0BB467961E1
:104D90009EF80800774668B1CDE90094029538790D
:104DA000F97800EB40000144B87800F59E7001F0FE
:104DB00011FD0CE0CDE9008402953879F97800EB1B
:104DC00040000144B87800F59E7001F003FDDBF867
:104DD00014000094B0FBFAF23879F97800EB400047
:104DE0000144B878062300F5A27001F09FFDB0E001
:104DF000644B5A46A3F800B0DFF88CB1E723ABF858
:104E00000030ACEB0101DFF884C1CCF824109EF92E
:104E100009C04FF47A7B0CFB0BFCBCFBF1F1DFF813
:104E20006CC1CCF82C10012804D0022831D0032802
:104E30005ED08EE0BB46F9609EF80800774660B110
:104E4000CDE9008402953879F97800EB40000144FF
:104E5000B878383001F0BEFC0BE0CDE90094029543
:104E60003879F97800EB40000144B878383001F027
:104E7000B1FCDBF80C000094B0FBFAF23879F97859
:104E800000EB40000144B8780623403001F04EFDAD
:104E90005FE0BB4639619EF80800774660B1CDE916
:104EA000008402953879F97800EB40000144B87825
:104EB000BA3001F08FFC0BE0CDE90094029538790F
:104EC000F97800EB40000144B878BA3001F082FC78
:104ED000DBF810000094B0FBFAF23879F97800EBB7
:104EE00040000144B8780623C23001F01FFD30E0D5
:104EF000BB4679619EF80800774668B1CDE9008429
:104F000002953879F97800EB40000144B87800F553
:104F10009E7001F05FFC0CE0CDE9009402953879B9
:104F2000F97800EB40000144B87800F59E7001F07C
:104F300051FCDBF814000094B0FBFAF23879F978F0
:104F400000EB40000144B878062300F5A27001F0A0
:104F5000EDFC3046BDE8FE8F0D49AFF2AF70FBF7B8
:104F60004ABE00210846FFF738B910B54FF6FF706A
:104F700000F0C0FD01F0B0F9BDE8104003E400000E
:104F80007801002032020020340200207804002042
:104F9000C701F00F10B5FCF78BFBCE49E720088066
:104FA000CD494FF6FF700880B422BDE810404FF4A1
:104FB000A07340F227116C2001F058BB2DE9FE4F81
:104FC000C64C4FF0E708CDF800800021228814235A
:104FD000084601F0DCFA1027C1A1CDE90017012035
:104FE0004FF6FF7A02901F2352460221002001F063
:104FF00071FFCDF800A0638822881421002001F001
:10500000C6FABD4EBDA17078CDE900170290B388F5
:10501000F2882821142001F0E7FE7078BAA1CDE9CA
:1050200000170290B388F2887621912001F0DCFE0F
:105030007078B7A1CDE900170290B388F2889D215E
:10504000912001F0D1FEFFF7A5FF0024DFF8849244
:105050004FF0A60BA9F8008004EBC400327800EBF7
:105060000415C2EB4500A63002EB450381B2C2F540
:10507000D270B63302F5E27201F0F8FA7078A6A1A8
:10508000CDE90017029030780BEB4501C0F5CA70EE
:10509000B388E72201F0A8FE641CE4B2032CD9D344
:1050A00070789EA1CDE900170290B388F28840F293
:1050B0000111912001F098FE8F4900200C31CDE9BB
:1050C00000170346524602904FF4987101F08CFE8F
:1050D000A9F800808048A0F800A003B0B422BDE881
:1050E000F04F4FF4A07340F227116C2001F0BEBACC
:1050F00070B5FCF7FBFB8F4A7F4B4FF49474108A1A
:105100004FF4A075A0F16D0147290DD2518AA1423B
:105110000AD3A94208D2997831B100209870BDE82D
:1051200070400120FBF77CBD6C280AD9B42808D256
:10513000508AA04205D3A84203D27F4800680128C4
:1051400001D10120987070BD2DE9FE4F0446DFF8B3
:10515000EC8198F8000005282DD10027664D012C20
:105160002AD0102648F210094FF6FF7A022C38D0C8
:105170004FF4857B042C45D0802C54D0B4F5807F2F
:1051800062D0402C75D028468068401CB4F5801F42
:105190006DD0B4F1807F0ED0B4F5001F7ED0B4F195
:1051A000007F08D0B4F5000F7AD0B4F1006F7AD048
:1051B000B4F5800F76D076E0E878401CE870604D5A
:1051C000C0074FF0804205D00021104603F023FBBA
:1051D0002F7068E00121104603F01DFB01202870AC
:1051E00061E0FFF7D7FE687856A1CDE9001602907E
:1051F0004B465246A6214FF4D27001F0F5FD01F066
:1052000066F850E0FFF7C6FE687850A1CDE90016B9
:1052100002904B46524659464FF4D27001F0E4FDDD
:1052200088F800703FE0FFF7B5FE687845A1CDE94A
:10523000001602904B465246A6214FF4D27001F060
:10524000D3FD01F044F82EE0FFF7A4FE687841A1F9
:10525000CDE9001602904B465246D8214FF4D27049
:1052600001F0C2FD01F038F8AF601CE001E013E08E
:1052700014E0FFF78FFE687834A1CDE900160290A4
:105280004B46524659464FF4D27001F0ADFD88F8B6
:10529000007008E004E005E0A86004E0A86002E017
:1052A000A86000E0A8602046BDE8FE8F2B49AFF261
:1052B0006710FBF7A0BC002108467FE610B54FF64B
:1052C000FF7000F017FC01F007F80B490020886020
:1052D00010BD0000320200203402002068040020CB
:1052E000B9E2B5E7BCC6CAB1CAFDD7D6CAB5D1E9DD
:1052F000CFB5CDB300000000C8010020CAB5D1E988
:1053000035A3BABCC6CAFD00BCC6CAFDA3BA00001C
:10531000BCC6CAB1A3BA0000F7CE0000B0B4BCFC52
:10532000204B45595F3020D4DDCDA3BACDBCCCD0C5
:10533000F80000003C020020288123421D000020CC
:1053400064020020BFAACABC00000000B7B5BBD8E9
:1053500000000000C7E5C1E300000000C701F00F36
:1053600070B5FCF7A5F9F849E7200880F7494FF632
:10537000FF7008804FF4A07540F227162B46B42228
:1053800031466C2001F072F94FF482742B462246AC
:105390003146B42001F06AF92B4631462046BDE87B
:1053A00070404FF4A87201F061B92DE9FE4FE84C4E
:1053B000E7270097002122881423084601F0E7F828
:1053C00001261025E3A08DE861004FF6FF7B1F2327
:1053D0005A460221002001F07DFDCDF800B063881F
:1053E00022881421002001F0D2F8E04CE0A160787E
:1053F000CDE900150290238962892821142001F04B
:10540000F3FC6078E0A1CDE9001502902389628960
:105410005021A07801F0E8FC6078E1A1CDE9001509
:105420000290238962898221A07801F0DDFC6078F6
:10543000E1A1CDE90015029023896289B421A07809
:1054400001F0D2FC6078E2A1CDE900150290A078CD
:10545000238962895021C83001F0C6FC6078E2A13E
:10546000CDE900150290A078238962898221C83095
:1054700001F0BAFC6078DEA1CDE900150290A078B9
:1054800023896289B421C83001F0AEFCDFF8B8820C
:10549000A8F800B0DFF8B492A9F80070DFF864A3B0
:1054A000AAF81C600095A078062332465021FF30F0
:1054B00001F03CFA0095A07806238221FF30DAF84B
:1054C000002001F033FAFFF74BFF0026A8F8007028
:1054D00006EBC600227800EB061AC2EB4A00A630A3
:1054E00002EB4A0381B2C2F5D270B63302F5E27222
:1054F00001F0BCF86078C4A1CDE900150290A620A7
:1055000000EB4A0120782389C0F5CA70E72201F038
:105510006BFC761CF6B2032ED8D36078BBA1CDE924
:10552000001502902389628940F21111A07801F0E0
:105530005BFC8E4900200C31CDE9001503465A462C
:1055400002904FF4987101F04FFCA8F80070A9F890
:1055500000B04FF4A07540F227162B46B422314616
:105560006C2001F083F84FF482742B4622463146BA
:10557000B42001F07BF803B02B4631462046BDE84D
:10558000F04F4FF4A87201F071B82DE9F05FFCF70D
:10559000ADF9A44FDFF89092744C388A4FF00008B0
:1055A000A0F16D014FF0010A4FF494754FF4A0760D
:1055B00047290CD2798AA94209D3B14207D2E178AE
:1055C00029B184F803800120FBF72AFB0EE06C2848
:1055D0000AD9B42808D2788AA84205D3B04203D2A7
:1055E000D9F82801012801D184F803A0388A4FF4A2
:1055F000827BA0F1B5014F290CD2798AA94209D347
:10560000B14207D2217929B184F804800220FBF746
:1056100007FB0EE0B4280AD9584508D2788AA84278
:1056200005D3B04203D2D9F82801012801D184F86A
:1056300004A0388AA0F205114B290DD2798AA9421B
:105640000AD3B14208D2617931B184F80580BDE84E
:10565000F05F0420FBF7E4BA58450BD9B0F5A87FFA
:1056600008D2788AA84205D3B04203D2D9F82801DB
:10567000012801D184F805A0BDE8F09F2DE9FE4F77
:105680000446DFF8A8B19BF8000006282CD1374F5C
:105690004FF000094FF0010A012C26D03846594D31
:1056A0008078294AE723DFF8A4C01026FF30A98BB1
:1056B0004FF6FF78022C2ED0042C3DD0802C3CD00D
:1056C000B4F5807F3AD0402C39D028460068401C81
:1056D000B4F5801F34D0B4F5001F32D0B4F5000FFC
:1056E00030D0B4F5800F2ED0F9E0B879401CB871F5
:1056F000C1074F484FF0804206D080F8009000214B
:10570000104603F088F8EAE080F800A00121104676
:1057100003F081F8E3E0491E89B2A98309B9A5F82D
:105720001CA0A2F80080ACF800300096AA8B0623DB
:10573000502101F0FBF8D2E07CE089E09AE0B4E08F
:10574000C6E0C7E0C8E0C9E0320200203402002011
:1057500068040020B9E2B5E7BCC6CAB1CAFDD7D615
:10576000CAB5D1E9CFB5CDB300000000FA010020E1
:10577000CAB5D1E936A3BAB2E2C1BFD6DCC6DABA3D
:10578000CDC6B5C2CA000000F7CECAB1BCE42074D1
:105790003D2020202020202020202020206D73006C
:1057A000F7CED6DCC6DA20543D2020202020202051
:1057B00020202020206D7300F7CEC6B5C2CA206617
:1057C0003D202020202020202020202020487A005A
:1057D000F7CEB4A5B7A22020202020202020B4CED0
:1057E000CEAA31D6DCC6DA00F7CEB4CECAFD0000B0
:1057F000F7CED6DCC6DACAFDA3BA202020202020AE
:105800002000000048040020F7CE0000B0B4BCFC2B
:10581000204B45595F3020D4DDCDA3BACDBCCCD0D0
:10582000F80000003C020020008023421D00002000
:1058300064020020491C89B2A983A2F80080ACF858
:1058400000300A4606235021009601F06FF846E02A
:10585000FFF786FD78782EA1CDE90016029048F278
:1058600010034246A6214FF4D27001F0BDFA00F0B9
:105870002EFD34E0404600F03DF900210846FFF7D8
:1058800094FD787824A1CDE90016029048F2100327
:105890004246D8214FF4D27001F0A6FAC5F8009024
:1058A000A5F81CA000F018FD19E0FFF759FD787865
:1058B0001BA1CDE90016029048F2100342464FF4B6
:1058C00085714FF4D27001F08FFA8BF8009006E0EA
:1058D000286004E0286002E0286000E0286020469C
:1058E000BDE8FE8F1049AFF26B20FBF784B90021B1
:1058F00008465AE510B54FF6FF7000F0FBF800F0CF
:10590000EBFC0A48002101600121818310BD0000E9
:10591000BFAACABC00000000C7E5C1E30000000048
:10592000B7B5BBD800000000C701F00F4804002045
:1059300008B50121442001F0BEFE1820ADF800009A
:1059400048208DF803006946324801F0AEFC012082
:10595000ADF8000028208DF8030069462E4801F0BC
:10596000A4FC2EA003F02CFA08BD2DE9F04101257E
:105970002D4C002800D025702078274E254F78B177
:105980001021384601F0ECFCF8B10821384601F04E
:10599000E7FCD0B10121304601F0E2FC012814D02F
:1059A0001021384601F0DCFC01280CD108213846D2
:1059B00001F0D6FC012806D10121304601F0D0FCCF
:1059C000002800D12570BDE8F0810A20FAF72CFFED
:1059D000002020701021384601F0C2FC78B1082167
:1059E000384601F0BDFC78B10121304601F0B8FC29
:1059F0000128E8D1BDE8F0410420FBF711B9BDE86A
:105A0000F0410120FBF70CB9BDE8F0410220FBF7A3
:105A100007B9000000180140000801406B657920BB
:105A2000696E69740D0A000031020020F649088091
:105A30007047F549891C08807047FAE7F24A1080E0
:105A4000901C01807047F1480089EFE710B50246CD
:105A50000B46EE4C6089FFF7E9FF100AFFF7E9FFFC
:105A6000D0B2FFF7E6FF521C100AFFF7E2FF90B238
:105A7000FFF7DFFFA089FFF7D9FF180AFFF7D9FF6B
:105A8000D8B2FFF7D6FF5B1C180AFFF7D2FF98B217
:105A9000FFF7CFFFBDE81040D5E700B5FFF7D6FF11
:105AA000DB4800885DF804EBC3E770B504460D469B
:105AB000D64E7089FFF7BAFF200AFFF7BAFFE0B2AF
:105AC000FFF7B7FF100AFFF7B4FFD0B2FFF7B1FF3F
:105AD000B089FFF7ABFF280AFFF7ABFFE8B2FFF78B
