:020000042000DA
:10100000E8DA0020F5730020FD730020FF73002054
:10101000017400200374002005740020000000000B
:101020000000000000000000000000000774002025
:1010300009740020000000000B7400200D740020D3
:101040000F7400200F7400200F7400200F74002014
:101050000F7400200F7400200F7400200F74002004
:10106000BB670020F9670020376800200F7400205C
:101070000F7400200F7400200F7400200F740020E4
:101080000F7400200F7400200F7400200F740020D4
:101090000F7400200F7400200F740020756800206A
:1010A0000F7400200F7400200F7400200F740020B4
:1010B0001B6900200F740020976900200F74002026
:1010C0000F7400200F7400200F7400200F74002094
:1010D0000F7400200F7400200F7400200F74002084
:1010E0000F7400200F7400200F7400200F74002074
:1010F0000F7400200F7400200F7400200F74002064
:101100000F7400200F7400200F7400200F74002053
:101110000F7400200F7400200F7400200F74002043
:101120000F7400200F7400200F7400200F74002033
:1011300000F002F800F05AF80AA090E8000C82448F
:101140008344AAF10107DA4501D100F04FF8AFF26C
:10115000090EBAE80F0013F0010F18BFFB1A43F095
:1011600001031847A8970000C89700000A444FF0F1
:10117000000C10F8013B13F0070408BF10F8014BF6
:101180001D1108BF10F8015B641E05D010F8016B3B
:10119000641E01F8016BF9D113F0080F1EBF10F89F
:1011A000014BAD1C0C1B09D16D1E58BF01F801CBC2
:1011B000FAD505E014F8016B01F8016B6D1EF9D545
:1011C0009142D6D37047000000230024002500265A
:1011D000103A28BF78C1FBD8520728BF30C148BF9A
:1011E0000B6070471FB51FBD10B510BD07F074FD33
:1011F0001146FFF7F7FF00F009F807F092FD03B47E
:10120000FFF7F2FF03BC07F099FD00000EB500F0F8
:10121000ABFA00F08DF94FF4A06006F00BF904F082
:1012200032FF05F01BFA05F07DFA472140F2E73066
:1012300005F04AFB41F61F41632005F07FFB05F0F6
:10124000A9F904F0AFFD00F0F5FA00F0BDF900F0E7
:10125000CAF9AA4F00203860AA49A9480860DFF8F7
:10126000A882AA4C4FF010094FF6FF75E726002020
:1012700004F0B2FDA648006818B1A648012101603B
:1012800002E0A44900200860A348007801280AD0A1
:1012900002283BD0032846D0042851D005285CD032
:1012A00006287DD013E12580A8F80060DFF86CA245
:1012B000CDF800900C236021D220DAF8002005F050
:1012C00057FDCDF800900C239221D220DAF80420AB
:1012D00005F04EFDCDF800900C23C421D220DAF8A1
:1012E000082005F045FDCDF800900C23F621D22012
:1012F000DAF80C2005F03CFDCDF8009009232821F8
:101300004FF4BC703A6805F033FDE0E02580A8F8A2
:101310000060CDF80090092316214FF4BC703A68A4
:1013200005F026FDD3E02580A8F80060CDF80090F8
:10133000092316214FF4BC703A6805F019FDC6E088
:101340002580A8F80060CDF80090092328214FF4EB
:10135000BC703A6805F00CFDB9E04FF0BE0B96206A
:1013600002902680A8F800506D484FF0200ACDF872
:1013700000A002686E210723584605F0B5FD3968C4
:101380004FF47A70B1FBF0F20323CDF800A0584679
:10139000029905F0A9FD0B200090B8F8003000E09C
:1013A00013E02288EE20029905F075FD39684FF4AC
:1013B0007A70B1FBF0F200FB12120323CDF800A00B
:1013C000FE20029905F090FD81E02580A8F80060DC
:1013D000DFF850A13A68CAF81020DAF800000028B7
:1013E0007DD0BAF81410401EB0FBF1F0CAF804002A
:1013F000DAF80400B2FBF0F0CAF808004A49B1FB81
:10140000F0F0CAF80C00DFF824B1CDF80090062304
:101410009BF800005021403005F0AAFCCDF8009068
:101420009BF80000062382214030DAF8082005F0FE
:101430009FFCDAF80C106420B1FBF0F2CDF80090BC
:101440009BF800000323B421403005F091FC2E21CD
:10145000CDE90019002002909BF80000B8F8003098
:101460002288B421583005F0D7FBDAF80C1064203C
:10147000B1FBF0F200FB1212CDF800909BF80000D7
:101480000223B421603005F0C3FCCDF800909BF836
:101490000000BAF8142006235021EB3005F068FC58
:1014A000CDF800909BF8000006238221EB30DAF89B
:1014B000002005F05DFCCDF800909BF800000623AD
:1014C000B42100F20310DAF8042005F051FC268064
:1014D00000234FF4F07A52461946184600E009E01E
:1014E00005F09AFA012352461946002005F094FAB5
:1014F0002580BCE6CAF804007AE7000060D200202C
:101500000010002008ED00E02CD200202AD200209C
:10151000288123429401234207D0002048D4002090
:10152000C8D1002020D40020A086010000D00020D7
:1015300010B56FF0040005F0C5FF20482049006891
:10154000B0FBF1F01F49C0B2087000EB4002C2EBE3
:10155000C0104FF6FF7202EAC000488010BD194962
:10156000097848434FF0E021486100238B61086906
:1015700040F0010008610869C20701D0C003FAD534
:10158000086920F0010008618B6170470D494988A6
:1015900048434FF0E021486100238B61086940F027
:1015A000010008610869C20701D0C003FAD50869C3
:1015B00020F0010008618B617047000008D0002016
:1015C00000127A0002D0002010B500F068FE01F091
:1015D00077F902F0A0FF03F0A7FE04F097F8BDE84A
:1015E000104004F0B9BB344900204870704770B512
:1015F0000446314D2878844238D0072819D2DFE8D4
:1016000000F004070A0D1013160000F051FE10E060
:1016100001F05EF90DE002F087FF0AE002F084FFBE
:1016200007E003F08AFE04E004F078F801E004F03B
:101630009BFB072C19D2DFE804F004070A0D1013F6
:10164000160000F031FE10E001F03FF90DE002F06D
:1016500067FF0AE002F064FF07E003F06AFE04E0BF
:1016600004F059F801E004F07CFB2C7070BD1248C6
:101670004078072813D2DFE800F00406080A0C0EB1
:10168000100000F0B5BB00F057BF01F01DBF01F026
:101690001BBF03F04CB903F013BF04F0AAB97047A5
:1016A00010B5064841680020884703484078FFF796
:1016B0009EFFBDE81040DAE706D0002034D20020BB
:1016C0000CB50022019200925248016841F4803129
:1016D00001604FF4A063016801F4003100910199A9
:1016E000491C0191009911B901999942F3D10168FE
:1016F000890302D50121009100E00092009901299F
:1017000030D145490A6842F010020A600A6822F0A6
:1017100003020A600A6842F002020A6041684160FE
:1017200041684160416841F480614160416821F451
:101730007C114160416841F4E8114160016841F069
:101740008071016001688901FCD5416821F00301C5
:101750004160416841F0020141604168C1F381018B
:101760000229FAD10CBDABE710B52A48016841F057
:10177000010101604168294A114041600168284A1D
:1017800011400160016821F480210160416821F469
:10179000FE0141604FF41F018160FFF7E4FF214922
:1017A0004FF00060086010BD10B51A4A506800F094
:1017B0000C011D4B1D4800290ED004290ED008290C
:1017C0000ED003605168194AC1F30311121D515C18
:1017D0000268CA40026010BD0360F3E70360F1E7EE
:1017E000516801F47011536803F48033022404EB50
:1017F000914133B153689B0307D50D4B59430160A9
:10180000E0E70B4B59430160DCE7074B59430160AC
:10181000D8E7000000100240002002400000FFF85E
:10182000FFFFF6FE08ED00E000127A0008D000206D
:1018300000093D004FF4C871154807F023BA10B5F0
:101840000022134B53F8324024B1521CD2B2322A38
:10185000F8D310BD43F8320003EBC20041600D49DC
:101860000878401C087010BD70B50024084D094E62
:101870000AE005EBC4014968014204D055F8341070
:101880008847002803D0641C31788C42F1DB70BD9E
:1018900078D200201CD000203EB5F94C1025F9A1CB
:1018A000E078CDE900150290638AA28A61782078F9
:1018B00005F0BCFCE078F8A1CDE900150290607855
:1018C000A178638A0144A28A207805F0AFFCE07811
:1018D000F6A1CDE9001502906178A078638A0144F1
:1018E0000144A28A207805F0A1FCE078F7A1CDE9B7
:1018F000001502906178A078638A01440144014494
:10190000A28A207805F092FCE078F6A1CDE90015D6
:1019100002906178A078638A014401440144014443
:10192000A28A207805F082FCE078F1A1CDE90015CB
:1019300002906178A078638A014401440144014423
:101940000144A28A207805F071FCE078EEA1CDE98F
:10195000001502906178A078638A01440144014433
:101960000144014401444FF478424FF4D27005F031
:101970005DFC3EBD2DE9FE4FE54C4FF0E708CDF88C
:101980000080002122881423084605F022F8012750
:101990001026E0A08DE8C1004FF6FF7A1F235246C3
:1019A0000221002005F0B8FCB54800231C308DE86A
:1019B000C100524604214FF4B97005F037FCCDF850
:1019C00000A060882288143883B21421002005F01A
:1019D00000F84FF00009D5A0CDE900095346E722F1
:1019E00064211E2005F0A2FBA54DD1A1E723E878D4
:1019F000CDE9001602905246AA211E2005F016FCE1
:101A0000FFF74AFF0024DFF834A305F1160BAAF80C
:101A100000806878A97895F800C001FB0401287956
:101A200000F110020A4493B21BF80420091A0CEBCF
:101A300002120244ACEB0000383289B280B205F0E9
:101A400037F8E878BEA1CDE9001602906878A97849
:101A50006B8A04FB010081B22878E722283880B223
:101A600005F0E4FB641CE4B2062CD0D3A8786978B6
:101A700000EB40002A7901EB40008318801A81B204
:101A8000103302F5E2724FF4CD7005F011F87C4886
:101A9000002328308DE841024FF6FF724FF4987111
:101AA000184605F0C3FBA7480760BDE8FE8FFEB5EA
:101AB0000646734D6E71FFF7EFFE6979002310241F
:101AC0004FF6FF7201290ED0022918D0032924D025
:101AD000042931D005293FD006294ED008295ED0EF
:101AE00009295ED06FE06B74E87866A1CDE9001437
:101AF0000290E7236978287805F098FB63E06B741F
:101B0000E87865A1CDE9001402906878A978E72308
:101B10000144287805F08AFB55E06B74E87863A1EE
:101B2000CDE9001402906978A878E72301440144C4
:101B3000287805F07BFB46E06B74E87863A1CDE97B
:101B4000001402906978A878E72301440144014415
:101B5000287805F06BFB36E06B74E87861A1CDE97D
:101B6000001402906978A878E723014401440144F5
:101B70000144287805F05AFB25E06B74E8785CA1F5
:101B8000CDE9001402906878A978E7230844084456
:101B9000084408440144287805F048FB13E06B74BE
:101BA00011E0E87858A1CDE9001402906878A9788E
:101BB000E7230844084408440844084401444FF417
:101BC000D27005F033FB6979A879814205D10829E3
:101BD00005D0092903D05C480670A971FEBD09290A
:101BE000FBD1687C401CC0B268740228F5D1584A09
:101BF00056481060F1E72DE9F0410446524800785C
:101C0000002824D11E4D0023012695F90F002A7CBF
:101C1000411E012C1CD0022C28D00627042C26D0D3
:101C2000B4F5805F24D0B4F5005F22D0B4F5804FC6
:101C300020D0B4F5004F1ED0B4F5803F1CD0B4F5D1
:101C4000003F1AD0B4F5802F18D0202C17D0CCE04C
:101C500048B2E873012800DAEE7395F90F00012805
:101C600079D02E74C0B2FFF722FFBEE079E07EE0AB
:101C700092E096E09BE0A0E0A5E0AAE0AEE0B1E053
:101C80001ED00020CAB5D1E931A3BAB2E2C1BFB5B6
:101C9000B2B9E2CAB1BCE400CAB5D1E932A3BAB262
:101CA000E2C1BFCBB2CAB1CBD9B6C800CAB5D1E97F
:101CB00033A3BAB2E2C1BFD4C8B1E4CBD9D4CBB656
:101CC000AFB5C4BCD3CBD9B6C8000000CAB5D1E902
:101CD00034A3BAB2E2C1BFC5F6D7B2D6D0B5C4B646
:101CE000AFC1BF00CAB5D1E935A3BABCC6CAFD00B1
:101CF000CAB5D1E936A3BAB2E2C1BFD6DCC6DABAF8
:101D0000CDC6B5C2CA000000CDCBB3F600000000BE
:101D100038D40020B9E2B5E7BCC6CAB1CAFDD7D6EF
:101D2000CAB5D1E9CFB5CDB300000000BBD50000E6
:101D3000C6BDB4A8D6D0D1A7000000002AD200208A
:101D4000F7CE00008081214207D000200400FA0570
:101D50000CED00E0FFE71AB32B740120FFF7A7FE9C
:101D600043E0062941D2C0B2FFF7A1FE3DE0401C8E
:101D700040B2E873062800DDEF7395F90F000628DE
:101D800004D02E74C0B2FFF792FE2EE042B12B7445
:101D90000620FFF78CFE28E00120FFF788FEEE7397
:101DA00023E00220FFF783FE0220E8731DE00320FA
:101DB000FFF77DFE0320E87317E00420FFF777FEAE
:101DC0000420E87311E00520FFF771FE0520E87399
:101DD0000BE00620FFF76BFEEF7306E00820FFF72D
:101DE00066FE02E00920FFF762FE2046BDE8F081B2
:101DF0002DE9F05FDFF82484DFF8249408F116045D
:101E000098F8002098F804002378A2EB000A02EB6F
:101E10000312434602445B78B9F81010A3EB000CA0
:101E200003444846383210330025FE4E0127408ACD
:101E30008A4510DA91420ED284450CDA98420AD2D1
:101E400098F807B0BBF1000F05D088F807503803A9
:101E5000FFF70AFD0DE08A4509DA914207D2844571
:101E600005DA984203D2D6F82801012801D188F872
:101E7000077098F8002098F80400B9F81010131AA9
:101E80008B4224DA94F801C002EB0C1C84440CF160
:101E9000380C61451BD298F801C098F802A0D444D0
:101EA000B9F812A0ACEB000BD34510DA84440CF166
:101EB000100CE2450BD298F808C0BCF1000F06D018
:101EC00088F808504FF40050FFF7CEFC1CE08B421E
:101ED00018DA637802EB031202443832914211D2CD
:101EE00098F8011098F802200A44B9F81210131A51
:101EF0008B4207DA10441030814203D2D6F8280111
:101F0000012801D188F8087098F8002098F804009A
:101F1000B9F81010131A8B4225DA94F802C002EBBC
:101F20000C1C84440CF1380C61451CD298F801C09B
:101F300098F802A00CEB4A0CB9F812A0ACEB000B1D
:101F4000D34510DA84440CF1100CE2450BD298F81A
:101F500009C0BCF1000F06D088F809504FF480404A
:101F6000FFF782FC1DE08B4219DAA37802EB031223
:101F700002443832914212D298F8011098F80220A7
:101F800001EB4202B9F81210131A8B4207DA10441F
:101F90001030814203D2D6F82801012801D188F8F7
:101FA000097098F8002098F80400B9F81010131A76
:101FB0008B4226DA94F803C002EB0C1C84440CF12B
:101FC000380C61451DD298F802C098F801A00CEBBE
:101FD0004C0CD444B9F812A0ACEB000BD34510DA8A
:101FE00084440CF1100CE2450BD298F80AC0BCF105
:101FF000000F06D088F80A504FF40040FFF734FC79
:102000001EE08B421ADAE37802EB03120244383204
:10201000914213D298F8021098F8012001EB410187
:102020000A44B9F81210131A8B4207DA1044103020
:10203000814203D2D6F82801012801D188F80A701C
:1020400098F8002098F80400B9F81010131A8B4281
:1020500025DA94F804C002EB0C1C84440CF1380C13
:1020600061451CD298F801C098F802A00CEB8A0CCC
:10207000B9F812A0ACEB000BD34510DA84440CF194
:10208000100CE2450BD298F80BC0BCF1000F06D043
:1020900088F80B504FF48030FFF7E6FB1DE08B42D1
:1020A00019DA237902EB031202443832914212D238
:1020B00098F8011098F8022001EB8201B9F812207B
:1020C0000B1A934207DA08441030824203D2D6F842
:1020D0002801012801D188F80B7098F8002098F8A1
:1020E0000400B9F81010131A8B4226DA94F805C0D0
:1020F00002EB0C1C84440CF1380C61451DD298F89D
:1021000002C098F801A00CEB8C0CD444B9F812A0D2
:10211000ACEB000BD34510DA84440CF1100CE24513
:102120000BD298F80CC0BCF1000F06D088F80C5008
:102130004FF40030FFF798FB1EE08B421ADA637908
:1021400002EB031202443832914213D298F8021083
:1021500098F8012001EB81010A44B9F81210131A12
:102160008B4207DA10441030814203D2D6F828019E
:10217000012801D188F80C70B9F810004FF4CD7423
:10218000A04220D998F8041001F5E27290421AD2C8
:1021900098F8022098F8013002EB82021344B9F853
:1021A0001220A3EB010C94450DDA194410318A4238
:1021B00009D298F80D1031B188F80D504FF48020F5
:1021C000FFF752FB1DE0A04219D998F8041001F561
:1021D000E272904213D298F8020098F8012000EBC6
:1021E00080000244B9F81200531A834207DA1144FE
:1021F0001031884203D2D6F82801012801D188F88D
:102200000D70B9F81000A04228D998F8041001F513
:10221000E272904222D298F8022005E01ED00020FF
:1022200034D200200080234298F8013002EB4202B1
:1022300003EB4202B9F81230A2EB010C9C450DDA17
:10224000114410318B4209D298F80E1031B188F840
:102250000E50BDE8F05F2020FFF706BBA0421AD960
:1022600098F8041001F5E272904214D298F8020036
:1022700098F8012000EB400002EB4002B9F8120090
:10228000531A834207DA11441031884203D2D6F838
:102290002801012801D188F80E70BDE8F09F0F4990
:1022A000AFF2AD60FFF7CBBA00210846FFF762BB83
:1022B00010B54FF6FF7003F04DFE09480121C171C2
:1022C000017241728172C172017341738173002284
:1022D000C273017407214171817110BD27F007009D
:1022E0001ED00020FEB5FD4C1025FDA16078CDE983
:1022F000001502904FF4D276E3882289A621304659
:1023000004F094FF6078F8A1CDE900150290E3880D
:102310002289D821304604F089FF6078F4A1CDE904
:1023200000150290E3884FF478424FF485713046EF
:1023300004F07CFFFEBD2DE9FE4FEF4CE725009534
:10234000002122881423084604F043FB1026EBA149
:10235000CDE9001601204FF6FF7702901F233A4681
:102360000221002004F0D8FF0097638822881421FE
:10237000002004F02EFBD94CE6A16078CDE90016D0
:102380000290E38822892821142004F04FFF60780E
:10239000E5A1CDE900160290E388228928214FF4B7
:1023A000877004F043FF6078E6A1CDE90016029043
:1023B000E38822896021822004F038FF6078E4A15C
:1023C000CDE900160290E38822899221822004F050
:1023D0002DFF6078E1A1CDE900160290E388228903
:1023E000C421822004F022FF6078DFA1CDE900162D
:1023F0000290E3882289F621822004F017FF60789A
:10240000DCA1CDE9001602904FF49B78E388228985
:102410006021404604F00AFF6078D6A1CDE900169D
:102420000290E38822899221404604F0FFFE607802
:10243000D0A1CDE900160290E3882289C42140464C
:1024400004F0F4FE6078CBA1CDE900160290E38899
:102450002289F621404604F0E9FE6078C5A1CDE965
:1024600000160290E3882289F621404604F0DEFE41
:10247000C148058000254FF056094FF4BC784FF055
:102480007A0A05EBC50000EB051B09EB4B010B4677
:102490004246502004F0C0FA0AEB4B010B4642467C
:1024A000502004F0B9FA6D1CEDB2042DE9D34FF4BD
:1024B000887550222B465621104604F0ADFA40464E
:1024C0002B460246562104F0A7FAFFF70BFF002522
:1024D0004FF0A60905EBC500227800EB0518C2EB0A
:1024E0004800A63002EB480381B2C2F5D270B63381
:1024F00002F5E27204F0DCFA6078A0A1CDE90016E2
:102500000290207809EB4801C0F5CA70E388E72201
:1025100004F08CFE6D1CEDB2032DDBD36F4900205F
:102520001C31CDE9001603463A4602904FF49871EB
:1025300004F07CFEBDE8FE8F2DE9F047674CDFF824
:102540004082002521784046C1F5D279B8F81020A4
:10255000C1F1A60C01F1B6038A4E0127408A01F5AC
:10256000E27191450FD28A420DD284450BDA98422E
:1025700009D294F802A0BAF1000F04D0A57080200F
:10258000FFF772F90CE0914509D28A4207D28445DF
:1025900005DA984203D2D6F82801012800D1A770A5
:1025A0002078B8F81010C0F5D2728A4215D200F522
:1025B000E273994211D2B8F81230C0F1D80C9C45A0
:1025C0000BDA00F1E80C634507D2E3782BB1E57034
:1025D0004FF48070FFF748F913E08A4210D200F5FB
:1025E000E27291420CD2B8F81210C0F1D8028A42BD
:1025F00006DAE830814203D2D6F82801012800D15A
:10260000E7702078B8F81010C0F5D2728A4215D25F
:1026100000F5E273994211D2B8F81230C0F5857C0A
:102620009C450BD200F58D7C634507D223792BB1F5
:102630002571BDE8F0474020FFF716B98A4211D254
:1026400000F5E27291420DD2B8F81210C0F5857211
:102650008A4207D200F58D70814203D2D6F8280154
:10266000012800D12771BDE8F0872DE9FE4F04460F
:10267000454F387801282FD1184D10264FF000080B
:1026800048F210094FF6FF7A4FF4857B012C24D0D5
:10269000022C7FD0042C7ED0802C7DD0B4F5807F9E
:1026A0007BD0402C7AD03948B4F5801F006876D0B2
:1026B0003749B4F1807F73D0B4F5001F71D0B4F105
:1026C000007F6FD0B4F5000F6DD0B4F1006F6BD008
:1026D000B4F5800F69D069E0F0E06BE068D00020CD
:1026E000BFAACABC00000000C7E5C1E300000000AB
:1026F000B7B5BBD80000000038D40020B9E2B5E778
:10270000BCC6CAB1CAFDD7D6CAB5D1E9CFB5CDB31B
:1027100000000000CAB5D1E931A3BAB2E2C1BFB529
:10272000B2B9E2CAB1BCE400CFB5CDB3BCC6CAB140
:10273000CAB1BCE43A202020202020202020206D97
:1027400073000000B4ABB8D0C6F7313A0000000007
:10275000B4ABB8D0C6F7323A00000000B4ABB8D082
:10276000C6F7333A00000000B4ABB8D0C6F7343A2D
:10277000000000006D7300002AD20020F7CE000098
:1027800034D200200080234207D0002060D20020F5
:1027900048D4002020E031E042E053E064E075E0FE
:1027A00076E07AE07BE07EE07FE082E0B4F1806F6B
:1027B00072D083E0FFF796FD6878AFF2CC01CDE9E7
:1027C000001602904B46524659464FF4D27004F020
:1027D0002DFD87F8008071E0FFF784FD6878AFF287
:1027E0000011CDE9001602904B465246A6214FF447
:1027F000D27004F01BFD03F070FF5FE0FFF772FD85
:102800006878AFF21C11CDE9001602904B46524693
:10281000D8214FF4D27004F009FD03F067FF4DE0BA
:10282000FFF760FD6878AFF24811CDE9001602901D
:102830004B465246A6214FF4D27004F0F7FC03F049
:102840004CFF3BE0FFF74EFD6878AFF26411CDE935
:10285000001602904B465246D8214FF4D27004F035
:10286000E5FC03F043FF29E0FFF73CFD6878AFF299
:102870008011CDE9001602904B46524659464FF45E
:10288000D27004F0D3FC87F8008017E0E86015E010
:10289000EA68801A086011E00DE028610EE02A69FC
:1028A000801A48600AE0686108E06A69801A8860F6
:1028B00004E0A86102E0AA69801AC860204639E6EF
:1028C0000A49AFF25920FEF7BABF0021084632E5A7
:1028D00010B54FF6FF7003F03DFB03F007FF04490E
:1028E00001200871C870887010BD0000C701F00F8A
:1028F00068D000202DE9FE4FFFF7F4FCFF4F4FF6A4
:10290000FF7BA7F800B0DFF8F883E720A8F8000005
:10291000FC4CFD4E1025617B4FF4D27042F21079D1
:102920004FF0200A01297CD06178F8A2CDE900257A
:102930000291A38AE28A422104F078FC6078F5A132
:10294000CDE9001502904FF47C435A4674214FF4B0
:10295000D27004F06BFC84F802A06078EFA1CDE99E
:1029600000150290A38AE28A2179E07804F05EFCE7
:102970006078EFA1CDE9001502902079A178A38AB3
:1029800000EB4101E28AE07804F050FC6078EDA1B0
:10299000CDE900150290A38AE28A2179A07904F09A
:1029A00045FC6078ECA1CDE9001502902079A17872
:1029B000A38A00EB4101E28AA07904F037FC00957C
:1029C000E078092321792130326A04F0D1F90095A9
:1029D0002079A178092300EB4101E078726A213067
:1029E00004F0C6F9B06A009590FBF9F2A0790923CA
:1029F0002179213004F0BCF9F06A009590FBF9F2DE
:102A00002079A178092300EB4101A079213004F05D
:102A1000AFF9DFF858B39BF8000003287ED07EE3BF
:102A2000FFE76178B9A2CDE9002502914FF47C431C
:102A30004FF6FF724221834604F0F8FB6078B5A19F
:102A4000CDE900150290A38AE28A7421584604F069
:102A5000EDFBC6480078022802D003287ED0F2E2BF
:102A60002820A0706078C2A1CDE900150290A38A49
:102A7000E28A6179E07804F0D9FB6078C0A1CDE901
:102A8000001502906079A178A38A0144E28AE07877
:102A900004F0CCFB6078BEA1CDE90015029060790E
:102AA000A178A38A00EB4101E28AE07804F0BEFB42
:102AB0006078BBA1CDE900150290A078617900EBA8
:102AC00040000144A38AE28AE07804F0AFFB60781A
:102AD000B7A1CDE900150290A38AE28A6179A079B5
:102AE00004F0A4FB6078B7A1CDE9001502906079ED
:102AF000A178A38A0144E28AA07904F097FB607868
:102B0000B5A1CDE9001502906079A178A38A00EB08
:102B10004101E28AA07904F089FB00E0BFE260781D
:102B2000B2A1CDE900150290A078617900EB4000D8
:102B30000144A38AE28AA07904F078FB0095E0784A
:102B4000092361791C30326804F012F9009560792C
:102B5000A17809230144E0781C3000E081E072682C
:102B600004F006F900956079A178092300EB410192
:102B7000E078B2681C3004F0FBF80095A078617929
:102B800000EB40000144E07809231C30F26804F0B7
:102B9000EFF83069009590FBF9F2A079092361798B
:102BA0001C3004F0E5F87069009590FBF9F260794B
:102BB000A17809230144A0791C3004F0D9F8B06948
:102BC000009590FBF9F26079A178092300EB4101AF
:102BD000A0791C3004F0CCF8F069009590FBF9F274
:102BE000A078617900EB40000144A07909231C30F2
:102BF00004F0BEF8607882A1CDE90015029020793A
:102C0000A178A38A00EB8100103881B2E078E28AD3
:102C1000183004F00BFBA07B88B160787BA1CDE974
:102C2000001502902079A178A38A00EB810010386A
:102C300081B2E078E28A663004F0F8FA03E2607864
:102C400075A1CDE9001502902079A178A38A00EB47
:102C50008100103881B2E078E28A663004F0E6FA4A
:102C6000F1E11E20A070607841A1CDE9001502902D
:102C7000A38AE28A6179E07804F0D8FA607840A10A
:102C8000CDE9001502906079A178A38A0144E28A17
:102C9000E07804F0CBFA60783DA1CDE90015029010
:102CA000A078617900EB40000144A38AE28AE078D1
:102CB00004F0BCFA60783AA1CDE900150290607981
:102CC000A178A38A00EB8101E28AE07804F0AEFAF1
:102CD000607837A1CDE900150290A38AE28A617974
:102CE000A07904F0A3FA607836A1CDE9001502902E
:102CF0006079A178A38A0144E28A93E02AD2002075
:102D00002CD20020ACD0002048D40020B7BDB7A8FA
:102D100031000000B7BDB7A8320000007431323A6C
:102D2000202020202020202020206D730000000083
:102D30007433343A202020202020202020206D735E
:102D4000000000007631323A202020202020202070
:102D500020206D2F730000007633343A202020208D
:102D60002020202020206D2F7300000007D000209D
:102D700074313A202020202020202020206D730054
:102D800074323A202020202020202020206D730043
:102D900074333A202020202020202020206D730032
:102DA00074343A202020202020202020206D730021
:102DB00076313A202020202020202020206D2F73E3
:102DC0000000000076323A20202020202020202001
:102DD000206D2F730000000076333A202020202041
:102DE00020202020206D2F730000000076343A2030
:102DF0002020202020202020206D2F7300000000A4
:102E0000CBD9B6C8B7BDCFF2A3BA00003433323144
:102E1000CEAAD5FD0000000031323334CEAAD5FD54
:102E200000000000A07904F001FA6078AFF25801C8
:102E3000CDE900150290A078617900EB40000144D3
:102E4000A38AE28AA07904F0F1F96078AFF2640114
:102E5000CDE9001502906079A178A38A00EB810189
:102E6000E28AA07904F0E2F90095E078092361791B
:102E70001C30326803F07CFF00956079A17809234B
:102E80000144E07872681C3003F072FF0095A0786E
:102E9000617900EB40000144E07809231C30B268FE
:102EA00003F066FF00956079A178092300EB8101AA
:102EB000E078F2681C3003F05BFF3069009590FB0E
:102EC000F9F2A079092361791C3003F051FF706990
:102ED000009590FBF9F26079A17809230144A0796B
:102EE0001C3003F045FFB069009590FBF9F2A07823
:102EF000617900EB40000144A07909231C3003F004
:102F000037FFF069009590FBF9F26079A178092309
:102F100000EB8101A0791C3003F02AFF6178AFF249
:102F20000420CDE9015100906079A178A38A00EBDB
:102F30004101E078E28A083880B204F077F9009520
:102F40006079A178092300EB4101E078E26B1C3045
:102F500003F00EFF6078FEA1CDE9001502906079C4
:102F6000A178A38A00EB4101A079E28A801C04F0D9
:102F70005DF94FF0000BCDE9015BCDF800A0607961
:102F8000A178B8F8003000EB4101A0793A881C30F4
:102F900003F042FE306B0095B0FBF9F26079A17846
:102FA000082300EB4101A079243003F0E1FE6078B2
:102FB000AFF28421CDE900150290A078617900EB91
:102FC00080000144E078A38A083880B2E28A04F0E5
:102FD0002DF90095A078617900EB80000144E0783C
:102FE00009231C30226C03F0C3FE6078DDA1CDE91B
:102FF00000150290A078617900EB80000144A0796F
:10300000A38AE28A801C04F011F9CDE9015BCDF8B6
:1030100000A0A078617900EB80000144A079B8F8A5
:1030200000303A881C3003F0F7FD706B0095B0FB60
:10303000F9F2A078617900EB80000144A0790823BF
:10304000243003F095FE6078CBA1CDE90015029005
:103050002179E078A38AE28AB631183004F0E6F8E4
:103060004FF6FF703880E720A8F80000CDF800A0E8
:1030700021790223B4F91820A231DC2003F034FFB7
:103080006078C0A1CDE9001502902179A38AE28A77
:10309000B6314FF48C7004F0C9F8BDE8FE8F60784B
:1030A000B9A1CDE9001502902179A38AE28A803185
:1030B000E07804F0BBF800952179E07809238031AD
:1030C0002130E26C03F054FE6078B4A1CDE9001524
:1030D00002902079A178A38A00EB8101A079E28A8D
:1030E000103004F0A3F8CDE900A50020029020796B
:1030F000A178B8F8003000EB8101A0793A8821303E
:1031000003F08AFDB06B0095B0FBF9F22079A1784D
:10311000082300EB8101A079293003F029FE9BF8F8
:103120000000022832D16078AFF22C31CDE90015D1
:1031300002902079A178A38A00EB8101E078E28AED
:10314000323004F073F8A07B80B16078AFF2443184
:10315000CDE9001502902079A178A38A00EB8101C6
:10316000E078E28A7A3004F061F80FE06078AFF23C
:103170005831CDE9001502902079A178A38A00EB9F
:103180008101E078E28A7A3004F050F8607888A112
:10319000CDE900150290A078217900EB400001EB09
:1031A0004000083881B2E078A38AE28A323004F025
:1031B0003DF84FF6FF703880E720A8F80000CDF802
:1031C00000A0A078217900EB400001EB40001C3802
:1031D00081B2E0780223B4F91A20963003F084FE1D
:1031E000607868A1CDE900150290A078217900EB04
:1031F000400001EB4000083881B2A38AE28AFA203D
:1032000004F014F849E72DE9FE4F6C4CE7270097CE
:10321000002122881423084603F0DBFB102668A156
:10322000CDE9001601204FF6FF7902901F234A4690
:103230000221002004F070F8CDF800906388228805
:103240001421002003F0C5FBDFF88CA1634D9AF830
:103250000000022802D003280CD016E0687860A194
:10326000CDE900160290AB8AEA8A1621142003F0F9
:10327000DDFF0AE068785FA1CDE900160290AB8A15
:10328000EA8A1621142003F0D1FF687861A1CDE904
:1032900000160290AB8AEA8A16214FF4877003F079
:1032A000C5FFFFF727FB0024DFF884814FF0420BB6
:1032B000A8F80070022C12D204EBC4002A7800EBAC
:1032C000041002EB4003C2EB4000423081B2C2F571
:1032D000D270523302F5E67203F0EAFB11E004EB20
:1032E000C4002A7800EB041002EB4003C2EB40005C
:1032F000423081B2C2F5D270523302F5E27203F06D
:10330000D7FB68784BA1CDE90016029004EBC4000E
:1033100000EB04100BEB40012878AB8AC0F5CA70B3
:10332000E72203F083FF641CE4B2052CC0D39AF8B3
:1033300000000021DFF800A14FF4987C4FF4A07446
:1033400040F22715032879D0022878D1234877E066
:1033500061313A202020202020202020206D2F7352
:103360003200000061323A2020202020202020203E
:10337000206D2F7332000000B5B2B9E2C6ACBFEDCC
:10338000B6C83A006D206D007431333A20202020F9
:103390002020202020206D7300000000613A2020B2
:1033A00020202020202020206D2F733200000000DC
:1033B000B4ABB8D0C6F7BEE0C0EB3A0038D40020BA
:1033C000B9E2B5E7BCC6CAB1CAFDD7D6CAB5D1E91C
:1033D000CFB5CDB30000000007D00020ACD0002056
:1033E000CAB5D1E932A3BAB2E2C1BFCBB2CAB1CB3E
:1033F000D9B6C800CAB5D1E933A3BAB2E2C1BFD4C5
:10340000C8B1E4CBD9D4CBB6AFB5C4BCD3CBD9B655
:10341000C8000000CFB5CDB3BCC6CAB1CAB1BCE4C8
:103420003A202020202020202020206D7300000042
:103430002AD20020F7CE00002CD2002026E042E065
:10344000CDE901618930002300904A466146184663
:1034500003F0ECFEA8F80070AAF800902346B4220E
:1034600029466C2003F024FB4FF482762346324633
:103470002946B42003F01CFB03B0234629463046FE
:10348000BDE8F04F4FF4A87203F012BBCDE9016123
:10349000FC48002300904A466146184603F0C6FEE9
:1034A000A8F80070AAF800902346F4222946A42028
:1034B00003F0FEFA03B0234622462946BDE8F04F4A
:1034C000F52003F0F5BAE8E52DE9F05FFFF734F8F1
:1034D000EC4CDFF8B493603C00262078B9F810106B
:1034E000C0F5D273E94F4FF001088B4215D200F5B9
:1034F000E272914211D2B9F81220C0F174059542DE
:103500000BDA00F18405AA4207D2E2792AB1E6710A
:103510004FF40060FEF7A8F914E08B4210D200F5DA
:10352000E27291420CD2B9F81210C0F174028A42D0
:1035300006DA8430814203D2D7F82801012801D16C
:1035400084F807802078B9F81010C0F5D2738B4248
:1035500015D200F5E272914211D2B9F81220C0F1F1
:10356000420595420BDA00F15205AA4207D2227AAF
:103570002AB126724FF48060FEF776F914E08B4290
:1035800010D200F5E27291420CD2B9F81210C0F1DB
:1035900042028A4206DA5230814203D2D7F8280129
:1035A000012801D184F80880B9484FF4A07500784B
:1035B000032816D002285FD1B9F810004FF4947A8E
:1035C000A0F16D01472959D2B9F81210514555D3D0
:1035D000A94253D2E17AE1B3E6720120FEF744F941
:1035E0005CE0B9F810004FF48F7AA0F1A5014F29E3
:1035F0000CD2B9F81210514508D3A94206D2617A0B
:1036000021B166720220FEF72FF90FE0A4280BD932
:10361000F42809D2B9F81200504505D3A84203D2C4
:10362000D7F82801012801D184F80980B9F81000E1
:10363000A0F1F6014A290FD2B9F8121051450BD367
:10364000A94209D2A17A39B1A672BDE8F05F04207F
:1036500000E013E0FEF708B9F5280BD9A84209D21B
:10366000B9F81200504505D3A84203D2D7F8280173
:10367000012801D184F80A80BDE8F09F6C280BD99D
:10368000B42809D2B9F81200504505D3A84203D294
:10369000D7F82801012801D184F80B80B9F810006F
:1036A0004FF4827BA0F1B5014F290CD2B9F812106A
:1036B000514508D3A94206D2617A21B1667202202F
:1036C000FEF7D2F80FE0B4280BD9584509D2B9F863
:1036D0001200504505D3A84203D2D7F8280101288B
:1036E00001D184F80980B9F81000A0F205114B2926
:1036F0000DD2B9F81210514509D3A94207D2A17AC7
:1037000029B1A672BDE8F05F0420FEF7ADB85845B8
:103710000CD9B0F5A87F09D2B9F81200504505D3ED
:10372000A84203D2D7F828010128A5D184F80A803D
:10373000A2E72DE9F04F8FB00446554800780228E3
:1037400001D003287ED14F4E0025603EDFF8449122
:1037500096F80DC031790E91B1780D91F178DFF8BE
:1037600038A110274FF6FF784FF0E70B0C91012C92
:103770006ED031460A798B7802F1A20E03EB430337
:1037800002EB4302CB781C3A96330B93B1F9183015
:10379000B1F91A10022C71D0042C70D0802C6FD08B
:1037A000B4F5807F6DD0402C7ED03C49B4F5801FAD
:1037B0000A687AD0394B3146C9691B68591A0A918F
:1037C0003146B1F918E04FF47A710EFB01FE314633
:1037D000497909913146C9781C310891B4F1807F4B
:1037E0007ED031464FF47A73097B07913146B1F9A7
:1037F0001A10594306913146C97821310591B4F523
:10380000001F6ED0B4F1007F6CD0B4F5000F6AD009
:10381000224B3146496A1B68591A04913146B4F16A
:10382000006F897801EB410331464979194474D01E
:10383000B4F5800F72D0B4F1806F70D0B4F5806FA2
:103840006ED001E0FEE303E0B4F5006F69D027E23B
:10385000032802D002282CD022E2FFF74BF8707820
:103860000FA1CDE90017029048F2100342464FF431
:1038700085714FF4D27003F0D9FC17E09CE0C6E0EC
:10388000F1E002E10CD1002034D20020008023427C
:1038900007D000202AD200202CD2002060D20020A5
:1038A000B7B5BBD80000000011E124E1FD48057068
:1038B000F6E1F07C401CF074FB48BCF1010F81780C
:1038C000027990F801E002EB8101838AC28A29D053
:1038D000AFF6D42CCDE9017ECDF800C00C9803E002
:1038E0001EE13EE174E152E2323003F09FFCF07CD5
:1038F000C0074FD00120B0737078AFF6F021CDE94A
:10390000001702903079B178B38A00EB8101F0782A
:10391000F28A7A3003F08AFCC2E14DE28DE272E372
:10392000EAE3EAE3AFF6283CCDE9017E0C981039D2
:1039300089B2CDF800C0183003F078FCF07CC007E5
:1039400014D00120B0737078AFF64031CDE9001784
:1039500002903079B178B38A00EB8100103881B2DF
:10396000F078F28A663003F061FC99E1B573707803
:10397000AFF65C31CDE9001702903079B178B38AA7
:1039800000EB8100103881B2F078F28A663003F0E3
:103990004DFC85E1B5737078AFF68431CDE9001741
:1039A00002903079B178B38A00EB8101F078F28A25
:1039B0007A3003F03BFC73E1BCF1010F13D0491ED8
:1039C00008B27083A9F80080AAF800B0002800DAD5
:1039D00075832020009091B20223B6F91A200B982B
:1039E00003F082FA5CE15B1E18B23083A9F8008014
:1039F000AAF800B0002800DA3583202000900223C6
:103A0000B6F918207146DC2003F06EFA48E1BCF1EB
:103A1000010F13D0491C08B27083A9F80080AAF8DE
:103A200000B0632800DD75832020009091B202234E
:103A3000B6F91A200B9803F057FA31E15B1C18B263
:103A40003083A9F80080AAF800B0632801DDC820FF
:103A50003083202000900223B6F918207146DC2024
:103A600003F042FA1CE1FEF745FF70788FA1CDE923
:103A70000017029048F210034246A6214FF4D2707C
:103A800003F0D4FB02F029FEF6E3404602F062FAAE
:103A9000F5633564F56435657565B565F565F5738C
:103AA00035747574B57402F021FE00210846FFF7E5
:103AB000AAFB70787FA1CDE90017029048F21003AD
:103AC0004246D8214FF4D27003F0B0FBD4E3FEF7A6
:103AD00011FF7078AFF23821CDE90017029048F25B
:103AE000100342464FF485714FF4D27003F09EFBF1
:103AF0006C480570C0E3BCF1010F04D0032805D069
:103B0000022808D0B8E3F261F262B5E30120307315
:103B1000F2617264B0E3F07B401CF0733265ABE39A
:103B2000BCF1010F89D1A9F80080AAF800B0634860
:103B30000A9A0260BEFBF2F10161DDE90801092386
:103B4000009703F015F95D480923016942F21070EE
:103B500091FBF0F20097B07971791C3003F008F90D
:103B60008AE3BCF1010F04D0032808D002282AD030
:103B700082E332623263F06A101AF0637CE30798E2
:103B80000028A3D03573A9F80080AAF800B04B48EC
:103B90000A9A02620698B0FBF2F1484881620097E7
:103BA00009230E99059803F0E3F844480923816A34
:103BB00042F2107091FBF0F20097B0793179213028
:103BC00003F0D6F858E3307C401C3074726553E340
:103BD000BCF1010F8ED1A9F80080AAF800B0306ABC
:103BE000121A36484260BEFBF2F141610D99099804
:103BF000009701440923089803F0BAF82F480923D5
:103C0000416942F2107091FBF0F200977079B1783F
:103C10000144B0791C3003F0ABF822480078032847
:103C20009ED100977079B178092300EB4101F078BB
:103C3000F26B1C3003F09CF8204BD3E90410421ABD
:103C4000002A01DC884259D14FF47A704243F06B6C
:103C50001A49B2FBF0F00863496B1948814231D22E
:103C6000CDE90175202000907079B178BAF8003064
:103C700000EB4101B079B9F800201C3002F0CCFF14
:103C80000E480823016B42F21070B1FBF0F200976E
:103C90007079B17800EB4101B079243003F068F815
:103CA000EAE2000007D00020ACD00020BFAACABCC6
:103CB00000000000C7E5C1E30000000048D4002078
:103CC0009F860100CDE90175202000907079B178C0
:103CD000BAF8003000EB4101B079B9F800201C308F
:103CE00002F09AFF00977079B178082300EB410148
:103CF000B079FE4A243003F03BF8BDE2081A4FF4D5
:103D00007A714843F16BFA4AB0FBF1F01063F7495E
:103D1000884220D2CDE901752D2000907079B178CC
:103D2000BAF8003000EB4101B079B9F800201C303E
:103D300002F072FFEE480823016B42F21070B1FBF3
:103D4000F0F200977079B17800EB4101B07924303E
:103D500003F00EF890E2CDE901752D200090707906
:103D6000B178BAF8003000EB4101B079B9F8002021
:103D70001C3002F051FF00977079B178082300EBF6
:103D80004101B079D94A243002F0F2FF74E2BCF16B
:103D9000010F04D0032805D0022808D06CE272621B
:103DA000726369E2012030737262B26464E2707C13
:103DB000401C7074B2655FE2BCF1010F9DD1A9F89F
:103DC0000080AAF800B0CA4B049A9A60BEFBF2FCCD
:103DD000C3F818C0032819D00D990998009700EB73
:103DE00041010923089802F0C3FFC14809238169F2
:103DF00042F2107091FBF0F200977079B17800EB0D
:103E00004101B0791C3002F0B3FF35E2092300977D
:103E1000089802F0ADFFB6480923816942F210709C
:103E200091FBF0F20097B078717900EB400001440B
:103E3000B0791C3002F09CFF1EE2BCF1010F04D0EF
:103E4000032808D0022873D016E2B262B263706B06
:103E5000101A306410E20798002897D03573A9F83B
:103E60000080AAF800B0A248049A42620698B0FB0B
:103E7000F2F19F48C1620097DDE90D1000EB4101AE
:103E80000923059802F074FF99480923C16A42F298
:103E9000107091FBF0F200973079B17800EB41019E
:103EA000B079213002F064FF924800780328ACD149
:103EB000D6E91110421AF26400973179F07809239B
:103EC0008031213002F054FF894BD3E90A010A1AEC
:103ED000002A01DC814248D14FF47A704243F06CF1
:103EE0008349B2FBF0F088638049884221D2CDE952
:103EF0000175202000903079B178BAF8003000EBDD
:103F00008101B079B9F80020213002F085FE7848AF
:103F10000823816B42F21070B1FBF0F20097307908
:103F2000B17800EB8101B079293002F021FFA3E1E3
:103F300064E0CDE90175202000903079B178BAF8BD
:103F4000003000EB8101B079B9F80020213002F097
:103F500063FE00973079B178082300EB8101B079D6
:103F6000624A293002F004FF86E1401A4FF47A7168
:103F70004843F16C5E4AB0FBF1F090635B498842C4
:103F800020D2CDE901752D2000903079B178BAF8B2
:103F9000003000EB8101B079B9F80020213002F047
:103FA0003BFE53480823816B42F21070B1FBF0F2E4
:103FB00000973079B17800EB8101B079293002F0B7
:103FC000D7FE59E1CDE901752D2000903079B17807
:103FD000BAF8003000EB8101B079B9F80020213047
:103FE00002F01AFE00973079B178082300EB8101C6
:103FF000B0793E4A293002F0BBFE3DE1B07C401C66
:10400000B074F26538E1BCF1010F90D1A9F80080DD
:10401000AAF800B0B36AD21A354BDA60BEFBF2FCE4
:10402000C3F81CC0032818D009230097089802F091
:104030009FFE2F48C16942F2107091FBF0F2009789
:10404000B07800E0E7E1717900EB40000144B0791D
:1040500009231C3002F08CFE0EE10D99099800979F
:1040600000EB81010923089802F082FE2048092311
:10407000C16942F2107091FBF0F200977079B1784B
:1040800000EB8101B0791C3002F072FE0097B0782D
:10409000717900EB80000144F07809231C30326C08
:1040A00002F066FE12481249C0698969421A002A64
:1040B00001DC884254D14FF47A704243306C0C4991
:1040C000B2FBF0F04863094988422BD2CDE9017573
:1040D00020200090B078717900EB80000144B07925
:1040E000BAF80030B9F800201C3007E09F860100C4
:1040F00048D4002007D000207FE09EE002F08CFD35
:10410000F9480823416B42F21070B1FBF0F20097BE
:10411000B078717900EB80000144B079243002F06E
:1041200027FEA9E0CDE9017520200090B0787179D3
:1041300000EB80000144B079BAF80030B9F80020F3
:104140001C3002F069FD0097B078717900EB8000B7
:104150000144B0790823E54A243002F009FE8BE0DF
:10416000081A4FF47A714843316CDF4AB0FBF1F022
:104170005063DE49884222D2CDE901752D2000909E
:10418000B078717900EB80000144B079BAF8003062
:10419000B9F800201C3002F03FFDD3480823416BE2
:1041A00042F21070B1FBF0F20097B078717900EB39
:1041B00080000144B079243002F0DAFD5CE0CDE902
:1041C00001752D200090B078717900EB80000144DA
:1041D000B079BAF80030B9F800201C3002F01CFDAC
:1041E0000097B078717900EB80000144B079082322
:1041F000BE4A243002F0BCFD3EE00120707302F0A4
:1042000075FAF5633564F56435657565B565F5650D
:10421000F57335747574B574B548CDF800804FF4F6
:10422000B97240882C211E3883B2F0781E3880B2D3
:1042300002F0CFFBFEF75EFB1EE00220707302F07F
:1042400055FAF5633564F56435657565B565F565ED
:10425000F57335747574B574A548CDF800804FF4C6
:10426000B97240882C211E3883B2F0781E3880B293
:1042700002F0AFFBFEF73EFBF07B317C884239D188
:10428000D6E91410884244D9A9F80080AAF800B0F1
:10429000A0EB010294480262B6F91A104FF47A7347
:1042A00001FB03F1B1FBF2F181620097F0784FF06E
:1042B0000903317900F1210002F05AFDB07BD0B141
:1042C000CDE901752D200090B079BAF80030B9F829
:1042D00000203179213002F09FFC83480823816A55
:1042E00042F2107091FBF0F20097B07931792930E9
:1042F00002F03EFD45E0CDE9017520200090B07947
:10430000BAF80030B9F800203179213002F084FC8D
:10431000E3E736D2A9F80080AAF800B0A1EB0002CA
:1043200071480262B6F91A104FF47A7301FB03F177
:10433000B1FBF2F181620097F0784FF00903317917
:1043400000F1210002F014FDB07B012864D0CDE91A
:1043500001752D200090B079BAF80030B9F800202E
:104360003179213002F058FC5F480823816A42F21B
:10437000107091FBF0F20097B0793179293002F09A
:10438000F7FC707CB17C884245D1D6E91610884292
:1043900061D9A9F80080AAF800B0DFF84C81A0EB41
:1043A0000102C8F82420B6F91A004FF47A7100FB14
:1043B00001F0B0FBF2F0C8F82C0000973079B1782A
:1043C0004FF0090300EB4101F07800F1210002F009
:1043D000CFFCB07B70B3CDE901752D200090307912
:1043E000B178BAF8003000EB4101B079B9F800209B
:1043F000213002F011FCD8F82C1042F2107091FB21
:10440000F0F200973079B178082300EB4101B079E0
:10441000293002F0ADFC62E0CDE90175202000906A
:10442000B079BAF80030B9F800203179213002F0C3
:10443000F3FB99E7CDE90175202000903079B17840
:10444000BAF8003000EB4101B079B9F80020213012
:1044500002F0E2FBCFE742D2A9F80080AAF800B050
:10446000DFF88480A1EB0002C8F82420B6F91A0016
:104470004FF47A7100FB01F0B0FBF2F0C8F82C00A9
:1044800000973079B1784FF0090300EB4101F078E3
:1044900000F1210002F06CFCB07B01282AD0CDE9AC
:1044A00001752D2000903079B178BAF8003000EB1A
:1044B0004101B079B9F80020213002F0ADFBD8F805
:1044C0002C1042F2107091FBF0F200973079B17825
:1044D000082300EB4101B079293002F049FC0FB00C
:1044E0002046BDE8F08F000048D400209F860100E0
:1044F00038D40020CDE90175202000903079B178C2
:10450000BAF8003000EB4101B079B9F80020213051
:1045100002F082FBD3E71049AFF6E950FDF78FB9FF
:1045200000210846FEF76FBE10B54FF6FF7001F090
:1045300011FD02F0DBF80948012141730021C1633C
:104540000164C1648173016541658165C165C173A1
:1045500001744174817410BDC70DF00FACD0002000
:1045600070B5FDF7BFFEFF49E7200880FE494FF612
:10457000FF7008804FF4A07540F227162B46B42236
:1045800031466C2002F094FA4FF482742B46224696
:104590003146B42002F08CFA2B4631462046BDE865
:1045A00070404FF4A87202F083BA2DE9FE4FEF4C31
:1045B0004FF0E708CDF80080002122881423084638
:1045C00002F007FA1025EAA1CDE9001501204FF607
:1045D000FF7902901F234A460221002002F09CFE30
:1045E000CDF80090638822881421002002F0F1F9B0
:1045F000E54CE6A16078CDE900150290238A628A35
:104600002821142002F012FE6078E6A1CDE9001501
:104610000290238A628A28214FF4877002F006FEF6
:10462000DFF840A3AAF80090DFF83CB3ABF80080B5
:104630006078E3A1CDE900150290238A628AE178CF
:10464000A07802F0F3FD6078E8A1CDE900150290B2
:10465000E0782179238A0144628AA07802F0E6FD9D
:10466000E44E42F21077062330680095B0FBF7F273
:10467000E07821790144A078403002F079FB60783D
:10468000DDA1CDE900150290E0782179238A01446B
:10469000A078628A823002F0C9FD70680095B0FB94
:1046A000F7F2E078217906230144A078C23002F0C5
:1046B0005FFB6078D2A1CDE900150290E078217906
:1046C000238A0144A078628A00F5827002F0AEFD70
:1046D000B0680095B0FBF7F2E07821790623014439
:1046E000A07800F5A27002F043FB6078C6A1CDE986
:1046F00000150290E0782179238A00EB4101628A5B
:10470000A07802F093FD6078B8A1CDE90015029081
:104710002079E17800EB40000144238A628AA07886
:1047200002F084FDF0680095B0FBF7F22079E178A3
:1047300000EB40000144A0780623403002F018FB53
:104740006078ADA1CDE9001502902079E17800EB09
:1047500040000144A078238A628A823002F066FD1C
:1047600030690095B0FBF7F22079E17800EB40006A
:104770000144A0780623C23002F0FAFA6078A0A1C2
:10478000CDE9001502902079E17800EB400001446A
:10479000A078238A628A00F5827002F047FD706972
:1047A0000095B0FBF7F22079E17800EB400001447E
:1047B000A078062300F5A27002F0DAFA60789DA1D5
:1047C000CDE90015029040F21116238A628A314623
:1047D000E82002F02BFD0095022394F909203146D0
:1047E0004FF4A47002F014FB607896A1CDE9001597
:1047F0000290238A628A31464FF4AC7002F016FDB3
:10480000AAF800802079A27800EB4001E0780B182C
:10481000153881B2501F253380B202F2791202F0AE
:1048200047F9607889A1CDE900150290238A628A50
:104830003146A07802F0FAFC60788AA1CDE9001533
:104840000290238A628A56214FF4C87002F0EEFC6F
:10485000217A4FF4C97051B1617885A2CDE9002564
:104860000291238A628A742102F0E0FC09E06178F7
:1048700082A2CDE900250291238A628A742102F086
:10488000D5FCFFF76DFE0026AAF8008006EBC600F7
:10489000227800EB0617C2EB4700A63002EB470375
:1048A00081B2C2F5D270B63302F5E27202F000F9BD
:1048B000607875A1CDE900150290A62000EB4701B4
:1048C0002078238AC0F5CA70E72202F0AFFC761C7C
:1048D000F6B2032ED8D32C4900202431CDE900159F
:1048E00003464A4602904FF4987102F09FFCAAF8E2
:1048F0000080ABF800904FF4A07540F227162B46CD
:10490000B42231466C2002F0D3F84FF482742B4667
:1049100022463146B42002F0CBF803B02B46314694
:104920002046BDE8F04F4FF4A87202F0C1B82DE95F
:10493000F05FFDF701FE554FDFF85491124C388AB5
:104940004FF00008A0F16D014FF0010A4FF494758B
:104950004FF4A076472903D2798AA94200D399E07F
:10496000A2E000002AD200202CD2002038D400205F
:10497000B9E2B5E7BCC6CAB1CAFDD7D6CAB5D1E956
:10498000CFB5CDB30000000060D10020CAB5D1E999
:1049900034A3BAB2E2C1BFC5F6D7B2D6D0B5C4B659
:1049A000AFC1BF00CFB5CDB3BCC6CAB1CAB1BCE4BC
:1049B0003A202020202020202020206D207300007D
:1049C000BEADB9FDB9E2B5E7B4ABB8D0C6F7B5C472
:1049D0003132B5C4CBB2CAB1CBD9B6C85631323AEE
:1049E00028B5A5CEBB3A206D2F732900B5DA32B4B5
:1049F000CE3A000008D40020B5DA31B4CE3A000037
:104A0000B5DA33B4CE3A0000BEADB9FDB9E2B5E7D0
:104A1000B4ABB8D0C6F7B5C43334B5C4CBB2CAB1A1
:104A2000CBD9B6C85633343A28B5A5CEBB3A206D9B
:104A30002F732900B4ABB8D0C6F7BEE0C0EBA3BA61
:104A400000000000206D206D00000000B0B4BCFC30
:104A50004B45595F30C7D0BBBBCBD9B6C8B7BDCF6C
:104A6000F2000000CBD9B6C8B7BDCFF2A3BA0000A0
:104A700034333231CEAAD5FD000000003132333458
:104A8000CEAAD5FD00000000F7CE000034D20020F1
:104A900000802342B14207D2617929B184F80580B0
:104AA0000120FCF7E1FE0EE06C280AD9B42808D2F8
:104AB000788AA84205D3B04203D2D9F82801012848
:104AC00001D184F805A0388A4FF4827BA0F1B501AA
:104AD0004F290CD2798AA94209D3B14207D2A179D0
:104AE00029B184F806800220FCF7BEFE0EE0B4284F
:104AF0000AD9584508D2788AA84205D3B04203D2D1
:104B0000D9F82801012801D184F806A0388AA0F23A
:104B100005114B290DD2798AA9420AD3B14208D294
:104B2000E17931B184F80780BDE8F05F0420FCF73B
:104B30009BBE58450BD9B0F5A87F08D2788AA84209
:104B400005D3B04203D2D9F82801012801D184F855
:104B500007A0BDE8F09FFF4900200860486088601A
:104B6000C86008614861FC498872C872087348735C
:104B700007224A720872F949086070472DE9FE4F12
:104B80000646DFF8DC8398F80000042879D101227A
:104B90000025F14F10244FF6FF7B012E24D038461C
:104BA00040F2111190F909004FF4A47C022E3FD07D
:104BB000042E51D048F210094FF4D27A802E61D0E1
:104BC000B6F5807F6ED0402E7ED0E448B6F5801FCB
:104BD00000687AD0B6F5001F78D0B6F5000F76D011
:104BE000B6F5800F74D0AEE0B87B401CB873DA49DC
:104BF0005FEAC0784FF4C97C48780B8A498A0BD0A9
:104C00003A72AFF29412CDE9002402900A46742160
:104C1000604602F00BFB96E03D72AFF2A012CDE9C8
:104C2000002402900A467421604602F0FFFA8AE0EE
:104C3000401E40B27872002800DA7D72C948A0F8A0
:104C400000B0C94AE72010800094022397F9092098
:104C5000604602F0DDF876E0401C40B278726328CE
:104C600001DD63207872BF48A0F800B0BE4AE7209B
:104C700010800094022397F90920604602F0C8F8DA
:104C800061E00AE2FFF76CFC7878B8A1CDE9001486
:104C900002904B465A46A621504602F0C7FA01F050
:104CA0001CFD50E001F022FD584601F053F9FFF7DA
:104CB00052FF00210846FFF778FC7878ADA1CDE9D6
:104CC00000144B465A4604E009E019E021E029E0CF
:104CD00031E00290D821504602F0A8FA33E0FFF705
:104CE0003FFC7878A5A1CDE9001402904B465A46C6
:104CF0004FF48571504602F099FA88F8005022E08E
:104D00007861B87A401CC0B2B87203281BD9BA7255
:104D100019E0B861F87A401CC0B2F872032812D9C1
:104D2000FA7210E0F861387B401CC0B23873032877
:104D300009D93A7307E03862787B401CC0B27873B7
:104D4000032800D97A738449824F4FF02008887A6B
:104D5000C97A4FF02D0942F2107A884227D17E4A53
:104D6000D2E905C1614579D97E4B5A46A3F800B016
:104D7000DFF8F4E1E723AEF80030A1EB0C01DFF837
:104D800004C2DFF8D4E1CCF820109EF909C04FF43A
:104D90007A7E0CFB0EFCBCFBF1F1DFF8E8C1CCF82D
:104DA0002810012804D002282DD0032857D047E12D
:104DB00039606948007A60B16748CDE9009402958E
:104DC000C17890F804C080786144383001F024FF45
:104DD0000BE06148CDE900840295C17890F804C0E9
:104DE00080786144383001F017FF38680094B0FBD8
:104DF000FAF25948C1780379807819440623403083
:104E000001F0B6FF1CE179605348007A60B1524866
:104E1000CDE900940295C17890F804C0807861448F
:104E2000BA3001F0F9FE0BE04B48CDE90084029561
:104E3000C17890F804C080786144BA3001F0ECFE8B
:104E400078680094B0FBFAF24348C178037980781F
:104E500019440623C23001F08BFFF1E02DE0B96068
:104E60003D48007A68B13C48CDE900940295C1788C
:104E700090F804C08078614400F59E7001F0CCFE8B
:104E80000CE03548CDE900840295C17890F804C063
:104E90008078614400F59E7001F0BEFEB868009411
:104EA000B0FBFAF22C48C1780379807819440623C4
:104EB00000F5A27001F05CFFC2E02A4B5A46A3F84D
:104EC00000B0DFF8A4E0E723AEF80030ACEB01015E
:104ED000DFF8B0C0DFF880E0CCF820109EF909C000
:104EE0004FF47A7E0CFB0EFCBCFBF1F1DFF894C0B2
:104EF000CCF82810012804D0022848D0032872D00A
:104F00009EE039601448007A60B11348CDE900840E
:104F10000295C17890F804C080786144383001F07F
:104F20007BFE0BE00C48CDE900940295C17890F827
:104F300004C080786144383001F06EFE3868009417
:104F4000B0FBFAF20448C17803798078194406234B
:104F5000403019E008D4002060D1002060D2002049
:104F600007D000202AD200202CD20020BFAACABC21
:104F700000000000C7E5C1E300000000B7B5BBD8E2
:104F80000000000048D4002001F0F2FE58E07960F3
:104F9000EF48007A60B1EE48CDE900840295C1780F
:104FA00090F804C080786144BA3001F035FE0BE01F
:104FB000E748CDE900940295C17890F804C0807864
:104FC0006144BA3001F028FE78680094B0FBFAF230
:104FD000DF48C1780379807819440623C23001F094
:104FE000C7FE2DE0FFE7B960D948007A68B1D8481C
:104FF000CDE900840295C17890F804C080786144BE
:1050000000F59E7001F008FE0CE0D148CDE9009457
:105010000295C17890F804C08078614400F59E70D4
:1050200001F0FAFDB8680094B0FBFAF2C848C37802
:10503000017980781944062300F5A27001F098FEEA
:10504000DFF80CE39EF80C009EF80D10884224D186
:10505000DEE907C161457DD9BE4B5A46A3F800B0D1
:10506000DFF8F4B2E723ABF80030A1EB0C01DFF876
:10507000ECC2CCF824109EF909C04FF47A7B0CFBEB
:105080000BFCBCFBF1F1DFF8D4C2CCF82C100128EA
:1050900004D0022831D0032860D042E1BB46F96039
:1050A0009EF80800774660B1CDE900940295387902
:1050B000F97800EB40000144B878383001F0ACFDDD
:1050C0000BE0CDE9008402953879F97800EB4000D7
:1050D0000144B878383001F09FFDDBF80C000094F3
:1050E000B0FBFAF23879F97800EB40000144B87867
:1050F0000623403001F03CFE13E1BB4639619EF8C7
:105100000800774660B1CDE9009402953879F978C6
:1051100000EB40000144B878BA3001F07DFD0BE0AF
:10512000CDE9008402953879F97800EB400001441C
:10513000B878BA3001F070FDDBF810000094B0FBD5
:10514000FAF23879F97800EB40000144B878062388
:10515000C23000E034E001F00BFEE2E0BB467961D2
:105160009EF80800774668B1CDE900940295387939
:10517000F97800EB40000144B87800F59E7001F02A
:105180004BFD0CE0CDE9008402953879F97800EB0D
:1051900040000144B87800F59E7001F03DFDDBF859
:1051A00014000094B0FBFAF23879F97800EB400073
:1051B0000144B878062300F5A27001F0D9FDB0E0F3
:1051C000644B5A46A3F800B0DFF88CB1E723ABF884
:1051D0000030ACEB0101DFF884C1CCF824109EF95B
:1051E00009C04FF47A7B0CFB0BFCBCFBF1F1DFF840
:1051F0006CC1CCF82C10012804D0022831D003282F
:105200005ED08EE0BB46F9609EF80800774660B13C
:10521000CDE9008402953879F97800EB400001442B
:10522000B878383001F0F8FC0BE0CDE90094029535
:105230003879F97800EB40000144B878383001F053
:10524000EBFCDBF80C000094B0FBFAF23879F9784B
:1052500000EB40000144B8780623403001F088FD9F
:105260005FE0BB4639619EF80800774660B1CDE942
:10527000008402953879F97800EB40000144B87851
:10528000BA3001F0C9FC0BE0CDE900940295387901
:10529000F97800EB40000144B878BA3001F0BCFC6A
:1052A000DBF810000094B0FBFAF23879F97800EBE3
:1052B00040000144B8780623C23001F059FD30E0C7
:1052C000BB4679619EF80800774668B1CDE9008455
:1052D00002953879F97800EB40000144B87800F580
:1052E0009E7001F099FC0CE0CDE9009402953879AC
:1052F000F97800EB40000144B87800F59E7001F0A9
:105300008BFCDBF814000094B0FBFAF23879F978E2
:1053100000EB40000144B878062300F5A27001F0CC
:1053200027FD3046BDE8FE8F0D49AFF2AF70FCF7A8
:1053300086BA00210846FFF738B910B54FF6FF705E
:1053400000F008FE01F0D2F9BDE8104003E40000CF
:1053500060D100202AD200202CD2002048D4002086
:10536000C701F00F10B5FCF7BDFFF249E720088038
:10537000F1494FF6FF700880B422BDE810404FF4A9
:10538000A07340F227116C2001F092BB2DE9FE4F73
:10539000EA4C4FF0E708CDF8008000212288142362
:1053A000084601F016FB1027E5A1CDE90017012002
:1053B0004FF6FF7A02901F2352460221002001F08F
:1053C000ABFFCDF800A0638822881421002001F0F3
:1053D00000FBE14EE1A17078CDE900170290B3889F
:1053E000F2882821142001F021FF7078DEA1CDE998
:1053F00000170290B388F2887621912001F016FF01
:105400007078DBA1CDE900170290B388F2889D2166
:10541000912001F00BFFFFF7A5FF0024DFF81493A4
:105420004FF0A60BA9F8008004EBC400327800EB23
:105430000415C2EB4500A63002EB450381B2C2F56C
:10544000D270B63302F5E27201F032FB7078CAA175
:10545000CDE90017029030780BEB4501C0F5CA701A
:10546000B388E72201F0E2FE641CE4B2032CD9D336
:105470007078C2A1CDE900170290B388F28840F29B
:105480000111912001F0D2FEB34900201C31CDE979
:1054900000170346524602904FF4987101F0C6FE81
:1054A000A9F80080A448A0F800A003B0B422BDE889
:1054B000F04F4FF4A07340F227116C2001F0F8BABE
:1054C00070B5FDF739F8B34AA34B4FF49474108AC2
:1054D0004FF4A075A0F16D0147290DD2518AA14268
:1054E0000AD3A94208D2997831B100209870BDE85A
:1054F00070400120FCF7B8B96C280AD9B42808D24A
:10550000508AA04205D3A84203D2A34800680128CC
:1055100001D10120987070BD2DE9FE4F0446DFF8DF
:105520007C8298F80000052835D100278A4D012C8F
:1055300032D0102648F210094FF6FF7A022C40D0E4
:105540004FF4857B042C4DD0802C5CD0B4F5807F4B
:105550006AD0402C7AD0294691488969491C006854
:10556000B4F5801F73D08F4A03230A26B4F1807FDD
:105570006ED0B4F5001F6CD0B4F1007F6AD0B4F5E2
:10558000000F68D0B4F1006F77D0B4F5800F75D0FC
:10559000B4F1806F73D0B6E0E878401CE870824DBB
:1055A000C0074FF0804205D00021104603F0EFF80D
:1055B0002F70A8E00121104603F0E9F801202870BF
:1055C000A1E0FFF7CFFE687878A1CDE90016029040
:1055D0004B465246A6214FF4D27001F027FE01F04F
:1055E0007CF890E0FFF7BEFE687872A1CDE9001666
:1055F00002904B46524659464FF4D27001F016FEC7
:1056000088F800707FE0FFF7ADFE687867A1CDE90C
:10561000001602904B465246A6214FF4D27001F07C
:1056200005FE01F05AF86EE0FFF79CFE687863A172
:10563000CDE9001602904B465246D8214FF4D27065
:1056400001F0F4FD01F052F8AF615CE004E017E016
:1056500019E026E028E035E0FFF784FE687855A1E0
:10566000CDE9001602904B46524659464FF4D2708F
:1056700001F0DCFD88F8007045E026E033E035E01D
:10568000A961A8603FE0A968401AB0FBF3F1B1FB43
:10569000F6F306FB131100EB800001EB40001060F5
:1056A00031E0A961E8602EE0E968401AB0FBF3F14F
:1056B000B1FBF6F306FB131100EB800001EB400099
:1056C000506020E0A96128611DE02969401AB0FB03
:1056D000F3F1B1FBF6F306FB131100EB800001EBD5
:1056E000400090600FE0A96168610CE06969401AB0
:1056F000B0FBF3F1B1FBF6F306FB131100EB8000F6
:1057000001EB4000D0602046BDE8FE8F2D49AFF28E
:10571000F710FCF794B80021084637E610B54FF6AD
:10572000FF7000F017FC00F0E1FF0B4900208861DA
:1057300010BD00002AD200202CD2002038D4002036
:10574000B9E2B5E7BCC6CAB1CAFDD7D6CAB5D1E978
:10575000CFB5CDB300000000B0D10020CAB5D1E96B
:1057600035A3BABCC6CAFD00BCC6CAFDA3BA0000B8
:10577000BCC6CAB1A3BA0000F7CE0000B0B4BCFCEE
:10578000204B45595F3020D4DDCDA3BACDBCCCD061
:10579000F800000034D200202881234207D00020E6
:1057A00060D2002048D400205CD20020BFAACABC2E
:1057B00000000000B7B5BBD800000000C7E5C1E39A
:1057C00000000000C701F00F70B5FCF78BFDF84931
:1057D000E7200880F7494FF6FF7008804FF4A07566
:1057E00040F227162B46B42231466C2001F060F9B6
:1057F0004FF482742B4622463146B42001F058F90A
:105800002B4631462046BDE870404FF4A87201F0A7
:105810004FB92DE9FE4FE84CE72700970021228879
:105820001423084601F0D5F801261025E3A08DE8E1
:1058300061004FF6FF7B1F235A460221002001F032
:105840006BFDCDF800B0638822881421002001F0A0
:10585000C0F8E04CE0A16078CDE900150290238902
:1058600062892821142001F0E1FC6078E0A1CDE9F3
:1058700000150290238962895021A07801F0D6FC9E
:105880006078E1A1CDE90015029023896289822127
:10589000A07801F0CBFC6078E1A1CDE90015029081
:1058A00023896289B421A07801F0C0FC6078E2A16C
:1058B000CDE900150290A078238962895021C83073
:1058C00001F0B4FC6078E2A1CDE900150290A07867
:1058D000238962898221C83001F0A8FC6078DEA1AA
:1058E000CDE900150290A07823896289B421C830DF
:1058F00001F09CFCDFF8B882A8F800B0DFF8B492A1
:10590000A9F80070DFF864A3AAF814600095A078E5
:10591000062332465021FF3001F02AFA0095A07884
:1059200006238221FF30DAF8002001F021FAFFF788
:105930004BFF0026A8F8007006EBC600227800EBAB
:10594000061AC2EB4A00A63002EB4A0381B2C2F546
:10595000D270B63302F5E27201F0AAF86078C4A101
:10596000CDE900150290A62000EB4A01207823899A
:10597000C0F5CA70E72201F059FC761CF6B2032E7E
:10598000D8D36078BBA1CDE9001502902389628944
:1059900040F21111A07801F049FC8E4900200C3131
:1059A000CDE9001503465A4602904FF4987101F074
:1059B0003DFCA8F80070A9F800B04FF4A07540F2C3
:1059C00027162B46B42231466C2001F071F84FF4B3
:1059D00082742B4622463146B42001F069F803B0A8
:1059E0002B4631462046BDE8F04F4FF4A87201F037
:1059F0005FB82DE9F05FFCF79FFDA44FDFF89092B0
:105A0000744C388A4FF00008A0F16D014FF0010A84
:105A10004FF494754FF4A07647290CD2798AA942A5
:105A200009D3B14207D2E17829B184F8038001207B
:105A3000FBF71AFF0EE06C280AD9B42808D2788A3E
:105A4000A84205D3B04203D2D9F82801012801D1D8
:105A500084F803A0388A4FF4827BA0F1B5014F2966
:105A60000CD2798AA94209D3B14207D2217929B14E
:105A700084F804800220FBF7F7FE0EE0B4280AD970
:105A8000584508D2788AA84205D3B04203D2D9F843
:105A90002801012801D184F804A0388AA0F2051158
:105AA0004B290DD2798AA9420AD3B14208D2617931
:105AB00031B184F80580BDE8F05F0420FBF7D4BE67
:105AC00058450BD9B0F5A87F08D2788AA84205D3EB
:105AD000B04203D2D9F82801012801D184F805A0E9
:105AE000BDE8F09F2DE9FE4F0446DFF8A8B19BF812
:105AF000000006282CD1374F4FF000094FF0010A63
:105B0000012C26D03846594D8078294AE723DFF802
:105B1000A4C01026FF30A98A4FF6FF78022C2ED0A1
:105B2000042C3DD0802C3CD0B4F5807F3AD0402C62
:105B300039D028460068401CB4F5801F34D0B4F535
:105B4000001F32D0B4F5000F30D0B4F5800F2ED046
:105B5000FFE0B879401CB8714F4DC0074FF080424C
:105B600006D00021104602F012FE85F80090F0E009
:105B70000121104602F00BFE85F800A0E9E0491E65
:105B800089B2A98209B9A5F814A0A2F80080ACF8DE
:105B900000300096AA8A0623502101F0E9F8D8E0E7
:105BA0007CE08FE0A0E0BAE0CCE0CDE0CEE0CFE05A
:105BB0002AD200202CD2002038D40020B9E2B5E748
:105BC000BCC6CAB1CAFDD7D6CAB5D1E9CFB5CDB327
:105BD00000000000F2D10020CAB5D1E936A3BAB264
:105BE000E2C1BFD6DCC6DABACDC6B5C2CA00000073
:105BF000F7CECAB1BCE420743D2020202020202014
:105C000020206D7300000000F7CED6DCC6DA2054E9
:105C10003D2020202020202020206D730000000047
:105C2000F7CEC6B5C2CA20663D2020202020202005
:105C30002020487A00000000F7CEB4A5B7A22020AB
:105C4000202020202020B4CECEAA31D6DCC6DA0017
:105C5000F7CEB4CECAFD0000F7CED6DCC6DACAFD58
:105C6000A3BA2020202020202000000020D40020E3
:105C7000F7CE0000B0B4BCFC204B45595F3020D4B7
:105C8000DDCDA3BACDBCCCD0F800000034D20020CA
:105C90000080234207D000205CD20020491C89B23A
:105CA000A982B1F57A7F02D340F2E731A982A2F846
:105CB0000080ACF800300096AA8A0623502101F03B
:105CC00057F846E0FFF780FD78782EA1CDE9001661
:105CD000029048F210034246A6214FF4D27001F020
:105CE000A5FA00F0FAFC34E0404600F033F9002158
:105CF0000846FFF78EFD787824A1CDE900160290C2
:105D000048F210034246D8214FF4D27001F08EFAC7
:105D1000C5F80090A5F814A000F0E8FC19E0FFF722
:105D200053FD78781BA1CDE90016029048F21003CC
:105D300042464FF485714FF4D27001F077FA8BF838
:105D4000009006E0286004E0286002E0286000E09F
:105D500028602046BDE8FE8F1049AFF27720FBF7A0
:105D60006EBD0021084654E510B54FF6FF7000F0F7
:105D7000F1F800F0BBFC0A4800210160012181829A
:105D800010BD0000BFAACABC00000000C7E5C1E307
:105D900000000000B7B5BBD800000000C701F00F3D
:105DA00020D4002008B50121442001F00EFE182067
:105DB000ADF8000048208DF803006946304801F036
:105DC000FEFB0120ADF8000028208DF80300694695
:105DD0002C4801F0F4FB08BD2DE9F04101252A4CC7
:105DE000002800D025702078264E254F78B110214C
:105DF000384601F03FFCF8B10821384601F03AFC82
:105E0000D0B10121304601F035FC012814D0102119
:105E1000384601F02FFC01280CD10821384601F04A
:105E200029FC012806D10121304601F023FC00287D
:105E300000D12570BDE8F0810A20FBF7A7FB002008
:105E400020701021384601F015FC78B10821384641
:105E500001F010FC78B10121304601F00BFC012863
:105E6000E8D1BDE8F0410420FBF7FEBCBDE8F041FD
:105E70000120FBF7F9BCBDE8F0410220FBF7F4BCC0
:105E8000001801400008014029D20020F349088091
:105E90007047F249891C08807047FAE7EF4A108082
:105EA000901C01807047EE480089EFE710B502466C
:105EB0000B46EB4C6089FFF7E9FF100AFFF7E9FF9B
:105EC000D0B2FFF7E6FF521C100AFFF7E2FF90B2D4
:105ED000FFF7DFFFA089FFF7D9FF180AFFF7D9FF07
:105EE000D8B2FFF7D6FF5B1C180AFFF7D2FF98B2B3
:105EF000FFF7CFFFBDE81040D5E700B5FFF7D6FFAD
:105F0000D84800885DF804EBC3E770B504460D4639
:105F1000D34E7089FFF7BAFF200AFFF7BAFFE0B24D
:105F2000FFF7B7FF100AFFF7B4FFD0B2FFF7B1FFDA
:105F3000B089FFF7ABFF280AFFF7ABFFE8B2FFF726
:105F4000A8FF180AFFF7A5FFD8B2FFF7A2FFBDE828
:105F50007040A8E730B505460024C1484188008854
:105F6000491E8BB2401E82B200210846FFF7CDFFCA
:105F7000BA4A4FF47070921C00211580491CA02968
:105F8000FBD3641C8442F7D330BDF0B59FB0012130
:105F9000080201F00FFD012140F2791001F015FD1A
:105FA0000127ADF8787010268DF87B6003248DF8FA
:105FB0007A401EA9AC4801F002FB4CF23370ADF8F8
:105FC000780018258DF87B508DF87A401EA9A748D7
:105FD00001F0F5FA4FF68070ADF878008DF87B503F
:105FE0008DF87A401EA9A24801F0E9FA41F20100B9
:105FF000ADF878008DF87B508DF87A401EA99D4849
:1060000001F0DDFA0897002009900F210A910B900A
:106010000C900D900E9002210191029005210391A8
:10602000049005900690079006210F911090119012
:1060300012961390159014901690179031021891A3
:10604000199089001A911B9008A81C9001A81D9016
:106050000FA801F048FD0121062001F078FE1FB0D5
:10606000F0BD7F482A2141812B2181812C21018192
:10607000012181714FF4F07101804FF4A0714180D2
:10608000A82136200AE710B5FFF77FFFF120FFF7C0
:10609000FDFE3620FFF7FDFE0420FFF7FAFE00208C
:1060A000FFF7F7FE3C20FFF7F4FE0F20FFF7F1FEAD
:1060B0008F20FFF7EEFEF220FFF7E8FE1820FFF733
:1060C000E8FEA320FFF7E5FE1220FFF7E2FE022024
:1060D000FFF7DFFEB220FFF7DCFE1220FFF7D9FE4C
:1060E000FF20FFF7D6FE1020FFF7D3FE0020FFF7BA
:1060F000D0FEF820FFF7CAFE2120FFF7CAFE0420D9
:10610000FFF7C7FEF920FFF7C1FE0020FFF7C1FE31
:106110000820FFF7BEFE3620FFF7B8FE0820FFF785
:10612000B8FEB420FFF7B2FE0020FFF7B2FEB620A3
:10613000FFF7ACFE0220FFF7ACFE2220FFF7A9FE1E
:10614000C120FFF7A3FE4120FFF7A3FEC520FFF704
:106150009DFE0020FFF79DFE1820FFF79AFEE0202D
:10616000FFF794FE0F20FFF794FE1F20FFF791FE2C
:106170001C20FFF78EFE0C20FFF78BFE0F20FFF791
:1061800088FE0820FFF785FE4820FFF782FE982052
:10619000FFF77FFE3720FFF77CFE0A20FFF779FE2E
:1061A0001320FFF776FE0420FFF773FE1120FFF7A0
:1061B00070FE0D20FFF76DFE0020FFF76AFEE12064
:1061C000FFF764FE0F20FFF764FE3220FFF761FE49
:1061D0002E20FFF75EFE0B20FFF75BFE0D20FFF782
:1061E00058FE0520FFF755FE4720FFF752FE7520A9
:1061F000FFF74FFE3720FFF74CFE0620FFF749FE62
:106200001020FFF746FE0320FFF743FE2420FFF790
:1062100040FE2020FFF73DFE0020FFF73AFE3A2027
:10622000FFF734FE5520FFF734FE1120FFF72EFE56
:106230003620FFF72BFEC820FFF72BFE7820FBF758
:10624000A5F92920FFF722FEFFF70BFF4FF6FF709D
:10625000FFF780FE08490120086010BDFE07006CB2
:1062600038D400202AD20020000C01400014014044
:1062700000180140002001408081214270B50021BA
:10628000EC4D0024EC4A0123060602D5C5F8A431E2
:1062900001E0C5F8A4414006000EC2F88441C2F8EE
:1062A0008431491CC9B20829EED370BD2DE9F041F3
:1062B00000250024E14E00273760DFF87883C8F816
:1062C000A471C8F8AC71FFF7D9FF0620FBF747F9B6
:1062D00037600120FBF743F9012131603760A6F5F3
:1062E000C2764FF6FF7000EA4404C6F88471C6F81F
:1062F0008411D6F808210AB1641CA4B26D1CEDB259
:10630000102DF0D32009C8F8AC11BDE8F081FEB51E
:10631000064600246D463046FFF7C8FF25F81400F6
:10632000641CA4B2052CF6D30021481C044680B29C
:106330000BE035F8113035F81020934203D925F8D9
:10634000112025F81030401C80B20528F1D3A1B2ED
:106350000429EAD30021012035F81020114489B224
:10636000401C80B20428F7D30320B1FBF0F0FEBD3F
:106370002DE9F04104460F46B14D2878FFF7C7FFDD
:1063800006466878FFF7C3FF268038800120BCE707
:106390002DE9FF4106460F4602A903A8FFF7E8FFD3
:1063A00080B3694601A8FFF7E3FF60B3BDF804209E
:1063B000BDF80C309A4203D802F13200834205D373
:1063C000934225D803F13200824221D2BDF8005019
:1063D000BDF80840A54203D805F13200844204D339
:1063E000AC4215D83234A54212D2981840083080F9
:1063F000BDF80800BDF800100844400838800120AE
:1064000004B082E700E001E00020F9E70020F7E7B0
:106410000020F5E72DE9F84305460C46894F3A8000
:1064200005F10D0082B2193880B22346214600F0F2
:10643000F3FA04F10D0083B2193881B22A462846D6
:1064400000F0EAFA601C804681B2681C064680B201
:10645000FFF753FD1FFA88F1681E804680B2FFF7F0
:106460004CFD601E814681B2B0B2FFF746FD1FFAB7
:1064700089F11FFA88F0FFF740FD00200090062305
:106480003A882146284600F084FBBDE8F88370B5C1
:1064900006460C466B48028021463046FFF72DFD2C
:1064A000751CA8B22146FFF728FD641CA1B2304636
:1064B000FFF723FDA1B2A8B2BDE87040FFF71DBDF4
:1064C00070B5614909685E4C241D002906D0207D05
:1064D00001063ED520F08000207541E002005848BA
:1064E00000F1040000F1120100F1100002D0FFF7EA
:1064F0004FFF24E0FFF74CFF08B3B4F9200002F08F
:10650000A7FC0546208A02F0BBFCA16902F0CCFC86
:10651000294602F01BFC02F07BFC2082B4F9220029
:1065200002F096FC0546608A02F0AAFCE16902F0DE
:10653000BBFC294602F00AFC02F06AFC6082207D66
:1065400000060DD4C0202075208AA081608AE081D9
:1065500006E00020A081E0814FF6FF70208260827B
:10656000207D00F0800070BD35483849001D8161F4
:106570003749C1616FF01E0101846FF0120141843F
:10658000012180F824109021001F0170D02141705A
:1065900001207047F8B50121882001F016FA022089
:1065A000ADF8000010248DF8034003268DF802603A
:1065B000284F6946384601F002F80221384601F0BA
:1065C0006DF8E501ADF800508DF803408DF80260DC
:1065D000214E6946304600F0F2FF2946304601F070
:1065E0005DF86501ADF800508DF80340694630460E
:1065F00000F0E5FF2946304601F050F8A001ADF863
:10660000000048248DF803406946304600F0D7FF6B
:106610000420ADF800008DF803406946384600F0CC
:10662000CEFF07491631881EFFF7A2FEFFF79CFF39
:106630000120F8BD00802342008021428481214254
:1066400030D200202AD2002028812342A75C043EB9
:10665000E9A1AF3D000C0140001C0140F8B501214B
:10666000482001F0B2F92024ADF8004010258DF843
:10667000035003268DF802600C4F6946384600F03F
:106680009EFF2021384601F009F8ADF800408DF852
:1066900003508DF80260064C6946204600F08FFFDB
:1066A0002021204600F0FAFFF8BD0000000C014058
:1066B0000018014008B50121042001F086F93C20B2
:1066C000ADF8000028208DF8030003208DF80200AB
:1066D0006946784800F073FF08BD10B501218807AE
:1066E00002F055F874490120087010BD10B5002162
:1066F0004FF0804002F04BF87049002008606E496E
:1067000008706F49086048608860C8600862486225
:106710008862C862086148618861C861086348632B
:10672000886310BD3EB5FFF7C5FF0121084601F0A3
:106730004CF90721002000F0FEFF3C2001900024CE
:106740008DF8084010208DF8090001A801F0FEFB2B
:1067500008208DF800008DF8014001258DF80250C9
:106760008DF80350684600F06AFE09208DF800009D
:106770008DF8014002208DF802008DF80350684624
:1067800000F05DFE0A208DF800008DF80140032026
:106790008DF802008DF80350684600F050FE172077
:1067A0008DF800008DF8014004208DF802008DF86E
:1067B0000350684600F043FE3EBD10B53E480078E9
:1067C00000280DD004213B4800F054FF3D4901282A
:1067D0000BD00020C1F894014FF48010FBF744F86F
:1067E000BDE81040042001F010BC0120C1F8940164
:1067F0000006FBF739F8F3E710B52F4800780028BA
:106800000DD008212B4800F035FF2E4901280BD070
:106810000020C1F894014FF40010FBF725F8BDE803
:106820001040082001F0F1BB0120C1F8940140069E
:10683000FBF71AF8F3E710B51F48007800280DD0D1
:1068400010211C4800F016FF1E4901280BD0002023
:10685000C1F894014FF48000FBF706F8BDE8104042
:10686000102001F0D2BB0120C1F894018006FAF794
:10687000FBFFF3E710B51048007800280DD0202169
:106880000C4800F0F7FE0F4901280BD00020C1F89A
:1068900094014FF40000FAF7E7FFBDE81040202014
:1068A00001F0B3BB0120C1F89401C006FAF7DCFF88
:1068B000F3E70000000801405CD2002060D2002015
:1068C00048D40020008021427FB504460D460121B6
:1068D000084601F085F8ADF80840ADF804500024F2
:1068E000ADF80A40ADF806404FF0804501A92846B2
:1068F00001F07CFC01221146284601F062FF1C20B9
:106900008DF800008DF801408DF8024001208DF8CF
:106910000300684600F093FD7FBD10B501218C0790
:10692000204602F081F9002807D00121204602F01C
:1069300087F921480168491C016010BD7FB50446F4
:106940000D460121042001F04BF8ADF80840ADF8E8
:1069500004500024ADF80A40ADF80640174D01A9D7
:10696000284601F043FC01221146284601F029FF88
:106970001E218DF800108DF8014002218DF80210C3
:1069800001218DF80310684600F059FD01212846C9
:1069900001F0FDFE7FBD10B5084C0121204602F03C
:1069A00043F9002807D00121204602F049F9BDE84B
:1069B0001040FAF775BE10BD60D2002000080040FC
:1069C00010B51446FFF772FA2046BDE81040FFF7F5
:1069D00064BA70B5049D141A641CA6B25C1A641CD7
:1069E000A4B274435B1E521E9BB292B2FFF78DFAA3
:1069F0000020FB4901E00D80401CA042FBD3F94977
:106A00004888401E83B20888BDE87040401E82B2AC
:106A100000210846FFF779BA2DE9FE4F0025002630
:106A2000171AA3EB010881468A46681E002F03DD72
:106A30004FF00101019107E003D14FF000010191F6
:106A400002E00190C7F10007B8F1000F03DD4FF03D
:106A50000100009007E003D14FF00000009002E039
:106A60000090C8F10008474501DD3C4600E044467F
:106A70004FF0000B601C029015E01FFA8AF11FFA1C
:106A800089F0FFF73AFA3D444644A54202DD2D1B4A
:106A900001988144A64202DD361B009882440BF126
:106AA000010B1FFA8BFB02988345E6DDBDE8FE8FE4
:106AB0002DE9F04105460E4614461F463346224650
:106AC00031462846FFF7A8FF3B462A46314628466E
:106AD000FFF7A2FF3B46224639462846FFF79CFFB8
