:020000040800F2
:10000000480A0020995B0008A15B0008A35B000878
:10001000A55B0008A75B0008A95B000800000000C2
:10002000000000000000000000000000AB5B0008C2
:10003000AD5B000800000000AF5B0008B15B00088A
:10004000B35B0008B35B0008B35B0008B35B000858
:10005000B35B0008B35B0008B35B0008B35B000848
:10006000914D0008BD4D0008E94D0008B35B000844
:10007000B35B0008B35B0008B35B0008B35B000828
:10008000B35B0008B35B0008B35B0008B35B000818
:10009000B35B0008B35B0008B35B0008154E0008B3
:1000A000B35B0008B35B0008B35B0008B35B0008F8
:1000B000A54E0008B35B0008AB4F0008B35B000817
:1000C000B35B0008B35B0008B35B0008B35B0008D8
:1000D000B35B0008B35B0008B35B0008B35B0008C8
:1000E000B35B0008B35B0008B35B0008B35B0008B8
:1000F000B35B0008B35B0008B35B0008B35B0008A8
:10010000B35B0008B35B0008B35B0008B35B000897
:10011000B35B0008B35B0008B35B0008B35B000887
:10012000B35B0008B35B0008B35B0008B35B000877
:1001300000F002F800F05AF80AA090E8000C82449F
:100140008344AAF10107DA4501D100F04FF8AFF27C
:10015000090EBAE80F0013F0010F18BFFB1A43F0A5
:1001600001031847589C0000789C00000A444FF097
:10017000000C10F8013B13F0070408BF10F8014B06
:100180001D1108BF10F8015B641E05D010F8016B4B
:10019000641E01F8016BF9D113F0080F1EBF10F8AF
:1001A000014BAD1C0C1B09D16D1E58BF01F801CBD2
:1001B000FAD505E014F8016B01F8016B6D1EF9D555
:1001C0009142D6D37047000000230024002500266A
:1001D000103A28BF78C1FBD8520728BF30C148BFAA
:1001E0000B6070471FB51FBD10B510BD07F0CCFBED
:1001F0001146FFF7F7FF00F009F807F0EAFB03B438
:10020000FFF7F2FF03BC07F0F1FB00000EB500247E
:10021000012700F00AFB00F093F94FF4A06005F00D
:10022000DBFC04F097F904F0FDFC04F05FFD4721CE
:1002300040F2E73004F00CFE002140F2833004F07D
:1002400041FE41F61F41632004F083FE04F08EFC62
:1002500003F0EAFF00F06AFB00F0DCF900F0E8F9D7
:100260000020AC49086054E10A2000F0A6F917B15B
:10027000601C84B201E0601E84B2C82C00DD00273F
:1002800004B901272146A44807F0F2FA002003F040
:10029000E5FFA248006818B10120A149086002E00A
:1002A00000209F4908609F480078012835D14FF60B
:1002B000FF709D490880E7209C490880102000902D
:1002C0009B480C2360210268D22005F0ADF8102075
:1002D000009097480C2392214268D22005F0A4F8A0
:1002E0001020009092480C23C4218268D22005F08F
:1002F0009BF8102000908E480C23F621C268D22073
:1003000005F092F810200923009082482821026805
:100310004FF4BC7005F088F8E6E0824800780228C7
:1003200011D14FF6FF7080490880E7207F4908808F
:100330001020092300907748162102684FF4BC7002
:1003400005F072F8D0E077480078032811D14FF615
:10035000FF7075490880E720744908801020092340
:1003600000906C48162102684FF4BC7005F05CF8F0
:10037000BAE06C480078042811D14FF6FF706A4942
:100380000880E7206949088010200923009061480F
:10039000282102684FF4BC7005F046F8A4E06148DB
:1003A000007805283ED1AA259626E7205E490880D8
:1003B0004FF6FF705D49088020200090A6F12800CC
:1003C00081B207235B480268284605F004F95148CA
:1003D00000684FF47A71B0FBF1F820200323424605
:1003E00031460090284605F0F6F80B2000904F4863
:1003F00003884D480288314605F1300005F0BCF80D
:10040000444800684FF47A71B0FBF1F201FB120826
:100410002020032342463146009005F1400005F0BC
:10042000DAF861E03F48007806285DD14FF6FF70AA
:100430003D490880E7203D490880364800683E492C
:10044000C8600846C0680968B0FBF1F03A494860E6
:10045000084640683949B1FBF0F037498860102000
:1004600000900846062350210268D62004F0DCFFE5
:1004700010200090304806238221C268D62004F064
:10048000D3FF102000902C480623B4214268D620C8
:1004900004F0CAFF284880686421B0FBF1F5102001
:1004A00003232A46E6210090D62004F0BDFF002059
:1004B00010212E22CDE9002102901C4803881A4801
:1004C0000288E621EE2004F0DDFE1B4880686421EE
:1004D000B0FBF1F201FB1205102002232A46E621AF
:1004E0000090F62004F0F4FFE7200F490880002375
:1004F0004FF4F0721946184604F0AEFD01234FF494
:10050000F0721946002004F0A7FD4FF6FF7006496F
:100510000880A9E6E401002000040040288123426D
:100520009401234205000020AC010020AE01002010
:10053000AC030020700100208C030020A086010085
:1005400010B56FF0040005F096FB2E4800682E49A8
:10055000B0FBF1F02D4908700846007800EB40012F
:10056000C1EBC0104FF6FF7101EAC00028490880B6
:1005700010BD0146254A12784A434FF0E0235A61E4
:1005800000229A611A46126942F001021A6100BF04
:100590004FF0E022106900F001021AB100F480323D
:1005A000002AF5D04FF0E022126922F001024FF04C
:1005B000E0231A6100229A6170470146144A1288AA
:1005C0004A434FF0E0235A6100229A611A461269A9
:1005D00042F001021A6100BF4FF0E022106900F002
:1005E00001021AB100F48032002AF5D04FF0E02267
:1005F000126922F001024FF0E0231A6100229A6191
:10060000704700000800002000127A00000000205F
:100610000200002010B501F0B0F901F0DEFD02F09B
:1006200098FF03F07AF903F0A8FB03F082FD10BDF8
:10063000002043490870704710B5044641480078CF
:10064000844200D110BD3F4800780A281ED2DFE85E
:1006500000F005080B0E1114171A1B1C01F09AF973
:1006600014E001F0C7FD11E002F080FF0EE002F09F
:100670007DFF0BE003F05EF908E003F08BFB05E083
:1006800003F064FD02E001E000E000BF00BF0A2CBF
:100690001ED2DFE804F005080B0E1114171A1B1CFC
:1006A00001F072F914E001F09FFD11E002F058FF33
:1006B0000EE002F055FF0BE003F036F908E003F01E
:1006C00063FB05E003F03CFD02E001E000E000BF59
:1006D00000BF1C48047000BFB4E710B5184800788C
:1006E0000A281ED2DFE800F005080B0E1114171AB5
:1006F0001B1C00F075FD14E001F02BFB11E002F073
:10070000E8FA0EE002F0E5FA0BE002F0D8FF08E0AC
:1007100003F0EDF905E003F04AFC02E001E000E03F
:1007200000BF00BF10BD10B50748416800208847D2
:1007300003480078FFF780FFFFF7CFFF10BD0000F0
:100740000500002004000020B40100200CB50020AA
:10075000019000906C48006840F480306A4908605D
:1007600000BF6948006800F4003000900198401C08
:100770000190009818B90198B0F5A06FF1D16248C6
:10078000006800F4003010B10120009001E000206A
:1007900000900098012843D15C48006840F01000A8
:1007A0005A4908600846006820F0030008600846BF
:1007B000006840F0020008605348406852494860B1
:1007C0000846406848600846406840F480604860D9
:1007D0000846406820F47C1048600846406840F4B1
:1007E000E81048600846006840F08070086000BF6C
:1007F0004548006800F000700028F9D04248406881
:1008000020F00300404948600846406840F002007C
:10081000486000BF3C48406800F00C000828F9D14F
:100820000CBD10B5FFF792FF10BD10B5364800683B
:1008300040F00100344908600846406834490840E7
:100840003149486008460068324908402E4908602E
:100850000846006820F4802008600846406820F4BC
:10086000FE0048604FF41F008860FFF7DAFF4FF08A
:1008700000602949086010BD10B500210020002249
:10088000214B5B6803F00C0121B1042906D0082933
:1008900028D107E0214B224C236027E01F4B204C3E
:1008A000236023E0184B5B6803F47010164B5B6801
:1008B00003F48032022303EB904022B9194B4343E7
:1008C000174C23600DE0104B5B6803F4003323B139
:1008D000144B4343124C236003E0104B4343104C32
:1008E000236003E00D4B0E4C236000BF00BF064B9E
:1008F0005B68C3F303130C4CE15C094B1B68CB40F2
:10090000074C236010BD0000001002400020024090
:100910000000FFF8FFFFF6FE08ED00E000127A008D
:100920000800002000093D000C00002010B54FF425
:10093000C8711B4806F0FEFF10BD10B5024600202E
:1009400011E0174B53F830305BB9154B43F83020AA
:1009500003EBC0035960134B1B785B1C114C2370D5
:1009600010BD431CD8B23228EBDB00BFF8E770B5EE
:10097000054600240EE00A4800EBC4004068284009
:1009800038B1074850F8341028468847054605B95D
:1009900070BD641C034800788442ECDB00BFF7E7BD
:1009A000FC0100201C0000200EB5F9480078102141
:1009B000F8A2CDE900210290FB480388FB48028899
:1009C000FB480178FB48007804F0E0FFF04800782D
:1009D0001021F9A2CDE900210290F5480078FB4AE8
:1009E00012788118F0480388F0480288F1480078AE
:1009F00004F0CCFFE64800781021F5A2CDE90021F3
:100A00000290EB480078F14A12781044EF4A1278CD
:100A10008118E5480388E5480288E648007804F034
:100A2000B5FFDB4800781021F1A2CDE9002102904A
:100A3000DF480078E54A12781044E44A12781044FE
:100A4000E24A12788118D8480388D8480288D948E1
:100A5000007804F09BFFCE4800781021EAA2CDE98F
:100A600000210290D2480078D84A12781044D74A20
:100A700012781044D54A12781044D44A127881185A
:100A8000C9480388C9480288CA48007804F07EFF34
:100A9000BF4800781021DFA2CDE900210290C448B0
:100AA0000078CA4A12781044C84A12781044C74ADB
:100AB00012781044C54A12781044C44A127881183A
:100AC000B9480388B9480288BA48007804F05EFF44
:100AD000AF4800781021D5A2CDE900210290B4489A
:100AE0000078BA4A12781044B84A12781044B74ACB
:100AF00012781044B54A12781044B44A127881181A
:100B0000A9480388A94802884FF4D27004F03EFF38
:100B10009F4800781021C7A2CDE900210290A44887
:100B20000078AA4A12781044A84A12781044A74ABA
:100B300012781044A54A12781044A44A127810443E
:100B4000A24A12788118984803884FF478424FF4EB
:100B5000D27004F01BFF0EBD2DE9FE4305460E4684
:100B6000E7200090B548028814230021084604F0CD
:100B70003FFA01201021B2A21F23CDE900210290EB
:100B80004FF6FF720221002004F084FF01200C21A7
:100B9000B14A0023CDE9002102904FF6FF720821EF
:100BA0004FF4C87004F0F2FE4FF6FF700090A348B7
:100BB0004088143883B2A14802881421002004F030
:100BC00017FAFFF7F1FE002454E0E720A34908805C
:100BD000774F3F78DFF8F4C19CF800C00CFB047736
:100BE000DFF87CC29CF800C067441037BBB29D4F51
:100BF00017F804C06F4F3F7838374FF0100808FBE4
:100C00000C77DFF85CC29CF800C007EB0C02684F61
:100C10003F78DFF8B8C19CF800C00CFB0477DFF820
:100C200040C29CF800C0A7EB0C07B9B2614F3F78F7
:100C3000DFF82CC29CF800C0A7EB0C07B8B204F098
:100C400063FA53480078102187A2CDE90021029071
:100C5000574A12785D4B1B7804FB032291B2554A28
:100C60001278283A90B2504A1388E72204F08EFE98
:100C7000601CC4B2062CA8DB5448007800EB80004E
:100C80004B4C24782044764C2478204400F1100307
:100C90007348007800F5E2724C48007800EB800061
:100CA000434C247820446E4C2478001B81B24FF4CE
:100CB000CD7004F029FA4548007800EB40003C4C28
:100CC000247804EB4000664C2478204400F11003A3
:100CD0006348007800F5E2723C48007800EB400081
:100CE000334C247804EB40005D4C2478001B81B227
:100CF0004FF4CD7004F008FA002010215B4A03463F
:100D0000CDE9002102904FF6FF724FF4987104F084
:100D10003DFE012056490860BDE8FE833EB504460D
:100D200054480470FFF740FE52480078012813D160
:100D300000205149087016480078102115A2E723B9
:100D4000CDE9002102904FF6FF7219480178194849
:100D5000007804F01BFE6EE146480078022816D1A8
:100D60000020454908700A480078102112A2CDE9F8
:100D7000002102900E480078144A12788118E72367
:100D80004FF6FF720B48007804F000FE53E175E067
:100D90004A000020CAB5D1E931A3BAB2E2C1BFB559
:100DA000B2B9E2CAB1BCE4004C0000204E00002001
:100DB0004800002047000020CAB5D1E932A3BAB2EA
:100DC000E2C1BFCBB2CAB1CBD9B6C800490000203E
:100DD000CAB5D1E933A3BAB2E2C1BFD4C8B1E4CB3A
:100DE000D9D4CBB6AFB5C4BCD3CBD9B6C8000000FC
:100DF000CAB5D1E934A3BAB2E2C1BFC5F6D7B2D6FB
:100E0000D0B5C4B6AFC1BF00CAB5D1E935A3BABC2D
:100E1000C6CAFD00CAB5D1E936A3BAB2E2C1BFD68F
:100E2000DCC6DABACDC6B5C2CA000000C9E8D6C36E
:100E300000000000CDCBB3F6000000009C030020B2
:100E4000B9E2B5E7BCC6CAB1CAFDD7D6CAB5D1E9C1
:100E5000CFB5CDB3000000001E000020AC01002083
:100E60005000002051000020F7CE00002800002094
:100E7000808121425700002063000020FE48007856
:100E800003281AD10020FD490870FD480078102180
:100E9000AFF2C402CDE900210290FA480078FA4A84
:100EA00012781044F84A12788118E7234FF6FF723F
:100EB000F648007804F06AFDBDE0EF4800780428A9
:100EC0001DD10020ED490870ED4800781021AFF2E7
:100ED000E002CDE900210290EA480078EA4A12785F
:100EE0001044E94A12781044E74A12788118E7233F
:100EF0004FF6FF72E548007804F048FD9BE0DE48BD
:100F00000078052820D10020DC490870DC480078F2
:100F10001021AFF20C12CDE900210290D9480078DF
:100F2000D94A12781044D84A12781044D64A127816
:100F30001044D54A12788118E7234FF6FF72D34840
:100F4000007804F023FD76E0CB480078062823D112
:100F50000020CA490870CA4800781021AFF24C122C
:100F6000CDE900210290C7480078C74A12781044A2
:100F7000C54A12781044C44A12781044C24A127802
:100F80001044C14A12788118E7234FF6FF72BF4818
:100F9000007804F0FBFC4EE0B7480078082823D125
:100FA0000020B6490870B64800781021AFF28412CC
:100FB000CDE900210290B3480078B34A127810447A
:100FC000B14A12781044B04A12781044AE4A1278EE
:100FD0001044AD4A12788118E7234FF6FF724FF4A0
:100FE000D27004F0D3FC26E0A3480078092822D16F
:100FF000A34800781021AFF2C412CDE9002102907D
:10100000A0480078A04A127810449F4A12781044F1
:101010009D4A127810449C4A127810449A4A1278D9
:101020001044994A12788118E7234FF6FF724FF463
:10103000D27004F0ABFC904800789549097888425A
:101040001AD18D480078082803D08B4800780928E9
:1010500010D18948007809280ED188480078401CB2
:101060008649087008460078022805D189488A49CF
:10107000086001E0894804707F480078844908705E
:101080003EBD10B504468548007800281DD1012CCE
:1010900024D183480078401E40B281490870084638
:1010A00090F90000012801DA012008707C480078DE
:1010B00001280BD17B480078002806D00020794910
:1010C000087077490878FFF729FE87E00120754905
:1010D000087073490878FFF721FE7FE0022C0ED1DB
:1010E0006F4890F90000002878DD6D4890F9000005
:1010F000072873DA6A490878FFF710FE6EE0042CBF
:1011000024D167480078401C40B265490870084601
:1011100090F90000062801DD06200870604800787C
:1011200006280BD15F480078002857D000205D4981
:1011300008705B490878FFF7F1FD4FE0012059493D
:10114000087057490878FFF7E9FD47E0B4F5805F7C
:1011500006D10120FFF7E2FD0120514908703DE072
:10116000B4F5005F06D10220FFF7D8FD02204C49FC
:10117000087033E0B4F5804F06D10320FFF7CEFDB1
:1011800003204749087029E0B4F5004F06D1042038
:10119000FFF7C4FD0420424908701FE0B4F5803F0A
:1011A00006D10520FFF7BAFD05203D49087015E07E
:1011B000B4F5003F06D10620FFF7B0FD0620384900
:1011C00008700BE0B4F5802F03D10820FFF7A6FDCF
:1011D00004E0202C02D10920FFF7A0FD204610BD1D
:1011E00010B52A48007830490978401A2F49098AF1
:1011F00088422DDA2D48028A2D480178234800784C
:101200003830102303FB0100274909780844824243
:101210001EDA1C490978084623490978401A2349EF
:10122000498A884214DA2148418A164A12781046BF
:101230001D4A127810441030814209DA1D480078A6
:1012400030B100201B4908701802FFF790FB54E0F2
:101250000E48007814490978401A1449098A8842CE
:1012600048DA1248028A1248017808480078383073
:10127000102303FB01001FE0570000206300002043
:101280004A000020480000204900002047000020BC
:10129000580000200400FA050CED00E005000020D5
:1012A000610000206200002050000020B4010020F6
:1012B0005100002059000020FE490978084482426C
:1012C00018DAFD4909780846FA490978401AFB49B5
:1012D000498A88420EDAF948418AF74A127810465C
:1012E000F44A127810441030814203DAF44800685E
:1012F000012802D10120F3490870F3480078ED4934
:101300000978401AED49098A884231DAEB48028AA5
:10131000EE484178EC4800783830102303FB010098
:10132000E44909780844824222DAE9480078E2492F
:1013300009780844DF490978401AE049498A884217
:1013400016DADE48418AE2480078DB4A1278104417
:10135000D84A127810441030814209DADD4800780A
:1013600030B10020DB4908705802FFF700FB37E07E
:10137000D5480078CF490978401AD049098A88426F
:101380002BDACE48028AD1484178CF4800783830ED
:10139000102303FB0100C7490978084482421CDA84
:1013A000CB480078C44909780844C2490978401AF2
:1013B000C249498A884210DAC048418AC448007844
:1013C000BD4A12781044BB4A127810441030814252
:1013D00003DABB480068012802D10120BD4908702A
:1013E000B9480078B3490978401AB449098A884253
:1013F00033DAB248018AB5488278B3480078383089
:10140000102303FB0200AB4A12781044814224DA15
:10141000AF480078A849097801EB4000A549097850
:10142000401AA649498A884217DAA448418AA8483E
:101430000078A14A127802EB40009E4A12781044CC
:101440001030814209DAA448007830B10020A24966
:1014500008709802FFF78BFA39E09B4800789549AD
:101460000978401A9549098A88422DDA9348018AF9
:1014700096488278944800783830102303FB0200A5
:101480008C4A1278104481421EDA914800788A49C9
:10149000097801EB400087490978401A8749498A51
:1014A000884211DA8548418A89480078824A127850
:1014B00002EB40007F4A127810441030814203DA78
:1014C0007F480068012802D10120834908707E48C6
:1014D000007878490978401A7849098A884235DACB
:1014E0007648018A7948C2787748007838301023E6
:1014F00003FB02006F4A12781044814226DA7448D6
:10150000007800EB40006C49097808446949097883
:10151000401A6A49498A884218DA6848418A6C4800
:10152000007800EB4000644A12781044614A127857
:1015300010441030814209DA6848007830B1002048
:1015400066490870D802FFF712FA3BE05E4800785F
:1015500058490978401A5949098A88422FDA574868
:10156000028A5A48C178584800783830102303FB63
:101570000100504909780844824220DA5448007832
:1015800000EB40004C49097808444A490978401A60
:101590004A49498A884212DA4848418A4C480078C8
:1015A00000EB4000444A12781044424A127810443A
:1015B0001030814203DA42480068012802D101203C
:1015C00046490870404800783A490978401A3B4932
:1015D000098A884233DA3948028A3C4801793A4814
:1015E00000783830102303FB0100324909780844A1
:1015F000824224DA364800782F49097801EB8000CE
:101600002C490978401A2D49498A884217DA2B4813
:10161000418A2F480078284A127802EB8000254A38
:10162000127810441030814209DA2D48007830B128
:1016300000202B4908701803FFF799F939E0224878
:1016400000781C490978401A1C49098A88422DDA19
:101650001A48028A1D4801791B4800783830102347
:1016600003FB010013490978084482421EDA184836
:1016700000781149097801EB80000E490978401A79
:101680000E49498A884211DA0C48418A104800788C
:10169000094A127802EB8000064A12781044103092
:1016A000814203DA06480068012802D101200C4972
:1016B000087017E05000002048000020B40100200E
:1016C00028812342590000204700002051000020BB
:1016D000490000205A0000205B0000205C00002030
:1016E0005D000020BC480078BC490978401ABC491C
:1016F000098A884235DABA48028ABA484179B64836
:1017000000783830102303FB0100B44909780844FD
:10171000824226DAB448007800EB8000B3490978A9
:101720000844AE490978401AAD49498A884218DA16
:10173000AB48418AAC48007800EB8000AB4A127895
:101740001044A64A127810441030814209DAA848A1
:10175000007830B10020A64908705803FFF707F958
:101760003BE09D4800789D490978401A9C49098AC8
:1017700088422FDA9A48028A9A4841799648007836
:101780003830102303FB0100944909780844824251
:1017900020DA9548007800EB8000944909780844E5
:1017A0008E490978401A8E49498A884212DA8C4853
:1017B000418A8D48007800EB80008C4A12781044F2
:1017C000864A127810441030814203DA8948006852
:1017D000012802D10120864908708148008AB0F5AD
:1017E000CD7F2FDD7E48018A7C48007800F5E270CD
:1017F000814227DA7C48007800EB80007B49097839
:10180000084476490978401A7549498A884219DAA4
:101810007348418A7448007800EB8000734A12785C
:1018200010446E4A12781044103081420ADA72482D
:10183000007838B10020704908704FF48020FFF71D
:1018400096F830E06648008AB0F5CD7F28DD644820
:10185000018A6248007800F5E270814220DA62482D
:10186000007800EB80006149097808445B490978F9
:10187000401A5B49498A884212DA5948418A5A48D3
:10188000007800EB8000594A12781044534A1278CD
:1018900010441030814203DA56480068012802D112
:1018A0000120554908704E48008AB0F5CD7F30DDE3
:1018B0004B48018A4948007800F5E270814228DAF5
:1018C0004948007800EB40004849097801EB4000A6
:1018D00042490978401A4249498A884219DA4048FF
:1018E000418A4148007800EB4000404A127802EB00
:1018F00040003A4A127810441030814209DA3F48D9
:10190000007830B100203D4908702020FFF72FF803
:1019100032E03348008AB0F5CD7F2ADD3048018AB5
:101920002E48007800F5E270814222DA2E480078D5
:1019300000EB40002D49097801EB40002749097868
:10194000401A2749498A884213DA2548418A26489D
:10195000007800EB4000254A127802EB40001F4A55
:10196000127810441030814203DA224800680128BE
:1019700002D101202149087010BD10B52049AFF6F1
:10198000FD00FEF7DAFF10BD10B500210846FFF795
:10199000E3F810BD10B54FF6FF7002F02BFD0120EB
:1019A00018490870184908701849087018490870D3
:1019B000184908700E4908700F4908700F490870DF
:1019C00000201549087001201449087007201449A7
:1019D00008701449087010BD470000205000002016
:1019E000B4010020510000204900002048000020E0
:1019F0005E000020288123425F000020600000205C
:101A000027F00700590000205A0000205B0000204A
:101A10005C0000205D0000206100002062000020CA
:101A200057000020580000200EB5FE480078102115
:101A3000FDA2CDE900210290FD480388FD480288FF
:101A4000A6214FF4D27003F0A1FFF64800781021D0
:101A5000F9A2CDE900210290F5480388F5480288F3
:101A6000D8214FF4D27003F091FFEE480078102196
:101A7000F3A2CDE900210290ED4803884FF47842AB
:101A80004FF485714FF4D27003F080FF0EBDFEB5A8
:101A900005460E46E7200090EB48028814230021FB
:101AA000084603F0A5FA01201021E8A21F23CDE982
:101AB000002102904FF6FF720221002003F0EAFF9E
:101AC0004FF6FF700090E048438802881421002000
:101AD00003F08EFAD34800781021E2A2CDE900216C
:101AE0000290D3480388D34802882821142003F0A9
:101AF0004DFFCC4800781021DFA2CDE900210290F3
:101B0000CB480388CB48028828214FF4877003F024
:101B10003DFFC44800781021DEA2CDE900210290EB
:101B2000C3480388C34802886021822003F02EFF47
:101B3000BC4800781021DAA2CDE900210290BC480F
:101B40000388BC4802889221822003F01FFFB54819
:101B500000781021D5A2CDE900210290B448038875
:101B6000B4480288C421822003F010FFAD480078F9
:101B70001021D1A2CDE900210290AD480388AD48E3
:101B80000288F621822003F001FFA6480078102188
:101B9000CCA2CDE900210290A5480388A54802887F
:101BA00060214FF49B7003F0F1FE9E4800781021F5
:101BB000C4A2CDE9002102909D4803889D48028877
:101BC00092214FF49B7003F0E1FE964800781021BB
:101BD000BCA2CDE90021029095480388954802886F
:101BE000C4214FF49B7003F0D1FE8E480078102181
:101BF000B4A2CDE9002102908D4803888D48028867
:101C0000F6214FF49B7003F0C1FE86480078102146
:101C1000ACA2CDE90021029085480388854802885E
:101C2000F6214FF49B7003F0B1FEE720A64908802F
:101C300000241DE0322204FB02F000F1560304FBF5
:101C400002F000F156014FF4BC72502003F004FA88
:101C5000322204FB02F000F17A0304FB02F000F1EF
:101C60007A014FF4BC72502003F0F6F9601CC4B244
:101C7000042CDFDB6B480078102194A2CDE9002111
:101C800002906B4803886B4802884621CE2003F0FF
:101C90007DFE46234FF499721946D22003F0DCF9F9
:101CA0004FF4887350225621104603F0D5F94FF4B3
:101CB00088734FF4BC725621104603F0CDF9FFF73C
:101CC000B3FE002435E032276743A637DFF80CC2A5
:101CD0009CF800C067441037BBB2804F3F7807F5CF
:101CE000E27232276743A637DFF8F0C19CF800C0E4
:101CF000A7EB0C07B9B2794F3F78C7F5D27003F064
:101D000003FA48480078102175A23223CDE900215A
:101D1000029004FB03F202F1A601704A1278C2F5A8
:101D2000CA7290B2424A1388E72203F02FFE601C69
:101D3000C4B2032CC7DB002010216A4A0346CDE958
:101D4000002102904FF6FF724FF4987103F01EFECF
:101D5000FEBD10B561480078C0F5D2706249098AAD
:101D6000884220DA6048018A5C48007800F5E27019
:101D7000814218DA59480078C0F1A6005A49498AC8
:101D8000884210DA5848418A54480078B630814277
:101D900009DA5648007830B1002054490870802094
:101DA000FEF7E5FD25E04D480078C0F5D2704E49BC
:101DB000098A88421ADA4C48018A4848007800F5B6
:101DC000E270814212DA45480078C0F1A600464927
:101DD000498A88420ADA4448418A40480078B63045
:101DE000814203DA42480068012802D101203F49BC
:101DF00008703A480078C0F5D2703B49098A884299
:101E000078DA3948018A3548007800F5E270814275
:101E100070DA32480078C0F1D8003349498A8842E4
:101E20007BDA68E069000020BFAACABC000000009D
:101E30006400002066000020C7E5C1E30000000048
:101E4000B7B5BBD8000000009C030020B9E2B5E79D
:101E5000BCC6CAB1CAFDD7D6CAB5D1E9CFB5CDB3D4
:101E600000000000CAB5D1E931A3BAB2E2C1BFB5E2
:101E7000B2B9E2CAB1BCE400CFB5CDB3BCC6CAB1F9
:101E8000CAB1BCE43A202020202020202020206D50
:101E900073000000B4ABB8D0C6F7313A00000000C0
:101EA000B4ABB8D0C6F7323A00000000B4ABB8D03B
:101EB000C6F7333A00000000B4ABB8D0C6F7343AE6
:101EC000000000006D730000AC0100207C20202089
:101ED00020732020207C6D737C00000068000020AF
:101EE000F7CE00007C000020B4010020A1000020FB
:101EF0002881234211E0C748418AC7480078E8306A
:101F000081420ADAC548007838B10020C349087018
:101F10004FF48070FEF72BFD25E0BF480078C0F538
:101F2000D270BC49098A88421ADABA48018ABA488A
:101F3000007800F5E270814212DAB7480078C0F10B
:101F4000D800B449498A88420ADAB248418AB2487C
:101F50000078E830814203DAB1480068012802D1F4
:101F60000120AE490870AC480078C0F5D270A9498C
:101F7000098A884221DAA748018AA748007800F533
:101F8000E270814219DAA4480078C0F58570A14951
:101F9000498A884211DA9F48418A9F48007800F5B3
:101FA0008D70814209DA9F48007830B100209D4948
:101FB00008704020FEF7DBFC26E097480078C0F56B
:101FC000D2709449098A88421BDA9248018A924861
:101FD000007800F5E270814213DA8F480078C0F58E
:101FE00085708C49498A88420BDA8A48418A8A4836
:101FF000007800F58D70814203DA89480068012875
:1020000002D101208749087010BD3EB504468648BC
:102010000078012818D1012C17D1FFF705FD83485E
:1020200000781021AFF2E81248F21003CDE9002148
:1020300002904FF6FF724FF485714FF4D27003F0A7
:10204000A5FC002078490870C5E0022C15D1FFF7E7
:10205000EBFC764800781021AFF2342248F21003EE
:10206000CDE9002102904FF6FF72A6214FF4D27005
:1020700003F08CFC02F015FEADE0042C15D1FFF747
:10208000D3FC6A4800781021AFF2542248F21003C2
:10209000CDE9002102904FF6FF72D8214FF4D270A3
:1020A00003F074FC02F006FE95E0802C15D1FFF7DA
:1020B000BBFC5E4800781021AFF2942248F2100376
:1020C000CDE9002102904FF6FF72A6214FF4D270A5
:1020D00003F05CFC02F0E5FD7DE0B4F5807F15D1F6
:1020E000FFF7A2FC514800781021AFF2B42248F269
:1020F0001003CDE9002102904FF6FF72D8214FF472
:10210000D27003F043FC02F0D5FD64E0402C17D1FF
:10211000FFF78AFC454800781021AFF2DC2248F234
:102120001003CDE9002102904FF6FF724FF4857144
:102130004FF4D27003F02AFC00203B4908704AE0BB
:10214000B4F5801F04D13A4800683A49086042E07B
:10215000B4F1807F07D13648006836490968401AD3
:102160003549086037E0B4F5001F04D130480068F5
:10217000324908602FE0B4F1007F07D12C48006895
:102180002E490968401A2C49486024E0B4F5000F34
:1021900004D1274800682A4908601CE0B4F1006FA8
:1021A00007D12348006826490968401A22498860F7
:1021B00011E0B4F5800F04D11D4800682149086082
:1021C00009E0B4F1806F06D1194800681D4909681B
:1021D000401A1949C86020463EBD10B51A49AFF2F1
:1021E000D510FEF7AAFB10BD10B500210846FFF779
:1021F0004EFC10BD10B54FF6FF7002F0FBF802F078
:1022000059FD012007490870044908700F490870FA
:1022100010BD0000B401002068000020A2000020D2
:1022200028812342A300002005000020690000202F
:10223000E40100206C000020AC03002070000020AE
:102240007400002078000020C701F00FA1000020DA
:102250001FB5FFF7E9FB4FF6FF70FE490880E72046
:10226000FD490880FD48007801287DD1FC480078B0
:102270001021FCA24FF47C43CDE9002102904FF6DF
:10228000FF7242214FF4D27003F080FBF4480078D3
:102290001021F6A2CDE900210290F6480388F64805
:1022A000028874214FF4D27003F070FBF348007879
:1022B000022803D12820F24908705FE0EF48007837
:1022C00003285BD11E20EE490870E54800781021F4
:1022D000ECA2CDE900210290E9480078EF490978A5
:1022E00001EB80000390E3480388E3480288EC4850
:1022F0000078039903F04AFBD94800781021E9A23D
:10230000CDE900210290DE480078E449097801EB2C
:1023100080000390D7480388D7480288E7480078B0
:102320000A30039903F032FB10200090E448006B60
:102330000390D3480078D949097801EB800009233C
:1023400002900146D64800781C30039A03F06CF8DE
:1023500010200090DA48406B0390C9480078CF49BC
:10236000097801EB800000E01CE20923029001469D
:10237000D24800782630039A03F056F8B84800781F
:102380001021D0A2CDE900210290BA480388BA48B2
:102390000288C2480178C248007803F0F7FAB048D2
:1023A00000781021CBA2CDE900210290B44800783A
:1023B000BA49097808440390AE480388AE480288B9
:1023C000B7480078039903F0E1FAA5480078102196
:1023D000C4A2CDE900210290A9480078AF4909784C
:1023E00001EB40000390A3480388A3480288AC484F
:1023F0000078039903F0CAFA994800781021BDA229
:10240000CDE9002102909E48007800EB4000A349EE
:102410000978084403909748038897480288A048A1
:102420000078039903F0B2FA8D4800781021B5A224
:10243000CDE9002102908F4803888F480288974891
:1024400001789E48007803F0A1FA854800781021B1
:10245000B1A2CDE900210290894800788F4909781E
:10246000084403908348038883480288934800788F
:10247000039903F08BFA7A4800781021ABA2CDE9DA
:10248000002102907E4800788449097801EB4000E1
:102490000390784803887848028888480078039930
:1024A00003F074FA6E4800781021A5A2CDE900214E
:1024B00002907348007800EB40007849097808449E
:1024C00003906C4803886C4802887C480078039924
:1024D00003F05CFA10200090794800686F4903907F
:1024E0000978092302466E48029100781C3002F0F8
:1024F0009BFF10200090724840680390604800786D
:102500006649097808440923029001466448007826
:102510001C30039A02F088FF102000906848806801
:102520000390574800785D49097801EB4000092382
:10253000029001465A4800781C30039A02F074FF5A
:10254000102000905E48C06803904D48007800EB72
:102550004000524909780844092302900146504836
:1025600000781C30039A02F05FFF1020009054485E
:1025700000694A4903900978092302464F480291AD
:1025800000781C3002F050FF102000904C48406949
:1025900003903B4800784149097808440923029098
:1025A0000146464800781C30039A02F03DFF102097
:1025B0000090434880690390314800783749097892
:1025C00001EB40000923029001463C4800781C3092
:1025D000039A02F029FF102000903948C069039047
:1025E0002748007800EB40002C490978084409236B
:1025F00002900146314800781C30039A02F014FF23
:1026000017480078102153A2CDE9002102902348F9
:102610000078B63080B203901648038816480288C6
:102620001F4800781E30039903F0B0F9E7200949EC
:1026300008804FF6FF700849088020200090174856
:102640000078AC3080B2022303904548B0F90020F6
:10265000DC2087E0AC010020AE010020E400002077
:10266000A9000020B7BDB7A831000000B7BDB7A8CA
:1026700032000000A4000020A60000200500002079
:10268000D900002061313A20202020202020202065
:1026900020286D6D2F73322900000000DB00002020
:1026A000DA00002061323A20202020202020202043
:1026B00020286D6D2F73322900000000DC000020FF
:1026C000AC03002074313A2020202020202020203C
:1026D000206D730074323A202020202020202020FA
:1026E000206D730074333A202020202020202020E9
:1026F000206D730074343A202020202020202020D8
:10270000206D730076313A202020202020202020C8
:10271000206D6D2F7300000076323A20202020209B
:1027200020202020206D6D2F7300000076333A208A
:102730002020202020202020206D6D2F73000000FD
:1027400076343A202020202020202020206D6D2F5C
:1027500073000000B5B2B9E2C6ACBFEDB6C83A002E
:10276000E0000020039902F036FF4FF6FF70FE49AB
:102770000880E720FD490880FD4800781021FDA26F
:10278000CDE900210290FC480078B63080B2039079
:10279000FA480388FA4802884FF48C70039903F0D2
:1027A000F5F83BE1F24800781021AFF24812CDE98C
:1027B00000210290F1480388F148028842214FF439
:1027C000D27003F0E3F8EA4800781021AFF2641207
:1027D0004FF47C43CDE9002102904FF6FF72742143
:1027E0004FF4D27003F0D2F82020E6490870E04898
:1027F00000781021E4A2CDE900210290DF4803888F
:10280000DF480288DC480178E448007803F0BEF82D
:10281000D74800781021E2A2CDE900210290D948E2
:102820000078D549097801EB40000390D34803882C
:10283000D3480288D9480078039903F0A7F8CC4818
:1028400000781021DBA2CDE900210290CB4803885B
:10285000CB480288C8480178DB48007803F096F836
:10286000C34800781021D9A2CDE900210290C548C3
:102870000078C149097801EB40000390BF48038804
:10288000BF480288D0480078039903F07FF81020F1
:102890000090D348006AB84903900978092302469A
:1028A000BE4802910078213002F0BEFD1020009059
:1028B000CB48406A0390B3480078AF49097801EBF0
:1028C0004000092302900146B44800782130039A61
:1028D00002F0AAFD10200090C148806AA64903902A
:1028E000097809230246B84802910078213002F0A5
:1028F0009BFD10200090BA48C06A0390A148007860
:102900009D49097801EB4000092302900146AE4839
:1029100000782130039A02F087FDB248007803283E
:1029200021D1934800781021AFA2CDE90021029077
:1029300092480388924802888F48017880319748EE
:102940000078401D03F022F810200090A448806B0E
:102950000923024603908848017880318F48007827
:10296000213002F061FD824800781021A4A2CDE957
:10297000002102908348007800EB40007E490978EE
:1029800001EB4000083880B203907C4803887C4803
:102990000288824800783230039902F0F7FFE7207E
:1029A000714908804FF6FF70704908802020009020
:1029B0007448007800EB40006F49097801EB400053
:1029C000123880B2022303909048B0F90020734877
:1029D00000789630039902F0FEFD4FF6FF706249D1
:1029E0000880E7206149088061480078102188A2AA
:1029F000CDE9002102906348007800EB40005E4979
:102A0000097801EB4000083880B203905B480388E6
:102A10005B480288FA20039902F0B8FF1FBDFEB59B
:102A200005460E46E72000907A48028814230021CC
:102A3000084602F0DDFA0120102177A21F23CDE91C
:102A4000002102904FF6FF720221002003F022F8CD
:102A50004FF6FF7000906F484388028814210020D1
:102A600002F0C6FA5F48007802280FD1404800788B
:102A700010216FA2CDE90021029040480388404810
:102A800002881621142002F081FF12E055480078D8
:102A900003280ED13648007810216AA2CDE9002122
:102AA000029036480388364802882821142002F014
:102AB0006DFF2F48007810216AA2CDE90021029015
:102AC0002E4803882E48028816214FF4877002F0A2
:102AD0005DFFFFF7BDFB0024EAE0E7202249088004
:102AE000022C1EDA322767434237DFF894C19CF884
:102AF00000C067441037BBB2614F3F7807F5E672FC
:102B0000322767434237DFF878C19CF800C0A7EB53
:102B10000C07B9B25A4F3F78C7F5D27002F0F4FAF9
:102B20001DE0322767434237DFF854C19CF800C0EC
:102B300067441037BBB2524F3F7807F5E272322735
:102B400067434237DFF838C19CF800C0A7EB0C0799
:102B5000B9B24B4F3F78C7F5D27002F0D5FA0448AE
:102B60000078102147A28FE0AC010020AE010020C8
:102B7000A90000206D206D00DB000020A4000020D3
:102B8000A6000020D90000207431323A20202020F5
:102B90002020202020206D7300000000DA0000209B
:102BA0007433343A202020202020202020206D73F0
:102BB000000000007631323A202020202020202002
:102BC00020206D6D2F730000DC0000207633343A36
:102BD000202020202020202020206D6D2F73000039
:102BE000AC03002005000020613A20202020202096
:102BF000202020202020286D6D2F73322900000016
:102C0000B4ABB8D0C6F7BEE0C0EB3A00E20000209B
:102C1000636D00009C030020B9E2B5E7BCC6CAB1F1
:102C2000CAFDD7D6CAB5D1E9CFB5CDB300000000F3
:102C3000CAB5D1E932A3BAB2E2C1BFCBB2CAB1CBF5
:102C4000D9B6C800CAB5D1E933A3BAB2E2C1BFD47C
:102C5000C8B1E4CBD9D4CBB6AFB5C4BCD3CBD9B60D
:102C6000C8000000CFB5CDB3BCC6CAB1CAB1BCE480
:102C70003A202020202020202020206D73000000FA
:102C8000A8000020F7CE00003223CDE900210290F9
:102C900004FB03F202F14201FA4A1278C2F5CA7249
:102CA00090B2F94A1388E72202F070FE601CC4B2A9
:102CB000052CFFF612AF00201021F44A0346CDE99F
:102CC000002102904FF6FF724FF4987102F05EFE01
:102CD000FEBD10B5FFF73DF8EA480078C0F5D270A8
:102CE000EB49098A884221DAE948018AE5480078F7
:102CF00000F5E270814219DAE2480078C0F1740010
:102D0000E349498A884211DAE148418ADD4800787E
:102D1000843081420ADADF48007838B10020DD498A
:102D200008704FF40060FDF722FE25E0D5480078DA
:102D3000C0F5D270D649098A88421ADAD448018A85
:102D4000D048007800F5E270814212DACD48007870
:102D5000C0F17400CE49498A88420ADACC48418AD7
:102D6000C84800788430814203DACB4800680128E3
:102D700002D10120C7490870C2480078C0F5D2705E
:102D8000C349098A884221DAC148018ABD480078CE
:102D900000F5E270814219DABA480078C0F14200C9
:102DA000BB49498A884211DAB948418AB548007856
:102DB000523081420ADAB948007838B10020B74968
:102DC00008704FF48060FDF7D2FD25E0AD48007833
:102DD000C0F5D270AE49098A88421ADAAC48018A35
:102DE000A848007800F5E270814212DAA548007820
:102DF000C0F14200A649498A88420ADAA448418AB9
:102E0000A04800785230814203DAA34800680128C4
:102E100002D10120A149087010BD3EB50446A0486A
:102E20000078022803D09E480078032817D1012C8F
:102E300016D1FFF70DFA9B48007810219AA248F2AC
:102E40001003CDE9002102904FF6FF724FF4857117
:102E50004FF4D27002F09AFD00209149087076E399
:102E6000022C5FD192480078012829D1914800882E
:102E7000401C00B28F490880E7208F4908804FF638
:102E8000FF708E4908808B48B0F90000632802DD8E
:102E9000C820884908802020009089480078AC30FC
:102EA00081B202238348B0F90020DC2002F093FBBA
:102EB0004FF6FF7080490880E7208049088046E38C
:102EC00080480088401C00B27E490880E7207A498B
:102ED00008804FF6FF70794908807A48B0F9000001
:102EE000632802DD00207749088020200090764882
:102EF000007800EB4000724A127802EB4000123872
:102F000081B202236F48B0F90020704800789630F3
:102F100002F061FB4FF6FF7067490880E7206749C0
:102F2000088014E3042C5FD161480078012829D17E
:102F300060480088401E00B25E490880E7205E4974
:102F400008804FF6FF705D4908805A48B0F90000CC
:102F5000002802DA002057490880202000905848B5
:102F60000078AC3081B202235248B0F90020DC2056
:102F700002F031FB4FF6FF704F490880E7204F49C0
:102F80000880E4E24F480088401E00B24D490880A6
:102F9000E720494908804FF6FF70484908804948B2
:102FA000B0F90000002802DA0020464908802020FD
:102FB00000904548007800EB4000414A127802EB4F
:102FC0004000123881B202233E48B0F900203F4849
:102FD0000078963002F0FFFA4FF6FF70364908800D
:102FE000E72036490880B2E2802C14D1FFF730F98F
:102FF0002C480078102136A248F21003CDE90021B8
:1030000002904FF6FF72A6214FF4D27002F0BEFC80
:1030100001F047FE9BE2B4F5807F1AD14FF6FF70B6
:1030200001F0E8F901F046FE00210846FFF7F7FC41
:103030001C480078102128A248F21003CDE9002195
:1030400002904FF6FF72D8214FF4D27002F09EFC2E
:103050007DE2402C44D1FFF7FBF8124800781021A4
:1030600011A248F21003CDE9002102904FF6FF7241
:103070004FF485714FF4D27002F088FC00200849AB
:10308000087064E2A8000020A4000020BC0000201A
:10309000B4010020DD00002028812342DE00002052
:1030A00005000020A9000020B7B5BBD80000000033
:1030B000E4000020E0000020AC010020AE01002070
:1030C000DB000020E2000020D9000020DA00002010
:1030D000BFAACABC00000000C7E5C1E300000000B1
:1030E000B4F5801F10D1FD480078012804D1FC48B8
:1030F0000068FC4908602AE20120FB490870F84892
:103100000068F849086022E2B4F1807F31D1F348C9
:10311000007801289CD1F2480068F2490968401AF9
:10312000F2490860F248B0F900004FF47A71484360
:10313000EE490968B0FBF1F0EC49086110200090FD
:103140000846EC4B1B78194609230268EA480078C8
:103150001C3002F069F910200090E448E54B1B7820
:10316000194609230269E54800781C3002F05CF931
:10317000EDE1B4F5001F3DD1D8480078012804D115
:10318000D7480068DE490860E1E1D74800780028A8
:10319000B1D00020D4490870D1480068D1490968ED
:1031A000401AD2490862D748B0F9000042F21071C3
:1031B0004843CE49096AB0FBF1F0CC49886210203F
:1031C00000900846CB4B1B7819460923026ACA486F
:1031D0000078213002F028F910200090C348C54B38
:1031E0001B7819460923826AC4480078213002F00E
:1031F0001BF9ACE1B4F1007F50D1B8480078012848
:10320000B6D1B7480068BE490968401AB749486056
:10321000B748B0F900004FF47A714843B3494968A0
:10322000B0FBF1F0B14948611020009008464268B7
:10323000B5480078AF4B1B78C1180923AE48007819
:103240001C3002F0F1F810200090A8484269AE4806
:103250000078A84B1B78C1180923A84800781C30B7
:1032600002F0E2F8A948007803288DD19F48406910
:103270009E490969401A9D4908631020009008463C
:10328000026BA14800789B4B1B7803EB800109235C
:10329000994800781C3002F0C7F858E1B4F5000FE7
:1032A00010D18E480078012804D18D4800689849D3
:1032B00008604CE101208C490870894800689449F5
:1032C000086044E1B4F1006F37D1844800780128E8
:1032D0008FD1834800688E490968401A8349886005
:1032E0008348B0F900004FF47A7148437F498968F8
:1032F000B0FBF1F07D49886110200090084682689B
:10330000814800787B4B1B7803EB400109237A4806
:1033100000781C3002F088F8102000907348826911
:1033200079480078734B1B7803EB400109237348FD
:1033300000781C3002F078F809E1B4F5800F5BD119
:1033400066480078012804D1654800687149086022
:10335000FDE06548007800289FD000206249087091
:103360005F4800686A490968401A604948626548D0
:10337000B0F9000042F2107148435C49496AB0FB61
:10338000F1F05A49C862102000900846426A5E482F
:103390000078584B1B7803EB40010923564800780E
:1033A000213002F041F8102000905048C26A56487F
:1033B0000078504B1B7803EB400109234F480078FD
:1033C000213002F031F851480078032813D14748E2
:1033D000C06A4649896A401A4449886310200090AF
:1033E00008460923826B43480178803142480078BF
:1033F000213002F019F8AAE0B4F1806F54D13748B7
:10340000007801284FD13648006842490968401ABF
:103410003649C8603648B0F900004FF47A71484325
:103420003249C968B0FBF1F03049C8611020009002
:103430000846C2683448007800EB40002D4B1B78EA
:10344000C11809232C4800781C3001F0EDFF102032
:1034500000902648C2692C48007800EB4000254BBC
:103460001B78C1180923254800781C3001F0DCFFC7
:103470002648007803286AD11C48C0691B4989691D
:10348000401A1A494863102000900846426B1E48B3
:103490000078184B1B7803EB80010923174800784C
:1034A000263001F0C1FF52E0B4F5806F36D1012023
:1034B0000A4908704FF6FF701749009049881E3975
:1034C0008BB20D4909781E3988B24FF4B972094997
:1034D000097801F08DFDFEF7BBFE38E0E400002026
:1034E000E4010020AC000020DF000020AC0300203D
:1034F000E0000020DB000020DA000020DC000020DB
:10350000B0000020E2000020D900002005000020CB
:10351000B4000020B80000209C030020B4F5006F28
:1035200015D10220174908704FF6FF701649009018
:1035300049881E398BB2154909781E3988B24FF473
:10354000B9721349097801F053FDFEF781FE204658
:103550003EBD10B50F49AFF23D70FDF7EEF910BD5D
:1035600010B500210846FFF75AFA10BD10B54FF606
:10357000FF7000F03FFF01F09DFB01200149087042
:1035800010BD0000E40000209C030020DA000020B1
:10359000DB000020C70DF00F10B5FEF745FA10BD97
:1035A000FEB505460E46E7200090E6480288142343
:1035B0000021084601F01CFD01201021E2A21F237A
:1035C000CDE9002102904FF6FF720221002002F0A7
:1035D00061FA4FF6FF700090DA48438802881421A0
:1035E000002001F005FDDE4800781021DDA2CDE9C4
:1035F00000210290E1480388E14802882821142034
:1036000002F0C4F9D64800781021DEA2CDE90021ED
:103610000290DA480388DA48028828214FF487703C
:1036200002F0B4F9FFF7B8FF002438E0E720DC49E6
:10363000088032276743A637DFF868C39CF800C0CC
:1036400067441037BBB2D74F3F7807F5E272322795
:103650006743A637DFF84CC39CF800C0A7EB0C0704
:10366000B9B2D04F3F78C7F5D27001F04DFDBC48DC
:1036700000781021CCA23223CDE90021029004FB76
:1036800003F202F1A601C74A1278C2F5CA7290B2DB
:10369000BA4A1388E72202F079F9601CC4B2032CFD
:1036A000C4DB00201021C14A0346CDE9002102906D
:1036B0004FF6FF724FF4987102F068F9FEBD10B535
:1036C000FEF747FB10BD3EB50446B9480078042814
:1036D00017D1012C16D1FFF75FFFA1480078102108
:1036E000B4A248F21003CDE9002102904FF6FF7218
:1036F0004FF485714FF4D27002F048F90020AC49C4
:10370000087008E1022C14D1FFF746FF94480078B6
:103710001021AAA248F21003CDE9002102904FF631
:10372000FF72A6214FF4D27002F030F901F0B9FA1D
:10373000F1E0042C14D1FFF72FFF89480078102105
:10374000A0A248F21003CDE9002102904FF6FF72CB
:10375000D8214FF4D27002F019F901F0ABFADAE097
:10376000802C14D1FFF718FF7D480078102193A218
:1037700048F21003CDE9002102904FF6FF72A62116
:103780004FF4D27002F002F901F08BFAC3E0B4F505
:10379000807F14D1FFF700FF71480078102189A2C3
:1037A00048F21003CDE9002102904FF6FF72D821B4
:1037B0004FF4D27002F0EAF801F07CFAABE0402C52
:1037C00016D1FFF7E9FE66480078102179A248F289
:1037D0001003CDE9002102904FF6FF724FF485717E
:1037E0004FF4D27002F0D2F800207149087092E0D4
:1037F000B4F5801F04D175480068754908608AE0F7
:10380000B4F1807F19D17148006871490968401A84
:1038100070490860084600680321B0FBF1F00A21F6
:10382000B0FBF1F201FB12006A49096801EB81016A
:1038300000EB4100674908606DE0B4F5001F04D15A
:10384000624800686449086065E0B4F1007F19D1FE
:103850005E48006860490968401A5E494860084649
:1038600040680321B0FBF1F00A21B0FBF1F201FB4B
:1038700012005849496801EB810100EB41005549AC
:10388000486048E0B4F5000F04D15048006853493F
:10389000086040E0B4F1006F19D14C4800684F490E
:1038A0000968401A4B498860084680680321B0FBCC
:1038B000F1F00A21B0FBF1F201FB120045498968E1
:1038C00001EB810100EB41004249886023E0B4F53F
:1038D000800F04D13D480068414908601BE0B4F105
:1038E000806F18D1394800683D490968401A394944
:1038F000C8600846C0680321B0FBF1F00A21B0FBA4
:10390000F1F201FB12003349C96801EB810100EBC0
:1039100041003049C86020463EBD10B53149AFF284
:103920005920FDF70AF810BD10B500210846FFF731
:1039300037FE10BD10B54FF6FF7000F05BFD01F0D3
:10394000B9F910BD9C030020B9E2B5E7BCC6CAB105
:10395000CAFDD7D6CAB5D1E9CFB5CDB300000000B6
:10396000ED000020CAB5D1E934A3BAB2E2C1BFC5A7
:10397000F6D7B2D6D0B5C4B6AFC1BF00E8000020BC
:10398000EA000020CFB5CDB3BCC6CAB1CAB1BCE411
:103990003A202020202020202020207573000000C5
:1039A000AC010020EC000020F7CE00000001002058
:1039B00005000020B7B5BBD800000000BFAACABCF4
:1039C00000000000C7E5C1E300000000E4010020A2
:1039D000F0000020AC030020F4000020F8000020DC
:1039E000FC000020C701F00F10B5FEF71DF810BD58
:1039F000FEB505460E46E7200090EC4802881423E9
:103A00000021084601F0F4FA01201021E8A21F234A
:103A1000CDE9002102904FF6FF720221002002F052
:103A200039F84FF6FF700090E0484388028814216F
:103A3000002001F0DDFAE44800781021E3A2CDE98E
:103A400000210290E4480388E448028828211420D9
:103A500001F09CFFFFF7C8FF002438E0E720E049B1
:103A6000088032276743A637DFF878C39CF800C088
:103A700067441037BBB2DB4F3F7807F5E27232275D
:103A80006743A637DFF85CC39CF800C0A7EB0C07C0
:103A9000B9B2D44F3F78C7F5D27001F035FBCA48B0
:103AA00000781021D0A23223CDE90021029004FB3E
:103AB00003F202F1A601CB4A1278C2F5CA7290B2A3
:103AC000C54A1388E72201F061FF601CC4B2032CD1
:103AD000C4DB00201021C54A0346CDE90021029035
:103AE0004FF6FF724FF4987101F050FFFEBD10B514
:103AF000FEF72FF910BD3EB50446BD4800780528F5
:103B000017D1012C16D1FFF76FFFAF4800781021B5
:103B1000B8A248F21003CDE9002102904FF6FF72DF
:103B20004FF485714FF4D27001F030FF0020B0499E
:103B3000087020E1022C14D1FFF756FFA24800784C
:103B40001021AEA248F21003CDE9002102904FF6F9
:103B5000FF72A6214FF4D27001F018FF01F0A1F816
:103B600009E1042C15D1A7480078401CA54908702C
:103B7000087800EBD0714910A0EB410121B1002180
:103B8000200703F0DBFBF6E00121880703F0D6FBFA
:103B9000F1E0802C14D1FFF727FF8B48007810212B
:103BA00096A248F21003CDE9002102904FF6FF7271
:103BB000A6214FF4D27001F0E9FE01F072F8DAE0CC
:103BC000B4F5807F17D1FFF70FFF7F4800781021F1
:103BD0008DA248F21003CDE9002102904FF6FF724A
:103BE000D8214FF4D27001F0D1FE01F063F800202B
:103BF00087490860BFE0402C16D1FFF7F5FE7248F8
:103C0000007810217BA248F21003CDE90021029038
:103C10004FF6FF724FF485714FF4D27001F0B6FE8B
:103C2000002073490870A6E0B4F5801F09D17848D8
:103C30000068401C7649086076480068764908604C
:103C400099E0B4F1807F19D172480068724909681F
:103C5000401A72490860084600680321B0FBF1F081
:103C60000A21B0FBF1F201FB12006C49096801EB7B
:103C7000810100EB4100694908607CE0B4F5001F58
:103C800009D163480068401C6149086061480068C8
:103C9000634908606FE0B4F1007F19D15D480068A6
:103CA0005F490968401A5D49486008464068032139
:103CB000B0FBF1F00A21B0FBF1F201FB1200574911
:103CC000496801EB810100EB41005449486052E032
:103CD000B4F5000F09D14E480068401C4C490860FB
:103CE0004C4800684F49086045E0B4F1006F19D1B5
:103CF000484800684B490968401A484988600846A6
:103D000080680321B0FBF1F00A21B0FBF1F201FB66
:103D100012004249896801EB810100EB41003F49F3
:103D2000886028E0B4F5800F09D139480068401C4C
:103D300037490860374800683B4908601BE0B4F128
:103D4000806F18D13348006837490968401A3349F1
:103D5000C8600846C0680321B0FBF1F00A21B0FB3F
:103D6000F1F201FB12002D49C96801EB810100EB62
:103D700041002A49C86020463EBD10B52B49AFF22C
:103D80008920FCF7DAFD10BD10B500210846FFF7C9
:103D90002FFE10BD10B54FF6FF7000F02BFB00F0AA
:103DA00089FF00201A49086010BD00009C03002014
:103DB000B9E2B5E7BCC6CAB1CAFDD7D6CAB5D1E922
:103DC000CFB5CDB3000000002D010020CAB5D1E968
:103DD00035A3BABCC6CAFD00280100202A01002074
:103DE000AC0100202C010020F7CE00004001002093
:103DF00005000020B7B5BBD800000000BFAACABCB0
:103E00000000000074010020C7E5C1E300000000CD
:103E100070010020E401002030010020AC030020EC
:103E200034010020380100203C010020C701F00FC0
:103E300010B5FDF7F9FD10BDFEB505460E46E720AD
:103E40000090C848028814230021084601F0D0F8E9
:103E500001201021C4A21F23CDE9002102904FF6BA
:103E6000FF720221002001F015FE4FF6FF70009056
:103E7000BC48438802881421002001F0B9F8C048EA
:103E800000781021BFA2CDE900210290C348038829
:103E9000C34802882821142001F078FDB848007832
:103EA0001021C0A2CDE900210290BC480388BC4883
:103EB00002885021962001F069FDB1480078102158
:103EC000BCA2CDE900210290B4480388B44802881E
:103ED0008221962001F05AFDA94800781021BAA24B
:103EE000CDE900210290AD480388AD480288B42195
:103EF000962001F04BFDA24800781021B7A2CDE931
:103F000000210290A5480388A5480288E621962052
:103F100001F03CFDFFF78CFF002438E0E720B449B6
:103F2000088032276743A637DFF8C8C29CF800C074
:103F300067441037BBB2AF4F3F7807F5E2723227C4
:103F40006743A637DFF8ACC29CF800C0A7EB0C07AC
:103F5000B9B2A84F3F78C7F5D27001F0D5F88848BC
:103F600000781021A4A23223CDE90021029004FBA5
:103F700003F202F1A6019F4A1278C2F5CA7290B20A
:103F8000864A1388E72201F001FD601CC4B2032CAD
:103F9000C4DB00201021994A0346CDE9002102909C
:103FA0004FF6FF724FF4987101F0F0FCFEBD10B5B2
:103FB000FDF7CFFE10BD3EB50446914800780628B7
:103FC00017D1012C16D1FFF733FF6D48007810216F
:103FD0008CA248F21003CDE9002102904FF6FF7247
:103FE0004FF485714FF4D27001F0D0FC0020844969
:103FF00008709CE0022C14D1FFF71AFF604800788B
:10400000102182A248F21003CDE9002102904FF660
:10401000FF72A6214FF4D27001F0B8FC00F041FE0F
:1040200085E0042C15D17B480078401C7949087044
:10403000087800EBD0714910A0EB410121B10021BB
:10404000200703F07BF972E00121880703F076F97D
:104050006DE0802C14D1FFF7EBFE49480078102169
:104060006AA248F21003CDE9002102904FF6FF72D8
:10407000A6214FF4D27001F089FC00F012FE56E048
:10408000B4F5807F17D1FFF7D3FE3D4800781021AB
:1040900061A248F21003CDE9002102904FF6FF72B1
:1040A000D8214FF4D27001F071FC00205C49086007
:1040B00000F000FE3BE0402C16D1FFF7B9FE30487F
:1040C000007810214FA248F21003CDE900210290A0
:1040D0004FF6FF724FF485714FF4D27001F056FC29
:1040E00000204749087022E0B4F5801F05D14C48F4
:1040F0000068401C4A49086019E0B4F5001F05D16A
:1041000047480068401C4649086010E0B4F5000FBD
:1041100005D143480068401C4149086007E0B4F5F8
:10412000800F04D13E480068401C3D49086020468D
:104130003EBD10B53B49AFF28110FCF7FEFB10BD50
:1041400010B500210846FFF777FE10BD10B54FF6F9
:10415000FF7000F04FF900203149086000F0AAFD1F
:1041600010BD00009C030020B9E2B5E7BCC6CAB18F
:10417000CAFDD7D6CAB5D1E9CFB5CDB3000000008E
:104180007B010020CAB5D1E936A3BAB2E2C1BFD6DD
:10419000DCC6DABACDC6B5C2CA000000760100207E
:1041A00078010020D6DCC6DACAFDA3BA2020202080
:1041B00020202000CAB1BCE420743D202020202013
:1041C000202020206D730000D6DCC6DA20543D206C
:1041D00020202020202020206D730000C6B5C2CAF8
:1041E00020663D202020202020202020487A00002A
:1041F000AC0100207A010020F7CE00007C010020F5
:1042000005000020B7B5BBD800000000BFAACABC9B
:1042100000000000AA010020C7E5C1E30000000083
:104220008C030020C701F00F08B50121442002F0E3
:104230005DF81820ADF8000048208DF803006946AD
:104240002F4801F097FD0120ADF8000028208DF8DF
:10425000030069462B4801F08DFD08BD10B50446EA
:1042600014B10120284908702748007888B310212C
:10427000234801F012FE50B10821214801F00DFE43
:1042800028B101211F4801F008FE012822D10A208F
:10429000FCF793F900201C4908701021184801F020
:1042A000FCFD18B90120FCF762FB27E00821144847
:1042B00001F0F3FD18B90220FCF759FB1EE00121C3
:1042C000104801F0EAFD012818D10420FCF74FFB4B
:1042D00014E0FFE710210A4801F0DFFD01280DD1AD
:1042E0000821074801F0D9FD012807D1012105481F
:1042F00001F0D3FD10B901200349087010BD000082
:104300000018014000080140AB010020FE49088070
:104310007047FD49891C0880704700B50246104669
:10432000FFF7F7FF00BDF84A1080921C118070471C
:1043300000B5F6490889FFF7E9FF00BD00B5024660
:104340000B46F2494889FFF7E1FF1012FFF7E1FF42
:10435000D0B2FFF7DEFF511C0812FFF7DAFF511C45
:1043600088B2FFF7D6FFE9498889FFF7CFFF181217
:10437000FFF7CFFFD8B2FFF7CCFF591C0812FFF7A9
:10438000C8FF591C88B2FFF7C4FFFFF7D1FF00BD7B
:1043900030B504460D4629462046FFF7CFFFDC48DE
:1043A0000088FFF7B6FF30BD30B504460D46D7494B
:1043B0004889FFF7ABFF2012FFF7ABFFE0B2FFF732
:1043C000A8FF1012FFF7A5FFD0B2FFF7A2FFCF4959
:1043D0008889FFF79BFF2812FFF79BFFE8B2FFF7E2
:1043E00098FF1812FFF795FFD8B2FFF792FFFFF77B
:1043F0009FFF30BD70B5044600250026C3484088A5
:10440000401E83B2C1480088401E82B20021084687
:10441000FFF7CAFF00BF08E0002503E0BA48801C90
:1044200004806D1CA02DF9D3761CB6F5707FF3D3F4
:1044300070BD00B59FB00121080201F04AFF0121C3
:1044400040F2791001F052FF0120ADF87800102001
:104450008DF87B0003208DF87A001EA9AD4801F08D
:1044600089FC4CF23370ADF8780018208DF87B0091
:1044700003208DF87A001EA9A74801F07BFC4FF6B7
:104480008070ADF8780018208DF87B0003208DF83F
:104490007A001EA9A14801F06DFC41F20100ADF8BF
:1044A000780018208DF87B0003208DF87A001EA973
:1044B0009B4801F05FFC01200890002009900F202C
:1044C0000A9000200B900C900D900E90022001900D
:1044D0000020029005200390002004900590069093
:1044E000079006200F90002010901190102012903D
:1044F0000020139015901490169017904FF4805050
:104500001890002019904FF480401A9000201B90C2
:1045100008A81C9001A81D900FA801F097FF012189
:10452000062002F0FBF81FB000BD00B52A20774935
:1045300048812B2088812C200881012088714FF42C
:10454000F07008804FF4A0704880A8213620FFF753
:10455000EAFE00BD10B5FFF76CFFF120FFF7D6FEB5
:104560003620FFF7D6FE0420FFF7D3FE0020FFF72A
:10457000D0FE3C20FFF7CDFE0F20FFF7CAFE8F20B4
:10458000FFF7C7FEF220FFF7C1FE1820FFF7C1FEBC
:10459000A320FFF7BEFE1220FFF7BBFE0220FFF7AD
:1045A000B8FEB220FFF7B5FE1220FFF7B2FEFF20E3
:1045B000FFF7AFFE1020FFF7ACFE0020FFF7A9FECB
:1045C000F820FFF7A3FE2120FFF7A3FE0420FFF74A
:1045D000A0FEF920FFF79AFE0020FFF79AFE0820C0
:1045E000FFF797FE3620FFF791FE0820FFF791FEB8
:1045F000B420FFF78BFE0020FFF78BFEB620FFF7FD
:1046000085FE0220FFF785FE2220FFF782FEC120F3
:10461000FFF77CFE4120FFF77CFEC520FFF776FE0A
:104620000020FFF776FE1820FFF773FEE020FFF76B
:104630006DFE0F20FFF76DFE1F20FFF76AFE1C20A6
:10464000FFF767FE0C20FFF764FE0F20FFF761FE07
:104650000820FFF75EFE4820FFF75BFE9820FFF77B
:1046600058FE3720FFF755FE0A20FFF752FE1320B1
:10467000FFF74FFE0420FFF74CFE1120FFF749FE25
:104680000D20FFF746FE0020FFF743FEE120FFF775
:104690003DFE0F20FFF73DFE3220FFF73AFE2E20B1
:1046A000FFF737FE0B20FFF734FE0D20FFF731FE3A
:1046B0000520FFF72EFE4720FFF72BFE7520FFF7A2
:1046C00028FE3720FFF725FE0620FFF722FE1020E8
:1046D000FFF71FFE0320FFF71CFE2420FFF719FE43
:1046E0002020FFF716FE0020FFF713FE3A20FFF709
:1046F0000DFE5520FFF70DFE1120FFF707FE3620B7
:10470000FFF704FEC8200DE0FE07006C9C030020AC
:10471000AC010020000C01400014014000180140D1
:1047200000200140FFF7F5FD7820FBF746FF292028
:10473000FFF7ECFDFFF7F9FE4FF6FF70FFF75AFEAB
:1047400001200149086010BD80812142002100BF85
:1047500014E000F080021AB10122FA4B1A6002E064
:104760000022F84B1A604206100E0022F64B1A6027
:104770000122F64BC3F884214A1CD1B20829E8DB98
:10478000704770B50646002500240020EE490860F9
:10479000EF49C1F8A401EB49083108603046FFF742
:1047A000D5FF0620FBF7E5FE0020E849C1F88401AB
:1047B0000120FBF7DEFE0120E34908600020E34909
:1047C000C1F8840100BF12E04FF6FF7000EA440414
:1047D0000020DD4908600120DC49C1F88401DA4885
:1047E0007C38006808B1601C84B2681CC5B2102D0A
:1047F000EADB24110120D34908310860204670BD4E
:104800002DE9FE4380460027002406E04046FFF7DE
:10481000B8FF2DF81400601C84B2052CF6DB0024D0
:1048200016E0601C85B20FE03DF814003DF815104D
:10483000884207DD3DF814603DF815002DF814009E
:104840002DF81560681C85B2052DEDDB601C84B267
:10485000042CE6DB0027012405E03DF81400384471
:1048600087B2601C84B2042CF7DB032097FBF0F0C6
:1048700086B23046BDE8FE832DE9F04104460D4680
:10488000B4480078FFF7BCFF0646B3480078FFF74E
:10489000B7FF074626802F800120BDE8F0817FB555
:1048A00004460D4602A903A8FFF7E6FF064616B91F
:1048B000002004B070BD694601A8FFF7DDFF064681
:1048C0000EB90020F5E7BDF80400BDF80C108842D1
:1048D00006DCBDF80C10BDF80400323081420CDB60
:1048E000BDF80C00BDF80410884236DCBDF8041099
:1048F000BDF80C00323081422FDABDF80000BDF85F
:104900000810884206DCBDF80810BDF800003230FF
:1049100081420CDBBDF80800BDF8001088421CDCA9
:10492000BDF80010BDF808003230814215DABDF83C
:104930000C10BDF80420881800EBD071C1F34F01B2
:104940002180BDF80810BDF80020881800EBD07158
:10495000C1F34F0129800120ABE70020A9E7F8B59A
:1049600004460D4616467D48068004F10D018AB2C4
:10497000193988B22B46294600F06EFB05F10D006F
:1049800083B2193881B22246204600F065FB6A1CCA
:1049900091B2621C90B2FFF7FBFC6A1C91B2621EDE
:1049A00090B2FFF7F5FC6A1E91B2621C90B2FFF75D
:1049B000EFFC6A1E91B2621E90B2FFF7E9FC002084
:1049C00006230090654802882946204600F00DFC29
:1049D000F8BD70B504460D46164660480680294667
:1049E0002046FFF7D5FC611C88B22946FFF7D0FCB2
:1049F000681C81B22046FFF7CBFC6A1C91B2621C96
:104A000090B2FFF7C5FC70BD2DE9F04104464D485A
:104A10007C380068002853D124B15149881EFFF723
:104A20003EFF3CE04E49881EFFF739FFB8B34C49C2
:104A30001239B1F9200003F063F8074648491239EA
:104A4000088A03F075F88046454812388169404667
:104A500003F082F80646394602F0D0FF054603F01F
:104A60002FF83F4912390882B1F9220003F048F8C3
:104A700007463B491239488A03F05AF880463848BD
:104A80001238C169404603F067F80646394602F01D
:104A9000B5FF054603F014F8314912394882304811
:104AA0001238007D00F0800010BBC0202C49123964
:104AB00008750846008A88810846408AC88117E040
:104AC00027481238007D00F0800040B12448123899
:104AD000007D20F0800022491239087508E000208E
:104AE0001F4912398881C8814FF6FF7008824882B9
:104AF0001B481238007D00F08000BDE8F0811948A5
:104B00001749123988611848C8616FF01E0008847F
:104B10006FF012004884012081F82400084690F8C4
:104B2000240030B190200B490870D0200A49087049
:104B300005E0D0200749087090200749087001203F
:104B400070470000A48123428481214200802142D9
:104B500000802342DC010020DD010020AC010020A8
:104B6000C6010020A75C043EE9A1AF3D08B50121C4
:104B7000882001F0BBFB0220ADF8000010208DF86A
:104B8000030003208DF802006946234801F0F2F883
:104B90000221214801F09BF94FF40060ADF80000BC
:104BA00010208DF8030003208DF8020069461B4891
:104BB00001F0E0F84FF40061184801F088F94FF473
:104BC0000070ADF8000010208DF80300694613480E
:104BD00001F0D0F84FF40071104801F078F94FF46B
:104BE0008060ADF8000048208DF8030069460B484E
:104BF00001F0C0F80420ADF8000048208DF8030053
:104C00006946054801F0B6F80549881EFFF734FEED
:104C1000FFF775FF012008BD000C0140001C01409A
:104C2000C601002008B50121482001F05FFB2020CB
:104C3000ADF8000010208DF8030003208DF802006D
:104C400069460C4801F096F820210A4801F03FF926
:104C50002020ADF8000010208DF8030003208DF80F
:104C600002006946044801F085F82021024801F05D
:104C70002EF908BD000C01400018014008B50121C3
:104C8000042001F033FB3C20ADF8000028208DF813
:104C9000030003208DF802006946694801F06AF8B4
:104CA00008BD10B50121880702F048FB01206549C5
:104CB000087010BD10B500214FF0804002F03EFB9F
:104CC0000020614908605F490870604908604860D9
:104CD0008860C860086248628862C862086148618A
:104CE0008861C86108634863886310BD0EB5FFF72B
:104CF000C5FF0121084601F0F9FA0721002001F063
:104D00004FF93C20019000208DF8080010208DF80C
:104D1000090001A801F062FE08208DF800000020C3
:104D20008DF8010001208DF802008DF8030068461F
:104D300000F057FF09208DF8000000208DF80100D9
:104D400002208DF8020001208DF80300684600F073
:104D500048FF0A208DF8000000208DF80100032094
:104D60008DF8020001208DF80300684600F039FF3D
:104D700017208DF8000000208DF8010004208DF828
:104D8000020001208DF80300684600F02AFF0EBDE6
:104D900010B52C48007868B10421294801F07DF84D
:104DA000012803D10006FBF7E2FD03E04FF4801079
:104DB000FBF7DDFD042001F088FE10BD10B5214891
:104DC000007868B108211E4801F067F8012803D176
:104DD0004006FBF7CCFD03E04FF40010FBF7C7FDE6
:104DE000082001F072FE10BD10B51648007868B1B9
:104DF0001021134801F051F8012803D18006FBF778
:104E0000B6FD03E04FF48000FBF7B1FD102001F088
:104E10005CFE10BD10B50B48007868B12021084831
:104E200001F03BF8012803D1C006FBF7A0FD03E029
:104E30004FF40000FBF79BFD202001F046FE10BD63
:104E400000080140DE010020E4010020AC03002046
:104E50007FB505460C460121084601F054FAADF82D
:104E60000850ADF804400020ADF80A00ADF8060087
:104E700001A94FF0804001F005FF01221146900783
:104E800002F077FA1C208DF8000000208DF8010058
:104E900003208DF8020001208DF80300684600F021
:104EA000A0FE7FBD10B50121880702F010FD40B1C2
:104EB0000121880702F01CFD42480068401C41495E
:104EC000086010BD30B589B005460C4601210220AE
:104ED00001F019FA0121092001F008FA01213A48EC
:104EE00001F019F82020ADF8200018208DF82300DB
:104EF00003208DF8220008A9344800F03BFFADF8EC
:104F00001850ADF814400020ADF81A00ADF81600A6
:104F100005A92F4801F0B6FE7020ADF8040001206D
:104F2000ADF806000020ADF80A00ADF80C0001A9AC
:104F3000274801F026FF0821254802F038FB01210F
:104F4000234802F0FBFA0121214802F0F7F909B0E9
:104F500030BD7FB505460C460121042001F0D3F990
:104F6000ADF80850ADF804400020ADF80A00ADF8E7
:104F7000060001A9174801F085FE012211461548D7
:104F800002F0F7F91E208DF8000002208DF80100D4
:104F90008DF8020001208DF80300684600F021FE24
:104FA00001210C4802F0CAF97FBD10B50121094862
:104FB00002F08DFC28B10121064802F099FCFBF7B4
:104FC000B2FB10BDE401002000081A00000C0140F3
:104FD000000400400008004070B505460E46144627
:104FE00031462846FFF7AAF92046FFF796F970BD2B
:104FF0002DE9F84F06460F4614461D46DDF8289069
:10500000A01B401C1FFA80FAE81B401C1FFA80FB03
:105010000BFB0AF00090681E83B2601E82B2394614
:105020003046FFF7C1F94FF0000804E0F848A0F857
:10503000009008F1010800988045F7D3F5484088B2
:10504000401E83B2F3480088401E82B20021084609
:10505000FFF7AAF9BDE8F88F2DE9FF4F85B081462B
:105060008A460020049003900798A0EB0905089851
:10507000A0EB0A06CDF80890CDF804A0002D01DDC4
:10508000012705E00DB9002702E04FF0FF376D4220
:10509000002E02DD4FF0010806E016B94FF00008BF
:1050A00002E04FF0FF387642B54201DD2C4600E0C9
:1050B00034464FF0000B21E0019A91B2029A90B26F
:1050C000FFF766F90498284404900398304403904D
:1050D0000498A04205DD0498001B0490029838440F
:1050E00002900398A04205DD0398001B03900198ED
:1050F000404401900BF101001FFA80FB601C8345C6
:10510000DADD09B0BDE8F08F2DE9F04104460D4627
:1051100016461F462B46324629462046FFF79CFF7F
:105120003B46224629462046FFF796FF3B4632463D
:1051300039462046FFF790FF3B4632462946304627
:10514000FFF78AFFBDE8F081F8B504460D46164624
:105150001F46B14800883B4632462946009020460B
:10516000FFF746FFF8BD2DE9F04104460D4616460F
:105170001F46DDF81880EA1991B2A21990B2424692
:10518000FFF72AFFEA1991B2A21B90B24246FFF73D
:1051900023FFEA1B91B2A21990B24246FFF71CFF0F
:1051A000EA1B91B2A21B90B24246FFF715FFAA1963
:1051B00091B2E21990B24246FFF70EFFAA1991B2DE
:1051C000E21B90B24246FFF707FFAA1B91B2E21919
:1051D00090B24246FFF700FFAA1B91B2E21B90B2C9
:1051E0004246FFF7F9FEBDE8F0812DE9FF4F81B09F
:1051F000824617469846DDF838B0002445464FEA07
:105200004800C0F10306BBF1000F1FD01BE0A14610
:1052100008E04B462246009750460299FFF7A3FF4D
:1052200009F10109A945F4DD002E04DA042000FB90
:105230000460861D06E0601B042101FB006000F194
:105240000A066D1E641CAC42E1DD18E015E02B4639
:105250002246009750460299FFF785FF002E04DA98
:10526000042000FB0460861D06E0601B042101FB96
:10527000006000F10A066D1E641CAC42E7DD05B05B
:10528000BDE8F08F2DE9FF4F83B081468A469346F3
:10529000DDE91064604800880290A6F12000C6B2E3
:1052A00004EBD47009EB6000401E82B20AEB0400EC
:1052B000401E83B2514648460194FFF775F8129894
:1052C00060BB002527E00C2C07D106EB46005349B4
:1052D00001EB800010F8058006E0102C04D1504846
:1052E00000EB061010F8058000270DE008F0010023
:1052F00018B15846FFF711F802E00698FFF70DF8CD
:105300004FEA6808781CC7B204EBD471B7EB610FA1
:10531000ECDB681CC5B2A542D5DB2DE0002529E0F9
:105320000C2C07D106EB46003C4901EB800010F83D
:10533000058004E03A4800EB061010F805800027CD
:1053400011E03548A0F800B008F0010038B10AEBD0
:10535000050291B209EB070290B2FFF719F84FEA84
:105360006808781CC7B204EBD471B7EB610FE8DBB7
:10537000681CC5B2A542D3DB27490298088025489E
:105380004088401E83B223480088401E82B200211C
:105390000846FFF709F807B0BDE8F08F2DE9FE4396
:1053A00006460F4615461C46DDF828801DE01948C4
:1053B0000088401EB04204DB16484088401EB842B8
:1053C00001DABDE8FE8320788DE8210115480388C5
:1053D0001148028839463046FFF754FF284605EB4E
:1053E000D07106EB61018EB2641C20787E2802DC4D
:1053F00020782028DBDA00BFE3E710B50246012061
:1054000000E050430B1EA1F10104E1B2F9D110BD3F
:105410000008006C9C030020AC010020DA7D00082D
:105420004E820008AE0100202DE9FF4F83B00746F1
:1054300091461E46109C4FF0000A002543E0701B69
:10544000401EC1B20A20FFF7D8FFB9FBF0F00A21D5
:10545000B0FBF1F201FB1208BAF1000F1BD1701E74
:10546000A84218DDB8F1000F13D100202021A34677
:10547000CDE90014029004EBDB71491001FB0571CA
:1054800088B2FD490B88FD490A880499FFF7FAFEA6
:1054900017E04FF0010A002108F13000C0B2A34626
:1054A000CDE90141009004EBDB71491001FB05716E
:1054B00088B2F1490B88F1490A880499FFF7E2FEA6
:1054C00000BF681CC5B2B542B9DB07B0BDE8F08FBC
:1054D0002DE9FF4F83B0074691461E46109C4FF0C2
:1054E000000A002543E0701B401EC1B20A20FFF7EE
:1054F00084FFB9FBF0F00A21B0FBF1F201FB1208C6
:10550000BAF1000F1BD1701EA84218DDB8F1000FD0
:1055100013D100203021A346CDE90014029004EB02
:10552000DB71491001FB057188B2D3490B88D3495F
:105530000A880499FFF7A6FE17E04FF0010A002140
:1055400008F13000C0B2A346CDE90141009004EB60
:10555000DB71491001FB057188B2C7490B88C74947
:105560000A880499FFF78EFE00BF681CC5B2B542D9
:10557000B9DB07B0BDE8F08F2DE9F04706460F46CE
:1055800090469946DDF820A007F11F0083B206F18E
:105590000F0082B239463046FEF706FF002416E0BF
:1055A000002510E0B64800EB8A10005D80212941FB
:1055B000084018B14046FEF7B0FE02E04846FEF74C
:1055C000ACFE681CC5B2082DECDB601CC4B2402CDC
:1055D000E6DBBDE8F0872DE9FF4F81B00746914635
:1055E0001D460E9E4FF0000A00243BE0281B401E83
:1055F000C1B20A20FFF701FFB9FBF0F00A21B0FBAE
:10560000F1F201FB1208BAF1000F18D1681EA04296
:1056100015DDB8F1000F10D10020B34606EBDB71A9
:10562000491001FB0471009088B293490B8893499B
:105630000A880299FFF7A0FF12E04FF0010AB34673
:1056400006EBDB71491001FB047188B28A49CDF881
:1056500000800B8889490A880299FFF78DFF00BFF7
:10566000601CC4B2AC42C1DB05B0BDE8F08F2DE9CF
:10567000FC5F0546884691469A46DDF830B00095B5
:105680003820019000245FE004EB04107D4911F8FC
:1056900010009BF80010884253D104EB04107949A4
:1056A00001EB400040789BF80110884249D108F195
:1056B0000F0083B205F10F0082B241462846FEF783
:1056C00073FE00263BE0002734E00D9890B904EB10
:1056D00004106C4901EB4000801C805D8021394141
:1056E000084018B14846FEF718FE21E05046FEF784
:1056F00014FE1DE06148A0F8009004EB041061491D
:1057000001EB4000801C805D80213941084018B1C8
:1057100041462846FEF73CFE681C85B20098281AD0
:10572000102805D1009D08F101001FFA80F803E060
:10573000781CC7B2082FC8DB00BF701CC6B2202E71
:10574000C1DB00BF601C84B2019884429CDB4E48E0
:105750004088401E83B24C480088401E82B200211F
:105760000846FEF721FEBDE8FC9F2DE9FC5F0546DB
:10577000884691469A46DDF830B0009507200190A2
:10578000002467E004EB840000EB44103F4911F86B
:1057900010009BF80010884259D104EB840000EB04
:1057A00044103A4901EB400040789BF801108842D0
:1057B0004DD108F1170083B205F1170082B24146BE
:1057C0002846FEF7F1FD00263FE0002738E00D985F
:1057D000A0B904EB840000EB44102C4901EB40001D
:1057E000801C805D80213941084018B14846FEF791
:1057F00094FD23E05046FEF790FD1FE01F48A0F8FF
:10580000009004EB840000EB4410204901EB4000C1
:10581000801C805D80213941084018B141462846EE
:10582000FEF7B6FD681C85B20098281A182805D125
:10583000009D08F101001FFA80F803E0781CC7B250
:10584000082FC4DB00BF701CC6B2482EBDDB00BFF2
:10585000601C84B20198844294DB0B484088401E4F
:1058600083B209480088401E82B200210846FEF734
:105870009BFDBDE8FC9F0000AE010020AC010020B4
:105880003E8D00083E9200089C030020AE9900085F
:105890002DE9FC5F0546884691469A46DDF830B012
:1058A00000950420019000245FE004EB8410B749C8
:1058B00011F810009BF80010884253D104EB8410BB
:1058C000B24901EB400040789BF80110884249D171
:1058D00008F11F0083B205F11F0082B2414628463D
:1058E000FEF762FD00263BE0002734E00D9890B9FA
:1058F00004EB8410A54901EB4000801C805D8021F1
:105900003941084018B14846FEF707FD21E05046EE
:10591000FEF703FD1DE09E48A0F8009004EB841004
:105920009A4901EB4000801C805D8021394108408C
:1059300018B141462846FEF72BFD681C85B2009839
:10594000281A202805D1009D08F101001FFA80F8CF
:1059500003E0781CC7B2082FC8DB00BF701CC6B2BA
:10596000802EC1DB00BF601C84B2019884429CDBA6
:1059700088484088401E83B286480088401E82B214
:1059800000210846FEF710FDBDE8FC9F2DE9FF4F02
:1059900083B0064688469146DDE91147109DB24620
:1059A0004FF0000B71E0BBF1000F40D104EBD4715C
:1059B000784A1288A2EB6101B14204DB754949883B
:1059C000091B414502DA07B0BDE8F08F287880282E
:1059D00002DD4FF0010B58E028780D2806D108EBC6
:1059E00004001FFA80F856466D1C1EE0102C0DDDD9
:1059F000102128788DE883004A4641463046069BB0
:105A0000FFF740FC06F1080086B20EE028788DE82A
:105A100091004A4641463046069BFFF733FC20463C
:105A200004EBD07106EB61018EB26D1C2DE059487C
:105A30000088001BB04204DB56484088001B4045EC
:105A400000DAC0E74FF0000B202C08D1CDE9005759
:105A50004A4641463046069BFFF71AFF12E0182CD3
:105A600008D1CDE900574A4641463046069BFFF72C
:105A70007CFE07E0CDE900574A4641463046069B8A
:105A8000FFF7F5FDAD1C301986B2287800288AD1C1
:105A900000BF98E72DE9FF4F83B004460F469046BC
:105AA000DDE9119A109D284601F025FF86B239499B
:105AB0000988A1EBC60000EBD071C1F34F0B04EBDA
:105AC0000B0188B28DE8200642463946069BFFF757
:105AD0005DFF07B0BDE8F08F2DE9F04706460F46A1
